{
  "_format": "hh-sol-artifact-1",
  "contractName": "Atomic",
  "sourceName": "contracts/Atomic.sol",
  "abi": [
    {
      "inputs": [],
      "stateMutability": "nonpayable",
      "type": "constructor"
    },
    {
      "inputs": [
        {
          "internalType": "address",
          "name": "account",
          "type": "address"
        }
      ],
      "name": "addAdmin",
      "outputs": [],
      "stateMutability": "nonpayable",
      "type": "function"
    },
    {
      "inputs": [
        {
          "internalType": "uint256",
          "name": "video_id",
          "type": "uint256"
        },
        {
          "internalType": "string",
          "name": "comment_message",
          "type": "string"
        }
      ],
      "name": "addComment",
      "outputs": [],
      "stateMutability": "payable",
      "type": "function"
    },
    {
      "inputs": [
        {
          "components": [
            {
              "internalType": "string",
              "name": "_title",
              "type": "string"
            },
            {
              "internalType": "string",
              "name": "_description",
              "type": "string"
            },
            {
              "internalType": "string",
              "name": "_url",
              "type": "string"
            },
            {
              "internalType": "string",
              "name": "_thumb_url",
              "type": "string"
            },
            {
              "internalType": "uint256",
              "name": "_duration",
              "type": "uint256"
            },
            {
              "internalType": "string[]",
              "name": "_keywords",
              "type": "string[]"
            }
          ],
          "internalType": "struct Atomic.VideoAdd",
          "name": "_video_add",
          "type": "tuple"
        },
        {
          "internalType": "uint256[]",
          "name": "_attributions",
          "type": "uint256[]"
        },
        {
          "internalType": "string",
          "name": "_near_id",
          "type": "string"
        }
      ],
      "name": "addVideo",
      "outputs": [],
      "stateMutability": "nonpayable",
      "type": "function"
    },
    {
      "inputs": [
        {
          "internalType": "uint256",
          "name": "video_id",
          "type": "uint256"
        }
      ],
      "name": "adminDeleteVideo",
      "outputs": [],
      "stateMutability": "nonpayable",
      "type": "function"
    },
    {
      "inputs": [
        {
          "internalType": "uint256",
          "name": "_video_id",
          "type": "uint256"
        }
      ],
      "name": "deleteVideo",
      "outputs": [],
      "stateMutability": "nonpayable",
      "type": "function"
    },
    {
      "inputs": [
        {
          "internalType": "address",
          "name": "addr",
          "type": "address"
        }
      ],
      "name": "getAddressNearID",
      "outputs": [
        {
          "internalType": "string",
          "name": "",
          "type": "string"
        }
      ],
      "stateMutability": "view",
      "type": "function"
    },
    {
      "inputs": [
        {
          "internalType": "uint256",
          "name": "video_id",
          "type": "uint256"
        }
      ],
      "name": "getAttributions",
      "outputs": [
        {
          "internalType": "uint256[]",
          "name": "",
          "type": "uint256[]"
        }
      ],
      "stateMutability": "view",
      "type": "function"
    },
    {
      "inputs": [
        {
          "internalType": "uint256",
          "name": "video_id",
          "type": "uint256"
        }
      ],
      "name": "getComments",
      "outputs": [
        {
          "components": [
            {
              "internalType": "address",
              "name": "poster",
              "type": "address"
            },
            {
              "internalType": "string",
              "name": "message",
              "type": "string"
            },
            {
              "internalType": "uint256",
              "name": "amount",
              "type": "uint256"
            },
            {
              "internalType": "uint256",
              "name": "timestamp",
              "type": "uint256"
            }
          ],
          "internalType": "struct Atomic.Comment[]",
          "name": "",
          "type": "tuple[]"
        }
      ],
      "stateMutability": "view",
      "type": "function"
    },
    {
      "inputs": [
        {
          "internalType": "uint256",
          "name": "size",
          "type": "uint256"
        }
      ],
      "name": "getLatestVideos",
      "outputs": [
        {
          "components": [
            {
              "components": [
                {
                  "internalType": "uint256",
                  "name": "id",
                  "type": "uint256"
                },
                {
                  "internalType": "string",
                  "name": "title",
                  "type": "string"
                },
                {
                  "internalType": "string",
                  "name": "description",
                  "type": "string"
                },
                {
                  "internalType": "string",
                  "name": "url",
                  "type": "string"
                },
                {
                  "internalType": "string",
                  "name": "thumb_url",
                  "type": "string"
                },
                {
                  "internalType": "string[]",
                  "name": "keywords",
                  "type": "string[]"
                },
                {
                  "internalType": "uint256",
                  "name": "duration",
                  "type": "uint256"
                },
                {
                  "internalType": "uint256",
                  "name": "timestamp",
                  "type": "uint256"
                }
              ],
              "internalType": "struct Atomic.Video",
              "name": "video",
              "type": "tuple"
            },
            {
              "internalType": "string",
              "name": "near_id",
              "type": "string"
            }
          ],
          "internalType": "struct Atomic.VideoWithNearID[]",
          "name": "",
          "type": "tuple[]"
        }
      ],
      "stateMutability": "view",
      "type": "function"
    },
    {
      "inputs": [],
      "name": "getOwner",
      "outputs": [
        {
          "internalType": "address",
          "name": "",
          "type": "address"
        }
      ],
      "stateMutability": "view",
      "type": "function"
    },
    {
      "inputs": [
        {
          "internalType": "uint256",
          "name": "video_id",
          "type": "uint256"
        }
      ],
      "name": "getVideo",
      "outputs": [
        {
          "components": [
            {
              "components": [
                {
                  "internalType": "uint256",
                  "name": "id",
                  "type": "uint256"
                },
                {
                  "internalType": "string",
                  "name": "title",
                  "type": "string"
                },
                {
                  "internalType": "string",
                  "name": "description",
                  "type": "string"
                },
                {
                  "internalType": "string",
                  "name": "url",
                  "type": "string"
                },
                {
                  "internalType": "string",
                  "name": "thumb_url",
                  "type": "string"
                },
                {
                  "internalType": "string[]",
                  "name": "keywords",
                  "type": "string[]"
                },
                {
                  "internalType": "uint256",
                  "name": "duration",
                  "type": "uint256"
                },
                {
                  "internalType": "uint256",
                  "name": "timestamp",
                  "type": "uint256"
                }
              ],
              "internalType": "struct Atomic.Video",
              "name": "video",
              "type": "tuple"
            },
            {
              "internalType": "string",
              "name": "near_id",
              "type": "string"
            }
          ],
          "internalType": "struct Atomic.VideoWithNearID",
          "name": "",
          "type": "tuple"
        }
      ],
      "stateMutability": "view",
      "type": "function"
    },
    {
      "inputs": [
        {
          "internalType": "string",
          "name": "_near_id",
          "type": "string"
        }
      ],
      "name": "getVideoByNearID",
      "outputs": [
        {
          "components": [
            {
              "components": [
                {
                  "internalType": "uint256",
                  "name": "id",
                  "type": "uint256"
                },
                {
                  "internalType": "string",
                  "name": "title",
                  "type": "string"
                },
                {
                  "internalType": "string",
                  "name": "description",
                  "type": "string"
                },
                {
                  "internalType": "string",
                  "name": "url",
                  "type": "string"
                },
                {
                  "internalType": "string",
                  "name": "thumb_url",
                  "type": "string"
                },
                {
                  "internalType": "string[]",
                  "name": "keywords",
                  "type": "string[]"
                },
                {
                  "internalType": "uint256",
                  "name": "duration",
                  "type": "uint256"
                },
                {
                  "internalType": "uint256",
                  "name": "timestamp",
                  "type": "uint256"
                }
              ],
              "internalType": "struct Atomic.Video",
              "name": "video",
              "type": "tuple"
            },
            {
              "internalType": "string",
              "name": "near_id",
              "type": "string"
            }
          ],
          "internalType": "struct Atomic.VideoWithNearID[]",
          "name": "",
          "type": "tuple[]"
        }
      ],
      "stateMutability": "view",
      "type": "function"
    },
    {
      "inputs": [
        {
          "internalType": "string[]",
          "name": "terms",
          "type": "string[]"
        }
      ],
      "name": "getVideosByTerm",
      "outputs": [
        {
          "components": [
            {
              "components": [
                {
                  "internalType": "uint256",
                  "name": "id",
                  "type": "uint256"
                },
                {
                  "internalType": "string",
                  "name": "title",
                  "type": "string"
                },
                {
                  "internalType": "string",
                  "name": "description",
                  "type": "string"
                },
                {
                  "internalType": "string",
                  "name": "url",
                  "type": "string"
                },
                {
                  "internalType": "string",
                  "name": "thumb_url",
                  "type": "string"
                },
                {
                  "internalType": "string[]",
                  "name": "keywords",
                  "type": "string[]"
                },
                {
                  "internalType": "uint256",
                  "name": "duration",
                  "type": "uint256"
                },
                {
                  "internalType": "uint256",
                  "name": "timestamp",
                  "type": "uint256"
                }
              ],
              "internalType": "struct Atomic.Video",
              "name": "video",
              "type": "tuple"
            },
            {
              "internalType": "string",
              "name": "near_id",
              "type": "string"
            }
          ],
          "internalType": "struct Atomic.VideoWithNearID[]",
          "name": "",
          "type": "tuple[]"
        }
      ],
      "stateMutability": "view",
      "type": "function"
    },
    {
      "inputs": [
        {
          "internalType": "string",
          "name": "_near_id",
          "type": "string"
        }
      ],
      "name": "setNearID",
      "outputs": [],
      "stateMutability": "nonpayable",
      "type": "function"
    }
  ],
  "bytecode": "0x608060405260016000556001805534801561001957600080fd5b50600280546001600160a01b031916331790556139878061003b6000396000f3fe6080604052600436106100dd5760003560e01c80635eaecd121161007f5780638799bd74116100595780638799bd741461026e578063893d20e81461028e578063aa7e5683146102c3578063d4ab873e146102d657600080fd5b80635eaecd121461020e57806360c736cd1461022e578063704802751461024e57600080fd5b806323edf697116100bb57806323edf697146101675780632893eca2146101945780633e35019e146101c1578063413cf029146101ee57600080fd5b8063051cb30d146100e2578063087f44fd1461011857806317500c7914610145575b600080fd5b3480156100ee57600080fd5b506101026100fd366004612de8565b6102f6565b60405161010f9190612e01565b60405180910390f35b34801561012457600080fd5b50610138610133366004612e45565b6103cf565b60405161010f9190612ef0565b34801561015157600080fd5b50610165610160366004612f4c565b61047e565b005b34801561017357600080fd5b50610187610182366004612de8565b610783565b60405161010f919061301a565b3480156101a057600080fd5b506101b46101af366004612de8565b610a1d565b60405161010f919061324c565b3480156101cd57600080fd5b506101e16101dc3660046133f2565b610e02565b60405161010f9190613443565b3480156101fa57600080fd5b50610165610209366004612de8565b6112e0565b34801561021a57600080fd5b506101e16102293660046134c5565b61149a565b34801561023a57600080fd5b506101656102493660046134fa565b611a30565b34801561025a57600080fd5b50610165610269366004612e45565b611a70565b34801561027a57600080fd5b506101e1610289366004612de8565b611b69565b34801561029a57600080fd5b5060025460405173ffffffffffffffffffffffffffffffffffffffff909116815260200161010f565b6101656102d136600461353c565b611f7b565b3480156102e257600080fd5b506101656102f1366004612de8565b6124e9565b60008181526007602052604090205460609073ffffffffffffffffffffffffffffffffffffffff1661036f5760405162461bcd60e51b815260206004820152601160248201527f566964656f206d7573742065786973742e00000000000000000000000000000060448201526064015b60405180910390fd5b6000828152600d6020908152604091829020805483518184028101840190945280845290918301828280156103c357602002820191906000526020600020905b8154815260200190600101908083116103af575b50505050509050919050565b73ffffffffffffffffffffffffffffffffffffffff8116600090815260036020526040902080546060919061040390613588565b80601f016020809104026020016040519081016040528092919081815260200182805461042f90613588565b80156103c35780601f10610451576101008083540402835291602001916103c3565b820191906000526020600020905b81548152906001019060200180831161045f5750939695505050505050565b60008054818061048d8361360a565b90915550604080516101008101909152818152909150602081016104b18880613642565b8080601f0160208091040260200160405190810160405280939291908181526020018383808284376000920191909152505050908252506020908101906104fa90890189613642565b8080601f0160208091040260200160405190810160405280939291908181526020018383808284376000920191909152505050908252506020016105416040890189613642565b8080601f0160208091040260200160405190810160405280939291908181526020018383808284376000920191909152505050908252506020016105886060890189613642565b8080601f0160208091040260200160405190810160405280939291908181526020018383808284376000920191909152505050908252506020016105cf60a08901896136a7565b6105d89161370f565b815260808801356020808301919091524260409283015260008481526008825291909120825181559082015160018201906106139082613764565b50604082015160028201906106289082613764565b506060820151600382019061063d9082613764565b50608082015160048201906106529082613764565b5060a0820151805161066e916005840191602090910190612ccb565b5060c082015160068083019190915560e09092015160079182015560008381526020918252604080822080547fffffffffffffffffffffffff00000000000000000000000000000000000000001633908117909155825292825291822080546001810182559083529120018190556106f2816106ed60a08901896136a7565b6125d9565b8315610735576107358186868080602002602001604051908101604052809392919081815260200183836020028082843760009201919091525061271e92505050565b811561077b5761077b3384848080601f01602080910402602001604051908101604052809392919081815260200183838082843760009201919091525061283e92505050565b505050505050565b60008181526007602052604090205460609073ffffffffffffffffffffffffffffffffffffffff166107f75760405162461bcd60e51b815260206004820152601160248201527f566964656f206d7573742065786973742e0000000000000000000000000000006044820152606401610366565b6000828152600b602052604081205467ffffffffffffffff81111561081e5761081e61325f565b60405190808252806020026020018201604052801561089057816020015b61087d6040518060800160405280600073ffffffffffffffffffffffffffffffffffffffff1681526020016060815260200160008152602001600081525090565b81526020019060019003908161083c5790505b50905060005b6000848152600b6020526040902054811015610a16576000848152600b602052604081208054600c929190849081106108d1576108d161387e565b906000526020600020015481526020019081526020016000206040518060800160405290816000820160009054906101000a900473ffffffffffffffffffffffffffffffffffffffff1673ffffffffffffffffffffffffffffffffffffffff1673ffffffffffffffffffffffffffffffffffffffff16815260200160018201805461095b90613588565b80601f016020809104026020016040519081016040528092919081815260200182805461098790613588565b80156109d45780601f106109a9576101008083540402835291602001916109d4565b820191906000526020600020905b8154815290600101906020018083116109b757829003601f168201915b5050505050815260200160028201548152602001600382015481525050828281518110610a0357610a0361387e565b6020908102919091010152600101610896565b5092915050565b610a25612d21565b60008281526007602052604090205473ffffffffffffffffffffffffffffffffffffffff16610a965760405162461bcd60e51b815260206004820152601160248201527f566964656f206d7573742065786973742e0000000000000000000000000000006044820152606401610366565b610dfc600860008481526020019081526020016000206040518061010001604052908160008201548152602001600182018054610ad290613588565b80601f0160208091040260200160405190810160405280929190818152602001828054610afe90613588565b8015610b4b5780601f10610b2057610100808354040283529160200191610b4b565b820191906000526020600020905b815481529060010190602001808311610b2e57829003601f168201915b50505050508152602001600282018054610b6490613588565b80601f0160208091040260200160405190810160405280929190818152602001828054610b9090613588565b8015610bdd5780601f10610bb257610100808354040283529160200191610bdd565b820191906000526020600020905b815481529060010190602001808311610bc057829003601f168201915b50505050508152602001600382018054610bf690613588565b80601f0160208091040260200160405190810160405280929190818152602001828054610c2290613588565b8015610c6f5780601f10610c4457610100808354040283529160200191610c6f565b820191906000526020600020905b815481529060010190602001808311610c5257829003601f168201915b50505050508152602001600482018054610c8890613588565b80601f0160208091040260200160405190810160405280929190818152602001828054610cb490613588565b8015610d015780601f10610cd657610100808354040283529160200191610d01565b820191906000526020600020905b815481529060010190602001808311610ce457829003601f168201915b5050505050815260200160058201805480602002602001604051908101604052809291908181526020016000905b82821015610ddb578382906000526020600020018054610d4e90613588565b80601f0160208091040260200160405190810160405280929190818152602001828054610d7a90613588565b8015610dc75780601f10610d9c57610100808354040283529160200191610dc7565b820191906000526020600020905b815481529060010190602001808311610daa57829003601f168201915b505050505081526020019060010190610d2f565b5050505081526020016006820154815260200160078201548152505061299c565b92915050565b60606000805b8351811015610e5e576009848281518110610e2557610e2561387e565b6020026020010151604051610e3a91906138ad565b90815260405190819003602001902054610e5490836138c9565b9150600101610e08565b5060008167ffffffffffffffff811115610e7a57610e7a61325f565b604051908082528060200260200182016040528015610eb357816020015b610ea0612d21565b815260200190600190039081610e985790505b5090506000805b85518110156112d65760005b6009878381518110610eda57610eda61387e565b6020026020010151604051610eef91906138ad565b908152604051908190036020019020548110156112cd5761129d6008600060098a8681518110610f2157610f2161387e565b6020026020010151604051610f3691906138ad565b90815260200160405180910390208481548110610f5557610f5561387e565b906000526020600020015481526020019081526020016000206040518061010001604052908160008201548152602001600182018054610f9490613588565b80601f0160208091040260200160405190810160405280929190818152602001828054610fc090613588565b801561100d5780601f10610fe25761010080835404028352916020019161100d565b820191906000526020600020905b815481529060010190602001808311610ff057829003601f168201915b5050505050815260200160028201805461102690613588565b80601f016020809104026020016040519081016040528092919081815260200182805461105290613588565b801561109f5780601f106110745761010080835404028352916020019161109f565b820191906000526020600020905b81548152906001019060200180831161108257829003601f168201915b505050505081526020016003820180546110b890613588565b80601f01602080910402602001604051908101604052809291908181526020018280546110e490613588565b80156111315780601f1061110657610100808354040283529160200191611131565b820191906000526020600020905b81548152906001019060200180831161111457829003601f168201915b5050505050815260200160048201805461114a90613588565b80601f016020809104026020016040519081016040528092919081815260200182805461117690613588565b80156111c35780601f10611198576101008083540402835291602001916111c3565b820191906000526020600020905b8154815290600101906020018083116111a657829003601f168201915b5050505050815260200160058201805480602002602001604051908101604052809291908181526020016000905b82821015610ddb57838290600052602060002001805461121090613588565b80601f016020809104026020016040519081016040528092919081815260200182805461123c90613588565b80156112895780601f1061125e57610100808354040283529160200191611289565b820191906000526020600020905b81548152906001019060200180831161126c57829003601f168201915b5050505050815260200190600101906111f1565b84846112a88161360a565b9550815181106112ba576112ba61387e565b6020908102919091010152600101610ec6565b50600101610eba565b5090949350505050565b6000805b6040517f61646d696e0000000000000000000000000000000000000000000000000000008152600f90600501908152604051908190036020019020548110156113ab576040517f61646d696e0000000000000000000000000000000000000000000000000000008152600f90600501908152602001604051809103902081815481106113725761137261387e565b60009182526020909120015473ffffffffffffffffffffffffffffffffffffffff1633036113a357600191506113ab565b6001016112e4565b5060025473ffffffffffffffffffffffffffffffffffffffff1633036113cf575060015b8061141c5760405162461bcd60e51b815260206004820152600d60248201527f4163636573732044656e696564000000000000000000000000000000000000006044820152606401610366565b60008281526007602052604090205473ffffffffffffffffffffffffffffffffffffffff1661148d5760405162461bcd60e51b815260206004820152601160248201527f566964656f206d7573742065786973742e0000000000000000000000000000006044820152606401610366565b61149682612a79565b5050565b60606000805b6004846040516114b091906138ad565b9081526040519081900360200190205481101561154057600660006004866040516114db91906138ad565b908152602001604051809103902083815481106114fa576114fa61387e565b600091825260208083209091015473ffffffffffffffffffffffffffffffffffffffff16835282019290925260400190205461153690836138c9565b91506001016114a0565b5060008167ffffffffffffffff81111561155c5761155c61325f565b60405190808252806020026020018201604052801561159557816020015b611582612d21565b81526020019060019003908161157a5790505b5090506000805b6004866040516115ac91906138ad565b908152604051908190036020019020548110156112d65760005b600660006004896040516115da91906138ad565b908152602001604051809103902084815481106115f9576115f961387e565b600091825260208083209091015473ffffffffffffffffffffffffffffffffffffffff168352820192909252604001902054811015611a27576119f7600860006006600060048c60405161164d91906138ad565b9081526020016040518091039020878154811061166c5761166c61387e565b600091825260208083209091015473ffffffffffffffffffffffffffffffffffffffff16835282019290925260400190208054859081106116af576116af61387e565b9060005260206000200154815260200190815260200160002060405180610100016040529081600082015481526020016001820180546116ee90613588565b80601f016020809104026020016040519081016040528092919081815260200182805461171a90613588565b80156117675780601f1061173c57610100808354040283529160200191611767565b820191906000526020600020905b81548152906001019060200180831161174a57829003601f168201915b5050505050815260200160028201805461178090613588565b80601f01602080910402602001604051908101604052809291908181526020018280546117ac90613588565b80156117f95780601f106117ce576101008083540402835291602001916117f9565b820191906000526020600020905b8154815290600101906020018083116117dc57829003601f168201915b5050505050815260200160038201805461181290613588565b80601f016020809104026020016040519081016040528092919081815260200182805461183e90613588565b801561188b5780601f106118605761010080835404028352916020019161188b565b820191906000526020600020905b81548152906001019060200180831161186e57829003601f168201915b505050505081526020016004820180546118a490613588565b80601f01602080910402602001604051908101604052809291908181526020018280546118d090613588565b801561191d5780601f106118f25761010080835404028352916020019161191d565b820191906000526020600020905b81548152906001019060200180831161190057829003601f168201915b5050505050815260200160058201805480602002602001604051908101604052809291908181526020016000905b82821015610ddb57838290600052602060002001805461196a90613588565b80601f016020809104026020016040519081016040528092919081815260200182805461199690613588565b80156119e35780601f106119b8576101008083540402835291602001916119e3565b820191906000526020600020905b8154815290600101906020018083116119c657829003601f168201915b50505050508152602001906001019061194b565b8484611a028161360a565b955081518110611a1457611a1461387e565b60209081029190910101526001016115c6565b5060010161159c565b6114963383838080601f01602080910402602001604051908101604052809392919081815260200183838082843760009201919091525061283e92505050565b60025473ffffffffffffffffffffffffffffffffffffffff163314611ad75760405162461bcd60e51b815260206004820152600d60248201527f4163636573732044656e696564000000000000000000000000000000000000006044820152606401610366565b6040517f61646d696e0000000000000000000000000000000000000000000000000000008152600f9060050190815260405160209181900382019020805460018101825560009182529190200180547fffffffffffffffffffffffff00000000000000000000000000000000000000001673ffffffffffffffffffffffffffffffffffffffff92909216919091179055565b60606000826001600054611b7d91906138dc565b11611b96576001600054611b9191906138dc565b611b98565b825b67ffffffffffffffff811115611bb057611bb061325f565b604051908082528060200260200182016040528015611be957816020015b611bd6612d21565b815260200190600190039081611bce5790505b50905060005b8151811015610a1657611f5660086000600184600054611c0f91906138dc565b611c1991906138dc565b81526020019081526020016000206040518061010001604052908160008201548152602001600182018054611c4d90613588565b80601f0160208091040260200160405190810160405280929190818152602001828054611c7990613588565b8015611cc65780601f10611c9b57610100808354040283529160200191611cc6565b820191906000526020600020905b815481529060010190602001808311611ca957829003601f168201915b50505050508152602001600282018054611cdf90613588565b80601f0160208091040260200160405190810160405280929190818152602001828054611d0b90613588565b8015611d585780601f10611d2d57610100808354040283529160200191611d58565b820191906000526020600020905b815481529060010190602001808311611d3b57829003601f168201915b50505050508152602001600382018054611d7190613588565b80601f0160208091040260200160405190810160405280929190818152602001828054611d9d90613588565b8015611dea5780601f10611dbf57610100808354040283529160200191611dea565b820191906000526020600020905b815481529060010190602001808311611dcd57829003601f168201915b50505050508152602001600482018054611e0390613588565b80601f0160208091040260200160405190810160405280929190818152602001828054611e2f90613588565b8015611e7c5780601f10611e5157610100808354040283529160200191611e7c565b820191906000526020600020905b815481529060010190602001808311611e5f57829003601f168201915b5050505050815260200160058201805480602002602001604051908101604052809291908181526020016000905b82821015610ddb578382906000526020600020018054611ec990613588565b80601f0160208091040260200160405190810160405280929190818152602001828054611ef590613588565b8015611f425780601f10611f1757610100808354040283529160200191611f42565b820191906000526020600020905b815481529060010190602001808311611f2557829003601f168201915b505050505081526020019060010190611eaa565b828281518110611f6857611f6861387e565b6020908102919091010152600101611bef565b60008381526007602052604090205473ffffffffffffffffffffffffffffffffffffffff16611fec5760405162461bcd60e51b815260206004820152601160248201527f566964656f206d7573742065786973742e0000000000000000000000000000006044820152606401610366565b34156123c4576000838152600760205260409020543373ffffffffffffffffffffffffffffffffffffffff9091160361208d5760405162461bcd60e51b815260206004820152602660248201527f596f752063616e6e6f7420737570657263686174206f6e20796f7572206f776e60448201527f20766964656f00000000000000000000000000000000000000000000000000006064820152608401610366565b6000600a61209c3460096138ef565b6120a69190613906565b60025490915060009073ffffffffffffffffffffffffffffffffffffffff166120cf83346138dc565b604051600081818185875af1925050503d806000811461210b576040519150601f19603f3d011682016040523d82523d6000602084013e612110565b606091505b50509050806121615760405162461bcd60e51b815260206004820152601d60248201527f4661696c656420746f2073656e6420457468657220746f206f776e65720000006044820152606401610366565b6000858152600d602052604081205461217b9060016138c9565b905060006121898285613906565b905060005b6000888152600d60205260409020548110156122c1576000888152600d602052604081208054839081106121c4576121c461387e565b6000918252602080832091909101548083526007909152604080832054905191935073ffffffffffffffffffffffffffffffffffffffff169190829086908381818185875af1925050503d806000811461223a576040519150601f19603f3d011682016040523d82523d6000602084013e61223f565b606091505b50509050806122b65760405162461bcd60e51b815260206004820152602160248201527f4661696c656420746f2073656e6420457468657220746f20612063726561746f60448201527f72000000000000000000000000000000000000000000000000000000000000006064820152608401610366565b50505060010161218e565b5060008781526007602052604081205473ffffffffffffffffffffffffffffffffffffffff166122f26001856138dc565b6122fc90846138ef565b61230690876138dc565b604051600081818185875af1925050503d8060008114612342576040519150601f19603f3d011682016040523d82523d6000602084013e612347565b606091505b50509050806123be5760405162461bcd60e51b815260206004820152602360248201527f4661696c656420746f2073656e6420457468657220746f20746865206372656160448201527f746f7200000000000000000000000000000000000000000000000000000000006064820152608401610366565b50505050505b60018054600091826123d58361360a565b91905055905060405180608001604052803373ffffffffffffffffffffffffffffffffffffffff16815260200184848080601f016020809104026020016040519081016040528093929190818152602001838380828437600092018290525093855250503460208085019190915242604094850152858352600c815292909120835181547fffffffffffffffffffffffff00000000000000000000000000000000000000001673ffffffffffffffffffffffffffffffffffffffff909116178155918301516001830191506124aa9082613764565b5060408281015160028301556060909201516003909101556000948552600b602090815290852080546001810182559086529420909301929092555050565b60008181526007602052604090205473ffffffffffffffffffffffffffffffffffffffff1661255a5760405162461bcd60e51b815260206004820152601160248201527f566964656f206d7573742065786973742e0000000000000000000000000000006044820152606401610366565b60008181526007602052604090205473ffffffffffffffffffffffffffffffffffffffff1633146125cd5760405162461bcd60e51b815260206004820152601960248201527f596f7520646f206e6f74206f776e2074686520766964656f2e000000000000006044820152606401610366565b6125d681612a79565b50565b60005b8181101561271857600a8383838181106125f8576125f861387e565b905060200281019061260a9190613642565b604051612618929190613941565b90815260408051602092819003830190206000878152925290205460ff1661271057600983838381811061264e5761264e61387e565b90506020028101906126609190613642565b60405161266e929190613941565b9081526040516020918190038201902080546001808201835560009283529290912001859055600a8484848181106126a8576126a861387e565b90506020028101906126ba9190613642565b6040516126c8929190613941565b908152604080516020928190038301902060008881529252902080547fffffffffffffffffffffffffffffffffffffffffffffffffffffffffffffff00169115159190911790555b6001016125dc565b50505050565b60008281526007602052604090205473ffffffffffffffffffffffffffffffffffffffff1633146127915760405162461bcd60e51b815260206004820152601960248201527f596f7520646f206e6f74206f776e2074686520766964656f2e000000000000006044820152606401610366565b60008281526007602052604090205473ffffffffffffffffffffffffffffffffffffffff166128025760405162461bcd60e51b815260206004820152601160248201527f566964656f206d7573742065786973742e0000000000000000000000000000006044820152606401610366565b60005b815181101561283957612831838383815181106128245761282461387e565b6020026020010151612bf2565b600101612805565b505050565b73ffffffffffffffffffffffffffffffffffffffff8216600090815260036020526040902061286d8282613764565b5060058160405161287e91906138ad565b908152604080516020928190038301902073ffffffffffffffffffffffffffffffffffffffff85166000908152925290205460ff16611496576004816040516128c791906138ad565b908152604051602091819003820181208054600180820183556000928352939091200180547fffffffffffffffffffffffff00000000000000000000000000000000000000001673ffffffffffffffffffffffffffffffffffffffff86161790556005906129369084906138ad565b9081526040805191829003602090810190922073ffffffffffffffffffffffffffffffffffffffff861660009081529252902080549115157fffffffffffffffffffffffffffffffffffffffffffffffffffffffffffffff009092169190911790555050565b6129a4612d21565b60408051808201825283815283516000908152600760209081528382205473ffffffffffffffffffffffffffffffffffffffff16825260038152929020805491928301916129f190613588565b80601f0160208091040260200160405190810160405280929190818152602001828054612a1d90613588565b8015612a6a5780601f10612a3f57610100808354040283529160200191612a6a565b820191906000526020600020905b815481529060010190602001808311612a4d57829003601f168201915b50505050508152509050919050565b600081815260076020908152604080832080547fffffffffffffffffffffffff000000000000000000000000000000000000000016905580516101008101825284815281518083018352600f81527f5b44656c6574656420566964656f5d00000000000000000000000000000000008185015281840152815180840183528481528183015281518084018352848152606082015281518084018352848152608082015281518481529283019091529160a083019190612b48565b6060815260200190600190039081612b335790505b50815260006020808301829052426040938401528482526008815291902082518155908201516001820190612b7d9082613764565b5060408201516002820190612b929082613764565b5060608201516003820190612ba79082613764565b5060808201516004820190612bbc9082613764565b5060a08201518051612bd8916005840191602090910190612ccb565b5060c0820151600682015560e09091015160079091015550565b6000828152600e6020908152604080832084845290915290205460ff16612c74576000828152600d6020908152604080832080546001818101835591855283852001859055858452600e835281842085855290925290912080547fffffffffffffffffffffffffffffffffffffffffffffffffffffffffffffff001690911790555b60005b6000828152600d6020526040902054811015612839576000828152600d602052604090208054612cc391859184908110612cb357612cb361387e565b9060005260206000200154612bf2565b600101612c77565b828054828255906000526020600020908101928215612d11579160200282015b82811115612d115782518290612d019082613764565b5091602001919060010190612ceb565b50612d1d929150612d81565b5090565b6040518060400160405280612d7460405180610100016040528060008152602001606081526020016060815260200160608152602001606081526020016060815260200160008152602001600081525090565b8152602001606081525090565b80821115612d1d576000612d958282612d9e565b50600101612d81565b508054612daa90613588565b6000825580601f10612dba575050565b601f0160209004906000526020600020908101906125d691905b80821115612d1d5760008155600101612dd4565b600060208284031215612dfa57600080fd5b5035919050565b6020808252825182820181905260009190848201906040850190845b81811015612e3957835183529284019291840191600101612e1d565b50909695505050505050565b600060208284031215612e5757600080fd5b813573ffffffffffffffffffffffffffffffffffffffff81168114612e7b57600080fd5b9392505050565b60005b83811015612e9d578181015183820152602001612e85565b50506000910152565b60008151808452612ebe816020860160208601612e82565b601f017fffffffffffffffffffffffffffffffffffffffffffffffffffffffffffffffe0169290920160200192915050565b602081526000612e7b6020830184612ea6565b60008083601f840112612f1557600080fd5b50813567ffffffffffffffff811115612f2d57600080fd5b602083019150836020828501011115612f4557600080fd5b9250929050565b600080600080600060608688031215612f6457600080fd5b853567ffffffffffffffff80821115612f7c57600080fd5b9087019060c0828a031215612f9057600080fd5b90955060208701359080821115612fa657600080fd5b818801915088601f830112612fba57600080fd5b813581811115612fc957600080fd5b8960208260051b8501011115612fde57600080fd5b602083019650809550506040880135915080821115612ffc57600080fd5b5061300988828901612f03565b969995985093965092949392505050565b600060208083018184528085518083526040925060408601915060408160051b87010184880160005b838110156130cd577fffffffffffffffffffffffffffffffffffffffffffffffffffffffffffffffc08984030185528151608073ffffffffffffffffffffffffffffffffffffffff825116855288820151818a8701526130a582870182612ea6565b838a0151878b0152606093840151939096019290925250509386019390860190600101613043565b509098975050505050505050565b60008282518085526020808601955060208260051b8401016020860160005b84811015613146577fffffffffffffffffffffffffffffffffffffffffffffffffffffffffffffffe0868403018952613134838351612ea6565b988401989250908301906001016130fa565b5090979650505050505050565b600081516040845280516040850152602081015161010080606087015261317e610140870183612ea6565b915060408301517fffffffffffffffffffffffffffffffffffffffffffffffffffffffffffffffc0808885030160808901526131ba8483612ea6565b935060608501519150808885030160a08901526131d78483612ea6565b935060808501519150808885030160c08901526131f48483612ea6565b935060a08501519150808885030160e08901525061321283826130db565b92505060c0830151818701525060e08201516101208601526020840151915084810360208601526132438183612ea6565b95945050505050565b602081526000612e7b6020830184613153565b7f4e487b7100000000000000000000000000000000000000000000000000000000600052604160045260246000fd5b604051601f82017fffffffffffffffffffffffffffffffffffffffffffffffffffffffffffffffe016810167ffffffffffffffff811182821017156132d5576132d561325f565b604052919050565b600082601f8301126132ee57600080fd5b813567ffffffffffffffff8111156133085761330861325f565b61333960207fffffffffffffffffffffffffffffffffffffffffffffffffffffffffffffffe0601f8401160161328e565b81815284602083860101111561334e57600080fd5b816020850160208301376000918101602001919091529392505050565b600067ffffffffffffffff808411156133865761338661325f565b8360051b60206133986020830161328e565b86815293509084019060208401878311156133b257600080fd5b855b838110156133e6578035858111156133cc5760008081fd5b6133d88a828a016132dd565b8352509082019082016133b4565b50505050509392505050565b60006020828403121561340457600080fd5b813567ffffffffffffffff81111561341b57600080fd5b8201601f8101841361342c57600080fd5b61343b8482356020840161336b565b949350505050565b600060208083016020845280855180835260408601915060408160051b87010192506020870160005b828110156134b8577fffffffffffffffffffffffffffffffffffffffffffffffffffffffffffffffc08886030184526134a6858351613153565b9450928501929085019060010161346c565b5092979650505050505050565b6000602082840312156134d757600080fd5b813567ffffffffffffffff8111156134ee57600080fd5b61343b848285016132dd565b6000806020838503121561350d57600080fd5b823567ffffffffffffffff81111561352457600080fd5b61353085828601612f03565b90969095509350505050565b60008060006040848603121561355157600080fd5b83359250602084013567ffffffffffffffff81111561356f57600080fd5b61357b86828701612f03565b9497909650939450505050565b600181811c9082168061359c57607f821691505b6020821081036135d5577f4e487b7100000000000000000000000000000000000000000000000000000000600052602260045260246000fd5b50919050565b7f4e487b7100000000000000000000000000000000000000000000000000000000600052601160045260246000fd5b60007fffffffffffffffffffffffffffffffffffffffffffffffffffffffffffffffff820361363b5761363b6135db565b5060010190565b60008083357fffffffffffffffffffffffffffffffffffffffffffffffffffffffffffffffe184360301811261367757600080fd5b83018035915067ffffffffffffffff82111561369257600080fd5b602001915036819003821315612f4557600080fd5b60008083357fffffffffffffffffffffffffffffffffffffffffffffffffffffffffffffffe18436030181126136dc57600080fd5b83018035915067ffffffffffffffff8211156136f757600080fd5b6020019150600581901b3603821315612f4557600080fd5b6000612e7b36848461336b565b601f821115612839576000816000526020600020601f850160051c810160208610156137455750805b601f850160051c820191505b8181101561077b57828155600101613751565b815167ffffffffffffffff81111561377e5761377e61325f565b6137928161378c8454613588565b8461371c565b602080601f8311600181146137e557600084156137af5750858301515b7fffffffffffffffffffffffffffffffffffffffffffffffffffffffffffffffff600386901b1c1916600185901b17855561077b565b6000858152602081207fffffffffffffffffffffffffffffffffffffffffffffffffffffffffffffffe08616915b8281101561383257888601518255948401946001909101908401613813565b508582101561386e57878501517fffffffffffffffffffffffffffffffffffffffffffffffffffffffffffffffff600388901b60f8161c191681555b5050505050600190811b01905550565b7f4e487b7100000000000000000000000000000000000000000000000000000000600052603260045260246000fd5b600082516138bf818460208701612e82565b9190910192915050565b80820180821115610dfc57610dfc6135db565b81810381811115610dfc57610dfc6135db565b8082028115828204841417610dfc57610dfc6135db565b60008261393c577f4e487b7100000000000000000000000000000000000000000000000000000000600052601260045260246000fd5b500490565b818382376000910190815291905056fea2646970667358221220b272cb7c500a574478ce3860b6df594ea07f6042099833943d3f2f1cbd76602d64736f6c63430008160033",
  "linkReferences": {},
  "deployedLinkReferences": {}
}