{
  "_format": "hh-sol-artifact-1",
  "contractName": "Atomic",
  "sourceName": "contracts/Atomic.sol",
  "abi": [
    {
      "inputs": [],
      "stateMutability": "nonpayable",
      "type": "constructor"
    },
    {
      "inputs": [
        {
          "internalType": "address",
          "name": "account",
          "type": "address"
        }
      ],
      "name": "addAdmin",
      "outputs": [],
      "stateMutability": "nonpayable",
      "type": "function"
    },
    {
      "inputs": [
        {
          "internalType": "uint256",
          "name": "video_id",
          "type": "uint256"
        },
        {
          "internalType": "string",
          "name": "comment_message",
          "type": "string"
        }
      ],
      "name": "addComment",
      "outputs": [],
      "stateMutability": "payable",
      "type": "function"
    },
    {
      "inputs": [
        {
          "internalType": "string",
          "name": "_title",
          "type": "string"
        },
        {
          "internalType": "string",
          "name": "_description",
          "type": "string"
        },
        {
          "internalType": "string",
          "name": "_url",
          "type": "string"
        },
        {
          "internalType": "string",
          "name": "_thumb_url",
          "type": "string"
        },
        {
          "internalType": "uint256",
          "name": "_duration",
          "type": "uint256"
        },
        {
          "internalType": "string[]",
          "name": "_keywords",
          "type": "string[]"
        }
      ],
      "name": "addVideo",
      "outputs": [],
      "stateMutability": "nonpayable",
      "type": "function"
    },
    {
      "inputs": [
        {
          "internalType": "uint256",
          "name": "video_id",
          "type": "uint256"
        }
      ],
      "name": "adminDeleteVideo",
      "outputs": [],
      "stateMutability": "nonpayable",
      "type": "function"
    },
    {
      "inputs": [
        {
          "internalType": "uint256",
          "name": "video_id",
          "type": "uint256"
        }
      ],
      "name": "deleteVideo",
      "outputs": [],
      "stateMutability": "nonpayable",
      "type": "function"
    },
    {
      "inputs": [
        {
          "internalType": "address",
          "name": "addr",
          "type": "address"
        }
      ],
      "name": "getAddressNearID",
      "outputs": [
        {
          "internalType": "string",
          "name": "",
          "type": "string"
        }
      ],
      "stateMutability": "view",
      "type": "function"
    },
    {
      "inputs": [
        {
          "internalType": "uint256",
          "name": "video_id",
          "type": "uint256"
        }
      ],
      "name": "getAttributions",
      "outputs": [
        {
          "internalType": "uint256[]",
          "name": "",
          "type": "uint256[]"
        }
      ],
      "stateMutability": "view",
      "type": "function"
    },
    {
      "inputs": [
        {
          "internalType": "uint256",
          "name": "video_id",
          "type": "uint256"
        }
      ],
      "name": "getComments",
      "outputs": [
        {
          "components": [
            {
              "internalType": "address",
              "name": "poster",
              "type": "address"
            },
            {
              "internalType": "string",
              "name": "message",
              "type": "string"
            },
            {
              "internalType": "uint256",
              "name": "amount",
              "type": "uint256"
            },
            {
              "internalType": "uint256",
              "name": "timestamp",
              "type": "uint256"
            }
          ],
          "internalType": "struct Atomic.Comment[]",
          "name": "",
          "type": "tuple[]"
        }
      ],
      "stateMutability": "view",
      "type": "function"
    },
    {
      "inputs": [
        {
          "internalType": "uint256",
          "name": "size",
          "type": "uint256"
        }
      ],
      "name": "getLatestVideos",
      "outputs": [
        {
          "components": [
            {
              "internalType": "uint256",
              "name": "id",
              "type": "uint256"
            },
            {
              "internalType": "string",
              "name": "title",
              "type": "string"
            },
            {
              "internalType": "string",
              "name": "description",
              "type": "string"
            },
            {
              "internalType": "string",
              "name": "url",
              "type": "string"
            },
            {
              "internalType": "string",
              "name": "thumb_url",
              "type": "string"
            },
            {
              "internalType": "string[]",
              "name": "keywords",
              "type": "string[]"
            },
            {
              "internalType": "uint256",
              "name": "duration",
              "type": "uint256"
            },
            {
              "internalType": "uint256",
              "name": "timestamp",
              "type": "uint256"
            }
          ],
          "internalType": "struct Atomic.Video[]",
          "name": "",
          "type": "tuple[]"
        }
      ],
      "stateMutability": "view",
      "type": "function"
    },
    {
      "inputs": [],
      "name": "getOwner",
      "outputs": [
        {
          "internalType": "address",
          "name": "",
          "type": "address"
        }
      ],
      "stateMutability": "view",
      "type": "function"
    },
    {
      "inputs": [
        {
          "internalType": "uint256",
          "name": "video_id",
          "type": "uint256"
        }
      ],
      "name": "getVideo",
      "outputs": [
        {
          "components": [
            {
              "internalType": "uint256",
              "name": "id",
              "type": "uint256"
            },
            {
              "internalType": "string",
              "name": "title",
              "type": "string"
            },
            {
              "internalType": "string",
              "name": "description",
              "type": "string"
            },
            {
              "internalType": "string",
              "name": "url",
              "type": "string"
            },
            {
              "internalType": "string",
              "name": "thumb_url",
              "type": "string"
            },
            {
              "internalType": "string[]",
              "name": "keywords",
              "type": "string[]"
            },
            {
              "internalType": "uint256",
              "name": "duration",
              "type": "uint256"
            },
            {
              "internalType": "uint256",
              "name": "timestamp",
              "type": "uint256"
            }
          ],
          "internalType": "struct Atomic.Video",
          "name": "",
          "type": "tuple"
        }
      ],
      "stateMutability": "view",
      "type": "function"
    },
    {
      "inputs": [
        {
          "internalType": "string",
          "name": "_near_id",
          "type": "string"
        }
      ],
      "name": "getVideoByNearID",
      "outputs": [
        {
          "components": [
            {
              "internalType": "uint256",
              "name": "id",
              "type": "uint256"
            },
            {
              "internalType": "string",
              "name": "title",
              "type": "string"
            },
            {
              "internalType": "string",
              "name": "description",
              "type": "string"
            },
            {
              "internalType": "string",
              "name": "url",
              "type": "string"
            },
            {
              "internalType": "string",
              "name": "thumb_url",
              "type": "string"
            },
            {
              "internalType": "string[]",
              "name": "keywords",
              "type": "string[]"
            },
            {
              "internalType": "uint256",
              "name": "duration",
              "type": "uint256"
            },
            {
              "internalType": "uint256",
              "name": "timestamp",
              "type": "uint256"
            }
          ],
          "internalType": "struct Atomic.Video[]",
          "name": "",
          "type": "tuple[]"
        }
      ],
      "stateMutability": "view",
      "type": "function"
    },
    {
      "inputs": [
        {
          "internalType": "string[]",
          "name": "terms",
          "type": "string[]"
        }
      ],
      "name": "getVideosByTerm",
      "outputs": [
        {
          "components": [
            {
              "internalType": "uint256",
              "name": "id",
              "type": "uint256"
            },
            {
              "internalType": "string",
              "name": "title",
              "type": "string"
            },
            {
              "internalType": "string",
              "name": "description",
              "type": "string"
            },
            {
              "internalType": "string",
              "name": "url",
              "type": "string"
            },
            {
              "internalType": "string",
              "name": "thumb_url",
              "type": "string"
            },
            {
              "internalType": "string[]",
              "name": "keywords",
              "type": "string[]"
            },
            {
              "internalType": "uint256",
              "name": "duration",
              "type": "uint256"
            },
            {
              "internalType": "uint256",
              "name": "timestamp",
              "type": "uint256"
            }
          ],
          "internalType": "struct Atomic.Video[]",
          "name": "",
          "type": "tuple[]"
        }
      ],
      "stateMutability": "view",
      "type": "function"
    },
    {
      "inputs": [
        {
          "internalType": "uint256",
          "name": "video_id",
          "type": "uint256"
        },
        {
          "internalType": "uint256[]",
          "name": "attributions",
          "type": "uint256[]"
        }
      ],
      "name": "setAttributions",
      "outputs": [],
      "stateMutability": "nonpayable",
      "type": "function"
    },
    {
      "inputs": [
        {
          "internalType": "string",
          "name": "_near_id",
          "type": "string"
        }
      ],
      "name": "setNearID",
      "outputs": [],
      "stateMutability": "nonpayable",
      "type": "function"
    }
  ],
  "bytecode": "0x608060405260016000556001805534801561001957600080fd5b50600280546001600160a01b031916331790556134398061003b6000396000f3fe6080604052600436106100e85760003560e01c8063413cf0291161008a5780638799bd74116100595780638799bd7414610299578063893d20e8146102b9578063aa7e5683146102e1578063d4ab873e146102f457600080fd5b8063413cf029146102195780635eaecd121461023957806360c736cd14610259578063704802751461027957600080fd5b806323edf697116100c657806323edf697146101725780632893eca21461019f57806338abafa0146101cc5780633e35019e146101ec57600080fd5b8063051cb30d146100ed578063087f44fd14610123578063210e07df14610150575b600080fd5b3480156100f957600080fd5b5061010d6101083660046129b2565b610314565b60405161011a91906129cb565b60405180910390f35b34801561012f57600080fd5b5061014361013e366004612a0f565b6103d4565b60405161011a9190612a8f565b34801561015c57600080fd5b5061017061016b366004612b30565b610476565b005b34801561017e57600080fd5b5061019261018d3660046129b2565b6107a9565b60405161011a9190612c2d565b3480156101ab57600080fd5b506101bf6101ba3660046129b2565b6109f6565b60405161011a9190612dc6565b3480156101d857600080fd5b506101706101e7366004612dd9565b610dfb565b3480156101f857600080fd5b5061020c610207366004612f63565b610ef4565b60405161011a9190612fb4565b34801561022557600080fd5b506101706102343660046129b2565b61142c565b34801561024557600080fd5b5061020c610254366004613018565b611573565b34801561026557600080fd5b5061017061027436600461304d565b611b3c565b34801561028557600080fd5b50610170610294366004612a0f565b611c11565b3480156102a557600080fd5b5061020c6102b43660046129b2565b611cb0565b3480156102c557600080fd5b506002546040516001600160a01b03909116815260200161011a565b6101706102ef36600461308f565b61211b565b34801561030057600080fd5b5061017061030f3660046129b2565b61260a565b6000818152600760205260409020546060906001600160a01b03166103745760405162461bcd60e51b81526020600482015260116024820152702b34b232b79036bab9ba1032bc34b9ba1760791b60448201526064015b60405180910390fd5b6000828152600d6020908152604091829020805483518184028101840190945280845290918301828280156103c857602002820191906000526020600020905b8154815260200190600101908083116103b4575b50505050509050919050565b6001600160a01b03811660009081526003602052604090208054606091906103fb906130ce565b80601f0160208091040260200160405190810160405280929190818152602001828054610427906130ce565b80156103c85780601f10610449576101008083540402835291602001916103c8565b820191906000526020600020905b8154815290600101906020018083116104575750939695505050505050565b6000805481806104858361311e565b9190505590506040518061010001604052808281526020018d8d8080601f016020809104026020016040519081016040528093929190818152602001838380828437600092019190915250505090825250604080516020601f8e018190048102820181019092528c815291810191908d908d9081908401838280828437600092019190915250505090825250604080516020601f8c018190048102820181019092528a815291810191908b908b9081908401838280828437600092019190915250505090825250604080516020601f8a01819004810282018101909252888152918101919089908990819084018382808284376000920191909152505050908252506020016105948486613137565b815260208082018790524260409283015260008481526008825291909120825181559082015160018201906105c99082613194565b50604082015160028201906105de9082613194565b50606082015160038201906105f39082613194565b50608082015160048201906106089082613194565b5060a082015180516106249160058401916020909101906128f5565b5060c082015160068083019190915560e09092015160079182015560008381526020918252604080822080546001600160a01b0319163390811790915582529282529182208054600181018255908352908220018290555b8281101561079a57600a84848381811061069857610698613254565b90506020028101906106aa919061326a565b6040516106b89291906132b1565b90815260408051602092819003830190206000858152925290205460ff166107925760098484838181106106ee576106ee613254565b9050602002810190610700919061326a565b60405161070e9291906132b1565b9081526040516020918190038201902080546001808201835560009283529290912001839055600a85858481811061074857610748613254565b905060200281019061075a919061326a565b6040516107689291906132b1565b9081526040805160209281900383019020600086815292529020805460ff19169115159190911790555b60010161067c565b50505050505050505050505050565b6000818152600760205260409020546060906001600160a01b03166108045760405162461bcd60e51b81526020600482015260116024820152702b34b232b79036bab9ba1032bc34b9ba1760791b604482015260640161036b565b6000828152600b602052604081205467ffffffffffffffff81111561082b5761082b612e25565b60405190808252806020026020018201604052801561089057816020015b61087d604051806080016040528060006001600160a01b031681526020016060815260200160008152602001600081525090565b8152602001906001900390816108495790505b50905060005b6000848152600b60205260409020548110156109ef576000848152600b602052604081208054600c929190849081106108d1576108d1613254565b906000526020600020015481526020019081526020016000206040518060800160405290816000820160009054906101000a90046001600160a01b03166001600160a01b03166001600160a01b03168152602001600182018054610934906130ce565b80601f0160208091040260200160405190810160405280929190818152602001828054610960906130ce565b80156109ad5780601f10610982576101008083540402835291602001916109ad565b820191906000526020600020905b81548152906001019060200180831161099057829003601f168201915b50505050508152602001600282015481526020016003820154815250508282815181106109dc576109dc613254565b6020908102919091010152600101610896565b5092915050565b610a3e60405180610100016040528060008152602001606081526020016060815260200160608152602001606081526020016060815260200160008152602001600081525090565b6000828152600760205260409020546001600160a01b0316610a965760405162461bcd60e51b81526020600482015260116024820152702b34b232b79036bab9ba1032bc34b9ba1760791b604482015260640161036b565b600860008381526020019081526020016000206040518061010001604052908160008201548152602001600182018054610acf906130ce565b80601f0160208091040260200160405190810160405280929190818152602001828054610afb906130ce565b8015610b485780601f10610b1d57610100808354040283529160200191610b48565b820191906000526020600020905b815481529060010190602001808311610b2b57829003601f168201915b50505050508152602001600282018054610b61906130ce565b80601f0160208091040260200160405190810160405280929190818152602001828054610b8d906130ce565b8015610bda5780601f10610baf57610100808354040283529160200191610bda565b820191906000526020600020905b815481529060010190602001808311610bbd57829003601f168201915b50505050508152602001600382018054610bf3906130ce565b80601f0160208091040260200160405190810160405280929190818152602001828054610c1f906130ce565b8015610c6c5780601f10610c4157610100808354040283529160200191610c6c565b820191906000526020600020905b815481529060010190602001808311610c4f57829003601f168201915b50505050508152602001600482018054610c85906130ce565b80601f0160208091040260200160405190810160405280929190818152602001828054610cb1906130ce565b8015610cfe5780601f10610cd357610100808354040283529160200191610cfe565b820191906000526020600020905b815481529060010190602001808311610ce157829003601f168201915b5050505050815260200160058201805480602002602001604051908101604052809291908181526020016000905b82821015610dd8578382906000526020600020018054610d4b906130ce565b80601f0160208091040260200160405190810160405280929190818152602001828054610d77906130ce565b8015610dc45780601f10610d9957610100808354040283529160200191610dc4565b820191906000526020600020905b815481529060010190602001808311610da757829003601f168201915b505050505081526020019060010190610d2c565b505050508152602001600682015481526020016007820154815250509050919050565b6000838152600760205260409020546001600160a01b03163314610e615760405162461bcd60e51b815260206004820152601960248201527f596f7520646f206e6f74206f776e2074686520766964656f2e00000000000000604482015260640161036b565b6000838152600760205260409020546001600160a01b0316610eb95760405162461bcd60e51b81526020600482015260116024820152702b34b232b79036bab9ba1032bc34b9ba1760791b604482015260640161036b565b60005b81811015610eee57610ee684848484818110610eda57610eda613254565b905060200201356126d4565b600101610ebc565b50505050565b60606000805b8351811015610f50576009848281518110610f1757610f17613254565b6020026020010151604051610f2c91906132c1565b90815260405190819003602001902054610f4690836132dd565b9150600101610efa565b5060008167ffffffffffffffff811115610f6c57610f6c612e25565b604051908082528060200260200182016040528015610fe557816020015b610fd260405180610100016040528060008152602001606081526020016060815260200160608152602001606081526020016060815260200160008152602001600081525090565b815260200190600190039081610f8a5790505b5090506000805b85518110156114225760005b600987838151811061100c5761100c613254565b602002602001015160405161102191906132c1565b908152604051908190036020019020548110156114195760086000600989858151811061105057611050613254565b602002602001015160405161106591906132c1565b9081526020016040518091039020838154811061108457611084613254565b9060005260206000200154815260200190815260200160002060405180610100016040529081600082015481526020016001820180546110c3906130ce565b80601f01602080910402602001604051908101604052809291908181526020018280546110ef906130ce565b801561113c5780601f106111115761010080835404028352916020019161113c565b820191906000526020600020905b81548152906001019060200180831161111f57829003601f168201915b50505050508152602001600282018054611155906130ce565b80601f0160208091040260200160405190810160405280929190818152602001828054611181906130ce565b80156111ce5780601f106111a3576101008083540402835291602001916111ce565b820191906000526020600020905b8154815290600101906020018083116111b157829003601f168201915b505050505081526020016003820180546111e7906130ce565b80601f0160208091040260200160405190810160405280929190818152602001828054611213906130ce565b80156112605780601f1061123557610100808354040283529160200191611260565b820191906000526020600020905b81548152906001019060200180831161124357829003601f168201915b50505050508152602001600482018054611279906130ce565b80601f01602080910402602001604051908101604052809291908181526020018280546112a5906130ce565b80156112f25780601f106112c7576101008083540402835291602001916112f2565b820191906000526020600020905b8154815290600101906020018083116112d557829003601f168201915b5050505050815260200160058201805480602002602001604051908101604052809291908181526020016000905b828210156113cc57838290600052602060002001805461133f906130ce565b80601f016020809104026020016040519081016040528092919081815260200182805461136b906130ce565b80156113b85780601f1061138d576101008083540402835291602001916113b8565b820191906000526020600020905b81548152906001019060200180831161139b57829003601f168201915b505050505081526020019060010190611320565b505050508152602001600682015481526020016007820154815250508484806113f49061311e565b95508151811061140657611406613254565b6020908102919091010152600101610ff8565b50600101610fec565b5090949350505050565b6000805b6040516430b236b4b760d91b8152600f90600501908152604051908190036020019020548110156114ba576040516430b236b4b760d91b8152600f906005019081526020016040518091039020818154811061148e5761148e613254565b6000918252602090912001546001600160a01b031633036114b257600191506114ba565b600101611430565b506002546001600160a01b031633036114d1575060015b8061150e5760405162461bcd60e51b815260206004820152600d60248201526c1058d8d95cdcc811195b9a5959609a1b604482015260640161036b565b6000828152600760205260409020546001600160a01b03166115665760405162461bcd60e51b81526020600482015260116024820152702b34b232b79036bab9ba1032bc34b9ba1760791b604482015260640161036b565b61156f82612794565b5050565b60606000805b60048460405161158991906132c1565b9081526040519081900360200190205481101561160c57600660006004866040516115b491906132c1565b908152602001604051809103902083815481106115d3576115d3613254565b60009182526020808320909101546001600160a01b0316835282019290925260400190205461160290836132dd565b9150600101611579565b5060008167ffffffffffffffff81111561162857611628612e25565b6040519080825280602002602001820160405280156116a157816020015b61168e60405180610100016040528060008152602001606081526020016060815260200160608152602001606081526020016060815260200160008152602001600081525090565b8152602001906001900390816116465790505b5090506000805b6004866040516116b891906132c1565b908152604051908190036020019020548110156114225760005b600660006004896040516116e691906132c1565b9081526020016040518091039020848154811061170557611705613254565b60009182526020808320909101546001600160a01b03168352820192909252604001902054811015611b3357600860006006600060048b60405161174991906132c1565b9081526020016040518091039020868154811061176857611768613254565b60009182526020808320909101546001600160a01b03168352820192909252604001902080548490811061179e5761179e613254565b9060005260206000200154815260200190815260200160002060405180610100016040529081600082015481526020016001820180546117dd906130ce565b80601f0160208091040260200160405190810160405280929190818152602001828054611809906130ce565b80156118565780601f1061182b57610100808354040283529160200191611856565b820191906000526020600020905b81548152906001019060200180831161183957829003601f168201915b5050505050815260200160028201805461186f906130ce565b80601f016020809104026020016040519081016040528092919081815260200182805461189b906130ce565b80156118e85780601f106118bd576101008083540402835291602001916118e8565b820191906000526020600020905b8154815290600101906020018083116118cb57829003601f168201915b50505050508152602001600382018054611901906130ce565b80601f016020809104026020016040519081016040528092919081815260200182805461192d906130ce565b801561197a5780601f1061194f5761010080835404028352916020019161197a565b820191906000526020600020905b81548152906001019060200180831161195d57829003601f168201915b50505050508152602001600482018054611993906130ce565b80601f01602080910402602001604051908101604052809291908181526020018280546119bf906130ce565b8015611a0c5780601f106119e157610100808354040283529160200191611a0c565b820191906000526020600020905b8154815290600101906020018083116119ef57829003601f168201915b5050505050815260200160058201805480602002602001604051908101604052809291908181526020016000905b82821015611ae6578382906000526020600020018054611a59906130ce565b80601f0160208091040260200160405190810160405280929190818152602001828054611a85906130ce565b8015611ad25780601f10611aa757610100808354040283529160200191611ad2565b820191906000526020600020905b815481529060010190602001808311611ab557829003601f168201915b505050505081526020019060010190611a3a565b50505050815260200160068201548152602001600782015481525050848480611b0e9061311e565b955081518110611b2057611b20613254565b60209081029190910101526001016116d2565b506001016116a8565b336000908152600360205260409020611b568284836132f6565b5060058282604051611b699291906132b1565b9081526040805160209281900383019020336000908152925290205460ff1661156f5760048282604051611b9e9291906132b1565b90815260405190819003602090810182208054600181810183556000928352929091200180546001600160a01b0319163317905590600590611be390859085906132b1565b908152604080516020928190038301902033600090815292529020805460ff19169115159190911790555050565b6002546001600160a01b03163314611c5b5760405162461bcd60e51b815260206004820152600d60248201526c1058d8d95cdcc811195b9a5959609a1b604482015260640161036b565b6040516430b236b4b760d91b8152600f9060050190815260405160209181900382019020805460018101825560009182529190200180546001600160a01b0319166001600160a01b0392909216919091179055565b60606000826001600054611cc491906133b7565b11611cdd576001600054611cd891906133b7565b611cdf565b825b67ffffffffffffffff811115611cf757611cf7612e25565b604051908082528060200260200182016040528015611d7057816020015b611d5d60405180610100016040528060008152602001606081526020016060815260200160608152602001606081526020016060815260200160008152602001600081525090565b815260200190600190039081611d155790505b50905060005b81518110156109ef5760086000600183600054611d9391906133b7565b611d9d91906133b7565b81526020019081526020016000206040518061010001604052908160008201548152602001600182018054611dd1906130ce565b80601f0160208091040260200160405190810160405280929190818152602001828054611dfd906130ce565b8015611e4a5780601f10611e1f57610100808354040283529160200191611e4a565b820191906000526020600020905b815481529060010190602001808311611e2d57829003601f168201915b50505050508152602001600282018054611e63906130ce565b80601f0160208091040260200160405190810160405280929190818152602001828054611e8f906130ce565b8015611edc5780601f10611eb157610100808354040283529160200191611edc565b820191906000526020600020905b815481529060010190602001808311611ebf57829003601f168201915b50505050508152602001600382018054611ef5906130ce565b80601f0160208091040260200160405190810160405280929190818152602001828054611f21906130ce565b8015611f6e5780601f10611f4357610100808354040283529160200191611f6e565b820191906000526020600020905b815481529060010190602001808311611f5157829003601f168201915b50505050508152602001600482018054611f87906130ce565b80601f0160208091040260200160405190810160405280929190818152602001828054611fb3906130ce565b80156120005780601f10611fd557610100808354040283529160200191612000565b820191906000526020600020905b815481529060010190602001808311611fe357829003601f168201915b5050505050815260200160058201805480602002602001604051908101604052809291908181526020016000905b828210156120da57838290600052602060002001805461204d906130ce565b80601f0160208091040260200160405190810160405280929190818152602001828054612079906130ce565b80156120c65780601f1061209b576101008083540402835291602001916120c6565b820191906000526020600020905b8154815290600101906020018083116120a957829003601f168201915b50505050508152602001906001019061202e565b5050505081526020016006820154815260200160078201548152505082828151811061210857612108613254565b6020908102919091010152600101611d76565b6000838152600760205260409020546001600160a01b03166121735760405162461bcd60e51b81526020600482015260116024820152702b34b232b79036bab9ba1032bc34b9ba1760791b604482015260640161036b565b341561251757600083815260076020526040902054336001600160a01b03909116036122075760405162461bcd60e51b815260206004820152602660248201527f596f752063616e6e6f7420737570657263686174206f6e20796f7572206f776e60448201527f20766964656f0000000000000000000000000000000000000000000000000000606482015260840161036b565b6000600a6122163460096133ca565b61222091906133e1565b6002549091506000906001600160a01b031661223c83346133b7565b604051600081818185875af1925050503d8060008114612278576040519150601f19603f3d011682016040523d82523d6000602084013e61227d565b606091505b50509050806122ce5760405162461bcd60e51b815260206004820152601d60248201527f4661696c656420746f2073656e6420457468657220746f206f776e6572000000604482015260640161036b565b6000858152600d60205260408120546122e89060016132dd565b905060006122f682856133e1565b905060005b6000888152600d6020526040902054811015612421576000888152600d6020526040812080548390811061233157612331613254565b600091825260208083209190910154808352600790915260408083205490519193506001600160a01b03169190829086908381818185875af1925050503d806000811461239a576040519150601f19603f3d011682016040523d82523d6000602084013e61239f565b606091505b50509050806124165760405162461bcd60e51b815260206004820152602160248201527f4661696c656420746f2073656e6420457468657220746f20612063726561746f60448201527f7200000000000000000000000000000000000000000000000000000000000000606482015260840161036b565b5050506001016122fb565b506000878152600760205260408120546001600160a01b03166124456001856133b7565b61244f90846133ca565b61245990876133b7565b604051600081818185875af1925050503d8060008114612495576040519150601f19603f3d011682016040523d82523d6000602084013e61249a565b606091505b50509050806125115760405162461bcd60e51b815260206004820152602360248201527f4661696c656420746f2073656e6420457468657220746f20746865206372656160448201527f746f720000000000000000000000000000000000000000000000000000000000606482015260840161036b565b50505050505b60018054600091826125288361311e565b9190505590506040518060800160405280336001600160a01b0316815260200184848080601f016020809104026020016040519081016040528093929190818152602001838380828437600092018290525093855250503460208085019190915242604094850152858352600c815292909120835181546001600160a01b0319166001600160a01b03909116178155918301516001830191506125cb9082613194565b5060408281015160028301556060909201516003909101556000948552600b602090815290852080546001810182559086529420909301929092555050565b6000818152600760205260409020546001600160a01b03166126625760405162461bcd60e51b81526020600482015260116024820152702b34b232b79036bab9ba1032bc34b9ba1760791b604482015260640161036b565b6000818152600760205260409020546001600160a01b031633146126c85760405162461bcd60e51b815260206004820152601960248201527f596f7520646f206e6f74206f776e2074686520766964656f2e00000000000000604482015260640161036b565b6126d181612794565b50565b6000828152600e6020908152604080832084845290915290205460ff16612738576000828152600d6020908152604080832080546001818101835591855283852001859055858452600e8352818420858552909252909120805460ff191690911790555b60005b6000828152600d602052604090205481101561278f576000828152600d6020526040902080546127879185918490811061277757612777613254565b90600052602060002001546126d4565b60010161273b565b505050565b600081815260076020908152604080832080546001600160a01b031916905580516101008101825284815281518083018352600f81527f5b44656c6574656420566964656f5d00000000000000000000000000000000008185015281840152815180840183528481528183015281518084018352848152606082015281518084018352848152608082015281518481529283019091529160a08301919061284b565b60608152602001906001900390816128365790505b508152600060208083018290524260409384015284825260088152919020825181559082015160018201906128809082613194565b50604082015160028201906128959082613194565b50606082015160038201906128aa9082613194565b50608082015160048201906128bf9082613194565b5060a082015180516128db9160058401916020909101906128f5565b5060c0820151600682015560e09091015160079091015550565b82805482825590600052602060002090810192821561293b579160200282015b8281111561293b578251829061292b9082613194565b5091602001919060010190612915565b5061294792915061294b565b5090565b8082111561294757600061295f8282612968565b5060010161294b565b508054612974906130ce565b6000825580601f10612984575050565b601f0160209004906000526020600020908101906126d191905b80821115612947576000815560010161299e565b6000602082840312156129c457600080fd5b5035919050565b6020808252825182820181905260009190848201906040850190845b81811015612a03578351835292840192918401916001016129e7565b50909695505050505050565b600060208284031215612a2157600080fd5b81356001600160a01b0381168114612a3857600080fd5b9392505050565b60005b83811015612a5a578181015183820152602001612a42565b50506000910152565b60008151808452612a7b816020860160208601612a3f565b601f01601f19169290920160200192915050565b602081526000612a386020830184612a63565b60008083601f840112612ab457600080fd5b50813567ffffffffffffffff811115612acc57600080fd5b602083019150836020828501011115612ae457600080fd5b9250929050565b60008083601f840112612afd57600080fd5b50813567ffffffffffffffff811115612b1557600080fd5b6020830191508360208260051b8501011115612ae457600080fd5b600080600080600080600080600080600060c08c8e031215612b5157600080fd5b67ffffffffffffffff808d351115612b6857600080fd5b612b758e8e358f01612aa2565b909c509a5060208d0135811015612b8b57600080fd5b612b9b8e60208f01358f01612aa2565b909a50985060408d0135811015612bb157600080fd5b612bc18e60408f01358f01612aa2565b909850965060608d0135811015612bd757600080fd5b612be78e60608f01358f01612aa2565b909650945060808d0135935060a08d0135811015612c0457600080fd5b50612c158d60a08e01358e01612aeb565b81935080925050509295989b509295989b9093969950565b600060208083018184528085518083526040925060408601915060408160051b87010184880160005b83811015612cb557603f19898403018552815160806001600160a01b03825116855288820151818a870152612c8d82870182612a63565b838a0151878b0152606093840151939096019290925250509386019390860190600101612c56565b509098975050505050505050565b60008282518085526020808601955060208260051b8401016020860160005b84811015612d1057601f19868403018952612cfe838351612a63565b98840198925090830190600101612ce2565b5090979650505050505050565b6000610100825184526020830151816020860152612d3d82860182612a63565b91505060408301518482036040860152612d578282612a63565b91505060608301518482036060860152612d718282612a63565b91505060808301518482036080860152612d8b8282612a63565b91505060a083015184820360a0860152612da58282612cc3565b91505060c083015160c085015260e083015160e08501528091505092915050565b602081526000612a386020830184612d1d565b600080600060408486031215612dee57600080fd5b83359250602084013567ffffffffffffffff811115612e0c57600080fd5b612e1886828701612aeb565b9497909650939450505050565b634e487b7160e01b600052604160045260246000fd5b604051601f8201601f1916810167ffffffffffffffff81118282101715612e6457612e64612e25565b604052919050565b600082601f830112612e7d57600080fd5b813567ffffffffffffffff811115612e9757612e97612e25565b612eaa601f8201601f1916602001612e3b565b818152846020838601011115612ebf57600080fd5b816020850160208301376000918101602001919091529392505050565b600067ffffffffffffffff80841115612ef757612ef7612e25565b8360051b6020612f0960208301612e3b565b8681529350908401906020840187831115612f2357600080fd5b855b83811015612f5757803585811115612f3d5760008081fd5b612f498a828a01612e6c565b835250908201908201612f25565b50505050509392505050565b600060208284031215612f7557600080fd5b813567ffffffffffffffff811115612f8c57600080fd5b8201601f81018413612f9d57600080fd5b612fac84823560208401612edc565b949350505050565b600060208083016020845280855180835260408601915060408160051b87010192506020870160005b8281101561300b57603f19888603018452612ff9858351612d1d565b94509285019290850190600101612fdd565b5092979650505050505050565b60006020828403121561302a57600080fd5b813567ffffffffffffffff81111561304157600080fd5b612fac84828501612e6c565b6000806020838503121561306057600080fd5b823567ffffffffffffffff81111561307757600080fd5b61308385828601612aa2565b90969095509350505050565b6000806000604084860312156130a457600080fd5b83359250602084013567ffffffffffffffff8111156130c257600080fd5b612e1886828701612aa2565b600181811c908216806130e257607f821691505b60208210810361310257634e487b7160e01b600052602260045260246000fd5b50919050565b634e487b7160e01b600052601160045260246000fd5b60006001820161313057613130613108565b5060010190565b6000612a38368484612edc565b601f82111561278f576000816000526020600020601f850160051c8101602086101561316d5750805b601f850160051c820191505b8181101561318c57828155600101613179565b505050505050565b815167ffffffffffffffff8111156131ae576131ae612e25565b6131c2816131bc84546130ce565b84613144565b602080601f8311600181146131f757600084156131df5750858301515b600019600386901b1c1916600185901b17855561318c565b600085815260208120601f198616915b8281101561322657888601518255948401946001909101908401613207565b50858210156132445787850151600019600388901b60f8161c191681555b5050505050600190811b01905550565b634e487b7160e01b600052603260045260246000fd5b6000808335601e1984360301811261328157600080fd5b83018035915067ffffffffffffffff82111561329c57600080fd5b602001915036819003821315612ae457600080fd5b8183823760009101908152919050565b600082516132d3818460208701612a3f565b9190910192915050565b808201808211156132f0576132f0613108565b92915050565b67ffffffffffffffff83111561330e5761330e612e25565b6133228361331c83546130ce565b83613144565b6000601f841160018114613356576000851561333e5750838201355b600019600387901b1c1916600186901b1783556133b0565b600083815260209020601f19861690835b828110156133875786850135825560209485019460019092019101613367565b50868210156133a45760001960f88860031b161c19848701351681555b505060018560011b0183555b5050505050565b818103818111156132f0576132f0613108565b80820281158282048414176132f0576132f0613108565b6000826133fe57634e487b7160e01b600052601260045260246000fd5b50049056fea26469706673582212205c237f6ca7ec0ba213adb39097b58fdb765fdde407be261d9c3943e759da2dce64736f6c63430008160033",
  "linkReferences": {},
  "deployedLinkReferences": {}
}