{
  "contracts/Atomic.sol": {
    "Atomic": {
      "abi": [
        {
          "inputs": [
            {
              "internalType": "uint256",
              "name": "initial",
              "type": "uint256"
            }
          ],
          "stateMutability": "payable",
          "type": "constructor"
        },
        {
          "inputs": [],
          "name": "addCount",
          "outputs": [],
          "stateMutability": "nonpayable",
          "type": "function"
        },
        {
          "inputs": [],
          "name": "getCount",
          "outputs": [
            {
              "internalType": "uint256",
              "name": "",
              "type": "uint256"
            }
          ],
          "stateMutability": "view",
          "type": "function"
        },
        {
          "inputs": [],
          "name": "getOwner",
          "outputs": [
            {
              "internalType": "address",
              "name": "",
              "type": "address"
            }
          ],
          "stateMutability": "view",
          "type": "function"
        }
      ],
      "evm": {
        "bytecode": {
          "linkReferences": {},
          "object": "6080604052600060015560405161025538038061025583398101604081905261002791610041565b600080546001600160a01b0319163317905560015561005a565b60006020828403121561005357600080fd5b5051919050565b6101ec806100696000396000f3fe608060405234801561001057600080fd5b50600436106100415760003560e01c80636cefce6e14610046578063893d20e814610050578063a87d942c14610082575b600080fd5b61004e610093565b005b610058610101565b60405173ffffffffffffffffffffffffffffffffffffffff90911681526020015b60405180910390f35b600154604051908152602001610079565b60005473ffffffffffffffffffffffffffffffffffffffff1633146100ef5760405162461bcd60e51b815260206004820152600d60248201526c1058d8d95cdcc811195b9a5959609a1b60448201526064015b60405180910390fd5b600180546100fc91610176565b600155565b6000805473ffffffffffffffffffffffffffffffffffffffff1633146101595760405162461bcd60e51b815260206004820152600d60248201526c1058d8d95cdcc811195b9a5959609a1b60448201526064016100e6565b5060005473ffffffffffffffffffffffffffffffffffffffff1690565b808201808211156101b0577f4e487b7100000000000000000000000000000000000000000000000000000000600052601160045260246000fd5b9291505056fea26469706673582212201937a324ee30b11a8e91d758f6fbe1d2453d1a76225db1964f716ad7f760819464736f6c63430008130033",
          "opcodes": "PUSH1 0x80 PUSH1 0x40 MSTORE PUSH1 0x0 PUSH1 0x1 SSTORE PUSH1 0x40 MLOAD PUSH2 0x255 CODESIZE SUB DUP1 PUSH2 0x255 DUP4 CODECOPY DUP2 ADD PUSH1 0x40 DUP2 SWAP1 MSTORE PUSH2 0x27 SWAP2 PUSH2 0x41 JUMP JUMPDEST PUSH1 0x0 DUP1 SLOAD PUSH1 0x1 PUSH1 0x1 PUSH1 0xA0 SHL SUB NOT AND CALLER OR SWAP1 SSTORE PUSH1 0x1 SSTORE PUSH2 0x5A JUMP JUMPDEST PUSH1 0x0 PUSH1 0x20 DUP3 DUP5 SUB SLT ISZERO PUSH2 0x53 JUMPI PUSH1 0x0 DUP1 REVERT JUMPDEST POP MLOAD SWAP2 SWAP1 POP JUMP JUMPDEST PUSH2 0x1EC DUP1 PUSH2 0x69 PUSH1 0x0 CODECOPY PUSH1 0x0 RETURN INVALID PUSH1 0x80 PUSH1 0x40 MSTORE CALLVALUE DUP1 ISZERO PUSH2 0x10 JUMPI PUSH1 0x0 DUP1 REVERT JUMPDEST POP PUSH1 0x4 CALLDATASIZE LT PUSH2 0x41 JUMPI PUSH1 0x0 CALLDATALOAD PUSH1 0xE0 SHR DUP1 PUSH4 0x6CEFCE6E EQ PUSH2 0x46 JUMPI DUP1 PUSH4 0x893D20E8 EQ PUSH2 0x50 JUMPI DUP1 PUSH4 0xA87D942C EQ PUSH2 0x82 JUMPI JUMPDEST PUSH1 0x0 DUP1 REVERT JUMPDEST PUSH2 0x4E PUSH2 0x93 JUMP JUMPDEST STOP JUMPDEST PUSH2 0x58 PUSH2 0x101 JUMP JUMPDEST PUSH1 0x40 MLOAD PUSH20 0xFFFFFFFFFFFFFFFFFFFFFFFFFFFFFFFFFFFFFFFF SWAP1 SWAP2 AND DUP2 MSTORE PUSH1 0x20 ADD JUMPDEST PUSH1 0x40 MLOAD DUP1 SWAP2 SUB SWAP1 RETURN JUMPDEST PUSH1 0x1 SLOAD PUSH1 0x40 MLOAD SWAP1 DUP2 MSTORE PUSH1 0x20 ADD PUSH2 0x79 JUMP JUMPDEST PUSH1 0x0 SLOAD PUSH20 0xFFFFFFFFFFFFFFFFFFFFFFFFFFFFFFFFFFFFFFFF AND CALLER EQ PUSH2 0xEF JUMPI PUSH1 0x40 MLOAD PUSH3 0x461BCD PUSH1 0xE5 SHL DUP2 MSTORE PUSH1 0x20 PUSH1 0x4 DUP3 ADD MSTORE PUSH1 0xD PUSH1 0x24 DUP3 ADD MSTORE PUSH13 0x1058D8D95CDCC811195B9A5959 PUSH1 0x9A SHL PUSH1 0x44 DUP3 ADD MSTORE PUSH1 0x64 ADD JUMPDEST PUSH1 0x40 MLOAD DUP1 SWAP2 SUB SWAP1 REVERT JUMPDEST PUSH1 0x1 DUP1 SLOAD PUSH2 0xFC SWAP2 PUSH2 0x176 JUMP JUMPDEST PUSH1 0x1 SSTORE JUMP JUMPDEST PUSH1 0x0 DUP1 SLOAD PUSH20 0xFFFFFFFFFFFFFFFFFFFFFFFFFFFFFFFFFFFFFFFF AND CALLER EQ PUSH2 0x159 JUMPI PUSH1 0x40 MLOAD PUSH3 0x461BCD PUSH1 0xE5 SHL DUP2 MSTORE PUSH1 0x20 PUSH1 0x4 DUP3 ADD MSTORE PUSH1 0xD PUSH1 0x24 DUP3 ADD MSTORE PUSH13 0x1058D8D95CDCC811195B9A5959 PUSH1 0x9A SHL PUSH1 0x44 DUP3 ADD MSTORE PUSH1 0x64 ADD PUSH2 0xE6 JUMP JUMPDEST POP PUSH1 0x0 SLOAD PUSH20 0xFFFFFFFFFFFFFFFFFFFFFFFFFFFFFFFFFFFFFFFF AND SWAP1 JUMP JUMPDEST DUP1 DUP3 ADD DUP1 DUP3 GT ISZERO PUSH2 0x1B0 JUMPI PUSH32 0x4E487B7100000000000000000000000000000000000000000000000000000000 PUSH1 0x0 MSTORE PUSH1 0x11 PUSH1 0x4 MSTORE PUSH1 0x24 PUSH1 0x0 REVERT JUMPDEST SWAP3 SWAP2 POP POP JUMP INVALID LOG2 PUSH5 0x6970667358 0x22 SLT KECCAK256 NOT CALLDATACOPY LOG3 0x24 0xEE ADDRESS 0xB1 BYTE DUP15 SWAP2 0xD7 PC 0xF6 0xFB 0xE1 0xD2 GASLIMIT RETURNDATASIZE BYTE PUSH23 0x225DB1964F716AD7F760819464736F6C63430008130033 "
        },
        "methodIdentifiers": {
          "addCount()": "6cefce6e",
          "getCount()": "a87d942c",
          "getOwner()": "893d20e8"
        }
      }
    }
  }
}