{
  "contracts/Atomic.sol": {
    "Atomic": {
      "abi": [
        {
          "inputs": [],
          "stateMutability": "nonpayable",
          "type": "constructor"
        },
        {
          "inputs": [
            {
              "internalType": "address",
              "name": "account",
              "type": "address"
            }
          ],
          "name": "addAdmin",
          "outputs": [],
          "stateMutability": "nonpayable",
          "type": "function"
        },
        {
          "inputs": [
            {
              "internalType": "uint256",
              "name": "video_id",
              "type": "uint256"
            },
            {
              "internalType": "string",
              "name": "comment_message",
              "type": "string"
            }
          ],
          "name": "addComment",
          "outputs": [],
          "stateMutability": "payable",
          "type": "function"
        },
        {
          "inputs": [
            {
              "internalType": "string",
              "name": "_title",
              "type": "string"
            },
            {
              "internalType": "string",
              "name": "_description",
              "type": "string"
            },
            {
              "internalType": "string",
              "name": "_url",
              "type": "string"
            },
            {
              "internalType": "string",
              "name": "_thumb_url",
              "type": "string"
            },
            {
              "internalType": "uint256",
              "name": "_duration",
              "type": "uint256"
            },
            {
              "internalType": "string[]",
              "name": "_keywords",
              "type": "string[]"
            }
          ],
          "name": "addVideo",
          "outputs": [],
          "stateMutability": "nonpayable",
          "type": "function"
        },
        {
          "inputs": [
            {
              "internalType": "uint256",
              "name": "size",
              "type": "uint256"
            }
          ],
          "name": "getLatestVideos",
          "outputs": [
            {
              "components": [
                {
                  "internalType": "uint256",
                  "name": "timestamp",
                  "type": "uint256"
                },
                {
                  "internalType": "string",
                  "name": "title",
                  "type": "string"
                },
                {
                  "internalType": "string",
                  "name": "description",
                  "type": "string"
                },
                {
                  "internalType": "string[]",
                  "name": "keywords",
                  "type": "string[]"
                },
                {
                  "internalType": "string",
                  "name": "url",
                  "type": "string"
                },
                {
                  "internalType": "string",
                  "name": "thumb_url",
                  "type": "string"
                },
                {
                  "internalType": "uint256",
                  "name": "duration",
                  "type": "uint256"
                }
              ],
              "internalType": "struct Atomic.Video[]",
              "name": "",
              "type": "tuple[]"
            }
          ],
          "stateMutability": "view",
          "type": "function"
        },
        {
          "inputs": [
            {
              "internalType": "string",
              "name": "_near_id",
              "type": "string"
            }
          ],
          "name": "getVideoByNearID",
          "outputs": [
            {
              "components": [
                {
                  "internalType": "uint256",
                  "name": "timestamp",
                  "type": "uint256"
                },
                {
                  "internalType": "string",
                  "name": "title",
                  "type": "string"
                },
                {
                  "internalType": "string",
                  "name": "description",
                  "type": "string"
                },
                {
                  "internalType": "string[]",
                  "name": "keywords",
                  "type": "string[]"
                },
                {
                  "internalType": "string",
                  "name": "url",
                  "type": "string"
                },
                {
                  "internalType": "string",
                  "name": "thumb_url",
                  "type": "string"
                },
                {
                  "internalType": "uint256",
                  "name": "duration",
                  "type": "uint256"
                }
              ],
              "internalType": "struct Atomic.Video[]",
              "name": "",
              "type": "tuple[]"
            }
          ],
          "stateMutability": "view",
          "type": "function"
        },
        {
          "inputs": [
            {
              "internalType": "uint256",
              "name": "video_id",
              "type": "uint256"
            },
            {
              "internalType": "uint256[]",
              "name": "attributions",
              "type": "uint256[]"
            }
          ],
          "name": "setAttributions",
          "outputs": [],
          "stateMutability": "nonpayable",
          "type": "function"
        },
        {
          "inputs": [
            {
              "internalType": "string",
              "name": "_near_id",
              "type": "string"
            }
          ],
          "name": "setNearID",
          "outputs": [],
          "stateMutability": "nonpayable",
          "type": "function"
        }
      ],
      "evm": {
        "bytecode": {
          "linkReferences": {},
          "object": "608060405234801561001057600080fd5b50600080546001600160a01b03191633179055611b2a806100326000396000f3fe6080604052600436106100705760003560e01c806360c736cd1161004e57806360c736cd146100ed578063704802751461010d5780638799bd741461012d578063aa7e56831461014d57600080fd5b8063210e07df1461007557806338abafa0146100975780635eaecd12146100b7575b600080fd5b34801561008157600080fd5b5061009561009036600461151c565b610160565b005b3480156100a357600080fd5b506100956100b23660046115f6565b61028c565b3480156100c357600080fd5b506100d76100d2366004611693565b61031b565b6040516100e49190611720565b60405180910390f35b3480156100f957600080fd5b50610095610108366004611693565b6108db565b34801561011957600080fd5b50610095610128366004611854565b6109b6565b34801561013957600080fd5b506100d7610148366004611884565b610a8a565b61009561015b36600461189d565b610ed1565b6001805460009182610171836118fa565b909155506040805160e08101825242815260208082018b81528284018b905260608301879052608083018a905260a0830189905260c08301889052600085815260089092529290208151815591519293509160018201906101d2908261199d565b50604082015160028201906101e7908261199d565b50606082015180516102039160038401916020909101906112a8565b5060808201516004820190610218908261199d565b5060a0820151600582019061022d908261199d565b5060c091909101516006918201556000828152600760209081526040808320805473ffffffffffffffffffffffffffffffffffffffff191633908117909155835292815291812080546001810182559082529190200155505050505050565b6000828152600760205260409020546001600160a01b031633146102f75760405162461bcd60e51b815260206004820152601960248201527f596f7520646f206e6f74206f776e2074686520766964656f2e0000000000000060448201526064015b60405180910390fd5b6000828152600b602090815260409091208251610316928401906112fe565b505050565b60606000805b6004846040516103319190611a5d565b908152604051908190036020019020548110156103b4576006600060048660405161035c9190611a5d565b9081526020016040518091039020838154811061037b5761037b611a79565b60009182526020808320909101546001600160a01b031683528201929092526040019020546103aa9083611a8f565b9150600101610321565b5060008167ffffffffffffffff8111156103d0576103d06113b1565b60405190808252806020026020018201604052801561044157816020015b61042e6040518060e00160405280600081526020016060815260200160608152602001606081526020016060815260200160608152602001600081525090565b8152602001906001900390816103ee5790505b5090506000805b6004866040516104589190611a5d565b908152604051908190036020019020548110156108d15760005b600660006004896040516104869190611a5d565b908152602001604051809103902084815481106104a5576104a5611a79565b60009182526020808320909101546001600160a01b031683528201929092526040019020548110156108c857600860006006600060048b6040516104e99190611a5d565b9081526020016040518091039020868154811061050857610508611a79565b60009182526020808320909101546001600160a01b03168352820192909252604001902080548490811061053e5761053e611a79565b906000526020600020015481526020019081526020016000206040518060e00160405290816000820154815260200160018201805461057c90611913565b80601f01602080910402602001604051908101604052809291908181526020018280546105a890611913565b80156105f55780601f106105ca576101008083540402835291602001916105f5565b820191906000526020600020905b8154815290600101906020018083116105d857829003601f168201915b5050505050815260200160028201805461060e90611913565b80601f016020809104026020016040519081016040528092919081815260200182805461063a90611913565b80156106875780601f1061065c57610100808354040283529160200191610687565b820191906000526020600020905b81548152906001019060200180831161066a57829003601f168201915b5050505050815260200160038201805480602002602001604051908101604052809291908181526020016000905b828210156107615783829060005260206000200180546106d490611913565b80601f016020809104026020016040519081016040528092919081815260200182805461070090611913565b801561074d5780601f106107225761010080835404028352916020019161074d565b820191906000526020600020905b81548152906001019060200180831161073057829003601f168201915b5050505050815260200190600101906106b5565b50505050815260200160048201805461077990611913565b80601f01602080910402602001604051908101604052809291908181526020018280546107a590611913565b80156107f25780601f106107c7576101008083540402835291602001916107f2565b820191906000526020600020905b8154815290600101906020018083116107d557829003601f168201915b5050505050815260200160058201805461080b90611913565b80601f016020809104026020016040519081016040528092919081815260200182805461083790611913565b80156108845780601f1061085957610100808354040283529160200191610884565b820191906000526020600020905b81548152906001019060200180831161086757829003601f168201915b505050505081526020016006820154815250508484806108a3906118fa565b9550815181106108b5576108b5611a79565b6020908102919091010152600101610472565b50600101610448565b5090949350505050565b3360009081526003602052604090206108f4828261199d565b506005816040516109059190611a5d565b9081526040805160209281900383019020336000908152925290205460ff166109b3576004816040516109389190611a5d565b908152604051908190036020908101822080546001818101835560009283529290912001805473ffffffffffffffffffffffffffffffffffffffff19163317905590600590610988908490611a5d565b908152604080516020928190038301902033600090815292529020805460ff19169115159190911790555b50565b6000546001600160a01b03163314610a105760405162461bcd60e51b815260206004820152600d60248201527f4163636573732044656e6965640000000000000000000000000000000000000060448201526064016102ee565b6040517f61646d696e0000000000000000000000000000000000000000000000000000008152600c90600501908152604051602091819003820190208054600181018255600091825291902001805473ffffffffffffffffffffffffffffffffffffffff19166001600160a01b0392909216919091179055565b606060008260015411610a9f57600154610aa1565b825b67ffffffffffffffff811115610ab957610ab96113b1565b604051908082528060200260200182016040528015610b2a57816020015b610b176040518060e00160405280600081526020016060815260200160608152602001606081526020016060815260200160608152602001600081525090565b815260200190600190039081610ad75790505b50905060005b8151811015610eca5760086000600183600154610b4d9190611aa8565b610b579190611aa8565b81526020019081526020016000206040518060e001604052908160008201548152602001600182018054610b8a90611913565b80601f0160208091040260200160405190810160405280929190818152602001828054610bb690611913565b8015610c035780601f10610bd857610100808354040283529160200191610c03565b820191906000526020600020905b815481529060010190602001808311610be657829003601f168201915b50505050508152602001600282018054610c1c90611913565b80601f0160208091040260200160405190810160405280929190818152602001828054610c4890611913565b8015610c955780601f10610c6a57610100808354040283529160200191610c95565b820191906000526020600020905b815481529060010190602001808311610c7857829003601f168201915b5050505050815260200160038201805480602002602001604051908101604052809291908181526020016000905b82821015610d6f578382906000526020600020018054610ce290611913565b80601f0160208091040260200160405190810160405280929190818152602001828054610d0e90611913565b8015610d5b5780601f10610d3057610100808354040283529160200191610d5b565b820191906000526020600020905b815481529060010190602001808311610d3e57829003601f168201915b505050505081526020019060010190610cc3565b505050508152602001600482018054610d8790611913565b80601f0160208091040260200160405190810160405280929190818152602001828054610db390611913565b8015610e005780601f10610dd557610100808354040283529160200191610e00565b820191906000526020600020905b815481529060010190602001808311610de357829003601f168201915b50505050508152602001600582018054610e1990611913565b80601f0160208091040260200160405190810160405280929190818152602001828054610e4590611913565b8015610e925780601f10610e6757610100808354040283529160200191610e92565b820191906000526020600020905b815481529060010190602001808311610e7557829003601f168201915b50505050508152602001600682015481525050828281518110610eb757610eb7611a79565b6020908102919091010152600101610b30565b5092915050565b34156111e6576000600a610ee6346009611abb565b610ef09190611ad2565b60008054919250906001600160a01b0316610f0b8334611aa8565b604051600081818185875af1925050503d8060008114610f47576040519150601f19603f3d011682016040523d82523d6000602084013e610f4c565b606091505b5050905080610f9d5760405162461bcd60e51b815260206004820152601d60248201527f4661696c656420746f2073656e6420457468657220746f206f776e657200000060448201526064016102ee565b6000848152600b6020526040812054610fb7906001611a8f565b90506000610fc58285611ad2565b905060005b6000878152600b60205260409020548110156110f0576000878152600b6020526040812080548390811061100057611000611a79565b600091825260208083209190910154808352600790915260408083205490519193506001600160a01b03169190829086908381818185875af1925050503d8060008114611069576040519150601f19603f3d011682016040523d82523d6000602084013e61106e565b606091505b50509050806110e55760405162461bcd60e51b815260206004820152602160248201527f4661696c656420746f2073656e6420457468657220746f20612063726561746f60448201527f720000000000000000000000000000000000000000000000000000000000000060648201526084016102ee565b505050600101610fca565b506000868152600760205260408120546001600160a01b0316611114600185611aa8565b61111e9084611abb565b6111289087611aa8565b604051600081818185875af1925050503d8060008114611164576040519150601f19603f3d011682016040523d82523d6000602084013e611169565b606091505b50509050806111e05760405162461bcd60e51b815260206004820152602360248201527f4661696c656420746f2073656e6420457468657220746f20746865206372656160448201527f746f72000000000000000000000000000000000000000000000000000000000060648201526084016102ee565b50505050505b60028054600091826111f7836118fa565b90915550604080516080810182524281523360208083019182528284018781523460608501526000868152600a90925293902082518155905160018201805473ffffffffffffffffffffffffffffffffffffffff19166001600160a01b039092169190911790559151929350916002820190611273908261199d565b506060919091015160039091015560009283526009602090815260408420805460018101825590855293209092019190915550565b8280548282559060005260206000209081019282156112ee579160200282015b828111156112ee57825182906112de908261199d565b50916020019190600101906112c8565b506112fa929150611345565b5090565b828054828255906000526020600020908101928215611339579160200282015b8281111561133957825182559160200191906001019061131e565b506112fa929150611362565b808211156112fa5760006113598282611377565b50600101611345565b5b808211156112fa5760008155600101611363565b50805461138390611913565b6000825580601f10611393575050565b601f0160209004906000526020600020908101906109b39190611362565b634e487b7160e01b600052604160045260246000fd5b604051601f8201601f1916810167ffffffffffffffff811182821017156113f0576113f06113b1565b604052919050565b600082601f83011261140957600080fd5b813567ffffffffffffffff811115611423576114236113b1565b611436601f8201601f19166020016113c7565b81815284602083860101111561144b57600080fd5b816020850160208301376000918101602001919091529392505050565b600067ffffffffffffffff821115611482576114826113b1565b5060051b60200190565b600082601f83011261149d57600080fd5b813560206114b26114ad83611468565b6113c7565b82815260059290921b840181019181810190868411156114d157600080fd5b8286015b8481101561151157803567ffffffffffffffff8111156114f55760008081fd5b6115038986838b01016113f8565b8452509183019183016114d5565b509695505050505050565b60008060008060008060c0878903121561153557600080fd5b863567ffffffffffffffff8082111561154d57600080fd5b6115598a838b016113f8565b9750602089013591508082111561156f57600080fd5b61157b8a838b016113f8565b9650604089013591508082111561159157600080fd5b61159d8a838b016113f8565b955060608901359150808211156115b357600080fd5b6115bf8a838b016113f8565b94506080890135935060a08901359150808211156115dc57600080fd5b506115e989828a0161148c565b9150509295509295509295565b6000806040838503121561160957600080fd5b8235915060208084013567ffffffffffffffff81111561162857600080fd5b8401601f8101861361163957600080fd5b80356116476114ad82611468565b81815260059190911b8201830190838101908883111561166657600080fd5b928401925b828410156116845783358252928401929084019061166b565b80955050505050509250929050565b6000602082840312156116a557600080fd5b813567ffffffffffffffff8111156116bc57600080fd5b6116c8848285016113f8565b949350505050565b60005b838110156116eb5781810151838201526020016116d3565b50506000910152565b6000815180845261170c8160208601602086016116d0565b601f01601f19169290920160200192915050565b602080825282518282018190526000919060409081850190600581811b8701840188860187805b8581101561184457603f198b8503018752825160e0815186528a820151818c880152611775828801826116f4565b915050898201518682038b88015261178d82826116f4565b606084810151898303918a019190915280518083529193508d840192508d0190808a1b84018e01875b828110156117e957601f198683030185526117d28285516116f4565b91508f840193508f850194506001810190506117b6565b5060809450848601519350898103858b015261180581856116f4565b94505050505060a0808301518783038289015261182283826116f4565b60c0948501519890940197909752505096890196935091880191600101611747565b50919a9950505050505050505050565b60006020828403121561186657600080fd5b81356001600160a01b038116811461187d57600080fd5b9392505050565b60006020828403121561189657600080fd5b5035919050565b600080604083850312156118b057600080fd5b82359150602083013567ffffffffffffffff8111156118ce57600080fd5b6118da858286016113f8565b9150509250929050565b634e487b7160e01b600052601160045260246000fd5b60006001820161190c5761190c6118e4565b5060010190565b600181811c9082168061192757607f821691505b60208210810361194757634e487b7160e01b600052602260045260246000fd5b50919050565b601f821115610316576000816000526020600020601f850160051c810160208610156119765750805b601f850160051c820191505b8181101561199557828155600101611982565b505050505050565b815167ffffffffffffffff8111156119b7576119b76113b1565b6119cb816119c58454611913565b8461194d565b602080601f831160018114611a0057600084156119e85750858301515b600019600386901b1c1916600185901b178555611995565b600085815260208120601f198616915b82811015611a2f57888601518255948401946001909101908401611a10565b5085821015611a4d5787850151600019600388901b60f8161c191681555b5050505050600190811b01905550565b60008251611a6f8184602087016116d0565b9190910192915050565b634e487b7160e01b600052603260045260246000fd5b80820180821115611aa257611aa26118e4565b92915050565b81810381811115611aa257611aa26118e4565b8082028115828204841417611aa257611aa26118e4565b600082611aef57634e487b7160e01b600052601260045260246000fd5b50049056fea26469706673582212200637cd6d5f2094925d4baa7ba42d16ccbf9eb989b500408c981304b8c0172b0664736f6c63430008160033",
          "opcodes": "PUSH1 0x80 PUSH1 0x40 MSTORE CALLVALUE DUP1 ISZERO PUSH2 0x10 JUMPI PUSH1 0x0 DUP1 REVERT JUMPDEST POP PUSH1 0x0 DUP1 SLOAD PUSH1 0x1 PUSH1 0x1 PUSH1 0xA0 SHL SUB NOT AND CALLER OR SWAP1 SSTORE PUSH2 0x1B2A DUP1 PUSH2 0x32 PUSH1 0x0 CODECOPY PUSH1 0x0 RETURN INVALID PUSH1 0x80 PUSH1 0x40 MSTORE PUSH1 0x4 CALLDATASIZE LT PUSH2 0x70 JUMPI PUSH1 0x0 CALLDATALOAD PUSH1 0xE0 SHR DUP1 PUSH4 0x60C736CD GT PUSH2 0x4E JUMPI DUP1 PUSH4 0x60C736CD EQ PUSH2 0xED JUMPI DUP1 PUSH4 0x70480275 EQ PUSH2 0x10D JUMPI DUP1 PUSH4 0x8799BD74 EQ PUSH2 0x12D JUMPI DUP1 PUSH4 0xAA7E5683 EQ PUSH2 0x14D JUMPI PUSH1 0x0 DUP1 REVERT JUMPDEST DUP1 PUSH4 0x210E07DF EQ PUSH2 0x75 JUMPI DUP1 PUSH4 0x38ABAFA0 EQ PUSH2 0x97 JUMPI DUP1 PUSH4 0x5EAECD12 EQ PUSH2 0xB7 JUMPI JUMPDEST PUSH1 0x0 DUP1 REVERT JUMPDEST CALLVALUE DUP1 ISZERO PUSH2 0x81 JUMPI PUSH1 0x0 DUP1 REVERT JUMPDEST POP PUSH2 0x95 PUSH2 0x90 CALLDATASIZE PUSH1 0x4 PUSH2 0x151C JUMP JUMPDEST PUSH2 0x160 JUMP JUMPDEST STOP JUMPDEST CALLVALUE DUP1 ISZERO PUSH2 0xA3 JUMPI PUSH1 0x0 DUP1 REVERT JUMPDEST POP PUSH2 0x95 PUSH2 0xB2 CALLDATASIZE PUSH1 0x4 PUSH2 0x15F6 JUMP JUMPDEST PUSH2 0x28C JUMP JUMPDEST CALLVALUE DUP1 ISZERO PUSH2 0xC3 JUMPI PUSH1 0x0 DUP1 REVERT JUMPDEST POP PUSH2 0xD7 PUSH2 0xD2 CALLDATASIZE PUSH1 0x4 PUSH2 0x1693 JUMP JUMPDEST PUSH2 0x31B JUMP JUMPDEST PUSH1 0x40 MLOAD PUSH2 0xE4 SWAP2 SWAP1 PUSH2 0x1720 JUMP JUMPDEST PUSH1 0x40 MLOAD DUP1 SWAP2 SUB SWAP1 RETURN JUMPDEST CALLVALUE DUP1 ISZERO PUSH2 0xF9 JUMPI PUSH1 0x0 DUP1 REVERT JUMPDEST POP PUSH2 0x95 PUSH2 0x108 CALLDATASIZE PUSH1 0x4 PUSH2 0x1693 JUMP JUMPDEST PUSH2 0x8DB JUMP JUMPDEST CALLVALUE DUP1 ISZERO PUSH2 0x119 JUMPI PUSH1 0x0 DUP1 REVERT JUMPDEST POP PUSH2 0x95 PUSH2 0x128 CALLDATASIZE PUSH1 0x4 PUSH2 0x1854 JUMP JUMPDEST PUSH2 0x9B6 JUMP JUMPDEST CALLVALUE DUP1 ISZERO PUSH2 0x139 JUMPI PUSH1 0x0 DUP1 REVERT JUMPDEST POP PUSH2 0xD7 PUSH2 0x148 CALLDATASIZE PUSH1 0x4 PUSH2 0x1884 JUMP JUMPDEST PUSH2 0xA8A JUMP JUMPDEST PUSH2 0x95 PUSH2 0x15B CALLDATASIZE PUSH1 0x4 PUSH2 0x189D JUMP JUMPDEST PUSH2 0xED1 JUMP JUMPDEST PUSH1 0x1 DUP1 SLOAD PUSH1 0x0 SWAP2 DUP3 PUSH2 0x171 DUP4 PUSH2 0x18FA JUMP JUMPDEST SWAP1 SWAP2 SSTORE POP PUSH1 0x40 DUP1 MLOAD PUSH1 0xE0 DUP2 ADD DUP3 MSTORE TIMESTAMP DUP2 MSTORE PUSH1 0x20 DUP1 DUP3 ADD DUP12 DUP2 MSTORE DUP3 DUP5 ADD DUP12 SWAP1 MSTORE PUSH1 0x60 DUP4 ADD DUP8 SWAP1 MSTORE PUSH1 0x80 DUP4 ADD DUP11 SWAP1 MSTORE PUSH1 0xA0 DUP4 ADD DUP10 SWAP1 MSTORE PUSH1 0xC0 DUP4 ADD DUP9 SWAP1 MSTORE PUSH1 0x0 DUP6 DUP2 MSTORE PUSH1 0x8 SWAP1 SWAP3 MSTORE SWAP3 SWAP1 KECCAK256 DUP2 MLOAD DUP2 SSTORE SWAP2 MLOAD SWAP3 SWAP4 POP SWAP2 PUSH1 0x1 DUP3 ADD SWAP1 PUSH2 0x1D2 SWAP1 DUP3 PUSH2 0x199D JUMP JUMPDEST POP PUSH1 0x40 DUP3 ADD MLOAD PUSH1 0x2 DUP3 ADD SWAP1 PUSH2 0x1E7 SWAP1 DUP3 PUSH2 0x199D JUMP JUMPDEST POP PUSH1 0x60 DUP3 ADD MLOAD DUP1 MLOAD PUSH2 0x203 SWAP2 PUSH1 0x3 DUP5 ADD SWAP2 PUSH1 0x20 SWAP1 SWAP2 ADD SWAP1 PUSH2 0x12A8 JUMP JUMPDEST POP PUSH1 0x80 DUP3 ADD MLOAD PUSH1 0x4 DUP3 ADD SWAP1 PUSH2 0x218 SWAP1 DUP3 PUSH2 0x199D JUMP JUMPDEST POP PUSH1 0xA0 DUP3 ADD MLOAD PUSH1 0x5 DUP3 ADD SWAP1 PUSH2 0x22D SWAP1 DUP3 PUSH2 0x199D JUMP JUMPDEST POP PUSH1 0xC0 SWAP2 SWAP1 SWAP2 ADD MLOAD PUSH1 0x6 SWAP2 DUP3 ADD SSTORE PUSH1 0x0 DUP3 DUP2 MSTORE PUSH1 0x7 PUSH1 0x20 SWAP1 DUP2 MSTORE PUSH1 0x40 DUP1 DUP4 KECCAK256 DUP1 SLOAD PUSH20 0xFFFFFFFFFFFFFFFFFFFFFFFFFFFFFFFFFFFFFFFF NOT AND CALLER SWAP1 DUP2 OR SWAP1 SWAP2 SSTORE DUP4 MSTORE SWAP3 DUP2 MSTORE SWAP2 DUP2 KECCAK256 DUP1 SLOAD PUSH1 0x1 DUP2 ADD DUP3 SSTORE SWAP1 DUP3 MSTORE SWAP2 SWAP1 KECCAK256 ADD SSTORE POP POP POP POP POP POP JUMP JUMPDEST PUSH1 0x0 DUP3 DUP2 MSTORE PUSH1 0x7 PUSH1 0x20 MSTORE PUSH1 0x40 SWAP1 KECCAK256 SLOAD PUSH1 0x1 PUSH1 0x1 PUSH1 0xA0 SHL SUB AND CALLER EQ PUSH2 0x2F7 JUMPI PUSH1 0x40 MLOAD PUSH3 0x461BCD PUSH1 0xE5 SHL DUP2 MSTORE PUSH1 0x20 PUSH1 0x4 DUP3 ADD MSTORE PUSH1 0x19 PUSH1 0x24 DUP3 ADD MSTORE PUSH32 0x596F7520646F206E6F74206F776E2074686520766964656F2E00000000000000 PUSH1 0x44 DUP3 ADD MSTORE PUSH1 0x64 ADD JUMPDEST PUSH1 0x40 MLOAD DUP1 SWAP2 SUB SWAP1 REVERT JUMPDEST PUSH1 0x0 DUP3 DUP2 MSTORE PUSH1 0xB PUSH1 0x20 SWAP1 DUP2 MSTORE PUSH1 0x40 SWAP1 SWAP2 KECCAK256 DUP3 MLOAD PUSH2 0x316 SWAP3 DUP5 ADD SWAP1 PUSH2 0x12FE JUMP JUMPDEST POP POP POP JUMP JUMPDEST PUSH1 0x60 PUSH1 0x0 DUP1 JUMPDEST PUSH1 0x4 DUP5 PUSH1 0x40 MLOAD PUSH2 0x331 SWAP2 SWAP1 PUSH2 0x1A5D JUMP JUMPDEST SWAP1 DUP2 MSTORE PUSH1 0x40 MLOAD SWAP1 DUP2 SWAP1 SUB PUSH1 0x20 ADD SWAP1 KECCAK256 SLOAD DUP2 LT ISZERO PUSH2 0x3B4 JUMPI PUSH1 0x6 PUSH1 0x0 PUSH1 0x4 DUP7 PUSH1 0x40 MLOAD PUSH2 0x35C SWAP2 SWAP1 PUSH2 0x1A5D JUMP JUMPDEST SWAP1 DUP2 MSTORE PUSH1 0x20 ADD PUSH1 0x40 MLOAD DUP1 SWAP2 SUB SWAP1 KECCAK256 DUP4 DUP2 SLOAD DUP2 LT PUSH2 0x37B JUMPI PUSH2 0x37B PUSH2 0x1A79 JUMP JUMPDEST PUSH1 0x0 SWAP2 DUP3 MSTORE PUSH1 0x20 DUP1 DUP4 KECCAK256 SWAP1 SWAP2 ADD SLOAD PUSH1 0x1 PUSH1 0x1 PUSH1 0xA0 SHL SUB AND DUP4 MSTORE DUP3 ADD SWAP3 SWAP1 SWAP3 MSTORE PUSH1 0x40 ADD SWAP1 KECCAK256 SLOAD PUSH2 0x3AA SWAP1 DUP4 PUSH2 0x1A8F JUMP JUMPDEST SWAP2 POP PUSH1 0x1 ADD PUSH2 0x321 JUMP JUMPDEST POP PUSH1 0x0 DUP2 PUSH8 0xFFFFFFFFFFFFFFFF DUP2 GT ISZERO PUSH2 0x3D0 JUMPI PUSH2 0x3D0 PUSH2 0x13B1 JUMP JUMPDEST PUSH1 0x40 MLOAD SWAP1 DUP1 DUP3 MSTORE DUP1 PUSH1 0x20 MUL PUSH1 0x20 ADD DUP3 ADD PUSH1 0x40 MSTORE DUP1 ISZERO PUSH2 0x441 JUMPI DUP2 PUSH1 0x20 ADD JUMPDEST PUSH2 0x42E PUSH1 0x40 MLOAD DUP1 PUSH1 0xE0 ADD PUSH1 0x40 MSTORE DUP1 PUSH1 0x0 DUP2 MSTORE PUSH1 0x20 ADD PUSH1 0x60 DUP2 MSTORE PUSH1 0x20 ADD PUSH1 0x60 DUP2 MSTORE PUSH1 0x20 ADD PUSH1 0x60 DUP2 MSTORE PUSH1 0x20 ADD PUSH1 0x60 DUP2 MSTORE PUSH1 0x20 ADD PUSH1 0x60 DUP2 MSTORE PUSH1 0x20 ADD PUSH1 0x0 DUP2 MSTORE POP SWAP1 JUMP JUMPDEST DUP2 MSTORE PUSH1 0x20 ADD SWAP1 PUSH1 0x1 SWAP1 SUB SWAP1 DUP2 PUSH2 0x3EE JUMPI SWAP1 POP JUMPDEST POP SWAP1 POP PUSH1 0x0 DUP1 JUMPDEST PUSH1 0x4 DUP7 PUSH1 0x40 MLOAD PUSH2 0x458 SWAP2 SWAP1 PUSH2 0x1A5D JUMP JUMPDEST SWAP1 DUP2 MSTORE PUSH1 0x40 MLOAD SWAP1 DUP2 SWAP1 SUB PUSH1 0x20 ADD SWAP1 KECCAK256 SLOAD DUP2 LT ISZERO PUSH2 0x8D1 JUMPI PUSH1 0x0 JUMPDEST PUSH1 0x6 PUSH1 0x0 PUSH1 0x4 DUP10 PUSH1 0x40 MLOAD PUSH2 0x486 SWAP2 SWAP1 PUSH2 0x1A5D JUMP JUMPDEST SWAP1 DUP2 MSTORE PUSH1 0x20 ADD PUSH1 0x40 MLOAD DUP1 SWAP2 SUB SWAP1 KECCAK256 DUP5 DUP2 SLOAD DUP2 LT PUSH2 0x4A5 JUMPI PUSH2 0x4A5 PUSH2 0x1A79 JUMP JUMPDEST PUSH1 0x0 SWAP2 DUP3 MSTORE PUSH1 0x20 DUP1 DUP4 KECCAK256 SWAP1 SWAP2 ADD SLOAD PUSH1 0x1 PUSH1 0x1 PUSH1 0xA0 SHL SUB AND DUP4 MSTORE DUP3 ADD SWAP3 SWAP1 SWAP3 MSTORE PUSH1 0x40 ADD SWAP1 KECCAK256 SLOAD DUP2 LT ISZERO PUSH2 0x8C8 JUMPI PUSH1 0x8 PUSH1 0x0 PUSH1 0x6 PUSH1 0x0 PUSH1 0x4 DUP12 PUSH1 0x40 MLOAD PUSH2 0x4E9 SWAP2 SWAP1 PUSH2 0x1A5D JUMP JUMPDEST SWAP1 DUP2 MSTORE PUSH1 0x20 ADD PUSH1 0x40 MLOAD DUP1 SWAP2 SUB SWAP1 KECCAK256 DUP7 DUP2 SLOAD DUP2 LT PUSH2 0x508 JUMPI PUSH2 0x508 PUSH2 0x1A79 JUMP JUMPDEST PUSH1 0x0 SWAP2 DUP3 MSTORE PUSH1 0x20 DUP1 DUP4 KECCAK256 SWAP1 SWAP2 ADD SLOAD PUSH1 0x1 PUSH1 0x1 PUSH1 0xA0 SHL SUB AND DUP4 MSTORE DUP3 ADD SWAP3 SWAP1 SWAP3 MSTORE PUSH1 0x40 ADD SWAP1 KECCAK256 DUP1 SLOAD DUP5 SWAP1 DUP2 LT PUSH2 0x53E JUMPI PUSH2 0x53E PUSH2 0x1A79 JUMP JUMPDEST SWAP1 PUSH1 0x0 MSTORE PUSH1 0x20 PUSH1 0x0 KECCAK256 ADD SLOAD DUP2 MSTORE PUSH1 0x20 ADD SWAP1 DUP2 MSTORE PUSH1 0x20 ADD PUSH1 0x0 KECCAK256 PUSH1 0x40 MLOAD DUP1 PUSH1 0xE0 ADD PUSH1 0x40 MSTORE SWAP1 DUP2 PUSH1 0x0 DUP3 ADD SLOAD DUP2 MSTORE PUSH1 0x20 ADD PUSH1 0x1 DUP3 ADD DUP1 SLOAD PUSH2 0x57C SWAP1 PUSH2 0x1913 JUMP JUMPDEST DUP1 PUSH1 0x1F ADD PUSH1 0x20 DUP1 SWAP2 DIV MUL PUSH1 0x20 ADD PUSH1 0x40 MLOAD SWAP1 DUP2 ADD PUSH1 0x40 MSTORE DUP1 SWAP3 SWAP2 SWAP1 DUP2 DUP2 MSTORE PUSH1 0x20 ADD DUP3 DUP1 SLOAD PUSH2 0x5A8 SWAP1 PUSH2 0x1913 JUMP JUMPDEST DUP1 ISZERO PUSH2 0x5F5 JUMPI DUP1 PUSH1 0x1F LT PUSH2 0x5CA JUMPI PUSH2 0x100 DUP1 DUP4 SLOAD DIV MUL DUP4 MSTORE SWAP2 PUSH1 0x20 ADD SWAP2 PUSH2 0x5F5 JUMP JUMPDEST DUP3 ADD SWAP2 SWAP1 PUSH1 0x0 MSTORE PUSH1 0x20 PUSH1 0x0 KECCAK256 SWAP1 JUMPDEST DUP2 SLOAD DUP2 MSTORE SWAP1 PUSH1 0x1 ADD SWAP1 PUSH1 0x20 ADD DUP1 DUP4 GT PUSH2 0x5D8 JUMPI DUP3 SWAP1 SUB PUSH1 0x1F AND DUP3 ADD SWAP2 JUMPDEST POP POP POP POP POP DUP2 MSTORE PUSH1 0x20 ADD PUSH1 0x2 DUP3 ADD DUP1 SLOAD PUSH2 0x60E SWAP1 PUSH2 0x1913 JUMP JUMPDEST DUP1 PUSH1 0x1F ADD PUSH1 0x20 DUP1 SWAP2 DIV MUL PUSH1 0x20 ADD PUSH1 0x40 MLOAD SWAP1 DUP2 ADD PUSH1 0x40 MSTORE DUP1 SWAP3 SWAP2 SWAP1 DUP2 DUP2 MSTORE PUSH1 0x20 ADD DUP3 DUP1 SLOAD PUSH2 0x63A SWAP1 PUSH2 0x1913 JUMP JUMPDEST DUP1 ISZERO PUSH2 0x687 JUMPI DUP1 PUSH1 0x1F LT PUSH2 0x65C JUMPI PUSH2 0x100 DUP1 DUP4 SLOAD DIV MUL DUP4 MSTORE SWAP2 PUSH1 0x20 ADD SWAP2 PUSH2 0x687 JUMP JUMPDEST DUP3 ADD SWAP2 SWAP1 PUSH1 0x0 MSTORE PUSH1 0x20 PUSH1 0x0 KECCAK256 SWAP1 JUMPDEST DUP2 SLOAD DUP2 MSTORE SWAP1 PUSH1 0x1 ADD SWAP1 PUSH1 0x20 ADD DUP1 DUP4 GT PUSH2 0x66A JUMPI DUP3 SWAP1 SUB PUSH1 0x1F AND DUP3 ADD SWAP2 JUMPDEST POP POP POP POP POP DUP2 MSTORE PUSH1 0x20 ADD PUSH1 0x3 DUP3 ADD DUP1 SLOAD DUP1 PUSH1 0x20 MUL PUSH1 0x20 ADD PUSH1 0x40 MLOAD SWAP1 DUP2 ADD PUSH1 0x40 MSTORE DUP1 SWAP3 SWAP2 SWAP1 DUP2 DUP2 MSTORE PUSH1 0x20 ADD PUSH1 0x0 SWAP1 JUMPDEST DUP3 DUP3 LT ISZERO PUSH2 0x761 JUMPI DUP4 DUP3 SWAP1 PUSH1 0x0 MSTORE PUSH1 0x20 PUSH1 0x0 KECCAK256 ADD DUP1 SLOAD PUSH2 0x6D4 SWAP1 PUSH2 0x1913 JUMP JUMPDEST DUP1 PUSH1 0x1F ADD PUSH1 0x20 DUP1 SWAP2 DIV MUL PUSH1 0x20 ADD PUSH1 0x40 MLOAD SWAP1 DUP2 ADD PUSH1 0x40 MSTORE DUP1 SWAP3 SWAP2 SWAP1 DUP2 DUP2 MSTORE PUSH1 0x20 ADD DUP3 DUP1 SLOAD PUSH2 0x700 SWAP1 PUSH2 0x1913 JUMP JUMPDEST DUP1 ISZERO PUSH2 0x74D JUMPI DUP1 PUSH1 0x1F LT PUSH2 0x722 JUMPI PUSH2 0x100 DUP1 DUP4 SLOAD DIV MUL DUP4 MSTORE SWAP2 PUSH1 0x20 ADD SWAP2 PUSH2 0x74D JUMP JUMPDEST DUP3 ADD SWAP2 SWAP1 PUSH1 0x0 MSTORE PUSH1 0x20 PUSH1 0x0 KECCAK256 SWAP1 JUMPDEST DUP2 SLOAD DUP2 MSTORE SWAP1 PUSH1 0x1 ADD SWAP1 PUSH1 0x20 ADD DUP1 DUP4 GT PUSH2 0x730 JUMPI DUP3 SWAP1 SUB PUSH1 0x1F AND DUP3 ADD SWAP2 JUMPDEST POP POP POP POP POP DUP2 MSTORE PUSH1 0x20 ADD SWAP1 PUSH1 0x1 ADD SWAP1 PUSH2 0x6B5 JUMP JUMPDEST POP POP POP POP DUP2 MSTORE PUSH1 0x20 ADD PUSH1 0x4 DUP3 ADD DUP1 SLOAD PUSH2 0x779 SWAP1 PUSH2 0x1913 JUMP JUMPDEST DUP1 PUSH1 0x1F ADD PUSH1 0x20 DUP1 SWAP2 DIV MUL PUSH1 0x20 ADD PUSH1 0x40 MLOAD SWAP1 DUP2 ADD PUSH1 0x40 MSTORE DUP1 SWAP3 SWAP2 SWAP1 DUP2 DUP2 MSTORE PUSH1 0x20 ADD DUP3 DUP1 SLOAD PUSH2 0x7A5 SWAP1 PUSH2 0x1913 JUMP JUMPDEST DUP1 ISZERO PUSH2 0x7F2 JUMPI DUP1 PUSH1 0x1F LT PUSH2 0x7C7 JUMPI PUSH2 0x100 DUP1 DUP4 SLOAD DIV MUL DUP4 MSTORE SWAP2 PUSH1 0x20 ADD SWAP2 PUSH2 0x7F2 JUMP JUMPDEST DUP3 ADD SWAP2 SWAP1 PUSH1 0x0 MSTORE PUSH1 0x20 PUSH1 0x0 KECCAK256 SWAP1 JUMPDEST DUP2 SLOAD DUP2 MSTORE SWAP1 PUSH1 0x1 ADD SWAP1 PUSH1 0x20 ADD DUP1 DUP4 GT PUSH2 0x7D5 JUMPI DUP3 SWAP1 SUB PUSH1 0x1F AND DUP3 ADD SWAP2 JUMPDEST POP POP POP POP POP DUP2 MSTORE PUSH1 0x20 ADD PUSH1 0x5 DUP3 ADD DUP1 SLOAD PUSH2 0x80B SWAP1 PUSH2 0x1913 JUMP JUMPDEST DUP1 PUSH1 0x1F ADD PUSH1 0x20 DUP1 SWAP2 DIV MUL PUSH1 0x20 ADD PUSH1 0x40 MLOAD SWAP1 DUP2 ADD PUSH1 0x40 MSTORE DUP1 SWAP3 SWAP2 SWAP1 DUP2 DUP2 MSTORE PUSH1 0x20 ADD DUP3 DUP1 SLOAD PUSH2 0x837 SWAP1 PUSH2 0x1913 JUMP JUMPDEST DUP1 ISZERO PUSH2 0x884 JUMPI DUP1 PUSH1 0x1F LT PUSH2 0x859 JUMPI PUSH2 0x100 DUP1 DUP4 SLOAD DIV MUL DUP4 MSTORE SWAP2 PUSH1 0x20 ADD SWAP2 PUSH2 0x884 JUMP JUMPDEST DUP3 ADD SWAP2 SWAP1 PUSH1 0x0 MSTORE PUSH1 0x20 PUSH1 0x0 KECCAK256 SWAP1 JUMPDEST DUP2 SLOAD DUP2 MSTORE SWAP1 PUSH1 0x1 ADD SWAP1 PUSH1 0x20 ADD DUP1 DUP4 GT PUSH2 0x867 JUMPI DUP3 SWAP1 SUB PUSH1 0x1F AND DUP3 ADD SWAP2 JUMPDEST POP POP POP POP POP DUP2 MSTORE PUSH1 0x20 ADD PUSH1 0x6 DUP3 ADD SLOAD DUP2 MSTORE POP POP DUP5 DUP5 DUP1 PUSH2 0x8A3 SWAP1 PUSH2 0x18FA JUMP JUMPDEST SWAP6 POP DUP2 MLOAD DUP2 LT PUSH2 0x8B5 JUMPI PUSH2 0x8B5 PUSH2 0x1A79 JUMP JUMPDEST PUSH1 0x20 SWAP1 DUP2 MUL SWAP2 SWAP1 SWAP2 ADD ADD MSTORE PUSH1 0x1 ADD PUSH2 0x472 JUMP JUMPDEST POP PUSH1 0x1 ADD PUSH2 0x448 JUMP JUMPDEST POP SWAP1 SWAP5 SWAP4 POP POP POP POP JUMP JUMPDEST CALLER PUSH1 0x0 SWAP1 DUP2 MSTORE PUSH1 0x3 PUSH1 0x20 MSTORE PUSH1 0x40 SWAP1 KECCAK256 PUSH2 0x8F4 DUP3 DUP3 PUSH2 0x199D JUMP JUMPDEST POP PUSH1 0x5 DUP2 PUSH1 0x40 MLOAD PUSH2 0x905 SWAP2 SWAP1 PUSH2 0x1A5D JUMP JUMPDEST SWAP1 DUP2 MSTORE PUSH1 0x40 DUP1 MLOAD PUSH1 0x20 SWAP3 DUP2 SWAP1 SUB DUP4 ADD SWAP1 KECCAK256 CALLER PUSH1 0x0 SWAP1 DUP2 MSTORE SWAP3 MSTORE SWAP1 KECCAK256 SLOAD PUSH1 0xFF AND PUSH2 0x9B3 JUMPI PUSH1 0x4 DUP2 PUSH1 0x40 MLOAD PUSH2 0x938 SWAP2 SWAP1 PUSH2 0x1A5D JUMP JUMPDEST SWAP1 DUP2 MSTORE PUSH1 0x40 MLOAD SWAP1 DUP2 SWAP1 SUB PUSH1 0x20 SWAP1 DUP2 ADD DUP3 KECCAK256 DUP1 SLOAD PUSH1 0x1 DUP2 DUP2 ADD DUP4 SSTORE PUSH1 0x0 SWAP3 DUP4 MSTORE SWAP3 SWAP1 SWAP2 KECCAK256 ADD DUP1 SLOAD PUSH20 0xFFFFFFFFFFFFFFFFFFFFFFFFFFFFFFFFFFFFFFFF NOT AND CALLER OR SWAP1 SSTORE SWAP1 PUSH1 0x5 SWAP1 PUSH2 0x988 SWAP1 DUP5 SWAP1 PUSH2 0x1A5D JUMP JUMPDEST SWAP1 DUP2 MSTORE PUSH1 0x40 DUP1 MLOAD PUSH1 0x20 SWAP3 DUP2 SWAP1 SUB DUP4 ADD SWAP1 KECCAK256 CALLER PUSH1 0x0 SWAP1 DUP2 MSTORE SWAP3 MSTORE SWAP1 KECCAK256 DUP1 SLOAD PUSH1 0xFF NOT AND SWAP2 ISZERO ISZERO SWAP2 SWAP1 SWAP2 OR SWAP1 SSTORE JUMPDEST POP JUMP JUMPDEST PUSH1 0x0 SLOAD PUSH1 0x1 PUSH1 0x1 PUSH1 0xA0 SHL SUB AND CALLER EQ PUSH2 0xA10 JUMPI PUSH1 0x40 MLOAD PUSH3 0x461BCD PUSH1 0xE5 SHL DUP2 MSTORE PUSH1 0x20 PUSH1 0x4 DUP3 ADD MSTORE PUSH1 0xD PUSH1 0x24 DUP3 ADD MSTORE PUSH32 0x4163636573732044656E69656400000000000000000000000000000000000000 PUSH1 0x44 DUP3 ADD MSTORE PUSH1 0x64 ADD PUSH2 0x2EE JUMP JUMPDEST PUSH1 0x40 MLOAD PUSH32 0x61646D696E000000000000000000000000000000000000000000000000000000 DUP2 MSTORE PUSH1 0xC SWAP1 PUSH1 0x5 ADD SWAP1 DUP2 MSTORE PUSH1 0x40 MLOAD PUSH1 0x20 SWAP2 DUP2 SWAP1 SUB DUP3 ADD SWAP1 KECCAK256 DUP1 SLOAD PUSH1 0x1 DUP2 ADD DUP3 SSTORE PUSH1 0x0 SWAP2 DUP3 MSTORE SWAP2 SWAP1 KECCAK256 ADD DUP1 SLOAD PUSH20 0xFFFFFFFFFFFFFFFFFFFFFFFFFFFFFFFFFFFFFFFF NOT AND PUSH1 0x1 PUSH1 0x1 PUSH1 0xA0 SHL SUB SWAP3 SWAP1 SWAP3 AND SWAP2 SWAP1 SWAP2 OR SWAP1 SSTORE JUMP JUMPDEST PUSH1 0x60 PUSH1 0x0 DUP3 PUSH1 0x1 SLOAD GT PUSH2 0xA9F JUMPI PUSH1 0x1 SLOAD PUSH2 0xAA1 JUMP JUMPDEST DUP3 JUMPDEST PUSH8 0xFFFFFFFFFFFFFFFF DUP2 GT ISZERO PUSH2 0xAB9 JUMPI PUSH2 0xAB9 PUSH2 0x13B1 JUMP JUMPDEST PUSH1 0x40 MLOAD SWAP1 DUP1 DUP3 MSTORE DUP1 PUSH1 0x20 MUL PUSH1 0x20 ADD DUP3 ADD PUSH1 0x40 MSTORE DUP1 ISZERO PUSH2 0xB2A JUMPI DUP2 PUSH1 0x20 ADD JUMPDEST PUSH2 0xB17 PUSH1 0x40 MLOAD DUP1 PUSH1 0xE0 ADD PUSH1 0x40 MSTORE DUP1 PUSH1 0x0 DUP2 MSTORE PUSH1 0x20 ADD PUSH1 0x60 DUP2 MSTORE PUSH1 0x20 ADD PUSH1 0x60 DUP2 MSTORE PUSH1 0x20 ADD PUSH1 0x60 DUP2 MSTORE PUSH1 0x20 ADD PUSH1 0x60 DUP2 MSTORE PUSH1 0x20 ADD PUSH1 0x60 DUP2 MSTORE PUSH1 0x20 ADD PUSH1 0x0 DUP2 MSTORE POP SWAP1 JUMP JUMPDEST DUP2 MSTORE PUSH1 0x20 ADD SWAP1 PUSH1 0x1 SWAP1 SUB SWAP1 DUP2 PUSH2 0xAD7 JUMPI SWAP1 POP JUMPDEST POP SWAP1 POP PUSH1 0x0 JUMPDEST DUP2 MLOAD DUP2 LT ISZERO PUSH2 0xECA JUMPI PUSH1 0x8 PUSH1 0x0 PUSH1 0x1 DUP4 PUSH1 0x1 SLOAD PUSH2 0xB4D SWAP2 SWAP1 PUSH2 0x1AA8 JUMP JUMPDEST PUSH2 0xB57 SWAP2 SWAP1 PUSH2 0x1AA8 JUMP JUMPDEST DUP2 MSTORE PUSH1 0x20 ADD SWAP1 DUP2 MSTORE PUSH1 0x20 ADD PUSH1 0x0 KECCAK256 PUSH1 0x40 MLOAD DUP1 PUSH1 0xE0 ADD PUSH1 0x40 MSTORE SWAP1 DUP2 PUSH1 0x0 DUP3 ADD SLOAD DUP2 MSTORE PUSH1 0x20 ADD PUSH1 0x1 DUP3 ADD DUP1 SLOAD PUSH2 0xB8A SWAP1 PUSH2 0x1913 JUMP JUMPDEST DUP1 PUSH1 0x1F ADD PUSH1 0x20 DUP1 SWAP2 DIV MUL PUSH1 0x20 ADD PUSH1 0x40 MLOAD SWAP1 DUP2 ADD PUSH1 0x40 MSTORE DUP1 SWAP3 SWAP2 SWAP1 DUP2 DUP2 MSTORE PUSH1 0x20 ADD DUP3 DUP1 SLOAD PUSH2 0xBB6 SWAP1 PUSH2 0x1913 JUMP JUMPDEST DUP1 ISZERO PUSH2 0xC03 JUMPI DUP1 PUSH1 0x1F LT PUSH2 0xBD8 JUMPI PUSH2 0x100 DUP1 DUP4 SLOAD DIV MUL DUP4 MSTORE SWAP2 PUSH1 0x20 ADD SWAP2 PUSH2 0xC03 JUMP JUMPDEST DUP3 ADD SWAP2 SWAP1 PUSH1 0x0 MSTORE PUSH1 0x20 PUSH1 0x0 KECCAK256 SWAP1 JUMPDEST DUP2 SLOAD DUP2 MSTORE SWAP1 PUSH1 0x1 ADD SWAP1 PUSH1 0x20 ADD DUP1 DUP4 GT PUSH2 0xBE6 JUMPI DUP3 SWAP1 SUB PUSH1 0x1F AND DUP3 ADD SWAP2 JUMPDEST POP POP POP POP POP DUP2 MSTORE PUSH1 0x20 ADD PUSH1 0x2 DUP3 ADD DUP1 SLOAD PUSH2 0xC1C SWAP1 PUSH2 0x1913 JUMP JUMPDEST DUP1 PUSH1 0x1F ADD PUSH1 0x20 DUP1 SWAP2 DIV MUL PUSH1 0x20 ADD PUSH1 0x40 MLOAD SWAP1 DUP2 ADD PUSH1 0x40 MSTORE DUP1 SWAP3 SWAP2 SWAP1 DUP2 DUP2 MSTORE PUSH1 0x20 ADD DUP3 DUP1 SLOAD PUSH2 0xC48 SWAP1 PUSH2 0x1913 JUMP JUMPDEST DUP1 ISZERO PUSH2 0xC95 JUMPI DUP1 PUSH1 0x1F LT PUSH2 0xC6A JUMPI PUSH2 0x100 DUP1 DUP4 SLOAD DIV MUL DUP4 MSTORE SWAP2 PUSH1 0x20 ADD SWAP2 PUSH2 0xC95 JUMP JUMPDEST DUP3 ADD SWAP2 SWAP1 PUSH1 0x0 MSTORE PUSH1 0x20 PUSH1 0x0 KECCAK256 SWAP1 JUMPDEST DUP2 SLOAD DUP2 MSTORE SWAP1 PUSH1 0x1 ADD SWAP1 PUSH1 0x20 ADD DUP1 DUP4 GT PUSH2 0xC78 JUMPI DUP3 SWAP1 SUB PUSH1 0x1F AND DUP3 ADD SWAP2 JUMPDEST POP POP POP POP POP DUP2 MSTORE PUSH1 0x20 ADD PUSH1 0x3 DUP3 ADD DUP1 SLOAD DUP1 PUSH1 0x20 MUL PUSH1 0x20 ADD PUSH1 0x40 MLOAD SWAP1 DUP2 ADD PUSH1 0x40 MSTORE DUP1 SWAP3 SWAP2 SWAP1 DUP2 DUP2 MSTORE PUSH1 0x20 ADD PUSH1 0x0 SWAP1 JUMPDEST DUP3 DUP3 LT ISZERO PUSH2 0xD6F JUMPI DUP4 DUP3 SWAP1 PUSH1 0x0 MSTORE PUSH1 0x20 PUSH1 0x0 KECCAK256 ADD DUP1 SLOAD PUSH2 0xCE2 SWAP1 PUSH2 0x1913 JUMP JUMPDEST DUP1 PUSH1 0x1F ADD PUSH1 0x20 DUP1 SWAP2 DIV MUL PUSH1 0x20 ADD PUSH1 0x40 MLOAD SWAP1 DUP2 ADD PUSH1 0x40 MSTORE DUP1 SWAP3 SWAP2 SWAP1 DUP2 DUP2 MSTORE PUSH1 0x20 ADD DUP3 DUP1 SLOAD PUSH2 0xD0E SWAP1 PUSH2 0x1913 JUMP JUMPDEST DUP1 ISZERO PUSH2 0xD5B JUMPI DUP1 PUSH1 0x1F LT PUSH2 0xD30 JUMPI PUSH2 0x100 DUP1 DUP4 SLOAD DIV MUL DUP4 MSTORE SWAP2 PUSH1 0x20 ADD SWAP2 PUSH2 0xD5B JUMP JUMPDEST DUP3 ADD SWAP2 SWAP1 PUSH1 0x0 MSTORE PUSH1 0x20 PUSH1 0x0 KECCAK256 SWAP1 JUMPDEST DUP2 SLOAD DUP2 MSTORE SWAP1 PUSH1 0x1 ADD SWAP1 PUSH1 0x20 ADD DUP1 DUP4 GT PUSH2 0xD3E JUMPI DUP3 SWAP1 SUB PUSH1 0x1F AND DUP3 ADD SWAP2 JUMPDEST POP POP POP POP POP DUP2 MSTORE PUSH1 0x20 ADD SWAP1 PUSH1 0x1 ADD SWAP1 PUSH2 0xCC3 JUMP JUMPDEST POP POP POP POP DUP2 MSTORE PUSH1 0x20 ADD PUSH1 0x4 DUP3 ADD DUP1 SLOAD PUSH2 0xD87 SWAP1 PUSH2 0x1913 JUMP JUMPDEST DUP1 PUSH1 0x1F ADD PUSH1 0x20 DUP1 SWAP2 DIV MUL PUSH1 0x20 ADD PUSH1 0x40 MLOAD SWAP1 DUP2 ADD PUSH1 0x40 MSTORE DUP1 SWAP3 SWAP2 SWAP1 DUP2 DUP2 MSTORE PUSH1 0x20 ADD DUP3 DUP1 SLOAD PUSH2 0xDB3 SWAP1 PUSH2 0x1913 JUMP JUMPDEST DUP1 ISZERO PUSH2 0xE00 JUMPI DUP1 PUSH1 0x1F LT PUSH2 0xDD5 JUMPI PUSH2 0x100 DUP1 DUP4 SLOAD DIV MUL DUP4 MSTORE SWAP2 PUSH1 0x20 ADD SWAP2 PUSH2 0xE00 JUMP JUMPDEST DUP3 ADD SWAP2 SWAP1 PUSH1 0x0 MSTORE PUSH1 0x20 PUSH1 0x0 KECCAK256 SWAP1 JUMPDEST DUP2 SLOAD DUP2 MSTORE SWAP1 PUSH1 0x1 ADD SWAP1 PUSH1 0x20 ADD DUP1 DUP4 GT PUSH2 0xDE3 JUMPI DUP3 SWAP1 SUB PUSH1 0x1F AND DUP3 ADD SWAP2 JUMPDEST POP POP POP POP POP DUP2 MSTORE PUSH1 0x20 ADD PUSH1 0x5 DUP3 ADD DUP1 SLOAD PUSH2 0xE19 SWAP1 PUSH2 0x1913 JUMP JUMPDEST DUP1 PUSH1 0x1F ADD PUSH1 0x20 DUP1 SWAP2 DIV MUL PUSH1 0x20 ADD PUSH1 0x40 MLOAD SWAP1 DUP2 ADD PUSH1 0x40 MSTORE DUP1 SWAP3 SWAP2 SWAP1 DUP2 DUP2 MSTORE PUSH1 0x20 ADD DUP3 DUP1 SLOAD PUSH2 0xE45 SWAP1 PUSH2 0x1913 JUMP JUMPDEST DUP1 ISZERO PUSH2 0xE92 JUMPI DUP1 PUSH1 0x1F LT PUSH2 0xE67 JUMPI PUSH2 0x100 DUP1 DUP4 SLOAD DIV MUL DUP4 MSTORE SWAP2 PUSH1 0x20 ADD SWAP2 PUSH2 0xE92 JUMP JUMPDEST DUP3 ADD SWAP2 SWAP1 PUSH1 0x0 MSTORE PUSH1 0x20 PUSH1 0x0 KECCAK256 SWAP1 JUMPDEST DUP2 SLOAD DUP2 MSTORE SWAP1 PUSH1 0x1 ADD SWAP1 PUSH1 0x20 ADD DUP1 DUP4 GT PUSH2 0xE75 JUMPI DUP3 SWAP1 SUB PUSH1 0x1F AND DUP3 ADD SWAP2 JUMPDEST POP POP POP POP POP DUP2 MSTORE PUSH1 0x20 ADD PUSH1 0x6 DUP3 ADD SLOAD DUP2 MSTORE POP POP DUP3 DUP3 DUP2 MLOAD DUP2 LT PUSH2 0xEB7 JUMPI PUSH2 0xEB7 PUSH2 0x1A79 JUMP JUMPDEST PUSH1 0x20 SWAP1 DUP2 MUL SWAP2 SWAP1 SWAP2 ADD ADD MSTORE PUSH1 0x1 ADD PUSH2 0xB30 JUMP JUMPDEST POP SWAP3 SWAP2 POP POP JUMP JUMPDEST CALLVALUE ISZERO PUSH2 0x11E6 JUMPI PUSH1 0x0 PUSH1 0xA PUSH2 0xEE6 CALLVALUE PUSH1 0x9 PUSH2 0x1ABB JUMP JUMPDEST PUSH2 0xEF0 SWAP2 SWAP1 PUSH2 0x1AD2 JUMP JUMPDEST PUSH1 0x0 DUP1 SLOAD SWAP2 SWAP3 POP SWAP1 PUSH1 0x1 PUSH1 0x1 PUSH1 0xA0 SHL SUB AND PUSH2 0xF0B DUP4 CALLVALUE PUSH2 0x1AA8 JUMP JUMPDEST PUSH1 0x40 MLOAD PUSH1 0x0 DUP2 DUP2 DUP2 DUP6 DUP8 GAS CALL SWAP3 POP POP POP RETURNDATASIZE DUP1 PUSH1 0x0 DUP2 EQ PUSH2 0xF47 JUMPI PUSH1 0x40 MLOAD SWAP2 POP PUSH1 0x1F NOT PUSH1 0x3F RETURNDATASIZE ADD AND DUP3 ADD PUSH1 0x40 MSTORE RETURNDATASIZE DUP3 MSTORE RETURNDATASIZE PUSH1 0x0 PUSH1 0x20 DUP5 ADD RETURNDATACOPY PUSH2 0xF4C JUMP JUMPDEST PUSH1 0x60 SWAP2 POP JUMPDEST POP POP SWAP1 POP DUP1 PUSH2 0xF9D JUMPI PUSH1 0x40 MLOAD PUSH3 0x461BCD PUSH1 0xE5 SHL DUP2 MSTORE PUSH1 0x20 PUSH1 0x4 DUP3 ADD MSTORE PUSH1 0x1D PUSH1 0x24 DUP3 ADD MSTORE PUSH32 0x4661696C656420746F2073656E6420457468657220746F206F776E6572000000 PUSH1 0x44 DUP3 ADD MSTORE PUSH1 0x64 ADD PUSH2 0x2EE JUMP JUMPDEST PUSH1 0x0 DUP5 DUP2 MSTORE PUSH1 0xB PUSH1 0x20 MSTORE PUSH1 0x40 DUP2 KECCAK256 SLOAD PUSH2 0xFB7 SWAP1 PUSH1 0x1 PUSH2 0x1A8F JUMP JUMPDEST SWAP1 POP PUSH1 0x0 PUSH2 0xFC5 DUP3 DUP6 PUSH2 0x1AD2 JUMP JUMPDEST SWAP1 POP PUSH1 0x0 JUMPDEST PUSH1 0x0 DUP8 DUP2 MSTORE PUSH1 0xB PUSH1 0x20 MSTORE PUSH1 0x40 SWAP1 KECCAK256 SLOAD DUP2 LT ISZERO PUSH2 0x10F0 JUMPI PUSH1 0x0 DUP8 DUP2 MSTORE PUSH1 0xB PUSH1 0x20 MSTORE PUSH1 0x40 DUP2 KECCAK256 DUP1 SLOAD DUP4 SWAP1 DUP2 LT PUSH2 0x1000 JUMPI PUSH2 0x1000 PUSH2 0x1A79 JUMP JUMPDEST PUSH1 0x0 SWAP2 DUP3 MSTORE PUSH1 0x20 DUP1 DUP4 KECCAK256 SWAP2 SWAP1 SWAP2 ADD SLOAD DUP1 DUP4 MSTORE PUSH1 0x7 SWAP1 SWAP2 MSTORE PUSH1 0x40 DUP1 DUP4 KECCAK256 SLOAD SWAP1 MLOAD SWAP2 SWAP4 POP PUSH1 0x1 PUSH1 0x1 PUSH1 0xA0 SHL SUB AND SWAP2 SWAP1 DUP3 SWAP1 DUP7 SWAP1 DUP4 DUP2 DUP2 DUP2 DUP6 DUP8 GAS CALL SWAP3 POP POP POP RETURNDATASIZE DUP1 PUSH1 0x0 DUP2 EQ PUSH2 0x1069 JUMPI PUSH1 0x40 MLOAD SWAP2 POP PUSH1 0x1F NOT PUSH1 0x3F RETURNDATASIZE ADD AND DUP3 ADD PUSH1 0x40 MSTORE RETURNDATASIZE DUP3 MSTORE RETURNDATASIZE PUSH1 0x0 PUSH1 0x20 DUP5 ADD RETURNDATACOPY PUSH2 0x106E JUMP JUMPDEST PUSH1 0x60 SWAP2 POP JUMPDEST POP POP SWAP1 POP DUP1 PUSH2 0x10E5 JUMPI PUSH1 0x40 MLOAD PUSH3 0x461BCD PUSH1 0xE5 SHL DUP2 MSTORE PUSH1 0x20 PUSH1 0x4 DUP3 ADD MSTORE PUSH1 0x21 PUSH1 0x24 DUP3 ADD MSTORE PUSH32 0x4661696C656420746F2073656E6420457468657220746F20612063726561746F PUSH1 0x44 DUP3 ADD MSTORE PUSH32 0x7200000000000000000000000000000000000000000000000000000000000000 PUSH1 0x64 DUP3 ADD MSTORE PUSH1 0x84 ADD PUSH2 0x2EE JUMP JUMPDEST POP POP POP PUSH1 0x1 ADD PUSH2 0xFCA JUMP JUMPDEST POP PUSH1 0x0 DUP7 DUP2 MSTORE PUSH1 0x7 PUSH1 0x20 MSTORE PUSH1 0x40 DUP2 KECCAK256 SLOAD PUSH1 0x1 PUSH1 0x1 PUSH1 0xA0 SHL SUB AND PUSH2 0x1114 PUSH1 0x1 DUP6 PUSH2 0x1AA8 JUMP JUMPDEST PUSH2 0x111E SWAP1 DUP5 PUSH2 0x1ABB JUMP JUMPDEST PUSH2 0x1128 SWAP1 DUP8 PUSH2 0x1AA8 JUMP JUMPDEST PUSH1 0x40 MLOAD PUSH1 0x0 DUP2 DUP2 DUP2 DUP6 DUP8 GAS CALL SWAP3 POP POP POP RETURNDATASIZE DUP1 PUSH1 0x0 DUP2 EQ PUSH2 0x1164 JUMPI PUSH1 0x40 MLOAD SWAP2 POP PUSH1 0x1F NOT PUSH1 0x3F RETURNDATASIZE ADD AND DUP3 ADD PUSH1 0x40 MSTORE RETURNDATASIZE DUP3 MSTORE RETURNDATASIZE PUSH1 0x0 PUSH1 0x20 DUP5 ADD RETURNDATACOPY PUSH2 0x1169 JUMP JUMPDEST PUSH1 0x60 SWAP2 POP JUMPDEST POP POP SWAP1 POP DUP1 PUSH2 0x11E0 JUMPI PUSH1 0x40 MLOAD PUSH3 0x461BCD PUSH1 0xE5 SHL DUP2 MSTORE PUSH1 0x20 PUSH1 0x4 DUP3 ADD MSTORE PUSH1 0x23 PUSH1 0x24 DUP3 ADD MSTORE PUSH32 0x4661696C656420746F2073656E6420457468657220746F207468652063726561 PUSH1 0x44 DUP3 ADD MSTORE PUSH32 0x746F720000000000000000000000000000000000000000000000000000000000 PUSH1 0x64 DUP3 ADD MSTORE PUSH1 0x84 ADD PUSH2 0x2EE JUMP JUMPDEST POP POP POP POP POP JUMPDEST PUSH1 0x2 DUP1 SLOAD PUSH1 0x0 SWAP2 DUP3 PUSH2 0x11F7 DUP4 PUSH2 0x18FA JUMP JUMPDEST SWAP1 SWAP2 SSTORE POP PUSH1 0x40 DUP1 MLOAD PUSH1 0x80 DUP2 ADD DUP3 MSTORE TIMESTAMP DUP2 MSTORE CALLER PUSH1 0x20 DUP1 DUP4 ADD SWAP2 DUP3 MSTORE DUP3 DUP5 ADD DUP8 DUP2 MSTORE CALLVALUE PUSH1 0x60 DUP6 ADD MSTORE PUSH1 0x0 DUP7 DUP2 MSTORE PUSH1 0xA SWAP1 SWAP3 MSTORE SWAP4 SWAP1 KECCAK256 DUP3 MLOAD DUP2 SSTORE SWAP1 MLOAD PUSH1 0x1 DUP3 ADD DUP1 SLOAD PUSH20 0xFFFFFFFFFFFFFFFFFFFFFFFFFFFFFFFFFFFFFFFF NOT AND PUSH1 0x1 PUSH1 0x1 PUSH1 0xA0 SHL SUB SWAP1 SWAP3 AND SWAP2 SWAP1 SWAP2 OR SWAP1 SSTORE SWAP2 MLOAD SWAP3 SWAP4 POP SWAP2 PUSH1 0x2 DUP3 ADD SWAP1 PUSH2 0x1273 SWAP1 DUP3 PUSH2 0x199D JUMP JUMPDEST POP PUSH1 0x60 SWAP2 SWAP1 SWAP2 ADD MLOAD PUSH1 0x3 SWAP1 SWAP2 ADD SSTORE PUSH1 0x0 SWAP3 DUP4 MSTORE PUSH1 0x9 PUSH1 0x20 SWAP1 DUP2 MSTORE PUSH1 0x40 DUP5 KECCAK256 DUP1 SLOAD PUSH1 0x1 DUP2 ADD DUP3 SSTORE SWAP1 DUP6 MSTORE SWAP4 KECCAK256 SWAP1 SWAP3 ADD SWAP2 SWAP1 SWAP2 SSTORE POP JUMP JUMPDEST DUP3 DUP1 SLOAD DUP3 DUP3 SSTORE SWAP1 PUSH1 0x0 MSTORE PUSH1 0x20 PUSH1 0x0 KECCAK256 SWAP1 DUP2 ADD SWAP3 DUP3 ISZERO PUSH2 0x12EE JUMPI SWAP2 PUSH1 0x20 MUL DUP3 ADD JUMPDEST DUP3 DUP2 GT ISZERO PUSH2 0x12EE JUMPI DUP3 MLOAD DUP3 SWAP1 PUSH2 0x12DE SWAP1 DUP3 PUSH2 0x199D JUMP JUMPDEST POP SWAP2 PUSH1 0x20 ADD SWAP2 SWAP1 PUSH1 0x1 ADD SWAP1 PUSH2 0x12C8 JUMP JUMPDEST POP PUSH2 0x12FA SWAP3 SWAP2 POP PUSH2 0x1345 JUMP JUMPDEST POP SWAP1 JUMP JUMPDEST DUP3 DUP1 SLOAD DUP3 DUP3 SSTORE SWAP1 PUSH1 0x0 MSTORE PUSH1 0x20 PUSH1 0x0 KECCAK256 SWAP1 DUP2 ADD SWAP3 DUP3 ISZERO PUSH2 0x1339 JUMPI SWAP2 PUSH1 0x20 MUL DUP3 ADD JUMPDEST DUP3 DUP2 GT ISZERO PUSH2 0x1339 JUMPI DUP3 MLOAD DUP3 SSTORE SWAP2 PUSH1 0x20 ADD SWAP2 SWAP1 PUSH1 0x1 ADD SWAP1 PUSH2 0x131E JUMP JUMPDEST POP PUSH2 0x12FA SWAP3 SWAP2 POP PUSH2 0x1362 JUMP JUMPDEST DUP1 DUP3 GT ISZERO PUSH2 0x12FA JUMPI PUSH1 0x0 PUSH2 0x1359 DUP3 DUP3 PUSH2 0x1377 JUMP JUMPDEST POP PUSH1 0x1 ADD PUSH2 0x1345 JUMP JUMPDEST JUMPDEST DUP1 DUP3 GT ISZERO PUSH2 0x12FA JUMPI PUSH1 0x0 DUP2 SSTORE PUSH1 0x1 ADD PUSH2 0x1363 JUMP JUMPDEST POP DUP1 SLOAD PUSH2 0x1383 SWAP1 PUSH2 0x1913 JUMP JUMPDEST PUSH1 0x0 DUP3 SSTORE DUP1 PUSH1 0x1F LT PUSH2 0x1393 JUMPI POP POP JUMP JUMPDEST PUSH1 0x1F ADD PUSH1 0x20 SWAP1 DIV SWAP1 PUSH1 0x0 MSTORE PUSH1 0x20 PUSH1 0x0 KECCAK256 SWAP1 DUP2 ADD SWAP1 PUSH2 0x9B3 SWAP2 SWAP1 PUSH2 0x1362 JUMP JUMPDEST PUSH4 0x4E487B71 PUSH1 0xE0 SHL PUSH1 0x0 MSTORE PUSH1 0x41 PUSH1 0x4 MSTORE PUSH1 0x24 PUSH1 0x0 REVERT JUMPDEST PUSH1 0x40 MLOAD PUSH1 0x1F DUP3 ADD PUSH1 0x1F NOT AND DUP2 ADD PUSH8 0xFFFFFFFFFFFFFFFF DUP2 GT DUP3 DUP3 LT OR ISZERO PUSH2 0x13F0 JUMPI PUSH2 0x13F0 PUSH2 0x13B1 JUMP JUMPDEST PUSH1 0x40 MSTORE SWAP2 SWAP1 POP JUMP JUMPDEST PUSH1 0x0 DUP3 PUSH1 0x1F DUP4 ADD SLT PUSH2 0x1409 JUMPI PUSH1 0x0 DUP1 REVERT JUMPDEST DUP2 CALLDATALOAD PUSH8 0xFFFFFFFFFFFFFFFF DUP2 GT ISZERO PUSH2 0x1423 JUMPI PUSH2 0x1423 PUSH2 0x13B1 JUMP JUMPDEST PUSH2 0x1436 PUSH1 0x1F DUP3 ADD PUSH1 0x1F NOT AND PUSH1 0x20 ADD PUSH2 0x13C7 JUMP JUMPDEST DUP2 DUP2 MSTORE DUP5 PUSH1 0x20 DUP4 DUP7 ADD ADD GT ISZERO PUSH2 0x144B JUMPI PUSH1 0x0 DUP1 REVERT JUMPDEST DUP2 PUSH1 0x20 DUP6 ADD PUSH1 0x20 DUP4 ADD CALLDATACOPY PUSH1 0x0 SWAP2 DUP2 ADD PUSH1 0x20 ADD SWAP2 SWAP1 SWAP2 MSTORE SWAP4 SWAP3 POP POP POP JUMP JUMPDEST PUSH1 0x0 PUSH8 0xFFFFFFFFFFFFFFFF DUP3 GT ISZERO PUSH2 0x1482 JUMPI PUSH2 0x1482 PUSH2 0x13B1 JUMP JUMPDEST POP PUSH1 0x5 SHL PUSH1 0x20 ADD SWAP1 JUMP JUMPDEST PUSH1 0x0 DUP3 PUSH1 0x1F DUP4 ADD SLT PUSH2 0x149D JUMPI PUSH1 0x0 DUP1 REVERT JUMPDEST DUP2 CALLDATALOAD PUSH1 0x20 PUSH2 0x14B2 PUSH2 0x14AD DUP4 PUSH2 0x1468 JUMP JUMPDEST PUSH2 0x13C7 JUMP JUMPDEST DUP3 DUP2 MSTORE PUSH1 0x5 SWAP3 SWAP1 SWAP3 SHL DUP5 ADD DUP2 ADD SWAP2 DUP2 DUP2 ADD SWAP1 DUP7 DUP5 GT ISZERO PUSH2 0x14D1 JUMPI PUSH1 0x0 DUP1 REVERT JUMPDEST DUP3 DUP7 ADD JUMPDEST DUP5 DUP2 LT ISZERO PUSH2 0x1511 JUMPI DUP1 CALLDATALOAD PUSH8 0xFFFFFFFFFFFFFFFF DUP2 GT ISZERO PUSH2 0x14F5 JUMPI PUSH1 0x0 DUP1 DUP2 REVERT JUMPDEST PUSH2 0x1503 DUP10 DUP7 DUP4 DUP12 ADD ADD PUSH2 0x13F8 JUMP JUMPDEST DUP5 MSTORE POP SWAP2 DUP4 ADD SWAP2 DUP4 ADD PUSH2 0x14D5 JUMP JUMPDEST POP SWAP7 SWAP6 POP POP POP POP POP POP JUMP JUMPDEST PUSH1 0x0 DUP1 PUSH1 0x0 DUP1 PUSH1 0x0 DUP1 PUSH1 0xC0 DUP8 DUP10 SUB SLT ISZERO PUSH2 0x1535 JUMPI PUSH1 0x0 DUP1 REVERT JUMPDEST DUP7 CALLDATALOAD PUSH8 0xFFFFFFFFFFFFFFFF DUP1 DUP3 GT ISZERO PUSH2 0x154D JUMPI PUSH1 0x0 DUP1 REVERT JUMPDEST PUSH2 0x1559 DUP11 DUP4 DUP12 ADD PUSH2 0x13F8 JUMP JUMPDEST SWAP8 POP PUSH1 0x20 DUP10 ADD CALLDATALOAD SWAP2 POP DUP1 DUP3 GT ISZERO PUSH2 0x156F JUMPI PUSH1 0x0 DUP1 REVERT JUMPDEST PUSH2 0x157B DUP11 DUP4 DUP12 ADD PUSH2 0x13F8 JUMP JUMPDEST SWAP7 POP PUSH1 0x40 DUP10 ADD CALLDATALOAD SWAP2 POP DUP1 DUP3 GT ISZERO PUSH2 0x1591 JUMPI PUSH1 0x0 DUP1 REVERT JUMPDEST PUSH2 0x159D DUP11 DUP4 DUP12 ADD PUSH2 0x13F8 JUMP JUMPDEST SWAP6 POP PUSH1 0x60 DUP10 ADD CALLDATALOAD SWAP2 POP DUP1 DUP3 GT ISZERO PUSH2 0x15B3 JUMPI PUSH1 0x0 DUP1 REVERT JUMPDEST PUSH2 0x15BF DUP11 DUP4 DUP12 ADD PUSH2 0x13F8 JUMP JUMPDEST SWAP5 POP PUSH1 0x80 DUP10 ADD CALLDATALOAD SWAP4 POP PUSH1 0xA0 DUP10 ADD CALLDATALOAD SWAP2 POP DUP1 DUP3 GT ISZERO PUSH2 0x15DC JUMPI PUSH1 0x0 DUP1 REVERT JUMPDEST POP PUSH2 0x15E9 DUP10 DUP3 DUP11 ADD PUSH2 0x148C JUMP JUMPDEST SWAP2 POP POP SWAP3 SWAP6 POP SWAP3 SWAP6 POP SWAP3 SWAP6 JUMP JUMPDEST PUSH1 0x0 DUP1 PUSH1 0x40 DUP4 DUP6 SUB SLT ISZERO PUSH2 0x1609 JUMPI PUSH1 0x0 DUP1 REVERT JUMPDEST DUP3 CALLDATALOAD SWAP2 POP PUSH1 0x20 DUP1 DUP5 ADD CALLDATALOAD PUSH8 0xFFFFFFFFFFFFFFFF DUP2 GT ISZERO PUSH2 0x1628 JUMPI PUSH1 0x0 DUP1 REVERT JUMPDEST DUP5 ADD PUSH1 0x1F DUP2 ADD DUP7 SGT PUSH2 0x1639 JUMPI PUSH1 0x0 DUP1 REVERT JUMPDEST DUP1 CALLDATALOAD PUSH2 0x1647 PUSH2 0x14AD DUP3 PUSH2 0x1468 JUMP JUMPDEST DUP2 DUP2 MSTORE PUSH1 0x5 SWAP2 SWAP1 SWAP2 SHL DUP3 ADD DUP4 ADD SWAP1 DUP4 DUP2 ADD SWAP1 DUP9 DUP4 GT ISZERO PUSH2 0x1666 JUMPI PUSH1 0x0 DUP1 REVERT JUMPDEST SWAP3 DUP5 ADD SWAP3 JUMPDEST DUP3 DUP5 LT ISZERO PUSH2 0x1684 JUMPI DUP4 CALLDATALOAD DUP3 MSTORE SWAP3 DUP5 ADD SWAP3 SWAP1 DUP5 ADD SWAP1 PUSH2 0x166B JUMP JUMPDEST DUP1 SWAP6 POP POP POP POP POP POP SWAP3 POP SWAP3 SWAP1 POP JUMP JUMPDEST PUSH1 0x0 PUSH1 0x20 DUP3 DUP5 SUB SLT ISZERO PUSH2 0x16A5 JUMPI PUSH1 0x0 DUP1 REVERT JUMPDEST DUP2 CALLDATALOAD PUSH8 0xFFFFFFFFFFFFFFFF DUP2 GT ISZERO PUSH2 0x16BC JUMPI PUSH1 0x0 DUP1 REVERT JUMPDEST PUSH2 0x16C8 DUP5 DUP3 DUP6 ADD PUSH2 0x13F8 JUMP JUMPDEST SWAP5 SWAP4 POP POP POP POP JUMP JUMPDEST PUSH1 0x0 JUMPDEST DUP4 DUP2 LT ISZERO PUSH2 0x16EB JUMPI DUP2 DUP2 ADD MLOAD DUP4 DUP3 ADD MSTORE PUSH1 0x20 ADD PUSH2 0x16D3 JUMP JUMPDEST POP POP PUSH1 0x0 SWAP2 ADD MSTORE JUMP JUMPDEST PUSH1 0x0 DUP2 MLOAD DUP1 DUP5 MSTORE PUSH2 0x170C DUP2 PUSH1 0x20 DUP7 ADD PUSH1 0x20 DUP7 ADD PUSH2 0x16D0 JUMP JUMPDEST PUSH1 0x1F ADD PUSH1 0x1F NOT AND SWAP3 SWAP1 SWAP3 ADD PUSH1 0x20 ADD SWAP3 SWAP2 POP POP JUMP JUMPDEST PUSH1 0x20 DUP1 DUP3 MSTORE DUP3 MLOAD DUP3 DUP3 ADD DUP2 SWAP1 MSTORE PUSH1 0x0 SWAP2 SWAP1 PUSH1 0x40 SWAP1 DUP2 DUP6 ADD SWAP1 PUSH1 0x5 DUP2 DUP2 SHL DUP8 ADD DUP5 ADD DUP9 DUP7 ADD DUP8 DUP1 JUMPDEST DUP6 DUP2 LT ISZERO PUSH2 0x1844 JUMPI PUSH1 0x3F NOT DUP12 DUP6 SUB ADD DUP8 MSTORE DUP3 MLOAD PUSH1 0xE0 DUP2 MLOAD DUP7 MSTORE DUP11 DUP3 ADD MLOAD DUP2 DUP13 DUP9 ADD MSTORE PUSH2 0x1775 DUP3 DUP9 ADD DUP3 PUSH2 0x16F4 JUMP JUMPDEST SWAP2 POP POP DUP10 DUP3 ADD MLOAD DUP7 DUP3 SUB DUP12 DUP9 ADD MSTORE PUSH2 0x178D DUP3 DUP3 PUSH2 0x16F4 JUMP JUMPDEST PUSH1 0x60 DUP5 DUP2 ADD MLOAD DUP10 DUP4 SUB SWAP2 DUP11 ADD SWAP2 SWAP1 SWAP2 MSTORE DUP1 MLOAD DUP1 DUP4 MSTORE SWAP2 SWAP4 POP DUP14 DUP5 ADD SWAP3 POP DUP14 ADD SWAP1 DUP1 DUP11 SHL DUP5 ADD DUP15 ADD DUP8 JUMPDEST DUP3 DUP2 LT ISZERO PUSH2 0x17E9 JUMPI PUSH1 0x1F NOT DUP7 DUP4 SUB ADD DUP6 MSTORE PUSH2 0x17D2 DUP3 DUP6 MLOAD PUSH2 0x16F4 JUMP JUMPDEST SWAP2 POP DUP16 DUP5 ADD SWAP4 POP DUP16 DUP6 ADD SWAP5 POP PUSH1 0x1 DUP2 ADD SWAP1 POP PUSH2 0x17B6 JUMP JUMPDEST POP PUSH1 0x80 SWAP5 POP DUP5 DUP7 ADD MLOAD SWAP4 POP DUP10 DUP2 SUB DUP6 DUP12 ADD MSTORE PUSH2 0x1805 DUP2 DUP6 PUSH2 0x16F4 JUMP JUMPDEST SWAP5 POP POP POP POP POP PUSH1 0xA0 DUP1 DUP4 ADD MLOAD DUP8 DUP4 SUB DUP3 DUP10 ADD MSTORE PUSH2 0x1822 DUP4 DUP3 PUSH2 0x16F4 JUMP JUMPDEST PUSH1 0xC0 SWAP5 DUP6 ADD MLOAD SWAP9 SWAP1 SWAP5 ADD SWAP8 SWAP1 SWAP8 MSTORE POP POP SWAP7 DUP10 ADD SWAP7 SWAP4 POP SWAP2 DUP9 ADD SWAP2 PUSH1 0x1 ADD PUSH2 0x1747 JUMP JUMPDEST POP SWAP2 SWAP11 SWAP10 POP POP POP POP POP POP POP POP POP POP JUMP JUMPDEST PUSH1 0x0 PUSH1 0x20 DUP3 DUP5 SUB SLT ISZERO PUSH2 0x1866 JUMPI PUSH1 0x0 DUP1 REVERT JUMPDEST DUP2 CALLDATALOAD PUSH1 0x1 PUSH1 0x1 PUSH1 0xA0 SHL SUB DUP2 AND DUP2 EQ PUSH2 0x187D JUMPI PUSH1 0x0 DUP1 REVERT JUMPDEST SWAP4 SWAP3 POP POP POP JUMP JUMPDEST PUSH1 0x0 PUSH1 0x20 DUP3 DUP5 SUB SLT ISZERO PUSH2 0x1896 JUMPI PUSH1 0x0 DUP1 REVERT JUMPDEST POP CALLDATALOAD SWAP2 SWAP1 POP JUMP JUMPDEST PUSH1 0x0 DUP1 PUSH1 0x40 DUP4 DUP6 SUB SLT ISZERO PUSH2 0x18B0 JUMPI PUSH1 0x0 DUP1 REVERT JUMPDEST DUP3 CALLDATALOAD SWAP2 POP PUSH1 0x20 DUP4 ADD CALLDATALOAD PUSH8 0xFFFFFFFFFFFFFFFF DUP2 GT ISZERO PUSH2 0x18CE JUMPI PUSH1 0x0 DUP1 REVERT JUMPDEST PUSH2 0x18DA DUP6 DUP3 DUP7 ADD PUSH2 0x13F8 JUMP JUMPDEST SWAP2 POP POP SWAP3 POP SWAP3 SWAP1 POP JUMP JUMPDEST PUSH4 0x4E487B71 PUSH1 0xE0 SHL PUSH1 0x0 MSTORE PUSH1 0x11 PUSH1 0x4 MSTORE PUSH1 0x24 PUSH1 0x0 REVERT JUMPDEST PUSH1 0x0 PUSH1 0x1 DUP3 ADD PUSH2 0x190C JUMPI PUSH2 0x190C PUSH2 0x18E4 JUMP JUMPDEST POP PUSH1 0x1 ADD SWAP1 JUMP JUMPDEST PUSH1 0x1 DUP2 DUP2 SHR SWAP1 DUP3 AND DUP1 PUSH2 0x1927 JUMPI PUSH1 0x7F DUP3 AND SWAP2 POP JUMPDEST PUSH1 0x20 DUP3 LT DUP2 SUB PUSH2 0x1947 JUMPI PUSH4 0x4E487B71 PUSH1 0xE0 SHL PUSH1 0x0 MSTORE PUSH1 0x22 PUSH1 0x4 MSTORE PUSH1 0x24 PUSH1 0x0 REVERT JUMPDEST POP SWAP2 SWAP1 POP JUMP JUMPDEST PUSH1 0x1F DUP3 GT ISZERO PUSH2 0x316 JUMPI PUSH1 0x0 DUP2 PUSH1 0x0 MSTORE PUSH1 0x20 PUSH1 0x0 KECCAK256 PUSH1 0x1F DUP6 ADD PUSH1 0x5 SHR DUP2 ADD PUSH1 0x20 DUP7 LT ISZERO PUSH2 0x1976 JUMPI POP DUP1 JUMPDEST PUSH1 0x1F DUP6 ADD PUSH1 0x5 SHR DUP3 ADD SWAP2 POP JUMPDEST DUP2 DUP2 LT ISZERO PUSH2 0x1995 JUMPI DUP3 DUP2 SSTORE PUSH1 0x1 ADD PUSH2 0x1982 JUMP JUMPDEST POP POP POP POP POP POP JUMP JUMPDEST DUP2 MLOAD PUSH8 0xFFFFFFFFFFFFFFFF DUP2 GT ISZERO PUSH2 0x19B7 JUMPI PUSH2 0x19B7 PUSH2 0x13B1 JUMP JUMPDEST PUSH2 0x19CB DUP2 PUSH2 0x19C5 DUP5 SLOAD PUSH2 0x1913 JUMP JUMPDEST DUP5 PUSH2 0x194D JUMP JUMPDEST PUSH1 0x20 DUP1 PUSH1 0x1F DUP4 GT PUSH1 0x1 DUP2 EQ PUSH2 0x1A00 JUMPI PUSH1 0x0 DUP5 ISZERO PUSH2 0x19E8 JUMPI POP DUP6 DUP4 ADD MLOAD JUMPDEST PUSH1 0x0 NOT PUSH1 0x3 DUP7 SWAP1 SHL SHR NOT AND PUSH1 0x1 DUP6 SWAP1 SHL OR DUP6 SSTORE PUSH2 0x1995 JUMP JUMPDEST PUSH1 0x0 DUP6 DUP2 MSTORE PUSH1 0x20 DUP2 KECCAK256 PUSH1 0x1F NOT DUP7 AND SWAP2 JUMPDEST DUP3 DUP2 LT ISZERO PUSH2 0x1A2F JUMPI DUP9 DUP7 ADD MLOAD DUP3 SSTORE SWAP5 DUP5 ADD SWAP5 PUSH1 0x1 SWAP1 SWAP2 ADD SWAP1 DUP5 ADD PUSH2 0x1A10 JUMP JUMPDEST POP DUP6 DUP3 LT ISZERO PUSH2 0x1A4D JUMPI DUP8 DUP6 ADD MLOAD PUSH1 0x0 NOT PUSH1 0x3 DUP9 SWAP1 SHL PUSH1 0xF8 AND SHR NOT AND DUP2 SSTORE JUMPDEST POP POP POP POP POP PUSH1 0x1 SWAP1 DUP2 SHL ADD SWAP1 SSTORE POP JUMP JUMPDEST PUSH1 0x0 DUP3 MLOAD PUSH2 0x1A6F DUP2 DUP5 PUSH1 0x20 DUP8 ADD PUSH2 0x16D0 JUMP JUMPDEST SWAP2 SWAP1 SWAP2 ADD SWAP3 SWAP2 POP POP JUMP JUMPDEST PUSH4 0x4E487B71 PUSH1 0xE0 SHL PUSH1 0x0 MSTORE PUSH1 0x32 PUSH1 0x4 MSTORE PUSH1 0x24 PUSH1 0x0 REVERT JUMPDEST DUP1 DUP3 ADD DUP1 DUP3 GT ISZERO PUSH2 0x1AA2 JUMPI PUSH2 0x1AA2 PUSH2 0x18E4 JUMP JUMPDEST SWAP3 SWAP2 POP POP JUMP JUMPDEST DUP2 DUP2 SUB DUP2 DUP2 GT ISZERO PUSH2 0x1AA2 JUMPI PUSH2 0x1AA2 PUSH2 0x18E4 JUMP JUMPDEST DUP1 DUP3 MUL DUP2 ISZERO DUP3 DUP3 DIV DUP5 EQ OR PUSH2 0x1AA2 JUMPI PUSH2 0x1AA2 PUSH2 0x18E4 JUMP JUMPDEST PUSH1 0x0 DUP3 PUSH2 0x1AEF JUMPI PUSH4 0x4E487B71 PUSH1 0xE0 SHL PUSH1 0x0 MSTORE PUSH1 0x12 PUSH1 0x4 MSTORE PUSH1 0x24 PUSH1 0x0 REVERT JUMPDEST POP DIV SWAP1 JUMP INVALID LOG2 PUSH5 0x6970667358 0x22 SLT KECCAK256 MOD CALLDATACOPY 0xCD PUSH14 0x5F2094925D4BAA7BA42D16CCBF9E 0xB9 DUP10 0xB5 STOP BLOCKHASH DUP13 SWAP9 SGT DIV 0xB8 0xC0 OR 0x2B MOD PUSH5 0x736F6C6343 STOP ADDMOD AND STOP CALLER "
        },
        "methodIdentifiers": {
          "addAdmin(address)": "70480275",
          "addComment(uint256,string)": "aa7e5683",
          "addVideo(string,string,string,string,uint256,string[])": "210e07df",
          "getLatestVideos(uint256)": "8799bd74",
          "getVideoByNearID(string)": "5eaecd12",
          "setAttributions(uint256,uint256[])": "38abafa0",
          "setNearID(string)": "60c736cd"
        }
      }
    }
  }
}