{
  "contracts/Atomic.sol": {
    "Atomic": {
      "abi": [
        {
          "inputs": [
            {
              "internalType": "uint256",
              "name": "initial",
              "type": "uint256"
            }
          ],
          "stateMutability": "payable",
          "type": "constructor"
        },
        {
          "inputs": [],
          "name": "addCount",
          "outputs": [],
          "stateMutability": "nonpayable",
          "type": "function"
        },
        {
          "inputs": [],
          "name": "getCount",
          "outputs": [
            {
              "internalType": "uint256",
              "name": "",
              "type": "uint256"
            }
          ],
          "stateMutability": "view",
          "type": "function"
        }
      ],
      "evm": {
        "bytecode": {
          "linkReferences": {},
          "object": "608060405260006001556040516101d03803806101d083398101604081905261002791610041565b600080546001600160a01b0319163317905560015561005a565b60006020828403121561005357600080fd5b5051919050565b610167806100696000396000f3fe608060405234801561001057600080fd5b50600436106100365760003560e01c80636cefce6e1461003b578063a87d942c14610045575b600080fd5b61004361005a565b005b60015460405190815260200160405180910390f35b60005473ffffffffffffffffffffffffffffffffffffffff1633146100df576040517f08c379a000000000000000000000000000000000000000000000000000000000815260206004820152600d60248201527f4163636573732044656e69656400000000000000000000000000000000000000604482015260640160405180910390fd5b600180546100ec916100f1565b600155565b8082018082111561012b577f4e487b7100000000000000000000000000000000000000000000000000000000600052601160045260246000fd5b9291505056fea2646970667358221220a9b19b00ac9d567019ebe46080e8923ebffe1b79bf121c0c526a48e91bf3d95264736f6c63430008130033",
          "opcodes": "PUSH1 0x80 PUSH1 0x40 MSTORE PUSH1 0x0 PUSH1 0x1 SSTORE PUSH1 0x40 MLOAD PUSH2 0x1D0 CODESIZE SUB DUP1 PUSH2 0x1D0 DUP4 CODECOPY DUP2 ADD PUSH1 0x40 DUP2 SWAP1 MSTORE PUSH2 0x27 SWAP2 PUSH2 0x41 JUMP JUMPDEST PUSH1 0x0 DUP1 SLOAD PUSH1 0x1 PUSH1 0x1 PUSH1 0xA0 SHL SUB NOT AND CALLER OR SWAP1 SSTORE PUSH1 0x1 SSTORE PUSH2 0x5A JUMP JUMPDEST PUSH1 0x0 PUSH1 0x20 DUP3 DUP5 SUB SLT ISZERO PUSH2 0x53 JUMPI PUSH1 0x0 DUP1 REVERT JUMPDEST POP MLOAD SWAP2 SWAP1 POP JUMP JUMPDEST PUSH2 0x167 DUP1 PUSH2 0x69 PUSH1 0x0 CODECOPY PUSH1 0x0 RETURN INVALID PUSH1 0x80 PUSH1 0x40 MSTORE CALLVALUE DUP1 ISZERO PUSH2 0x10 JUMPI PUSH1 0x0 DUP1 REVERT JUMPDEST POP PUSH1 0x4 CALLDATASIZE LT PUSH2 0x36 JUMPI PUSH1 0x0 CALLDATALOAD PUSH1 0xE0 SHR DUP1 PUSH4 0x6CEFCE6E EQ PUSH2 0x3B JUMPI DUP1 PUSH4 0xA87D942C EQ PUSH2 0x45 JUMPI JUMPDEST PUSH1 0x0 DUP1 REVERT JUMPDEST PUSH2 0x43 PUSH2 0x5A JUMP JUMPDEST STOP JUMPDEST PUSH1 0x1 SLOAD PUSH1 0x40 MLOAD SWAP1 DUP2 MSTORE PUSH1 0x20 ADD PUSH1 0x40 MLOAD DUP1 SWAP2 SUB SWAP1 RETURN JUMPDEST PUSH1 0x0 SLOAD PUSH20 0xFFFFFFFFFFFFFFFFFFFFFFFFFFFFFFFFFFFFFFFF AND CALLER EQ PUSH2 0xDF JUMPI PUSH1 0x40 MLOAD PUSH32 0x8C379A000000000000000000000000000000000000000000000000000000000 DUP2 MSTORE PUSH1 0x20 PUSH1 0x4 DUP3 ADD MSTORE PUSH1 0xD PUSH1 0x24 DUP3 ADD MSTORE PUSH32 0x4163636573732044656E69656400000000000000000000000000000000000000 PUSH1 0x44 DUP3 ADD MSTORE PUSH1 0x64 ADD PUSH1 0x40 MLOAD DUP1 SWAP2 SUB SWAP1 REVERT JUMPDEST PUSH1 0x1 DUP1 SLOAD PUSH2 0xEC SWAP2 PUSH2 0xF1 JUMP JUMPDEST PUSH1 0x1 SSTORE JUMP JUMPDEST DUP1 DUP3 ADD DUP1 DUP3 GT ISZERO PUSH2 0x12B JUMPI PUSH32 0x4E487B7100000000000000000000000000000000000000000000000000000000 PUSH1 0x0 MSTORE PUSH1 0x11 PUSH1 0x4 MSTORE PUSH1 0x24 PUSH1 0x0 REVERT JUMPDEST SWAP3 SWAP2 POP POP JUMP INVALID LOG2 PUSH5 0x6970667358 0x22 SLT KECCAK256 0xA9 0xB1 SWAP12 STOP 0xAC SWAP14 JUMP PUSH17 0x19EBE46080E8923EBFFE1B79BF121C0C52 PUSH11 0x48E91BF3D95264736F6C63 NUMBER STOP ADDMOD SGT STOP CALLER "
        },
        "methodIdentifiers": {
          "addCount()": "6cefce6e",
          "getCount()": "a87d942c"
        }
      }
    }
  }
}