{
  "contracts/Atomic.sol": {
    "Atomic": {
      "abi": [
        {
          "inputs": [],
          "stateMutability": "nonpayable",
          "type": "constructor"
        },
        {
          "inputs": [
            {
              "internalType": "address",
              "name": "account",
              "type": "address"
            }
          ],
          "name": "addAdmin",
          "outputs": [],
          "stateMutability": "nonpayable",
          "type": "function"
        },
        {
          "inputs": [
            {
              "internalType": "uint64",
              "name": "video_id",
              "type": "uint64"
            },
            {
              "internalType": "string",
              "name": "comment_message",
              "type": "string"
            }
          ],
          "name": "addComment",
          "outputs": [],
          "stateMutability": "payable",
          "type": "function"
        },
        {
          "inputs": [
            {
              "internalType": "string",
              "name": "_title",
              "type": "string"
            },
            {
              "internalType": "string",
              "name": "_description",
              "type": "string"
            },
            {
              "internalType": "string",
              "name": "_url",
              "type": "string"
            },
            {
              "internalType": "string",
              "name": "_thumb_url",
              "type": "string"
            },
            {
              "internalType": "uint64",
              "name": "_duration",
              "type": "uint64"
            },
            {
              "internalType": "string[]",
              "name": "_keywords",
              "type": "string[]"
            }
          ],
          "name": "addVideo",
          "outputs": [],
          "stateMutability": "nonpayable",
          "type": "function"
        },
        {
          "inputs": [
            {
              "internalType": "string",
              "name": "_near_id",
              "type": "string"
            }
          ],
          "name": "getVideoByNearID",
          "outputs": [
            {
              "components": [
                {
                  "internalType": "uint256",
                  "name": "timestamp",
                  "type": "uint256"
                },
                {
                  "internalType": "string",
                  "name": "title",
                  "type": "string"
                },
                {
                  "internalType": "string",
                  "name": "description",
                  "type": "string"
                },
                {
                  "internalType": "string[]",
                  "name": "keywords",
                  "type": "string[]"
                },
                {
                  "internalType": "string",
                  "name": "url",
                  "type": "string"
                },
                {
                  "internalType": "string",
                  "name": "thumb_url",
                  "type": "string"
                },
                {
                  "internalType": "uint64",
                  "name": "duration",
                  "type": "uint64"
                }
              ],
              "internalType": "struct Atomic.Video[]",
              "name": "",
              "type": "tuple[]"
            }
          ],
          "stateMutability": "view",
          "type": "function"
        },
        {
          "inputs": [
            {
              "internalType": "uint64",
              "name": "video_id",
              "type": "uint64"
            },
            {
              "internalType": "uint64[]",
              "name": "attributions",
              "type": "uint64[]"
            }
          ],
          "name": "setAttributions",
          "outputs": [],
          "stateMutability": "nonpayable",
          "type": "function"
        },
        {
          "inputs": [
            {
              "internalType": "string",
              "name": "_near_id",
              "type": "string"
            }
          ],
          "name": "setNearID",
          "outputs": [],
          "stateMutability": "nonpayable",
          "type": "function"
        }
      ],
      "evm": {
        "bytecode": {
          "linkReferences": {},
          "object": "608060405234801561001057600080fd5b50600080546001600160a01b0319163317905561191b806100326000396000f3fe6080604052600436106100655760003560e01c8063704802751161004357806370480275146100e2578063917b3d6914610102578063f239ebd81461011557600080fd5b80635eaecd121461006a57806360c736cd146100a05780636ac307cf146100c2575b600080fd5b34801561007657600080fd5b5061008a6100853660046111ff565b610135565b604051610097919061128c565b60405180910390f35b3480156100ac57600080fd5b506100c06100bb3660046111ff565b61073d565b005b3480156100ce57600080fd5b506100c06100dd3660046114a4565b610809565b3480156100ee57600080fd5b506100c06100fd366004611585565b6109dd565b6100c06101103660046115b5565b610ab6565b34801561012157600080fd5b506100c0610130366004611603565b610f2f565b60606000805b60038460405161014b91906116ae565b908152604051908190036020019020548110156101ce576005600060038660405161017691906116ae565b90815260200160405180910390208381548110610195576101956116ca565b60009182526020808320909101546001600160a01b031683528201929092526040019020546101c490836116f6565b915060010161013b565b5060008167ffffffffffffffff8111156101ea576101ea611148565b60405190808252806020026020018201604052801561026557816020015b6102526040518060e00160405280600081526020016060815260200160608152602001606081526020016060815260200160608152602001600067ffffffffffffffff1681525090565b8152602001906001900390816102085790505b5090506000805b60038660405161027c91906116ae565b908152604051908190036020019020548110156107335760005b600560006003896040516102aa91906116ae565b908152602001604051809103902084815481106102c9576102c96116ca565b60009182526020808320909101546001600160a01b0316835282019290925260400190205481101561072a57600760006005600060038b60405161030d91906116ae565b9081526020016040518091039020868154811061032c5761032c6116ca565b60009182526020808320909101546001600160a01b031683528201929092526040019020805484908110610362576103626116ca565b90600052602060002090600491828204019190066008029054906101000a900467ffffffffffffffff1667ffffffffffffffff1667ffffffffffffffff1681526020019081526020016000206040518060e0016040529081600082015481526020016001820180546103d39061170f565b80601f01602080910402602001604051908101604052809291908181526020018280546103ff9061170f565b801561044c5780601f106104215761010080835404028352916020019161044c565b820191906000526020600020905b81548152906001019060200180831161042f57829003601f168201915b505050505081526020016002820180546104659061170f565b80601f01602080910402602001604051908101604052809291908181526020018280546104919061170f565b80156104de5780601f106104b3576101008083540402835291602001916104de565b820191906000526020600020905b8154815290600101906020018083116104c157829003601f168201915b5050505050815260200160038201805480602002602001604051908101604052809291908181526020016000905b828210156105b857838290600052602060002001805461052b9061170f565b80601f01602080910402602001604051908101604052809291908181526020018280546105579061170f565b80156105a45780601f10610579576101008083540402835291602001916105a4565b820191906000526020600020905b81548152906001019060200180831161058757829003601f168201915b50505050508152602001906001019061050c565b5050505081526020016004820180546105d09061170f565b80601f01602080910402602001604051908101604052809291908181526020018280546105fc9061170f565b80156106495780601f1061061e57610100808354040283529160200191610649565b820191906000526020600020905b81548152906001019060200180831161062c57829003601f168201915b505050505081526020016005820180546106629061170f565b80601f016020809104026020016040519081016040528092919081815260200182805461068e9061170f565b80156106db5780601f106106b0576101008083540402835291602001916106db565b820191906000526020600020905b8154815290600101906020018083116106be57829003601f168201915b50505091835250506006919091015467ffffffffffffffff16602090910152848461070581611749565b955081518110610717576107176116ca565b6020908102919091010152600101610296565b5060010161026c565b5090949350505050565b33600090815260026020526040902061075682826117b2565b5060048160405161076791906116ae565b9081526040805160209281900383019020336000908152925281205490036108065760038160405161079991906116ae565b908152604051908190036020908101822080546001818101835560009283529290912001805473ffffffffffffffffffffffffffffffffffffffff191633179055906004906107e99084906116ae565b908152604080516020928190038301902033600090815292529020555b50565b6000805474010000000000000000000000000000000000000000900467ffffffffffffffff1681601461083b83611872565b91906101000a81548167ffffffffffffffff021916908367ffffffffffffffff16021790555090506040518060e001604052804281526020018881526020018781526020018381526020018681526020018581526020018467ffffffffffffffff16815250600760008367ffffffffffffffff1667ffffffffffffffff1681526020019081526020016000206000820151816000015560208201518160010190816108e691906117b2565b50604082015160028201906108fb90826117b2565b5060608201518051610917916003840191602090910190610fcf565b506080820151600482019061092c90826117b2565b5060a0820151600582019061094190826117b2565b5060c091909101516006918201805467ffffffffffffffff191667ffffffffffffffff92831617905591821660008181526020928352604080822080543373ffffffffffffffffffffffffffffffffffffffff199091168117909155825260058452812080546001810182559082529290206004830401805460039093166008026101000a938402199092169202919091179055505050505050565b6000546001600160a01b03163314610a3c5760405162461bcd60e51b815260206004820152600d60248201527f4163636573732044656e6965640000000000000000000000000000000000000060448201526064015b60405180910390fd5b6040517f61646d696e0000000000000000000000000000000000000000000000000000008152600b90600501908152604051602091819003820190208054600181018255600091825291902001805473ffffffffffffffffffffffffffffffffffffffff19166001600160a01b0392909216919091179055565b3415610e16576000600a610acb346009611899565b610ad591906118b0565b60008054919250906001600160a01b0316610af083346118d2565b604051600081818185875af1925050503d8060008114610b2c576040519150601f19603f3d011682016040523d82523d6000602084013e610b31565b606091505b5050905080610b825760405162461bcd60e51b815260206004820152601d60248201527f4661696c656420746f2073656e6420457468657220746f206f776e65720000006044820152606401610a33565b67ffffffffffffffff84166000908152600a6020526040812054610ba79060016116f6565b90506000610bb582856118b0565b905060005b67ffffffffffffffff87166000908152600a6020526040902054811015610d155767ffffffffffffffff87166000908152600a60205260408120805483908110610c0657610c066116ca565b6000918252602080832060048304015460039092166008026101000a90910467ffffffffffffffff16808352600690915260408083205490519193506001600160a01b031691908290869060006040518083038185875af1925050503d8060008114610c8e576040519150601f19603f3d011682016040523d82523d6000602084013e610c93565b606091505b5050905080610d0a5760405162461bcd60e51b815260206004820152602160248201527f4661696c656420746f2073656e6420457468657220746f20612063726561746f60448201527f72000000000000000000000000000000000000000000000000000000000000006064820152608401610a33565b505050600101610bba565b5067ffffffffffffffff86166000908152600660205260408120546001600160a01b0316610d446001856118d2565b610d4e9084611899565b610d5890876118d2565b604051600081818185875af1925050503d8060008114610d94576040519150601f19603f3d011682016040523d82523d6000602084013e610d99565b606091505b5050905080610e105760405162461bcd60e51b815260206004820152602360248201527f4661696c656420746f2073656e6420457468657220746f20746865206372656160448201527f746f7200000000000000000000000000000000000000000000000000000000006064820152608401610a33565b50505050505b6001805460009167ffffffffffffffff9091169082610e3483611872565b82546101009290920a67ffffffffffffffff81810219909316918316021790915560408051608081018252428152336020808301918252828401888152346060850152948616600090815260099091529290922081518155915160018301805473ffffffffffffffffffffffffffffffffffffffff19166001600160a01b03909216919091179055915192935090916002820190610ed290826117b2565b506060919091015160039182015567ffffffffffffffff93841660009081526008602081815260408320805460018101825590845292206004830401805494871692909316026101000a9081029402199091169290921790915550565b67ffffffffffffffff82166000908152600660205260409020546001600160a01b03163314610fa05760405162461bcd60e51b815260206004820152601960248201527f596f7520646f206e6f74206f776e2074686520766964656f2e000000000000006044820152606401610a33565b67ffffffffffffffff82166000908152600a602090815260409091208251610fca92840190611025565b505050565b828054828255906000526020600020908101928215611015579160200282015b82811115611015578251829061100590826117b2565b5091602001919060010190610fef565b506110219291506110dc565b5090565b828054828255906000526020600020906003016004900481019282156110d05791602002820160005b8382111561109a57835183826101000a81548167ffffffffffffffff021916908367ffffffffffffffff160217905550926020019260080160208160070104928301926001030261104e565b80156110ce5782816101000a81549067ffffffffffffffff021916905560080160208160070104928301926001030261109a565b505b506110219291506110f9565b808211156110215760006110f0828261110e565b506001016110dc565b5b8082111561102157600081556001016110fa565b50805461111a9061170f565b6000825580601f1061112a575050565b601f01602090049060005260206000209081019061080691906110f9565b634e487b7160e01b600052604160045260246000fd5b604051601f8201601f1916810167ffffffffffffffff8111828210171561118757611187611148565b604052919050565b600082601f8301126111a057600080fd5b813567ffffffffffffffff8111156111ba576111ba611148565b6111cd601f8201601f191660200161115e565b8181528460208386010111156111e257600080fd5b816020850160208301376000918101602001919091529392505050565b60006020828403121561121157600080fd5b813567ffffffffffffffff81111561122857600080fd5b6112348482850161118f565b949350505050565b60005b8381101561125757818101518382015260200161123f565b50506000910152565b6000815180845261127881602086016020860161123c565b601f01601f19169290920160200192915050565b602080825282518282018190526000919060409081850190600581811b8701840188860187805b858110156113c357603f198b8503018752825160e0815186528a820151818c8801526112e182880182611260565b915050898201518682038b8801526112f98282611260565b606084810151898303918a019190915280518083529193508d840192508d0190808a1b84018e01875b8281101561135557601f1986830301855261133e828551611260565b91508f840193508f85019450600181019050611322565b5060809450848601519350898103858b01526113718185611260565b94505050505060a0808301518783038289015261138e8382611260565b9250505060c08083015192506113af8188018467ffffffffffffffff169052565b50978a0197945050918801916001016112b3565b50919a9950505050505050505050565b803567ffffffffffffffff811681146113eb57600080fd5b919050565b600067ffffffffffffffff82111561140a5761140a611148565b5060051b60200190565b600082601f83011261142557600080fd5b8135602061143a611435836113f0565b61115e565b82815260059290921b8401810191818101908684111561145957600080fd5b8286015b8481101561149957803567ffffffffffffffff81111561147d5760008081fd5b61148b8986838b010161118f565b84525091830191830161145d565b509695505050505050565b60008060008060008060c087890312156114bd57600080fd5b863567ffffffffffffffff808211156114d557600080fd5b6114e18a838b0161118f565b975060208901359150808211156114f757600080fd5b6115038a838b0161118f565b9650604089013591508082111561151957600080fd5b6115258a838b0161118f565b9550606089013591508082111561153b57600080fd5b6115478a838b0161118f565b945061155560808a016113d3565b935060a089013591508082111561156b57600080fd5b5061157889828a01611414565b9150509295509295509295565b60006020828403121561159757600080fd5b81356001600160a01b03811681146115ae57600080fd5b9392505050565b600080604083850312156115c857600080fd5b6115d1836113d3565b9150602083013567ffffffffffffffff8111156115ed57600080fd5b6115f98582860161118f565b9150509250929050565b6000806040838503121561161657600080fd5b61161f836113d3565b915060208084013567ffffffffffffffff81111561163c57600080fd5b8401601f8101861361164d57600080fd5b803561165b611435826113f0565b81815260059190911b8201830190838101908883111561167a57600080fd5b928401925b8284101561169f57611690846113d3565b8252928401929084019061167f565b80955050505050509250929050565b600082516116c081846020870161123c565b9190910192915050565b634e487b7160e01b600052603260045260246000fd5b634e487b7160e01b600052601160045260246000fd5b80820180821115611709576117096116e0565b92915050565b600181811c9082168061172357607f821691505b60208210810361174357634e487b7160e01b600052602260045260246000fd5b50919050565b60006001820161175b5761175b6116e0565b5060010190565b601f821115610fca576000816000526020600020601f850160051c8101602086101561178b5750805b601f850160051c820191505b818110156117aa57828155600101611797565b505050505050565b815167ffffffffffffffff8111156117cc576117cc611148565b6117e0816117da845461170f565b84611762565b602080601f83116001811461181557600084156117fd5750858301515b600019600386901b1c1916600185901b1785556117aa565b600085815260208120601f198616915b8281101561184457888601518255948401946001909101908401611825565b50858210156118625787850151600019600388901b60f8161c191681555b5050505050600190811b01905550565b600067ffffffffffffffff80831681810361188f5761188f6116e0565b6001019392505050565b8082028115828204841417611709576117096116e0565b6000826118cd57634e487b7160e01b600052601260045260246000fd5b500490565b81810381811115611709576117096116e056fea2646970667358221220ac300b61054350ac8c73dfc9bb769ef91ec1f5c7b1a85af55370eba9770d61b464736f6c63430008160033",
          "opcodes": "PUSH1 0x80 PUSH1 0x40 MSTORE CALLVALUE DUP1 ISZERO PUSH2 0x10 JUMPI PUSH1 0x0 DUP1 REVERT JUMPDEST POP PUSH1 0x0 DUP1 SLOAD PUSH1 0x1 PUSH1 0x1 PUSH1 0xA0 SHL SUB NOT AND CALLER OR SWAP1 SSTORE PUSH2 0x191B DUP1 PUSH2 0x32 PUSH1 0x0 CODECOPY PUSH1 0x0 RETURN INVALID PUSH1 0x80 PUSH1 0x40 MSTORE PUSH1 0x4 CALLDATASIZE LT PUSH2 0x65 JUMPI PUSH1 0x0 CALLDATALOAD PUSH1 0xE0 SHR DUP1 PUSH4 0x70480275 GT PUSH2 0x43 JUMPI DUP1 PUSH4 0x70480275 EQ PUSH2 0xE2 JUMPI DUP1 PUSH4 0x917B3D69 EQ PUSH2 0x102 JUMPI DUP1 PUSH4 0xF239EBD8 EQ PUSH2 0x115 JUMPI PUSH1 0x0 DUP1 REVERT JUMPDEST DUP1 PUSH4 0x5EAECD12 EQ PUSH2 0x6A JUMPI DUP1 PUSH4 0x60C736CD EQ PUSH2 0xA0 JUMPI DUP1 PUSH4 0x6AC307CF EQ PUSH2 0xC2 JUMPI JUMPDEST PUSH1 0x0 DUP1 REVERT JUMPDEST CALLVALUE DUP1 ISZERO PUSH2 0x76 JUMPI PUSH1 0x0 DUP1 REVERT JUMPDEST POP PUSH2 0x8A PUSH2 0x85 CALLDATASIZE PUSH1 0x4 PUSH2 0x11FF JUMP JUMPDEST PUSH2 0x135 JUMP JUMPDEST PUSH1 0x40 MLOAD PUSH2 0x97 SWAP2 SWAP1 PUSH2 0x128C JUMP JUMPDEST PUSH1 0x40 MLOAD DUP1 SWAP2 SUB SWAP1 RETURN JUMPDEST CALLVALUE DUP1 ISZERO PUSH2 0xAC JUMPI PUSH1 0x0 DUP1 REVERT JUMPDEST POP PUSH2 0xC0 PUSH2 0xBB CALLDATASIZE PUSH1 0x4 PUSH2 0x11FF JUMP JUMPDEST PUSH2 0x73D JUMP JUMPDEST STOP JUMPDEST CALLVALUE DUP1 ISZERO PUSH2 0xCE JUMPI PUSH1 0x0 DUP1 REVERT JUMPDEST POP PUSH2 0xC0 PUSH2 0xDD CALLDATASIZE PUSH1 0x4 PUSH2 0x14A4 JUMP JUMPDEST PUSH2 0x809 JUMP JUMPDEST CALLVALUE DUP1 ISZERO PUSH2 0xEE JUMPI PUSH1 0x0 DUP1 REVERT JUMPDEST POP PUSH2 0xC0 PUSH2 0xFD CALLDATASIZE PUSH1 0x4 PUSH2 0x1585 JUMP JUMPDEST PUSH2 0x9DD JUMP JUMPDEST PUSH2 0xC0 PUSH2 0x110 CALLDATASIZE PUSH1 0x4 PUSH2 0x15B5 JUMP JUMPDEST PUSH2 0xAB6 JUMP JUMPDEST CALLVALUE DUP1 ISZERO PUSH2 0x121 JUMPI PUSH1 0x0 DUP1 REVERT JUMPDEST POP PUSH2 0xC0 PUSH2 0x130 CALLDATASIZE PUSH1 0x4 PUSH2 0x1603 JUMP JUMPDEST PUSH2 0xF2F JUMP JUMPDEST PUSH1 0x60 PUSH1 0x0 DUP1 JUMPDEST PUSH1 0x3 DUP5 PUSH1 0x40 MLOAD PUSH2 0x14B SWAP2 SWAP1 PUSH2 0x16AE JUMP JUMPDEST SWAP1 DUP2 MSTORE PUSH1 0x40 MLOAD SWAP1 DUP2 SWAP1 SUB PUSH1 0x20 ADD SWAP1 KECCAK256 SLOAD DUP2 LT ISZERO PUSH2 0x1CE JUMPI PUSH1 0x5 PUSH1 0x0 PUSH1 0x3 DUP7 PUSH1 0x40 MLOAD PUSH2 0x176 SWAP2 SWAP1 PUSH2 0x16AE JUMP JUMPDEST SWAP1 DUP2 MSTORE PUSH1 0x20 ADD PUSH1 0x40 MLOAD DUP1 SWAP2 SUB SWAP1 KECCAK256 DUP4 DUP2 SLOAD DUP2 LT PUSH2 0x195 JUMPI PUSH2 0x195 PUSH2 0x16CA JUMP JUMPDEST PUSH1 0x0 SWAP2 DUP3 MSTORE PUSH1 0x20 DUP1 DUP4 KECCAK256 SWAP1 SWAP2 ADD SLOAD PUSH1 0x1 PUSH1 0x1 PUSH1 0xA0 SHL SUB AND DUP4 MSTORE DUP3 ADD SWAP3 SWAP1 SWAP3 MSTORE PUSH1 0x40 ADD SWAP1 KECCAK256 SLOAD PUSH2 0x1C4 SWAP1 DUP4 PUSH2 0x16F6 JUMP JUMPDEST SWAP2 POP PUSH1 0x1 ADD PUSH2 0x13B JUMP JUMPDEST POP PUSH1 0x0 DUP2 PUSH8 0xFFFFFFFFFFFFFFFF DUP2 GT ISZERO PUSH2 0x1EA JUMPI PUSH2 0x1EA PUSH2 0x1148 JUMP JUMPDEST PUSH1 0x40 MLOAD SWAP1 DUP1 DUP3 MSTORE DUP1 PUSH1 0x20 MUL PUSH1 0x20 ADD DUP3 ADD PUSH1 0x40 MSTORE DUP1 ISZERO PUSH2 0x265 JUMPI DUP2 PUSH1 0x20 ADD JUMPDEST PUSH2 0x252 PUSH1 0x40 MLOAD DUP1 PUSH1 0xE0 ADD PUSH1 0x40 MSTORE DUP1 PUSH1 0x0 DUP2 MSTORE PUSH1 0x20 ADD PUSH1 0x60 DUP2 MSTORE PUSH1 0x20 ADD PUSH1 0x60 DUP2 MSTORE PUSH1 0x20 ADD PUSH1 0x60 DUP2 MSTORE PUSH1 0x20 ADD PUSH1 0x60 DUP2 MSTORE PUSH1 0x20 ADD PUSH1 0x60 DUP2 MSTORE PUSH1 0x20 ADD PUSH1 0x0 PUSH8 0xFFFFFFFFFFFFFFFF AND DUP2 MSTORE POP SWAP1 JUMP JUMPDEST DUP2 MSTORE PUSH1 0x20 ADD SWAP1 PUSH1 0x1 SWAP1 SUB SWAP1 DUP2 PUSH2 0x208 JUMPI SWAP1 POP JUMPDEST POP SWAP1 POP PUSH1 0x0 DUP1 JUMPDEST PUSH1 0x3 DUP7 PUSH1 0x40 MLOAD PUSH2 0x27C SWAP2 SWAP1 PUSH2 0x16AE JUMP JUMPDEST SWAP1 DUP2 MSTORE PUSH1 0x40 MLOAD SWAP1 DUP2 SWAP1 SUB PUSH1 0x20 ADD SWAP1 KECCAK256 SLOAD DUP2 LT ISZERO PUSH2 0x733 JUMPI PUSH1 0x0 JUMPDEST PUSH1 0x5 PUSH1 0x0 PUSH1 0x3 DUP10 PUSH1 0x40 MLOAD PUSH2 0x2AA SWAP2 SWAP1 PUSH2 0x16AE JUMP JUMPDEST SWAP1 DUP2 MSTORE PUSH1 0x20 ADD PUSH1 0x40 MLOAD DUP1 SWAP2 SUB SWAP1 KECCAK256 DUP5 DUP2 SLOAD DUP2 LT PUSH2 0x2C9 JUMPI PUSH2 0x2C9 PUSH2 0x16CA JUMP JUMPDEST PUSH1 0x0 SWAP2 DUP3 MSTORE PUSH1 0x20 DUP1 DUP4 KECCAK256 SWAP1 SWAP2 ADD SLOAD PUSH1 0x1 PUSH1 0x1 PUSH1 0xA0 SHL SUB AND DUP4 MSTORE DUP3 ADD SWAP3 SWAP1 SWAP3 MSTORE PUSH1 0x40 ADD SWAP1 KECCAK256 SLOAD DUP2 LT ISZERO PUSH2 0x72A JUMPI PUSH1 0x7 PUSH1 0x0 PUSH1 0x5 PUSH1 0x0 PUSH1 0x3 DUP12 PUSH1 0x40 MLOAD PUSH2 0x30D SWAP2 SWAP1 PUSH2 0x16AE JUMP JUMPDEST SWAP1 DUP2 MSTORE PUSH1 0x20 ADD PUSH1 0x40 MLOAD DUP1 SWAP2 SUB SWAP1 KECCAK256 DUP7 DUP2 SLOAD DUP2 LT PUSH2 0x32C JUMPI PUSH2 0x32C PUSH2 0x16CA JUMP JUMPDEST PUSH1 0x0 SWAP2 DUP3 MSTORE PUSH1 0x20 DUP1 DUP4 KECCAK256 SWAP1 SWAP2 ADD SLOAD PUSH1 0x1 PUSH1 0x1 PUSH1 0xA0 SHL SUB AND DUP4 MSTORE DUP3 ADD SWAP3 SWAP1 SWAP3 MSTORE PUSH1 0x40 ADD SWAP1 KECCAK256 DUP1 SLOAD DUP5 SWAP1 DUP2 LT PUSH2 0x362 JUMPI PUSH2 0x362 PUSH2 0x16CA JUMP JUMPDEST SWAP1 PUSH1 0x0 MSTORE PUSH1 0x20 PUSH1 0x0 KECCAK256 SWAP1 PUSH1 0x4 SWAP2 DUP3 DUP3 DIV ADD SWAP2 SWAP1 MOD PUSH1 0x8 MUL SWAP1 SLOAD SWAP1 PUSH2 0x100 EXP SWAP1 DIV PUSH8 0xFFFFFFFFFFFFFFFF AND PUSH8 0xFFFFFFFFFFFFFFFF AND PUSH8 0xFFFFFFFFFFFFFFFF AND DUP2 MSTORE PUSH1 0x20 ADD SWAP1 DUP2 MSTORE PUSH1 0x20 ADD PUSH1 0x0 KECCAK256 PUSH1 0x40 MLOAD DUP1 PUSH1 0xE0 ADD PUSH1 0x40 MSTORE SWAP1 DUP2 PUSH1 0x0 DUP3 ADD SLOAD DUP2 MSTORE PUSH1 0x20 ADD PUSH1 0x1 DUP3 ADD DUP1 SLOAD PUSH2 0x3D3 SWAP1 PUSH2 0x170F JUMP JUMPDEST DUP1 PUSH1 0x1F ADD PUSH1 0x20 DUP1 SWAP2 DIV MUL PUSH1 0x20 ADD PUSH1 0x40 MLOAD SWAP1 DUP2 ADD PUSH1 0x40 MSTORE DUP1 SWAP3 SWAP2 SWAP1 DUP2 DUP2 MSTORE PUSH1 0x20 ADD DUP3 DUP1 SLOAD PUSH2 0x3FF SWAP1 PUSH2 0x170F JUMP JUMPDEST DUP1 ISZERO PUSH2 0x44C JUMPI DUP1 PUSH1 0x1F LT PUSH2 0x421 JUMPI PUSH2 0x100 DUP1 DUP4 SLOAD DIV MUL DUP4 MSTORE SWAP2 PUSH1 0x20 ADD SWAP2 PUSH2 0x44C JUMP JUMPDEST DUP3 ADD SWAP2 SWAP1 PUSH1 0x0 MSTORE PUSH1 0x20 PUSH1 0x0 KECCAK256 SWAP1 JUMPDEST DUP2 SLOAD DUP2 MSTORE SWAP1 PUSH1 0x1 ADD SWAP1 PUSH1 0x20 ADD DUP1 DUP4 GT PUSH2 0x42F JUMPI DUP3 SWAP1 SUB PUSH1 0x1F AND DUP3 ADD SWAP2 JUMPDEST POP POP POP POP POP DUP2 MSTORE PUSH1 0x20 ADD PUSH1 0x2 DUP3 ADD DUP1 SLOAD PUSH2 0x465 SWAP1 PUSH2 0x170F JUMP JUMPDEST DUP1 PUSH1 0x1F ADD PUSH1 0x20 DUP1 SWAP2 DIV MUL PUSH1 0x20 ADD PUSH1 0x40 MLOAD SWAP1 DUP2 ADD PUSH1 0x40 MSTORE DUP1 SWAP3 SWAP2 SWAP1 DUP2 DUP2 MSTORE PUSH1 0x20 ADD DUP3 DUP1 SLOAD PUSH2 0x491 SWAP1 PUSH2 0x170F JUMP JUMPDEST DUP1 ISZERO PUSH2 0x4DE JUMPI DUP1 PUSH1 0x1F LT PUSH2 0x4B3 JUMPI PUSH2 0x100 DUP1 DUP4 SLOAD DIV MUL DUP4 MSTORE SWAP2 PUSH1 0x20 ADD SWAP2 PUSH2 0x4DE JUMP JUMPDEST DUP3 ADD SWAP2 SWAP1 PUSH1 0x0 MSTORE PUSH1 0x20 PUSH1 0x0 KECCAK256 SWAP1 JUMPDEST DUP2 SLOAD DUP2 MSTORE SWAP1 PUSH1 0x1 ADD SWAP1 PUSH1 0x20 ADD DUP1 DUP4 GT PUSH2 0x4C1 JUMPI DUP3 SWAP1 SUB PUSH1 0x1F AND DUP3 ADD SWAP2 JUMPDEST POP POP POP POP POP DUP2 MSTORE PUSH1 0x20 ADD PUSH1 0x3 DUP3 ADD DUP1 SLOAD DUP1 PUSH1 0x20 MUL PUSH1 0x20 ADD PUSH1 0x40 MLOAD SWAP1 DUP2 ADD PUSH1 0x40 MSTORE DUP1 SWAP3 SWAP2 SWAP1 DUP2 DUP2 MSTORE PUSH1 0x20 ADD PUSH1 0x0 SWAP1 JUMPDEST DUP3 DUP3 LT ISZERO PUSH2 0x5B8 JUMPI DUP4 DUP3 SWAP1 PUSH1 0x0 MSTORE PUSH1 0x20 PUSH1 0x0 KECCAK256 ADD DUP1 SLOAD PUSH2 0x52B SWAP1 PUSH2 0x170F JUMP JUMPDEST DUP1 PUSH1 0x1F ADD PUSH1 0x20 DUP1 SWAP2 DIV MUL PUSH1 0x20 ADD PUSH1 0x40 MLOAD SWAP1 DUP2 ADD PUSH1 0x40 MSTORE DUP1 SWAP3 SWAP2 SWAP1 DUP2 DUP2 MSTORE PUSH1 0x20 ADD DUP3 DUP1 SLOAD PUSH2 0x557 SWAP1 PUSH2 0x170F JUMP JUMPDEST DUP1 ISZERO PUSH2 0x5A4 JUMPI DUP1 PUSH1 0x1F LT PUSH2 0x579 JUMPI PUSH2 0x100 DUP1 DUP4 SLOAD DIV MUL DUP4 MSTORE SWAP2 PUSH1 0x20 ADD SWAP2 PUSH2 0x5A4 JUMP JUMPDEST DUP3 ADD SWAP2 SWAP1 PUSH1 0x0 MSTORE PUSH1 0x20 PUSH1 0x0 KECCAK256 SWAP1 JUMPDEST DUP2 SLOAD DUP2 MSTORE SWAP1 PUSH1 0x1 ADD SWAP1 PUSH1 0x20 ADD DUP1 DUP4 GT PUSH2 0x587 JUMPI DUP3 SWAP1 SUB PUSH1 0x1F AND DUP3 ADD SWAP2 JUMPDEST POP POP POP POP POP DUP2 MSTORE PUSH1 0x20 ADD SWAP1 PUSH1 0x1 ADD SWAP1 PUSH2 0x50C JUMP JUMPDEST POP POP POP POP DUP2 MSTORE PUSH1 0x20 ADD PUSH1 0x4 DUP3 ADD DUP1 SLOAD PUSH2 0x5D0 SWAP1 PUSH2 0x170F JUMP JUMPDEST DUP1 PUSH1 0x1F ADD PUSH1 0x20 DUP1 SWAP2 DIV MUL PUSH1 0x20 ADD PUSH1 0x40 MLOAD SWAP1 DUP2 ADD PUSH1 0x40 MSTORE DUP1 SWAP3 SWAP2 SWAP1 DUP2 DUP2 MSTORE PUSH1 0x20 ADD DUP3 DUP1 SLOAD PUSH2 0x5FC SWAP1 PUSH2 0x170F JUMP JUMPDEST DUP1 ISZERO PUSH2 0x649 JUMPI DUP1 PUSH1 0x1F LT PUSH2 0x61E JUMPI PUSH2 0x100 DUP1 DUP4 SLOAD DIV MUL DUP4 MSTORE SWAP2 PUSH1 0x20 ADD SWAP2 PUSH2 0x649 JUMP JUMPDEST DUP3 ADD SWAP2 SWAP1 PUSH1 0x0 MSTORE PUSH1 0x20 PUSH1 0x0 KECCAK256 SWAP1 JUMPDEST DUP2 SLOAD DUP2 MSTORE SWAP1 PUSH1 0x1 ADD SWAP1 PUSH1 0x20 ADD DUP1 DUP4 GT PUSH2 0x62C JUMPI DUP3 SWAP1 SUB PUSH1 0x1F AND DUP3 ADD SWAP2 JUMPDEST POP POP POP POP POP DUP2 MSTORE PUSH1 0x20 ADD PUSH1 0x5 DUP3 ADD DUP1 SLOAD PUSH2 0x662 SWAP1 PUSH2 0x170F JUMP JUMPDEST DUP1 PUSH1 0x1F ADD PUSH1 0x20 DUP1 SWAP2 DIV MUL PUSH1 0x20 ADD PUSH1 0x40 MLOAD SWAP1 DUP2 ADD PUSH1 0x40 MSTORE DUP1 SWAP3 SWAP2 SWAP1 DUP2 DUP2 MSTORE PUSH1 0x20 ADD DUP3 DUP1 SLOAD PUSH2 0x68E SWAP1 PUSH2 0x170F JUMP JUMPDEST DUP1 ISZERO PUSH2 0x6DB JUMPI DUP1 PUSH1 0x1F LT PUSH2 0x6B0 JUMPI PUSH2 0x100 DUP1 DUP4 SLOAD DIV MUL DUP4 MSTORE SWAP2 PUSH1 0x20 ADD SWAP2 PUSH2 0x6DB JUMP JUMPDEST DUP3 ADD SWAP2 SWAP1 PUSH1 0x0 MSTORE PUSH1 0x20 PUSH1 0x0 KECCAK256 SWAP1 JUMPDEST DUP2 SLOAD DUP2 MSTORE SWAP1 PUSH1 0x1 ADD SWAP1 PUSH1 0x20 ADD DUP1 DUP4 GT PUSH2 0x6BE JUMPI DUP3 SWAP1 SUB PUSH1 0x1F AND DUP3 ADD SWAP2 JUMPDEST POP POP POP SWAP2 DUP4 MSTORE POP POP PUSH1 0x6 SWAP2 SWAP1 SWAP2 ADD SLOAD PUSH8 0xFFFFFFFFFFFFFFFF AND PUSH1 0x20 SWAP1 SWAP2 ADD MSTORE DUP5 DUP5 PUSH2 0x705 DUP2 PUSH2 0x1749 JUMP JUMPDEST SWAP6 POP DUP2 MLOAD DUP2 LT PUSH2 0x717 JUMPI PUSH2 0x717 PUSH2 0x16CA JUMP JUMPDEST PUSH1 0x20 SWAP1 DUP2 MUL SWAP2 SWAP1 SWAP2 ADD ADD MSTORE PUSH1 0x1 ADD PUSH2 0x296 JUMP JUMPDEST POP PUSH1 0x1 ADD PUSH2 0x26C JUMP JUMPDEST POP SWAP1 SWAP5 SWAP4 POP POP POP POP JUMP JUMPDEST CALLER PUSH1 0x0 SWAP1 DUP2 MSTORE PUSH1 0x2 PUSH1 0x20 MSTORE PUSH1 0x40 SWAP1 KECCAK256 PUSH2 0x756 DUP3 DUP3 PUSH2 0x17B2 JUMP JUMPDEST POP PUSH1 0x4 DUP2 PUSH1 0x40 MLOAD PUSH2 0x767 SWAP2 SWAP1 PUSH2 0x16AE JUMP JUMPDEST SWAP1 DUP2 MSTORE PUSH1 0x40 DUP1 MLOAD PUSH1 0x20 SWAP3 DUP2 SWAP1 SUB DUP4 ADD SWAP1 KECCAK256 CALLER PUSH1 0x0 SWAP1 DUP2 MSTORE SWAP3 MSTORE DUP2 KECCAK256 SLOAD SWAP1 SUB PUSH2 0x806 JUMPI PUSH1 0x3 DUP2 PUSH1 0x40 MLOAD PUSH2 0x799 SWAP2 SWAP1 PUSH2 0x16AE JUMP JUMPDEST SWAP1 DUP2 MSTORE PUSH1 0x40 MLOAD SWAP1 DUP2 SWAP1 SUB PUSH1 0x20 SWAP1 DUP2 ADD DUP3 KECCAK256 DUP1 SLOAD PUSH1 0x1 DUP2 DUP2 ADD DUP4 SSTORE PUSH1 0x0 SWAP3 DUP4 MSTORE SWAP3 SWAP1 SWAP2 KECCAK256 ADD DUP1 SLOAD PUSH20 0xFFFFFFFFFFFFFFFFFFFFFFFFFFFFFFFFFFFFFFFF NOT AND CALLER OR SWAP1 SSTORE SWAP1 PUSH1 0x4 SWAP1 PUSH2 0x7E9 SWAP1 DUP5 SWAP1 PUSH2 0x16AE JUMP JUMPDEST SWAP1 DUP2 MSTORE PUSH1 0x40 DUP1 MLOAD PUSH1 0x20 SWAP3 DUP2 SWAP1 SUB DUP4 ADD SWAP1 KECCAK256 CALLER PUSH1 0x0 SWAP1 DUP2 MSTORE SWAP3 MSTORE SWAP1 KECCAK256 SSTORE JUMPDEST POP JUMP JUMPDEST PUSH1 0x0 DUP1 SLOAD PUSH21 0x10000000000000000000000000000000000000000 SWAP1 DIV PUSH8 0xFFFFFFFFFFFFFFFF AND DUP2 PUSH1 0x14 PUSH2 0x83B DUP4 PUSH2 0x1872 JUMP JUMPDEST SWAP2 SWAP1 PUSH2 0x100 EXP DUP2 SLOAD DUP2 PUSH8 0xFFFFFFFFFFFFFFFF MUL NOT AND SWAP1 DUP4 PUSH8 0xFFFFFFFFFFFFFFFF AND MUL OR SWAP1 SSTORE POP SWAP1 POP PUSH1 0x40 MLOAD DUP1 PUSH1 0xE0 ADD PUSH1 0x40 MSTORE DUP1 TIMESTAMP DUP2 MSTORE PUSH1 0x20 ADD DUP9 DUP2 MSTORE PUSH1 0x20 ADD DUP8 DUP2 MSTORE PUSH1 0x20 ADD DUP4 DUP2 MSTORE PUSH1 0x20 ADD DUP7 DUP2 MSTORE PUSH1 0x20 ADD DUP6 DUP2 MSTORE PUSH1 0x20 ADD DUP5 PUSH8 0xFFFFFFFFFFFFFFFF AND DUP2 MSTORE POP PUSH1 0x7 PUSH1 0x0 DUP4 PUSH8 0xFFFFFFFFFFFFFFFF AND PUSH8 0xFFFFFFFFFFFFFFFF AND DUP2 MSTORE PUSH1 0x20 ADD SWAP1 DUP2 MSTORE PUSH1 0x20 ADD PUSH1 0x0 KECCAK256 PUSH1 0x0 DUP3 ADD MLOAD DUP2 PUSH1 0x0 ADD SSTORE PUSH1 0x20 DUP3 ADD MLOAD DUP2 PUSH1 0x1 ADD SWAP1 DUP2 PUSH2 0x8E6 SWAP2 SWAP1 PUSH2 0x17B2 JUMP JUMPDEST POP PUSH1 0x40 DUP3 ADD MLOAD PUSH1 0x2 DUP3 ADD SWAP1 PUSH2 0x8FB SWAP1 DUP3 PUSH2 0x17B2 JUMP JUMPDEST POP PUSH1 0x60 DUP3 ADD MLOAD DUP1 MLOAD PUSH2 0x917 SWAP2 PUSH1 0x3 DUP5 ADD SWAP2 PUSH1 0x20 SWAP1 SWAP2 ADD SWAP1 PUSH2 0xFCF JUMP JUMPDEST POP PUSH1 0x80 DUP3 ADD MLOAD PUSH1 0x4 DUP3 ADD SWAP1 PUSH2 0x92C SWAP1 DUP3 PUSH2 0x17B2 JUMP JUMPDEST POP PUSH1 0xA0 DUP3 ADD MLOAD PUSH1 0x5 DUP3 ADD SWAP1 PUSH2 0x941 SWAP1 DUP3 PUSH2 0x17B2 JUMP JUMPDEST POP PUSH1 0xC0 SWAP2 SWAP1 SWAP2 ADD MLOAD PUSH1 0x6 SWAP2 DUP3 ADD DUP1 SLOAD PUSH8 0xFFFFFFFFFFFFFFFF NOT AND PUSH8 0xFFFFFFFFFFFFFFFF SWAP3 DUP4 AND OR SWAP1 SSTORE SWAP2 DUP3 AND PUSH1 0x0 DUP2 DUP2 MSTORE PUSH1 0x20 SWAP3 DUP4 MSTORE PUSH1 0x40 DUP1 DUP3 KECCAK256 DUP1 SLOAD CALLER PUSH20 0xFFFFFFFFFFFFFFFFFFFFFFFFFFFFFFFFFFFFFFFF NOT SWAP1 SWAP2 AND DUP2 OR SWAP1 SWAP2 SSTORE DUP3 MSTORE PUSH1 0x5 DUP5 MSTORE DUP2 KECCAK256 DUP1 SLOAD PUSH1 0x1 DUP2 ADD DUP3 SSTORE SWAP1 DUP3 MSTORE SWAP3 SWAP1 KECCAK256 PUSH1 0x4 DUP4 DIV ADD DUP1 SLOAD PUSH1 0x3 SWAP1 SWAP4 AND PUSH1 0x8 MUL PUSH2 0x100 EXP SWAP4 DUP5 MUL NOT SWAP1 SWAP3 AND SWAP3 MUL SWAP2 SWAP1 SWAP2 OR SWAP1 SSTORE POP POP POP POP POP POP JUMP JUMPDEST PUSH1 0x0 SLOAD PUSH1 0x1 PUSH1 0x1 PUSH1 0xA0 SHL SUB AND CALLER EQ PUSH2 0xA3C JUMPI PUSH1 0x40 MLOAD PUSH3 0x461BCD PUSH1 0xE5 SHL DUP2 MSTORE PUSH1 0x20 PUSH1 0x4 DUP3 ADD MSTORE PUSH1 0xD PUSH1 0x24 DUP3 ADD MSTORE PUSH32 0x4163636573732044656E69656400000000000000000000000000000000000000 PUSH1 0x44 DUP3 ADD MSTORE PUSH1 0x64 ADD JUMPDEST PUSH1 0x40 MLOAD DUP1 SWAP2 SUB SWAP1 REVERT JUMPDEST PUSH1 0x40 MLOAD PUSH32 0x61646D696E000000000000000000000000000000000000000000000000000000 DUP2 MSTORE PUSH1 0xB SWAP1 PUSH1 0x5 ADD SWAP1 DUP2 MSTORE PUSH1 0x40 MLOAD PUSH1 0x20 SWAP2 DUP2 SWAP1 SUB DUP3 ADD SWAP1 KECCAK256 DUP1 SLOAD PUSH1 0x1 DUP2 ADD DUP3 SSTORE PUSH1 0x0 SWAP2 DUP3 MSTORE SWAP2 SWAP1 KECCAK256 ADD DUP1 SLOAD PUSH20 0xFFFFFFFFFFFFFFFFFFFFFFFFFFFFFFFFFFFFFFFF NOT AND PUSH1 0x1 PUSH1 0x1 PUSH1 0xA0 SHL SUB SWAP3 SWAP1 SWAP3 AND SWAP2 SWAP1 SWAP2 OR SWAP1 SSTORE JUMP JUMPDEST CALLVALUE ISZERO PUSH2 0xE16 JUMPI PUSH1 0x0 PUSH1 0xA PUSH2 0xACB CALLVALUE PUSH1 0x9 PUSH2 0x1899 JUMP JUMPDEST PUSH2 0xAD5 SWAP2 SWAP1 PUSH2 0x18B0 JUMP JUMPDEST PUSH1 0x0 DUP1 SLOAD SWAP2 SWAP3 POP SWAP1 PUSH1 0x1 PUSH1 0x1 PUSH1 0xA0 SHL SUB AND PUSH2 0xAF0 DUP4 CALLVALUE PUSH2 0x18D2 JUMP JUMPDEST PUSH1 0x40 MLOAD PUSH1 0x0 DUP2 DUP2 DUP2 DUP6 DUP8 GAS CALL SWAP3 POP POP POP RETURNDATASIZE DUP1 PUSH1 0x0 DUP2 EQ PUSH2 0xB2C JUMPI PUSH1 0x40 MLOAD SWAP2 POP PUSH1 0x1F NOT PUSH1 0x3F RETURNDATASIZE ADD AND DUP3 ADD PUSH1 0x40 MSTORE RETURNDATASIZE DUP3 MSTORE RETURNDATASIZE PUSH1 0x0 PUSH1 0x20 DUP5 ADD RETURNDATACOPY PUSH2 0xB31 JUMP JUMPDEST PUSH1 0x60 SWAP2 POP JUMPDEST POP POP SWAP1 POP DUP1 PUSH2 0xB82 JUMPI PUSH1 0x40 MLOAD PUSH3 0x461BCD PUSH1 0xE5 SHL DUP2 MSTORE PUSH1 0x20 PUSH1 0x4 DUP3 ADD MSTORE PUSH1 0x1D PUSH1 0x24 DUP3 ADD MSTORE PUSH32 0x4661696C656420746F2073656E6420457468657220746F206F776E6572000000 PUSH1 0x44 DUP3 ADD MSTORE PUSH1 0x64 ADD PUSH2 0xA33 JUMP JUMPDEST PUSH8 0xFFFFFFFFFFFFFFFF DUP5 AND PUSH1 0x0 SWAP1 DUP2 MSTORE PUSH1 0xA PUSH1 0x20 MSTORE PUSH1 0x40 DUP2 KECCAK256 SLOAD PUSH2 0xBA7 SWAP1 PUSH1 0x1 PUSH2 0x16F6 JUMP JUMPDEST SWAP1 POP PUSH1 0x0 PUSH2 0xBB5 DUP3 DUP6 PUSH2 0x18B0 JUMP JUMPDEST SWAP1 POP PUSH1 0x0 JUMPDEST PUSH8 0xFFFFFFFFFFFFFFFF DUP8 AND PUSH1 0x0 SWAP1 DUP2 MSTORE PUSH1 0xA PUSH1 0x20 MSTORE PUSH1 0x40 SWAP1 KECCAK256 SLOAD DUP2 LT ISZERO PUSH2 0xD15 JUMPI PUSH8 0xFFFFFFFFFFFFFFFF DUP8 AND PUSH1 0x0 SWAP1 DUP2 MSTORE PUSH1 0xA PUSH1 0x20 MSTORE PUSH1 0x40 DUP2 KECCAK256 DUP1 SLOAD DUP4 SWAP1 DUP2 LT PUSH2 0xC06 JUMPI PUSH2 0xC06 PUSH2 0x16CA JUMP JUMPDEST PUSH1 0x0 SWAP2 DUP3 MSTORE PUSH1 0x20 DUP1 DUP4 KECCAK256 PUSH1 0x4 DUP4 DIV ADD SLOAD PUSH1 0x3 SWAP1 SWAP3 AND PUSH1 0x8 MUL PUSH2 0x100 EXP SWAP1 SWAP2 DIV PUSH8 0xFFFFFFFFFFFFFFFF AND DUP1 DUP4 MSTORE PUSH1 0x6 SWAP1 SWAP2 MSTORE PUSH1 0x40 DUP1 DUP4 KECCAK256 SLOAD SWAP1 MLOAD SWAP2 SWAP4 POP PUSH1 0x1 PUSH1 0x1 PUSH1 0xA0 SHL SUB AND SWAP2 SWAP1 DUP3 SWAP1 DUP7 SWAP1 PUSH1 0x0 PUSH1 0x40 MLOAD DUP1 DUP4 SUB DUP2 DUP6 DUP8 GAS CALL SWAP3 POP POP POP RETURNDATASIZE DUP1 PUSH1 0x0 DUP2 EQ PUSH2 0xC8E JUMPI PUSH1 0x40 MLOAD SWAP2 POP PUSH1 0x1F NOT PUSH1 0x3F RETURNDATASIZE ADD AND DUP3 ADD PUSH1 0x40 MSTORE RETURNDATASIZE DUP3 MSTORE RETURNDATASIZE PUSH1 0x0 PUSH1 0x20 DUP5 ADD RETURNDATACOPY PUSH2 0xC93 JUMP JUMPDEST PUSH1 0x60 SWAP2 POP JUMPDEST POP POP SWAP1 POP DUP1 PUSH2 0xD0A JUMPI PUSH1 0x40 MLOAD PUSH3 0x461BCD PUSH1 0xE5 SHL DUP2 MSTORE PUSH1 0x20 PUSH1 0x4 DUP3 ADD MSTORE PUSH1 0x21 PUSH1 0x24 DUP3 ADD MSTORE PUSH32 0x4661696C656420746F2073656E6420457468657220746F20612063726561746F PUSH1 0x44 DUP3 ADD MSTORE PUSH32 0x7200000000000000000000000000000000000000000000000000000000000000 PUSH1 0x64 DUP3 ADD MSTORE PUSH1 0x84 ADD PUSH2 0xA33 JUMP JUMPDEST POP POP POP PUSH1 0x1 ADD PUSH2 0xBBA JUMP JUMPDEST POP PUSH8 0xFFFFFFFFFFFFFFFF DUP7 AND PUSH1 0x0 SWAP1 DUP2 MSTORE PUSH1 0x6 PUSH1 0x20 MSTORE PUSH1 0x40 DUP2 KECCAK256 SLOAD PUSH1 0x1 PUSH1 0x1 PUSH1 0xA0 SHL SUB AND PUSH2 0xD44 PUSH1 0x1 DUP6 PUSH2 0x18D2 JUMP JUMPDEST PUSH2 0xD4E SWAP1 DUP5 PUSH2 0x1899 JUMP JUMPDEST PUSH2 0xD58 SWAP1 DUP8 PUSH2 0x18D2 JUMP JUMPDEST PUSH1 0x40 MLOAD PUSH1 0x0 DUP2 DUP2 DUP2 DUP6 DUP8 GAS CALL SWAP3 POP POP POP RETURNDATASIZE DUP1 PUSH1 0x0 DUP2 EQ PUSH2 0xD94 JUMPI PUSH1 0x40 MLOAD SWAP2 POP PUSH1 0x1F NOT PUSH1 0x3F RETURNDATASIZE ADD AND DUP3 ADD PUSH1 0x40 MSTORE RETURNDATASIZE DUP3 MSTORE RETURNDATASIZE PUSH1 0x0 PUSH1 0x20 DUP5 ADD RETURNDATACOPY PUSH2 0xD99 JUMP JUMPDEST PUSH1 0x60 SWAP2 POP JUMPDEST POP POP SWAP1 POP DUP1 PUSH2 0xE10 JUMPI PUSH1 0x40 MLOAD PUSH3 0x461BCD PUSH1 0xE5 SHL DUP2 MSTORE PUSH1 0x20 PUSH1 0x4 DUP3 ADD MSTORE PUSH1 0x23 PUSH1 0x24 DUP3 ADD MSTORE PUSH32 0x4661696C656420746F2073656E6420457468657220746F207468652063726561 PUSH1 0x44 DUP3 ADD MSTORE PUSH32 0x746F720000000000000000000000000000000000000000000000000000000000 PUSH1 0x64 DUP3 ADD MSTORE PUSH1 0x84 ADD PUSH2 0xA33 JUMP JUMPDEST POP POP POP POP POP JUMPDEST PUSH1 0x1 DUP1 SLOAD PUSH1 0x0 SWAP2 PUSH8 0xFFFFFFFFFFFFFFFF SWAP1 SWAP2 AND SWAP1 DUP3 PUSH2 0xE34 DUP4 PUSH2 0x1872 JUMP JUMPDEST DUP3 SLOAD PUSH2 0x100 SWAP3 SWAP1 SWAP3 EXP PUSH8 0xFFFFFFFFFFFFFFFF DUP2 DUP2 MUL NOT SWAP1 SWAP4 AND SWAP2 DUP4 AND MUL OR SWAP1 SWAP2 SSTORE PUSH1 0x40 DUP1 MLOAD PUSH1 0x80 DUP2 ADD DUP3 MSTORE TIMESTAMP DUP2 MSTORE CALLER PUSH1 0x20 DUP1 DUP4 ADD SWAP2 DUP3 MSTORE DUP3 DUP5 ADD DUP9 DUP2 MSTORE CALLVALUE PUSH1 0x60 DUP6 ADD MSTORE SWAP5 DUP7 AND PUSH1 0x0 SWAP1 DUP2 MSTORE PUSH1 0x9 SWAP1 SWAP2 MSTORE SWAP3 SWAP1 SWAP3 KECCAK256 DUP2 MLOAD DUP2 SSTORE SWAP2 MLOAD PUSH1 0x1 DUP4 ADD DUP1 SLOAD PUSH20 0xFFFFFFFFFFFFFFFFFFFFFFFFFFFFFFFFFFFFFFFF NOT AND PUSH1 0x1 PUSH1 0x1 PUSH1 0xA0 SHL SUB SWAP1 SWAP3 AND SWAP2 SWAP1 SWAP2 OR SWAP1 SSTORE SWAP2 MLOAD SWAP3 SWAP4 POP SWAP1 SWAP2 PUSH1 0x2 DUP3 ADD SWAP1 PUSH2 0xED2 SWAP1 DUP3 PUSH2 0x17B2 JUMP JUMPDEST POP PUSH1 0x60 SWAP2 SWAP1 SWAP2 ADD MLOAD PUSH1 0x3 SWAP2 DUP3 ADD SSTORE PUSH8 0xFFFFFFFFFFFFFFFF SWAP4 DUP5 AND PUSH1 0x0 SWAP1 DUP2 MSTORE PUSH1 0x8 PUSH1 0x20 DUP2 DUP2 MSTORE PUSH1 0x40 DUP4 KECCAK256 DUP1 SLOAD PUSH1 0x1 DUP2 ADD DUP3 SSTORE SWAP1 DUP5 MSTORE SWAP3 KECCAK256 PUSH1 0x4 DUP4 DIV ADD DUP1 SLOAD SWAP5 DUP8 AND SWAP3 SWAP1 SWAP4 AND MUL PUSH2 0x100 EXP SWAP1 DUP2 MUL SWAP5 MUL NOT SWAP1 SWAP2 AND SWAP3 SWAP1 SWAP3 OR SWAP1 SWAP2 SSTORE POP JUMP JUMPDEST PUSH8 0xFFFFFFFFFFFFFFFF DUP3 AND PUSH1 0x0 SWAP1 DUP2 MSTORE PUSH1 0x6 PUSH1 0x20 MSTORE PUSH1 0x40 SWAP1 KECCAK256 SLOAD PUSH1 0x1 PUSH1 0x1 PUSH1 0xA0 SHL SUB AND CALLER EQ PUSH2 0xFA0 JUMPI PUSH1 0x40 MLOAD PUSH3 0x461BCD PUSH1 0xE5 SHL DUP2 MSTORE PUSH1 0x20 PUSH1 0x4 DUP3 ADD MSTORE PUSH1 0x19 PUSH1 0x24 DUP3 ADD MSTORE PUSH32 0x596F7520646F206E6F74206F776E2074686520766964656F2E00000000000000 PUSH1 0x44 DUP3 ADD MSTORE PUSH1 0x64 ADD PUSH2 0xA33 JUMP JUMPDEST PUSH8 0xFFFFFFFFFFFFFFFF DUP3 AND PUSH1 0x0 SWAP1 DUP2 MSTORE PUSH1 0xA PUSH1 0x20 SWAP1 DUP2 MSTORE PUSH1 0x40 SWAP1 SWAP2 KECCAK256 DUP3 MLOAD PUSH2 0xFCA SWAP3 DUP5 ADD SWAP1 PUSH2 0x1025 JUMP JUMPDEST POP POP POP JUMP JUMPDEST DUP3 DUP1 SLOAD DUP3 DUP3 SSTORE SWAP1 PUSH1 0x0 MSTORE PUSH1 0x20 PUSH1 0x0 KECCAK256 SWAP1 DUP2 ADD SWAP3 DUP3 ISZERO PUSH2 0x1015 JUMPI SWAP2 PUSH1 0x20 MUL DUP3 ADD JUMPDEST DUP3 DUP2 GT ISZERO PUSH2 0x1015 JUMPI DUP3 MLOAD DUP3 SWAP1 PUSH2 0x1005 SWAP1 DUP3 PUSH2 0x17B2 JUMP JUMPDEST POP SWAP2 PUSH1 0x20 ADD SWAP2 SWAP1 PUSH1 0x1 ADD SWAP1 PUSH2 0xFEF JUMP JUMPDEST POP PUSH2 0x1021 SWAP3 SWAP2 POP PUSH2 0x10DC JUMP JUMPDEST POP SWAP1 JUMP JUMPDEST DUP3 DUP1 SLOAD DUP3 DUP3 SSTORE SWAP1 PUSH1 0x0 MSTORE PUSH1 0x20 PUSH1 0x0 KECCAK256 SWAP1 PUSH1 0x3 ADD PUSH1 0x4 SWAP1 DIV DUP2 ADD SWAP3 DUP3 ISZERO PUSH2 0x10D0 JUMPI SWAP2 PUSH1 0x20 MUL DUP3 ADD PUSH1 0x0 JUMPDEST DUP4 DUP3 GT ISZERO PUSH2 0x109A JUMPI DUP4 MLOAD DUP4 DUP3 PUSH2 0x100 EXP DUP2 SLOAD DUP2 PUSH8 0xFFFFFFFFFFFFFFFF MUL NOT AND SWAP1 DUP4 PUSH8 0xFFFFFFFFFFFFFFFF AND MUL OR SWAP1 SSTORE POP SWAP3 PUSH1 0x20 ADD SWAP3 PUSH1 0x8 ADD PUSH1 0x20 DUP2 PUSH1 0x7 ADD DIV SWAP3 DUP4 ADD SWAP3 PUSH1 0x1 SUB MUL PUSH2 0x104E JUMP JUMPDEST DUP1 ISZERO PUSH2 0x10CE JUMPI DUP3 DUP2 PUSH2 0x100 EXP DUP2 SLOAD SWAP1 PUSH8 0xFFFFFFFFFFFFFFFF MUL NOT AND SWAP1 SSTORE PUSH1 0x8 ADD PUSH1 0x20 DUP2 PUSH1 0x7 ADD DIV SWAP3 DUP4 ADD SWAP3 PUSH1 0x1 SUB MUL PUSH2 0x109A JUMP JUMPDEST POP JUMPDEST POP PUSH2 0x1021 SWAP3 SWAP2 POP PUSH2 0x10F9 JUMP JUMPDEST DUP1 DUP3 GT ISZERO PUSH2 0x1021 JUMPI PUSH1 0x0 PUSH2 0x10F0 DUP3 DUP3 PUSH2 0x110E JUMP JUMPDEST POP PUSH1 0x1 ADD PUSH2 0x10DC JUMP JUMPDEST JUMPDEST DUP1 DUP3 GT ISZERO PUSH2 0x1021 JUMPI PUSH1 0x0 DUP2 SSTORE PUSH1 0x1 ADD PUSH2 0x10FA JUMP JUMPDEST POP DUP1 SLOAD PUSH2 0x111A SWAP1 PUSH2 0x170F JUMP JUMPDEST PUSH1 0x0 DUP3 SSTORE DUP1 PUSH1 0x1F LT PUSH2 0x112A JUMPI POP POP JUMP JUMPDEST PUSH1 0x1F ADD PUSH1 0x20 SWAP1 DIV SWAP1 PUSH1 0x0 MSTORE PUSH1 0x20 PUSH1 0x0 KECCAK256 SWAP1 DUP2 ADD SWAP1 PUSH2 0x806 SWAP2 SWAP1 PUSH2 0x10F9 JUMP JUMPDEST PUSH4 0x4E487B71 PUSH1 0xE0 SHL PUSH1 0x0 MSTORE PUSH1 0x41 PUSH1 0x4 MSTORE PUSH1 0x24 PUSH1 0x0 REVERT JUMPDEST PUSH1 0x40 MLOAD PUSH1 0x1F DUP3 ADD PUSH1 0x1F NOT AND DUP2 ADD PUSH8 0xFFFFFFFFFFFFFFFF DUP2 GT DUP3 DUP3 LT OR ISZERO PUSH2 0x1187 JUMPI PUSH2 0x1187 PUSH2 0x1148 JUMP JUMPDEST PUSH1 0x40 MSTORE SWAP2 SWAP1 POP JUMP JUMPDEST PUSH1 0x0 DUP3 PUSH1 0x1F DUP4 ADD SLT PUSH2 0x11A0 JUMPI PUSH1 0x0 DUP1 REVERT JUMPDEST DUP2 CALLDATALOAD PUSH8 0xFFFFFFFFFFFFFFFF DUP2 GT ISZERO PUSH2 0x11BA JUMPI PUSH2 0x11BA PUSH2 0x1148 JUMP JUMPDEST PUSH2 0x11CD PUSH1 0x1F DUP3 ADD PUSH1 0x1F NOT AND PUSH1 0x20 ADD PUSH2 0x115E JUMP JUMPDEST DUP2 DUP2 MSTORE DUP5 PUSH1 0x20 DUP4 DUP7 ADD ADD GT ISZERO PUSH2 0x11E2 JUMPI PUSH1 0x0 DUP1 REVERT JUMPDEST DUP2 PUSH1 0x20 DUP6 ADD PUSH1 0x20 DUP4 ADD CALLDATACOPY PUSH1 0x0 SWAP2 DUP2 ADD PUSH1 0x20 ADD SWAP2 SWAP1 SWAP2 MSTORE SWAP4 SWAP3 POP POP POP JUMP JUMPDEST PUSH1 0x0 PUSH1 0x20 DUP3 DUP5 SUB SLT ISZERO PUSH2 0x1211 JUMPI PUSH1 0x0 DUP1 REVERT JUMPDEST DUP2 CALLDATALOAD PUSH8 0xFFFFFFFFFFFFFFFF DUP2 GT ISZERO PUSH2 0x1228 JUMPI PUSH1 0x0 DUP1 REVERT JUMPDEST PUSH2 0x1234 DUP5 DUP3 DUP6 ADD PUSH2 0x118F JUMP JUMPDEST SWAP5 SWAP4 POP POP POP POP JUMP JUMPDEST PUSH1 0x0 JUMPDEST DUP4 DUP2 LT ISZERO PUSH2 0x1257 JUMPI DUP2 DUP2 ADD MLOAD DUP4 DUP3 ADD MSTORE PUSH1 0x20 ADD PUSH2 0x123F JUMP JUMPDEST POP POP PUSH1 0x0 SWAP2 ADD MSTORE JUMP JUMPDEST PUSH1 0x0 DUP2 MLOAD DUP1 DUP5 MSTORE PUSH2 0x1278 DUP2 PUSH1 0x20 DUP7 ADD PUSH1 0x20 DUP7 ADD PUSH2 0x123C JUMP JUMPDEST PUSH1 0x1F ADD PUSH1 0x1F NOT AND SWAP3 SWAP1 SWAP3 ADD PUSH1 0x20 ADD SWAP3 SWAP2 POP POP JUMP JUMPDEST PUSH1 0x20 DUP1 DUP3 MSTORE DUP3 MLOAD DUP3 DUP3 ADD DUP2 SWAP1 MSTORE PUSH1 0x0 SWAP2 SWAP1 PUSH1 0x40 SWAP1 DUP2 DUP6 ADD SWAP1 PUSH1 0x5 DUP2 DUP2 SHL DUP8 ADD DUP5 ADD DUP9 DUP7 ADD DUP8 DUP1 JUMPDEST DUP6 DUP2 LT ISZERO PUSH2 0x13C3 JUMPI PUSH1 0x3F NOT DUP12 DUP6 SUB ADD DUP8 MSTORE DUP3 MLOAD PUSH1 0xE0 DUP2 MLOAD DUP7 MSTORE DUP11 DUP3 ADD MLOAD DUP2 DUP13 DUP9 ADD MSTORE PUSH2 0x12E1 DUP3 DUP9 ADD DUP3 PUSH2 0x1260 JUMP JUMPDEST SWAP2 POP POP DUP10 DUP3 ADD MLOAD DUP7 DUP3 SUB DUP12 DUP9 ADD MSTORE PUSH2 0x12F9 DUP3 DUP3 PUSH2 0x1260 JUMP JUMPDEST PUSH1 0x60 DUP5 DUP2 ADD MLOAD DUP10 DUP4 SUB SWAP2 DUP11 ADD SWAP2 SWAP1 SWAP2 MSTORE DUP1 MLOAD DUP1 DUP4 MSTORE SWAP2 SWAP4 POP DUP14 DUP5 ADD SWAP3 POP DUP14 ADD SWAP1 DUP1 DUP11 SHL DUP5 ADD DUP15 ADD DUP8 JUMPDEST DUP3 DUP2 LT ISZERO PUSH2 0x1355 JUMPI PUSH1 0x1F NOT DUP7 DUP4 SUB ADD DUP6 MSTORE PUSH2 0x133E DUP3 DUP6 MLOAD PUSH2 0x1260 JUMP JUMPDEST SWAP2 POP DUP16 DUP5 ADD SWAP4 POP DUP16 DUP6 ADD SWAP5 POP PUSH1 0x1 DUP2 ADD SWAP1 POP PUSH2 0x1322 JUMP JUMPDEST POP PUSH1 0x80 SWAP5 POP DUP5 DUP7 ADD MLOAD SWAP4 POP DUP10 DUP2 SUB DUP6 DUP12 ADD MSTORE PUSH2 0x1371 DUP2 DUP6 PUSH2 0x1260 JUMP JUMPDEST SWAP5 POP POP POP POP POP PUSH1 0xA0 DUP1 DUP4 ADD MLOAD DUP8 DUP4 SUB DUP3 DUP10 ADD MSTORE PUSH2 0x138E DUP4 DUP3 PUSH2 0x1260 JUMP JUMPDEST SWAP3 POP POP POP PUSH1 0xC0 DUP1 DUP4 ADD MLOAD SWAP3 POP PUSH2 0x13AF DUP2 DUP9 ADD DUP5 PUSH8 0xFFFFFFFFFFFFFFFF AND SWAP1 MSTORE JUMP JUMPDEST POP SWAP8 DUP11 ADD SWAP8 SWAP5 POP POP SWAP2 DUP9 ADD SWAP2 PUSH1 0x1 ADD PUSH2 0x12B3 JUMP JUMPDEST POP SWAP2 SWAP11 SWAP10 POP POP POP POP POP POP POP POP POP POP JUMP JUMPDEST DUP1 CALLDATALOAD PUSH8 0xFFFFFFFFFFFFFFFF DUP2 AND DUP2 EQ PUSH2 0x13EB JUMPI PUSH1 0x0 DUP1 REVERT JUMPDEST SWAP2 SWAP1 POP JUMP JUMPDEST PUSH1 0x0 PUSH8 0xFFFFFFFFFFFFFFFF DUP3 GT ISZERO PUSH2 0x140A JUMPI PUSH2 0x140A PUSH2 0x1148 JUMP JUMPDEST POP PUSH1 0x5 SHL PUSH1 0x20 ADD SWAP1 JUMP JUMPDEST PUSH1 0x0 DUP3 PUSH1 0x1F DUP4 ADD SLT PUSH2 0x1425 JUMPI PUSH1 0x0 DUP1 REVERT JUMPDEST DUP2 CALLDATALOAD PUSH1 0x20 PUSH2 0x143A PUSH2 0x1435 DUP4 PUSH2 0x13F0 JUMP JUMPDEST PUSH2 0x115E JUMP JUMPDEST DUP3 DUP2 MSTORE PUSH1 0x5 SWAP3 SWAP1 SWAP3 SHL DUP5 ADD DUP2 ADD SWAP2 DUP2 DUP2 ADD SWAP1 DUP7 DUP5 GT ISZERO PUSH2 0x1459 JUMPI PUSH1 0x0 DUP1 REVERT JUMPDEST DUP3 DUP7 ADD JUMPDEST DUP5 DUP2 LT ISZERO PUSH2 0x1499 JUMPI DUP1 CALLDATALOAD PUSH8 0xFFFFFFFFFFFFFFFF DUP2 GT ISZERO PUSH2 0x147D JUMPI PUSH1 0x0 DUP1 DUP2 REVERT JUMPDEST PUSH2 0x148B DUP10 DUP7 DUP4 DUP12 ADD ADD PUSH2 0x118F JUMP JUMPDEST DUP5 MSTORE POP SWAP2 DUP4 ADD SWAP2 DUP4 ADD PUSH2 0x145D JUMP JUMPDEST POP SWAP7 SWAP6 POP POP POP POP POP POP JUMP JUMPDEST PUSH1 0x0 DUP1 PUSH1 0x0 DUP1 PUSH1 0x0 DUP1 PUSH1 0xC0 DUP8 DUP10 SUB SLT ISZERO PUSH2 0x14BD JUMPI PUSH1 0x0 DUP1 REVERT JUMPDEST DUP7 CALLDATALOAD PUSH8 0xFFFFFFFFFFFFFFFF DUP1 DUP3 GT ISZERO PUSH2 0x14D5 JUMPI PUSH1 0x0 DUP1 REVERT JUMPDEST PUSH2 0x14E1 DUP11 DUP4 DUP12 ADD PUSH2 0x118F JUMP JUMPDEST SWAP8 POP PUSH1 0x20 DUP10 ADD CALLDATALOAD SWAP2 POP DUP1 DUP3 GT ISZERO PUSH2 0x14F7 JUMPI PUSH1 0x0 DUP1 REVERT JUMPDEST PUSH2 0x1503 DUP11 DUP4 DUP12 ADD PUSH2 0x118F JUMP JUMPDEST SWAP7 POP PUSH1 0x40 DUP10 ADD CALLDATALOAD SWAP2 POP DUP1 DUP3 GT ISZERO PUSH2 0x1519 JUMPI PUSH1 0x0 DUP1 REVERT JUMPDEST PUSH2 0x1525 DUP11 DUP4 DUP12 ADD PUSH2 0x118F JUMP JUMPDEST SWAP6 POP PUSH1 0x60 DUP10 ADD CALLDATALOAD SWAP2 POP DUP1 DUP3 GT ISZERO PUSH2 0x153B JUMPI PUSH1 0x0 DUP1 REVERT JUMPDEST PUSH2 0x1547 DUP11 DUP4 DUP12 ADD PUSH2 0x118F JUMP JUMPDEST SWAP5 POP PUSH2 0x1555 PUSH1 0x80 DUP11 ADD PUSH2 0x13D3 JUMP JUMPDEST SWAP4 POP PUSH1 0xA0 DUP10 ADD CALLDATALOAD SWAP2 POP DUP1 DUP3 GT ISZERO PUSH2 0x156B JUMPI PUSH1 0x0 DUP1 REVERT JUMPDEST POP PUSH2 0x1578 DUP10 DUP3 DUP11 ADD PUSH2 0x1414 JUMP JUMPDEST SWAP2 POP POP SWAP3 SWAP6 POP SWAP3 SWAP6 POP SWAP3 SWAP6 JUMP JUMPDEST PUSH1 0x0 PUSH1 0x20 DUP3 DUP5 SUB SLT ISZERO PUSH2 0x1597 JUMPI PUSH1 0x0 DUP1 REVERT JUMPDEST DUP2 CALLDATALOAD PUSH1 0x1 PUSH1 0x1 PUSH1 0xA0 SHL SUB DUP2 AND DUP2 EQ PUSH2 0x15AE JUMPI PUSH1 0x0 DUP1 REVERT JUMPDEST SWAP4 SWAP3 POP POP POP JUMP JUMPDEST PUSH1 0x0 DUP1 PUSH1 0x40 DUP4 DUP6 SUB SLT ISZERO PUSH2 0x15C8 JUMPI PUSH1 0x0 DUP1 REVERT JUMPDEST PUSH2 0x15D1 DUP4 PUSH2 0x13D3 JUMP JUMPDEST SWAP2 POP PUSH1 0x20 DUP4 ADD CALLDATALOAD PUSH8 0xFFFFFFFFFFFFFFFF DUP2 GT ISZERO PUSH2 0x15ED JUMPI PUSH1 0x0 DUP1 REVERT JUMPDEST PUSH2 0x15F9 DUP6 DUP3 DUP7 ADD PUSH2 0x118F JUMP JUMPDEST SWAP2 POP POP SWAP3 POP SWAP3 SWAP1 POP JUMP JUMPDEST PUSH1 0x0 DUP1 PUSH1 0x40 DUP4 DUP6 SUB SLT ISZERO PUSH2 0x1616 JUMPI PUSH1 0x0 DUP1 REVERT JUMPDEST PUSH2 0x161F DUP4 PUSH2 0x13D3 JUMP JUMPDEST SWAP2 POP PUSH1 0x20 DUP1 DUP5 ADD CALLDATALOAD PUSH8 0xFFFFFFFFFFFFFFFF DUP2 GT ISZERO PUSH2 0x163C JUMPI PUSH1 0x0 DUP1 REVERT JUMPDEST DUP5 ADD PUSH1 0x1F DUP2 ADD DUP7 SGT PUSH2 0x164D JUMPI PUSH1 0x0 DUP1 REVERT JUMPDEST DUP1 CALLDATALOAD PUSH2 0x165B PUSH2 0x1435 DUP3 PUSH2 0x13F0 JUMP JUMPDEST DUP2 DUP2 MSTORE PUSH1 0x5 SWAP2 SWAP1 SWAP2 SHL DUP3 ADD DUP4 ADD SWAP1 DUP4 DUP2 ADD SWAP1 DUP9 DUP4 GT ISZERO PUSH2 0x167A JUMPI PUSH1 0x0 DUP1 REVERT JUMPDEST SWAP3 DUP5 ADD SWAP3 JUMPDEST DUP3 DUP5 LT ISZERO PUSH2 0x169F JUMPI PUSH2 0x1690 DUP5 PUSH2 0x13D3 JUMP JUMPDEST DUP3 MSTORE SWAP3 DUP5 ADD SWAP3 SWAP1 DUP5 ADD SWAP1 PUSH2 0x167F JUMP JUMPDEST DUP1 SWAP6 POP POP POP POP POP POP SWAP3 POP SWAP3 SWAP1 POP JUMP JUMPDEST PUSH1 0x0 DUP3 MLOAD PUSH2 0x16C0 DUP2 DUP5 PUSH1 0x20 DUP8 ADD PUSH2 0x123C JUMP JUMPDEST SWAP2 SWAP1 SWAP2 ADD SWAP3 SWAP2 POP POP JUMP JUMPDEST PUSH4 0x4E487B71 PUSH1 0xE0 SHL PUSH1 0x0 MSTORE PUSH1 0x32 PUSH1 0x4 MSTORE PUSH1 0x24 PUSH1 0x0 REVERT JUMPDEST PUSH4 0x4E487B71 PUSH1 0xE0 SHL PUSH1 0x0 MSTORE PUSH1 0x11 PUSH1 0x4 MSTORE PUSH1 0x24 PUSH1 0x0 REVERT JUMPDEST DUP1 DUP3 ADD DUP1 DUP3 GT ISZERO PUSH2 0x1709 JUMPI PUSH2 0x1709 PUSH2 0x16E0 JUMP JUMPDEST SWAP3 SWAP2 POP POP JUMP JUMPDEST PUSH1 0x1 DUP2 DUP2 SHR SWAP1 DUP3 AND DUP1 PUSH2 0x1723 JUMPI PUSH1 0x7F DUP3 AND SWAP2 POP JUMPDEST PUSH1 0x20 DUP3 LT DUP2 SUB PUSH2 0x1743 JUMPI PUSH4 0x4E487B71 PUSH1 0xE0 SHL PUSH1 0x0 MSTORE PUSH1 0x22 PUSH1 0x4 MSTORE PUSH1 0x24 PUSH1 0x0 REVERT JUMPDEST POP SWAP2 SWAP1 POP JUMP JUMPDEST PUSH1 0x0 PUSH1 0x1 DUP3 ADD PUSH2 0x175B JUMPI PUSH2 0x175B PUSH2 0x16E0 JUMP JUMPDEST POP PUSH1 0x1 ADD SWAP1 JUMP JUMPDEST PUSH1 0x1F DUP3 GT ISZERO PUSH2 0xFCA JUMPI PUSH1 0x0 DUP2 PUSH1 0x0 MSTORE PUSH1 0x20 PUSH1 0x0 KECCAK256 PUSH1 0x1F DUP6 ADD PUSH1 0x5 SHR DUP2 ADD PUSH1 0x20 DUP7 LT ISZERO PUSH2 0x178B JUMPI POP DUP1 JUMPDEST PUSH1 0x1F DUP6 ADD PUSH1 0x5 SHR DUP3 ADD SWAP2 POP JUMPDEST DUP2 DUP2 LT ISZERO PUSH2 0x17AA JUMPI DUP3 DUP2 SSTORE PUSH1 0x1 ADD PUSH2 0x1797 JUMP JUMPDEST POP POP POP POP POP POP JUMP JUMPDEST DUP2 MLOAD PUSH8 0xFFFFFFFFFFFFFFFF DUP2 GT ISZERO PUSH2 0x17CC JUMPI PUSH2 0x17CC PUSH2 0x1148 JUMP JUMPDEST PUSH2 0x17E0 DUP2 PUSH2 0x17DA DUP5 SLOAD PUSH2 0x170F JUMP JUMPDEST DUP5 PUSH2 0x1762 JUMP JUMPDEST PUSH1 0x20 DUP1 PUSH1 0x1F DUP4 GT PUSH1 0x1 DUP2 EQ PUSH2 0x1815 JUMPI PUSH1 0x0 DUP5 ISZERO PUSH2 0x17FD JUMPI POP DUP6 DUP4 ADD MLOAD JUMPDEST PUSH1 0x0 NOT PUSH1 0x3 DUP7 SWAP1 SHL SHR NOT AND PUSH1 0x1 DUP6 SWAP1 SHL OR DUP6 SSTORE PUSH2 0x17AA JUMP JUMPDEST PUSH1 0x0 DUP6 DUP2 MSTORE PUSH1 0x20 DUP2 KECCAK256 PUSH1 0x1F NOT DUP7 AND SWAP2 JUMPDEST DUP3 DUP2 LT ISZERO PUSH2 0x1844 JUMPI DUP9 DUP7 ADD MLOAD DUP3 SSTORE SWAP5 DUP5 ADD SWAP5 PUSH1 0x1 SWAP1 SWAP2 ADD SWAP1 DUP5 ADD PUSH2 0x1825 JUMP JUMPDEST POP DUP6 DUP3 LT ISZERO PUSH2 0x1862 JUMPI DUP8 DUP6 ADD MLOAD PUSH1 0x0 NOT PUSH1 0x3 DUP9 SWAP1 SHL PUSH1 0xF8 AND SHR NOT AND DUP2 SSTORE JUMPDEST POP POP POP POP POP PUSH1 0x1 SWAP1 DUP2 SHL ADD SWAP1 SSTORE POP JUMP JUMPDEST PUSH1 0x0 PUSH8 0xFFFFFFFFFFFFFFFF DUP1 DUP4 AND DUP2 DUP2 SUB PUSH2 0x188F JUMPI PUSH2 0x188F PUSH2 0x16E0 JUMP JUMPDEST PUSH1 0x1 ADD SWAP4 SWAP3 POP POP POP JUMP JUMPDEST DUP1 DUP3 MUL DUP2 ISZERO DUP3 DUP3 DIV DUP5 EQ OR PUSH2 0x1709 JUMPI PUSH2 0x1709 PUSH2 0x16E0 JUMP JUMPDEST PUSH1 0x0 DUP3 PUSH2 0x18CD JUMPI PUSH4 0x4E487B71 PUSH1 0xE0 SHL PUSH1 0x0 MSTORE PUSH1 0x12 PUSH1 0x4 MSTORE PUSH1 0x24 PUSH1 0x0 REVERT JUMPDEST POP DIV SWAP1 JUMP JUMPDEST DUP2 DUP2 SUB DUP2 DUP2 GT ISZERO PUSH2 0x1709 JUMPI PUSH2 0x1709 PUSH2 0x16E0 JUMP INVALID LOG2 PUSH5 0x6970667358 0x22 SLT KECCAK256 0xAC ADDRESS SIGNEXTEND PUSH2 0x543 POP 0xAC DUP13 PUSH20 0xDFC9BB769EF91EC1F5C7B1A85AF55370EBA9770D PUSH2 0xB464 PUSH20 0x6F6C634300081600330000000000000000000000 "
        },
        "methodIdentifiers": {
          "addAdmin(address)": "70480275",
          "addComment(uint64,string)": "917b3d69",
          "addVideo(string,string,string,string,uint64,string[])": "6ac307cf",
          "getVideoByNearID(string)": "5eaecd12",
          "setAttributions(uint64,uint64[])": "f239ebd8",
          "setNearID(string)": "60c736cd"
        }
      }
    }
  }
}