{
  "contracts/Atomic.sol": {
    "Atomic": {
      "abi": [
        {
          "inputs": [],
          "stateMutability": "nonpayable",
          "type": "constructor"
        },
        {
          "inputs": [
            {
              "internalType": "address",
              "name": "account",
              "type": "address"
            }
          ],
          "name": "addAdmin",
          "outputs": [],
          "stateMutability": "nonpayable",
          "type": "function"
        },
        {
          "inputs": [
            {
              "internalType": "uint256",
              "name": "video_id",
              "type": "uint256"
            },
            {
              "internalType": "string",
              "name": "comment_message",
              "type": "string"
            }
          ],
          "name": "addComment",
          "outputs": [],
          "stateMutability": "payable",
          "type": "function"
        },
        {
          "inputs": [
            {
              "internalType": "string",
              "name": "_title",
              "type": "string"
            },
            {
              "internalType": "string",
              "name": "_description",
              "type": "string"
            },
            {
              "internalType": "string",
              "name": "_url",
              "type": "string"
            },
            {
              "internalType": "string",
              "name": "_thumb_url",
              "type": "string"
            },
            {
              "internalType": "uint256",
              "name": "_duration",
              "type": "uint256"
            },
            {
              "internalType": "string[]",
              "name": "_keywords",
              "type": "string[]"
            }
          ],
          "name": "addVideo",
          "outputs": [],
          "stateMutability": "nonpayable",
          "type": "function"
        },
        {
          "inputs": [
            {
              "internalType": "uint256",
              "name": "video_id",
              "type": "uint256"
            }
          ],
          "name": "getAttributions",
          "outputs": [
            {
              "internalType": "uint256[]",
              "name": "",
              "type": "uint256[]"
            }
          ],
          "stateMutability": "view",
          "type": "function"
        },
        {
          "inputs": [
            {
              "internalType": "uint256",
              "name": "video_id",
              "type": "uint256"
            }
          ],
          "name": "getComments",
          "outputs": [
            {
              "components": [
                {
                  "internalType": "address",
                  "name": "poster",
                  "type": "address"
                },
                {
                  "internalType": "string",
                  "name": "message",
                  "type": "string"
                },
                {
                  "internalType": "uint256",
                  "name": "amount",
                  "type": "uint256"
                },
                {
                  "internalType": "uint256",
                  "name": "timestamp",
                  "type": "uint256"
                }
              ],
              "internalType": "struct Atomic.Comment[]",
              "name": "",
              "type": "tuple[]"
            }
          ],
          "stateMutability": "view",
          "type": "function"
        },
        {
          "inputs": [
            {
              "internalType": "uint256",
              "name": "size",
              "type": "uint256"
            }
          ],
          "name": "getLatestVideos",
          "outputs": [
            {
              "components": [
                {
                  "internalType": "uint256",
                  "name": "id",
                  "type": "uint256"
                },
                {
                  "internalType": "string",
                  "name": "title",
                  "type": "string"
                },
                {
                  "internalType": "string",
                  "name": "description",
                  "type": "string"
                },
                {
                  "internalType": "string",
                  "name": "url",
                  "type": "string"
                },
                {
                  "internalType": "string",
                  "name": "thumb_url",
                  "type": "string"
                },
                {
                  "internalType": "string[]",
                  "name": "keywords",
                  "type": "string[]"
                },
                {
                  "internalType": "uint256",
                  "name": "duration",
                  "type": "uint256"
                },
                {
                  "internalType": "uint256",
                  "name": "timestamp",
                  "type": "uint256"
                }
              ],
              "internalType": "struct Atomic.Video[]",
              "name": "",
              "type": "tuple[]"
            }
          ],
          "stateMutability": "view",
          "type": "function"
        },
        {
          "inputs": [
            {
              "internalType": "string",
              "name": "_near_id",
              "type": "string"
            }
          ],
          "name": "getVideoByNearID",
          "outputs": [
            {
              "components": [
                {
                  "internalType": "uint256",
                  "name": "id",
                  "type": "uint256"
                },
                {
                  "internalType": "string",
                  "name": "title",
                  "type": "string"
                },
                {
                  "internalType": "string",
                  "name": "description",
                  "type": "string"
                },
                {
                  "internalType": "string",
                  "name": "url",
                  "type": "string"
                },
                {
                  "internalType": "string",
                  "name": "thumb_url",
                  "type": "string"
                },
                {
                  "internalType": "string[]",
                  "name": "keywords",
                  "type": "string[]"
                },
                {
                  "internalType": "uint256",
                  "name": "duration",
                  "type": "uint256"
                },
                {
                  "internalType": "uint256",
                  "name": "timestamp",
                  "type": "uint256"
                }
              ],
              "internalType": "struct Atomic.Video[]",
              "name": "",
              "type": "tuple[]"
            }
          ],
          "stateMutability": "view",
          "type": "function"
        },
        {
          "inputs": [
            {
              "internalType": "uint256",
              "name": "video_id",
              "type": "uint256"
            },
            {
              "internalType": "uint256[]",
              "name": "attributions",
              "type": "uint256[]"
            }
          ],
          "name": "setAttributions",
          "outputs": [],
          "stateMutability": "nonpayable",
          "type": "function"
        },
        {
          "inputs": [
            {
              "internalType": "string",
              "name": "_near_id",
              "type": "string"
            }
          ],
          "name": "setNearID",
          "outputs": [],
          "stateMutability": "nonpayable",
          "type": "function"
        }
      ],
      "evm": {
        "bytecode": {
          "linkReferences": {},
          "object": "608060405260018055600160025534801561001957600080fd5b50600080546001600160a01b0319163317905561200e8061003b6000396000f3fe6080604052600436106100965760003560e01c80635eaecd1211610069578063704802751161004e578063704802751461018e5780638799bd74146101ae578063aa7e5683146101ce57600080fd5b80635eaecd121461014157806360c736cd1461016e57600080fd5b8063051cb30d1461009b578063210e07df146100d257806323edf697146100f457806338abafa014610121575b600080fd5b3480156100a757600080fd5b506100bc6100b63660046117aa565b50606090565b6040516100c991906117c3565b60405180910390f35b3480156100de57600080fd5b506100f26100ed366004611972565b6101e1565b005b34801561010057600080fd5b5061011461010f3660046117aa565b61031e565b6040516100c99190611a9c565b34801561012d57600080fd5b506100f261013c366004611b32565b610514565b34801561014d57600080fd5b5061016161015c366004611bcf565b610607565b6040516100c99190611c66565b34801561017a57600080fd5b506100f2610189366004611bcf565b610bda565b34801561019a57600080fd5b506100f26101a9366004611d51565b610cb5565b3480156101ba57600080fd5b506101616101c93660046117aa565b610d89565b6100f26101dc366004611d81565b6111dc565b60018054600091826101f283611dde565b90915550604080516101008101825282815260208082018b81528284018b9052606083018a90526080830189905260a0830187905260c083018890524260e08401526000858152600890925292902081518155915192935091600182019061025a9082611e81565b506040820151600282019061026f9082611e81565b50606082015160038201906102849082611e81565b50608082015160048201906102999082611e81565b5060a082015180516102b59160058401916020909101906116a1565b5060c082015160068083019190915560e090920151600791820155600083815260209182526040808220805473ffffffffffffffffffffffffffffffffffffffff1916339081179091558252928252918220805460018101825590835291200155505050505050565b6000818152600960205260408120546060919067ffffffffffffffff81111561034957610349611807565b6040519080825280602002602001820160405280156103ae57816020015b61039b604051806080016040528060006001600160a01b031681526020016060815260200160008152602001600081525090565b8152602001906001900390816103675790505b50905060005b60008481526009602052604090205481101561050d5760008481526009602052604081208054600a929190849081106103ef576103ef611f41565b906000526020600020015481526020019081526020016000206040518060800160405290816000820160009054906101000a90046001600160a01b03166001600160a01b03166001600160a01b0316815260200160018201805461045290611df7565b80601f016020809104026020016040519081016040528092919081815260200182805461047e90611df7565b80156104cb5780601f106104a0576101008083540402835291602001916104cb565b820191906000526020600020905b8154815290600101906020018083116104ae57829003601f168201915b50505050508152602001600282015481526020016003820154815250508282815181106104fa576104fa611f41565b60209081029190910101526001016103b4565b5092915050565b6000828152600760205260409020546001600160a01b0316331461057f5760405162461bcd60e51b815260206004820152601960248201527f596f7520646f206e6f74206f776e2074686520766964656f2e0000000000000060448201526064015b60405180910390fd5b6000828152600760205260409020546001600160a01b03166105e35760405162461bcd60e51b815260206004820152601160248201527f566964656f206d7573742065786973742e0000000000000000000000000000006044820152606401610576565b6000828152600b602090815260409091208251610602928401906116f7565b505050565b60606000805b60048460405161061d9190611f57565b908152604051908190036020019020548110156106a057600660006004866040516106489190611f57565b9081526020016040518091039020838154811061066757610667611f41565b60009182526020808320909101546001600160a01b031683528201929092526040019020546106969083611f73565b915060010161060d565b5060008167ffffffffffffffff8111156106bc576106bc611807565b60405190808252806020026020018201604052801561073557816020015b61072260405180610100016040528060008152602001606081526020016060815260200160608152602001606081526020016060815260200160008152602001600081525090565b8152602001906001900390816106da5790505b5090506000805b60048660405161074c9190611f57565b90815260405190819003602001902054811015610bd05760005b6006600060048960405161077a9190611f57565b9081526020016040518091039020848154811061079957610799611f41565b60009182526020808320909101546001600160a01b03168352820192909252604001902054811015610bc757600860006006600060048b6040516107dd9190611f57565b908152602001604051809103902086815481106107fc576107fc611f41565b60009182526020808320909101546001600160a01b03168352820192909252604001902080548490811061083257610832611f41565b90600052602060002001548152602001908152602001600020604051806101000160405290816000820154815260200160018201805461087190611df7565b80601f016020809104026020016040519081016040528092919081815260200182805461089d90611df7565b80156108ea5780601f106108bf576101008083540402835291602001916108ea565b820191906000526020600020905b8154815290600101906020018083116108cd57829003601f168201915b5050505050815260200160028201805461090390611df7565b80601f016020809104026020016040519081016040528092919081815260200182805461092f90611df7565b801561097c5780601f106109515761010080835404028352916020019161097c565b820191906000526020600020905b81548152906001019060200180831161095f57829003601f168201915b5050505050815260200160038201805461099590611df7565b80601f01602080910402602001604051908101604052809291908181526020018280546109c190611df7565b8015610a0e5780601f106109e357610100808354040283529160200191610a0e565b820191906000526020600020905b8154815290600101906020018083116109f157829003601f168201915b50505050508152602001600482018054610a2790611df7565b80601f0160208091040260200160405190810160405280929190818152602001828054610a5390611df7565b8015610aa05780601f10610a7557610100808354040283529160200191610aa0565b820191906000526020600020905b815481529060010190602001808311610a8357829003601f168201915b5050505050815260200160058201805480602002602001604051908101604052809291908181526020016000905b82821015610b7a578382906000526020600020018054610aed90611df7565b80601f0160208091040260200160405190810160405280929190818152602001828054610b1990611df7565b8015610b665780601f10610b3b57610100808354040283529160200191610b66565b820191906000526020600020905b815481529060010190602001808311610b4957829003601f168201915b505050505081526020019060010190610ace565b50505050815260200160068201548152602001600782015481525050848480610ba290611dde565b955081518110610bb457610bb4611f41565b6020908102919091010152600101610766565b5060010161073c565b5090949350505050565b336000908152600360205260409020610bf38282611e81565b50600581604051610c049190611f57565b9081526040805160209281900383019020336000908152925290205460ff16610cb257600481604051610c379190611f57565b908152604051908190036020908101822080546001818101835560009283529290912001805473ffffffffffffffffffffffffffffffffffffffff19163317905590600590610c87908490611f57565b908152604080516020928190038301902033600090815292529020805460ff19169115159190911790555b50565b6000546001600160a01b03163314610d0f5760405162461bcd60e51b815260206004820152600d60248201527f4163636573732044656e696564000000000000000000000000000000000000006044820152606401610576565b6040517f61646d696e0000000000000000000000000000000000000000000000000000008152600c90600501908152604051602091819003820190208054600181018255600091825291902001805473ffffffffffffffffffffffffffffffffffffffff19166001600160a01b0392909216919091179055565b606060008260015411610d9e57600154610da0565b825b67ffffffffffffffff811115610db857610db8611807565b604051908082528060200260200182016040528015610e3157816020015b610e1e60405180610100016040528060008152602001606081526020016060815260200160608152602001606081526020016060815260200160008152602001600081525090565b815260200190600190039081610dd65790505b50905060005b815181101561050d5760086000600183600154610e549190611f8c565b610e5e9190611f8c565b81526020019081526020016000206040518061010001604052908160008201548152602001600182018054610e9290611df7565b80601f0160208091040260200160405190810160405280929190818152602001828054610ebe90611df7565b8015610f0b5780601f10610ee057610100808354040283529160200191610f0b565b820191906000526020600020905b815481529060010190602001808311610eee57829003601f168201915b50505050508152602001600282018054610f2490611df7565b80601f0160208091040260200160405190810160405280929190818152602001828054610f5090611df7565b8015610f9d5780601f10610f7257610100808354040283529160200191610f9d565b820191906000526020600020905b815481529060010190602001808311610f8057829003601f168201915b50505050508152602001600382018054610fb690611df7565b80601f0160208091040260200160405190810160405280929190818152602001828054610fe290611df7565b801561102f5780601f106110045761010080835404028352916020019161102f565b820191906000526020600020905b81548152906001019060200180831161101257829003601f168201915b5050505050815260200160048201805461104890611df7565b80601f016020809104026020016040519081016040528092919081815260200182805461107490611df7565b80156110c15780601f10611096576101008083540402835291602001916110c1565b820191906000526020600020905b8154815290600101906020018083116110a457829003601f168201915b5050505050815260200160058201805480602002602001604051908101604052809291908181526020016000905b8282101561119b57838290600052602060002001805461110e90611df7565b80601f016020809104026020016040519081016040528092919081815260200182805461113a90611df7565b80156111875780601f1061115c57610100808354040283529160200191611187565b820191906000526020600020905b81548152906001019060200180831161116a57829003601f168201915b5050505050815260200190600101906110ef565b505050508152602001600682015481526020016007820154815250508282815181106111c9576111c9611f41565b6020908102919091010152600101610e37565b6000828152600760205260409020546001600160a01b03166112405760405162461bcd60e51b815260206004820152601160248201527f566964656f206d7573742065786973742e0000000000000000000000000000006044820152606401610576565b34156115e357600082815260076020526040902054336001600160a01b03909116036112d45760405162461bcd60e51b815260206004820152602660248201527f596f752063616e6e6f7420737570657263686174206f6e20796f7572206f776e60448201527f20766964656f00000000000000000000000000000000000000000000000000006064820152608401610576565b6000600a6112e3346009611f9f565b6112ed9190611fb6565b60008054919250906001600160a01b03166113088334611f8c565b604051600081818185875af1925050503d8060008114611344576040519150601f19603f3d011682016040523d82523d6000602084013e611349565b606091505b505090508061139a5760405162461bcd60e51b815260206004820152601d60248201527f4661696c656420746f2073656e6420457468657220746f206f776e65720000006044820152606401610576565b6000848152600b60205260408120546113b4906001611f73565b905060006113c28285611fb6565b905060005b6000878152600b60205260409020548110156114ed576000878152600b602052604081208054839081106113fd576113fd611f41565b600091825260208083209190910154808352600790915260408083205490519193506001600160a01b03169190829086908381818185875af1925050503d8060008114611466576040519150601f19603f3d011682016040523d82523d6000602084013e61146b565b606091505b50509050806114e25760405162461bcd60e51b815260206004820152602160248201527f4661696c656420746f2073656e6420457468657220746f20612063726561746f60448201527f72000000000000000000000000000000000000000000000000000000000000006064820152608401610576565b5050506001016113c7565b506000868152600760205260408120546001600160a01b0316611511600185611f8c565b61151b9084611f9f565b6115259087611f8c565b604051600081818185875af1925050503d8060008114611561576040519150601f19603f3d011682016040523d82523d6000602084013e611566565b606091505b50509050806115dd5760405162461bcd60e51b815260206004820152602360248201527f4661696c656420746f2073656e6420457468657220746f20746865206372656160448201527f746f7200000000000000000000000000000000000000000000000000000000006064820152608401610576565b50505050505b60028054600091826115f483611dde565b9091555060408051608081018252338152602080820186815234838501524260608401526000858152600a9092529290208151815473ffffffffffffffffffffffffffffffffffffffff19166001600160a01b0390911617815591519293509160018201906116639082611e81565b506040828101516002830155606090920151600390910155600093845260096020908152908420805460018101825590855293209092019190915550565b8280548282559060005260206000209081019282156116e7579160200282015b828111156116e757825182906116d79082611e81565b50916020019190600101906116c1565b506116f392915061173e565b5090565b828054828255906000526020600020908101928215611732579160200282015b82811115611732578251825591602001919060010190611717565b506116f392915061175b565b808211156116f35760006117528282611770565b5060010161173e565b5b808211156116f3576000815560010161175c565b50805461177c90611df7565b6000825580601f1061178c575050565b601f016020900490600052602060002090810190610cb2919061175b565b6000602082840312156117bc57600080fd5b5035919050565b6020808252825182820181905260009190848201906040850190845b818110156117fb578351835292840192918401916001016117df565b50909695505050505050565b634e487b7160e01b600052604160045260246000fd5b604051601f8201601f1916810167ffffffffffffffff8111828210171561184657611846611807565b604052919050565b600082601f83011261185f57600080fd5b813567ffffffffffffffff81111561187957611879611807565b61188c601f8201601f191660200161181d565b8181528460208386010111156118a157600080fd5b816020850160208301376000918101602001919091529392505050565b600067ffffffffffffffff8211156118d8576118d8611807565b5060051b60200190565b600082601f8301126118f357600080fd5b81356020611908611903836118be565b61181d565b82815260059290921b8401810191818101908684111561192757600080fd5b8286015b8481101561196757803567ffffffffffffffff81111561194b5760008081fd5b6119598986838b010161184e565b84525091830191830161192b565b509695505050505050565b60008060008060008060c0878903121561198b57600080fd5b863567ffffffffffffffff808211156119a357600080fd5b6119af8a838b0161184e565b975060208901359150808211156119c557600080fd5b6119d18a838b0161184e565b965060408901359150808211156119e757600080fd5b6119f38a838b0161184e565b95506060890135915080821115611a0957600080fd5b611a158a838b0161184e565b94506080890135935060a0890135915080821115611a3257600080fd5b50611a3f89828a016118e2565b9150509295509295509295565b60005b83811015611a67578181015183820152602001611a4f565b50506000910152565b60008151808452611a88816020860160208601611a4c565b601f01601f19169290920160200192915050565b600060208083018184528085518083526040925060408601915060408160051b87010184880160005b83811015611b2457603f19898403018552815160806001600160a01b03825116855288820151818a870152611afc82870182611a70565b838a0151878b0152606093840151939096019290925250509386019390860190600101611ac5565b509098975050505050505050565b60008060408385031215611b4557600080fd5b8235915060208084013567ffffffffffffffff811115611b6457600080fd5b8401601f81018613611b7557600080fd5b8035611b83611903826118be565b81815260059190911b82018301908381019088831115611ba257600080fd5b928401925b82841015611bc057833582529284019290840190611ba7565b80955050505050509250929050565b600060208284031215611be157600080fd5b813567ffffffffffffffff811115611bf857600080fd5b611c048482850161184e565b949350505050565b60008282518085526020808601955060208260051b8401016020860160005b84811015611c5957601f19868403018952611c47838351611a70565b98840198925090830190600101611c2b565b5090979650505050505050565b600060208083018184528085518083526040925060408601915060408160051b87010184880160005b83811015611b2457603f1989840301855281516101008151855288820151818a870152611cbe82870182611a70565b9150508782015185820389870152611cd68282611a70565b91505060608083015186830382880152611cf08382611a70565b9250505060808083015186830382880152611d0b8382611a70565b9250505060a08083015186830382880152611d268382611c0c565b60c0858101519089015260e09485015194909701939093525050509386019390860190600101611c8f565b600060208284031215611d6357600080fd5b81356001600160a01b0381168114611d7a57600080fd5b9392505050565b60008060408385031215611d9457600080fd5b82359150602083013567ffffffffffffffff811115611db257600080fd5b611dbe8582860161184e565b9150509250929050565b634e487b7160e01b600052601160045260246000fd5b600060018201611df057611df0611dc8565b5060010190565b600181811c90821680611e0b57607f821691505b602082108103611e2b57634e487b7160e01b600052602260045260246000fd5b50919050565b601f821115610602576000816000526020600020601f850160051c81016020861015611e5a5750805b601f850160051c820191505b81811015611e7957828155600101611e66565b505050505050565b815167ffffffffffffffff811115611e9b57611e9b611807565b611eaf81611ea98454611df7565b84611e31565b602080601f831160018114611ee45760008415611ecc5750858301515b600019600386901b1c1916600185901b178555611e79565b600085815260208120601f198616915b82811015611f1357888601518255948401946001909101908401611ef4565b5085821015611f315787850151600019600388901b60f8161c191681555b5050505050600190811b01905550565b634e487b7160e01b600052603260045260246000fd5b60008251611f69818460208701611a4c565b9190910192915050565b80820180821115611f8657611f86611dc8565b92915050565b81810381811115611f8657611f86611dc8565b8082028115828204841417611f8657611f86611dc8565b600082611fd357634e487b7160e01b600052601260045260246000fd5b50049056fea2646970667358221220802976233ef4e303d3cf75a1e7feb90ff75ae55ccd48f82c2e73fe1d3648c62564736f6c63430008160033",
          "opcodes": "PUSH1 0x80 PUSH1 0x40 MSTORE PUSH1 0x1 DUP1 SSTORE PUSH1 0x1 PUSH1 0x2 SSTORE CALLVALUE DUP1 ISZERO PUSH2 0x19 JUMPI PUSH1 0x0 DUP1 REVERT JUMPDEST POP PUSH1 0x0 DUP1 SLOAD PUSH1 0x1 PUSH1 0x1 PUSH1 0xA0 SHL SUB NOT AND CALLER OR SWAP1 SSTORE PUSH2 0x200E DUP1 PUSH2 0x3B PUSH1 0x0 CODECOPY PUSH1 0x0 RETURN INVALID PUSH1 0x80 PUSH1 0x40 MSTORE PUSH1 0x4 CALLDATASIZE LT PUSH2 0x96 JUMPI PUSH1 0x0 CALLDATALOAD PUSH1 0xE0 SHR DUP1 PUSH4 0x5EAECD12 GT PUSH2 0x69 JUMPI DUP1 PUSH4 0x70480275 GT PUSH2 0x4E JUMPI DUP1 PUSH4 0x70480275 EQ PUSH2 0x18E JUMPI DUP1 PUSH4 0x8799BD74 EQ PUSH2 0x1AE JUMPI DUP1 PUSH4 0xAA7E5683 EQ PUSH2 0x1CE JUMPI PUSH1 0x0 DUP1 REVERT JUMPDEST DUP1 PUSH4 0x5EAECD12 EQ PUSH2 0x141 JUMPI DUP1 PUSH4 0x60C736CD EQ PUSH2 0x16E JUMPI PUSH1 0x0 DUP1 REVERT JUMPDEST DUP1 PUSH4 0x51CB30D EQ PUSH2 0x9B JUMPI DUP1 PUSH4 0x210E07DF EQ PUSH2 0xD2 JUMPI DUP1 PUSH4 0x23EDF697 EQ PUSH2 0xF4 JUMPI DUP1 PUSH4 0x38ABAFA0 EQ PUSH2 0x121 JUMPI JUMPDEST PUSH1 0x0 DUP1 REVERT JUMPDEST CALLVALUE DUP1 ISZERO PUSH2 0xA7 JUMPI PUSH1 0x0 DUP1 REVERT JUMPDEST POP PUSH2 0xBC PUSH2 0xB6 CALLDATASIZE PUSH1 0x4 PUSH2 0x17AA JUMP JUMPDEST POP PUSH1 0x60 SWAP1 JUMP JUMPDEST PUSH1 0x40 MLOAD PUSH2 0xC9 SWAP2 SWAP1 PUSH2 0x17C3 JUMP JUMPDEST PUSH1 0x40 MLOAD DUP1 SWAP2 SUB SWAP1 RETURN JUMPDEST CALLVALUE DUP1 ISZERO PUSH2 0xDE JUMPI PUSH1 0x0 DUP1 REVERT JUMPDEST POP PUSH2 0xF2 PUSH2 0xED CALLDATASIZE PUSH1 0x4 PUSH2 0x1972 JUMP JUMPDEST PUSH2 0x1E1 JUMP JUMPDEST STOP JUMPDEST CALLVALUE DUP1 ISZERO PUSH2 0x100 JUMPI PUSH1 0x0 DUP1 REVERT JUMPDEST POP PUSH2 0x114 PUSH2 0x10F CALLDATASIZE PUSH1 0x4 PUSH2 0x17AA JUMP JUMPDEST PUSH2 0x31E JUMP JUMPDEST PUSH1 0x40 MLOAD PUSH2 0xC9 SWAP2 SWAP1 PUSH2 0x1A9C JUMP JUMPDEST CALLVALUE DUP1 ISZERO PUSH2 0x12D JUMPI PUSH1 0x0 DUP1 REVERT JUMPDEST POP PUSH2 0xF2 PUSH2 0x13C CALLDATASIZE PUSH1 0x4 PUSH2 0x1B32 JUMP JUMPDEST PUSH2 0x514 JUMP JUMPDEST CALLVALUE DUP1 ISZERO PUSH2 0x14D JUMPI PUSH1 0x0 DUP1 REVERT JUMPDEST POP PUSH2 0x161 PUSH2 0x15C CALLDATASIZE PUSH1 0x4 PUSH2 0x1BCF JUMP JUMPDEST PUSH2 0x607 JUMP JUMPDEST PUSH1 0x40 MLOAD PUSH2 0xC9 SWAP2 SWAP1 PUSH2 0x1C66 JUMP JUMPDEST CALLVALUE DUP1 ISZERO PUSH2 0x17A JUMPI PUSH1 0x0 DUP1 REVERT JUMPDEST POP PUSH2 0xF2 PUSH2 0x189 CALLDATASIZE PUSH1 0x4 PUSH2 0x1BCF JUMP JUMPDEST PUSH2 0xBDA JUMP JUMPDEST CALLVALUE DUP1 ISZERO PUSH2 0x19A JUMPI PUSH1 0x0 DUP1 REVERT JUMPDEST POP PUSH2 0xF2 PUSH2 0x1A9 CALLDATASIZE PUSH1 0x4 PUSH2 0x1D51 JUMP JUMPDEST PUSH2 0xCB5 JUMP JUMPDEST CALLVALUE DUP1 ISZERO PUSH2 0x1BA JUMPI PUSH1 0x0 DUP1 REVERT JUMPDEST POP PUSH2 0x161 PUSH2 0x1C9 CALLDATASIZE PUSH1 0x4 PUSH2 0x17AA JUMP JUMPDEST PUSH2 0xD89 JUMP JUMPDEST PUSH2 0xF2 PUSH2 0x1DC CALLDATASIZE PUSH1 0x4 PUSH2 0x1D81 JUMP JUMPDEST PUSH2 0x11DC JUMP JUMPDEST PUSH1 0x1 DUP1 SLOAD PUSH1 0x0 SWAP2 DUP3 PUSH2 0x1F2 DUP4 PUSH2 0x1DDE JUMP JUMPDEST SWAP1 SWAP2 SSTORE POP PUSH1 0x40 DUP1 MLOAD PUSH2 0x100 DUP2 ADD DUP3 MSTORE DUP3 DUP2 MSTORE PUSH1 0x20 DUP1 DUP3 ADD DUP12 DUP2 MSTORE DUP3 DUP5 ADD DUP12 SWAP1 MSTORE PUSH1 0x60 DUP4 ADD DUP11 SWAP1 MSTORE PUSH1 0x80 DUP4 ADD DUP10 SWAP1 MSTORE PUSH1 0xA0 DUP4 ADD DUP8 SWAP1 MSTORE PUSH1 0xC0 DUP4 ADD DUP9 SWAP1 MSTORE TIMESTAMP PUSH1 0xE0 DUP5 ADD MSTORE PUSH1 0x0 DUP6 DUP2 MSTORE PUSH1 0x8 SWAP1 SWAP3 MSTORE SWAP3 SWAP1 KECCAK256 DUP2 MLOAD DUP2 SSTORE SWAP2 MLOAD SWAP3 SWAP4 POP SWAP2 PUSH1 0x1 DUP3 ADD SWAP1 PUSH2 0x25A SWAP1 DUP3 PUSH2 0x1E81 JUMP JUMPDEST POP PUSH1 0x40 DUP3 ADD MLOAD PUSH1 0x2 DUP3 ADD SWAP1 PUSH2 0x26F SWAP1 DUP3 PUSH2 0x1E81 JUMP JUMPDEST POP PUSH1 0x60 DUP3 ADD MLOAD PUSH1 0x3 DUP3 ADD SWAP1 PUSH2 0x284 SWAP1 DUP3 PUSH2 0x1E81 JUMP JUMPDEST POP PUSH1 0x80 DUP3 ADD MLOAD PUSH1 0x4 DUP3 ADD SWAP1 PUSH2 0x299 SWAP1 DUP3 PUSH2 0x1E81 JUMP JUMPDEST POP PUSH1 0xA0 DUP3 ADD MLOAD DUP1 MLOAD PUSH2 0x2B5 SWAP2 PUSH1 0x5 DUP5 ADD SWAP2 PUSH1 0x20 SWAP1 SWAP2 ADD SWAP1 PUSH2 0x16A1 JUMP JUMPDEST POP PUSH1 0xC0 DUP3 ADD MLOAD PUSH1 0x6 DUP1 DUP4 ADD SWAP2 SWAP1 SWAP2 SSTORE PUSH1 0xE0 SWAP1 SWAP3 ADD MLOAD PUSH1 0x7 SWAP2 DUP3 ADD SSTORE PUSH1 0x0 DUP4 DUP2 MSTORE PUSH1 0x20 SWAP2 DUP3 MSTORE PUSH1 0x40 DUP1 DUP3 KECCAK256 DUP1 SLOAD PUSH20 0xFFFFFFFFFFFFFFFFFFFFFFFFFFFFFFFFFFFFFFFF NOT AND CALLER SWAP1 DUP2 OR SWAP1 SWAP2 SSTORE DUP3 MSTORE SWAP3 DUP3 MSTORE SWAP2 DUP3 KECCAK256 DUP1 SLOAD PUSH1 0x1 DUP2 ADD DUP3 SSTORE SWAP1 DUP4 MSTORE SWAP2 KECCAK256 ADD SSTORE POP POP POP POP POP POP JUMP JUMPDEST PUSH1 0x0 DUP2 DUP2 MSTORE PUSH1 0x9 PUSH1 0x20 MSTORE PUSH1 0x40 DUP2 KECCAK256 SLOAD PUSH1 0x60 SWAP2 SWAP1 PUSH8 0xFFFFFFFFFFFFFFFF DUP2 GT ISZERO PUSH2 0x349 JUMPI PUSH2 0x349 PUSH2 0x1807 JUMP JUMPDEST PUSH1 0x40 MLOAD SWAP1 DUP1 DUP3 MSTORE DUP1 PUSH1 0x20 MUL PUSH1 0x20 ADD DUP3 ADD PUSH1 0x40 MSTORE DUP1 ISZERO PUSH2 0x3AE JUMPI DUP2 PUSH1 0x20 ADD JUMPDEST PUSH2 0x39B PUSH1 0x40 MLOAD DUP1 PUSH1 0x80 ADD PUSH1 0x40 MSTORE DUP1 PUSH1 0x0 PUSH1 0x1 PUSH1 0x1 PUSH1 0xA0 SHL SUB AND DUP2 MSTORE PUSH1 0x20 ADD PUSH1 0x60 DUP2 MSTORE PUSH1 0x20 ADD PUSH1 0x0 DUP2 MSTORE PUSH1 0x20 ADD PUSH1 0x0 DUP2 MSTORE POP SWAP1 JUMP JUMPDEST DUP2 MSTORE PUSH1 0x20 ADD SWAP1 PUSH1 0x1 SWAP1 SUB SWAP1 DUP2 PUSH2 0x367 JUMPI SWAP1 POP JUMPDEST POP SWAP1 POP PUSH1 0x0 JUMPDEST PUSH1 0x0 DUP5 DUP2 MSTORE PUSH1 0x9 PUSH1 0x20 MSTORE PUSH1 0x40 SWAP1 KECCAK256 SLOAD DUP2 LT ISZERO PUSH2 0x50D JUMPI PUSH1 0x0 DUP5 DUP2 MSTORE PUSH1 0x9 PUSH1 0x20 MSTORE PUSH1 0x40 DUP2 KECCAK256 DUP1 SLOAD PUSH1 0xA SWAP3 SWAP2 SWAP1 DUP5 SWAP1 DUP2 LT PUSH2 0x3EF JUMPI PUSH2 0x3EF PUSH2 0x1F41 JUMP JUMPDEST SWAP1 PUSH1 0x0 MSTORE PUSH1 0x20 PUSH1 0x0 KECCAK256 ADD SLOAD DUP2 MSTORE PUSH1 0x20 ADD SWAP1 DUP2 MSTORE PUSH1 0x20 ADD PUSH1 0x0 KECCAK256 PUSH1 0x40 MLOAD DUP1 PUSH1 0x80 ADD PUSH1 0x40 MSTORE SWAP1 DUP2 PUSH1 0x0 DUP3 ADD PUSH1 0x0 SWAP1 SLOAD SWAP1 PUSH2 0x100 EXP SWAP1 DIV PUSH1 0x1 PUSH1 0x1 PUSH1 0xA0 SHL SUB AND PUSH1 0x1 PUSH1 0x1 PUSH1 0xA0 SHL SUB AND PUSH1 0x1 PUSH1 0x1 PUSH1 0xA0 SHL SUB AND DUP2 MSTORE PUSH1 0x20 ADD PUSH1 0x1 DUP3 ADD DUP1 SLOAD PUSH2 0x452 SWAP1 PUSH2 0x1DF7 JUMP JUMPDEST DUP1 PUSH1 0x1F ADD PUSH1 0x20 DUP1 SWAP2 DIV MUL PUSH1 0x20 ADD PUSH1 0x40 MLOAD SWAP1 DUP2 ADD PUSH1 0x40 MSTORE DUP1 SWAP3 SWAP2 SWAP1 DUP2 DUP2 MSTORE PUSH1 0x20 ADD DUP3 DUP1 SLOAD PUSH2 0x47E SWAP1 PUSH2 0x1DF7 JUMP JUMPDEST DUP1 ISZERO PUSH2 0x4CB JUMPI DUP1 PUSH1 0x1F LT PUSH2 0x4A0 JUMPI PUSH2 0x100 DUP1 DUP4 SLOAD DIV MUL DUP4 MSTORE SWAP2 PUSH1 0x20 ADD SWAP2 PUSH2 0x4CB JUMP JUMPDEST DUP3 ADD SWAP2 SWAP1 PUSH1 0x0 MSTORE PUSH1 0x20 PUSH1 0x0 KECCAK256 SWAP1 JUMPDEST DUP2 SLOAD DUP2 MSTORE SWAP1 PUSH1 0x1 ADD SWAP1 PUSH1 0x20 ADD DUP1 DUP4 GT PUSH2 0x4AE JUMPI DUP3 SWAP1 SUB PUSH1 0x1F AND DUP3 ADD SWAP2 JUMPDEST POP POP POP POP POP DUP2 MSTORE PUSH1 0x20 ADD PUSH1 0x2 DUP3 ADD SLOAD DUP2 MSTORE PUSH1 0x20 ADD PUSH1 0x3 DUP3 ADD SLOAD DUP2 MSTORE POP POP DUP3 DUP3 DUP2 MLOAD DUP2 LT PUSH2 0x4FA JUMPI PUSH2 0x4FA PUSH2 0x1F41 JUMP JUMPDEST PUSH1 0x20 SWAP1 DUP2 MUL SWAP2 SWAP1 SWAP2 ADD ADD MSTORE PUSH1 0x1 ADD PUSH2 0x3B4 JUMP JUMPDEST POP SWAP3 SWAP2 POP POP JUMP JUMPDEST PUSH1 0x0 DUP3 DUP2 MSTORE PUSH1 0x7 PUSH1 0x20 MSTORE PUSH1 0x40 SWAP1 KECCAK256 SLOAD PUSH1 0x1 PUSH1 0x1 PUSH1 0xA0 SHL SUB AND CALLER EQ PUSH2 0x57F JUMPI PUSH1 0x40 MLOAD PUSH3 0x461BCD PUSH1 0xE5 SHL DUP2 MSTORE PUSH1 0x20 PUSH1 0x4 DUP3 ADD MSTORE PUSH1 0x19 PUSH1 0x24 DUP3 ADD MSTORE PUSH32 0x596F7520646F206E6F74206F776E2074686520766964656F2E00000000000000 PUSH1 0x44 DUP3 ADD MSTORE PUSH1 0x64 ADD JUMPDEST PUSH1 0x40 MLOAD DUP1 SWAP2 SUB SWAP1 REVERT JUMPDEST PUSH1 0x0 DUP3 DUP2 MSTORE PUSH1 0x7 PUSH1 0x20 MSTORE PUSH1 0x40 SWAP1 KECCAK256 SLOAD PUSH1 0x1 PUSH1 0x1 PUSH1 0xA0 SHL SUB AND PUSH2 0x5E3 JUMPI PUSH1 0x40 MLOAD PUSH3 0x461BCD PUSH1 0xE5 SHL DUP2 MSTORE PUSH1 0x20 PUSH1 0x4 DUP3 ADD MSTORE PUSH1 0x11 PUSH1 0x24 DUP3 ADD MSTORE PUSH32 0x566964656F206D7573742065786973742E000000000000000000000000000000 PUSH1 0x44 DUP3 ADD MSTORE PUSH1 0x64 ADD PUSH2 0x576 JUMP JUMPDEST PUSH1 0x0 DUP3 DUP2 MSTORE PUSH1 0xB PUSH1 0x20 SWAP1 DUP2 MSTORE PUSH1 0x40 SWAP1 SWAP2 KECCAK256 DUP3 MLOAD PUSH2 0x602 SWAP3 DUP5 ADD SWAP1 PUSH2 0x16F7 JUMP JUMPDEST POP POP POP JUMP JUMPDEST PUSH1 0x60 PUSH1 0x0 DUP1 JUMPDEST PUSH1 0x4 DUP5 PUSH1 0x40 MLOAD PUSH2 0x61D SWAP2 SWAP1 PUSH2 0x1F57 JUMP JUMPDEST SWAP1 DUP2 MSTORE PUSH1 0x40 MLOAD SWAP1 DUP2 SWAP1 SUB PUSH1 0x20 ADD SWAP1 KECCAK256 SLOAD DUP2 LT ISZERO PUSH2 0x6A0 JUMPI PUSH1 0x6 PUSH1 0x0 PUSH1 0x4 DUP7 PUSH1 0x40 MLOAD PUSH2 0x648 SWAP2 SWAP1 PUSH2 0x1F57 JUMP JUMPDEST SWAP1 DUP2 MSTORE PUSH1 0x20 ADD PUSH1 0x40 MLOAD DUP1 SWAP2 SUB SWAP1 KECCAK256 DUP4 DUP2 SLOAD DUP2 LT PUSH2 0x667 JUMPI PUSH2 0x667 PUSH2 0x1F41 JUMP JUMPDEST PUSH1 0x0 SWAP2 DUP3 MSTORE PUSH1 0x20 DUP1 DUP4 KECCAK256 SWAP1 SWAP2 ADD SLOAD PUSH1 0x1 PUSH1 0x1 PUSH1 0xA0 SHL SUB AND DUP4 MSTORE DUP3 ADD SWAP3 SWAP1 SWAP3 MSTORE PUSH1 0x40 ADD SWAP1 KECCAK256 SLOAD PUSH2 0x696 SWAP1 DUP4 PUSH2 0x1F73 JUMP JUMPDEST SWAP2 POP PUSH1 0x1 ADD PUSH2 0x60D JUMP JUMPDEST POP PUSH1 0x0 DUP2 PUSH8 0xFFFFFFFFFFFFFFFF DUP2 GT ISZERO PUSH2 0x6BC JUMPI PUSH2 0x6BC PUSH2 0x1807 JUMP JUMPDEST PUSH1 0x40 MLOAD SWAP1 DUP1 DUP3 MSTORE DUP1 PUSH1 0x20 MUL PUSH1 0x20 ADD DUP3 ADD PUSH1 0x40 MSTORE DUP1 ISZERO PUSH2 0x735 JUMPI DUP2 PUSH1 0x20 ADD JUMPDEST PUSH2 0x722 PUSH1 0x40 MLOAD DUP1 PUSH2 0x100 ADD PUSH1 0x40 MSTORE DUP1 PUSH1 0x0 DUP2 MSTORE PUSH1 0x20 ADD PUSH1 0x60 DUP2 MSTORE PUSH1 0x20 ADD PUSH1 0x60 DUP2 MSTORE PUSH1 0x20 ADD PUSH1 0x60 DUP2 MSTORE PUSH1 0x20 ADD PUSH1 0x60 DUP2 MSTORE PUSH1 0x20 ADD PUSH1 0x60 DUP2 MSTORE PUSH1 0x20 ADD PUSH1 0x0 DUP2 MSTORE PUSH1 0x20 ADD PUSH1 0x0 DUP2 MSTORE POP SWAP1 JUMP JUMPDEST DUP2 MSTORE PUSH1 0x20 ADD SWAP1 PUSH1 0x1 SWAP1 SUB SWAP1 DUP2 PUSH2 0x6DA JUMPI SWAP1 POP JUMPDEST POP SWAP1 POP PUSH1 0x0 DUP1 JUMPDEST PUSH1 0x4 DUP7 PUSH1 0x40 MLOAD PUSH2 0x74C SWAP2 SWAP1 PUSH2 0x1F57 JUMP JUMPDEST SWAP1 DUP2 MSTORE PUSH1 0x40 MLOAD SWAP1 DUP2 SWAP1 SUB PUSH1 0x20 ADD SWAP1 KECCAK256 SLOAD DUP2 LT ISZERO PUSH2 0xBD0 JUMPI PUSH1 0x0 JUMPDEST PUSH1 0x6 PUSH1 0x0 PUSH1 0x4 DUP10 PUSH1 0x40 MLOAD PUSH2 0x77A SWAP2 SWAP1 PUSH2 0x1F57 JUMP JUMPDEST SWAP1 DUP2 MSTORE PUSH1 0x20 ADD PUSH1 0x40 MLOAD DUP1 SWAP2 SUB SWAP1 KECCAK256 DUP5 DUP2 SLOAD DUP2 LT PUSH2 0x799 JUMPI PUSH2 0x799 PUSH2 0x1F41 JUMP JUMPDEST PUSH1 0x0 SWAP2 DUP3 MSTORE PUSH1 0x20 DUP1 DUP4 KECCAK256 SWAP1 SWAP2 ADD SLOAD PUSH1 0x1 PUSH1 0x1 PUSH1 0xA0 SHL SUB AND DUP4 MSTORE DUP3 ADD SWAP3 SWAP1 SWAP3 MSTORE PUSH1 0x40 ADD SWAP1 KECCAK256 SLOAD DUP2 LT ISZERO PUSH2 0xBC7 JUMPI PUSH1 0x8 PUSH1 0x0 PUSH1 0x6 PUSH1 0x0 PUSH1 0x4 DUP12 PUSH1 0x40 MLOAD PUSH2 0x7DD SWAP2 SWAP1 PUSH2 0x1F57 JUMP JUMPDEST SWAP1 DUP2 MSTORE PUSH1 0x20 ADD PUSH1 0x40 MLOAD DUP1 SWAP2 SUB SWAP1 KECCAK256 DUP7 DUP2 SLOAD DUP2 LT PUSH2 0x7FC JUMPI PUSH2 0x7FC PUSH2 0x1F41 JUMP JUMPDEST PUSH1 0x0 SWAP2 DUP3 MSTORE PUSH1 0x20 DUP1 DUP4 KECCAK256 SWAP1 SWAP2 ADD SLOAD PUSH1 0x1 PUSH1 0x1 PUSH1 0xA0 SHL SUB AND DUP4 MSTORE DUP3 ADD SWAP3 SWAP1 SWAP3 MSTORE PUSH1 0x40 ADD SWAP1 KECCAK256 DUP1 SLOAD DUP5 SWAP1 DUP2 LT PUSH2 0x832 JUMPI PUSH2 0x832 PUSH2 0x1F41 JUMP JUMPDEST SWAP1 PUSH1 0x0 MSTORE PUSH1 0x20 PUSH1 0x0 KECCAK256 ADD SLOAD DUP2 MSTORE PUSH1 0x20 ADD SWAP1 DUP2 MSTORE PUSH1 0x20 ADD PUSH1 0x0 KECCAK256 PUSH1 0x40 MLOAD DUP1 PUSH2 0x100 ADD PUSH1 0x40 MSTORE SWAP1 DUP2 PUSH1 0x0 DUP3 ADD SLOAD DUP2 MSTORE PUSH1 0x20 ADD PUSH1 0x1 DUP3 ADD DUP1 SLOAD PUSH2 0x871 SWAP1 PUSH2 0x1DF7 JUMP JUMPDEST DUP1 PUSH1 0x1F ADD PUSH1 0x20 DUP1 SWAP2 DIV MUL PUSH1 0x20 ADD PUSH1 0x40 MLOAD SWAP1 DUP2 ADD PUSH1 0x40 MSTORE DUP1 SWAP3 SWAP2 SWAP1 DUP2 DUP2 MSTORE PUSH1 0x20 ADD DUP3 DUP1 SLOAD PUSH2 0x89D SWAP1 PUSH2 0x1DF7 JUMP JUMPDEST DUP1 ISZERO PUSH2 0x8EA JUMPI DUP1 PUSH1 0x1F LT PUSH2 0x8BF JUMPI PUSH2 0x100 DUP1 DUP4 SLOAD DIV MUL DUP4 MSTORE SWAP2 PUSH1 0x20 ADD SWAP2 PUSH2 0x8EA JUMP JUMPDEST DUP3 ADD SWAP2 SWAP1 PUSH1 0x0 MSTORE PUSH1 0x20 PUSH1 0x0 KECCAK256 SWAP1 JUMPDEST DUP2 SLOAD DUP2 MSTORE SWAP1 PUSH1 0x1 ADD SWAP1 PUSH1 0x20 ADD DUP1 DUP4 GT PUSH2 0x8CD JUMPI DUP3 SWAP1 SUB PUSH1 0x1F AND DUP3 ADD SWAP2 JUMPDEST POP POP POP POP POP DUP2 MSTORE PUSH1 0x20 ADD PUSH1 0x2 DUP3 ADD DUP1 SLOAD PUSH2 0x903 SWAP1 PUSH2 0x1DF7 JUMP JUMPDEST DUP1 PUSH1 0x1F ADD PUSH1 0x20 DUP1 SWAP2 DIV MUL PUSH1 0x20 ADD PUSH1 0x40 MLOAD SWAP1 DUP2 ADD PUSH1 0x40 MSTORE DUP1 SWAP3 SWAP2 SWAP1 DUP2 DUP2 MSTORE PUSH1 0x20 ADD DUP3 DUP1 SLOAD PUSH2 0x92F SWAP1 PUSH2 0x1DF7 JUMP JUMPDEST DUP1 ISZERO PUSH2 0x97C JUMPI DUP1 PUSH1 0x1F LT PUSH2 0x951 JUMPI PUSH2 0x100 DUP1 DUP4 SLOAD DIV MUL DUP4 MSTORE SWAP2 PUSH1 0x20 ADD SWAP2 PUSH2 0x97C JUMP JUMPDEST DUP3 ADD SWAP2 SWAP1 PUSH1 0x0 MSTORE PUSH1 0x20 PUSH1 0x0 KECCAK256 SWAP1 JUMPDEST DUP2 SLOAD DUP2 MSTORE SWAP1 PUSH1 0x1 ADD SWAP1 PUSH1 0x20 ADD DUP1 DUP4 GT PUSH2 0x95F JUMPI DUP3 SWAP1 SUB PUSH1 0x1F AND DUP3 ADD SWAP2 JUMPDEST POP POP POP POP POP DUP2 MSTORE PUSH1 0x20 ADD PUSH1 0x3 DUP3 ADD DUP1 SLOAD PUSH2 0x995 SWAP1 PUSH2 0x1DF7 JUMP JUMPDEST DUP1 PUSH1 0x1F ADD PUSH1 0x20 DUP1 SWAP2 DIV MUL PUSH1 0x20 ADD PUSH1 0x40 MLOAD SWAP1 DUP2 ADD PUSH1 0x40 MSTORE DUP1 SWAP3 SWAP2 SWAP1 DUP2 DUP2 MSTORE PUSH1 0x20 ADD DUP3 DUP1 SLOAD PUSH2 0x9C1 SWAP1 PUSH2 0x1DF7 JUMP JUMPDEST DUP1 ISZERO PUSH2 0xA0E JUMPI DUP1 PUSH1 0x1F LT PUSH2 0x9E3 JUMPI PUSH2 0x100 DUP1 DUP4 SLOAD DIV MUL DUP4 MSTORE SWAP2 PUSH1 0x20 ADD SWAP2 PUSH2 0xA0E JUMP JUMPDEST DUP3 ADD SWAP2 SWAP1 PUSH1 0x0 MSTORE PUSH1 0x20 PUSH1 0x0 KECCAK256 SWAP1 JUMPDEST DUP2 SLOAD DUP2 MSTORE SWAP1 PUSH1 0x1 ADD SWAP1 PUSH1 0x20 ADD DUP1 DUP4 GT PUSH2 0x9F1 JUMPI DUP3 SWAP1 SUB PUSH1 0x1F AND DUP3 ADD SWAP2 JUMPDEST POP POP POP POP POP DUP2 MSTORE PUSH1 0x20 ADD PUSH1 0x4 DUP3 ADD DUP1 SLOAD PUSH2 0xA27 SWAP1 PUSH2 0x1DF7 JUMP JUMPDEST DUP1 PUSH1 0x1F ADD PUSH1 0x20 DUP1 SWAP2 DIV MUL PUSH1 0x20 ADD PUSH1 0x40 MLOAD SWAP1 DUP2 ADD PUSH1 0x40 MSTORE DUP1 SWAP3 SWAP2 SWAP1 DUP2 DUP2 MSTORE PUSH1 0x20 ADD DUP3 DUP1 SLOAD PUSH2 0xA53 SWAP1 PUSH2 0x1DF7 JUMP JUMPDEST DUP1 ISZERO PUSH2 0xAA0 JUMPI DUP1 PUSH1 0x1F LT PUSH2 0xA75 JUMPI PUSH2 0x100 DUP1 DUP4 SLOAD DIV MUL DUP4 MSTORE SWAP2 PUSH1 0x20 ADD SWAP2 PUSH2 0xAA0 JUMP JUMPDEST DUP3 ADD SWAP2 SWAP1 PUSH1 0x0 MSTORE PUSH1 0x20 PUSH1 0x0 KECCAK256 SWAP1 JUMPDEST DUP2 SLOAD DUP2 MSTORE SWAP1 PUSH1 0x1 ADD SWAP1 PUSH1 0x20 ADD DUP1 DUP4 GT PUSH2 0xA83 JUMPI DUP3 SWAP1 SUB PUSH1 0x1F AND DUP3 ADD SWAP2 JUMPDEST POP POP POP POP POP DUP2 MSTORE PUSH1 0x20 ADD PUSH1 0x5 DUP3 ADD DUP1 SLOAD DUP1 PUSH1 0x20 MUL PUSH1 0x20 ADD PUSH1 0x40 MLOAD SWAP1 DUP2 ADD PUSH1 0x40 MSTORE DUP1 SWAP3 SWAP2 SWAP1 DUP2 DUP2 MSTORE PUSH1 0x20 ADD PUSH1 0x0 SWAP1 JUMPDEST DUP3 DUP3 LT ISZERO PUSH2 0xB7A JUMPI DUP4 DUP3 SWAP1 PUSH1 0x0 MSTORE PUSH1 0x20 PUSH1 0x0 KECCAK256 ADD DUP1 SLOAD PUSH2 0xAED SWAP1 PUSH2 0x1DF7 JUMP JUMPDEST DUP1 PUSH1 0x1F ADD PUSH1 0x20 DUP1 SWAP2 DIV MUL PUSH1 0x20 ADD PUSH1 0x40 MLOAD SWAP1 DUP2 ADD PUSH1 0x40 MSTORE DUP1 SWAP3 SWAP2 SWAP1 DUP2 DUP2 MSTORE PUSH1 0x20 ADD DUP3 DUP1 SLOAD PUSH2 0xB19 SWAP1 PUSH2 0x1DF7 JUMP JUMPDEST DUP1 ISZERO PUSH2 0xB66 JUMPI DUP1 PUSH1 0x1F LT PUSH2 0xB3B JUMPI PUSH2 0x100 DUP1 DUP4 SLOAD DIV MUL DUP4 MSTORE SWAP2 PUSH1 0x20 ADD SWAP2 PUSH2 0xB66 JUMP JUMPDEST DUP3 ADD SWAP2 SWAP1 PUSH1 0x0 MSTORE PUSH1 0x20 PUSH1 0x0 KECCAK256 SWAP1 JUMPDEST DUP2 SLOAD DUP2 MSTORE SWAP1 PUSH1 0x1 ADD SWAP1 PUSH1 0x20 ADD DUP1 DUP4 GT PUSH2 0xB49 JUMPI DUP3 SWAP1 SUB PUSH1 0x1F AND DUP3 ADD SWAP2 JUMPDEST POP POP POP POP POP DUP2 MSTORE PUSH1 0x20 ADD SWAP1 PUSH1 0x1 ADD SWAP1 PUSH2 0xACE JUMP JUMPDEST POP POP POP POP DUP2 MSTORE PUSH1 0x20 ADD PUSH1 0x6 DUP3 ADD SLOAD DUP2 MSTORE PUSH1 0x20 ADD PUSH1 0x7 DUP3 ADD SLOAD DUP2 MSTORE POP POP DUP5 DUP5 DUP1 PUSH2 0xBA2 SWAP1 PUSH2 0x1DDE JUMP JUMPDEST SWAP6 POP DUP2 MLOAD DUP2 LT PUSH2 0xBB4 JUMPI PUSH2 0xBB4 PUSH2 0x1F41 JUMP JUMPDEST PUSH1 0x20 SWAP1 DUP2 MUL SWAP2 SWAP1 SWAP2 ADD ADD MSTORE PUSH1 0x1 ADD PUSH2 0x766 JUMP JUMPDEST POP PUSH1 0x1 ADD PUSH2 0x73C JUMP JUMPDEST POP SWAP1 SWAP5 SWAP4 POP POP POP POP JUMP JUMPDEST CALLER PUSH1 0x0 SWAP1 DUP2 MSTORE PUSH1 0x3 PUSH1 0x20 MSTORE PUSH1 0x40 SWAP1 KECCAK256 PUSH2 0xBF3 DUP3 DUP3 PUSH2 0x1E81 JUMP JUMPDEST POP PUSH1 0x5 DUP2 PUSH1 0x40 MLOAD PUSH2 0xC04 SWAP2 SWAP1 PUSH2 0x1F57 JUMP JUMPDEST SWAP1 DUP2 MSTORE PUSH1 0x40 DUP1 MLOAD PUSH1 0x20 SWAP3 DUP2 SWAP1 SUB DUP4 ADD SWAP1 KECCAK256 CALLER PUSH1 0x0 SWAP1 DUP2 MSTORE SWAP3 MSTORE SWAP1 KECCAK256 SLOAD PUSH1 0xFF AND PUSH2 0xCB2 JUMPI PUSH1 0x4 DUP2 PUSH1 0x40 MLOAD PUSH2 0xC37 SWAP2 SWAP1 PUSH2 0x1F57 JUMP JUMPDEST SWAP1 DUP2 MSTORE PUSH1 0x40 MLOAD SWAP1 DUP2 SWAP1 SUB PUSH1 0x20 SWAP1 DUP2 ADD DUP3 KECCAK256 DUP1 SLOAD PUSH1 0x1 DUP2 DUP2 ADD DUP4 SSTORE PUSH1 0x0 SWAP3 DUP4 MSTORE SWAP3 SWAP1 SWAP2 KECCAK256 ADD DUP1 SLOAD PUSH20 0xFFFFFFFFFFFFFFFFFFFFFFFFFFFFFFFFFFFFFFFF NOT AND CALLER OR SWAP1 SSTORE SWAP1 PUSH1 0x5 SWAP1 PUSH2 0xC87 SWAP1 DUP5 SWAP1 PUSH2 0x1F57 JUMP JUMPDEST SWAP1 DUP2 MSTORE PUSH1 0x40 DUP1 MLOAD PUSH1 0x20 SWAP3 DUP2 SWAP1 SUB DUP4 ADD SWAP1 KECCAK256 CALLER PUSH1 0x0 SWAP1 DUP2 MSTORE SWAP3 MSTORE SWAP1 KECCAK256 DUP1 SLOAD PUSH1 0xFF NOT AND SWAP2 ISZERO ISZERO SWAP2 SWAP1 SWAP2 OR SWAP1 SSTORE JUMPDEST POP JUMP JUMPDEST PUSH1 0x0 SLOAD PUSH1 0x1 PUSH1 0x1 PUSH1 0xA0 SHL SUB AND CALLER EQ PUSH2 0xD0F JUMPI PUSH1 0x40 MLOAD PUSH3 0x461BCD PUSH1 0xE5 SHL DUP2 MSTORE PUSH1 0x20 PUSH1 0x4 DUP3 ADD MSTORE PUSH1 0xD PUSH1 0x24 DUP3 ADD MSTORE PUSH32 0x4163636573732044656E69656400000000000000000000000000000000000000 PUSH1 0x44 DUP3 ADD MSTORE PUSH1 0x64 ADD PUSH2 0x576 JUMP JUMPDEST PUSH1 0x40 MLOAD PUSH32 0x61646D696E000000000000000000000000000000000000000000000000000000 DUP2 MSTORE PUSH1 0xC SWAP1 PUSH1 0x5 ADD SWAP1 DUP2 MSTORE PUSH1 0x40 MLOAD PUSH1 0x20 SWAP2 DUP2 SWAP1 SUB DUP3 ADD SWAP1 KECCAK256 DUP1 SLOAD PUSH1 0x1 DUP2 ADD DUP3 SSTORE PUSH1 0x0 SWAP2 DUP3 MSTORE SWAP2 SWAP1 KECCAK256 ADD DUP1 SLOAD PUSH20 0xFFFFFFFFFFFFFFFFFFFFFFFFFFFFFFFFFFFFFFFF NOT AND PUSH1 0x1 PUSH1 0x1 PUSH1 0xA0 SHL SUB SWAP3 SWAP1 SWAP3 AND SWAP2 SWAP1 SWAP2 OR SWAP1 SSTORE JUMP JUMPDEST PUSH1 0x60 PUSH1 0x0 DUP3 PUSH1 0x1 SLOAD GT PUSH2 0xD9E JUMPI PUSH1 0x1 SLOAD PUSH2 0xDA0 JUMP JUMPDEST DUP3 JUMPDEST PUSH8 0xFFFFFFFFFFFFFFFF DUP2 GT ISZERO PUSH2 0xDB8 JUMPI PUSH2 0xDB8 PUSH2 0x1807 JUMP JUMPDEST PUSH1 0x40 MLOAD SWAP1 DUP1 DUP3 MSTORE DUP1 PUSH1 0x20 MUL PUSH1 0x20 ADD DUP3 ADD PUSH1 0x40 MSTORE DUP1 ISZERO PUSH2 0xE31 JUMPI DUP2 PUSH1 0x20 ADD JUMPDEST PUSH2 0xE1E PUSH1 0x40 MLOAD DUP1 PUSH2 0x100 ADD PUSH1 0x40 MSTORE DUP1 PUSH1 0x0 DUP2 MSTORE PUSH1 0x20 ADD PUSH1 0x60 DUP2 MSTORE PUSH1 0x20 ADD PUSH1 0x60 DUP2 MSTORE PUSH1 0x20 ADD PUSH1 0x60 DUP2 MSTORE PUSH1 0x20 ADD PUSH1 0x60 DUP2 MSTORE PUSH1 0x20 ADD PUSH1 0x60 DUP2 MSTORE PUSH1 0x20 ADD PUSH1 0x0 DUP2 MSTORE PUSH1 0x20 ADD PUSH1 0x0 DUP2 MSTORE POP SWAP1 JUMP JUMPDEST DUP2 MSTORE PUSH1 0x20 ADD SWAP1 PUSH1 0x1 SWAP1 SUB SWAP1 DUP2 PUSH2 0xDD6 JUMPI SWAP1 POP JUMPDEST POP SWAP1 POP PUSH1 0x0 JUMPDEST DUP2 MLOAD DUP2 LT ISZERO PUSH2 0x50D JUMPI PUSH1 0x8 PUSH1 0x0 PUSH1 0x1 DUP4 PUSH1 0x1 SLOAD PUSH2 0xE54 SWAP2 SWAP1 PUSH2 0x1F8C JUMP JUMPDEST PUSH2 0xE5E SWAP2 SWAP1 PUSH2 0x1F8C JUMP JUMPDEST DUP2 MSTORE PUSH1 0x20 ADD SWAP1 DUP2 MSTORE PUSH1 0x20 ADD PUSH1 0x0 KECCAK256 PUSH1 0x40 MLOAD DUP1 PUSH2 0x100 ADD PUSH1 0x40 MSTORE SWAP1 DUP2 PUSH1 0x0 DUP3 ADD SLOAD DUP2 MSTORE PUSH1 0x20 ADD PUSH1 0x1 DUP3 ADD DUP1 SLOAD PUSH2 0xE92 SWAP1 PUSH2 0x1DF7 JUMP JUMPDEST DUP1 PUSH1 0x1F ADD PUSH1 0x20 DUP1 SWAP2 DIV MUL PUSH1 0x20 ADD PUSH1 0x40 MLOAD SWAP1 DUP2 ADD PUSH1 0x40 MSTORE DUP1 SWAP3 SWAP2 SWAP1 DUP2 DUP2 MSTORE PUSH1 0x20 ADD DUP3 DUP1 SLOAD PUSH2 0xEBE SWAP1 PUSH2 0x1DF7 JUMP JUMPDEST DUP1 ISZERO PUSH2 0xF0B JUMPI DUP1 PUSH1 0x1F LT PUSH2 0xEE0 JUMPI PUSH2 0x100 DUP1 DUP4 SLOAD DIV MUL DUP4 MSTORE SWAP2 PUSH1 0x20 ADD SWAP2 PUSH2 0xF0B JUMP JUMPDEST DUP3 ADD SWAP2 SWAP1 PUSH1 0x0 MSTORE PUSH1 0x20 PUSH1 0x0 KECCAK256 SWAP1 JUMPDEST DUP2 SLOAD DUP2 MSTORE SWAP1 PUSH1 0x1 ADD SWAP1 PUSH1 0x20 ADD DUP1 DUP4 GT PUSH2 0xEEE JUMPI DUP3 SWAP1 SUB PUSH1 0x1F AND DUP3 ADD SWAP2 JUMPDEST POP POP POP POP POP DUP2 MSTORE PUSH1 0x20 ADD PUSH1 0x2 DUP3 ADD DUP1 SLOAD PUSH2 0xF24 SWAP1 PUSH2 0x1DF7 JUMP JUMPDEST DUP1 PUSH1 0x1F ADD PUSH1 0x20 DUP1 SWAP2 DIV MUL PUSH1 0x20 ADD PUSH1 0x40 MLOAD SWAP1 DUP2 ADD PUSH1 0x40 MSTORE DUP1 SWAP3 SWAP2 SWAP1 DUP2 DUP2 MSTORE PUSH1 0x20 ADD DUP3 DUP1 SLOAD PUSH2 0xF50 SWAP1 PUSH2 0x1DF7 JUMP JUMPDEST DUP1 ISZERO PUSH2 0xF9D JUMPI DUP1 PUSH1 0x1F LT PUSH2 0xF72 JUMPI PUSH2 0x100 DUP1 DUP4 SLOAD DIV MUL DUP4 MSTORE SWAP2 PUSH1 0x20 ADD SWAP2 PUSH2 0xF9D JUMP JUMPDEST DUP3 ADD SWAP2 SWAP1 PUSH1 0x0 MSTORE PUSH1 0x20 PUSH1 0x0 KECCAK256 SWAP1 JUMPDEST DUP2 SLOAD DUP2 MSTORE SWAP1 PUSH1 0x1 ADD SWAP1 PUSH1 0x20 ADD DUP1 DUP4 GT PUSH2 0xF80 JUMPI DUP3 SWAP1 SUB PUSH1 0x1F AND DUP3 ADD SWAP2 JUMPDEST POP POP POP POP POP DUP2 MSTORE PUSH1 0x20 ADD PUSH1 0x3 DUP3 ADD DUP1 SLOAD PUSH2 0xFB6 SWAP1 PUSH2 0x1DF7 JUMP JUMPDEST DUP1 PUSH1 0x1F ADD PUSH1 0x20 DUP1 SWAP2 DIV MUL PUSH1 0x20 ADD PUSH1 0x40 MLOAD SWAP1 DUP2 ADD PUSH1 0x40 MSTORE DUP1 SWAP3 SWAP2 SWAP1 DUP2 DUP2 MSTORE PUSH1 0x20 ADD DUP3 DUP1 SLOAD PUSH2 0xFE2 SWAP1 PUSH2 0x1DF7 JUMP JUMPDEST DUP1 ISZERO PUSH2 0x102F JUMPI DUP1 PUSH1 0x1F LT PUSH2 0x1004 JUMPI PUSH2 0x100 DUP1 DUP4 SLOAD DIV MUL DUP4 MSTORE SWAP2 PUSH1 0x20 ADD SWAP2 PUSH2 0x102F JUMP JUMPDEST DUP3 ADD SWAP2 SWAP1 PUSH1 0x0 MSTORE PUSH1 0x20 PUSH1 0x0 KECCAK256 SWAP1 JUMPDEST DUP2 SLOAD DUP2 MSTORE SWAP1 PUSH1 0x1 ADD SWAP1 PUSH1 0x20 ADD DUP1 DUP4 GT PUSH2 0x1012 JUMPI DUP3 SWAP1 SUB PUSH1 0x1F AND DUP3 ADD SWAP2 JUMPDEST POP POP POP POP POP DUP2 MSTORE PUSH1 0x20 ADD PUSH1 0x4 DUP3 ADD DUP1 SLOAD PUSH2 0x1048 SWAP1 PUSH2 0x1DF7 JUMP JUMPDEST DUP1 PUSH1 0x1F ADD PUSH1 0x20 DUP1 SWAP2 DIV MUL PUSH1 0x20 ADD PUSH1 0x40 MLOAD SWAP1 DUP2 ADD PUSH1 0x40 MSTORE DUP1 SWAP3 SWAP2 SWAP1 DUP2 DUP2 MSTORE PUSH1 0x20 ADD DUP3 DUP1 SLOAD PUSH2 0x1074 SWAP1 PUSH2 0x1DF7 JUMP JUMPDEST DUP1 ISZERO PUSH2 0x10C1 JUMPI DUP1 PUSH1 0x1F LT PUSH2 0x1096 JUMPI PUSH2 0x100 DUP1 DUP4 SLOAD DIV MUL DUP4 MSTORE SWAP2 PUSH1 0x20 ADD SWAP2 PUSH2 0x10C1 JUMP JUMPDEST DUP3 ADD SWAP2 SWAP1 PUSH1 0x0 MSTORE PUSH1 0x20 PUSH1 0x0 KECCAK256 SWAP1 JUMPDEST DUP2 SLOAD DUP2 MSTORE SWAP1 PUSH1 0x1 ADD SWAP1 PUSH1 0x20 ADD DUP1 DUP4 GT PUSH2 0x10A4 JUMPI DUP3 SWAP1 SUB PUSH1 0x1F AND DUP3 ADD SWAP2 JUMPDEST POP POP POP POP POP DUP2 MSTORE PUSH1 0x20 ADD PUSH1 0x5 DUP3 ADD DUP1 SLOAD DUP1 PUSH1 0x20 MUL PUSH1 0x20 ADD PUSH1 0x40 MLOAD SWAP1 DUP2 ADD PUSH1 0x40 MSTORE DUP1 SWAP3 SWAP2 SWAP1 DUP2 DUP2 MSTORE PUSH1 0x20 ADD PUSH1 0x0 SWAP1 JUMPDEST DUP3 DUP3 LT ISZERO PUSH2 0x119B JUMPI DUP4 DUP3 SWAP1 PUSH1 0x0 MSTORE PUSH1 0x20 PUSH1 0x0 KECCAK256 ADD DUP1 SLOAD PUSH2 0x110E SWAP1 PUSH2 0x1DF7 JUMP JUMPDEST DUP1 PUSH1 0x1F ADD PUSH1 0x20 DUP1 SWAP2 DIV MUL PUSH1 0x20 ADD PUSH1 0x40 MLOAD SWAP1 DUP2 ADD PUSH1 0x40 MSTORE DUP1 SWAP3 SWAP2 SWAP1 DUP2 DUP2 MSTORE PUSH1 0x20 ADD DUP3 DUP1 SLOAD PUSH2 0x113A SWAP1 PUSH2 0x1DF7 JUMP JUMPDEST DUP1 ISZERO PUSH2 0x1187 JUMPI DUP1 PUSH1 0x1F LT PUSH2 0x115C JUMPI PUSH2 0x100 DUP1 DUP4 SLOAD DIV MUL DUP4 MSTORE SWAP2 PUSH1 0x20 ADD SWAP2 PUSH2 0x1187 JUMP JUMPDEST DUP3 ADD SWAP2 SWAP1 PUSH1 0x0 MSTORE PUSH1 0x20 PUSH1 0x0 KECCAK256 SWAP1 JUMPDEST DUP2 SLOAD DUP2 MSTORE SWAP1 PUSH1 0x1 ADD SWAP1 PUSH1 0x20 ADD DUP1 DUP4 GT PUSH2 0x116A JUMPI DUP3 SWAP1 SUB PUSH1 0x1F AND DUP3 ADD SWAP2 JUMPDEST POP POP POP POP POP DUP2 MSTORE PUSH1 0x20 ADD SWAP1 PUSH1 0x1 ADD SWAP1 PUSH2 0x10EF JUMP JUMPDEST POP POP POP POP DUP2 MSTORE PUSH1 0x20 ADD PUSH1 0x6 DUP3 ADD SLOAD DUP2 MSTORE PUSH1 0x20 ADD PUSH1 0x7 DUP3 ADD SLOAD DUP2 MSTORE POP POP DUP3 DUP3 DUP2 MLOAD DUP2 LT PUSH2 0x11C9 JUMPI PUSH2 0x11C9 PUSH2 0x1F41 JUMP JUMPDEST PUSH1 0x20 SWAP1 DUP2 MUL SWAP2 SWAP1 SWAP2 ADD ADD MSTORE PUSH1 0x1 ADD PUSH2 0xE37 JUMP JUMPDEST PUSH1 0x0 DUP3 DUP2 MSTORE PUSH1 0x7 PUSH1 0x20 MSTORE PUSH1 0x40 SWAP1 KECCAK256 SLOAD PUSH1 0x1 PUSH1 0x1 PUSH1 0xA0 SHL SUB AND PUSH2 0x1240 JUMPI PUSH1 0x40 MLOAD PUSH3 0x461BCD PUSH1 0xE5 SHL DUP2 MSTORE PUSH1 0x20 PUSH1 0x4 DUP3 ADD MSTORE PUSH1 0x11 PUSH1 0x24 DUP3 ADD MSTORE PUSH32 0x566964656F206D7573742065786973742E000000000000000000000000000000 PUSH1 0x44 DUP3 ADD MSTORE PUSH1 0x64 ADD PUSH2 0x576 JUMP JUMPDEST CALLVALUE ISZERO PUSH2 0x15E3 JUMPI PUSH1 0x0 DUP3 DUP2 MSTORE PUSH1 0x7 PUSH1 0x20 MSTORE PUSH1 0x40 SWAP1 KECCAK256 SLOAD CALLER PUSH1 0x1 PUSH1 0x1 PUSH1 0xA0 SHL SUB SWAP1 SWAP2 AND SUB PUSH2 0x12D4 JUMPI PUSH1 0x40 MLOAD PUSH3 0x461BCD PUSH1 0xE5 SHL DUP2 MSTORE PUSH1 0x20 PUSH1 0x4 DUP3 ADD MSTORE PUSH1 0x26 PUSH1 0x24 DUP3 ADD MSTORE PUSH32 0x596F752063616E6E6F7420737570657263686174206F6E20796F7572206F776E PUSH1 0x44 DUP3 ADD MSTORE PUSH32 0x20766964656F0000000000000000000000000000000000000000000000000000 PUSH1 0x64 DUP3 ADD MSTORE PUSH1 0x84 ADD PUSH2 0x576 JUMP JUMPDEST PUSH1 0x0 PUSH1 0xA PUSH2 0x12E3 CALLVALUE PUSH1 0x9 PUSH2 0x1F9F JUMP JUMPDEST PUSH2 0x12ED SWAP2 SWAP1 PUSH2 0x1FB6 JUMP JUMPDEST PUSH1 0x0 DUP1 SLOAD SWAP2 SWAP3 POP SWAP1 PUSH1 0x1 PUSH1 0x1 PUSH1 0xA0 SHL SUB AND PUSH2 0x1308 DUP4 CALLVALUE PUSH2 0x1F8C JUMP JUMPDEST PUSH1 0x40 MLOAD PUSH1 0x0 DUP2 DUP2 DUP2 DUP6 DUP8 GAS CALL SWAP3 POP POP POP RETURNDATASIZE DUP1 PUSH1 0x0 DUP2 EQ PUSH2 0x1344 JUMPI PUSH1 0x40 MLOAD SWAP2 POP PUSH1 0x1F NOT PUSH1 0x3F RETURNDATASIZE ADD AND DUP3 ADD PUSH1 0x40 MSTORE RETURNDATASIZE DUP3 MSTORE RETURNDATASIZE PUSH1 0x0 PUSH1 0x20 DUP5 ADD RETURNDATACOPY PUSH2 0x1349 JUMP JUMPDEST PUSH1 0x60 SWAP2 POP JUMPDEST POP POP SWAP1 POP DUP1 PUSH2 0x139A JUMPI PUSH1 0x40 MLOAD PUSH3 0x461BCD PUSH1 0xE5 SHL DUP2 MSTORE PUSH1 0x20 PUSH1 0x4 DUP3 ADD MSTORE PUSH1 0x1D PUSH1 0x24 DUP3 ADD MSTORE PUSH32 0x4661696C656420746F2073656E6420457468657220746F206F776E6572000000 PUSH1 0x44 DUP3 ADD MSTORE PUSH1 0x64 ADD PUSH2 0x576 JUMP JUMPDEST PUSH1 0x0 DUP5 DUP2 MSTORE PUSH1 0xB PUSH1 0x20 MSTORE PUSH1 0x40 DUP2 KECCAK256 SLOAD PUSH2 0x13B4 SWAP1 PUSH1 0x1 PUSH2 0x1F73 JUMP JUMPDEST SWAP1 POP PUSH1 0x0 PUSH2 0x13C2 DUP3 DUP6 PUSH2 0x1FB6 JUMP JUMPDEST SWAP1 POP PUSH1 0x0 JUMPDEST PUSH1 0x0 DUP8 DUP2 MSTORE PUSH1 0xB PUSH1 0x20 MSTORE PUSH1 0x40 SWAP1 KECCAK256 SLOAD DUP2 LT ISZERO PUSH2 0x14ED JUMPI PUSH1 0x0 DUP8 DUP2 MSTORE PUSH1 0xB PUSH1 0x20 MSTORE PUSH1 0x40 DUP2 KECCAK256 DUP1 SLOAD DUP4 SWAP1 DUP2 LT PUSH2 0x13FD JUMPI PUSH2 0x13FD PUSH2 0x1F41 JUMP JUMPDEST PUSH1 0x0 SWAP2 DUP3 MSTORE PUSH1 0x20 DUP1 DUP4 KECCAK256 SWAP2 SWAP1 SWAP2 ADD SLOAD DUP1 DUP4 MSTORE PUSH1 0x7 SWAP1 SWAP2 MSTORE PUSH1 0x40 DUP1 DUP4 KECCAK256 SLOAD SWAP1 MLOAD SWAP2 SWAP4 POP PUSH1 0x1 PUSH1 0x1 PUSH1 0xA0 SHL SUB AND SWAP2 SWAP1 DUP3 SWAP1 DUP7 SWAP1 DUP4 DUP2 DUP2 DUP2 DUP6 DUP8 GAS CALL SWAP3 POP POP POP RETURNDATASIZE DUP1 PUSH1 0x0 DUP2 EQ PUSH2 0x1466 JUMPI PUSH1 0x40 MLOAD SWAP2 POP PUSH1 0x1F NOT PUSH1 0x3F RETURNDATASIZE ADD AND DUP3 ADD PUSH1 0x40 MSTORE RETURNDATASIZE DUP3 MSTORE RETURNDATASIZE PUSH1 0x0 PUSH1 0x20 DUP5 ADD RETURNDATACOPY PUSH2 0x146B JUMP JUMPDEST PUSH1 0x60 SWAP2 POP JUMPDEST POP POP SWAP1 POP DUP1 PUSH2 0x14E2 JUMPI PUSH1 0x40 MLOAD PUSH3 0x461BCD PUSH1 0xE5 SHL DUP2 MSTORE PUSH1 0x20 PUSH1 0x4 DUP3 ADD MSTORE PUSH1 0x21 PUSH1 0x24 DUP3 ADD MSTORE PUSH32 0x4661696C656420746F2073656E6420457468657220746F20612063726561746F PUSH1 0x44 DUP3 ADD MSTORE PUSH32 0x7200000000000000000000000000000000000000000000000000000000000000 PUSH1 0x64 DUP3 ADD MSTORE PUSH1 0x84 ADD PUSH2 0x576 JUMP JUMPDEST POP POP POP PUSH1 0x1 ADD PUSH2 0x13C7 JUMP JUMPDEST POP PUSH1 0x0 DUP7 DUP2 MSTORE PUSH1 0x7 PUSH1 0x20 MSTORE PUSH1 0x40 DUP2 KECCAK256 SLOAD PUSH1 0x1 PUSH1 0x1 PUSH1 0xA0 SHL SUB AND PUSH2 0x1511 PUSH1 0x1 DUP6 PUSH2 0x1F8C JUMP JUMPDEST PUSH2 0x151B SWAP1 DUP5 PUSH2 0x1F9F JUMP JUMPDEST PUSH2 0x1525 SWAP1 DUP8 PUSH2 0x1F8C JUMP JUMPDEST PUSH1 0x40 MLOAD PUSH1 0x0 DUP2 DUP2 DUP2 DUP6 DUP8 GAS CALL SWAP3 POP POP POP RETURNDATASIZE DUP1 PUSH1 0x0 DUP2 EQ PUSH2 0x1561 JUMPI PUSH1 0x40 MLOAD SWAP2 POP PUSH1 0x1F NOT PUSH1 0x3F RETURNDATASIZE ADD AND DUP3 ADD PUSH1 0x40 MSTORE RETURNDATASIZE DUP3 MSTORE RETURNDATASIZE PUSH1 0x0 PUSH1 0x20 DUP5 ADD RETURNDATACOPY PUSH2 0x1566 JUMP JUMPDEST PUSH1 0x60 SWAP2 POP JUMPDEST POP POP SWAP1 POP DUP1 PUSH2 0x15DD JUMPI PUSH1 0x40 MLOAD PUSH3 0x461BCD PUSH1 0xE5 SHL DUP2 MSTORE PUSH1 0x20 PUSH1 0x4 DUP3 ADD MSTORE PUSH1 0x23 PUSH1 0x24 DUP3 ADD MSTORE PUSH32 0x4661696C656420746F2073656E6420457468657220746F207468652063726561 PUSH1 0x44 DUP3 ADD MSTORE PUSH32 0x746F720000000000000000000000000000000000000000000000000000000000 PUSH1 0x64 DUP3 ADD MSTORE PUSH1 0x84 ADD PUSH2 0x576 JUMP JUMPDEST POP POP POP POP POP JUMPDEST PUSH1 0x2 DUP1 SLOAD PUSH1 0x0 SWAP2 DUP3 PUSH2 0x15F4 DUP4 PUSH2 0x1DDE JUMP JUMPDEST SWAP1 SWAP2 SSTORE POP PUSH1 0x40 DUP1 MLOAD PUSH1 0x80 DUP2 ADD DUP3 MSTORE CALLER DUP2 MSTORE PUSH1 0x20 DUP1 DUP3 ADD DUP7 DUP2 MSTORE CALLVALUE DUP4 DUP6 ADD MSTORE TIMESTAMP PUSH1 0x60 DUP5 ADD MSTORE PUSH1 0x0 DUP6 DUP2 MSTORE PUSH1 0xA SWAP1 SWAP3 MSTORE SWAP3 SWAP1 KECCAK256 DUP2 MLOAD DUP2 SLOAD PUSH20 0xFFFFFFFFFFFFFFFFFFFFFFFFFFFFFFFFFFFFFFFF NOT AND PUSH1 0x1 PUSH1 0x1 PUSH1 0xA0 SHL SUB SWAP1 SWAP2 AND OR DUP2 SSTORE SWAP2 MLOAD SWAP3 SWAP4 POP SWAP2 PUSH1 0x1 DUP3 ADD SWAP1 PUSH2 0x1663 SWAP1 DUP3 PUSH2 0x1E81 JUMP JUMPDEST POP PUSH1 0x40 DUP3 DUP2 ADD MLOAD PUSH1 0x2 DUP4 ADD SSTORE PUSH1 0x60 SWAP1 SWAP3 ADD MLOAD PUSH1 0x3 SWAP1 SWAP2 ADD SSTORE PUSH1 0x0 SWAP4 DUP5 MSTORE PUSH1 0x9 PUSH1 0x20 SWAP1 DUP2 MSTORE SWAP1 DUP5 KECCAK256 DUP1 SLOAD PUSH1 0x1 DUP2 ADD DUP3 SSTORE SWAP1 DUP6 MSTORE SWAP4 KECCAK256 SWAP1 SWAP3 ADD SWAP2 SWAP1 SWAP2 SSTORE POP JUMP JUMPDEST DUP3 DUP1 SLOAD DUP3 DUP3 SSTORE SWAP1 PUSH1 0x0 MSTORE PUSH1 0x20 PUSH1 0x0 KECCAK256 SWAP1 DUP2 ADD SWAP3 DUP3 ISZERO PUSH2 0x16E7 JUMPI SWAP2 PUSH1 0x20 MUL DUP3 ADD JUMPDEST DUP3 DUP2 GT ISZERO PUSH2 0x16E7 JUMPI DUP3 MLOAD DUP3 SWAP1 PUSH2 0x16D7 SWAP1 DUP3 PUSH2 0x1E81 JUMP JUMPDEST POP SWAP2 PUSH1 0x20 ADD SWAP2 SWAP1 PUSH1 0x1 ADD SWAP1 PUSH2 0x16C1 JUMP JUMPDEST POP PUSH2 0x16F3 SWAP3 SWAP2 POP PUSH2 0x173E JUMP JUMPDEST POP SWAP1 JUMP JUMPDEST DUP3 DUP1 SLOAD DUP3 DUP3 SSTORE SWAP1 PUSH1 0x0 MSTORE PUSH1 0x20 PUSH1 0x0 KECCAK256 SWAP1 DUP2 ADD SWAP3 DUP3 ISZERO PUSH2 0x1732 JUMPI SWAP2 PUSH1 0x20 MUL DUP3 ADD JUMPDEST DUP3 DUP2 GT ISZERO PUSH2 0x1732 JUMPI DUP3 MLOAD DUP3 SSTORE SWAP2 PUSH1 0x20 ADD SWAP2 SWAP1 PUSH1 0x1 ADD SWAP1 PUSH2 0x1717 JUMP JUMPDEST POP PUSH2 0x16F3 SWAP3 SWAP2 POP PUSH2 0x175B JUMP JUMPDEST DUP1 DUP3 GT ISZERO PUSH2 0x16F3 JUMPI PUSH1 0x0 PUSH2 0x1752 DUP3 DUP3 PUSH2 0x1770 JUMP JUMPDEST POP PUSH1 0x1 ADD PUSH2 0x173E JUMP JUMPDEST JUMPDEST DUP1 DUP3 GT ISZERO PUSH2 0x16F3 JUMPI PUSH1 0x0 DUP2 SSTORE PUSH1 0x1 ADD PUSH2 0x175C JUMP JUMPDEST POP DUP1 SLOAD PUSH2 0x177C SWAP1 PUSH2 0x1DF7 JUMP JUMPDEST PUSH1 0x0 DUP3 SSTORE DUP1 PUSH1 0x1F LT PUSH2 0x178C JUMPI POP POP JUMP JUMPDEST PUSH1 0x1F ADD PUSH1 0x20 SWAP1 DIV SWAP1 PUSH1 0x0 MSTORE PUSH1 0x20 PUSH1 0x0 KECCAK256 SWAP1 DUP2 ADD SWAP1 PUSH2 0xCB2 SWAP2 SWAP1 PUSH2 0x175B JUMP JUMPDEST PUSH1 0x0 PUSH1 0x20 DUP3 DUP5 SUB SLT ISZERO PUSH2 0x17BC JUMPI PUSH1 0x0 DUP1 REVERT JUMPDEST POP CALLDATALOAD SWAP2 SWAP1 POP JUMP JUMPDEST PUSH1 0x20 DUP1 DUP3 MSTORE DUP3 MLOAD DUP3 DUP3 ADD DUP2 SWAP1 MSTORE PUSH1 0x0 SWAP2 SWAP1 DUP5 DUP3 ADD SWAP1 PUSH1 0x40 DUP6 ADD SWAP1 DUP5 JUMPDEST DUP2 DUP2 LT ISZERO PUSH2 0x17FB JUMPI DUP4 MLOAD DUP4 MSTORE SWAP3 DUP5 ADD SWAP3 SWAP2 DUP5 ADD SWAP2 PUSH1 0x1 ADD PUSH2 0x17DF JUMP JUMPDEST POP SWAP1 SWAP7 SWAP6 POP POP POP POP POP POP JUMP JUMPDEST PUSH4 0x4E487B71 PUSH1 0xE0 SHL PUSH1 0x0 MSTORE PUSH1 0x41 PUSH1 0x4 MSTORE PUSH1 0x24 PUSH1 0x0 REVERT JUMPDEST PUSH1 0x40 MLOAD PUSH1 0x1F DUP3 ADD PUSH1 0x1F NOT AND DUP2 ADD PUSH8 0xFFFFFFFFFFFFFFFF DUP2 GT DUP3 DUP3 LT OR ISZERO PUSH2 0x1846 JUMPI PUSH2 0x1846 PUSH2 0x1807 JUMP JUMPDEST PUSH1 0x40 MSTORE SWAP2 SWAP1 POP JUMP JUMPDEST PUSH1 0x0 DUP3 PUSH1 0x1F DUP4 ADD SLT PUSH2 0x185F JUMPI PUSH1 0x0 DUP1 REVERT JUMPDEST DUP2 CALLDATALOAD PUSH8 0xFFFFFFFFFFFFFFFF DUP2 GT ISZERO PUSH2 0x1879 JUMPI PUSH2 0x1879 PUSH2 0x1807 JUMP JUMPDEST PUSH2 0x188C PUSH1 0x1F DUP3 ADD PUSH1 0x1F NOT AND PUSH1 0x20 ADD PUSH2 0x181D JUMP JUMPDEST DUP2 DUP2 MSTORE DUP5 PUSH1 0x20 DUP4 DUP7 ADD ADD GT ISZERO PUSH2 0x18A1 JUMPI PUSH1 0x0 DUP1 REVERT JUMPDEST DUP2 PUSH1 0x20 DUP6 ADD PUSH1 0x20 DUP4 ADD CALLDATACOPY PUSH1 0x0 SWAP2 DUP2 ADD PUSH1 0x20 ADD SWAP2 SWAP1 SWAP2 MSTORE SWAP4 SWAP3 POP POP POP JUMP JUMPDEST PUSH1 0x0 PUSH8 0xFFFFFFFFFFFFFFFF DUP3 GT ISZERO PUSH2 0x18D8 JUMPI PUSH2 0x18D8 PUSH2 0x1807 JUMP JUMPDEST POP PUSH1 0x5 SHL PUSH1 0x20 ADD SWAP1 JUMP JUMPDEST PUSH1 0x0 DUP3 PUSH1 0x1F DUP4 ADD SLT PUSH2 0x18F3 JUMPI PUSH1 0x0 DUP1 REVERT JUMPDEST DUP2 CALLDATALOAD PUSH1 0x20 PUSH2 0x1908 PUSH2 0x1903 DUP4 PUSH2 0x18BE JUMP JUMPDEST PUSH2 0x181D JUMP JUMPDEST DUP3 DUP2 MSTORE PUSH1 0x5 SWAP3 SWAP1 SWAP3 SHL DUP5 ADD DUP2 ADD SWAP2 DUP2 DUP2 ADD SWAP1 DUP7 DUP5 GT ISZERO PUSH2 0x1927 JUMPI PUSH1 0x0 DUP1 REVERT JUMPDEST DUP3 DUP7 ADD JUMPDEST DUP5 DUP2 LT ISZERO PUSH2 0x1967 JUMPI DUP1 CALLDATALOAD PUSH8 0xFFFFFFFFFFFFFFFF DUP2 GT ISZERO PUSH2 0x194B JUMPI PUSH1 0x0 DUP1 DUP2 REVERT JUMPDEST PUSH2 0x1959 DUP10 DUP7 DUP4 DUP12 ADD ADD PUSH2 0x184E JUMP JUMPDEST DUP5 MSTORE POP SWAP2 DUP4 ADD SWAP2 DUP4 ADD PUSH2 0x192B JUMP JUMPDEST POP SWAP7 SWAP6 POP POP POP POP POP POP JUMP JUMPDEST PUSH1 0x0 DUP1 PUSH1 0x0 DUP1 PUSH1 0x0 DUP1 PUSH1 0xC0 DUP8 DUP10 SUB SLT ISZERO PUSH2 0x198B JUMPI PUSH1 0x0 DUP1 REVERT JUMPDEST DUP7 CALLDATALOAD PUSH8 0xFFFFFFFFFFFFFFFF DUP1 DUP3 GT ISZERO PUSH2 0x19A3 JUMPI PUSH1 0x0 DUP1 REVERT JUMPDEST PUSH2 0x19AF DUP11 DUP4 DUP12 ADD PUSH2 0x184E JUMP JUMPDEST SWAP8 POP PUSH1 0x20 DUP10 ADD CALLDATALOAD SWAP2 POP DUP1 DUP3 GT ISZERO PUSH2 0x19C5 JUMPI PUSH1 0x0 DUP1 REVERT JUMPDEST PUSH2 0x19D1 DUP11 DUP4 DUP12 ADD PUSH2 0x184E JUMP JUMPDEST SWAP7 POP PUSH1 0x40 DUP10 ADD CALLDATALOAD SWAP2 POP DUP1 DUP3 GT ISZERO PUSH2 0x19E7 JUMPI PUSH1 0x0 DUP1 REVERT JUMPDEST PUSH2 0x19F3 DUP11 DUP4 DUP12 ADD PUSH2 0x184E JUMP JUMPDEST SWAP6 POP PUSH1 0x60 DUP10 ADD CALLDATALOAD SWAP2 POP DUP1 DUP3 GT ISZERO PUSH2 0x1A09 JUMPI PUSH1 0x0 DUP1 REVERT JUMPDEST PUSH2 0x1A15 DUP11 DUP4 DUP12 ADD PUSH2 0x184E JUMP JUMPDEST SWAP5 POP PUSH1 0x80 DUP10 ADD CALLDATALOAD SWAP4 POP PUSH1 0xA0 DUP10 ADD CALLDATALOAD SWAP2 POP DUP1 DUP3 GT ISZERO PUSH2 0x1A32 JUMPI PUSH1 0x0 DUP1 REVERT JUMPDEST POP PUSH2 0x1A3F DUP10 DUP3 DUP11 ADD PUSH2 0x18E2 JUMP JUMPDEST SWAP2 POP POP SWAP3 SWAP6 POP SWAP3 SWAP6 POP SWAP3 SWAP6 JUMP JUMPDEST PUSH1 0x0 JUMPDEST DUP4 DUP2 LT ISZERO PUSH2 0x1A67 JUMPI DUP2 DUP2 ADD MLOAD DUP4 DUP3 ADD MSTORE PUSH1 0x20 ADD PUSH2 0x1A4F JUMP JUMPDEST POP POP PUSH1 0x0 SWAP2 ADD MSTORE JUMP JUMPDEST PUSH1 0x0 DUP2 MLOAD DUP1 DUP5 MSTORE PUSH2 0x1A88 DUP2 PUSH1 0x20 DUP7 ADD PUSH1 0x20 DUP7 ADD PUSH2 0x1A4C JUMP JUMPDEST PUSH1 0x1F ADD PUSH1 0x1F NOT AND SWAP3 SWAP1 SWAP3 ADD PUSH1 0x20 ADD SWAP3 SWAP2 POP POP JUMP JUMPDEST PUSH1 0x0 PUSH1 0x20 DUP1 DUP4 ADD DUP2 DUP5 MSTORE DUP1 DUP6 MLOAD DUP1 DUP4 MSTORE PUSH1 0x40 SWAP3 POP PUSH1 0x40 DUP7 ADD SWAP2 POP PUSH1 0x40 DUP2 PUSH1 0x5 SHL DUP8 ADD ADD DUP5 DUP9 ADD PUSH1 0x0 JUMPDEST DUP4 DUP2 LT ISZERO PUSH2 0x1B24 JUMPI PUSH1 0x3F NOT DUP10 DUP5 SUB ADD DUP6 MSTORE DUP2 MLOAD PUSH1 0x80 PUSH1 0x1 PUSH1 0x1 PUSH1 0xA0 SHL SUB DUP3 MLOAD AND DUP6 MSTORE DUP9 DUP3 ADD MLOAD DUP2 DUP11 DUP8 ADD MSTORE PUSH2 0x1AFC DUP3 DUP8 ADD DUP3 PUSH2 0x1A70 JUMP JUMPDEST DUP4 DUP11 ADD MLOAD DUP8 DUP12 ADD MSTORE PUSH1 0x60 SWAP4 DUP5 ADD MLOAD SWAP4 SWAP1 SWAP7 ADD SWAP3 SWAP1 SWAP3 MSTORE POP POP SWAP4 DUP7 ADD SWAP4 SWAP1 DUP7 ADD SWAP1 PUSH1 0x1 ADD PUSH2 0x1AC5 JUMP JUMPDEST POP SWAP1 SWAP9 SWAP8 POP POP POP POP POP POP POP POP JUMP JUMPDEST PUSH1 0x0 DUP1 PUSH1 0x40 DUP4 DUP6 SUB SLT ISZERO PUSH2 0x1B45 JUMPI PUSH1 0x0 DUP1 REVERT JUMPDEST DUP3 CALLDATALOAD SWAP2 POP PUSH1 0x20 DUP1 DUP5 ADD CALLDATALOAD PUSH8 0xFFFFFFFFFFFFFFFF DUP2 GT ISZERO PUSH2 0x1B64 JUMPI PUSH1 0x0 DUP1 REVERT JUMPDEST DUP5 ADD PUSH1 0x1F DUP2 ADD DUP7 SGT PUSH2 0x1B75 JUMPI PUSH1 0x0 DUP1 REVERT JUMPDEST DUP1 CALLDATALOAD PUSH2 0x1B83 PUSH2 0x1903 DUP3 PUSH2 0x18BE JUMP JUMPDEST DUP2 DUP2 MSTORE PUSH1 0x5 SWAP2 SWAP1 SWAP2 SHL DUP3 ADD DUP4 ADD SWAP1 DUP4 DUP2 ADD SWAP1 DUP9 DUP4 GT ISZERO PUSH2 0x1BA2 JUMPI PUSH1 0x0 DUP1 REVERT JUMPDEST SWAP3 DUP5 ADD SWAP3 JUMPDEST DUP3 DUP5 LT ISZERO PUSH2 0x1BC0 JUMPI DUP4 CALLDATALOAD DUP3 MSTORE SWAP3 DUP5 ADD SWAP3 SWAP1 DUP5 ADD SWAP1 PUSH2 0x1BA7 JUMP JUMPDEST DUP1 SWAP6 POP POP POP POP POP POP SWAP3 POP SWAP3 SWAP1 POP JUMP JUMPDEST PUSH1 0x0 PUSH1 0x20 DUP3 DUP5 SUB SLT ISZERO PUSH2 0x1BE1 JUMPI PUSH1 0x0 DUP1 REVERT JUMPDEST DUP2 CALLDATALOAD PUSH8 0xFFFFFFFFFFFFFFFF DUP2 GT ISZERO PUSH2 0x1BF8 JUMPI PUSH1 0x0 DUP1 REVERT JUMPDEST PUSH2 0x1C04 DUP5 DUP3 DUP6 ADD PUSH2 0x184E JUMP JUMPDEST SWAP5 SWAP4 POP POP POP POP JUMP JUMPDEST PUSH1 0x0 DUP3 DUP3 MLOAD DUP1 DUP6 MSTORE PUSH1 0x20 DUP1 DUP7 ADD SWAP6 POP PUSH1 0x20 DUP3 PUSH1 0x5 SHL DUP5 ADD ADD PUSH1 0x20 DUP7 ADD PUSH1 0x0 JUMPDEST DUP5 DUP2 LT ISZERO PUSH2 0x1C59 JUMPI PUSH1 0x1F NOT DUP7 DUP5 SUB ADD DUP10 MSTORE PUSH2 0x1C47 DUP4 DUP4 MLOAD PUSH2 0x1A70 JUMP JUMPDEST SWAP9 DUP5 ADD SWAP9 SWAP3 POP SWAP1 DUP4 ADD SWAP1 PUSH1 0x1 ADD PUSH2 0x1C2B JUMP JUMPDEST POP SWAP1 SWAP8 SWAP7 POP POP POP POP POP POP POP JUMP JUMPDEST PUSH1 0x0 PUSH1 0x20 DUP1 DUP4 ADD DUP2 DUP5 MSTORE DUP1 DUP6 MLOAD DUP1 DUP4 MSTORE PUSH1 0x40 SWAP3 POP PUSH1 0x40 DUP7 ADD SWAP2 POP PUSH1 0x40 DUP2 PUSH1 0x5 SHL DUP8 ADD ADD DUP5 DUP9 ADD PUSH1 0x0 JUMPDEST DUP4 DUP2 LT ISZERO PUSH2 0x1B24 JUMPI PUSH1 0x3F NOT DUP10 DUP5 SUB ADD DUP6 MSTORE DUP2 MLOAD PUSH2 0x100 DUP2 MLOAD DUP6 MSTORE DUP9 DUP3 ADD MLOAD DUP2 DUP11 DUP8 ADD MSTORE PUSH2 0x1CBE DUP3 DUP8 ADD DUP3 PUSH2 0x1A70 JUMP JUMPDEST SWAP2 POP POP DUP8 DUP3 ADD MLOAD DUP6 DUP3 SUB DUP10 DUP8 ADD MSTORE PUSH2 0x1CD6 DUP3 DUP3 PUSH2 0x1A70 JUMP JUMPDEST SWAP2 POP POP PUSH1 0x60 DUP1 DUP4 ADD MLOAD DUP7 DUP4 SUB DUP3 DUP9 ADD MSTORE PUSH2 0x1CF0 DUP4 DUP3 PUSH2 0x1A70 JUMP JUMPDEST SWAP3 POP POP POP PUSH1 0x80 DUP1 DUP4 ADD MLOAD DUP7 DUP4 SUB DUP3 DUP9 ADD MSTORE PUSH2 0x1D0B DUP4 DUP3 PUSH2 0x1A70 JUMP JUMPDEST SWAP3 POP POP POP PUSH1 0xA0 DUP1 DUP4 ADD MLOAD DUP7 DUP4 SUB DUP3 DUP9 ADD MSTORE PUSH2 0x1D26 DUP4 DUP3 PUSH2 0x1C0C JUMP JUMPDEST PUSH1 0xC0 DUP6 DUP2 ADD MLOAD SWAP1 DUP10 ADD MSTORE PUSH1 0xE0 SWAP5 DUP6 ADD MLOAD SWAP5 SWAP1 SWAP8 ADD SWAP4 SWAP1 SWAP4 MSTORE POP POP POP SWAP4 DUP7 ADD SWAP4 SWAP1 DUP7 ADD SWAP1 PUSH1 0x1 ADD PUSH2 0x1C8F JUMP JUMPDEST PUSH1 0x0 PUSH1 0x20 DUP3 DUP5 SUB SLT ISZERO PUSH2 0x1D63 JUMPI PUSH1 0x0 DUP1 REVERT JUMPDEST DUP2 CALLDATALOAD PUSH1 0x1 PUSH1 0x1 PUSH1 0xA0 SHL SUB DUP2 AND DUP2 EQ PUSH2 0x1D7A JUMPI PUSH1 0x0 DUP1 REVERT JUMPDEST SWAP4 SWAP3 POP POP POP JUMP JUMPDEST PUSH1 0x0 DUP1 PUSH1 0x40 DUP4 DUP6 SUB SLT ISZERO PUSH2 0x1D94 JUMPI PUSH1 0x0 DUP1 REVERT JUMPDEST DUP3 CALLDATALOAD SWAP2 POP PUSH1 0x20 DUP4 ADD CALLDATALOAD PUSH8 0xFFFFFFFFFFFFFFFF DUP2 GT ISZERO PUSH2 0x1DB2 JUMPI PUSH1 0x0 DUP1 REVERT JUMPDEST PUSH2 0x1DBE DUP6 DUP3 DUP7 ADD PUSH2 0x184E JUMP JUMPDEST SWAP2 POP POP SWAP3 POP SWAP3 SWAP1 POP JUMP JUMPDEST PUSH4 0x4E487B71 PUSH1 0xE0 SHL PUSH1 0x0 MSTORE PUSH1 0x11 PUSH1 0x4 MSTORE PUSH1 0x24 PUSH1 0x0 REVERT JUMPDEST PUSH1 0x0 PUSH1 0x1 DUP3 ADD PUSH2 0x1DF0 JUMPI PUSH2 0x1DF0 PUSH2 0x1DC8 JUMP JUMPDEST POP PUSH1 0x1 ADD SWAP1 JUMP JUMPDEST PUSH1 0x1 DUP2 DUP2 SHR SWAP1 DUP3 AND DUP1 PUSH2 0x1E0B JUMPI PUSH1 0x7F DUP3 AND SWAP2 POP JUMPDEST PUSH1 0x20 DUP3 LT DUP2 SUB PUSH2 0x1E2B JUMPI PUSH4 0x4E487B71 PUSH1 0xE0 SHL PUSH1 0x0 MSTORE PUSH1 0x22 PUSH1 0x4 MSTORE PUSH1 0x24 PUSH1 0x0 REVERT JUMPDEST POP SWAP2 SWAP1 POP JUMP JUMPDEST PUSH1 0x1F DUP3 GT ISZERO PUSH2 0x602 JUMPI PUSH1 0x0 DUP2 PUSH1 0x0 MSTORE PUSH1 0x20 PUSH1 0x0 KECCAK256 PUSH1 0x1F DUP6 ADD PUSH1 0x5 SHR DUP2 ADD PUSH1 0x20 DUP7 LT ISZERO PUSH2 0x1E5A JUMPI POP DUP1 JUMPDEST PUSH1 0x1F DUP6 ADD PUSH1 0x5 SHR DUP3 ADD SWAP2 POP JUMPDEST DUP2 DUP2 LT ISZERO PUSH2 0x1E79 JUMPI DUP3 DUP2 SSTORE PUSH1 0x1 ADD PUSH2 0x1E66 JUMP JUMPDEST POP POP POP POP POP POP JUMP JUMPDEST DUP2 MLOAD PUSH8 0xFFFFFFFFFFFFFFFF DUP2 GT ISZERO PUSH2 0x1E9B JUMPI PUSH2 0x1E9B PUSH2 0x1807 JUMP JUMPDEST PUSH2 0x1EAF DUP2 PUSH2 0x1EA9 DUP5 SLOAD PUSH2 0x1DF7 JUMP JUMPDEST DUP5 PUSH2 0x1E31 JUMP JUMPDEST PUSH1 0x20 DUP1 PUSH1 0x1F DUP4 GT PUSH1 0x1 DUP2 EQ PUSH2 0x1EE4 JUMPI PUSH1 0x0 DUP5 ISZERO PUSH2 0x1ECC JUMPI POP DUP6 DUP4 ADD MLOAD JUMPDEST PUSH1 0x0 NOT PUSH1 0x3 DUP7 SWAP1 SHL SHR NOT AND PUSH1 0x1 DUP6 SWAP1 SHL OR DUP6 SSTORE PUSH2 0x1E79 JUMP JUMPDEST PUSH1 0x0 DUP6 DUP2 MSTORE PUSH1 0x20 DUP2 KECCAK256 PUSH1 0x1F NOT DUP7 AND SWAP2 JUMPDEST DUP3 DUP2 LT ISZERO PUSH2 0x1F13 JUMPI DUP9 DUP7 ADD MLOAD DUP3 SSTORE SWAP5 DUP5 ADD SWAP5 PUSH1 0x1 SWAP1 SWAP2 ADD SWAP1 DUP5 ADD PUSH2 0x1EF4 JUMP JUMPDEST POP DUP6 DUP3 LT ISZERO PUSH2 0x1F31 JUMPI DUP8 DUP6 ADD MLOAD PUSH1 0x0 NOT PUSH1 0x3 DUP9 SWAP1 SHL PUSH1 0xF8 AND SHR NOT AND DUP2 SSTORE JUMPDEST POP POP POP POP POP PUSH1 0x1 SWAP1 DUP2 SHL ADD SWAP1 SSTORE POP JUMP JUMPDEST PUSH4 0x4E487B71 PUSH1 0xE0 SHL PUSH1 0x0 MSTORE PUSH1 0x32 PUSH1 0x4 MSTORE PUSH1 0x24 PUSH1 0x0 REVERT JUMPDEST PUSH1 0x0 DUP3 MLOAD PUSH2 0x1F69 DUP2 DUP5 PUSH1 0x20 DUP8 ADD PUSH2 0x1A4C JUMP JUMPDEST SWAP2 SWAP1 SWAP2 ADD SWAP3 SWAP2 POP POP JUMP JUMPDEST DUP1 DUP3 ADD DUP1 DUP3 GT ISZERO PUSH2 0x1F86 JUMPI PUSH2 0x1F86 PUSH2 0x1DC8 JUMP JUMPDEST SWAP3 SWAP2 POP POP JUMP JUMPDEST DUP2 DUP2 SUB DUP2 DUP2 GT ISZERO PUSH2 0x1F86 JUMPI PUSH2 0x1F86 PUSH2 0x1DC8 JUMP JUMPDEST DUP1 DUP3 MUL DUP2 ISZERO DUP3 DUP3 DIV DUP5 EQ OR PUSH2 0x1F86 JUMPI PUSH2 0x1F86 PUSH2 0x1DC8 JUMP JUMPDEST PUSH1 0x0 DUP3 PUSH2 0x1FD3 JUMPI PUSH4 0x4E487B71 PUSH1 0xE0 SHL PUSH1 0x0 MSTORE PUSH1 0x12 PUSH1 0x4 MSTORE PUSH1 0x24 PUSH1 0x0 REVERT JUMPDEST POP DIV SWAP1 JUMP INVALID LOG2 PUSH5 0x6970667358 0x22 SLT KECCAK256 DUP1 0x29 PUSH23 0x233EF4E303D3CF75A1E7FEB90FF75AE55CCD48F82C2E73 INVALID SAR CALLDATASIZE BASEFEE 0xC6 0x25 PUSH5 0x736F6C6343 STOP ADDMOD AND STOP CALLER "
        },
        "methodIdentifiers": {
          "addAdmin(address)": "70480275",
          "addComment(uint256,string)": "aa7e5683",
          "addVideo(string,string,string,string,uint256,string[])": "210e07df",
          "getAttributions(uint256)": "051cb30d",
          "getComments(uint256)": "23edf697",
          "getLatestVideos(uint256)": "8799bd74",
          "getVideoByNearID(string)": "5eaecd12",
          "setAttributions(uint256,uint256[])": "38abafa0",
          "setNearID(string)": "60c736cd"
        }
      }
    }
  }
}