{
  "contracts/Atomic.sol": {
    "Atomic": {
      "abi": [
        {
          "inputs": [],
          "stateMutability": "nonpayable",
          "type": "constructor"
        },
        {
          "inputs": [
            {
              "internalType": "address",
              "name": "account",
              "type": "address"
            }
          ],
          "name": "addAdmin",
          "outputs": [],
          "stateMutability": "nonpayable",
          "type": "function"
        },
        {
          "inputs": [
            {
              "internalType": "uint256",
              "name": "video_id",
              "type": "uint256"
            },
            {
              "internalType": "string",
              "name": "comment_message",
              "type": "string"
            }
          ],
          "name": "addComment",
          "outputs": [],
          "stateMutability": "payable",
          "type": "function"
        },
        {
          "inputs": [
            {
              "internalType": "string",
              "name": "_title",
              "type": "string"
            },
            {
              "internalType": "string",
              "name": "_description",
              "type": "string"
            },
            {
              "internalType": "string",
              "name": "_url",
              "type": "string"
            },
            {
              "internalType": "string",
              "name": "_thumb_url",
              "type": "string"
            },
            {
              "internalType": "uint256",
              "name": "_duration",
              "type": "uint256"
            },
            {
              "internalType": "string[]",
              "name": "_keywords",
              "type": "string[]"
            }
          ],
          "name": "addVideo",
          "outputs": [],
          "stateMutability": "nonpayable",
          "type": "function"
        },
        {
          "inputs": [
            {
              "internalType": "uint256",
              "name": "video_id",
              "type": "uint256"
            }
          ],
          "name": "adminDeleteVideo",
          "outputs": [],
          "stateMutability": "nonpayable",
          "type": "function"
        },
        {
          "inputs": [
            {
              "internalType": "uint256",
              "name": "video_id",
              "type": "uint256"
            }
          ],
          "name": "deleteVideo",
          "outputs": [],
          "stateMutability": "nonpayable",
          "type": "function"
        },
        {
          "inputs": [
            {
              "internalType": "address",
              "name": "addr",
              "type": "address"
            }
          ],
          "name": "getAddressNearID",
          "outputs": [
            {
              "internalType": "string",
              "name": "",
              "type": "string"
            }
          ],
          "stateMutability": "view",
          "type": "function"
        },
        {
          "inputs": [
            {
              "internalType": "uint256",
              "name": "video_id",
              "type": "uint256"
            }
          ],
          "name": "getAttributions",
          "outputs": [
            {
              "internalType": "uint256[]",
              "name": "",
              "type": "uint256[]"
            }
          ],
          "stateMutability": "view",
          "type": "function"
        },
        {
          "inputs": [
            {
              "internalType": "uint256",
              "name": "video_id",
              "type": "uint256"
            }
          ],
          "name": "getComments",
          "outputs": [
            {
              "components": [
                {
                  "internalType": "address",
                  "name": "poster",
                  "type": "address"
                },
                {
                  "internalType": "string",
                  "name": "message",
                  "type": "string"
                },
                {
                  "internalType": "uint256",
                  "name": "amount",
                  "type": "uint256"
                },
                {
                  "internalType": "uint256",
                  "name": "timestamp",
                  "type": "uint256"
                }
              ],
              "internalType": "struct Atomic.Comment[]",
              "name": "",
              "type": "tuple[]"
            }
          ],
          "stateMutability": "view",
          "type": "function"
        },
        {
          "inputs": [
            {
              "internalType": "uint256",
              "name": "size",
              "type": "uint256"
            }
          ],
          "name": "getLatestVideos",
          "outputs": [
            {
              "components": [
                {
                  "internalType": "uint256",
                  "name": "id",
                  "type": "uint256"
                },
                {
                  "internalType": "string",
                  "name": "title",
                  "type": "string"
                },
                {
                  "internalType": "string",
                  "name": "description",
                  "type": "string"
                },
                {
                  "internalType": "string",
                  "name": "url",
                  "type": "string"
                },
                {
                  "internalType": "string",
                  "name": "thumb_url",
                  "type": "string"
                },
                {
                  "internalType": "string[]",
                  "name": "keywords",
                  "type": "string[]"
                },
                {
                  "internalType": "uint256",
                  "name": "duration",
                  "type": "uint256"
                },
                {
                  "internalType": "uint256",
                  "name": "timestamp",
                  "type": "uint256"
                }
              ],
              "internalType": "struct Atomic.Video[]",
              "name": "",
              "type": "tuple[]"
            }
          ],
          "stateMutability": "view",
          "type": "function"
        },
        {
          "inputs": [],
          "name": "getOwner",
          "outputs": [
            {
              "internalType": "address",
              "name": "",
              "type": "address"
            }
          ],
          "stateMutability": "view",
          "type": "function"
        },
        {
          "inputs": [
            {
              "internalType": "uint256",
              "name": "video_id",
              "type": "uint256"
            }
          ],
          "name": "getVideo",
          "outputs": [
            {
              "components": [
                {
                  "internalType": "uint256",
                  "name": "id",
                  "type": "uint256"
                },
                {
                  "internalType": "string",
                  "name": "title",
                  "type": "string"
                },
                {
                  "internalType": "string",
                  "name": "description",
                  "type": "string"
                },
                {
                  "internalType": "string",
                  "name": "url",
                  "type": "string"
                },
                {
                  "internalType": "string",
                  "name": "thumb_url",
                  "type": "string"
                },
                {
                  "internalType": "string[]",
                  "name": "keywords",
                  "type": "string[]"
                },
                {
                  "internalType": "uint256",
                  "name": "duration",
                  "type": "uint256"
                },
                {
                  "internalType": "uint256",
                  "name": "timestamp",
                  "type": "uint256"
                }
              ],
              "internalType": "struct Atomic.Video",
              "name": "",
              "type": "tuple"
            }
          ],
          "stateMutability": "view",
          "type": "function"
        },
        {
          "inputs": [
            {
              "internalType": "string",
              "name": "_near_id",
              "type": "string"
            }
          ],
          "name": "getVideoByNearID",
          "outputs": [
            {
              "components": [
                {
                  "internalType": "uint256",
                  "name": "id",
                  "type": "uint256"
                },
                {
                  "internalType": "string",
                  "name": "title",
                  "type": "string"
                },
                {
                  "internalType": "string",
                  "name": "description",
                  "type": "string"
                },
                {
                  "internalType": "string",
                  "name": "url",
                  "type": "string"
                },
                {
                  "internalType": "string",
                  "name": "thumb_url",
                  "type": "string"
                },
                {
                  "internalType": "string[]",
                  "name": "keywords",
                  "type": "string[]"
                },
                {
                  "internalType": "uint256",
                  "name": "duration",
                  "type": "uint256"
                },
                {
                  "internalType": "uint256",
                  "name": "timestamp",
                  "type": "uint256"
                }
              ],
              "internalType": "struct Atomic.Video[]",
              "name": "",
              "type": "tuple[]"
            }
          ],
          "stateMutability": "view",
          "type": "function"
        },
        {
          "inputs": [
            {
              "internalType": "string[]",
              "name": "terms",
              "type": "string[]"
            }
          ],
          "name": "getVideosByTerm",
          "outputs": [
            {
              "components": [
                {
                  "internalType": "uint256",
                  "name": "id",
                  "type": "uint256"
                },
                {
                  "internalType": "string",
                  "name": "title",
                  "type": "string"
                },
                {
                  "internalType": "string",
                  "name": "description",
                  "type": "string"
                },
                {
                  "internalType": "string",
                  "name": "url",
                  "type": "string"
                },
                {
                  "internalType": "string",
                  "name": "thumb_url",
                  "type": "string"
                },
                {
                  "internalType": "string[]",
                  "name": "keywords",
                  "type": "string[]"
                },
                {
                  "internalType": "uint256",
                  "name": "duration",
                  "type": "uint256"
                },
                {
                  "internalType": "uint256",
                  "name": "timestamp",
                  "type": "uint256"
                }
              ],
              "internalType": "struct Atomic.Video[]",
              "name": "",
              "type": "tuple[]"
            }
          ],
          "stateMutability": "view",
          "type": "function"
        },
        {
          "inputs": [
            {
              "internalType": "uint256",
              "name": "video_id",
              "type": "uint256"
            },
            {
              "internalType": "uint256[]",
              "name": "attributions",
              "type": "uint256[]"
            }
          ],
          "name": "setAttributions",
          "outputs": [],
          "stateMutability": "nonpayable",
          "type": "function"
        },
        {
          "inputs": [
            {
              "internalType": "string",
              "name": "_near_id",
              "type": "string"
            }
          ],
          "name": "setNearID",
          "outputs": [],
          "stateMutability": "nonpayable",
          "type": "function"
        }
      ],
      "evm": {
        "bytecode": {
          "linkReferences": {},
          "object": "608060405260016000556001805534801561001957600080fd5b50600280546001600160a01b031916331790556138c48061003b6000396000f3fe6080604052600436106100e85760003560e01c8063413cf0291161008a5780638799bd74116100595780638799bd7414610299578063893d20e8146102b9578063aa7e5683146102e1578063d4ab873e146102f457600080fd5b8063413cf029146102195780635eaecd121461023957806360c736cd14610259578063704802751461027957600080fd5b806323edf697116100c657806323edf697146101725780632893eca21461019f57806338abafa0146101cc5780633e35019e146101ec57600080fd5b8063051cb30d146100ed578063087f44fd14610123578063210e07df14610150575b600080fd5b3480156100f957600080fd5b5061010d610108366004612d9c565b610314565b60405161011a9190612db5565b60405180910390f35b34801561012f57600080fd5b5061014361013e366004612df9565b6103d4565b60405161011a9190612e79565b34801561015c57600080fd5b5061017061016b366004612f1a565b610476565b005b34801561017e57600080fd5b5061019261018d366004612d9c565b6107fd565b60405161011a9190613017565b3480156101ab57600080fd5b506101bf6101ba366004612d9c565b610a4a565b60405161011a91906131b0565b3480156101d857600080fd5b506101706101e73660046131c3565b610e4f565b3480156101f857600080fd5b5061020c61020736600461334d565b610f48565b60405161011a9190613396565b34801561022557600080fd5b50610170610234366004612d9c565b611480565b34801561024557600080fd5b5061020c6102543660046133fa565b6115c7565b34801561026557600080fd5b5061017061027436600461342f565b611b90565b34801561028557600080fd5b50610170610294366004612df9565b611c65565b3480156102a557600080fd5b5061020c6102b4366004612d9c565b611d04565b3480156102c557600080fd5b506002546040516001600160a01b03909116815260200161011a565b6101706102ef366004613471565b61216f565b34801561030057600080fd5b5061017061030f366004612d9c565b61265e565b6000818152600760205260409020546060906001600160a01b03166103745760405162461bcd60e51b81526020600482015260116024820152702b34b232b79036bab9ba1032bc34b9ba1760791b60448201526064015b60405180910390fd5b6000828152600d6020908152604091829020805483518184028101840190945280845290918301828280156103c857602002820191906000526020600020905b8154815260200190600101908083116103b4575b50505050509050919050565b6001600160a01b03811660009081526003602052604090208054606091906103fb906134b0565b80601f0160208091040260200160405190810160405280929190818152602001828054610427906134b0565b80156103c85780601f10610449576101008083540402835291602001916103c8565b820191906000526020600020905b8154815290600101906020018083116104575750939695505050505050565b60008054818061048583613500565b9190505590506040518061010001604052808281526020018d8d8080601f016020809104026020016040519081016040528093929190818152602001838380828437600092019190915250505090825250604080516020601f8e018190048102820181019092528c815291810191908d908d9081908401838280828437600092019190915250505090825250604080516020601f8c018190048102820181019092528a815291810191908b908b9081908401838280828437600092019190915250505090825250604080516020601f8a01819004810282018101909252888152918101919089908990819084018382808284376000920191909152505050908252506020016105948486613519565b815260208082018790524260409283015260008481526008825291909120825181559082015160018201906105c99082613576565b50604082015160028201906105de9082613576565b50606082015160038201906105f39082613576565b50608082015160048201906106089082613576565b5060a08201518051610624916005840191602090910190612cdf565b5060c082015160068083019190915560e09092015160079182015560008381526020918252604080822080546001600160a01b0319163390811790915582529282528281208054600181018255908252828220018490558251601f8f018390048302810183019093528d8352916106b5918f908f908190840183828082843760009201919091525061272892505050565b604080518082018252600181527f20000000000000000000000000000000000000000000000000000000000000006020808301918252835180850185526000808252908201819052845180860190955292518452830152919250905b61071b8383612755565b610726906001613636565b8110156107ec57600061074161073c85856127ef565b61280e565b9050600a81604051610753919061364f565b90815260408051602092819003830190206000888152925290205460ff166107e357600981604051610785919061364f565b9081526040516020918190038201812080546001808201835560009283529390912001879055600a906107b990849061364f565b9081526040805160209281900383019020600089815292529020805460ff19169115159190911790555b50600101610711565b505050505050505050505050505050565b6000818152600760205260409020546060906001600160a01b03166108585760405162461bcd60e51b81526020600482015260116024820152702b34b232b79036bab9ba1032bc34b9ba1760791b604482015260640161036b565b6000828152600b602052604081205467ffffffffffffffff81111561087f5761087f61320f565b6040519080825280602002602001820160405280156108e457816020015b6108d1604051806080016040528060006001600160a01b031681526020016060815260200160008152602001600081525090565b81526020019060019003908161089d5790505b50905060005b6000848152600b6020526040902054811015610a43576000848152600b602052604081208054600c929190849081106109255761092561366b565b906000526020600020015481526020019081526020016000206040518060800160405290816000820160009054906101000a90046001600160a01b03166001600160a01b03166001600160a01b03168152602001600182018054610988906134b0565b80601f01602080910402602001604051908101604052809291908181526020018280546109b4906134b0565b8015610a015780601f106109d657610100808354040283529160200191610a01565b820191906000526020600020905b8154815290600101906020018083116109e457829003601f168201915b5050505050815260200160028201548152602001600382015481525050828281518110610a3057610a3061366b565b60209081029190910101526001016108ea565b5092915050565b610a9260405180610100016040528060008152602001606081526020016060815260200160608152602001606081526020016060815260200160008152602001600081525090565b6000828152600760205260409020546001600160a01b0316610aea5760405162461bcd60e51b81526020600482015260116024820152702b34b232b79036bab9ba1032bc34b9ba1760791b604482015260640161036b565b600860008381526020019081526020016000206040518061010001604052908160008201548152602001600182018054610b23906134b0565b80601f0160208091040260200160405190810160405280929190818152602001828054610b4f906134b0565b8015610b9c5780601f10610b7157610100808354040283529160200191610b9c565b820191906000526020600020905b815481529060010190602001808311610b7f57829003601f168201915b50505050508152602001600282018054610bb5906134b0565b80601f0160208091040260200160405190810160405280929190818152602001828054610be1906134b0565b8015610c2e5780601f10610c0357610100808354040283529160200191610c2e565b820191906000526020600020905b815481529060010190602001808311610c1157829003601f168201915b50505050508152602001600382018054610c47906134b0565b80601f0160208091040260200160405190810160405280929190818152602001828054610c73906134b0565b8015610cc05780601f10610c9557610100808354040283529160200191610cc0565b820191906000526020600020905b815481529060010190602001808311610ca357829003601f168201915b50505050508152602001600482018054610cd9906134b0565b80601f0160208091040260200160405190810160405280929190818152602001828054610d05906134b0565b8015610d525780601f10610d2757610100808354040283529160200191610d52565b820191906000526020600020905b815481529060010190602001808311610d3557829003601f168201915b5050505050815260200160058201805480602002602001604051908101604052809291908181526020016000905b82821015610e2c578382906000526020600020018054610d9f906134b0565b80601f0160208091040260200160405190810160405280929190818152602001828054610dcb906134b0565b8015610e185780601f10610ded57610100808354040283529160200191610e18565b820191906000526020600020905b815481529060010190602001808311610dfb57829003601f168201915b505050505081526020019060010190610d80565b505050508152602001600682015481526020016007820154815250509050919050565b6000838152600760205260409020546001600160a01b03163314610eb55760405162461bcd60e51b815260206004820152601960248201527f596f7520646f206e6f74206f776e2074686520766964656f2e00000000000000604482015260640161036b565b6000838152600760205260409020546001600160a01b0316610f0d5760405162461bcd60e51b81526020600482015260116024820152702b34b232b79036bab9ba1032bc34b9ba1760791b604482015260640161036b565b60005b81811015610f4257610f3a84848484818110610f2e57610f2e61366b565b90506020020135612877565b600101610f10565b50505050565b60606000805b8351811015610fa4576009848281518110610f6b57610f6b61366b565b6020026020010151604051610f80919061364f565b90815260405190819003602001902054610f9a9083613636565b9150600101610f4e565b5060008167ffffffffffffffff811115610fc057610fc061320f565b60405190808252806020026020018201604052801561103957816020015b61102660405180610100016040528060008152602001606081526020016060815260200160608152602001606081526020016060815260200160008152602001600081525090565b815260200190600190039081610fde5790505b5090506000805b85518110156114765760005b60098783815181106110605761106061366b565b6020026020010151604051611075919061364f565b9081526040519081900360200190205481101561146d576008600060098985815181106110a4576110a461366b565b60200260200101516040516110b9919061364f565b908152602001604051809103902083815481106110d8576110d861366b565b906000526020600020015481526020019081526020016000206040518061010001604052908160008201548152602001600182018054611117906134b0565b80601f0160208091040260200160405190810160405280929190818152602001828054611143906134b0565b80156111905780601f1061116557610100808354040283529160200191611190565b820191906000526020600020905b81548152906001019060200180831161117357829003601f168201915b505050505081526020016002820180546111a9906134b0565b80601f01602080910402602001604051908101604052809291908181526020018280546111d5906134b0565b80156112225780601f106111f757610100808354040283529160200191611222565b820191906000526020600020905b81548152906001019060200180831161120557829003601f168201915b5050505050815260200160038201805461123b906134b0565b80601f0160208091040260200160405190810160405280929190818152602001828054611267906134b0565b80156112b45780601f10611289576101008083540402835291602001916112b4565b820191906000526020600020905b81548152906001019060200180831161129757829003601f168201915b505050505081526020016004820180546112cd906134b0565b80601f01602080910402602001604051908101604052809291908181526020018280546112f9906134b0565b80156113465780601f1061131b57610100808354040283529160200191611346565b820191906000526020600020905b81548152906001019060200180831161132957829003601f168201915b5050505050815260200160058201805480602002602001604051908101604052809291908181526020016000905b82821015611420578382906000526020600020018054611393906134b0565b80601f01602080910402602001604051908101604052809291908181526020018280546113bf906134b0565b801561140c5780601f106113e15761010080835404028352916020019161140c565b820191906000526020600020905b8154815290600101906020018083116113ef57829003601f168201915b505050505081526020019060010190611374565b5050505081526020016006820154815260200160078201548152505084848061144890613500565b95508151811061145a5761145a61366b565b602090810291909101015260010161104c565b50600101611040565b5090949350505050565b6000805b6040516430b236b4b760d91b8152600f906005019081526040519081900360200190205481101561150e576040516430b236b4b760d91b8152600f90600501908152602001604051809103902081815481106114e2576114e261366b565b6000918252602090912001546001600160a01b03163303611506576001915061150e565b600101611484565b506002546001600160a01b03163303611525575060015b806115625760405162461bcd60e51b815260206004820152600d60248201526c1058d8d95cdcc811195b9a5959609a1b604482015260640161036b565b6000828152600760205260409020546001600160a01b03166115ba5760405162461bcd60e51b81526020600482015260116024820152702b34b232b79036bab9ba1032bc34b9ba1760791b604482015260640161036b565b6115c382612937565b5050565b60606000805b6004846040516115dd919061364f565b908152604051908190036020019020548110156116605760066000600486604051611608919061364f565b908152602001604051809103902083815481106116275761162761366b565b60009182526020808320909101546001600160a01b031683528201929092526040019020546116569083613636565b91506001016115cd565b5060008167ffffffffffffffff81111561167c5761167c61320f565b6040519080825280602002602001820160405280156116f557816020015b6116e260405180610100016040528060008152602001606081526020016060815260200160608152602001606081526020016060815260200160008152602001600081525090565b81526020019060019003908161169a5790505b5090506000805b60048660405161170c919061364f565b908152604051908190036020019020548110156114765760005b6006600060048960405161173a919061364f565b908152602001604051809103902084815481106117595761175961366b565b60009182526020808320909101546001600160a01b03168352820192909252604001902054811015611b8757600860006006600060048b60405161179d919061364f565b908152602001604051809103902086815481106117bc576117bc61366b565b60009182526020808320909101546001600160a01b0316835282019290925260400190208054849081106117f2576117f261366b565b906000526020600020015481526020019081526020016000206040518061010001604052908160008201548152602001600182018054611831906134b0565b80601f016020809104026020016040519081016040528092919081815260200182805461185d906134b0565b80156118aa5780601f1061187f576101008083540402835291602001916118aa565b820191906000526020600020905b81548152906001019060200180831161188d57829003601f168201915b505050505081526020016002820180546118c3906134b0565b80601f01602080910402602001604051908101604052809291908181526020018280546118ef906134b0565b801561193c5780601f106119115761010080835404028352916020019161193c565b820191906000526020600020905b81548152906001019060200180831161191f57829003601f168201915b50505050508152602001600382018054611955906134b0565b80601f0160208091040260200160405190810160405280929190818152602001828054611981906134b0565b80156119ce5780601f106119a3576101008083540402835291602001916119ce565b820191906000526020600020905b8154815290600101906020018083116119b157829003601f168201915b505050505081526020016004820180546119e7906134b0565b80601f0160208091040260200160405190810160405280929190818152602001828054611a13906134b0565b8015611a605780601f10611a3557610100808354040283529160200191611a60565b820191906000526020600020905b815481529060010190602001808311611a4357829003601f168201915b5050505050815260200160058201805480602002602001604051908101604052809291908181526020016000905b82821015611b3a578382906000526020600020018054611aad906134b0565b80601f0160208091040260200160405190810160405280929190818152602001828054611ad9906134b0565b8015611b265780601f10611afb57610100808354040283529160200191611b26565b820191906000526020600020905b815481529060010190602001808311611b0957829003601f168201915b505050505081526020019060010190611a8e565b50505050815260200160068201548152602001600782015481525050848480611b6290613500565b955081518110611b7457611b7461366b565b6020908102919091010152600101611726565b506001016116fc565b336000908152600360205260409020611baa828483613681565b5060058282604051611bbd929190613742565b9081526040805160209281900383019020336000908152925290205460ff166115c35760048282604051611bf2929190613742565b90815260405190819003602090810182208054600181810183556000928352929091200180546001600160a01b0319163317905590600590611c379085908590613742565b908152604080516020928190038301902033600090815292529020805460ff19169115159190911790555050565b6002546001600160a01b03163314611caf5760405162461bcd60e51b815260206004820152600d60248201526c1058d8d95cdcc811195b9a5959609a1b604482015260640161036b565b6040516430b236b4b760d91b8152600f9060050190815260405160209181900382019020805460018101825560009182529190200180546001600160a01b0319166001600160a01b0392909216919091179055565b60606000826001600054611d189190613752565b11611d31576001600054611d2c9190613752565b611d33565b825b67ffffffffffffffff811115611d4b57611d4b61320f565b604051908082528060200260200182016040528015611dc457816020015b611db160405180610100016040528060008152602001606081526020016060815260200160608152602001606081526020016060815260200160008152602001600081525090565b815260200190600190039081611d695790505b50905060005b8151811015610a435760086000600183600054611de79190613752565b611df19190613752565b81526020019081526020016000206040518061010001604052908160008201548152602001600182018054611e25906134b0565b80601f0160208091040260200160405190810160405280929190818152602001828054611e51906134b0565b8015611e9e5780601f10611e7357610100808354040283529160200191611e9e565b820191906000526020600020905b815481529060010190602001808311611e8157829003601f168201915b50505050508152602001600282018054611eb7906134b0565b80601f0160208091040260200160405190810160405280929190818152602001828054611ee3906134b0565b8015611f305780601f10611f0557610100808354040283529160200191611f30565b820191906000526020600020905b815481529060010190602001808311611f1357829003601f168201915b50505050508152602001600382018054611f49906134b0565b80601f0160208091040260200160405190810160405280929190818152602001828054611f75906134b0565b8015611fc25780601f10611f9757610100808354040283529160200191611fc2565b820191906000526020600020905b815481529060010190602001808311611fa557829003601f168201915b50505050508152602001600482018054611fdb906134b0565b80601f0160208091040260200160405190810160405280929190818152602001828054612007906134b0565b80156120545780601f1061202957610100808354040283529160200191612054565b820191906000526020600020905b81548152906001019060200180831161203757829003601f168201915b5050505050815260200160058201805480602002602001604051908101604052809291908181526020016000905b8282101561212e5783829060005260206000200180546120a1906134b0565b80601f01602080910402602001604051908101604052809291908181526020018280546120cd906134b0565b801561211a5780601f106120ef5761010080835404028352916020019161211a565b820191906000526020600020905b8154815290600101906020018083116120fd57829003601f168201915b505050505081526020019060010190612082565b5050505081526020016006820154815260200160078201548152505082828151811061215c5761215c61366b565b6020908102919091010152600101611dca565b6000838152600760205260409020546001600160a01b03166121c75760405162461bcd60e51b81526020600482015260116024820152702b34b232b79036bab9ba1032bc34b9ba1760791b604482015260640161036b565b341561256b57600083815260076020526040902054336001600160a01b039091160361225b5760405162461bcd60e51b815260206004820152602660248201527f596f752063616e6e6f7420737570657263686174206f6e20796f7572206f776e60448201527f20766964656f0000000000000000000000000000000000000000000000000000606482015260840161036b565b6000600a61226a346009613765565b612274919061377c565b6002549091506000906001600160a01b03166122908334613752565b604051600081818185875af1925050503d80600081146122cc576040519150601f19603f3d011682016040523d82523d6000602084013e6122d1565b606091505b50509050806123225760405162461bcd60e51b815260206004820152601d60248201527f4661696c656420746f2073656e6420457468657220746f206f776e6572000000604482015260640161036b565b6000858152600d602052604081205461233c906001613636565b9050600061234a828561377c565b905060005b6000888152600d6020526040902054811015612475576000888152600d602052604081208054839081106123855761238561366b565b600091825260208083209190910154808352600790915260408083205490519193506001600160a01b03169190829086908381818185875af1925050503d80600081146123ee576040519150601f19603f3d011682016040523d82523d6000602084013e6123f3565b606091505b505090508061246a5760405162461bcd60e51b815260206004820152602160248201527f4661696c656420746f2073656e6420457468657220746f20612063726561746f60448201527f7200000000000000000000000000000000000000000000000000000000000000606482015260840161036b565b50505060010161234f565b506000878152600760205260408120546001600160a01b0316612499600185613752565b6124a39084613765565b6124ad9087613752565b604051600081818185875af1925050503d80600081146124e9576040519150601f19603f3d011682016040523d82523d6000602084013e6124ee565b606091505b50509050806125655760405162461bcd60e51b815260206004820152602360248201527f4661696c656420746f2073656e6420457468657220746f20746865206372656160448201527f746f720000000000000000000000000000000000000000000000000000000000606482015260840161036b565b50505050505b600180546000918261257c83613500565b9190505590506040518060800160405280336001600160a01b0316815260200184848080601f016020809104026020016040519081016040528093929190818152602001838380828437600092018290525093855250503460208085019190915242604094850152858352600c815292909120835181546001600160a01b0319166001600160a01b039091161781559183015160018301915061261f9082613576565b5060408281015160028301556060909201516003909101556000948552600b602090815290852080546001810182559086529420909301929092555050565b6000818152600760205260409020546001600160a01b03166126b65760405162461bcd60e51b81526020600482015260116024820152702b34b232b79036bab9ba1032bc34b9ba1760791b604482015260640161036b565b6000818152600760205260409020546001600160a01b0316331461271c5760405162461bcd60e51b815260206004820152601960248201527f596f7520646f206e6f74206f776e2074686520766964656f2e00000000000000604482015260640161036b565b61272581612937565b50565b60408051808201825260008082526020918201528151808301909252825182529182019181019190915290565b60008082600001516127798560000151866020015186600001518760200151612a98565b6127839190613636565b90505b835160208501516127979190613636565b8111610a4357816127a781613500565b92505082600001516127de8560200151836127c29190613752565b86516127ce9190613752565b8386600001518760200151612a98565b6127e89190613636565b9050612786565b6040805180820190915260008082526020820152610a43838383612bba565b60606000826000015167ffffffffffffffff81111561282f5761282f61320f565b6040519080825280601f01601f191660200182016040528015612859576020820181803683370190505b5090506000602082019050610a438185602001518660000151612c65565b6000828152600e6020908152604080832084845290915290205460ff166128db576000828152600d6020908152604080832080546001818101835591855283852001859055858452600e8352818420858552909252909120805460ff191690911790555b60005b6000828152600d6020526040902054811015612932576000828152600d60205260409020805461292a9185918490811061291a5761291a61366b565b9060005260206000200154612877565b6001016128de565b505050565b600081815260076020908152604080832080546001600160a01b031916905580516101008101825284815281518083018352600f81527f5b44656c6574656420566964656f5d00000000000000000000000000000000008185015281840152815180840183528481528183015281518084018352848152606082015281518084018352848152608082015281518481529283019091529160a0830191906129ee565b60608152602001906001900390816129d95790505b50815260006020808301829052426040938401528482526008815291902082518155908201516001820190612a239082613576565b5060408201516002820190612a389082613576565b5060608201516003820190612a4d9082613576565b5060808201516004820190612a629082613576565b5060a08201518051612a7e916005840191602090910190612cdf565b5060c0820151600682015560e09091015160079091015550565b60008381868511612ba35760208511612b525760008515612ae4576001612ac0876020613752565b612acb906008613765565b612ad6906002613882565b612ae09190613752565b1990505b84518116600087612af58b8b613636565b612aff9190613752565b855190915083165b828114612b4457818610612b2c57612b1f8b8b613636565b9650505050505050612bb2565b85612b3681613500565b965050838651169050612b07565b859650505050505050612bb2565b508383206000905b612b648689613752565b8211612ba157858320808203612b805783945050505050612bb2565b612b8b600185613636565b9350508180612b9990613500565b925050612b5a565b505b612bad8787613636565b925050505b949350505050565b60408051808201909152600080825260208201526000612bec8560000151866020015186600001518760200151612a98565b602080870180519186019190915251909150612c089082613752565b835284516020860151612c1b9190613636565b8103612c2a5760008552612c5c565b83518351612c389190613636565b85518690612c47908390613752565b9052508351612c569082613636565b60208601525b50909392505050565b60208110612c9d5781518352612c7c602084613636565b9250612c89602083613636565b9150612c96602082613752565b9050612c65565b6000198115612ccc576001612cb3836020613752565b612cbf90610100613882565b612cc99190613752565b90505b9151835183169219169190911790915250565b828054828255906000526020600020908101928215612d25579160200282015b82811115612d255782518290612d159082613576565b5091602001919060010190612cff565b50612d31929150612d35565b5090565b80821115612d31576000612d498282612d52565b50600101612d35565b508054612d5e906134b0565b6000825580601f10612d6e575050565b601f01602090049060005260206000209081019061272591905b80821115612d315760008155600101612d88565b600060208284031215612dae57600080fd5b5035919050565b6020808252825182820181905260009190848201906040850190845b81811015612ded57835183529284019291840191600101612dd1565b50909695505050505050565b600060208284031215612e0b57600080fd5b81356001600160a01b0381168114612e2257600080fd5b9392505050565b60005b83811015612e44578181015183820152602001612e2c565b50506000910152565b60008151808452612e65816020860160208601612e29565b601f01601f19169290920160200192915050565b602081526000612e226020830184612e4d565b60008083601f840112612e9e57600080fd5b50813567ffffffffffffffff811115612eb657600080fd5b602083019150836020828501011115612ece57600080fd5b9250929050565b60008083601f840112612ee757600080fd5b50813567ffffffffffffffff811115612eff57600080fd5b6020830191508360208260051b8501011115612ece57600080fd5b600080600080600080600080600080600060c08c8e031215612f3b57600080fd5b67ffffffffffffffff808d351115612f5257600080fd5b612f5f8e8e358f01612e8c565b909c509a5060208d0135811015612f7557600080fd5b612f858e60208f01358f01612e8c565b909a50985060408d0135811015612f9b57600080fd5b612fab8e60408f01358f01612e8c565b909850965060608d0135811015612fc157600080fd5b612fd18e60608f01358f01612e8c565b909650945060808d0135935060a08d0135811015612fee57600080fd5b50612fff8d60a08e01358e01612ed5565b81935080925050509295989b509295989b9093969950565b600060208083018184528085518083526040925060408601915060408160051b87010184880160005b8381101561309f57603f19898403018552815160806001600160a01b03825116855288820151818a87015261307782870182612e4d565b838a0151878b0152606093840151939096019290925250509386019390860190600101613040565b509098975050505050505050565b60008282518085526020808601955060208260051b8401016020860160005b848110156130fa57601f198684030189526130e8838351612e4d565b988401989250908301906001016130cc565b5090979650505050505050565b600061010082518452602083015181602086015261312782860182612e4d565b915050604083015184820360408601526131418282612e4d565b9150506060830151848203606086015261315b8282612e4d565b915050608083015184820360808601526131758282612e4d565b91505060a083015184820360a086015261318f82826130ad565b91505060c083015160c085015260e083015160e08501528091505092915050565b602081526000612e226020830184613107565b6000806000604084860312156131d857600080fd5b83359250602084013567ffffffffffffffff8111156131f657600080fd5b61320286828701612ed5565b9497909650939450505050565b634e487b7160e01b600052604160045260246000fd5b604051601f8201601f1916810167ffffffffffffffff8111828210171561324e5761324e61320f565b604052919050565b600082601f83011261326757600080fd5b813567ffffffffffffffff8111156132815761328161320f565b613294601f8201601f1916602001613225565b8181528460208386010111156132a957600080fd5b816020850160208301376000918101602001919091529392505050565b600067ffffffffffffffff808411156132e1576132e161320f565b8360051b60206132f360208301613225565b868152935090840190602084018783111561330d57600080fd5b855b83811015613341578035858111156133275760008081fd5b6133338a828a01613256565b83525090820190820161330f565b50505050509392505050565b60006020828403121561335f57600080fd5b813567ffffffffffffffff81111561337657600080fd5b8201601f8101841361338757600080fd5b612bb2848235602084016132c6565b600060208083016020845280855180835260408601915060408160051b87010192506020870160005b828110156133ed57603f198886030184526133db858351613107565b945092850192908501906001016133bf565b5092979650505050505050565b60006020828403121561340c57600080fd5b813567ffffffffffffffff81111561342357600080fd5b612bb284828501613256565b6000806020838503121561344257600080fd5b823567ffffffffffffffff81111561345957600080fd5b61346585828601612e8c565b90969095509350505050565b60008060006040848603121561348657600080fd5b83359250602084013567ffffffffffffffff8111156134a457600080fd5b61320286828701612e8c565b600181811c908216806134c457607f821691505b6020821081036134e457634e487b7160e01b600052602260045260246000fd5b50919050565b634e487b7160e01b600052601160045260246000fd5b600060018201613512576135126134ea565b5060010190565b6000612e223684846132c6565b601f821115612932576000816000526020600020601f850160051c8101602086101561354f5750805b601f850160051c820191505b8181101561356e5782815560010161355b565b505050505050565b815167ffffffffffffffff8111156135905761359061320f565b6135a48161359e84546134b0565b84613526565b602080601f8311600181146135d957600084156135c15750858301515b600019600386901b1c1916600185901b17855561356e565b600085815260208120601f198616915b82811015613608578886015182559484019460019091019084016135e9565b50858210156136265787850151600019600388901b60f8161c191681555b5050505050600190811b01905550565b80820180821115613649576136496134ea565b92915050565b60008251613661818460208701612e29565b9190910192915050565b634e487b7160e01b600052603260045260246000fd5b67ffffffffffffffff8311156136995761369961320f565b6136ad836136a783546134b0565b83613526565b6000601f8411600181146136e157600085156136c95750838201355b600019600387901b1c1916600186901b17835561373b565b600083815260209020601f19861690835b8281101561371257868501358255602094850194600190920191016136f2565b508682101561372f5760001960f88860031b161c19848701351681555b505060018560011b0183555b5050505050565b8183823760009101908152919050565b81810381811115613649576136496134ea565b8082028115828204841417613649576136496134ea565b60008261379957634e487b7160e01b600052601260045260246000fd5b500490565b600181815b808511156137d95781600019048211156137bf576137bf6134ea565b808516156137cc57918102915b93841c93908002906137a3565b509250929050565b6000826137f057506001613649565b816137fd57506000613649565b8160018114613813576002811461381d57613839565b6001915050613649565b60ff84111561382e5761382e6134ea565b50506001821b613649565b5060208310610133831016604e8410600b841016171561385c575081810a613649565b613866838361379e565b806000190482111561387a5761387a6134ea565b029392505050565b6000612e2283836137e156fea26469706673582212208e46c9a82d6922944b4a5b155090ba87ef7f2525323b14688a72407bb1f0254864736f6c63430008160033",
          "opcodes": "PUSH1 0x80 PUSH1 0x40 MSTORE PUSH1 0x1 PUSH1 0x0 SSTORE PUSH1 0x1 DUP1 SSTORE CALLVALUE DUP1 ISZERO PUSH2 0x19 JUMPI PUSH1 0x0 DUP1 REVERT JUMPDEST POP PUSH1 0x2 DUP1 SLOAD PUSH1 0x1 PUSH1 0x1 PUSH1 0xA0 SHL SUB NOT AND CALLER OR SWAP1 SSTORE PUSH2 0x38C4 DUP1 PUSH2 0x3B PUSH1 0x0 CODECOPY PUSH1 0x0 RETURN INVALID PUSH1 0x80 PUSH1 0x40 MSTORE PUSH1 0x4 CALLDATASIZE LT PUSH2 0xE8 JUMPI PUSH1 0x0 CALLDATALOAD PUSH1 0xE0 SHR DUP1 PUSH4 0x413CF029 GT PUSH2 0x8A JUMPI DUP1 PUSH4 0x8799BD74 GT PUSH2 0x59 JUMPI DUP1 PUSH4 0x8799BD74 EQ PUSH2 0x299 JUMPI DUP1 PUSH4 0x893D20E8 EQ PUSH2 0x2B9 JUMPI DUP1 PUSH4 0xAA7E5683 EQ PUSH2 0x2E1 JUMPI DUP1 PUSH4 0xD4AB873E EQ PUSH2 0x2F4 JUMPI PUSH1 0x0 DUP1 REVERT JUMPDEST DUP1 PUSH4 0x413CF029 EQ PUSH2 0x219 JUMPI DUP1 PUSH4 0x5EAECD12 EQ PUSH2 0x239 JUMPI DUP1 PUSH4 0x60C736CD EQ PUSH2 0x259 JUMPI DUP1 PUSH4 0x70480275 EQ PUSH2 0x279 JUMPI PUSH1 0x0 DUP1 REVERT JUMPDEST DUP1 PUSH4 0x23EDF697 GT PUSH2 0xC6 JUMPI DUP1 PUSH4 0x23EDF697 EQ PUSH2 0x172 JUMPI DUP1 PUSH4 0x2893ECA2 EQ PUSH2 0x19F JUMPI DUP1 PUSH4 0x38ABAFA0 EQ PUSH2 0x1CC JUMPI DUP1 PUSH4 0x3E35019E EQ PUSH2 0x1EC JUMPI PUSH1 0x0 DUP1 REVERT JUMPDEST DUP1 PUSH4 0x51CB30D EQ PUSH2 0xED JUMPI DUP1 PUSH4 0x87F44FD EQ PUSH2 0x123 JUMPI DUP1 PUSH4 0x210E07DF EQ PUSH2 0x150 JUMPI JUMPDEST PUSH1 0x0 DUP1 REVERT JUMPDEST CALLVALUE DUP1 ISZERO PUSH2 0xF9 JUMPI PUSH1 0x0 DUP1 REVERT JUMPDEST POP PUSH2 0x10D PUSH2 0x108 CALLDATASIZE PUSH1 0x4 PUSH2 0x2D9C JUMP JUMPDEST PUSH2 0x314 JUMP JUMPDEST PUSH1 0x40 MLOAD PUSH2 0x11A SWAP2 SWAP1 PUSH2 0x2DB5 JUMP JUMPDEST PUSH1 0x40 MLOAD DUP1 SWAP2 SUB SWAP1 RETURN JUMPDEST CALLVALUE DUP1 ISZERO PUSH2 0x12F JUMPI PUSH1 0x0 DUP1 REVERT JUMPDEST POP PUSH2 0x143 PUSH2 0x13E CALLDATASIZE PUSH1 0x4 PUSH2 0x2DF9 JUMP JUMPDEST PUSH2 0x3D4 JUMP JUMPDEST PUSH1 0x40 MLOAD PUSH2 0x11A SWAP2 SWAP1 PUSH2 0x2E79 JUMP JUMPDEST CALLVALUE DUP1 ISZERO PUSH2 0x15C JUMPI PUSH1 0x0 DUP1 REVERT JUMPDEST POP PUSH2 0x170 PUSH2 0x16B CALLDATASIZE PUSH1 0x4 PUSH2 0x2F1A JUMP JUMPDEST PUSH2 0x476 JUMP JUMPDEST STOP JUMPDEST CALLVALUE DUP1 ISZERO PUSH2 0x17E JUMPI PUSH1 0x0 DUP1 REVERT JUMPDEST POP PUSH2 0x192 PUSH2 0x18D CALLDATASIZE PUSH1 0x4 PUSH2 0x2D9C JUMP JUMPDEST PUSH2 0x7FD JUMP JUMPDEST PUSH1 0x40 MLOAD PUSH2 0x11A SWAP2 SWAP1 PUSH2 0x3017 JUMP JUMPDEST CALLVALUE DUP1 ISZERO PUSH2 0x1AB JUMPI PUSH1 0x0 DUP1 REVERT JUMPDEST POP PUSH2 0x1BF PUSH2 0x1BA CALLDATASIZE PUSH1 0x4 PUSH2 0x2D9C JUMP JUMPDEST PUSH2 0xA4A JUMP JUMPDEST PUSH1 0x40 MLOAD PUSH2 0x11A SWAP2 SWAP1 PUSH2 0x31B0 JUMP JUMPDEST CALLVALUE DUP1 ISZERO PUSH2 0x1D8 JUMPI PUSH1 0x0 DUP1 REVERT JUMPDEST POP PUSH2 0x170 PUSH2 0x1E7 CALLDATASIZE PUSH1 0x4 PUSH2 0x31C3 JUMP JUMPDEST PUSH2 0xE4F JUMP JUMPDEST CALLVALUE DUP1 ISZERO PUSH2 0x1F8 JUMPI PUSH1 0x0 DUP1 REVERT JUMPDEST POP PUSH2 0x20C PUSH2 0x207 CALLDATASIZE PUSH1 0x4 PUSH2 0x334D JUMP JUMPDEST PUSH2 0xF48 JUMP JUMPDEST PUSH1 0x40 MLOAD PUSH2 0x11A SWAP2 SWAP1 PUSH2 0x3396 JUMP JUMPDEST CALLVALUE DUP1 ISZERO PUSH2 0x225 JUMPI PUSH1 0x0 DUP1 REVERT JUMPDEST POP PUSH2 0x170 PUSH2 0x234 CALLDATASIZE PUSH1 0x4 PUSH2 0x2D9C JUMP JUMPDEST PUSH2 0x1480 JUMP JUMPDEST CALLVALUE DUP1 ISZERO PUSH2 0x245 JUMPI PUSH1 0x0 DUP1 REVERT JUMPDEST POP PUSH2 0x20C PUSH2 0x254 CALLDATASIZE PUSH1 0x4 PUSH2 0x33FA JUMP JUMPDEST PUSH2 0x15C7 JUMP JUMPDEST CALLVALUE DUP1 ISZERO PUSH2 0x265 JUMPI PUSH1 0x0 DUP1 REVERT JUMPDEST POP PUSH2 0x170 PUSH2 0x274 CALLDATASIZE PUSH1 0x4 PUSH2 0x342F JUMP JUMPDEST PUSH2 0x1B90 JUMP JUMPDEST CALLVALUE DUP1 ISZERO PUSH2 0x285 JUMPI PUSH1 0x0 DUP1 REVERT JUMPDEST POP PUSH2 0x170 PUSH2 0x294 CALLDATASIZE PUSH1 0x4 PUSH2 0x2DF9 JUMP JUMPDEST PUSH2 0x1C65 JUMP JUMPDEST CALLVALUE DUP1 ISZERO PUSH2 0x2A5 JUMPI PUSH1 0x0 DUP1 REVERT JUMPDEST POP PUSH2 0x20C PUSH2 0x2B4 CALLDATASIZE PUSH1 0x4 PUSH2 0x2D9C JUMP JUMPDEST PUSH2 0x1D04 JUMP JUMPDEST CALLVALUE DUP1 ISZERO PUSH2 0x2C5 JUMPI PUSH1 0x0 DUP1 REVERT JUMPDEST POP PUSH1 0x2 SLOAD PUSH1 0x40 MLOAD PUSH1 0x1 PUSH1 0x1 PUSH1 0xA0 SHL SUB SWAP1 SWAP2 AND DUP2 MSTORE PUSH1 0x20 ADD PUSH2 0x11A JUMP JUMPDEST PUSH2 0x170 PUSH2 0x2EF CALLDATASIZE PUSH1 0x4 PUSH2 0x3471 JUMP JUMPDEST PUSH2 0x216F JUMP JUMPDEST CALLVALUE DUP1 ISZERO PUSH2 0x300 JUMPI PUSH1 0x0 DUP1 REVERT JUMPDEST POP PUSH2 0x170 PUSH2 0x30F CALLDATASIZE PUSH1 0x4 PUSH2 0x2D9C JUMP JUMPDEST PUSH2 0x265E JUMP JUMPDEST PUSH1 0x0 DUP2 DUP2 MSTORE PUSH1 0x7 PUSH1 0x20 MSTORE PUSH1 0x40 SWAP1 KECCAK256 SLOAD PUSH1 0x60 SWAP1 PUSH1 0x1 PUSH1 0x1 PUSH1 0xA0 SHL SUB AND PUSH2 0x374 JUMPI PUSH1 0x40 MLOAD PUSH3 0x461BCD PUSH1 0xE5 SHL DUP2 MSTORE PUSH1 0x20 PUSH1 0x4 DUP3 ADD MSTORE PUSH1 0x11 PUSH1 0x24 DUP3 ADD MSTORE PUSH17 0x2B34B232B79036BAB9BA1032BC34B9BA17 PUSH1 0x79 SHL PUSH1 0x44 DUP3 ADD MSTORE PUSH1 0x64 ADD JUMPDEST PUSH1 0x40 MLOAD DUP1 SWAP2 SUB SWAP1 REVERT JUMPDEST PUSH1 0x0 DUP3 DUP2 MSTORE PUSH1 0xD PUSH1 0x20 SWAP1 DUP2 MSTORE PUSH1 0x40 SWAP2 DUP3 SWAP1 KECCAK256 DUP1 SLOAD DUP4 MLOAD DUP2 DUP5 MUL DUP2 ADD DUP5 ADD SWAP1 SWAP5 MSTORE DUP1 DUP5 MSTORE SWAP1 SWAP2 DUP4 ADD DUP3 DUP3 DUP1 ISZERO PUSH2 0x3C8 JUMPI PUSH1 0x20 MUL DUP3 ADD SWAP2 SWAP1 PUSH1 0x0 MSTORE PUSH1 0x20 PUSH1 0x0 KECCAK256 SWAP1 JUMPDEST DUP2 SLOAD DUP2 MSTORE PUSH1 0x20 ADD SWAP1 PUSH1 0x1 ADD SWAP1 DUP1 DUP4 GT PUSH2 0x3B4 JUMPI JUMPDEST POP POP POP POP POP SWAP1 POP SWAP2 SWAP1 POP JUMP JUMPDEST PUSH1 0x1 PUSH1 0x1 PUSH1 0xA0 SHL SUB DUP2 AND PUSH1 0x0 SWAP1 DUP2 MSTORE PUSH1 0x3 PUSH1 0x20 MSTORE PUSH1 0x40 SWAP1 KECCAK256 DUP1 SLOAD PUSH1 0x60 SWAP2 SWAP1 PUSH2 0x3FB SWAP1 PUSH2 0x34B0 JUMP JUMPDEST DUP1 PUSH1 0x1F ADD PUSH1 0x20 DUP1 SWAP2 DIV MUL PUSH1 0x20 ADD PUSH1 0x40 MLOAD SWAP1 DUP2 ADD PUSH1 0x40 MSTORE DUP1 SWAP3 SWAP2 SWAP1 DUP2 DUP2 MSTORE PUSH1 0x20 ADD DUP3 DUP1 SLOAD PUSH2 0x427 SWAP1 PUSH2 0x34B0 JUMP JUMPDEST DUP1 ISZERO PUSH2 0x3C8 JUMPI DUP1 PUSH1 0x1F LT PUSH2 0x449 JUMPI PUSH2 0x100 DUP1 DUP4 SLOAD DIV MUL DUP4 MSTORE SWAP2 PUSH1 0x20 ADD SWAP2 PUSH2 0x3C8 JUMP JUMPDEST DUP3 ADD SWAP2 SWAP1 PUSH1 0x0 MSTORE PUSH1 0x20 PUSH1 0x0 KECCAK256 SWAP1 JUMPDEST DUP2 SLOAD DUP2 MSTORE SWAP1 PUSH1 0x1 ADD SWAP1 PUSH1 0x20 ADD DUP1 DUP4 GT PUSH2 0x457 JUMPI POP SWAP4 SWAP7 SWAP6 POP POP POP POP POP POP JUMP JUMPDEST PUSH1 0x0 DUP1 SLOAD DUP2 DUP1 PUSH2 0x485 DUP4 PUSH2 0x3500 JUMP JUMPDEST SWAP2 SWAP1 POP SSTORE SWAP1 POP PUSH1 0x40 MLOAD DUP1 PUSH2 0x100 ADD PUSH1 0x40 MSTORE DUP1 DUP3 DUP2 MSTORE PUSH1 0x20 ADD DUP14 DUP14 DUP1 DUP1 PUSH1 0x1F ADD PUSH1 0x20 DUP1 SWAP2 DIV MUL PUSH1 0x20 ADD PUSH1 0x40 MLOAD SWAP1 DUP2 ADD PUSH1 0x40 MSTORE DUP1 SWAP4 SWAP3 SWAP2 SWAP1 DUP2 DUP2 MSTORE PUSH1 0x20 ADD DUP4 DUP4 DUP1 DUP3 DUP5 CALLDATACOPY PUSH1 0x0 SWAP3 ADD SWAP2 SWAP1 SWAP2 MSTORE POP POP POP SWAP1 DUP3 MSTORE POP PUSH1 0x40 DUP1 MLOAD PUSH1 0x20 PUSH1 0x1F DUP15 ADD DUP2 SWAP1 DIV DUP2 MUL DUP3 ADD DUP2 ADD SWAP1 SWAP3 MSTORE DUP13 DUP2 MSTORE SWAP2 DUP2 ADD SWAP2 SWAP1 DUP14 SWAP1 DUP14 SWAP1 DUP2 SWAP1 DUP5 ADD DUP4 DUP3 DUP1 DUP3 DUP5 CALLDATACOPY PUSH1 0x0 SWAP3 ADD SWAP2 SWAP1 SWAP2 MSTORE POP POP POP SWAP1 DUP3 MSTORE POP PUSH1 0x40 DUP1 MLOAD PUSH1 0x20 PUSH1 0x1F DUP13 ADD DUP2 SWAP1 DIV DUP2 MUL DUP3 ADD DUP2 ADD SWAP1 SWAP3 MSTORE DUP11 DUP2 MSTORE SWAP2 DUP2 ADD SWAP2 SWAP1 DUP12 SWAP1 DUP12 SWAP1 DUP2 SWAP1 DUP5 ADD DUP4 DUP3 DUP1 DUP3 DUP5 CALLDATACOPY PUSH1 0x0 SWAP3 ADD SWAP2 SWAP1 SWAP2 MSTORE POP POP POP SWAP1 DUP3 MSTORE POP PUSH1 0x40 DUP1 MLOAD PUSH1 0x20 PUSH1 0x1F DUP11 ADD DUP2 SWAP1 DIV DUP2 MUL DUP3 ADD DUP2 ADD SWAP1 SWAP3 MSTORE DUP9 DUP2 MSTORE SWAP2 DUP2 ADD SWAP2 SWAP1 DUP10 SWAP1 DUP10 SWAP1 DUP2 SWAP1 DUP5 ADD DUP4 DUP3 DUP1 DUP3 DUP5 CALLDATACOPY PUSH1 0x0 SWAP3 ADD SWAP2 SWAP1 SWAP2 MSTORE POP POP POP SWAP1 DUP3 MSTORE POP PUSH1 0x20 ADD PUSH2 0x594 DUP5 DUP7 PUSH2 0x3519 JUMP JUMPDEST DUP2 MSTORE PUSH1 0x20 DUP1 DUP3 ADD DUP8 SWAP1 MSTORE TIMESTAMP PUSH1 0x40 SWAP3 DUP4 ADD MSTORE PUSH1 0x0 DUP5 DUP2 MSTORE PUSH1 0x8 DUP3 MSTORE SWAP2 SWAP1 SWAP2 KECCAK256 DUP3 MLOAD DUP2 SSTORE SWAP1 DUP3 ADD MLOAD PUSH1 0x1 DUP3 ADD SWAP1 PUSH2 0x5C9 SWAP1 DUP3 PUSH2 0x3576 JUMP JUMPDEST POP PUSH1 0x40 DUP3 ADD MLOAD PUSH1 0x2 DUP3 ADD SWAP1 PUSH2 0x5DE SWAP1 DUP3 PUSH2 0x3576 JUMP JUMPDEST POP PUSH1 0x60 DUP3 ADD MLOAD PUSH1 0x3 DUP3 ADD SWAP1 PUSH2 0x5F3 SWAP1 DUP3 PUSH2 0x3576 JUMP JUMPDEST POP PUSH1 0x80 DUP3 ADD MLOAD PUSH1 0x4 DUP3 ADD SWAP1 PUSH2 0x608 SWAP1 DUP3 PUSH2 0x3576 JUMP JUMPDEST POP PUSH1 0xA0 DUP3 ADD MLOAD DUP1 MLOAD PUSH2 0x624 SWAP2 PUSH1 0x5 DUP5 ADD SWAP2 PUSH1 0x20 SWAP1 SWAP2 ADD SWAP1 PUSH2 0x2CDF JUMP JUMPDEST POP PUSH1 0xC0 DUP3 ADD MLOAD PUSH1 0x6 DUP1 DUP4 ADD SWAP2 SWAP1 SWAP2 SSTORE PUSH1 0xE0 SWAP1 SWAP3 ADD MLOAD PUSH1 0x7 SWAP2 DUP3 ADD SSTORE PUSH1 0x0 DUP4 DUP2 MSTORE PUSH1 0x20 SWAP2 DUP3 MSTORE PUSH1 0x40 DUP1 DUP3 KECCAK256 DUP1 SLOAD PUSH1 0x1 PUSH1 0x1 PUSH1 0xA0 SHL SUB NOT AND CALLER SWAP1 DUP2 OR SWAP1 SWAP2 SSTORE DUP3 MSTORE SWAP3 DUP3 MSTORE DUP3 DUP2 KECCAK256 DUP1 SLOAD PUSH1 0x1 DUP2 ADD DUP3 SSTORE SWAP1 DUP3 MSTORE DUP3 DUP3 KECCAK256 ADD DUP5 SWAP1 SSTORE DUP3 MLOAD PUSH1 0x1F DUP16 ADD DUP4 SWAP1 DIV DUP4 MUL DUP2 ADD DUP4 ADD SWAP1 SWAP4 MSTORE DUP14 DUP4 MSTORE SWAP2 PUSH2 0x6B5 SWAP2 DUP16 SWAP1 DUP16 SWAP1 DUP2 SWAP1 DUP5 ADD DUP4 DUP3 DUP1 DUP3 DUP5 CALLDATACOPY PUSH1 0x0 SWAP3 ADD SWAP2 SWAP1 SWAP2 MSTORE POP PUSH2 0x2728 SWAP3 POP POP POP JUMP JUMPDEST PUSH1 0x40 DUP1 MLOAD DUP1 DUP3 ADD DUP3 MSTORE PUSH1 0x1 DUP2 MSTORE PUSH32 0x2000000000000000000000000000000000000000000000000000000000000000 PUSH1 0x20 DUP1 DUP4 ADD SWAP2 DUP3 MSTORE DUP4 MLOAD DUP1 DUP6 ADD DUP6 MSTORE PUSH1 0x0 DUP1 DUP3 MSTORE SWAP1 DUP3 ADD DUP2 SWAP1 MSTORE DUP5 MLOAD DUP1 DUP7 ADD SWAP1 SWAP6 MSTORE SWAP3 MLOAD DUP5 MSTORE DUP4 ADD MSTORE SWAP2 SWAP3 POP SWAP1 JUMPDEST PUSH2 0x71B DUP4 DUP4 PUSH2 0x2755 JUMP JUMPDEST PUSH2 0x726 SWAP1 PUSH1 0x1 PUSH2 0x3636 JUMP JUMPDEST DUP2 LT ISZERO PUSH2 0x7EC JUMPI PUSH1 0x0 PUSH2 0x741 PUSH2 0x73C DUP6 DUP6 PUSH2 0x27EF JUMP JUMPDEST PUSH2 0x280E JUMP JUMPDEST SWAP1 POP PUSH1 0xA DUP2 PUSH1 0x40 MLOAD PUSH2 0x753 SWAP2 SWAP1 PUSH2 0x364F JUMP JUMPDEST SWAP1 DUP2 MSTORE PUSH1 0x40 DUP1 MLOAD PUSH1 0x20 SWAP3 DUP2 SWAP1 SUB DUP4 ADD SWAP1 KECCAK256 PUSH1 0x0 DUP9 DUP2 MSTORE SWAP3 MSTORE SWAP1 KECCAK256 SLOAD PUSH1 0xFF AND PUSH2 0x7E3 JUMPI PUSH1 0x9 DUP2 PUSH1 0x40 MLOAD PUSH2 0x785 SWAP2 SWAP1 PUSH2 0x364F JUMP JUMPDEST SWAP1 DUP2 MSTORE PUSH1 0x40 MLOAD PUSH1 0x20 SWAP2 DUP2 SWAP1 SUB DUP3 ADD DUP2 KECCAK256 DUP1 SLOAD PUSH1 0x1 DUP1 DUP3 ADD DUP4 SSTORE PUSH1 0x0 SWAP3 DUP4 MSTORE SWAP4 SWAP1 SWAP2 KECCAK256 ADD DUP8 SWAP1 SSTORE PUSH1 0xA SWAP1 PUSH2 0x7B9 SWAP1 DUP5 SWAP1 PUSH2 0x364F JUMP JUMPDEST SWAP1 DUP2 MSTORE PUSH1 0x40 DUP1 MLOAD PUSH1 0x20 SWAP3 DUP2 SWAP1 SUB DUP4 ADD SWAP1 KECCAK256 PUSH1 0x0 DUP10 DUP2 MSTORE SWAP3 MSTORE SWAP1 KECCAK256 DUP1 SLOAD PUSH1 0xFF NOT AND SWAP2 ISZERO ISZERO SWAP2 SWAP1 SWAP2 OR SWAP1 SSTORE JUMPDEST POP PUSH1 0x1 ADD PUSH2 0x711 JUMP JUMPDEST POP POP POP POP POP POP POP POP POP POP POP POP POP POP POP JUMP JUMPDEST PUSH1 0x0 DUP2 DUP2 MSTORE PUSH1 0x7 PUSH1 0x20 MSTORE PUSH1 0x40 SWAP1 KECCAK256 SLOAD PUSH1 0x60 SWAP1 PUSH1 0x1 PUSH1 0x1 PUSH1 0xA0 SHL SUB AND PUSH2 0x858 JUMPI PUSH1 0x40 MLOAD PUSH3 0x461BCD PUSH1 0xE5 SHL DUP2 MSTORE PUSH1 0x20 PUSH1 0x4 DUP3 ADD MSTORE PUSH1 0x11 PUSH1 0x24 DUP3 ADD MSTORE PUSH17 0x2B34B232B79036BAB9BA1032BC34B9BA17 PUSH1 0x79 SHL PUSH1 0x44 DUP3 ADD MSTORE PUSH1 0x64 ADD PUSH2 0x36B JUMP JUMPDEST PUSH1 0x0 DUP3 DUP2 MSTORE PUSH1 0xB PUSH1 0x20 MSTORE PUSH1 0x40 DUP2 KECCAK256 SLOAD PUSH8 0xFFFFFFFFFFFFFFFF DUP2 GT ISZERO PUSH2 0x87F JUMPI PUSH2 0x87F PUSH2 0x320F JUMP JUMPDEST PUSH1 0x40 MLOAD SWAP1 DUP1 DUP3 MSTORE DUP1 PUSH1 0x20 MUL PUSH1 0x20 ADD DUP3 ADD PUSH1 0x40 MSTORE DUP1 ISZERO PUSH2 0x8E4 JUMPI DUP2 PUSH1 0x20 ADD JUMPDEST PUSH2 0x8D1 PUSH1 0x40 MLOAD DUP1 PUSH1 0x80 ADD PUSH1 0x40 MSTORE DUP1 PUSH1 0x0 PUSH1 0x1 PUSH1 0x1 PUSH1 0xA0 SHL SUB AND DUP2 MSTORE PUSH1 0x20 ADD PUSH1 0x60 DUP2 MSTORE PUSH1 0x20 ADD PUSH1 0x0 DUP2 MSTORE PUSH1 0x20 ADD PUSH1 0x0 DUP2 MSTORE POP SWAP1 JUMP JUMPDEST DUP2 MSTORE PUSH1 0x20 ADD SWAP1 PUSH1 0x1 SWAP1 SUB SWAP1 DUP2 PUSH2 0x89D JUMPI SWAP1 POP JUMPDEST POP SWAP1 POP PUSH1 0x0 JUMPDEST PUSH1 0x0 DUP5 DUP2 MSTORE PUSH1 0xB PUSH1 0x20 MSTORE PUSH1 0x40 SWAP1 KECCAK256 SLOAD DUP2 LT ISZERO PUSH2 0xA43 JUMPI PUSH1 0x0 DUP5 DUP2 MSTORE PUSH1 0xB PUSH1 0x20 MSTORE PUSH1 0x40 DUP2 KECCAK256 DUP1 SLOAD PUSH1 0xC SWAP3 SWAP2 SWAP1 DUP5 SWAP1 DUP2 LT PUSH2 0x925 JUMPI PUSH2 0x925 PUSH2 0x366B JUMP JUMPDEST SWAP1 PUSH1 0x0 MSTORE PUSH1 0x20 PUSH1 0x0 KECCAK256 ADD SLOAD DUP2 MSTORE PUSH1 0x20 ADD SWAP1 DUP2 MSTORE PUSH1 0x20 ADD PUSH1 0x0 KECCAK256 PUSH1 0x40 MLOAD DUP1 PUSH1 0x80 ADD PUSH1 0x40 MSTORE SWAP1 DUP2 PUSH1 0x0 DUP3 ADD PUSH1 0x0 SWAP1 SLOAD SWAP1 PUSH2 0x100 EXP SWAP1 DIV PUSH1 0x1 PUSH1 0x1 PUSH1 0xA0 SHL SUB AND PUSH1 0x1 PUSH1 0x1 PUSH1 0xA0 SHL SUB AND PUSH1 0x1 PUSH1 0x1 PUSH1 0xA0 SHL SUB AND DUP2 MSTORE PUSH1 0x20 ADD PUSH1 0x1 DUP3 ADD DUP1 SLOAD PUSH2 0x988 SWAP1 PUSH2 0x34B0 JUMP JUMPDEST DUP1 PUSH1 0x1F ADD PUSH1 0x20 DUP1 SWAP2 DIV MUL PUSH1 0x20 ADD PUSH1 0x40 MLOAD SWAP1 DUP2 ADD PUSH1 0x40 MSTORE DUP1 SWAP3 SWAP2 SWAP1 DUP2 DUP2 MSTORE PUSH1 0x20 ADD DUP3 DUP1 SLOAD PUSH2 0x9B4 SWAP1 PUSH2 0x34B0 JUMP JUMPDEST DUP1 ISZERO PUSH2 0xA01 JUMPI DUP1 PUSH1 0x1F LT PUSH2 0x9D6 JUMPI PUSH2 0x100 DUP1 DUP4 SLOAD DIV MUL DUP4 MSTORE SWAP2 PUSH1 0x20 ADD SWAP2 PUSH2 0xA01 JUMP JUMPDEST DUP3 ADD SWAP2 SWAP1 PUSH1 0x0 MSTORE PUSH1 0x20 PUSH1 0x0 KECCAK256 SWAP1 JUMPDEST DUP2 SLOAD DUP2 MSTORE SWAP1 PUSH1 0x1 ADD SWAP1 PUSH1 0x20 ADD DUP1 DUP4 GT PUSH2 0x9E4 JUMPI DUP3 SWAP1 SUB PUSH1 0x1F AND DUP3 ADD SWAP2 JUMPDEST POP POP POP POP POP DUP2 MSTORE PUSH1 0x20 ADD PUSH1 0x2 DUP3 ADD SLOAD DUP2 MSTORE PUSH1 0x20 ADD PUSH1 0x3 DUP3 ADD SLOAD DUP2 MSTORE POP POP DUP3 DUP3 DUP2 MLOAD DUP2 LT PUSH2 0xA30 JUMPI PUSH2 0xA30 PUSH2 0x366B JUMP JUMPDEST PUSH1 0x20 SWAP1 DUP2 MUL SWAP2 SWAP1 SWAP2 ADD ADD MSTORE PUSH1 0x1 ADD PUSH2 0x8EA JUMP JUMPDEST POP SWAP3 SWAP2 POP POP JUMP JUMPDEST PUSH2 0xA92 PUSH1 0x40 MLOAD DUP1 PUSH2 0x100 ADD PUSH1 0x40 MSTORE DUP1 PUSH1 0x0 DUP2 MSTORE PUSH1 0x20 ADD PUSH1 0x60 DUP2 MSTORE PUSH1 0x20 ADD PUSH1 0x60 DUP2 MSTORE PUSH1 0x20 ADD PUSH1 0x60 DUP2 MSTORE PUSH1 0x20 ADD PUSH1 0x60 DUP2 MSTORE PUSH1 0x20 ADD PUSH1 0x60 DUP2 MSTORE PUSH1 0x20 ADD PUSH1 0x0 DUP2 MSTORE PUSH1 0x20 ADD PUSH1 0x0 DUP2 MSTORE POP SWAP1 JUMP JUMPDEST PUSH1 0x0 DUP3 DUP2 MSTORE PUSH1 0x7 PUSH1 0x20 MSTORE PUSH1 0x40 SWAP1 KECCAK256 SLOAD PUSH1 0x1 PUSH1 0x1 PUSH1 0xA0 SHL SUB AND PUSH2 0xAEA JUMPI PUSH1 0x40 MLOAD PUSH3 0x461BCD PUSH1 0xE5 SHL DUP2 MSTORE PUSH1 0x20 PUSH1 0x4 DUP3 ADD MSTORE PUSH1 0x11 PUSH1 0x24 DUP3 ADD MSTORE PUSH17 0x2B34B232B79036BAB9BA1032BC34B9BA17 PUSH1 0x79 SHL PUSH1 0x44 DUP3 ADD MSTORE PUSH1 0x64 ADD PUSH2 0x36B JUMP JUMPDEST PUSH1 0x8 PUSH1 0x0 DUP4 DUP2 MSTORE PUSH1 0x20 ADD SWAP1 DUP2 MSTORE PUSH1 0x20 ADD PUSH1 0x0 KECCAK256 PUSH1 0x40 MLOAD DUP1 PUSH2 0x100 ADD PUSH1 0x40 MSTORE SWAP1 DUP2 PUSH1 0x0 DUP3 ADD SLOAD DUP2 MSTORE PUSH1 0x20 ADD PUSH1 0x1 DUP3 ADD DUP1 SLOAD PUSH2 0xB23 SWAP1 PUSH2 0x34B0 JUMP JUMPDEST DUP1 PUSH1 0x1F ADD PUSH1 0x20 DUP1 SWAP2 DIV MUL PUSH1 0x20 ADD PUSH1 0x40 MLOAD SWAP1 DUP2 ADD PUSH1 0x40 MSTORE DUP1 SWAP3 SWAP2 SWAP1 DUP2 DUP2 MSTORE PUSH1 0x20 ADD DUP3 DUP1 SLOAD PUSH2 0xB4F SWAP1 PUSH2 0x34B0 JUMP JUMPDEST DUP1 ISZERO PUSH2 0xB9C JUMPI DUP1 PUSH1 0x1F LT PUSH2 0xB71 JUMPI PUSH2 0x100 DUP1 DUP4 SLOAD DIV MUL DUP4 MSTORE SWAP2 PUSH1 0x20 ADD SWAP2 PUSH2 0xB9C JUMP JUMPDEST DUP3 ADD SWAP2 SWAP1 PUSH1 0x0 MSTORE PUSH1 0x20 PUSH1 0x0 KECCAK256 SWAP1 JUMPDEST DUP2 SLOAD DUP2 MSTORE SWAP1 PUSH1 0x1 ADD SWAP1 PUSH1 0x20 ADD DUP1 DUP4 GT PUSH2 0xB7F JUMPI DUP3 SWAP1 SUB PUSH1 0x1F AND DUP3 ADD SWAP2 JUMPDEST POP POP POP POP POP DUP2 MSTORE PUSH1 0x20 ADD PUSH1 0x2 DUP3 ADD DUP1 SLOAD PUSH2 0xBB5 SWAP1 PUSH2 0x34B0 JUMP JUMPDEST DUP1 PUSH1 0x1F ADD PUSH1 0x20 DUP1 SWAP2 DIV MUL PUSH1 0x20 ADD PUSH1 0x40 MLOAD SWAP1 DUP2 ADD PUSH1 0x40 MSTORE DUP1 SWAP3 SWAP2 SWAP1 DUP2 DUP2 MSTORE PUSH1 0x20 ADD DUP3 DUP1 SLOAD PUSH2 0xBE1 SWAP1 PUSH2 0x34B0 JUMP JUMPDEST DUP1 ISZERO PUSH2 0xC2E JUMPI DUP1 PUSH1 0x1F LT PUSH2 0xC03 JUMPI PUSH2 0x100 DUP1 DUP4 SLOAD DIV MUL DUP4 MSTORE SWAP2 PUSH1 0x20 ADD SWAP2 PUSH2 0xC2E JUMP JUMPDEST DUP3 ADD SWAP2 SWAP1 PUSH1 0x0 MSTORE PUSH1 0x20 PUSH1 0x0 KECCAK256 SWAP1 JUMPDEST DUP2 SLOAD DUP2 MSTORE SWAP1 PUSH1 0x1 ADD SWAP1 PUSH1 0x20 ADD DUP1 DUP4 GT PUSH2 0xC11 JUMPI DUP3 SWAP1 SUB PUSH1 0x1F AND DUP3 ADD SWAP2 JUMPDEST POP POP POP POP POP DUP2 MSTORE PUSH1 0x20 ADD PUSH1 0x3 DUP3 ADD DUP1 SLOAD PUSH2 0xC47 SWAP1 PUSH2 0x34B0 JUMP JUMPDEST DUP1 PUSH1 0x1F ADD PUSH1 0x20 DUP1 SWAP2 DIV MUL PUSH1 0x20 ADD PUSH1 0x40 MLOAD SWAP1 DUP2 ADD PUSH1 0x40 MSTORE DUP1 SWAP3 SWAP2 SWAP1 DUP2 DUP2 MSTORE PUSH1 0x20 ADD DUP3 DUP1 SLOAD PUSH2 0xC73 SWAP1 PUSH2 0x34B0 JUMP JUMPDEST DUP1 ISZERO PUSH2 0xCC0 JUMPI DUP1 PUSH1 0x1F LT PUSH2 0xC95 JUMPI PUSH2 0x100 DUP1 DUP4 SLOAD DIV MUL DUP4 MSTORE SWAP2 PUSH1 0x20 ADD SWAP2 PUSH2 0xCC0 JUMP JUMPDEST DUP3 ADD SWAP2 SWAP1 PUSH1 0x0 MSTORE PUSH1 0x20 PUSH1 0x0 KECCAK256 SWAP1 JUMPDEST DUP2 SLOAD DUP2 MSTORE SWAP1 PUSH1 0x1 ADD SWAP1 PUSH1 0x20 ADD DUP1 DUP4 GT PUSH2 0xCA3 JUMPI DUP3 SWAP1 SUB PUSH1 0x1F AND DUP3 ADD SWAP2 JUMPDEST POP POP POP POP POP DUP2 MSTORE PUSH1 0x20 ADD PUSH1 0x4 DUP3 ADD DUP1 SLOAD PUSH2 0xCD9 SWAP1 PUSH2 0x34B0 JUMP JUMPDEST DUP1 PUSH1 0x1F ADD PUSH1 0x20 DUP1 SWAP2 DIV MUL PUSH1 0x20 ADD PUSH1 0x40 MLOAD SWAP1 DUP2 ADD PUSH1 0x40 MSTORE DUP1 SWAP3 SWAP2 SWAP1 DUP2 DUP2 MSTORE PUSH1 0x20 ADD DUP3 DUP1 SLOAD PUSH2 0xD05 SWAP1 PUSH2 0x34B0 JUMP JUMPDEST DUP1 ISZERO PUSH2 0xD52 JUMPI DUP1 PUSH1 0x1F LT PUSH2 0xD27 JUMPI PUSH2 0x100 DUP1 DUP4 SLOAD DIV MUL DUP4 MSTORE SWAP2 PUSH1 0x20 ADD SWAP2 PUSH2 0xD52 JUMP JUMPDEST DUP3 ADD SWAP2 SWAP1 PUSH1 0x0 MSTORE PUSH1 0x20 PUSH1 0x0 KECCAK256 SWAP1 JUMPDEST DUP2 SLOAD DUP2 MSTORE SWAP1 PUSH1 0x1 ADD SWAP1 PUSH1 0x20 ADD DUP1 DUP4 GT PUSH2 0xD35 JUMPI DUP3 SWAP1 SUB PUSH1 0x1F AND DUP3 ADD SWAP2 JUMPDEST POP POP POP POP POP DUP2 MSTORE PUSH1 0x20 ADD PUSH1 0x5 DUP3 ADD DUP1 SLOAD DUP1 PUSH1 0x20 MUL PUSH1 0x20 ADD PUSH1 0x40 MLOAD SWAP1 DUP2 ADD PUSH1 0x40 MSTORE DUP1 SWAP3 SWAP2 SWAP1 DUP2 DUP2 MSTORE PUSH1 0x20 ADD PUSH1 0x0 SWAP1 JUMPDEST DUP3 DUP3 LT ISZERO PUSH2 0xE2C JUMPI DUP4 DUP3 SWAP1 PUSH1 0x0 MSTORE PUSH1 0x20 PUSH1 0x0 KECCAK256 ADD DUP1 SLOAD PUSH2 0xD9F SWAP1 PUSH2 0x34B0 JUMP JUMPDEST DUP1 PUSH1 0x1F ADD PUSH1 0x20 DUP1 SWAP2 DIV MUL PUSH1 0x20 ADD PUSH1 0x40 MLOAD SWAP1 DUP2 ADD PUSH1 0x40 MSTORE DUP1 SWAP3 SWAP2 SWAP1 DUP2 DUP2 MSTORE PUSH1 0x20 ADD DUP3 DUP1 SLOAD PUSH2 0xDCB SWAP1 PUSH2 0x34B0 JUMP JUMPDEST DUP1 ISZERO PUSH2 0xE18 JUMPI DUP1 PUSH1 0x1F LT PUSH2 0xDED JUMPI PUSH2 0x100 DUP1 DUP4 SLOAD DIV MUL DUP4 MSTORE SWAP2 PUSH1 0x20 ADD SWAP2 PUSH2 0xE18 JUMP JUMPDEST DUP3 ADD SWAP2 SWAP1 PUSH1 0x0 MSTORE PUSH1 0x20 PUSH1 0x0 KECCAK256 SWAP1 JUMPDEST DUP2 SLOAD DUP2 MSTORE SWAP1 PUSH1 0x1 ADD SWAP1 PUSH1 0x20 ADD DUP1 DUP4 GT PUSH2 0xDFB JUMPI DUP3 SWAP1 SUB PUSH1 0x1F AND DUP3 ADD SWAP2 JUMPDEST POP POP POP POP POP DUP2 MSTORE PUSH1 0x20 ADD SWAP1 PUSH1 0x1 ADD SWAP1 PUSH2 0xD80 JUMP JUMPDEST POP POP POP POP DUP2 MSTORE PUSH1 0x20 ADD PUSH1 0x6 DUP3 ADD SLOAD DUP2 MSTORE PUSH1 0x20 ADD PUSH1 0x7 DUP3 ADD SLOAD DUP2 MSTORE POP POP SWAP1 POP SWAP2 SWAP1 POP JUMP JUMPDEST PUSH1 0x0 DUP4 DUP2 MSTORE PUSH1 0x7 PUSH1 0x20 MSTORE PUSH1 0x40 SWAP1 KECCAK256 SLOAD PUSH1 0x1 PUSH1 0x1 PUSH1 0xA0 SHL SUB AND CALLER EQ PUSH2 0xEB5 JUMPI PUSH1 0x40 MLOAD PUSH3 0x461BCD PUSH1 0xE5 SHL DUP2 MSTORE PUSH1 0x20 PUSH1 0x4 DUP3 ADD MSTORE PUSH1 0x19 PUSH1 0x24 DUP3 ADD MSTORE PUSH32 0x596F7520646F206E6F74206F776E2074686520766964656F2E00000000000000 PUSH1 0x44 DUP3 ADD MSTORE PUSH1 0x64 ADD PUSH2 0x36B JUMP JUMPDEST PUSH1 0x0 DUP4 DUP2 MSTORE PUSH1 0x7 PUSH1 0x20 MSTORE PUSH1 0x40 SWAP1 KECCAK256 SLOAD PUSH1 0x1 PUSH1 0x1 PUSH1 0xA0 SHL SUB AND PUSH2 0xF0D JUMPI PUSH1 0x40 MLOAD PUSH3 0x461BCD PUSH1 0xE5 SHL DUP2 MSTORE PUSH1 0x20 PUSH1 0x4 DUP3 ADD MSTORE PUSH1 0x11 PUSH1 0x24 DUP3 ADD MSTORE PUSH17 0x2B34B232B79036BAB9BA1032BC34B9BA17 PUSH1 0x79 SHL PUSH1 0x44 DUP3 ADD MSTORE PUSH1 0x64 ADD PUSH2 0x36B JUMP JUMPDEST PUSH1 0x0 JUMPDEST DUP2 DUP2 LT ISZERO PUSH2 0xF42 JUMPI PUSH2 0xF3A DUP5 DUP5 DUP5 DUP5 DUP2 DUP2 LT PUSH2 0xF2E JUMPI PUSH2 0xF2E PUSH2 0x366B JUMP JUMPDEST SWAP1 POP PUSH1 0x20 MUL ADD CALLDATALOAD PUSH2 0x2877 JUMP JUMPDEST PUSH1 0x1 ADD PUSH2 0xF10 JUMP JUMPDEST POP POP POP POP JUMP JUMPDEST PUSH1 0x60 PUSH1 0x0 DUP1 JUMPDEST DUP4 MLOAD DUP2 LT ISZERO PUSH2 0xFA4 JUMPI PUSH1 0x9 DUP5 DUP3 DUP2 MLOAD DUP2 LT PUSH2 0xF6B JUMPI PUSH2 0xF6B PUSH2 0x366B JUMP JUMPDEST PUSH1 0x20 MUL PUSH1 0x20 ADD ADD MLOAD PUSH1 0x40 MLOAD PUSH2 0xF80 SWAP2 SWAP1 PUSH2 0x364F JUMP JUMPDEST SWAP1 DUP2 MSTORE PUSH1 0x40 MLOAD SWAP1 DUP2 SWAP1 SUB PUSH1 0x20 ADD SWAP1 KECCAK256 SLOAD PUSH2 0xF9A SWAP1 DUP4 PUSH2 0x3636 JUMP JUMPDEST SWAP2 POP PUSH1 0x1 ADD PUSH2 0xF4E JUMP JUMPDEST POP PUSH1 0x0 DUP2 PUSH8 0xFFFFFFFFFFFFFFFF DUP2 GT ISZERO PUSH2 0xFC0 JUMPI PUSH2 0xFC0 PUSH2 0x320F JUMP JUMPDEST PUSH1 0x40 MLOAD SWAP1 DUP1 DUP3 MSTORE DUP1 PUSH1 0x20 MUL PUSH1 0x20 ADD DUP3 ADD PUSH1 0x40 MSTORE DUP1 ISZERO PUSH2 0x1039 JUMPI DUP2 PUSH1 0x20 ADD JUMPDEST PUSH2 0x1026 PUSH1 0x40 MLOAD DUP1 PUSH2 0x100 ADD PUSH1 0x40 MSTORE DUP1 PUSH1 0x0 DUP2 MSTORE PUSH1 0x20 ADD PUSH1 0x60 DUP2 MSTORE PUSH1 0x20 ADD PUSH1 0x60 DUP2 MSTORE PUSH1 0x20 ADD PUSH1 0x60 DUP2 MSTORE PUSH1 0x20 ADD PUSH1 0x60 DUP2 MSTORE PUSH1 0x20 ADD PUSH1 0x60 DUP2 MSTORE PUSH1 0x20 ADD PUSH1 0x0 DUP2 MSTORE PUSH1 0x20 ADD PUSH1 0x0 DUP2 MSTORE POP SWAP1 JUMP JUMPDEST DUP2 MSTORE PUSH1 0x20 ADD SWAP1 PUSH1 0x1 SWAP1 SUB SWAP1 DUP2 PUSH2 0xFDE JUMPI SWAP1 POP JUMPDEST POP SWAP1 POP PUSH1 0x0 DUP1 JUMPDEST DUP6 MLOAD DUP2 LT ISZERO PUSH2 0x1476 JUMPI PUSH1 0x0 JUMPDEST PUSH1 0x9 DUP8 DUP4 DUP2 MLOAD DUP2 LT PUSH2 0x1060 JUMPI PUSH2 0x1060 PUSH2 0x366B JUMP JUMPDEST PUSH1 0x20 MUL PUSH1 0x20 ADD ADD MLOAD PUSH1 0x40 MLOAD PUSH2 0x1075 SWAP2 SWAP1 PUSH2 0x364F JUMP JUMPDEST SWAP1 DUP2 MSTORE PUSH1 0x40 MLOAD SWAP1 DUP2 SWAP1 SUB PUSH1 0x20 ADD SWAP1 KECCAK256 SLOAD DUP2 LT ISZERO PUSH2 0x146D JUMPI PUSH1 0x8 PUSH1 0x0 PUSH1 0x9 DUP10 DUP6 DUP2 MLOAD DUP2 LT PUSH2 0x10A4 JUMPI PUSH2 0x10A4 PUSH2 0x366B JUMP JUMPDEST PUSH1 0x20 MUL PUSH1 0x20 ADD ADD MLOAD PUSH1 0x40 MLOAD PUSH2 0x10B9 SWAP2 SWAP1 PUSH2 0x364F JUMP JUMPDEST SWAP1 DUP2 MSTORE PUSH1 0x20 ADD PUSH1 0x40 MLOAD DUP1 SWAP2 SUB SWAP1 KECCAK256 DUP4 DUP2 SLOAD DUP2 LT PUSH2 0x10D8 JUMPI PUSH2 0x10D8 PUSH2 0x366B JUMP JUMPDEST SWAP1 PUSH1 0x0 MSTORE PUSH1 0x20 PUSH1 0x0 KECCAK256 ADD SLOAD DUP2 MSTORE PUSH1 0x20 ADD SWAP1 DUP2 MSTORE PUSH1 0x20 ADD PUSH1 0x0 KECCAK256 PUSH1 0x40 MLOAD DUP1 PUSH2 0x100 ADD PUSH1 0x40 MSTORE SWAP1 DUP2 PUSH1 0x0 DUP3 ADD SLOAD DUP2 MSTORE PUSH1 0x20 ADD PUSH1 0x1 DUP3 ADD DUP1 SLOAD PUSH2 0x1117 SWAP1 PUSH2 0x34B0 JUMP JUMPDEST DUP1 PUSH1 0x1F ADD PUSH1 0x20 DUP1 SWAP2 DIV MUL PUSH1 0x20 ADD PUSH1 0x40 MLOAD SWAP1 DUP2 ADD PUSH1 0x40 MSTORE DUP1 SWAP3 SWAP2 SWAP1 DUP2 DUP2 MSTORE PUSH1 0x20 ADD DUP3 DUP1 SLOAD PUSH2 0x1143 SWAP1 PUSH2 0x34B0 JUMP JUMPDEST DUP1 ISZERO PUSH2 0x1190 JUMPI DUP1 PUSH1 0x1F LT PUSH2 0x1165 JUMPI PUSH2 0x100 DUP1 DUP4 SLOAD DIV MUL DUP4 MSTORE SWAP2 PUSH1 0x20 ADD SWAP2 PUSH2 0x1190 JUMP JUMPDEST DUP3 ADD SWAP2 SWAP1 PUSH1 0x0 MSTORE PUSH1 0x20 PUSH1 0x0 KECCAK256 SWAP1 JUMPDEST DUP2 SLOAD DUP2 MSTORE SWAP1 PUSH1 0x1 ADD SWAP1 PUSH1 0x20 ADD DUP1 DUP4 GT PUSH2 0x1173 JUMPI DUP3 SWAP1 SUB PUSH1 0x1F AND DUP3 ADD SWAP2 JUMPDEST POP POP POP POP POP DUP2 MSTORE PUSH1 0x20 ADD PUSH1 0x2 DUP3 ADD DUP1 SLOAD PUSH2 0x11A9 SWAP1 PUSH2 0x34B0 JUMP JUMPDEST DUP1 PUSH1 0x1F ADD PUSH1 0x20 DUP1 SWAP2 DIV MUL PUSH1 0x20 ADD PUSH1 0x40 MLOAD SWAP1 DUP2 ADD PUSH1 0x40 MSTORE DUP1 SWAP3 SWAP2 SWAP1 DUP2 DUP2 MSTORE PUSH1 0x20 ADD DUP3 DUP1 SLOAD PUSH2 0x11D5 SWAP1 PUSH2 0x34B0 JUMP JUMPDEST DUP1 ISZERO PUSH2 0x1222 JUMPI DUP1 PUSH1 0x1F LT PUSH2 0x11F7 JUMPI PUSH2 0x100 DUP1 DUP4 SLOAD DIV MUL DUP4 MSTORE SWAP2 PUSH1 0x20 ADD SWAP2 PUSH2 0x1222 JUMP JUMPDEST DUP3 ADD SWAP2 SWAP1 PUSH1 0x0 MSTORE PUSH1 0x20 PUSH1 0x0 KECCAK256 SWAP1 JUMPDEST DUP2 SLOAD DUP2 MSTORE SWAP1 PUSH1 0x1 ADD SWAP1 PUSH1 0x20 ADD DUP1 DUP4 GT PUSH2 0x1205 JUMPI DUP3 SWAP1 SUB PUSH1 0x1F AND DUP3 ADD SWAP2 JUMPDEST POP POP POP POP POP DUP2 MSTORE PUSH1 0x20 ADD PUSH1 0x3 DUP3 ADD DUP1 SLOAD PUSH2 0x123B SWAP1 PUSH2 0x34B0 JUMP JUMPDEST DUP1 PUSH1 0x1F ADD PUSH1 0x20 DUP1 SWAP2 DIV MUL PUSH1 0x20 ADD PUSH1 0x40 MLOAD SWAP1 DUP2 ADD PUSH1 0x40 MSTORE DUP1 SWAP3 SWAP2 SWAP1 DUP2 DUP2 MSTORE PUSH1 0x20 ADD DUP3 DUP1 SLOAD PUSH2 0x1267 SWAP1 PUSH2 0x34B0 JUMP JUMPDEST DUP1 ISZERO PUSH2 0x12B4 JUMPI DUP1 PUSH1 0x1F LT PUSH2 0x1289 JUMPI PUSH2 0x100 DUP1 DUP4 SLOAD DIV MUL DUP4 MSTORE SWAP2 PUSH1 0x20 ADD SWAP2 PUSH2 0x12B4 JUMP JUMPDEST DUP3 ADD SWAP2 SWAP1 PUSH1 0x0 MSTORE PUSH1 0x20 PUSH1 0x0 KECCAK256 SWAP1 JUMPDEST DUP2 SLOAD DUP2 MSTORE SWAP1 PUSH1 0x1 ADD SWAP1 PUSH1 0x20 ADD DUP1 DUP4 GT PUSH2 0x1297 JUMPI DUP3 SWAP1 SUB PUSH1 0x1F AND DUP3 ADD SWAP2 JUMPDEST POP POP POP POP POP DUP2 MSTORE PUSH1 0x20 ADD PUSH1 0x4 DUP3 ADD DUP1 SLOAD PUSH2 0x12CD SWAP1 PUSH2 0x34B0 JUMP JUMPDEST DUP1 PUSH1 0x1F ADD PUSH1 0x20 DUP1 SWAP2 DIV MUL PUSH1 0x20 ADD PUSH1 0x40 MLOAD SWAP1 DUP2 ADD PUSH1 0x40 MSTORE DUP1 SWAP3 SWAP2 SWAP1 DUP2 DUP2 MSTORE PUSH1 0x20 ADD DUP3 DUP1 SLOAD PUSH2 0x12F9 SWAP1 PUSH2 0x34B0 JUMP JUMPDEST DUP1 ISZERO PUSH2 0x1346 JUMPI DUP1 PUSH1 0x1F LT PUSH2 0x131B JUMPI PUSH2 0x100 DUP1 DUP4 SLOAD DIV MUL DUP4 MSTORE SWAP2 PUSH1 0x20 ADD SWAP2 PUSH2 0x1346 JUMP JUMPDEST DUP3 ADD SWAP2 SWAP1 PUSH1 0x0 MSTORE PUSH1 0x20 PUSH1 0x0 KECCAK256 SWAP1 JUMPDEST DUP2 SLOAD DUP2 MSTORE SWAP1 PUSH1 0x1 ADD SWAP1 PUSH1 0x20 ADD DUP1 DUP4 GT PUSH2 0x1329 JUMPI DUP3 SWAP1 SUB PUSH1 0x1F AND DUP3 ADD SWAP2 JUMPDEST POP POP POP POP POP DUP2 MSTORE PUSH1 0x20 ADD PUSH1 0x5 DUP3 ADD DUP1 SLOAD DUP1 PUSH1 0x20 MUL PUSH1 0x20 ADD PUSH1 0x40 MLOAD SWAP1 DUP2 ADD PUSH1 0x40 MSTORE DUP1 SWAP3 SWAP2 SWAP1 DUP2 DUP2 MSTORE PUSH1 0x20 ADD PUSH1 0x0 SWAP1 JUMPDEST DUP3 DUP3 LT ISZERO PUSH2 0x1420 JUMPI DUP4 DUP3 SWAP1 PUSH1 0x0 MSTORE PUSH1 0x20 PUSH1 0x0 KECCAK256 ADD DUP1 SLOAD PUSH2 0x1393 SWAP1 PUSH2 0x34B0 JUMP JUMPDEST DUP1 PUSH1 0x1F ADD PUSH1 0x20 DUP1 SWAP2 DIV MUL PUSH1 0x20 ADD PUSH1 0x40 MLOAD SWAP1 DUP2 ADD PUSH1 0x40 MSTORE DUP1 SWAP3 SWAP2 SWAP1 DUP2 DUP2 MSTORE PUSH1 0x20 ADD DUP3 DUP1 SLOAD PUSH2 0x13BF SWAP1 PUSH2 0x34B0 JUMP JUMPDEST DUP1 ISZERO PUSH2 0x140C JUMPI DUP1 PUSH1 0x1F LT PUSH2 0x13E1 JUMPI PUSH2 0x100 DUP1 DUP4 SLOAD DIV MUL DUP4 MSTORE SWAP2 PUSH1 0x20 ADD SWAP2 PUSH2 0x140C JUMP JUMPDEST DUP3 ADD SWAP2 SWAP1 PUSH1 0x0 MSTORE PUSH1 0x20 PUSH1 0x0 KECCAK256 SWAP1 JUMPDEST DUP2 SLOAD DUP2 MSTORE SWAP1 PUSH1 0x1 ADD SWAP1 PUSH1 0x20 ADD DUP1 DUP4 GT PUSH2 0x13EF JUMPI DUP3 SWAP1 SUB PUSH1 0x1F AND DUP3 ADD SWAP2 JUMPDEST POP POP POP POP POP DUP2 MSTORE PUSH1 0x20 ADD SWAP1 PUSH1 0x1 ADD SWAP1 PUSH2 0x1374 JUMP JUMPDEST POP POP POP POP DUP2 MSTORE PUSH1 0x20 ADD PUSH1 0x6 DUP3 ADD SLOAD DUP2 MSTORE PUSH1 0x20 ADD PUSH1 0x7 DUP3 ADD SLOAD DUP2 MSTORE POP POP DUP5 DUP5 DUP1 PUSH2 0x1448 SWAP1 PUSH2 0x3500 JUMP JUMPDEST SWAP6 POP DUP2 MLOAD DUP2 LT PUSH2 0x145A JUMPI PUSH2 0x145A PUSH2 0x366B JUMP JUMPDEST PUSH1 0x20 SWAP1 DUP2 MUL SWAP2 SWAP1 SWAP2 ADD ADD MSTORE PUSH1 0x1 ADD PUSH2 0x104C JUMP JUMPDEST POP PUSH1 0x1 ADD PUSH2 0x1040 JUMP JUMPDEST POP SWAP1 SWAP5 SWAP4 POP POP POP POP JUMP JUMPDEST PUSH1 0x0 DUP1 JUMPDEST PUSH1 0x40 MLOAD PUSH5 0x30B236B4B7 PUSH1 0xD9 SHL DUP2 MSTORE PUSH1 0xF SWAP1 PUSH1 0x5 ADD SWAP1 DUP2 MSTORE PUSH1 0x40 MLOAD SWAP1 DUP2 SWAP1 SUB PUSH1 0x20 ADD SWAP1 KECCAK256 SLOAD DUP2 LT ISZERO PUSH2 0x150E JUMPI PUSH1 0x40 MLOAD PUSH5 0x30B236B4B7 PUSH1 0xD9 SHL DUP2 MSTORE PUSH1 0xF SWAP1 PUSH1 0x5 ADD SWAP1 DUP2 MSTORE PUSH1 0x20 ADD PUSH1 0x40 MLOAD DUP1 SWAP2 SUB SWAP1 KECCAK256 DUP2 DUP2 SLOAD DUP2 LT PUSH2 0x14E2 JUMPI PUSH2 0x14E2 PUSH2 0x366B JUMP JUMPDEST PUSH1 0x0 SWAP2 DUP3 MSTORE PUSH1 0x20 SWAP1 SWAP2 KECCAK256 ADD SLOAD PUSH1 0x1 PUSH1 0x1 PUSH1 0xA0 SHL SUB AND CALLER SUB PUSH2 0x1506 JUMPI PUSH1 0x1 SWAP2 POP PUSH2 0x150E JUMP JUMPDEST PUSH1 0x1 ADD PUSH2 0x1484 JUMP JUMPDEST POP PUSH1 0x2 SLOAD PUSH1 0x1 PUSH1 0x1 PUSH1 0xA0 SHL SUB AND CALLER SUB PUSH2 0x1525 JUMPI POP PUSH1 0x1 JUMPDEST DUP1 PUSH2 0x1562 JUMPI PUSH1 0x40 MLOAD PUSH3 0x461BCD PUSH1 0xE5 SHL DUP2 MSTORE PUSH1 0x20 PUSH1 0x4 DUP3 ADD MSTORE PUSH1 0xD PUSH1 0x24 DUP3 ADD MSTORE PUSH13 0x1058D8D95CDCC811195B9A5959 PUSH1 0x9A SHL PUSH1 0x44 DUP3 ADD MSTORE PUSH1 0x64 ADD PUSH2 0x36B JUMP JUMPDEST PUSH1 0x0 DUP3 DUP2 MSTORE PUSH1 0x7 PUSH1 0x20 MSTORE PUSH1 0x40 SWAP1 KECCAK256 SLOAD PUSH1 0x1 PUSH1 0x1 PUSH1 0xA0 SHL SUB AND PUSH2 0x15BA JUMPI PUSH1 0x40 MLOAD PUSH3 0x461BCD PUSH1 0xE5 SHL DUP2 MSTORE PUSH1 0x20 PUSH1 0x4 DUP3 ADD MSTORE PUSH1 0x11 PUSH1 0x24 DUP3 ADD MSTORE PUSH17 0x2B34B232B79036BAB9BA1032BC34B9BA17 PUSH1 0x79 SHL PUSH1 0x44 DUP3 ADD MSTORE PUSH1 0x64 ADD PUSH2 0x36B JUMP JUMPDEST PUSH2 0x15C3 DUP3 PUSH2 0x2937 JUMP JUMPDEST POP POP JUMP JUMPDEST PUSH1 0x60 PUSH1 0x0 DUP1 JUMPDEST PUSH1 0x4 DUP5 PUSH1 0x40 MLOAD PUSH2 0x15DD SWAP2 SWAP1 PUSH2 0x364F JUMP JUMPDEST SWAP1 DUP2 MSTORE PUSH1 0x40 MLOAD SWAP1 DUP2 SWAP1 SUB PUSH1 0x20 ADD SWAP1 KECCAK256 SLOAD DUP2 LT ISZERO PUSH2 0x1660 JUMPI PUSH1 0x6 PUSH1 0x0 PUSH1 0x4 DUP7 PUSH1 0x40 MLOAD PUSH2 0x1608 SWAP2 SWAP1 PUSH2 0x364F JUMP JUMPDEST SWAP1 DUP2 MSTORE PUSH1 0x20 ADD PUSH1 0x40 MLOAD DUP1 SWAP2 SUB SWAP1 KECCAK256 DUP4 DUP2 SLOAD DUP2 LT PUSH2 0x1627 JUMPI PUSH2 0x1627 PUSH2 0x366B JUMP JUMPDEST PUSH1 0x0 SWAP2 DUP3 MSTORE PUSH1 0x20 DUP1 DUP4 KECCAK256 SWAP1 SWAP2 ADD SLOAD PUSH1 0x1 PUSH1 0x1 PUSH1 0xA0 SHL SUB AND DUP4 MSTORE DUP3 ADD SWAP3 SWAP1 SWAP3 MSTORE PUSH1 0x40 ADD SWAP1 KECCAK256 SLOAD PUSH2 0x1656 SWAP1 DUP4 PUSH2 0x3636 JUMP JUMPDEST SWAP2 POP PUSH1 0x1 ADD PUSH2 0x15CD JUMP JUMPDEST POP PUSH1 0x0 DUP2 PUSH8 0xFFFFFFFFFFFFFFFF DUP2 GT ISZERO PUSH2 0x167C JUMPI PUSH2 0x167C PUSH2 0x320F JUMP JUMPDEST PUSH1 0x40 MLOAD SWAP1 DUP1 DUP3 MSTORE DUP1 PUSH1 0x20 MUL PUSH1 0x20 ADD DUP3 ADD PUSH1 0x40 MSTORE DUP1 ISZERO PUSH2 0x16F5 JUMPI DUP2 PUSH1 0x20 ADD JUMPDEST PUSH2 0x16E2 PUSH1 0x40 MLOAD DUP1 PUSH2 0x100 ADD PUSH1 0x40 MSTORE DUP1 PUSH1 0x0 DUP2 MSTORE PUSH1 0x20 ADD PUSH1 0x60 DUP2 MSTORE PUSH1 0x20 ADD PUSH1 0x60 DUP2 MSTORE PUSH1 0x20 ADD PUSH1 0x60 DUP2 MSTORE PUSH1 0x20 ADD PUSH1 0x60 DUP2 MSTORE PUSH1 0x20 ADD PUSH1 0x60 DUP2 MSTORE PUSH1 0x20 ADD PUSH1 0x0 DUP2 MSTORE PUSH1 0x20 ADD PUSH1 0x0 DUP2 MSTORE POP SWAP1 JUMP JUMPDEST DUP2 MSTORE PUSH1 0x20 ADD SWAP1 PUSH1 0x1 SWAP1 SUB SWAP1 DUP2 PUSH2 0x169A JUMPI SWAP1 POP JUMPDEST POP SWAP1 POP PUSH1 0x0 DUP1 JUMPDEST PUSH1 0x4 DUP7 PUSH1 0x40 MLOAD PUSH2 0x170C SWAP2 SWAP1 PUSH2 0x364F JUMP JUMPDEST SWAP1 DUP2 MSTORE PUSH1 0x40 MLOAD SWAP1 DUP2 SWAP1 SUB PUSH1 0x20 ADD SWAP1 KECCAK256 SLOAD DUP2 LT ISZERO PUSH2 0x1476 JUMPI PUSH1 0x0 JUMPDEST PUSH1 0x6 PUSH1 0x0 PUSH1 0x4 DUP10 PUSH1 0x40 MLOAD PUSH2 0x173A SWAP2 SWAP1 PUSH2 0x364F JUMP JUMPDEST SWAP1 DUP2 MSTORE PUSH1 0x20 ADD PUSH1 0x40 MLOAD DUP1 SWAP2 SUB SWAP1 KECCAK256 DUP5 DUP2 SLOAD DUP2 LT PUSH2 0x1759 JUMPI PUSH2 0x1759 PUSH2 0x366B JUMP JUMPDEST PUSH1 0x0 SWAP2 DUP3 MSTORE PUSH1 0x20 DUP1 DUP4 KECCAK256 SWAP1 SWAP2 ADD SLOAD PUSH1 0x1 PUSH1 0x1 PUSH1 0xA0 SHL SUB AND DUP4 MSTORE DUP3 ADD SWAP3 SWAP1 SWAP3 MSTORE PUSH1 0x40 ADD SWAP1 KECCAK256 SLOAD DUP2 LT ISZERO PUSH2 0x1B87 JUMPI PUSH1 0x8 PUSH1 0x0 PUSH1 0x6 PUSH1 0x0 PUSH1 0x4 DUP12 PUSH1 0x40 MLOAD PUSH2 0x179D SWAP2 SWAP1 PUSH2 0x364F JUMP JUMPDEST SWAP1 DUP2 MSTORE PUSH1 0x20 ADD PUSH1 0x40 MLOAD DUP1 SWAP2 SUB SWAP1 KECCAK256 DUP7 DUP2 SLOAD DUP2 LT PUSH2 0x17BC JUMPI PUSH2 0x17BC PUSH2 0x366B JUMP JUMPDEST PUSH1 0x0 SWAP2 DUP3 MSTORE PUSH1 0x20 DUP1 DUP4 KECCAK256 SWAP1 SWAP2 ADD SLOAD PUSH1 0x1 PUSH1 0x1 PUSH1 0xA0 SHL SUB AND DUP4 MSTORE DUP3 ADD SWAP3 SWAP1 SWAP3 MSTORE PUSH1 0x40 ADD SWAP1 KECCAK256 DUP1 SLOAD DUP5 SWAP1 DUP2 LT PUSH2 0x17F2 JUMPI PUSH2 0x17F2 PUSH2 0x366B JUMP JUMPDEST SWAP1 PUSH1 0x0 MSTORE PUSH1 0x20 PUSH1 0x0 KECCAK256 ADD SLOAD DUP2 MSTORE PUSH1 0x20 ADD SWAP1 DUP2 MSTORE PUSH1 0x20 ADD PUSH1 0x0 KECCAK256 PUSH1 0x40 MLOAD DUP1 PUSH2 0x100 ADD PUSH1 0x40 MSTORE SWAP1 DUP2 PUSH1 0x0 DUP3 ADD SLOAD DUP2 MSTORE PUSH1 0x20 ADD PUSH1 0x1 DUP3 ADD DUP1 SLOAD PUSH2 0x1831 SWAP1 PUSH2 0x34B0 JUMP JUMPDEST DUP1 PUSH1 0x1F ADD PUSH1 0x20 DUP1 SWAP2 DIV MUL PUSH1 0x20 ADD PUSH1 0x40 MLOAD SWAP1 DUP2 ADD PUSH1 0x40 MSTORE DUP1 SWAP3 SWAP2 SWAP1 DUP2 DUP2 MSTORE PUSH1 0x20 ADD DUP3 DUP1 SLOAD PUSH2 0x185D SWAP1 PUSH2 0x34B0 JUMP JUMPDEST DUP1 ISZERO PUSH2 0x18AA JUMPI DUP1 PUSH1 0x1F LT PUSH2 0x187F JUMPI PUSH2 0x100 DUP1 DUP4 SLOAD DIV MUL DUP4 MSTORE SWAP2 PUSH1 0x20 ADD SWAP2 PUSH2 0x18AA JUMP JUMPDEST DUP3 ADD SWAP2 SWAP1 PUSH1 0x0 MSTORE PUSH1 0x20 PUSH1 0x0 KECCAK256 SWAP1 JUMPDEST DUP2 SLOAD DUP2 MSTORE SWAP1 PUSH1 0x1 ADD SWAP1 PUSH1 0x20 ADD DUP1 DUP4 GT PUSH2 0x188D JUMPI DUP3 SWAP1 SUB PUSH1 0x1F AND DUP3 ADD SWAP2 JUMPDEST POP POP POP POP POP DUP2 MSTORE PUSH1 0x20 ADD PUSH1 0x2 DUP3 ADD DUP1 SLOAD PUSH2 0x18C3 SWAP1 PUSH2 0x34B0 JUMP JUMPDEST DUP1 PUSH1 0x1F ADD PUSH1 0x20 DUP1 SWAP2 DIV MUL PUSH1 0x20 ADD PUSH1 0x40 MLOAD SWAP1 DUP2 ADD PUSH1 0x40 MSTORE DUP1 SWAP3 SWAP2 SWAP1 DUP2 DUP2 MSTORE PUSH1 0x20 ADD DUP3 DUP1 SLOAD PUSH2 0x18EF SWAP1 PUSH2 0x34B0 JUMP JUMPDEST DUP1 ISZERO PUSH2 0x193C JUMPI DUP1 PUSH1 0x1F LT PUSH2 0x1911 JUMPI PUSH2 0x100 DUP1 DUP4 SLOAD DIV MUL DUP4 MSTORE SWAP2 PUSH1 0x20 ADD SWAP2 PUSH2 0x193C JUMP JUMPDEST DUP3 ADD SWAP2 SWAP1 PUSH1 0x0 MSTORE PUSH1 0x20 PUSH1 0x0 KECCAK256 SWAP1 JUMPDEST DUP2 SLOAD DUP2 MSTORE SWAP1 PUSH1 0x1 ADD SWAP1 PUSH1 0x20 ADD DUP1 DUP4 GT PUSH2 0x191F JUMPI DUP3 SWAP1 SUB PUSH1 0x1F AND DUP3 ADD SWAP2 JUMPDEST POP POP POP POP POP DUP2 MSTORE PUSH1 0x20 ADD PUSH1 0x3 DUP3 ADD DUP1 SLOAD PUSH2 0x1955 SWAP1 PUSH2 0x34B0 JUMP JUMPDEST DUP1 PUSH1 0x1F ADD PUSH1 0x20 DUP1 SWAP2 DIV MUL PUSH1 0x20 ADD PUSH1 0x40 MLOAD SWAP1 DUP2 ADD PUSH1 0x40 MSTORE DUP1 SWAP3 SWAP2 SWAP1 DUP2 DUP2 MSTORE PUSH1 0x20 ADD DUP3 DUP1 SLOAD PUSH2 0x1981 SWAP1 PUSH2 0x34B0 JUMP JUMPDEST DUP1 ISZERO PUSH2 0x19CE JUMPI DUP1 PUSH1 0x1F LT PUSH2 0x19A3 JUMPI PUSH2 0x100 DUP1 DUP4 SLOAD DIV MUL DUP4 MSTORE SWAP2 PUSH1 0x20 ADD SWAP2 PUSH2 0x19CE JUMP JUMPDEST DUP3 ADD SWAP2 SWAP1 PUSH1 0x0 MSTORE PUSH1 0x20 PUSH1 0x0 KECCAK256 SWAP1 JUMPDEST DUP2 SLOAD DUP2 MSTORE SWAP1 PUSH1 0x1 ADD SWAP1 PUSH1 0x20 ADD DUP1 DUP4 GT PUSH2 0x19B1 JUMPI DUP3 SWAP1 SUB PUSH1 0x1F AND DUP3 ADD SWAP2 JUMPDEST POP POP POP POP POP DUP2 MSTORE PUSH1 0x20 ADD PUSH1 0x4 DUP3 ADD DUP1 SLOAD PUSH2 0x19E7 SWAP1 PUSH2 0x34B0 JUMP JUMPDEST DUP1 PUSH1 0x1F ADD PUSH1 0x20 DUP1 SWAP2 DIV MUL PUSH1 0x20 ADD PUSH1 0x40 MLOAD SWAP1 DUP2 ADD PUSH1 0x40 MSTORE DUP1 SWAP3 SWAP2 SWAP1 DUP2 DUP2 MSTORE PUSH1 0x20 ADD DUP3 DUP1 SLOAD PUSH2 0x1A13 SWAP1 PUSH2 0x34B0 JUMP JUMPDEST DUP1 ISZERO PUSH2 0x1A60 JUMPI DUP1 PUSH1 0x1F LT PUSH2 0x1A35 JUMPI PUSH2 0x100 DUP1 DUP4 SLOAD DIV MUL DUP4 MSTORE SWAP2 PUSH1 0x20 ADD SWAP2 PUSH2 0x1A60 JUMP JUMPDEST DUP3 ADD SWAP2 SWAP1 PUSH1 0x0 MSTORE PUSH1 0x20 PUSH1 0x0 KECCAK256 SWAP1 JUMPDEST DUP2 SLOAD DUP2 MSTORE SWAP1 PUSH1 0x1 ADD SWAP1 PUSH1 0x20 ADD DUP1 DUP4 GT PUSH2 0x1A43 JUMPI DUP3 SWAP1 SUB PUSH1 0x1F AND DUP3 ADD SWAP2 JUMPDEST POP POP POP POP POP DUP2 MSTORE PUSH1 0x20 ADD PUSH1 0x5 DUP3 ADD DUP1 SLOAD DUP1 PUSH1 0x20 MUL PUSH1 0x20 ADD PUSH1 0x40 MLOAD SWAP1 DUP2 ADD PUSH1 0x40 MSTORE DUP1 SWAP3 SWAP2 SWAP1 DUP2 DUP2 MSTORE PUSH1 0x20 ADD PUSH1 0x0 SWAP1 JUMPDEST DUP3 DUP3 LT ISZERO PUSH2 0x1B3A JUMPI DUP4 DUP3 SWAP1 PUSH1 0x0 MSTORE PUSH1 0x20 PUSH1 0x0 KECCAK256 ADD DUP1 SLOAD PUSH2 0x1AAD SWAP1 PUSH2 0x34B0 JUMP JUMPDEST DUP1 PUSH1 0x1F ADD PUSH1 0x20 DUP1 SWAP2 DIV MUL PUSH1 0x20 ADD PUSH1 0x40 MLOAD SWAP1 DUP2 ADD PUSH1 0x40 MSTORE DUP1 SWAP3 SWAP2 SWAP1 DUP2 DUP2 MSTORE PUSH1 0x20 ADD DUP3 DUP1 SLOAD PUSH2 0x1AD9 SWAP1 PUSH2 0x34B0 JUMP JUMPDEST DUP1 ISZERO PUSH2 0x1B26 JUMPI DUP1 PUSH1 0x1F LT PUSH2 0x1AFB JUMPI PUSH2 0x100 DUP1 DUP4 SLOAD DIV MUL DUP4 MSTORE SWAP2 PUSH1 0x20 ADD SWAP2 PUSH2 0x1B26 JUMP JUMPDEST DUP3 ADD SWAP2 SWAP1 PUSH1 0x0 MSTORE PUSH1 0x20 PUSH1 0x0 KECCAK256 SWAP1 JUMPDEST DUP2 SLOAD DUP2 MSTORE SWAP1 PUSH1 0x1 ADD SWAP1 PUSH1 0x20 ADD DUP1 DUP4 GT PUSH2 0x1B09 JUMPI DUP3 SWAP1 SUB PUSH1 0x1F AND DUP3 ADD SWAP2 JUMPDEST POP POP POP POP POP DUP2 MSTORE PUSH1 0x20 ADD SWAP1 PUSH1 0x1 ADD SWAP1 PUSH2 0x1A8E JUMP JUMPDEST POP POP POP POP DUP2 MSTORE PUSH1 0x20 ADD PUSH1 0x6 DUP3 ADD SLOAD DUP2 MSTORE PUSH1 0x20 ADD PUSH1 0x7 DUP3 ADD SLOAD DUP2 MSTORE POP POP DUP5 DUP5 DUP1 PUSH2 0x1B62 SWAP1 PUSH2 0x3500 JUMP JUMPDEST SWAP6 POP DUP2 MLOAD DUP2 LT PUSH2 0x1B74 JUMPI PUSH2 0x1B74 PUSH2 0x366B JUMP JUMPDEST PUSH1 0x20 SWAP1 DUP2 MUL SWAP2 SWAP1 SWAP2 ADD ADD MSTORE PUSH1 0x1 ADD PUSH2 0x1726 JUMP JUMPDEST POP PUSH1 0x1 ADD PUSH2 0x16FC JUMP JUMPDEST CALLER PUSH1 0x0 SWAP1 DUP2 MSTORE PUSH1 0x3 PUSH1 0x20 MSTORE PUSH1 0x40 SWAP1 KECCAK256 PUSH2 0x1BAA DUP3 DUP5 DUP4 PUSH2 0x3681 JUMP JUMPDEST POP PUSH1 0x5 DUP3 DUP3 PUSH1 0x40 MLOAD PUSH2 0x1BBD SWAP3 SWAP2 SWAP1 PUSH2 0x3742 JUMP JUMPDEST SWAP1 DUP2 MSTORE PUSH1 0x40 DUP1 MLOAD PUSH1 0x20 SWAP3 DUP2 SWAP1 SUB DUP4 ADD SWAP1 KECCAK256 CALLER PUSH1 0x0 SWAP1 DUP2 MSTORE SWAP3 MSTORE SWAP1 KECCAK256 SLOAD PUSH1 0xFF AND PUSH2 0x15C3 JUMPI PUSH1 0x4 DUP3 DUP3 PUSH1 0x40 MLOAD PUSH2 0x1BF2 SWAP3 SWAP2 SWAP1 PUSH2 0x3742 JUMP JUMPDEST SWAP1 DUP2 MSTORE PUSH1 0x40 MLOAD SWAP1 DUP2 SWAP1 SUB PUSH1 0x20 SWAP1 DUP2 ADD DUP3 KECCAK256 DUP1 SLOAD PUSH1 0x1 DUP2 DUP2 ADD DUP4 SSTORE PUSH1 0x0 SWAP3 DUP4 MSTORE SWAP3 SWAP1 SWAP2 KECCAK256 ADD DUP1 SLOAD PUSH1 0x1 PUSH1 0x1 PUSH1 0xA0 SHL SUB NOT AND CALLER OR SWAP1 SSTORE SWAP1 PUSH1 0x5 SWAP1 PUSH2 0x1C37 SWAP1 DUP6 SWAP1 DUP6 SWAP1 PUSH2 0x3742 JUMP JUMPDEST SWAP1 DUP2 MSTORE PUSH1 0x40 DUP1 MLOAD PUSH1 0x20 SWAP3 DUP2 SWAP1 SUB DUP4 ADD SWAP1 KECCAK256 CALLER PUSH1 0x0 SWAP1 DUP2 MSTORE SWAP3 MSTORE SWAP1 KECCAK256 DUP1 SLOAD PUSH1 0xFF NOT AND SWAP2 ISZERO ISZERO SWAP2 SWAP1 SWAP2 OR SWAP1 SSTORE POP POP JUMP JUMPDEST PUSH1 0x2 SLOAD PUSH1 0x1 PUSH1 0x1 PUSH1 0xA0 SHL SUB AND CALLER EQ PUSH2 0x1CAF JUMPI PUSH1 0x40 MLOAD PUSH3 0x461BCD PUSH1 0xE5 SHL DUP2 MSTORE PUSH1 0x20 PUSH1 0x4 DUP3 ADD MSTORE PUSH1 0xD PUSH1 0x24 DUP3 ADD MSTORE PUSH13 0x1058D8D95CDCC811195B9A5959 PUSH1 0x9A SHL PUSH1 0x44 DUP3 ADD MSTORE PUSH1 0x64 ADD PUSH2 0x36B JUMP JUMPDEST PUSH1 0x40 MLOAD PUSH5 0x30B236B4B7 PUSH1 0xD9 SHL DUP2 MSTORE PUSH1 0xF SWAP1 PUSH1 0x5 ADD SWAP1 DUP2 MSTORE PUSH1 0x40 MLOAD PUSH1 0x20 SWAP2 DUP2 SWAP1 SUB DUP3 ADD SWAP1 KECCAK256 DUP1 SLOAD PUSH1 0x1 DUP2 ADD DUP3 SSTORE PUSH1 0x0 SWAP2 DUP3 MSTORE SWAP2 SWAP1 KECCAK256 ADD DUP1 SLOAD PUSH1 0x1 PUSH1 0x1 PUSH1 0xA0 SHL SUB NOT AND PUSH1 0x1 PUSH1 0x1 PUSH1 0xA0 SHL SUB SWAP3 SWAP1 SWAP3 AND SWAP2 SWAP1 SWAP2 OR SWAP1 SSTORE JUMP JUMPDEST PUSH1 0x60 PUSH1 0x0 DUP3 PUSH1 0x1 PUSH1 0x0 SLOAD PUSH2 0x1D18 SWAP2 SWAP1 PUSH2 0x3752 JUMP JUMPDEST GT PUSH2 0x1D31 JUMPI PUSH1 0x1 PUSH1 0x0 SLOAD PUSH2 0x1D2C SWAP2 SWAP1 PUSH2 0x3752 JUMP JUMPDEST PUSH2 0x1D33 JUMP JUMPDEST DUP3 JUMPDEST PUSH8 0xFFFFFFFFFFFFFFFF DUP2 GT ISZERO PUSH2 0x1D4B JUMPI PUSH2 0x1D4B PUSH2 0x320F JUMP JUMPDEST PUSH1 0x40 MLOAD SWAP1 DUP1 DUP3 MSTORE DUP1 PUSH1 0x20 MUL PUSH1 0x20 ADD DUP3 ADD PUSH1 0x40 MSTORE DUP1 ISZERO PUSH2 0x1DC4 JUMPI DUP2 PUSH1 0x20 ADD JUMPDEST PUSH2 0x1DB1 PUSH1 0x40 MLOAD DUP1 PUSH2 0x100 ADD PUSH1 0x40 MSTORE DUP1 PUSH1 0x0 DUP2 MSTORE PUSH1 0x20 ADD PUSH1 0x60 DUP2 MSTORE PUSH1 0x20 ADD PUSH1 0x60 DUP2 MSTORE PUSH1 0x20 ADD PUSH1 0x60 DUP2 MSTORE PUSH1 0x20 ADD PUSH1 0x60 DUP2 MSTORE PUSH1 0x20 ADD PUSH1 0x60 DUP2 MSTORE PUSH1 0x20 ADD PUSH1 0x0 DUP2 MSTORE PUSH1 0x20 ADD PUSH1 0x0 DUP2 MSTORE POP SWAP1 JUMP JUMPDEST DUP2 MSTORE PUSH1 0x20 ADD SWAP1 PUSH1 0x1 SWAP1 SUB SWAP1 DUP2 PUSH2 0x1D69 JUMPI SWAP1 POP JUMPDEST POP SWAP1 POP PUSH1 0x0 JUMPDEST DUP2 MLOAD DUP2 LT ISZERO PUSH2 0xA43 JUMPI PUSH1 0x8 PUSH1 0x0 PUSH1 0x1 DUP4 PUSH1 0x0 SLOAD PUSH2 0x1DE7 SWAP2 SWAP1 PUSH2 0x3752 JUMP JUMPDEST PUSH2 0x1DF1 SWAP2 SWAP1 PUSH2 0x3752 JUMP JUMPDEST DUP2 MSTORE PUSH1 0x20 ADD SWAP1 DUP2 MSTORE PUSH1 0x20 ADD PUSH1 0x0 KECCAK256 PUSH1 0x40 MLOAD DUP1 PUSH2 0x100 ADD PUSH1 0x40 MSTORE SWAP1 DUP2 PUSH1 0x0 DUP3 ADD SLOAD DUP2 MSTORE PUSH1 0x20 ADD PUSH1 0x1 DUP3 ADD DUP1 SLOAD PUSH2 0x1E25 SWAP1 PUSH2 0x34B0 JUMP JUMPDEST DUP1 PUSH1 0x1F ADD PUSH1 0x20 DUP1 SWAP2 DIV MUL PUSH1 0x20 ADD PUSH1 0x40 MLOAD SWAP1 DUP2 ADD PUSH1 0x40 MSTORE DUP1 SWAP3 SWAP2 SWAP1 DUP2 DUP2 MSTORE PUSH1 0x20 ADD DUP3 DUP1 SLOAD PUSH2 0x1E51 SWAP1 PUSH2 0x34B0 JUMP JUMPDEST DUP1 ISZERO PUSH2 0x1E9E JUMPI DUP1 PUSH1 0x1F LT PUSH2 0x1E73 JUMPI PUSH2 0x100 DUP1 DUP4 SLOAD DIV MUL DUP4 MSTORE SWAP2 PUSH1 0x20 ADD SWAP2 PUSH2 0x1E9E JUMP JUMPDEST DUP3 ADD SWAP2 SWAP1 PUSH1 0x0 MSTORE PUSH1 0x20 PUSH1 0x0 KECCAK256 SWAP1 JUMPDEST DUP2 SLOAD DUP2 MSTORE SWAP1 PUSH1 0x1 ADD SWAP1 PUSH1 0x20 ADD DUP1 DUP4 GT PUSH2 0x1E81 JUMPI DUP3 SWAP1 SUB PUSH1 0x1F AND DUP3 ADD SWAP2 JUMPDEST POP POP POP POP POP DUP2 MSTORE PUSH1 0x20 ADD PUSH1 0x2 DUP3 ADD DUP1 SLOAD PUSH2 0x1EB7 SWAP1 PUSH2 0x34B0 JUMP JUMPDEST DUP1 PUSH1 0x1F ADD PUSH1 0x20 DUP1 SWAP2 DIV MUL PUSH1 0x20 ADD PUSH1 0x40 MLOAD SWAP1 DUP2 ADD PUSH1 0x40 MSTORE DUP1 SWAP3 SWAP2 SWAP1 DUP2 DUP2 MSTORE PUSH1 0x20 ADD DUP3 DUP1 SLOAD PUSH2 0x1EE3 SWAP1 PUSH2 0x34B0 JUMP JUMPDEST DUP1 ISZERO PUSH2 0x1F30 JUMPI DUP1 PUSH1 0x1F LT PUSH2 0x1F05 JUMPI PUSH2 0x100 DUP1 DUP4 SLOAD DIV MUL DUP4 MSTORE SWAP2 PUSH1 0x20 ADD SWAP2 PUSH2 0x1F30 JUMP JUMPDEST DUP3 ADD SWAP2 SWAP1 PUSH1 0x0 MSTORE PUSH1 0x20 PUSH1 0x0 KECCAK256 SWAP1 JUMPDEST DUP2 SLOAD DUP2 MSTORE SWAP1 PUSH1 0x1 ADD SWAP1 PUSH1 0x20 ADD DUP1 DUP4 GT PUSH2 0x1F13 JUMPI DUP3 SWAP1 SUB PUSH1 0x1F AND DUP3 ADD SWAP2 JUMPDEST POP POP POP POP POP DUP2 MSTORE PUSH1 0x20 ADD PUSH1 0x3 DUP3 ADD DUP1 SLOAD PUSH2 0x1F49 SWAP1 PUSH2 0x34B0 JUMP JUMPDEST DUP1 PUSH1 0x1F ADD PUSH1 0x20 DUP1 SWAP2 DIV MUL PUSH1 0x20 ADD PUSH1 0x40 MLOAD SWAP1 DUP2 ADD PUSH1 0x40 MSTORE DUP1 SWAP3 SWAP2 SWAP1 DUP2 DUP2 MSTORE PUSH1 0x20 ADD DUP3 DUP1 SLOAD PUSH2 0x1F75 SWAP1 PUSH2 0x34B0 JUMP JUMPDEST DUP1 ISZERO PUSH2 0x1FC2 JUMPI DUP1 PUSH1 0x1F LT PUSH2 0x1F97 JUMPI PUSH2 0x100 DUP1 DUP4 SLOAD DIV MUL DUP4 MSTORE SWAP2 PUSH1 0x20 ADD SWAP2 PUSH2 0x1FC2 JUMP JUMPDEST DUP3 ADD SWAP2 SWAP1 PUSH1 0x0 MSTORE PUSH1 0x20 PUSH1 0x0 KECCAK256 SWAP1 JUMPDEST DUP2 SLOAD DUP2 MSTORE SWAP1 PUSH1 0x1 ADD SWAP1 PUSH1 0x20 ADD DUP1 DUP4 GT PUSH2 0x1FA5 JUMPI DUP3 SWAP1 SUB PUSH1 0x1F AND DUP3 ADD SWAP2 JUMPDEST POP POP POP POP POP DUP2 MSTORE PUSH1 0x20 ADD PUSH1 0x4 DUP3 ADD DUP1 SLOAD PUSH2 0x1FDB SWAP1 PUSH2 0x34B0 JUMP JUMPDEST DUP1 PUSH1 0x1F ADD PUSH1 0x20 DUP1 SWAP2 DIV MUL PUSH1 0x20 ADD PUSH1 0x40 MLOAD SWAP1 DUP2 ADD PUSH1 0x40 MSTORE DUP1 SWAP3 SWAP2 SWAP1 DUP2 DUP2 MSTORE PUSH1 0x20 ADD DUP3 DUP1 SLOAD PUSH2 0x2007 SWAP1 PUSH2 0x34B0 JUMP JUMPDEST DUP1 ISZERO PUSH2 0x2054 JUMPI DUP1 PUSH1 0x1F LT PUSH2 0x2029 JUMPI PUSH2 0x100 DUP1 DUP4 SLOAD DIV MUL DUP4 MSTORE SWAP2 PUSH1 0x20 ADD SWAP2 PUSH2 0x2054 JUMP JUMPDEST DUP3 ADD SWAP2 SWAP1 PUSH1 0x0 MSTORE PUSH1 0x20 PUSH1 0x0 KECCAK256 SWAP1 JUMPDEST DUP2 SLOAD DUP2 MSTORE SWAP1 PUSH1 0x1 ADD SWAP1 PUSH1 0x20 ADD DUP1 DUP4 GT PUSH2 0x2037 JUMPI DUP3 SWAP1 SUB PUSH1 0x1F AND DUP3 ADD SWAP2 JUMPDEST POP POP POP POP POP DUP2 MSTORE PUSH1 0x20 ADD PUSH1 0x5 DUP3 ADD DUP1 SLOAD DUP1 PUSH1 0x20 MUL PUSH1 0x20 ADD PUSH1 0x40 MLOAD SWAP1 DUP2 ADD PUSH1 0x40 MSTORE DUP1 SWAP3 SWAP2 SWAP1 DUP2 DUP2 MSTORE PUSH1 0x20 ADD PUSH1 0x0 SWAP1 JUMPDEST DUP3 DUP3 LT ISZERO PUSH2 0x212E JUMPI DUP4 DUP3 SWAP1 PUSH1 0x0 MSTORE PUSH1 0x20 PUSH1 0x0 KECCAK256 ADD DUP1 SLOAD PUSH2 0x20A1 SWAP1 PUSH2 0x34B0 JUMP JUMPDEST DUP1 PUSH1 0x1F ADD PUSH1 0x20 DUP1 SWAP2 DIV MUL PUSH1 0x20 ADD PUSH1 0x40 MLOAD SWAP1 DUP2 ADD PUSH1 0x40 MSTORE DUP1 SWAP3 SWAP2 SWAP1 DUP2 DUP2 MSTORE PUSH1 0x20 ADD DUP3 DUP1 SLOAD PUSH2 0x20CD SWAP1 PUSH2 0x34B0 JUMP JUMPDEST DUP1 ISZERO PUSH2 0x211A JUMPI DUP1 PUSH1 0x1F LT PUSH2 0x20EF JUMPI PUSH2 0x100 DUP1 DUP4 SLOAD DIV MUL DUP4 MSTORE SWAP2 PUSH1 0x20 ADD SWAP2 PUSH2 0x211A JUMP JUMPDEST DUP3 ADD SWAP2 SWAP1 PUSH1 0x0 MSTORE PUSH1 0x20 PUSH1 0x0 KECCAK256 SWAP1 JUMPDEST DUP2 SLOAD DUP2 MSTORE SWAP1 PUSH1 0x1 ADD SWAP1 PUSH1 0x20 ADD DUP1 DUP4 GT PUSH2 0x20FD JUMPI DUP3 SWAP1 SUB PUSH1 0x1F AND DUP3 ADD SWAP2 JUMPDEST POP POP POP POP POP DUP2 MSTORE PUSH1 0x20 ADD SWAP1 PUSH1 0x1 ADD SWAP1 PUSH2 0x2082 JUMP JUMPDEST POP POP POP POP DUP2 MSTORE PUSH1 0x20 ADD PUSH1 0x6 DUP3 ADD SLOAD DUP2 MSTORE PUSH1 0x20 ADD PUSH1 0x7 DUP3 ADD SLOAD DUP2 MSTORE POP POP DUP3 DUP3 DUP2 MLOAD DUP2 LT PUSH2 0x215C JUMPI PUSH2 0x215C PUSH2 0x366B JUMP JUMPDEST PUSH1 0x20 SWAP1 DUP2 MUL SWAP2 SWAP1 SWAP2 ADD ADD MSTORE PUSH1 0x1 ADD PUSH2 0x1DCA JUMP JUMPDEST PUSH1 0x0 DUP4 DUP2 MSTORE PUSH1 0x7 PUSH1 0x20 MSTORE PUSH1 0x40 SWAP1 KECCAK256 SLOAD PUSH1 0x1 PUSH1 0x1 PUSH1 0xA0 SHL SUB AND PUSH2 0x21C7 JUMPI PUSH1 0x40 MLOAD PUSH3 0x461BCD PUSH1 0xE5 SHL DUP2 MSTORE PUSH1 0x20 PUSH1 0x4 DUP3 ADD MSTORE PUSH1 0x11 PUSH1 0x24 DUP3 ADD MSTORE PUSH17 0x2B34B232B79036BAB9BA1032BC34B9BA17 PUSH1 0x79 SHL PUSH1 0x44 DUP3 ADD MSTORE PUSH1 0x64 ADD PUSH2 0x36B JUMP JUMPDEST CALLVALUE ISZERO PUSH2 0x256B JUMPI PUSH1 0x0 DUP4 DUP2 MSTORE PUSH1 0x7 PUSH1 0x20 MSTORE PUSH1 0x40 SWAP1 KECCAK256 SLOAD CALLER PUSH1 0x1 PUSH1 0x1 PUSH1 0xA0 SHL SUB SWAP1 SWAP2 AND SUB PUSH2 0x225B JUMPI PUSH1 0x40 MLOAD PUSH3 0x461BCD PUSH1 0xE5 SHL DUP2 MSTORE PUSH1 0x20 PUSH1 0x4 DUP3 ADD MSTORE PUSH1 0x26 PUSH1 0x24 DUP3 ADD MSTORE PUSH32 0x596F752063616E6E6F7420737570657263686174206F6E20796F7572206F776E PUSH1 0x44 DUP3 ADD MSTORE PUSH32 0x20766964656F0000000000000000000000000000000000000000000000000000 PUSH1 0x64 DUP3 ADD MSTORE PUSH1 0x84 ADD PUSH2 0x36B JUMP JUMPDEST PUSH1 0x0 PUSH1 0xA PUSH2 0x226A CALLVALUE PUSH1 0x9 PUSH2 0x3765 JUMP JUMPDEST PUSH2 0x2274 SWAP2 SWAP1 PUSH2 0x377C JUMP JUMPDEST PUSH1 0x2 SLOAD SWAP1 SWAP2 POP PUSH1 0x0 SWAP1 PUSH1 0x1 PUSH1 0x1 PUSH1 0xA0 SHL SUB AND PUSH2 0x2290 DUP4 CALLVALUE PUSH2 0x3752 JUMP JUMPDEST PUSH1 0x40 MLOAD PUSH1 0x0 DUP2 DUP2 DUP2 DUP6 DUP8 GAS CALL SWAP3 POP POP POP RETURNDATASIZE DUP1 PUSH1 0x0 DUP2 EQ PUSH2 0x22CC JUMPI PUSH1 0x40 MLOAD SWAP2 POP PUSH1 0x1F NOT PUSH1 0x3F RETURNDATASIZE ADD AND DUP3 ADD PUSH1 0x40 MSTORE RETURNDATASIZE DUP3 MSTORE RETURNDATASIZE PUSH1 0x0 PUSH1 0x20 DUP5 ADD RETURNDATACOPY PUSH2 0x22D1 JUMP JUMPDEST PUSH1 0x60 SWAP2 POP JUMPDEST POP POP SWAP1 POP DUP1 PUSH2 0x2322 JUMPI PUSH1 0x40 MLOAD PUSH3 0x461BCD PUSH1 0xE5 SHL DUP2 MSTORE PUSH1 0x20 PUSH1 0x4 DUP3 ADD MSTORE PUSH1 0x1D PUSH1 0x24 DUP3 ADD MSTORE PUSH32 0x4661696C656420746F2073656E6420457468657220746F206F776E6572000000 PUSH1 0x44 DUP3 ADD MSTORE PUSH1 0x64 ADD PUSH2 0x36B JUMP JUMPDEST PUSH1 0x0 DUP6 DUP2 MSTORE PUSH1 0xD PUSH1 0x20 MSTORE PUSH1 0x40 DUP2 KECCAK256 SLOAD PUSH2 0x233C SWAP1 PUSH1 0x1 PUSH2 0x3636 JUMP JUMPDEST SWAP1 POP PUSH1 0x0 PUSH2 0x234A DUP3 DUP6 PUSH2 0x377C JUMP JUMPDEST SWAP1 POP PUSH1 0x0 JUMPDEST PUSH1 0x0 DUP9 DUP2 MSTORE PUSH1 0xD PUSH1 0x20 MSTORE PUSH1 0x40 SWAP1 KECCAK256 SLOAD DUP2 LT ISZERO PUSH2 0x2475 JUMPI PUSH1 0x0 DUP9 DUP2 MSTORE PUSH1 0xD PUSH1 0x20 MSTORE PUSH1 0x40 DUP2 KECCAK256 DUP1 SLOAD DUP4 SWAP1 DUP2 LT PUSH2 0x2385 JUMPI PUSH2 0x2385 PUSH2 0x366B JUMP JUMPDEST PUSH1 0x0 SWAP2 DUP3 MSTORE PUSH1 0x20 DUP1 DUP4 KECCAK256 SWAP2 SWAP1 SWAP2 ADD SLOAD DUP1 DUP4 MSTORE PUSH1 0x7 SWAP1 SWAP2 MSTORE PUSH1 0x40 DUP1 DUP4 KECCAK256 SLOAD SWAP1 MLOAD SWAP2 SWAP4 POP PUSH1 0x1 PUSH1 0x1 PUSH1 0xA0 SHL SUB AND SWAP2 SWAP1 DUP3 SWAP1 DUP7 SWAP1 DUP4 DUP2 DUP2 DUP2 DUP6 DUP8 GAS CALL SWAP3 POP POP POP RETURNDATASIZE DUP1 PUSH1 0x0 DUP2 EQ PUSH2 0x23EE JUMPI PUSH1 0x40 MLOAD SWAP2 POP PUSH1 0x1F NOT PUSH1 0x3F RETURNDATASIZE ADD AND DUP3 ADD PUSH1 0x40 MSTORE RETURNDATASIZE DUP3 MSTORE RETURNDATASIZE PUSH1 0x0 PUSH1 0x20 DUP5 ADD RETURNDATACOPY PUSH2 0x23F3 JUMP JUMPDEST PUSH1 0x60 SWAP2 POP JUMPDEST POP POP SWAP1 POP DUP1 PUSH2 0x246A JUMPI PUSH1 0x40 MLOAD PUSH3 0x461BCD PUSH1 0xE5 SHL DUP2 MSTORE PUSH1 0x20 PUSH1 0x4 DUP3 ADD MSTORE PUSH1 0x21 PUSH1 0x24 DUP3 ADD MSTORE PUSH32 0x4661696C656420746F2073656E6420457468657220746F20612063726561746F PUSH1 0x44 DUP3 ADD MSTORE PUSH32 0x7200000000000000000000000000000000000000000000000000000000000000 PUSH1 0x64 DUP3 ADD MSTORE PUSH1 0x84 ADD PUSH2 0x36B JUMP JUMPDEST POP POP POP PUSH1 0x1 ADD PUSH2 0x234F JUMP JUMPDEST POP PUSH1 0x0 DUP8 DUP2 MSTORE PUSH1 0x7 PUSH1 0x20 MSTORE PUSH1 0x40 DUP2 KECCAK256 SLOAD PUSH1 0x1 PUSH1 0x1 PUSH1 0xA0 SHL SUB AND PUSH2 0x2499 PUSH1 0x1 DUP6 PUSH2 0x3752 JUMP JUMPDEST PUSH2 0x24A3 SWAP1 DUP5 PUSH2 0x3765 JUMP JUMPDEST PUSH2 0x24AD SWAP1 DUP8 PUSH2 0x3752 JUMP JUMPDEST PUSH1 0x40 MLOAD PUSH1 0x0 DUP2 DUP2 DUP2 DUP6 DUP8 GAS CALL SWAP3 POP POP POP RETURNDATASIZE DUP1 PUSH1 0x0 DUP2 EQ PUSH2 0x24E9 JUMPI PUSH1 0x40 MLOAD SWAP2 POP PUSH1 0x1F NOT PUSH1 0x3F RETURNDATASIZE ADD AND DUP3 ADD PUSH1 0x40 MSTORE RETURNDATASIZE DUP3 MSTORE RETURNDATASIZE PUSH1 0x0 PUSH1 0x20 DUP5 ADD RETURNDATACOPY PUSH2 0x24EE JUMP JUMPDEST PUSH1 0x60 SWAP2 POP JUMPDEST POP POP SWAP1 POP DUP1 PUSH2 0x2565 JUMPI PUSH1 0x40 MLOAD PUSH3 0x461BCD PUSH1 0xE5 SHL DUP2 MSTORE PUSH1 0x20 PUSH1 0x4 DUP3 ADD MSTORE PUSH1 0x23 PUSH1 0x24 DUP3 ADD MSTORE PUSH32 0x4661696C656420746F2073656E6420457468657220746F207468652063726561 PUSH1 0x44 DUP3 ADD MSTORE PUSH32 0x746F720000000000000000000000000000000000000000000000000000000000 PUSH1 0x64 DUP3 ADD MSTORE PUSH1 0x84 ADD PUSH2 0x36B JUMP JUMPDEST POP POP POP POP POP JUMPDEST PUSH1 0x1 DUP1 SLOAD PUSH1 0x0 SWAP2 DUP3 PUSH2 0x257C DUP4 PUSH2 0x3500 JUMP JUMPDEST SWAP2 SWAP1 POP SSTORE SWAP1 POP PUSH1 0x40 MLOAD DUP1 PUSH1 0x80 ADD PUSH1 0x40 MSTORE DUP1 CALLER PUSH1 0x1 PUSH1 0x1 PUSH1 0xA0 SHL SUB AND DUP2 MSTORE PUSH1 0x20 ADD DUP5 DUP5 DUP1 DUP1 PUSH1 0x1F ADD PUSH1 0x20 DUP1 SWAP2 DIV MUL PUSH1 0x20 ADD PUSH1 0x40 MLOAD SWAP1 DUP2 ADD PUSH1 0x40 MSTORE DUP1 SWAP4 SWAP3 SWAP2 SWAP1 DUP2 DUP2 MSTORE PUSH1 0x20 ADD DUP4 DUP4 DUP1 DUP3 DUP5 CALLDATACOPY PUSH1 0x0 SWAP3 ADD DUP3 SWAP1 MSTORE POP SWAP4 DUP6 MSTORE POP POP CALLVALUE PUSH1 0x20 DUP1 DUP6 ADD SWAP2 SWAP1 SWAP2 MSTORE TIMESTAMP PUSH1 0x40 SWAP5 DUP6 ADD MSTORE DUP6 DUP4 MSTORE PUSH1 0xC DUP2 MSTORE SWAP3 SWAP1 SWAP2 KECCAK256 DUP4 MLOAD DUP2 SLOAD PUSH1 0x1 PUSH1 0x1 PUSH1 0xA0 SHL SUB NOT AND PUSH1 0x1 PUSH1 0x1 PUSH1 0xA0 SHL SUB SWAP1 SWAP2 AND OR DUP2 SSTORE SWAP2 DUP4 ADD MLOAD PUSH1 0x1 DUP4 ADD SWAP2 POP PUSH2 0x261F SWAP1 DUP3 PUSH2 0x3576 JUMP JUMPDEST POP PUSH1 0x40 DUP3 DUP2 ADD MLOAD PUSH1 0x2 DUP4 ADD SSTORE PUSH1 0x60 SWAP1 SWAP3 ADD MLOAD PUSH1 0x3 SWAP1 SWAP2 ADD SSTORE PUSH1 0x0 SWAP5 DUP6 MSTORE PUSH1 0xB PUSH1 0x20 SWAP1 DUP2 MSTORE SWAP1 DUP6 KECCAK256 DUP1 SLOAD PUSH1 0x1 DUP2 ADD DUP3 SSTORE SWAP1 DUP7 MSTORE SWAP5 KECCAK256 SWAP1 SWAP4 ADD SWAP3 SWAP1 SWAP3 SSTORE POP POP JUMP JUMPDEST PUSH1 0x0 DUP2 DUP2 MSTORE PUSH1 0x7 PUSH1 0x20 MSTORE PUSH1 0x40 SWAP1 KECCAK256 SLOAD PUSH1 0x1 PUSH1 0x1 PUSH1 0xA0 SHL SUB AND PUSH2 0x26B6 JUMPI PUSH1 0x40 MLOAD PUSH3 0x461BCD PUSH1 0xE5 SHL DUP2 MSTORE PUSH1 0x20 PUSH1 0x4 DUP3 ADD MSTORE PUSH1 0x11 PUSH1 0x24 DUP3 ADD MSTORE PUSH17 0x2B34B232B79036BAB9BA1032BC34B9BA17 PUSH1 0x79 SHL PUSH1 0x44 DUP3 ADD MSTORE PUSH1 0x64 ADD PUSH2 0x36B JUMP JUMPDEST PUSH1 0x0 DUP2 DUP2 MSTORE PUSH1 0x7 PUSH1 0x20 MSTORE PUSH1 0x40 SWAP1 KECCAK256 SLOAD PUSH1 0x1 PUSH1 0x1 PUSH1 0xA0 SHL SUB AND CALLER EQ PUSH2 0x271C JUMPI PUSH1 0x40 MLOAD PUSH3 0x461BCD PUSH1 0xE5 SHL DUP2 MSTORE PUSH1 0x20 PUSH1 0x4 DUP3 ADD MSTORE PUSH1 0x19 PUSH1 0x24 DUP3 ADD MSTORE PUSH32 0x596F7520646F206E6F74206F776E2074686520766964656F2E00000000000000 PUSH1 0x44 DUP3 ADD MSTORE PUSH1 0x64 ADD PUSH2 0x36B JUMP JUMPDEST PUSH2 0x2725 DUP2 PUSH2 0x2937 JUMP JUMPDEST POP JUMP JUMPDEST PUSH1 0x40 DUP1 MLOAD DUP1 DUP3 ADD DUP3 MSTORE PUSH1 0x0 DUP1 DUP3 MSTORE PUSH1 0x20 SWAP2 DUP3 ADD MSTORE DUP2 MLOAD DUP1 DUP4 ADD SWAP1 SWAP3 MSTORE DUP3 MLOAD DUP3 MSTORE SWAP2 DUP3 ADD SWAP2 DUP2 ADD SWAP2 SWAP1 SWAP2 MSTORE SWAP1 JUMP JUMPDEST PUSH1 0x0 DUP1 DUP3 PUSH1 0x0 ADD MLOAD PUSH2 0x2779 DUP6 PUSH1 0x0 ADD MLOAD DUP7 PUSH1 0x20 ADD MLOAD DUP7 PUSH1 0x0 ADD MLOAD DUP8 PUSH1 0x20 ADD MLOAD PUSH2 0x2A98 JUMP JUMPDEST PUSH2 0x2783 SWAP2 SWAP1 PUSH2 0x3636 JUMP JUMPDEST SWAP1 POP JUMPDEST DUP4 MLOAD PUSH1 0x20 DUP6 ADD MLOAD PUSH2 0x2797 SWAP2 SWAP1 PUSH2 0x3636 JUMP JUMPDEST DUP2 GT PUSH2 0xA43 JUMPI DUP2 PUSH2 0x27A7 DUP2 PUSH2 0x3500 JUMP JUMPDEST SWAP3 POP POP DUP3 PUSH1 0x0 ADD MLOAD PUSH2 0x27DE DUP6 PUSH1 0x20 ADD MLOAD DUP4 PUSH2 0x27C2 SWAP2 SWAP1 PUSH2 0x3752 JUMP JUMPDEST DUP7 MLOAD PUSH2 0x27CE SWAP2 SWAP1 PUSH2 0x3752 JUMP JUMPDEST DUP4 DUP7 PUSH1 0x0 ADD MLOAD DUP8 PUSH1 0x20 ADD MLOAD PUSH2 0x2A98 JUMP JUMPDEST PUSH2 0x27E8 SWAP2 SWAP1 PUSH2 0x3636 JUMP JUMPDEST SWAP1 POP PUSH2 0x2786 JUMP JUMPDEST PUSH1 0x40 DUP1 MLOAD DUP1 DUP3 ADD SWAP1 SWAP2 MSTORE PUSH1 0x0 DUP1 DUP3 MSTORE PUSH1 0x20 DUP3 ADD MSTORE PUSH2 0xA43 DUP4 DUP4 DUP4 PUSH2 0x2BBA JUMP JUMPDEST PUSH1 0x60 PUSH1 0x0 DUP3 PUSH1 0x0 ADD MLOAD PUSH8 0xFFFFFFFFFFFFFFFF DUP2 GT ISZERO PUSH2 0x282F JUMPI PUSH2 0x282F PUSH2 0x320F JUMP JUMPDEST PUSH1 0x40 MLOAD SWAP1 DUP1 DUP3 MSTORE DUP1 PUSH1 0x1F ADD PUSH1 0x1F NOT AND PUSH1 0x20 ADD DUP3 ADD PUSH1 0x40 MSTORE DUP1 ISZERO PUSH2 0x2859 JUMPI PUSH1 0x20 DUP3 ADD DUP2 DUP1 CALLDATASIZE DUP4 CALLDATACOPY ADD SWAP1 POP JUMPDEST POP SWAP1 POP PUSH1 0x0 PUSH1 0x20 DUP3 ADD SWAP1 POP PUSH2 0xA43 DUP2 DUP6 PUSH1 0x20 ADD MLOAD DUP7 PUSH1 0x0 ADD MLOAD PUSH2 0x2C65 JUMP JUMPDEST PUSH1 0x0 DUP3 DUP2 MSTORE PUSH1 0xE PUSH1 0x20 SWAP1 DUP2 MSTORE PUSH1 0x40 DUP1 DUP4 KECCAK256 DUP5 DUP5 MSTORE SWAP1 SWAP2 MSTORE SWAP1 KECCAK256 SLOAD PUSH1 0xFF AND PUSH2 0x28DB JUMPI PUSH1 0x0 DUP3 DUP2 MSTORE PUSH1 0xD PUSH1 0x20 SWAP1 DUP2 MSTORE PUSH1 0x40 DUP1 DUP4 KECCAK256 DUP1 SLOAD PUSH1 0x1 DUP2 DUP2 ADD DUP4 SSTORE SWAP2 DUP6 MSTORE DUP4 DUP6 KECCAK256 ADD DUP6 SWAP1 SSTORE DUP6 DUP5 MSTORE PUSH1 0xE DUP4 MSTORE DUP2 DUP5 KECCAK256 DUP6 DUP6 MSTORE SWAP1 SWAP3 MSTORE SWAP1 SWAP2 KECCAK256 DUP1 SLOAD PUSH1 0xFF NOT AND SWAP1 SWAP2 OR SWAP1 SSTORE JUMPDEST PUSH1 0x0 JUMPDEST PUSH1 0x0 DUP3 DUP2 MSTORE PUSH1 0xD PUSH1 0x20 MSTORE PUSH1 0x40 SWAP1 KECCAK256 SLOAD DUP2 LT ISZERO PUSH2 0x2932 JUMPI PUSH1 0x0 DUP3 DUP2 MSTORE PUSH1 0xD PUSH1 0x20 MSTORE PUSH1 0x40 SWAP1 KECCAK256 DUP1 SLOAD PUSH2 0x292A SWAP2 DUP6 SWAP2 DUP5 SWAP1 DUP2 LT PUSH2 0x291A JUMPI PUSH2 0x291A PUSH2 0x366B JUMP JUMPDEST SWAP1 PUSH1 0x0 MSTORE PUSH1 0x20 PUSH1 0x0 KECCAK256 ADD SLOAD PUSH2 0x2877 JUMP JUMPDEST PUSH1 0x1 ADD PUSH2 0x28DE JUMP JUMPDEST POP POP POP JUMP JUMPDEST PUSH1 0x0 DUP2 DUP2 MSTORE PUSH1 0x7 PUSH1 0x20 SWAP1 DUP2 MSTORE PUSH1 0x40 DUP1 DUP4 KECCAK256 DUP1 SLOAD PUSH1 0x1 PUSH1 0x1 PUSH1 0xA0 SHL SUB NOT AND SWAP1 SSTORE DUP1 MLOAD PUSH2 0x100 DUP2 ADD DUP3 MSTORE DUP5 DUP2 MSTORE DUP2 MLOAD DUP1 DUP4 ADD DUP4 MSTORE PUSH1 0xF DUP2 MSTORE PUSH32 0x5B44656C6574656420566964656F5D0000000000000000000000000000000000 DUP2 DUP6 ADD MSTORE DUP2 DUP5 ADD MSTORE DUP2 MLOAD DUP1 DUP5 ADD DUP4 MSTORE DUP5 DUP2 MSTORE DUP2 DUP4 ADD MSTORE DUP2 MLOAD DUP1 DUP5 ADD DUP4 MSTORE DUP5 DUP2 MSTORE PUSH1 0x60 DUP3 ADD MSTORE DUP2 MLOAD DUP1 DUP5 ADD DUP4 MSTORE DUP5 DUP2 MSTORE PUSH1 0x80 DUP3 ADD MSTORE DUP2 MLOAD DUP5 DUP2 MSTORE SWAP3 DUP4 ADD SWAP1 SWAP2 MSTORE SWAP2 PUSH1 0xA0 DUP4 ADD SWAP2 SWAP1 PUSH2 0x29EE JUMP JUMPDEST PUSH1 0x60 DUP2 MSTORE PUSH1 0x20 ADD SWAP1 PUSH1 0x1 SWAP1 SUB SWAP1 DUP2 PUSH2 0x29D9 JUMPI SWAP1 POP JUMPDEST POP DUP2 MSTORE PUSH1 0x0 PUSH1 0x20 DUP1 DUP4 ADD DUP3 SWAP1 MSTORE TIMESTAMP PUSH1 0x40 SWAP4 DUP5 ADD MSTORE DUP5 DUP3 MSTORE PUSH1 0x8 DUP2 MSTORE SWAP2 SWAP1 KECCAK256 DUP3 MLOAD DUP2 SSTORE SWAP1 DUP3 ADD MLOAD PUSH1 0x1 DUP3 ADD SWAP1 PUSH2 0x2A23 SWAP1 DUP3 PUSH2 0x3576 JUMP JUMPDEST POP PUSH1 0x40 DUP3 ADD MLOAD PUSH1 0x2 DUP3 ADD SWAP1 PUSH2 0x2A38 SWAP1 DUP3 PUSH2 0x3576 JUMP JUMPDEST POP PUSH1 0x60 DUP3 ADD MLOAD PUSH1 0x3 DUP3 ADD SWAP1 PUSH2 0x2A4D SWAP1 DUP3 PUSH2 0x3576 JUMP JUMPDEST POP PUSH1 0x80 DUP3 ADD MLOAD PUSH1 0x4 DUP3 ADD SWAP1 PUSH2 0x2A62 SWAP1 DUP3 PUSH2 0x3576 JUMP JUMPDEST POP PUSH1 0xA0 DUP3 ADD MLOAD DUP1 MLOAD PUSH2 0x2A7E SWAP2 PUSH1 0x5 DUP5 ADD SWAP2 PUSH1 0x20 SWAP1 SWAP2 ADD SWAP1 PUSH2 0x2CDF JUMP JUMPDEST POP PUSH1 0xC0 DUP3 ADD MLOAD PUSH1 0x6 DUP3 ADD SSTORE PUSH1 0xE0 SWAP1 SWAP2 ADD MLOAD PUSH1 0x7 SWAP1 SWAP2 ADD SSTORE POP JUMP JUMPDEST PUSH1 0x0 DUP4 DUP2 DUP7 DUP6 GT PUSH2 0x2BA3 JUMPI PUSH1 0x20 DUP6 GT PUSH2 0x2B52 JUMPI PUSH1 0x0 DUP6 ISZERO PUSH2 0x2AE4 JUMPI PUSH1 0x1 PUSH2 0x2AC0 DUP8 PUSH1 0x20 PUSH2 0x3752 JUMP JUMPDEST PUSH2 0x2ACB SWAP1 PUSH1 0x8 PUSH2 0x3765 JUMP JUMPDEST PUSH2 0x2AD6 SWAP1 PUSH1 0x2 PUSH2 0x3882 JUMP JUMPDEST PUSH2 0x2AE0 SWAP2 SWAP1 PUSH2 0x3752 JUMP JUMPDEST NOT SWAP1 POP JUMPDEST DUP5 MLOAD DUP2 AND PUSH1 0x0 DUP8 PUSH2 0x2AF5 DUP12 DUP12 PUSH2 0x3636 JUMP JUMPDEST PUSH2 0x2AFF SWAP2 SWAP1 PUSH2 0x3752 JUMP JUMPDEST DUP6 MLOAD SWAP1 SWAP2 POP DUP4 AND JUMPDEST DUP3 DUP2 EQ PUSH2 0x2B44 JUMPI DUP2 DUP7 LT PUSH2 0x2B2C JUMPI PUSH2 0x2B1F DUP12 DUP12 PUSH2 0x3636 JUMP JUMPDEST SWAP7 POP POP POP POP POP POP POP PUSH2 0x2BB2 JUMP JUMPDEST DUP6 PUSH2 0x2B36 DUP2 PUSH2 0x3500 JUMP JUMPDEST SWAP7 POP POP DUP4 DUP7 MLOAD AND SWAP1 POP PUSH2 0x2B07 JUMP JUMPDEST DUP6 SWAP7 POP POP POP POP POP POP POP PUSH2 0x2BB2 JUMP JUMPDEST POP DUP4 DUP4 KECCAK256 PUSH1 0x0 SWAP1 JUMPDEST PUSH2 0x2B64 DUP7 DUP10 PUSH2 0x3752 JUMP JUMPDEST DUP3 GT PUSH2 0x2BA1 JUMPI DUP6 DUP4 KECCAK256 DUP1 DUP3 SUB PUSH2 0x2B80 JUMPI DUP4 SWAP5 POP POP POP POP POP PUSH2 0x2BB2 JUMP JUMPDEST PUSH2 0x2B8B PUSH1 0x1 DUP6 PUSH2 0x3636 JUMP JUMPDEST SWAP4 POP POP DUP2 DUP1 PUSH2 0x2B99 SWAP1 PUSH2 0x3500 JUMP JUMPDEST SWAP3 POP POP PUSH2 0x2B5A JUMP JUMPDEST POP JUMPDEST PUSH2 0x2BAD DUP8 DUP8 PUSH2 0x3636 JUMP JUMPDEST SWAP3 POP POP POP JUMPDEST SWAP5 SWAP4 POP POP POP POP JUMP JUMPDEST PUSH1 0x40 DUP1 MLOAD DUP1 DUP3 ADD SWAP1 SWAP2 MSTORE PUSH1 0x0 DUP1 DUP3 MSTORE PUSH1 0x20 DUP3 ADD MSTORE PUSH1 0x0 PUSH2 0x2BEC DUP6 PUSH1 0x0 ADD MLOAD DUP7 PUSH1 0x20 ADD MLOAD DUP7 PUSH1 0x0 ADD MLOAD DUP8 PUSH1 0x20 ADD MLOAD PUSH2 0x2A98 JUMP JUMPDEST PUSH1 0x20 DUP1 DUP8 ADD DUP1 MLOAD SWAP2 DUP7 ADD SWAP2 SWAP1 SWAP2 MSTORE MLOAD SWAP1 SWAP2 POP PUSH2 0x2C08 SWAP1 DUP3 PUSH2 0x3752 JUMP JUMPDEST DUP4 MSTORE DUP5 MLOAD PUSH1 0x20 DUP7 ADD MLOAD PUSH2 0x2C1B SWAP2 SWAP1 PUSH2 0x3636 JUMP JUMPDEST DUP2 SUB PUSH2 0x2C2A JUMPI PUSH1 0x0 DUP6 MSTORE PUSH2 0x2C5C JUMP JUMPDEST DUP4 MLOAD DUP4 MLOAD PUSH2 0x2C38 SWAP2 SWAP1 PUSH2 0x3636 JUMP JUMPDEST DUP6 MLOAD DUP7 SWAP1 PUSH2 0x2C47 SWAP1 DUP4 SWAP1 PUSH2 0x3752 JUMP JUMPDEST SWAP1 MSTORE POP DUP4 MLOAD PUSH2 0x2C56 SWAP1 DUP3 PUSH2 0x3636 JUMP JUMPDEST PUSH1 0x20 DUP7 ADD MSTORE JUMPDEST POP SWAP1 SWAP4 SWAP3 POP POP POP JUMP JUMPDEST PUSH1 0x20 DUP2 LT PUSH2 0x2C9D JUMPI DUP2 MLOAD DUP4 MSTORE PUSH2 0x2C7C PUSH1 0x20 DUP5 PUSH2 0x3636 JUMP JUMPDEST SWAP3 POP PUSH2 0x2C89 PUSH1 0x20 DUP4 PUSH2 0x3636 JUMP JUMPDEST SWAP2 POP PUSH2 0x2C96 PUSH1 0x20 DUP3 PUSH2 0x3752 JUMP JUMPDEST SWAP1 POP PUSH2 0x2C65 JUMP JUMPDEST PUSH1 0x0 NOT DUP2 ISZERO PUSH2 0x2CCC JUMPI PUSH1 0x1 PUSH2 0x2CB3 DUP4 PUSH1 0x20 PUSH2 0x3752 JUMP JUMPDEST PUSH2 0x2CBF SWAP1 PUSH2 0x100 PUSH2 0x3882 JUMP JUMPDEST PUSH2 0x2CC9 SWAP2 SWAP1 PUSH2 0x3752 JUMP JUMPDEST SWAP1 POP JUMPDEST SWAP2 MLOAD DUP4 MLOAD DUP4 AND SWAP3 NOT AND SWAP2 SWAP1 SWAP2 OR SWAP1 SWAP2 MSTORE POP JUMP JUMPDEST DUP3 DUP1 SLOAD DUP3 DUP3 SSTORE SWAP1 PUSH1 0x0 MSTORE PUSH1 0x20 PUSH1 0x0 KECCAK256 SWAP1 DUP2 ADD SWAP3 DUP3 ISZERO PUSH2 0x2D25 JUMPI SWAP2 PUSH1 0x20 MUL DUP3 ADD JUMPDEST DUP3 DUP2 GT ISZERO PUSH2 0x2D25 JUMPI DUP3 MLOAD DUP3 SWAP1 PUSH2 0x2D15 SWAP1 DUP3 PUSH2 0x3576 JUMP JUMPDEST POP SWAP2 PUSH1 0x20 ADD SWAP2 SWAP1 PUSH1 0x1 ADD SWAP1 PUSH2 0x2CFF JUMP JUMPDEST POP PUSH2 0x2D31 SWAP3 SWAP2 POP PUSH2 0x2D35 JUMP JUMPDEST POP SWAP1 JUMP JUMPDEST DUP1 DUP3 GT ISZERO PUSH2 0x2D31 JUMPI PUSH1 0x0 PUSH2 0x2D49 DUP3 DUP3 PUSH2 0x2D52 JUMP JUMPDEST POP PUSH1 0x1 ADD PUSH2 0x2D35 JUMP JUMPDEST POP DUP1 SLOAD PUSH2 0x2D5E SWAP1 PUSH2 0x34B0 JUMP JUMPDEST PUSH1 0x0 DUP3 SSTORE DUP1 PUSH1 0x1F LT PUSH2 0x2D6E JUMPI POP POP JUMP JUMPDEST PUSH1 0x1F ADD PUSH1 0x20 SWAP1 DIV SWAP1 PUSH1 0x0 MSTORE PUSH1 0x20 PUSH1 0x0 KECCAK256 SWAP1 DUP2 ADD SWAP1 PUSH2 0x2725 SWAP2 SWAP1 JUMPDEST DUP1 DUP3 GT ISZERO PUSH2 0x2D31 JUMPI PUSH1 0x0 DUP2 SSTORE PUSH1 0x1 ADD PUSH2 0x2D88 JUMP JUMPDEST PUSH1 0x0 PUSH1 0x20 DUP3 DUP5 SUB SLT ISZERO PUSH2 0x2DAE JUMPI PUSH1 0x0 DUP1 REVERT JUMPDEST POP CALLDATALOAD SWAP2 SWAP1 POP JUMP JUMPDEST PUSH1 0x20 DUP1 DUP3 MSTORE DUP3 MLOAD DUP3 DUP3 ADD DUP2 SWAP1 MSTORE PUSH1 0x0 SWAP2 SWAP1 DUP5 DUP3 ADD SWAP1 PUSH1 0x40 DUP6 ADD SWAP1 DUP5 JUMPDEST DUP2 DUP2 LT ISZERO PUSH2 0x2DED JUMPI DUP4 MLOAD DUP4 MSTORE SWAP3 DUP5 ADD SWAP3 SWAP2 DUP5 ADD SWAP2 PUSH1 0x1 ADD PUSH2 0x2DD1 JUMP JUMPDEST POP SWAP1 SWAP7 SWAP6 POP POP POP POP POP POP JUMP JUMPDEST PUSH1 0x0 PUSH1 0x20 DUP3 DUP5 SUB SLT ISZERO PUSH2 0x2E0B JUMPI PUSH1 0x0 DUP1 REVERT JUMPDEST DUP2 CALLDATALOAD PUSH1 0x1 PUSH1 0x1 PUSH1 0xA0 SHL SUB DUP2 AND DUP2 EQ PUSH2 0x2E22 JUMPI PUSH1 0x0 DUP1 REVERT JUMPDEST SWAP4 SWAP3 POP POP POP JUMP JUMPDEST PUSH1 0x0 JUMPDEST DUP4 DUP2 LT ISZERO PUSH2 0x2E44 JUMPI DUP2 DUP2 ADD MLOAD DUP4 DUP3 ADD MSTORE PUSH1 0x20 ADD PUSH2 0x2E2C JUMP JUMPDEST POP POP PUSH1 0x0 SWAP2 ADD MSTORE JUMP JUMPDEST PUSH1 0x0 DUP2 MLOAD DUP1 DUP5 MSTORE PUSH2 0x2E65 DUP2 PUSH1 0x20 DUP7 ADD PUSH1 0x20 DUP7 ADD PUSH2 0x2E29 JUMP JUMPDEST PUSH1 0x1F ADD PUSH1 0x1F NOT AND SWAP3 SWAP1 SWAP3 ADD PUSH1 0x20 ADD SWAP3 SWAP2 POP POP JUMP JUMPDEST PUSH1 0x20 DUP2 MSTORE PUSH1 0x0 PUSH2 0x2E22 PUSH1 0x20 DUP4 ADD DUP5 PUSH2 0x2E4D JUMP JUMPDEST PUSH1 0x0 DUP1 DUP4 PUSH1 0x1F DUP5 ADD SLT PUSH2 0x2E9E JUMPI PUSH1 0x0 DUP1 REVERT JUMPDEST POP DUP2 CALLDATALOAD PUSH8 0xFFFFFFFFFFFFFFFF DUP2 GT ISZERO PUSH2 0x2EB6 JUMPI PUSH1 0x0 DUP1 REVERT JUMPDEST PUSH1 0x20 DUP4 ADD SWAP2 POP DUP4 PUSH1 0x20 DUP3 DUP6 ADD ADD GT ISZERO PUSH2 0x2ECE JUMPI PUSH1 0x0 DUP1 REVERT JUMPDEST SWAP3 POP SWAP3 SWAP1 POP JUMP JUMPDEST PUSH1 0x0 DUP1 DUP4 PUSH1 0x1F DUP5 ADD SLT PUSH2 0x2EE7 JUMPI PUSH1 0x0 DUP1 REVERT JUMPDEST POP DUP2 CALLDATALOAD PUSH8 0xFFFFFFFFFFFFFFFF DUP2 GT ISZERO PUSH2 0x2EFF JUMPI PUSH1 0x0 DUP1 REVERT JUMPDEST PUSH1 0x20 DUP4 ADD SWAP2 POP DUP4 PUSH1 0x20 DUP3 PUSH1 0x5 SHL DUP6 ADD ADD GT ISZERO PUSH2 0x2ECE JUMPI PUSH1 0x0 DUP1 REVERT JUMPDEST PUSH1 0x0 DUP1 PUSH1 0x0 DUP1 PUSH1 0x0 DUP1 PUSH1 0x0 DUP1 PUSH1 0x0 DUP1 PUSH1 0x0 PUSH1 0xC0 DUP13 DUP15 SUB SLT ISZERO PUSH2 0x2F3B JUMPI PUSH1 0x0 DUP1 REVERT JUMPDEST PUSH8 0xFFFFFFFFFFFFFFFF DUP1 DUP14 CALLDATALOAD GT ISZERO PUSH2 0x2F52 JUMPI PUSH1 0x0 DUP1 REVERT JUMPDEST PUSH2 0x2F5F DUP15 DUP15 CALLDATALOAD DUP16 ADD PUSH2 0x2E8C JUMP JUMPDEST SWAP1 SWAP13 POP SWAP11 POP PUSH1 0x20 DUP14 ADD CALLDATALOAD DUP2 LT ISZERO PUSH2 0x2F75 JUMPI PUSH1 0x0 DUP1 REVERT JUMPDEST PUSH2 0x2F85 DUP15 PUSH1 0x20 DUP16 ADD CALLDATALOAD DUP16 ADD PUSH2 0x2E8C JUMP JUMPDEST SWAP1 SWAP11 POP SWAP9 POP PUSH1 0x40 DUP14 ADD CALLDATALOAD DUP2 LT ISZERO PUSH2 0x2F9B JUMPI PUSH1 0x0 DUP1 REVERT JUMPDEST PUSH2 0x2FAB DUP15 PUSH1 0x40 DUP16 ADD CALLDATALOAD DUP16 ADD PUSH2 0x2E8C JUMP JUMPDEST SWAP1 SWAP9 POP SWAP7 POP PUSH1 0x60 DUP14 ADD CALLDATALOAD DUP2 LT ISZERO PUSH2 0x2FC1 JUMPI PUSH1 0x0 DUP1 REVERT JUMPDEST PUSH2 0x2FD1 DUP15 PUSH1 0x60 DUP16 ADD CALLDATALOAD DUP16 ADD PUSH2 0x2E8C JUMP JUMPDEST SWAP1 SWAP7 POP SWAP5 POP PUSH1 0x80 DUP14 ADD CALLDATALOAD SWAP4 POP PUSH1 0xA0 DUP14 ADD CALLDATALOAD DUP2 LT ISZERO PUSH2 0x2FEE JUMPI PUSH1 0x0 DUP1 REVERT JUMPDEST POP PUSH2 0x2FFF DUP14 PUSH1 0xA0 DUP15 ADD CALLDATALOAD DUP15 ADD PUSH2 0x2ED5 JUMP JUMPDEST DUP2 SWAP4 POP DUP1 SWAP3 POP POP POP SWAP3 SWAP6 SWAP9 SWAP12 POP SWAP3 SWAP6 SWAP9 SWAP12 SWAP1 SWAP4 SWAP7 SWAP10 POP JUMP JUMPDEST PUSH1 0x0 PUSH1 0x20 DUP1 DUP4 ADD DUP2 DUP5 MSTORE DUP1 DUP6 MLOAD DUP1 DUP4 MSTORE PUSH1 0x40 SWAP3 POP PUSH1 0x40 DUP7 ADD SWAP2 POP PUSH1 0x40 DUP2 PUSH1 0x5 SHL DUP8 ADD ADD DUP5 DUP9 ADD PUSH1 0x0 JUMPDEST DUP4 DUP2 LT ISZERO PUSH2 0x309F JUMPI PUSH1 0x3F NOT DUP10 DUP5 SUB ADD DUP6 MSTORE DUP2 MLOAD PUSH1 0x80 PUSH1 0x1 PUSH1 0x1 PUSH1 0xA0 SHL SUB DUP3 MLOAD AND DUP6 MSTORE DUP9 DUP3 ADD MLOAD DUP2 DUP11 DUP8 ADD MSTORE PUSH2 0x3077 DUP3 DUP8 ADD DUP3 PUSH2 0x2E4D JUMP JUMPDEST DUP4 DUP11 ADD MLOAD DUP8 DUP12 ADD MSTORE PUSH1 0x60 SWAP4 DUP5 ADD MLOAD SWAP4 SWAP1 SWAP7 ADD SWAP3 SWAP1 SWAP3 MSTORE POP POP SWAP4 DUP7 ADD SWAP4 SWAP1 DUP7 ADD SWAP1 PUSH1 0x1 ADD PUSH2 0x3040 JUMP JUMPDEST POP SWAP1 SWAP9 SWAP8 POP POP POP POP POP POP POP POP JUMP JUMPDEST PUSH1 0x0 DUP3 DUP3 MLOAD DUP1 DUP6 MSTORE PUSH1 0x20 DUP1 DUP7 ADD SWAP6 POP PUSH1 0x20 DUP3 PUSH1 0x5 SHL DUP5 ADD ADD PUSH1 0x20 DUP7 ADD PUSH1 0x0 JUMPDEST DUP5 DUP2 LT ISZERO PUSH2 0x30FA JUMPI PUSH1 0x1F NOT DUP7 DUP5 SUB ADD DUP10 MSTORE PUSH2 0x30E8 DUP4 DUP4 MLOAD PUSH2 0x2E4D JUMP JUMPDEST SWAP9 DUP5 ADD SWAP9 SWAP3 POP SWAP1 DUP4 ADD SWAP1 PUSH1 0x1 ADD PUSH2 0x30CC JUMP JUMPDEST POP SWAP1 SWAP8 SWAP7 POP POP POP POP POP POP POP JUMP JUMPDEST PUSH1 0x0 PUSH2 0x100 DUP3 MLOAD DUP5 MSTORE PUSH1 0x20 DUP4 ADD MLOAD DUP2 PUSH1 0x20 DUP7 ADD MSTORE PUSH2 0x3127 DUP3 DUP7 ADD DUP3 PUSH2 0x2E4D JUMP JUMPDEST SWAP2 POP POP PUSH1 0x40 DUP4 ADD MLOAD DUP5 DUP3 SUB PUSH1 0x40 DUP7 ADD MSTORE PUSH2 0x3141 DUP3 DUP3 PUSH2 0x2E4D JUMP JUMPDEST SWAP2 POP POP PUSH1 0x60 DUP4 ADD MLOAD DUP5 DUP3 SUB PUSH1 0x60 DUP7 ADD MSTORE PUSH2 0x315B DUP3 DUP3 PUSH2 0x2E4D JUMP JUMPDEST SWAP2 POP POP PUSH1 0x80 DUP4 ADD MLOAD DUP5 DUP3 SUB PUSH1 0x80 DUP7 ADD MSTORE PUSH2 0x3175 DUP3 DUP3 PUSH2 0x2E4D JUMP JUMPDEST SWAP2 POP POP PUSH1 0xA0 DUP4 ADD MLOAD DUP5 DUP3 SUB PUSH1 0xA0 DUP7 ADD MSTORE PUSH2 0x318F DUP3 DUP3 PUSH2 0x30AD JUMP JUMPDEST SWAP2 POP POP PUSH1 0xC0 DUP4 ADD MLOAD PUSH1 0xC0 DUP6 ADD MSTORE PUSH1 0xE0 DUP4 ADD MLOAD PUSH1 0xE0 DUP6 ADD MSTORE DUP1 SWAP2 POP POP SWAP3 SWAP2 POP POP JUMP JUMPDEST PUSH1 0x20 DUP2 MSTORE PUSH1 0x0 PUSH2 0x2E22 PUSH1 0x20 DUP4 ADD DUP5 PUSH2 0x3107 JUMP JUMPDEST PUSH1 0x0 DUP1 PUSH1 0x0 PUSH1 0x40 DUP5 DUP7 SUB SLT ISZERO PUSH2 0x31D8 JUMPI PUSH1 0x0 DUP1 REVERT JUMPDEST DUP4 CALLDATALOAD SWAP3 POP PUSH1 0x20 DUP5 ADD CALLDATALOAD PUSH8 0xFFFFFFFFFFFFFFFF DUP2 GT ISZERO PUSH2 0x31F6 JUMPI PUSH1 0x0 DUP1 REVERT JUMPDEST PUSH2 0x3202 DUP7 DUP3 DUP8 ADD PUSH2 0x2ED5 JUMP JUMPDEST SWAP5 SWAP8 SWAP1 SWAP7 POP SWAP4 SWAP5 POP POP POP POP JUMP JUMPDEST PUSH4 0x4E487B71 PUSH1 0xE0 SHL PUSH1 0x0 MSTORE PUSH1 0x41 PUSH1 0x4 MSTORE PUSH1 0x24 PUSH1 0x0 REVERT JUMPDEST PUSH1 0x40 MLOAD PUSH1 0x1F DUP3 ADD PUSH1 0x1F NOT AND DUP2 ADD PUSH8 0xFFFFFFFFFFFFFFFF DUP2 GT DUP3 DUP3 LT OR ISZERO PUSH2 0x324E JUMPI PUSH2 0x324E PUSH2 0x320F JUMP JUMPDEST PUSH1 0x40 MSTORE SWAP2 SWAP1 POP JUMP JUMPDEST PUSH1 0x0 DUP3 PUSH1 0x1F DUP4 ADD SLT PUSH2 0x3267 JUMPI PUSH1 0x0 DUP1 REVERT JUMPDEST DUP2 CALLDATALOAD PUSH8 0xFFFFFFFFFFFFFFFF DUP2 GT ISZERO PUSH2 0x3281 JUMPI PUSH2 0x3281 PUSH2 0x320F JUMP JUMPDEST PUSH2 0x3294 PUSH1 0x1F DUP3 ADD PUSH1 0x1F NOT AND PUSH1 0x20 ADD PUSH2 0x3225 JUMP JUMPDEST DUP2 DUP2 MSTORE DUP5 PUSH1 0x20 DUP4 DUP7 ADD ADD GT ISZERO PUSH2 0x32A9 JUMPI PUSH1 0x0 DUP1 REVERT JUMPDEST DUP2 PUSH1 0x20 DUP6 ADD PUSH1 0x20 DUP4 ADD CALLDATACOPY PUSH1 0x0 SWAP2 DUP2 ADD PUSH1 0x20 ADD SWAP2 SWAP1 SWAP2 MSTORE SWAP4 SWAP3 POP POP POP JUMP JUMPDEST PUSH1 0x0 PUSH8 0xFFFFFFFFFFFFFFFF DUP1 DUP5 GT ISZERO PUSH2 0x32E1 JUMPI PUSH2 0x32E1 PUSH2 0x320F JUMP JUMPDEST DUP4 PUSH1 0x5 SHL PUSH1 0x20 PUSH2 0x32F3 PUSH1 0x20 DUP4 ADD PUSH2 0x3225 JUMP JUMPDEST DUP7 DUP2 MSTORE SWAP4 POP SWAP1 DUP5 ADD SWAP1 PUSH1 0x20 DUP5 ADD DUP8 DUP4 GT ISZERO PUSH2 0x330D JUMPI PUSH1 0x0 DUP1 REVERT JUMPDEST DUP6 JUMPDEST DUP4 DUP2 LT ISZERO PUSH2 0x3341 JUMPI DUP1 CALLDATALOAD DUP6 DUP2 GT ISZERO PUSH2 0x3327 JUMPI PUSH1 0x0 DUP1 DUP2 REVERT JUMPDEST PUSH2 0x3333 DUP11 DUP3 DUP11 ADD PUSH2 0x3256 JUMP JUMPDEST DUP4 MSTORE POP SWAP1 DUP3 ADD SWAP1 DUP3 ADD PUSH2 0x330F JUMP JUMPDEST POP POP POP POP POP SWAP4 SWAP3 POP POP POP JUMP JUMPDEST PUSH1 0x0 PUSH1 0x20 DUP3 DUP5 SUB SLT ISZERO PUSH2 0x335F JUMPI PUSH1 0x0 DUP1 REVERT JUMPDEST DUP2 CALLDATALOAD PUSH8 0xFFFFFFFFFFFFFFFF DUP2 GT ISZERO PUSH2 0x3376 JUMPI PUSH1 0x0 DUP1 REVERT JUMPDEST DUP3 ADD PUSH1 0x1F DUP2 ADD DUP5 SGT PUSH2 0x3387 JUMPI PUSH1 0x0 DUP1 REVERT JUMPDEST PUSH2 0x2BB2 DUP5 DUP3 CALLDATALOAD PUSH1 0x20 DUP5 ADD PUSH2 0x32C6 JUMP JUMPDEST PUSH1 0x0 PUSH1 0x20 DUP1 DUP4 ADD PUSH1 0x20 DUP5 MSTORE DUP1 DUP6 MLOAD DUP1 DUP4 MSTORE PUSH1 0x40 DUP7 ADD SWAP2 POP PUSH1 0x40 DUP2 PUSH1 0x5 SHL DUP8 ADD ADD SWAP3 POP PUSH1 0x20 DUP8 ADD PUSH1 0x0 JUMPDEST DUP3 DUP2 LT ISZERO PUSH2 0x33ED JUMPI PUSH1 0x3F NOT DUP9 DUP7 SUB ADD DUP5 MSTORE PUSH2 0x33DB DUP6 DUP4 MLOAD PUSH2 0x3107 JUMP JUMPDEST SWAP5 POP SWAP3 DUP6 ADD SWAP3 SWAP1 DUP6 ADD SWAP1 PUSH1 0x1 ADD PUSH2 0x33BF JUMP JUMPDEST POP SWAP3 SWAP8 SWAP7 POP POP POP POP POP POP POP JUMP JUMPDEST PUSH1 0x0 PUSH1 0x20 DUP3 DUP5 SUB SLT ISZERO PUSH2 0x340C JUMPI PUSH1 0x0 DUP1 REVERT JUMPDEST DUP2 CALLDATALOAD PUSH8 0xFFFFFFFFFFFFFFFF DUP2 GT ISZERO PUSH2 0x3423 JUMPI PUSH1 0x0 DUP1 REVERT JUMPDEST PUSH2 0x2BB2 DUP5 DUP3 DUP6 ADD PUSH2 0x3256 JUMP JUMPDEST PUSH1 0x0 DUP1 PUSH1 0x20 DUP4 DUP6 SUB SLT ISZERO PUSH2 0x3442 JUMPI PUSH1 0x0 DUP1 REVERT JUMPDEST DUP3 CALLDATALOAD PUSH8 0xFFFFFFFFFFFFFFFF DUP2 GT ISZERO PUSH2 0x3459 JUMPI PUSH1 0x0 DUP1 REVERT JUMPDEST PUSH2 0x3465 DUP6 DUP3 DUP7 ADD PUSH2 0x2E8C JUMP JUMPDEST SWAP1 SWAP7 SWAP1 SWAP6 POP SWAP4 POP POP POP POP JUMP JUMPDEST PUSH1 0x0 DUP1 PUSH1 0x0 PUSH1 0x40 DUP5 DUP7 SUB SLT ISZERO PUSH2 0x3486 JUMPI PUSH1 0x0 DUP1 REVERT JUMPDEST DUP4 CALLDATALOAD SWAP3 POP PUSH1 0x20 DUP5 ADD CALLDATALOAD PUSH8 0xFFFFFFFFFFFFFFFF DUP2 GT ISZERO PUSH2 0x34A4 JUMPI PUSH1 0x0 DUP1 REVERT JUMPDEST PUSH2 0x3202 DUP7 DUP3 DUP8 ADD PUSH2 0x2E8C JUMP JUMPDEST PUSH1 0x1 DUP2 DUP2 SHR SWAP1 DUP3 AND DUP1 PUSH2 0x34C4 JUMPI PUSH1 0x7F DUP3 AND SWAP2 POP JUMPDEST PUSH1 0x20 DUP3 LT DUP2 SUB PUSH2 0x34E4 JUMPI PUSH4 0x4E487B71 PUSH1 0xE0 SHL PUSH1 0x0 MSTORE PUSH1 0x22 PUSH1 0x4 MSTORE PUSH1 0x24 PUSH1 0x0 REVERT JUMPDEST POP SWAP2 SWAP1 POP JUMP JUMPDEST PUSH4 0x4E487B71 PUSH1 0xE0 SHL PUSH1 0x0 MSTORE PUSH1 0x11 PUSH1 0x4 MSTORE PUSH1 0x24 PUSH1 0x0 REVERT JUMPDEST PUSH1 0x0 PUSH1 0x1 DUP3 ADD PUSH2 0x3512 JUMPI PUSH2 0x3512 PUSH2 0x34EA JUMP JUMPDEST POP PUSH1 0x1 ADD SWAP1 JUMP JUMPDEST PUSH1 0x0 PUSH2 0x2E22 CALLDATASIZE DUP5 DUP5 PUSH2 0x32C6 JUMP JUMPDEST PUSH1 0x1F DUP3 GT ISZERO PUSH2 0x2932 JUMPI PUSH1 0x0 DUP2 PUSH1 0x0 MSTORE PUSH1 0x20 PUSH1 0x0 KECCAK256 PUSH1 0x1F DUP6 ADD PUSH1 0x5 SHR DUP2 ADD PUSH1 0x20 DUP7 LT ISZERO PUSH2 0x354F JUMPI POP DUP1 JUMPDEST PUSH1 0x1F DUP6 ADD PUSH1 0x5 SHR DUP3 ADD SWAP2 POP JUMPDEST DUP2 DUP2 LT ISZERO PUSH2 0x356E JUMPI DUP3 DUP2 SSTORE PUSH1 0x1 ADD PUSH2 0x355B JUMP JUMPDEST POP POP POP POP POP POP JUMP JUMPDEST DUP2 MLOAD PUSH8 0xFFFFFFFFFFFFFFFF DUP2 GT ISZERO PUSH2 0x3590 JUMPI PUSH2 0x3590 PUSH2 0x320F JUMP JUMPDEST PUSH2 0x35A4 DUP2 PUSH2 0x359E DUP5 SLOAD PUSH2 0x34B0 JUMP JUMPDEST DUP5 PUSH2 0x3526 JUMP JUMPDEST PUSH1 0x20 DUP1 PUSH1 0x1F DUP4 GT PUSH1 0x1 DUP2 EQ PUSH2 0x35D9 JUMPI PUSH1 0x0 DUP5 ISZERO PUSH2 0x35C1 JUMPI POP DUP6 DUP4 ADD MLOAD JUMPDEST PUSH1 0x0 NOT PUSH1 0x3 DUP7 SWAP1 SHL SHR NOT AND PUSH1 0x1 DUP6 SWAP1 SHL OR DUP6 SSTORE PUSH2 0x356E JUMP JUMPDEST PUSH1 0x0 DUP6 DUP2 MSTORE PUSH1 0x20 DUP2 KECCAK256 PUSH1 0x1F NOT DUP7 AND SWAP2 JUMPDEST DUP3 DUP2 LT ISZERO PUSH2 0x3608 JUMPI DUP9 DUP7 ADD MLOAD DUP3 SSTORE SWAP5 DUP5 ADD SWAP5 PUSH1 0x1 SWAP1 SWAP2 ADD SWAP1 DUP5 ADD PUSH2 0x35E9 JUMP JUMPDEST POP DUP6 DUP3 LT ISZERO PUSH2 0x3626 JUMPI DUP8 DUP6 ADD MLOAD PUSH1 0x0 NOT PUSH1 0x3 DUP9 SWAP1 SHL PUSH1 0xF8 AND SHR NOT AND DUP2 SSTORE JUMPDEST POP POP POP POP POP PUSH1 0x1 SWAP1 DUP2 SHL ADD SWAP1 SSTORE POP JUMP JUMPDEST DUP1 DUP3 ADD DUP1 DUP3 GT ISZERO PUSH2 0x3649 JUMPI PUSH2 0x3649 PUSH2 0x34EA JUMP JUMPDEST SWAP3 SWAP2 POP POP JUMP JUMPDEST PUSH1 0x0 DUP3 MLOAD PUSH2 0x3661 DUP2 DUP5 PUSH1 0x20 DUP8 ADD PUSH2 0x2E29 JUMP JUMPDEST SWAP2 SWAP1 SWAP2 ADD SWAP3 SWAP2 POP POP JUMP JUMPDEST PUSH4 0x4E487B71 PUSH1 0xE0 SHL PUSH1 0x0 MSTORE PUSH1 0x32 PUSH1 0x4 MSTORE PUSH1 0x24 PUSH1 0x0 REVERT JUMPDEST PUSH8 0xFFFFFFFFFFFFFFFF DUP4 GT ISZERO PUSH2 0x3699 JUMPI PUSH2 0x3699 PUSH2 0x320F JUMP JUMPDEST PUSH2 0x36AD DUP4 PUSH2 0x36A7 DUP4 SLOAD PUSH2 0x34B0 JUMP JUMPDEST DUP4 PUSH2 0x3526 JUMP JUMPDEST PUSH1 0x0 PUSH1 0x1F DUP5 GT PUSH1 0x1 DUP2 EQ PUSH2 0x36E1 JUMPI PUSH1 0x0 DUP6 ISZERO PUSH2 0x36C9 JUMPI POP DUP4 DUP3 ADD CALLDATALOAD JUMPDEST PUSH1 0x0 NOT PUSH1 0x3 DUP8 SWAP1 SHL SHR NOT AND PUSH1 0x1 DUP7 SWAP1 SHL OR DUP4 SSTORE PUSH2 0x373B JUMP JUMPDEST PUSH1 0x0 DUP4 DUP2 MSTORE PUSH1 0x20 SWAP1 KECCAK256 PUSH1 0x1F NOT DUP7 AND SWAP1 DUP4 JUMPDEST DUP3 DUP2 LT ISZERO PUSH2 0x3712 JUMPI DUP7 DUP6 ADD CALLDATALOAD DUP3 SSTORE PUSH1 0x20 SWAP5 DUP6 ADD SWAP5 PUSH1 0x1 SWAP1 SWAP3 ADD SWAP2 ADD PUSH2 0x36F2 JUMP JUMPDEST POP DUP7 DUP3 LT ISZERO PUSH2 0x372F JUMPI PUSH1 0x0 NOT PUSH1 0xF8 DUP9 PUSH1 0x3 SHL AND SHR NOT DUP5 DUP8 ADD CALLDATALOAD AND DUP2 SSTORE JUMPDEST POP POP PUSH1 0x1 DUP6 PUSH1 0x1 SHL ADD DUP4 SSTORE JUMPDEST POP POP POP POP POP JUMP JUMPDEST DUP2 DUP4 DUP3 CALLDATACOPY PUSH1 0x0 SWAP2 ADD SWAP1 DUP2 MSTORE SWAP2 SWAP1 POP JUMP JUMPDEST DUP2 DUP2 SUB DUP2 DUP2 GT ISZERO PUSH2 0x3649 JUMPI PUSH2 0x3649 PUSH2 0x34EA JUMP JUMPDEST DUP1 DUP3 MUL DUP2 ISZERO DUP3 DUP3 DIV DUP5 EQ OR PUSH2 0x3649 JUMPI PUSH2 0x3649 PUSH2 0x34EA JUMP JUMPDEST PUSH1 0x0 DUP3 PUSH2 0x3799 JUMPI PUSH4 0x4E487B71 PUSH1 0xE0 SHL PUSH1 0x0 MSTORE PUSH1 0x12 PUSH1 0x4 MSTORE PUSH1 0x24 PUSH1 0x0 REVERT JUMPDEST POP DIV SWAP1 JUMP JUMPDEST PUSH1 0x1 DUP2 DUP2 JUMPDEST DUP1 DUP6 GT ISZERO PUSH2 0x37D9 JUMPI DUP2 PUSH1 0x0 NOT DIV DUP3 GT ISZERO PUSH2 0x37BF JUMPI PUSH2 0x37BF PUSH2 0x34EA JUMP JUMPDEST DUP1 DUP6 AND ISZERO PUSH2 0x37CC JUMPI SWAP2 DUP2 MUL SWAP2 JUMPDEST SWAP4 DUP5 SHR SWAP4 SWAP1 DUP1 MUL SWAP1 PUSH2 0x37A3 JUMP JUMPDEST POP SWAP3 POP SWAP3 SWAP1 POP JUMP JUMPDEST PUSH1 0x0 DUP3 PUSH2 0x37F0 JUMPI POP PUSH1 0x1 PUSH2 0x3649 JUMP JUMPDEST DUP2 PUSH2 0x37FD JUMPI POP PUSH1 0x0 PUSH2 0x3649 JUMP JUMPDEST DUP2 PUSH1 0x1 DUP2 EQ PUSH2 0x3813 JUMPI PUSH1 0x2 DUP2 EQ PUSH2 0x381D JUMPI PUSH2 0x3839 JUMP JUMPDEST PUSH1 0x1 SWAP2 POP POP PUSH2 0x3649 JUMP JUMPDEST PUSH1 0xFF DUP5 GT ISZERO PUSH2 0x382E JUMPI PUSH2 0x382E PUSH2 0x34EA JUMP JUMPDEST POP POP PUSH1 0x1 DUP3 SHL PUSH2 0x3649 JUMP JUMPDEST POP PUSH1 0x20 DUP4 LT PUSH2 0x133 DUP4 LT AND PUSH1 0x4E DUP5 LT PUSH1 0xB DUP5 LT AND OR ISZERO PUSH2 0x385C JUMPI POP DUP2 DUP2 EXP PUSH2 0x3649 JUMP JUMPDEST PUSH2 0x3866 DUP4 DUP4 PUSH2 0x379E JUMP JUMPDEST DUP1 PUSH1 0x0 NOT DIV DUP3 GT ISZERO PUSH2 0x387A JUMPI PUSH2 0x387A PUSH2 0x34EA JUMP JUMPDEST MUL SWAP4 SWAP3 POP POP POP JUMP JUMPDEST PUSH1 0x0 PUSH2 0x2E22 DUP4 DUP4 PUSH2 0x37E1 JUMP INVALID LOG2 PUSH5 0x6970667358 0x22 SLT KECCAK256 DUP15 CHAINID 0xC9 0xA8 0x2D PUSH10 0x22944B4A5B155090BA87 0xEF PUSH32 0x2525323B14688A72407BB1F0254864736F6C6343000816003300000000000000 "
        },
        "methodIdentifiers": {
          "addAdmin(address)": "70480275",
          "addComment(uint256,string)": "aa7e5683",
          "addVideo(string,string,string,string,uint256,string[])": "210e07df",
          "adminDeleteVideo(uint256)": "413cf029",
          "deleteVideo(uint256)": "d4ab873e",
          "getAddressNearID(address)": "087f44fd",
          "getAttributions(uint256)": "051cb30d",
          "getComments(uint256)": "23edf697",
          "getLatestVideos(uint256)": "8799bd74",
          "getOwner()": "893d20e8",
          "getVideo(uint256)": "2893eca2",
          "getVideoByNearID(string)": "5eaecd12",
          "getVideosByTerm(string[])": "3e35019e",
          "setAttributions(uint256,uint256[])": "38abafa0",
          "setNearID(string)": "60c736cd"
        }
      }
    }
  }
}