{
  "contracts/Atomic.sol": {
    "Atomic": {
      "abi": [
        {
          "inputs": [],
          "stateMutability": "nonpayable",
          "type": "constructor"
        },
        {
          "inputs": [
            {
              "internalType": "address",
              "name": "account",
              "type": "address"
            }
          ],
          "name": "addAdmin",
          "outputs": [],
          "stateMutability": "nonpayable",
          "type": "function"
        },
        {
          "inputs": [
            {
              "internalType": "uint256",
              "name": "video_id",
              "type": "uint256"
            },
            {
              "internalType": "string",
              "name": "comment_message",
              "type": "string"
            }
          ],
          "name": "addComment",
          "outputs": [],
          "stateMutability": "payable",
          "type": "function"
        },
        {
          "inputs": [
            {
              "internalType": "string",
              "name": "_title",
              "type": "string"
            },
            {
              "internalType": "string",
              "name": "_description",
              "type": "string"
            },
            {
              "internalType": "string",
              "name": "_url",
              "type": "string"
            },
            {
              "internalType": "string",
              "name": "_thumb_url",
              "type": "string"
            },
            {
              "internalType": "uint256",
              "name": "_duration",
              "type": "uint256"
            },
            {
              "internalType": "string[]",
              "name": "_keywords",
              "type": "string[]"
            }
          ],
          "name": "addVideo",
          "outputs": [],
          "stateMutability": "nonpayable",
          "type": "function"
        },
        {
          "inputs": [
            {
              "internalType": "uint256",
              "name": "video_id",
              "type": "uint256"
            }
          ],
          "name": "adminDeleteVideo",
          "outputs": [],
          "stateMutability": "nonpayable",
          "type": "function"
        },
        {
          "inputs": [
            {
              "internalType": "uint256",
              "name": "video_id",
              "type": "uint256"
            }
          ],
          "name": "deleteVideo",
          "outputs": [],
          "stateMutability": "nonpayable",
          "type": "function"
        },
        {
          "inputs": [
            {
              "internalType": "address",
              "name": "addr",
              "type": "address"
            }
          ],
          "name": "getAddressNearID",
          "outputs": [
            {
              "internalType": "string",
              "name": "",
              "type": "string"
            }
          ],
          "stateMutability": "view",
          "type": "function"
        },
        {
          "inputs": [
            {
              "internalType": "uint256",
              "name": "video_id",
              "type": "uint256"
            }
          ],
          "name": "getAttributions",
          "outputs": [
            {
              "internalType": "uint256[]",
              "name": "",
              "type": "uint256[]"
            }
          ],
          "stateMutability": "view",
          "type": "function"
        },
        {
          "inputs": [
            {
              "internalType": "uint256",
              "name": "video_id",
              "type": "uint256"
            }
          ],
          "name": "getComments",
          "outputs": [
            {
              "components": [
                {
                  "internalType": "address",
                  "name": "poster",
                  "type": "address"
                },
                {
                  "internalType": "string",
                  "name": "message",
                  "type": "string"
                },
                {
                  "internalType": "uint256",
                  "name": "amount",
                  "type": "uint256"
                },
                {
                  "internalType": "uint256",
                  "name": "timestamp",
                  "type": "uint256"
                }
              ],
              "internalType": "struct Atomic.Comment[]",
              "name": "",
              "type": "tuple[]"
            }
          ],
          "stateMutability": "view",
          "type": "function"
        },
        {
          "inputs": [
            {
              "internalType": "uint256",
              "name": "size",
              "type": "uint256"
            }
          ],
          "name": "getLatestVideos",
          "outputs": [
            {
              "components": [
                {
                  "internalType": "uint256",
                  "name": "id",
                  "type": "uint256"
                },
                {
                  "internalType": "string",
                  "name": "title",
                  "type": "string"
                },
                {
                  "internalType": "string",
                  "name": "description",
                  "type": "string"
                },
                {
                  "internalType": "string",
                  "name": "url",
                  "type": "string"
                },
                {
                  "internalType": "string",
                  "name": "thumb_url",
                  "type": "string"
                },
                {
                  "internalType": "string[]",
                  "name": "keywords",
                  "type": "string[]"
                },
                {
                  "internalType": "uint256",
                  "name": "duration",
                  "type": "uint256"
                },
                {
                  "internalType": "uint256",
                  "name": "timestamp",
                  "type": "uint256"
                }
              ],
              "internalType": "struct Atomic.Video[]",
              "name": "",
              "type": "tuple[]"
            }
          ],
          "stateMutability": "view",
          "type": "function"
        },
        {
          "inputs": [],
          "name": "getOwner",
          "outputs": [
            {
              "internalType": "address",
              "name": "",
              "type": "address"
            }
          ],
          "stateMutability": "view",
          "type": "function"
        },
        {
          "inputs": [
            {
              "internalType": "uint256",
              "name": "video_id",
              "type": "uint256"
            }
          ],
          "name": "getVideo",
          "outputs": [
            {
              "components": [
                {
                  "internalType": "uint256",
                  "name": "id",
                  "type": "uint256"
                },
                {
                  "internalType": "string",
                  "name": "title",
                  "type": "string"
                },
                {
                  "internalType": "string",
                  "name": "description",
                  "type": "string"
                },
                {
                  "internalType": "string",
                  "name": "url",
                  "type": "string"
                },
                {
                  "internalType": "string",
                  "name": "thumb_url",
                  "type": "string"
                },
                {
                  "internalType": "string[]",
                  "name": "keywords",
                  "type": "string[]"
                },
                {
                  "internalType": "uint256",
                  "name": "duration",
                  "type": "uint256"
                },
                {
                  "internalType": "uint256",
                  "name": "timestamp",
                  "type": "uint256"
                }
              ],
              "internalType": "struct Atomic.Video",
              "name": "",
              "type": "tuple"
            }
          ],
          "stateMutability": "view",
          "type": "function"
        },
        {
          "inputs": [
            {
              "internalType": "string",
              "name": "_near_id",
              "type": "string"
            }
          ],
          "name": "getVideoByNearID",
          "outputs": [
            {
              "components": [
                {
                  "internalType": "uint256",
                  "name": "id",
                  "type": "uint256"
                },
                {
                  "internalType": "string",
                  "name": "title",
                  "type": "string"
                },
                {
                  "internalType": "string",
                  "name": "description",
                  "type": "string"
                },
                {
                  "internalType": "string",
                  "name": "url",
                  "type": "string"
                },
                {
                  "internalType": "string",
                  "name": "thumb_url",
                  "type": "string"
                },
                {
                  "internalType": "string[]",
                  "name": "keywords",
                  "type": "string[]"
                },
                {
                  "internalType": "uint256",
                  "name": "duration",
                  "type": "uint256"
                },
                {
                  "internalType": "uint256",
                  "name": "timestamp",
                  "type": "uint256"
                }
              ],
              "internalType": "struct Atomic.Video[]",
              "name": "",
              "type": "tuple[]"
            }
          ],
          "stateMutability": "view",
          "type": "function"
        },
        {
          "inputs": [
            {
              "internalType": "uint256",
              "name": "video_id",
              "type": "uint256"
            },
            {
              "internalType": "uint256[]",
              "name": "attributions",
              "type": "uint256[]"
            }
          ],
          "name": "setAttributions",
          "outputs": [],
          "stateMutability": "nonpayable",
          "type": "function"
        },
        {
          "inputs": [
            {
              "internalType": "string",
              "name": "_near_id",
              "type": "string"
            }
          ],
          "name": "setNearID",
          "outputs": [],
          "stateMutability": "nonpayable",
          "type": "function"
        }
      ],
      "evm": {
        "bytecode": {
          "linkReferences": {},
          "object": "608060405260016000556001805534801561001957600080fd5b50600280546001600160a01b03191633179055612d1e8061003b6000396000f3fe6080604052600436106100dd5760003560e01c80635eaecd121161007f5780638799bd74116100595780638799bd741461026e578063893d20e81461028e578063aa7e5683146102b6578063d4ab873e146102c957600080fd5b80635eaecd121461020157806360c736cd1461022e578063704802751461024e57600080fd5b806323edf697116100bb57806323edf697146101675780632893eca21461019457806338abafa0146101c1578063413cf029146101e157600080fd5b8063051cb30d146100e2578063087f44fd14610118578063210e07df14610145575b600080fd5b3480156100ee57600080fd5b506101026100fd366004612335565b6102e9565b60405161010f919061234e565b60405180910390f35b34801561012457600080fd5b50610138610133366004612392565b6103a9565b60405161010f9190612412565b34801561015157600080fd5b506101656101603660046124b3565b61044b565b005b34801561017357600080fd5b50610187610182366004612335565b61065a565b60405161010f91906125b0565b3480156101a057600080fd5b506101b46101af366004612335565b6108a7565b60405161010f9190612749565b3480156101cd57600080fd5b506101656101dc36600461275c565b610cac565b3480156101ed57600080fd5b506101656101fc366004612335565b610da5565b34801561020d57600080fd5b5061022161021c36600461285f565b610eec565b60405161010f919061289c565b34801561023a57600080fd5b50610165610249366004612900565b6114bf565b34801561025a57600080fd5b50610165610269366004612392565b611594565b34801561027a57600080fd5b50610221610289366004612335565b611633565b34801561029a57600080fd5b506002546040516001600160a01b03909116815260200161010f565b6101656102c4366004612942565b611a9e565b3480156102d557600080fd5b506101656102e4366004612335565b611f8d565b6000818152600760205260409020546060906001600160a01b03166103495760405162461bcd60e51b81526020600482015260116024820152702b34b232b79036bab9ba1032bc34b9ba1760791b60448201526064015b60405180910390fd5b6000828152600b60209081526040918290208054835181840281018401909452808452909183018282801561039d57602002820191906000526020600020905b815481526020019060010190808311610389575b50505050509050919050565b6001600160a01b03811660009081526003602052604090208054606091906103d090612981565b80601f01602080910402602001604051908101604052809291908181526020018280546103fc90612981565b801561039d5780601f1061041e5761010080835404028352916020019161039d565b820191906000526020600020905b81548152906001019060200180831161042c5750939695505050505050565b60008054818061045a836129d1565b9190505590506040518061010001604052808281526020018d8d8080601f016020809104026020016040519081016040528093929190818152602001838380828437600092019190915250505090825250604080516020601f8e018190048102820181019092528c815291810191908d908d9081908401838280828437600092019190915250505090825250604080516020601f8c018190048102820181019092528a815291810191908b908b9081908401838280828437600092019190915250505090825250604080516020601f8a018190048102820181019092528881529181019190899089908190840183828082843760009201919091525050509082525060200161056984866129ea565b8152602080820187905242604092830152600084815260088252919091208251815590820151600182019061059e9082612ac0565b50604082015160028201906105b39082612ac0565b50606082015160038201906105c89082612ac0565b50608082015160048201906105dd9082612ac0565b5060a082015180516105f9916005840191602090910190612278565b5060c082015160068083019190915560e09092015160079182015560008381526020918252604080822080546001600160a01b0319163390811790915582529282529182208054600181018255908352912001555050505050505050505050565b6000818152600760205260409020546060906001600160a01b03166106b55760405162461bcd60e51b81526020600482015260116024820152702b34b232b79036bab9ba1032bc34b9ba1760791b6044820152606401610340565b60008281526009602052604081205467ffffffffffffffff8111156106dc576106dc6127a8565b60405190808252806020026020018201604052801561074157816020015b61072e604051806080016040528060006001600160a01b031681526020016060815260200160008152602001600081525090565b8152602001906001900390816106fa5790505b50905060005b6000848152600960205260409020548110156108a05760008481526009602052604081208054600a9291908490811061078257610782612b80565b906000526020600020015481526020019081526020016000206040518060800160405290816000820160009054906101000a90046001600160a01b03166001600160a01b03166001600160a01b031681526020016001820180546107e590612981565b80601f016020809104026020016040519081016040528092919081815260200182805461081190612981565b801561085e5780601f106108335761010080835404028352916020019161085e565b820191906000526020600020905b81548152906001019060200180831161084157829003601f168201915b505050505081526020016002820154815260200160038201548152505082828151811061088d5761088d612b80565b6020908102919091010152600101610747565b5092915050565b6108ef60405180610100016040528060008152602001606081526020016060815260200160608152602001606081526020016060815260200160008152602001600081525090565b6000828152600760205260409020546001600160a01b03166109475760405162461bcd60e51b81526020600482015260116024820152702b34b232b79036bab9ba1032bc34b9ba1760791b6044820152606401610340565b60086000838152602001908152602001600020604051806101000160405290816000820154815260200160018201805461098090612981565b80601f01602080910402602001604051908101604052809291908181526020018280546109ac90612981565b80156109f95780601f106109ce576101008083540402835291602001916109f9565b820191906000526020600020905b8154815290600101906020018083116109dc57829003601f168201915b50505050508152602001600282018054610a1290612981565b80601f0160208091040260200160405190810160405280929190818152602001828054610a3e90612981565b8015610a8b5780601f10610a6057610100808354040283529160200191610a8b565b820191906000526020600020905b815481529060010190602001808311610a6e57829003601f168201915b50505050508152602001600382018054610aa490612981565b80601f0160208091040260200160405190810160405280929190818152602001828054610ad090612981565b8015610b1d5780601f10610af257610100808354040283529160200191610b1d565b820191906000526020600020905b815481529060010190602001808311610b0057829003601f168201915b50505050508152602001600482018054610b3690612981565b80601f0160208091040260200160405190810160405280929190818152602001828054610b6290612981565b8015610baf5780601f10610b8457610100808354040283529160200191610baf565b820191906000526020600020905b815481529060010190602001808311610b9257829003601f168201915b5050505050815260200160058201805480602002602001604051908101604052809291908181526020016000905b82821015610c89578382906000526020600020018054610bfc90612981565b80601f0160208091040260200160405190810160405280929190818152602001828054610c2890612981565b8015610c755780601f10610c4a57610100808354040283529160200191610c75565b820191906000526020600020905b815481529060010190602001808311610c5857829003601f168201915b505050505081526020019060010190610bdd565b505050508152602001600682015481526020016007820154815250509050919050565b6000838152600760205260409020546001600160a01b03163314610d125760405162461bcd60e51b815260206004820152601960248201527f596f7520646f206e6f74206f776e2074686520766964656f2e000000000000006044820152606401610340565b6000838152600760205260409020546001600160a01b0316610d6a5760405162461bcd60e51b81526020600482015260116024820152702b34b232b79036bab9ba1032bc34b9ba1760791b6044820152606401610340565b60005b81811015610d9f57610d9784848484818110610d8b57610d8b612b80565b90506020020135612057565b600101610d6d565b50505050565b6000805b6040516430b236b4b760d91b8152600d9060050190815260405190819003602001902054811015610e33576040516430b236b4b760d91b8152600d9060050190815260200160405180910390208181548110610e0757610e07612b80565b6000918252602090912001546001600160a01b03163303610e2b5760019150610e33565b600101610da9565b506002546001600160a01b03163303610e4a575060015b80610e875760405162461bcd60e51b815260206004820152600d60248201526c1058d8d95cdcc811195b9a5959609a1b6044820152606401610340565b6000828152600760205260409020546001600160a01b0316610edf5760405162461bcd60e51b81526020600482015260116024820152702b34b232b79036bab9ba1032bc34b9ba1760791b6044820152606401610340565b610ee882612117565b5050565b60606000805b600484604051610f029190612b96565b90815260405190819003602001902054811015610f855760066000600486604051610f2d9190612b96565b90815260200160405180910390208381548110610f4c57610f4c612b80565b60009182526020808320909101546001600160a01b03168352820192909252604001902054610f7b9083612bb2565b9150600101610ef2565b5060008167ffffffffffffffff811115610fa157610fa16127a8565b60405190808252806020026020018201604052801561101a57816020015b61100760405180610100016040528060008152602001606081526020016060815260200160608152602001606081526020016060815260200160008152602001600081525090565b815260200190600190039081610fbf5790505b5090506000805b6004866040516110319190612b96565b908152604051908190036020019020548110156114b55760005b6006600060048960405161105f9190612b96565b9081526020016040518091039020848154811061107e5761107e612b80565b60009182526020808320909101546001600160a01b031683528201929092526040019020548110156114ac57600860006006600060048b6040516110c29190612b96565b908152602001604051809103902086815481106110e1576110e1612b80565b60009182526020808320909101546001600160a01b03168352820192909252604001902080548490811061111757611117612b80565b90600052602060002001548152602001908152602001600020604051806101000160405290816000820154815260200160018201805461115690612981565b80601f016020809104026020016040519081016040528092919081815260200182805461118290612981565b80156111cf5780601f106111a4576101008083540402835291602001916111cf565b820191906000526020600020905b8154815290600101906020018083116111b257829003601f168201915b505050505081526020016002820180546111e890612981565b80601f016020809104026020016040519081016040528092919081815260200182805461121490612981565b80156112615780601f1061123657610100808354040283529160200191611261565b820191906000526020600020905b81548152906001019060200180831161124457829003601f168201915b5050505050815260200160038201805461127a90612981565b80601f01602080910402602001604051908101604052809291908181526020018280546112a690612981565b80156112f35780601f106112c8576101008083540402835291602001916112f3565b820191906000526020600020905b8154815290600101906020018083116112d657829003601f168201915b5050505050815260200160048201805461130c90612981565b80601f016020809104026020016040519081016040528092919081815260200182805461133890612981565b80156113855780601f1061135a57610100808354040283529160200191611385565b820191906000526020600020905b81548152906001019060200180831161136857829003601f168201915b5050505050815260200160058201805480602002602001604051908101604052809291908181526020016000905b8282101561145f5783829060005260206000200180546113d290612981565b80601f01602080910402602001604051908101604052809291908181526020018280546113fe90612981565b801561144b5780601f106114205761010080835404028352916020019161144b565b820191906000526020600020905b81548152906001019060200180831161142e57829003601f168201915b5050505050815260200190600101906113b3565b50505050815260200160068201548152602001600782015481525050848480611487906129d1565b95508151811061149957611499612b80565b602090810291909101015260010161104b565b50600101611021565b5090949350505050565b3360009081526003602052604090206114d9828483612bcb565b50600582826040516114ec929190612c8c565b9081526040805160209281900383019020336000908152925290205460ff16610ee85760048282604051611521929190612c8c565b90815260405190819003602090810182208054600181810183556000928352929091200180546001600160a01b03191633179055906005906115669085908590612c8c565b908152604080516020928190038301902033600090815292529020805460ff19169115159190911790555050565b6002546001600160a01b031633146115de5760405162461bcd60e51b815260206004820152600d60248201526c1058d8d95cdcc811195b9a5959609a1b6044820152606401610340565b6040516430b236b4b760d91b8152600d9060050190815260405160209181900382019020805460018101825560009182529190200180546001600160a01b0319166001600160a01b0392909216919091179055565b606060008260016000546116479190612c9c565b1161166057600160005461165b9190612c9c565b611662565b825b67ffffffffffffffff81111561167a5761167a6127a8565b6040519080825280602002602001820160405280156116f357816020015b6116e060405180610100016040528060008152602001606081526020016060815260200160608152602001606081526020016060815260200160008152602001600081525090565b8152602001906001900390816116985790505b50905060005b81518110156108a057600860006001836000546117169190612c9c565b6117209190612c9c565b8152602001908152602001600020604051806101000160405290816000820154815260200160018201805461175490612981565b80601f016020809104026020016040519081016040528092919081815260200182805461178090612981565b80156117cd5780601f106117a2576101008083540402835291602001916117cd565b820191906000526020600020905b8154815290600101906020018083116117b057829003601f168201915b505050505081526020016002820180546117e690612981565b80601f016020809104026020016040519081016040528092919081815260200182805461181290612981565b801561185f5780601f106118345761010080835404028352916020019161185f565b820191906000526020600020905b81548152906001019060200180831161184257829003601f168201915b5050505050815260200160038201805461187890612981565b80601f01602080910402602001604051908101604052809291908181526020018280546118a490612981565b80156118f15780601f106118c6576101008083540402835291602001916118f1565b820191906000526020600020905b8154815290600101906020018083116118d457829003601f168201915b5050505050815260200160048201805461190a90612981565b80601f016020809104026020016040519081016040528092919081815260200182805461193690612981565b80156119835780601f1061195857610100808354040283529160200191611983565b820191906000526020600020905b81548152906001019060200180831161196657829003601f168201915b5050505050815260200160058201805480602002602001604051908101604052809291908181526020016000905b82821015611a5d5783829060005260206000200180546119d090612981565b80601f01602080910402602001604051908101604052809291908181526020018280546119fc90612981565b8015611a495780601f10611a1e57610100808354040283529160200191611a49565b820191906000526020600020905b815481529060010190602001808311611a2c57829003601f168201915b5050505050815260200190600101906119b1565b50505050815260200160068201548152602001600782015481525050828281518110611a8b57611a8b612b80565b60209081029190910101526001016116f9565b6000838152600760205260409020546001600160a01b0316611af65760405162461bcd60e51b81526020600482015260116024820152702b34b232b79036bab9ba1032bc34b9ba1760791b6044820152606401610340565b3415611e9a57600083815260076020526040902054336001600160a01b0390911603611b8a5760405162461bcd60e51b815260206004820152602660248201527f596f752063616e6e6f7420737570657263686174206f6e20796f7572206f776e60448201527f20766964656f00000000000000000000000000000000000000000000000000006064820152608401610340565b6000600a611b99346009612caf565b611ba39190612cc6565b6002549091506000906001600160a01b0316611bbf8334612c9c565b604051600081818185875af1925050503d8060008114611bfb576040519150601f19603f3d011682016040523d82523d6000602084013e611c00565b606091505b5050905080611c515760405162461bcd60e51b815260206004820152601d60248201527f4661696c656420746f2073656e6420457468657220746f206f776e65720000006044820152606401610340565b6000858152600b6020526040812054611c6b906001612bb2565b90506000611c798285612cc6565b905060005b6000888152600b6020526040902054811015611da4576000888152600b60205260408120805483908110611cb457611cb4612b80565b600091825260208083209190910154808352600790915260408083205490519193506001600160a01b03169190829086908381818185875af1925050503d8060008114611d1d576040519150601f19603f3d011682016040523d82523d6000602084013e611d22565b606091505b5050905080611d995760405162461bcd60e51b815260206004820152602160248201527f4661696c656420746f2073656e6420457468657220746f20612063726561746f60448201527f72000000000000000000000000000000000000000000000000000000000000006064820152608401610340565b505050600101611c7e565b506000878152600760205260408120546001600160a01b0316611dc8600185612c9c565b611dd29084612caf565b611ddc9087612c9c565b604051600081818185875af1925050503d8060008114611e18576040519150601f19603f3d011682016040523d82523d6000602084013e611e1d565b606091505b5050905080611e945760405162461bcd60e51b815260206004820152602360248201527f4661696c656420746f2073656e6420457468657220746f20746865206372656160448201527f746f7200000000000000000000000000000000000000000000000000000000006064820152608401610340565b50505050505b6001805460009182611eab836129d1565b9190505590506040518060800160405280336001600160a01b0316815260200184848080601f016020809104026020016040519081016040528093929190818152602001838380828437600092018290525093855250503460208085019190915242604094850152858352600a815292909120835181546001600160a01b0319166001600160a01b0390911617815591830151600183019150611f4e9082612ac0565b50604082810151600283015560609092015160039091015560009485526009602090815290852080546001810182559086529420909301929092555050565b6000818152600760205260409020546001600160a01b0316611fe55760405162461bcd60e51b81526020600482015260116024820152702b34b232b79036bab9ba1032bc34b9ba1760791b6044820152606401610340565b6000818152600760205260409020546001600160a01b0316331461204b5760405162461bcd60e51b815260206004820152601960248201527f596f7520646f206e6f74206f776e2074686520766964656f2e000000000000006044820152606401610340565b61205481612117565b50565b6000828152600c6020908152604080832084845290915290205460ff166120bb576000828152600b6020908152604080832080546001818101835591855283852001859055858452600c8352818420858552909252909120805460ff191690911790555b60005b6000828152600b6020526040902054811015612112576000828152600b60205260409020805461210a918591849081106120fa576120fa612b80565b9060005260206000200154612057565b6001016120be565b505050565b600081815260076020908152604080832080546001600160a01b031916905580516101008101825284815281518083018352600f81527f5b44656c6574656420566964656f5d00000000000000000000000000000000008185015281840152815180840183528481528183015281518084018352848152606082015281518084018352848152608082015281518481529283019091529160a0830191906121ce565b60608152602001906001900390816121b95790505b508152600060208083018290524260409384015284825260088152919020825181559082015160018201906122039082612ac0565b50604082015160028201906122189082612ac0565b506060820151600382019061222d9082612ac0565b50608082015160048201906122429082612ac0565b5060a0820151805161225e916005840191602090910190612278565b5060c0820151600682015560e09091015160079091015550565b8280548282559060005260206000209081019282156122be579160200282015b828111156122be57825182906122ae9082612ac0565b5091602001919060010190612298565b506122ca9291506122ce565b5090565b808211156122ca5760006122e282826122eb565b506001016122ce565b5080546122f790612981565b6000825580601f10612307575050565b601f01602090049060005260206000209081019061205491905b808211156122ca5760008155600101612321565b60006020828403121561234757600080fd5b5035919050565b6020808252825182820181905260009190848201906040850190845b818110156123865783518352928401929184019160010161236a565b50909695505050505050565b6000602082840312156123a457600080fd5b81356001600160a01b03811681146123bb57600080fd5b9392505050565b60005b838110156123dd5781810151838201526020016123c5565b50506000910152565b600081518084526123fe8160208601602086016123c2565b601f01601f19169290920160200192915050565b6020815260006123bb60208301846123e6565b60008083601f84011261243757600080fd5b50813567ffffffffffffffff81111561244f57600080fd5b60208301915083602082850101111561246757600080fd5b9250929050565b60008083601f84011261248057600080fd5b50813567ffffffffffffffff81111561249857600080fd5b6020830191508360208260051b850101111561246757600080fd5b600080600080600080600080600080600060c08c8e0312156124d457600080fd5b67ffffffffffffffff808d3511156124eb57600080fd5b6124f88e8e358f01612425565b909c509a5060208d013581101561250e57600080fd5b61251e8e60208f01358f01612425565b909a50985060408d013581101561253457600080fd5b6125448e60408f01358f01612425565b909850965060608d013581101561255a57600080fd5b61256a8e60608f01358f01612425565b909650945060808d0135935060a08d013581101561258757600080fd5b506125988d60a08e01358e0161246e565b81935080925050509295989b509295989b9093969950565b600060208083018184528085518083526040925060408601915060408160051b87010184880160005b8381101561263857603f19898403018552815160806001600160a01b03825116855288820151818a870152612610828701826123e6565b838a0151878b01526060938401519390960192909252505093860193908601906001016125d9565b509098975050505050505050565b60008282518085526020808601955060208260051b8401016020860160005b8481101561269357601f198684030189526126818383516123e6565b98840198925090830190600101612665565b5090979650505050505050565b60006101008251845260208301518160208601526126c0828601826123e6565b915050604083015184820360408601526126da82826123e6565b915050606083015184820360608601526126f482826123e6565b9150506080830151848203608086015261270e82826123e6565b91505060a083015184820360a08601526127288282612646565b91505060c083015160c085015260e083015160e08501528091505092915050565b6020815260006123bb60208301846126a0565b60008060006040848603121561277157600080fd5b83359250602084013567ffffffffffffffff81111561278f57600080fd5b61279b8682870161246e565b9497909650939450505050565b634e487b7160e01b600052604160045260246000fd5b604051601f8201601f1916810167ffffffffffffffff811182821017156127e7576127e76127a8565b604052919050565b600082601f83011261280057600080fd5b813567ffffffffffffffff81111561281a5761281a6127a8565b61282d601f8201601f19166020016127be565b81815284602083860101111561284257600080fd5b816020850160208301376000918101602001919091529392505050565b60006020828403121561287157600080fd5b813567ffffffffffffffff81111561288857600080fd5b612894848285016127ef565b949350505050565b600060208083016020845280855180835260408601915060408160051b87010192506020870160005b828110156128f357603f198886030184526128e18583516126a0565b945092850192908501906001016128c5565b5092979650505050505050565b6000806020838503121561291357600080fd5b823567ffffffffffffffff81111561292a57600080fd5b61293685828601612425565b90969095509350505050565b60008060006040848603121561295757600080fd5b83359250602084013567ffffffffffffffff81111561297557600080fd5b61279b86828701612425565b600181811c9082168061299557607f821691505b6020821081036129b557634e487b7160e01b600052602260045260246000fd5b50919050565b634e487b7160e01b600052601160045260246000fd5b6000600182016129e3576129e36129bb565b5060010190565b600067ffffffffffffffff80841115612a0557612a056127a8565b8360051b6020612a17602083016127be565b86815291850191602081019036841115612a3057600080fd5b865b84811015612a6457803586811115612a4a5760008081fd5b612a5636828b016127ef565b845250918301918301612a32565b50979650505050505050565b601f821115612112576000816000526020600020601f850160051c81016020861015612a995750805b601f850160051c820191505b81811015612ab857828155600101612aa5565b505050505050565b815167ffffffffffffffff811115612ada57612ada6127a8565b612aee81612ae88454612981565b84612a70565b602080601f831160018114612b235760008415612b0b5750858301515b600019600386901b1c1916600185901b178555612ab8565b600085815260208120601f198616915b82811015612b5257888601518255948401946001909101908401612b33565b5085821015612b705787850151600019600388901b60f8161c191681555b5050505050600190811b01905550565b634e487b7160e01b600052603260045260246000fd5b60008251612ba88184602087016123c2565b9190910192915050565b80820180821115612bc557612bc56129bb565b92915050565b67ffffffffffffffff831115612be357612be36127a8565b612bf783612bf18354612981565b83612a70565b6000601f841160018114612c2b5760008515612c135750838201355b600019600387901b1c1916600186901b178355612c85565b600083815260209020601f19861690835b82811015612c5c5786850135825560209485019460019092019101612c3c565b5086821015612c795760001960f88860031b161c19848701351681555b505060018560011b0183555b5050505050565b8183823760009101908152919050565b81810381811115612bc557612bc56129bb565b8082028115828204841417612bc557612bc56129bb565b600082612ce357634e487b7160e01b600052601260045260246000fd5b50049056fea2646970667358221220821f1ed3f8bc378c0e2dc3e1d60f76fd7bfe66dbd0d65595d393f1a61ce2eec164736f6c63430008160033",
          "opcodes": "PUSH1 0x80 PUSH1 0x40 MSTORE PUSH1 0x1 PUSH1 0x0 SSTORE PUSH1 0x1 DUP1 SSTORE CALLVALUE DUP1 ISZERO PUSH2 0x19 JUMPI PUSH1 0x0 DUP1 REVERT JUMPDEST POP PUSH1 0x2 DUP1 SLOAD PUSH1 0x1 PUSH1 0x1 PUSH1 0xA0 SHL SUB NOT AND CALLER OR SWAP1 SSTORE PUSH2 0x2D1E DUP1 PUSH2 0x3B PUSH1 0x0 CODECOPY PUSH1 0x0 RETURN INVALID PUSH1 0x80 PUSH1 0x40 MSTORE PUSH1 0x4 CALLDATASIZE LT PUSH2 0xDD JUMPI PUSH1 0x0 CALLDATALOAD PUSH1 0xE0 SHR DUP1 PUSH4 0x5EAECD12 GT PUSH2 0x7F JUMPI DUP1 PUSH4 0x8799BD74 GT PUSH2 0x59 JUMPI DUP1 PUSH4 0x8799BD74 EQ PUSH2 0x26E JUMPI DUP1 PUSH4 0x893D20E8 EQ PUSH2 0x28E JUMPI DUP1 PUSH4 0xAA7E5683 EQ PUSH2 0x2B6 JUMPI DUP1 PUSH4 0xD4AB873E EQ PUSH2 0x2C9 JUMPI PUSH1 0x0 DUP1 REVERT JUMPDEST DUP1 PUSH4 0x5EAECD12 EQ PUSH2 0x201 JUMPI DUP1 PUSH4 0x60C736CD EQ PUSH2 0x22E JUMPI DUP1 PUSH4 0x70480275 EQ PUSH2 0x24E JUMPI PUSH1 0x0 DUP1 REVERT JUMPDEST DUP1 PUSH4 0x23EDF697 GT PUSH2 0xBB JUMPI DUP1 PUSH4 0x23EDF697 EQ PUSH2 0x167 JUMPI DUP1 PUSH4 0x2893ECA2 EQ PUSH2 0x194 JUMPI DUP1 PUSH4 0x38ABAFA0 EQ PUSH2 0x1C1 JUMPI DUP1 PUSH4 0x413CF029 EQ PUSH2 0x1E1 JUMPI PUSH1 0x0 DUP1 REVERT JUMPDEST DUP1 PUSH4 0x51CB30D EQ PUSH2 0xE2 JUMPI DUP1 PUSH4 0x87F44FD EQ PUSH2 0x118 JUMPI DUP1 PUSH4 0x210E07DF EQ PUSH2 0x145 JUMPI JUMPDEST PUSH1 0x0 DUP1 REVERT JUMPDEST CALLVALUE DUP1 ISZERO PUSH2 0xEE JUMPI PUSH1 0x0 DUP1 REVERT JUMPDEST POP PUSH2 0x102 PUSH2 0xFD CALLDATASIZE PUSH1 0x4 PUSH2 0x2335 JUMP JUMPDEST PUSH2 0x2E9 JUMP JUMPDEST PUSH1 0x40 MLOAD PUSH2 0x10F SWAP2 SWAP1 PUSH2 0x234E JUMP JUMPDEST PUSH1 0x40 MLOAD DUP1 SWAP2 SUB SWAP1 RETURN JUMPDEST CALLVALUE DUP1 ISZERO PUSH2 0x124 JUMPI PUSH1 0x0 DUP1 REVERT JUMPDEST POP PUSH2 0x138 PUSH2 0x133 CALLDATASIZE PUSH1 0x4 PUSH2 0x2392 JUMP JUMPDEST PUSH2 0x3A9 JUMP JUMPDEST PUSH1 0x40 MLOAD PUSH2 0x10F SWAP2 SWAP1 PUSH2 0x2412 JUMP JUMPDEST CALLVALUE DUP1 ISZERO PUSH2 0x151 JUMPI PUSH1 0x0 DUP1 REVERT JUMPDEST POP PUSH2 0x165 PUSH2 0x160 CALLDATASIZE PUSH1 0x4 PUSH2 0x24B3 JUMP JUMPDEST PUSH2 0x44B JUMP JUMPDEST STOP JUMPDEST CALLVALUE DUP1 ISZERO PUSH2 0x173 JUMPI PUSH1 0x0 DUP1 REVERT JUMPDEST POP PUSH2 0x187 PUSH2 0x182 CALLDATASIZE PUSH1 0x4 PUSH2 0x2335 JUMP JUMPDEST PUSH2 0x65A JUMP JUMPDEST PUSH1 0x40 MLOAD PUSH2 0x10F SWAP2 SWAP1 PUSH2 0x25B0 JUMP JUMPDEST CALLVALUE DUP1 ISZERO PUSH2 0x1A0 JUMPI PUSH1 0x0 DUP1 REVERT JUMPDEST POP PUSH2 0x1B4 PUSH2 0x1AF CALLDATASIZE PUSH1 0x4 PUSH2 0x2335 JUMP JUMPDEST PUSH2 0x8A7 JUMP JUMPDEST PUSH1 0x40 MLOAD PUSH2 0x10F SWAP2 SWAP1 PUSH2 0x2749 JUMP JUMPDEST CALLVALUE DUP1 ISZERO PUSH2 0x1CD JUMPI PUSH1 0x0 DUP1 REVERT JUMPDEST POP PUSH2 0x165 PUSH2 0x1DC CALLDATASIZE PUSH1 0x4 PUSH2 0x275C JUMP JUMPDEST PUSH2 0xCAC JUMP JUMPDEST CALLVALUE DUP1 ISZERO PUSH2 0x1ED JUMPI PUSH1 0x0 DUP1 REVERT JUMPDEST POP PUSH2 0x165 PUSH2 0x1FC CALLDATASIZE PUSH1 0x4 PUSH2 0x2335 JUMP JUMPDEST PUSH2 0xDA5 JUMP JUMPDEST CALLVALUE DUP1 ISZERO PUSH2 0x20D JUMPI PUSH1 0x0 DUP1 REVERT JUMPDEST POP PUSH2 0x221 PUSH2 0x21C CALLDATASIZE PUSH1 0x4 PUSH2 0x285F JUMP JUMPDEST PUSH2 0xEEC JUMP JUMPDEST PUSH1 0x40 MLOAD PUSH2 0x10F SWAP2 SWAP1 PUSH2 0x289C JUMP JUMPDEST CALLVALUE DUP1 ISZERO PUSH2 0x23A JUMPI PUSH1 0x0 DUP1 REVERT JUMPDEST POP PUSH2 0x165 PUSH2 0x249 CALLDATASIZE PUSH1 0x4 PUSH2 0x2900 JUMP JUMPDEST PUSH2 0x14BF JUMP JUMPDEST CALLVALUE DUP1 ISZERO PUSH2 0x25A JUMPI PUSH1 0x0 DUP1 REVERT JUMPDEST POP PUSH2 0x165 PUSH2 0x269 CALLDATASIZE PUSH1 0x4 PUSH2 0x2392 JUMP JUMPDEST PUSH2 0x1594 JUMP JUMPDEST CALLVALUE DUP1 ISZERO PUSH2 0x27A JUMPI PUSH1 0x0 DUP1 REVERT JUMPDEST POP PUSH2 0x221 PUSH2 0x289 CALLDATASIZE PUSH1 0x4 PUSH2 0x2335 JUMP JUMPDEST PUSH2 0x1633 JUMP JUMPDEST CALLVALUE DUP1 ISZERO PUSH2 0x29A JUMPI PUSH1 0x0 DUP1 REVERT JUMPDEST POP PUSH1 0x2 SLOAD PUSH1 0x40 MLOAD PUSH1 0x1 PUSH1 0x1 PUSH1 0xA0 SHL SUB SWAP1 SWAP2 AND DUP2 MSTORE PUSH1 0x20 ADD PUSH2 0x10F JUMP JUMPDEST PUSH2 0x165 PUSH2 0x2C4 CALLDATASIZE PUSH1 0x4 PUSH2 0x2942 JUMP JUMPDEST PUSH2 0x1A9E JUMP JUMPDEST CALLVALUE DUP1 ISZERO PUSH2 0x2D5 JUMPI PUSH1 0x0 DUP1 REVERT JUMPDEST POP PUSH2 0x165 PUSH2 0x2E4 CALLDATASIZE PUSH1 0x4 PUSH2 0x2335 JUMP JUMPDEST PUSH2 0x1F8D JUMP JUMPDEST PUSH1 0x0 DUP2 DUP2 MSTORE PUSH1 0x7 PUSH1 0x20 MSTORE PUSH1 0x40 SWAP1 KECCAK256 SLOAD PUSH1 0x60 SWAP1 PUSH1 0x1 PUSH1 0x1 PUSH1 0xA0 SHL SUB AND PUSH2 0x349 JUMPI PUSH1 0x40 MLOAD PUSH3 0x461BCD PUSH1 0xE5 SHL DUP2 MSTORE PUSH1 0x20 PUSH1 0x4 DUP3 ADD MSTORE PUSH1 0x11 PUSH1 0x24 DUP3 ADD MSTORE PUSH17 0x2B34B232B79036BAB9BA1032BC34B9BA17 PUSH1 0x79 SHL PUSH1 0x44 DUP3 ADD MSTORE PUSH1 0x64 ADD JUMPDEST PUSH1 0x40 MLOAD DUP1 SWAP2 SUB SWAP1 REVERT JUMPDEST PUSH1 0x0 DUP3 DUP2 MSTORE PUSH1 0xB PUSH1 0x20 SWAP1 DUP2 MSTORE PUSH1 0x40 SWAP2 DUP3 SWAP1 KECCAK256 DUP1 SLOAD DUP4 MLOAD DUP2 DUP5 MUL DUP2 ADD DUP5 ADD SWAP1 SWAP5 MSTORE DUP1 DUP5 MSTORE SWAP1 SWAP2 DUP4 ADD DUP3 DUP3 DUP1 ISZERO PUSH2 0x39D JUMPI PUSH1 0x20 MUL DUP3 ADD SWAP2 SWAP1 PUSH1 0x0 MSTORE PUSH1 0x20 PUSH1 0x0 KECCAK256 SWAP1 JUMPDEST DUP2 SLOAD DUP2 MSTORE PUSH1 0x20 ADD SWAP1 PUSH1 0x1 ADD SWAP1 DUP1 DUP4 GT PUSH2 0x389 JUMPI JUMPDEST POP POP POP POP POP SWAP1 POP SWAP2 SWAP1 POP JUMP JUMPDEST PUSH1 0x1 PUSH1 0x1 PUSH1 0xA0 SHL SUB DUP2 AND PUSH1 0x0 SWAP1 DUP2 MSTORE PUSH1 0x3 PUSH1 0x20 MSTORE PUSH1 0x40 SWAP1 KECCAK256 DUP1 SLOAD PUSH1 0x60 SWAP2 SWAP1 PUSH2 0x3D0 SWAP1 PUSH2 0x2981 JUMP JUMPDEST DUP1 PUSH1 0x1F ADD PUSH1 0x20 DUP1 SWAP2 DIV MUL PUSH1 0x20 ADD PUSH1 0x40 MLOAD SWAP1 DUP2 ADD PUSH1 0x40 MSTORE DUP1 SWAP3 SWAP2 SWAP1 DUP2 DUP2 MSTORE PUSH1 0x20 ADD DUP3 DUP1 SLOAD PUSH2 0x3FC SWAP1 PUSH2 0x2981 JUMP JUMPDEST DUP1 ISZERO PUSH2 0x39D JUMPI DUP1 PUSH1 0x1F LT PUSH2 0x41E JUMPI PUSH2 0x100 DUP1 DUP4 SLOAD DIV MUL DUP4 MSTORE SWAP2 PUSH1 0x20 ADD SWAP2 PUSH2 0x39D JUMP JUMPDEST DUP3 ADD SWAP2 SWAP1 PUSH1 0x0 MSTORE PUSH1 0x20 PUSH1 0x0 KECCAK256 SWAP1 JUMPDEST DUP2 SLOAD DUP2 MSTORE SWAP1 PUSH1 0x1 ADD SWAP1 PUSH1 0x20 ADD DUP1 DUP4 GT PUSH2 0x42C JUMPI POP SWAP4 SWAP7 SWAP6 POP POP POP POP POP POP JUMP JUMPDEST PUSH1 0x0 DUP1 SLOAD DUP2 DUP1 PUSH2 0x45A DUP4 PUSH2 0x29D1 JUMP JUMPDEST SWAP2 SWAP1 POP SSTORE SWAP1 POP PUSH1 0x40 MLOAD DUP1 PUSH2 0x100 ADD PUSH1 0x40 MSTORE DUP1 DUP3 DUP2 MSTORE PUSH1 0x20 ADD DUP14 DUP14 DUP1 DUP1 PUSH1 0x1F ADD PUSH1 0x20 DUP1 SWAP2 DIV MUL PUSH1 0x20 ADD PUSH1 0x40 MLOAD SWAP1 DUP2 ADD PUSH1 0x40 MSTORE DUP1 SWAP4 SWAP3 SWAP2 SWAP1 DUP2 DUP2 MSTORE PUSH1 0x20 ADD DUP4 DUP4 DUP1 DUP3 DUP5 CALLDATACOPY PUSH1 0x0 SWAP3 ADD SWAP2 SWAP1 SWAP2 MSTORE POP POP POP SWAP1 DUP3 MSTORE POP PUSH1 0x40 DUP1 MLOAD PUSH1 0x20 PUSH1 0x1F DUP15 ADD DUP2 SWAP1 DIV DUP2 MUL DUP3 ADD DUP2 ADD SWAP1 SWAP3 MSTORE DUP13 DUP2 MSTORE SWAP2 DUP2 ADD SWAP2 SWAP1 DUP14 SWAP1 DUP14 SWAP1 DUP2 SWAP1 DUP5 ADD DUP4 DUP3 DUP1 DUP3 DUP5 CALLDATACOPY PUSH1 0x0 SWAP3 ADD SWAP2 SWAP1 SWAP2 MSTORE POP POP POP SWAP1 DUP3 MSTORE POP PUSH1 0x40 DUP1 MLOAD PUSH1 0x20 PUSH1 0x1F DUP13 ADD DUP2 SWAP1 DIV DUP2 MUL DUP3 ADD DUP2 ADD SWAP1 SWAP3 MSTORE DUP11 DUP2 MSTORE SWAP2 DUP2 ADD SWAP2 SWAP1 DUP12 SWAP1 DUP12 SWAP1 DUP2 SWAP1 DUP5 ADD DUP4 DUP3 DUP1 DUP3 DUP5 CALLDATACOPY PUSH1 0x0 SWAP3 ADD SWAP2 SWAP1 SWAP2 MSTORE POP POP POP SWAP1 DUP3 MSTORE POP PUSH1 0x40 DUP1 MLOAD PUSH1 0x20 PUSH1 0x1F DUP11 ADD DUP2 SWAP1 DIV DUP2 MUL DUP3 ADD DUP2 ADD SWAP1 SWAP3 MSTORE DUP9 DUP2 MSTORE SWAP2 DUP2 ADD SWAP2 SWAP1 DUP10 SWAP1 DUP10 SWAP1 DUP2 SWAP1 DUP5 ADD DUP4 DUP3 DUP1 DUP3 DUP5 CALLDATACOPY PUSH1 0x0 SWAP3 ADD SWAP2 SWAP1 SWAP2 MSTORE POP POP POP SWAP1 DUP3 MSTORE POP PUSH1 0x20 ADD PUSH2 0x569 DUP5 DUP7 PUSH2 0x29EA JUMP JUMPDEST DUP2 MSTORE PUSH1 0x20 DUP1 DUP3 ADD DUP8 SWAP1 MSTORE TIMESTAMP PUSH1 0x40 SWAP3 DUP4 ADD MSTORE PUSH1 0x0 DUP5 DUP2 MSTORE PUSH1 0x8 DUP3 MSTORE SWAP2 SWAP1 SWAP2 KECCAK256 DUP3 MLOAD DUP2 SSTORE SWAP1 DUP3 ADD MLOAD PUSH1 0x1 DUP3 ADD SWAP1 PUSH2 0x59E SWAP1 DUP3 PUSH2 0x2AC0 JUMP JUMPDEST POP PUSH1 0x40 DUP3 ADD MLOAD PUSH1 0x2 DUP3 ADD SWAP1 PUSH2 0x5B3 SWAP1 DUP3 PUSH2 0x2AC0 JUMP JUMPDEST POP PUSH1 0x60 DUP3 ADD MLOAD PUSH1 0x3 DUP3 ADD SWAP1 PUSH2 0x5C8 SWAP1 DUP3 PUSH2 0x2AC0 JUMP JUMPDEST POP PUSH1 0x80 DUP3 ADD MLOAD PUSH1 0x4 DUP3 ADD SWAP1 PUSH2 0x5DD SWAP1 DUP3 PUSH2 0x2AC0 JUMP JUMPDEST POP PUSH1 0xA0 DUP3 ADD MLOAD DUP1 MLOAD PUSH2 0x5F9 SWAP2 PUSH1 0x5 DUP5 ADD SWAP2 PUSH1 0x20 SWAP1 SWAP2 ADD SWAP1 PUSH2 0x2278 JUMP JUMPDEST POP PUSH1 0xC0 DUP3 ADD MLOAD PUSH1 0x6 DUP1 DUP4 ADD SWAP2 SWAP1 SWAP2 SSTORE PUSH1 0xE0 SWAP1 SWAP3 ADD MLOAD PUSH1 0x7 SWAP2 DUP3 ADD SSTORE PUSH1 0x0 DUP4 DUP2 MSTORE PUSH1 0x20 SWAP2 DUP3 MSTORE PUSH1 0x40 DUP1 DUP3 KECCAK256 DUP1 SLOAD PUSH1 0x1 PUSH1 0x1 PUSH1 0xA0 SHL SUB NOT AND CALLER SWAP1 DUP2 OR SWAP1 SWAP2 SSTORE DUP3 MSTORE SWAP3 DUP3 MSTORE SWAP2 DUP3 KECCAK256 DUP1 SLOAD PUSH1 0x1 DUP2 ADD DUP3 SSTORE SWAP1 DUP4 MSTORE SWAP2 KECCAK256 ADD SSTORE POP POP POP POP POP POP POP POP POP POP POP JUMP JUMPDEST PUSH1 0x0 DUP2 DUP2 MSTORE PUSH1 0x7 PUSH1 0x20 MSTORE PUSH1 0x40 SWAP1 KECCAK256 SLOAD PUSH1 0x60 SWAP1 PUSH1 0x1 PUSH1 0x1 PUSH1 0xA0 SHL SUB AND PUSH2 0x6B5 JUMPI PUSH1 0x40 MLOAD PUSH3 0x461BCD PUSH1 0xE5 SHL DUP2 MSTORE PUSH1 0x20 PUSH1 0x4 DUP3 ADD MSTORE PUSH1 0x11 PUSH1 0x24 DUP3 ADD MSTORE PUSH17 0x2B34B232B79036BAB9BA1032BC34B9BA17 PUSH1 0x79 SHL PUSH1 0x44 DUP3 ADD MSTORE PUSH1 0x64 ADD PUSH2 0x340 JUMP JUMPDEST PUSH1 0x0 DUP3 DUP2 MSTORE PUSH1 0x9 PUSH1 0x20 MSTORE PUSH1 0x40 DUP2 KECCAK256 SLOAD PUSH8 0xFFFFFFFFFFFFFFFF DUP2 GT ISZERO PUSH2 0x6DC JUMPI PUSH2 0x6DC PUSH2 0x27A8 JUMP JUMPDEST PUSH1 0x40 MLOAD SWAP1 DUP1 DUP3 MSTORE DUP1 PUSH1 0x20 MUL PUSH1 0x20 ADD DUP3 ADD PUSH1 0x40 MSTORE DUP1 ISZERO PUSH2 0x741 JUMPI DUP2 PUSH1 0x20 ADD JUMPDEST PUSH2 0x72E PUSH1 0x40 MLOAD DUP1 PUSH1 0x80 ADD PUSH1 0x40 MSTORE DUP1 PUSH1 0x0 PUSH1 0x1 PUSH1 0x1 PUSH1 0xA0 SHL SUB AND DUP2 MSTORE PUSH1 0x20 ADD PUSH1 0x60 DUP2 MSTORE PUSH1 0x20 ADD PUSH1 0x0 DUP2 MSTORE PUSH1 0x20 ADD PUSH1 0x0 DUP2 MSTORE POP SWAP1 JUMP JUMPDEST DUP2 MSTORE PUSH1 0x20 ADD SWAP1 PUSH1 0x1 SWAP1 SUB SWAP1 DUP2 PUSH2 0x6FA JUMPI SWAP1 POP JUMPDEST POP SWAP1 POP PUSH1 0x0 JUMPDEST PUSH1 0x0 DUP5 DUP2 MSTORE PUSH1 0x9 PUSH1 0x20 MSTORE PUSH1 0x40 SWAP1 KECCAK256 SLOAD DUP2 LT ISZERO PUSH2 0x8A0 JUMPI PUSH1 0x0 DUP5 DUP2 MSTORE PUSH1 0x9 PUSH1 0x20 MSTORE PUSH1 0x40 DUP2 KECCAK256 DUP1 SLOAD PUSH1 0xA SWAP3 SWAP2 SWAP1 DUP5 SWAP1 DUP2 LT PUSH2 0x782 JUMPI PUSH2 0x782 PUSH2 0x2B80 JUMP JUMPDEST SWAP1 PUSH1 0x0 MSTORE PUSH1 0x20 PUSH1 0x0 KECCAK256 ADD SLOAD DUP2 MSTORE PUSH1 0x20 ADD SWAP1 DUP2 MSTORE PUSH1 0x20 ADD PUSH1 0x0 KECCAK256 PUSH1 0x40 MLOAD DUP1 PUSH1 0x80 ADD PUSH1 0x40 MSTORE SWAP1 DUP2 PUSH1 0x0 DUP3 ADD PUSH1 0x0 SWAP1 SLOAD SWAP1 PUSH2 0x100 EXP SWAP1 DIV PUSH1 0x1 PUSH1 0x1 PUSH1 0xA0 SHL SUB AND PUSH1 0x1 PUSH1 0x1 PUSH1 0xA0 SHL SUB AND PUSH1 0x1 PUSH1 0x1 PUSH1 0xA0 SHL SUB AND DUP2 MSTORE PUSH1 0x20 ADD PUSH1 0x1 DUP3 ADD DUP1 SLOAD PUSH2 0x7E5 SWAP1 PUSH2 0x2981 JUMP JUMPDEST DUP1 PUSH1 0x1F ADD PUSH1 0x20 DUP1 SWAP2 DIV MUL PUSH1 0x20 ADD PUSH1 0x40 MLOAD SWAP1 DUP2 ADD PUSH1 0x40 MSTORE DUP1 SWAP3 SWAP2 SWAP1 DUP2 DUP2 MSTORE PUSH1 0x20 ADD DUP3 DUP1 SLOAD PUSH2 0x811 SWAP1 PUSH2 0x2981 JUMP JUMPDEST DUP1 ISZERO PUSH2 0x85E JUMPI DUP1 PUSH1 0x1F LT PUSH2 0x833 JUMPI PUSH2 0x100 DUP1 DUP4 SLOAD DIV MUL DUP4 MSTORE SWAP2 PUSH1 0x20 ADD SWAP2 PUSH2 0x85E JUMP JUMPDEST DUP3 ADD SWAP2 SWAP1 PUSH1 0x0 MSTORE PUSH1 0x20 PUSH1 0x0 KECCAK256 SWAP1 JUMPDEST DUP2 SLOAD DUP2 MSTORE SWAP1 PUSH1 0x1 ADD SWAP1 PUSH1 0x20 ADD DUP1 DUP4 GT PUSH2 0x841 JUMPI DUP3 SWAP1 SUB PUSH1 0x1F AND DUP3 ADD SWAP2 JUMPDEST POP POP POP POP POP DUP2 MSTORE PUSH1 0x20 ADD PUSH1 0x2 DUP3 ADD SLOAD DUP2 MSTORE PUSH1 0x20 ADD PUSH1 0x3 DUP3 ADD SLOAD DUP2 MSTORE POP POP DUP3 DUP3 DUP2 MLOAD DUP2 LT PUSH2 0x88D JUMPI PUSH2 0x88D PUSH2 0x2B80 JUMP JUMPDEST PUSH1 0x20 SWAP1 DUP2 MUL SWAP2 SWAP1 SWAP2 ADD ADD MSTORE PUSH1 0x1 ADD PUSH2 0x747 JUMP JUMPDEST POP SWAP3 SWAP2 POP POP JUMP JUMPDEST PUSH2 0x8EF PUSH1 0x40 MLOAD DUP1 PUSH2 0x100 ADD PUSH1 0x40 MSTORE DUP1 PUSH1 0x0 DUP2 MSTORE PUSH1 0x20 ADD PUSH1 0x60 DUP2 MSTORE PUSH1 0x20 ADD PUSH1 0x60 DUP2 MSTORE PUSH1 0x20 ADD PUSH1 0x60 DUP2 MSTORE PUSH1 0x20 ADD PUSH1 0x60 DUP2 MSTORE PUSH1 0x20 ADD PUSH1 0x60 DUP2 MSTORE PUSH1 0x20 ADD PUSH1 0x0 DUP2 MSTORE PUSH1 0x20 ADD PUSH1 0x0 DUP2 MSTORE POP SWAP1 JUMP JUMPDEST PUSH1 0x0 DUP3 DUP2 MSTORE PUSH1 0x7 PUSH1 0x20 MSTORE PUSH1 0x40 SWAP1 KECCAK256 SLOAD PUSH1 0x1 PUSH1 0x1 PUSH1 0xA0 SHL SUB AND PUSH2 0x947 JUMPI PUSH1 0x40 MLOAD PUSH3 0x461BCD PUSH1 0xE5 SHL DUP2 MSTORE PUSH1 0x20 PUSH1 0x4 DUP3 ADD MSTORE PUSH1 0x11 PUSH1 0x24 DUP3 ADD MSTORE PUSH17 0x2B34B232B79036BAB9BA1032BC34B9BA17 PUSH1 0x79 SHL PUSH1 0x44 DUP3 ADD MSTORE PUSH1 0x64 ADD PUSH2 0x340 JUMP JUMPDEST PUSH1 0x8 PUSH1 0x0 DUP4 DUP2 MSTORE PUSH1 0x20 ADD SWAP1 DUP2 MSTORE PUSH1 0x20 ADD PUSH1 0x0 KECCAK256 PUSH1 0x40 MLOAD DUP1 PUSH2 0x100 ADD PUSH1 0x40 MSTORE SWAP1 DUP2 PUSH1 0x0 DUP3 ADD SLOAD DUP2 MSTORE PUSH1 0x20 ADD PUSH1 0x1 DUP3 ADD DUP1 SLOAD PUSH2 0x980 SWAP1 PUSH2 0x2981 JUMP JUMPDEST DUP1 PUSH1 0x1F ADD PUSH1 0x20 DUP1 SWAP2 DIV MUL PUSH1 0x20 ADD PUSH1 0x40 MLOAD SWAP1 DUP2 ADD PUSH1 0x40 MSTORE DUP1 SWAP3 SWAP2 SWAP1 DUP2 DUP2 MSTORE PUSH1 0x20 ADD DUP3 DUP1 SLOAD PUSH2 0x9AC SWAP1 PUSH2 0x2981 JUMP JUMPDEST DUP1 ISZERO PUSH2 0x9F9 JUMPI DUP1 PUSH1 0x1F LT PUSH2 0x9CE JUMPI PUSH2 0x100 DUP1 DUP4 SLOAD DIV MUL DUP4 MSTORE SWAP2 PUSH1 0x20 ADD SWAP2 PUSH2 0x9F9 JUMP JUMPDEST DUP3 ADD SWAP2 SWAP1 PUSH1 0x0 MSTORE PUSH1 0x20 PUSH1 0x0 KECCAK256 SWAP1 JUMPDEST DUP2 SLOAD DUP2 MSTORE SWAP1 PUSH1 0x1 ADD SWAP1 PUSH1 0x20 ADD DUP1 DUP4 GT PUSH2 0x9DC JUMPI DUP3 SWAP1 SUB PUSH1 0x1F AND DUP3 ADD SWAP2 JUMPDEST POP POP POP POP POP DUP2 MSTORE PUSH1 0x20 ADD PUSH1 0x2 DUP3 ADD DUP1 SLOAD PUSH2 0xA12 SWAP1 PUSH2 0x2981 JUMP JUMPDEST DUP1 PUSH1 0x1F ADD PUSH1 0x20 DUP1 SWAP2 DIV MUL PUSH1 0x20 ADD PUSH1 0x40 MLOAD SWAP1 DUP2 ADD PUSH1 0x40 MSTORE DUP1 SWAP3 SWAP2 SWAP1 DUP2 DUP2 MSTORE PUSH1 0x20 ADD DUP3 DUP1 SLOAD PUSH2 0xA3E SWAP1 PUSH2 0x2981 JUMP JUMPDEST DUP1 ISZERO PUSH2 0xA8B JUMPI DUP1 PUSH1 0x1F LT PUSH2 0xA60 JUMPI PUSH2 0x100 DUP1 DUP4 SLOAD DIV MUL DUP4 MSTORE SWAP2 PUSH1 0x20 ADD SWAP2 PUSH2 0xA8B JUMP JUMPDEST DUP3 ADD SWAP2 SWAP1 PUSH1 0x0 MSTORE PUSH1 0x20 PUSH1 0x0 KECCAK256 SWAP1 JUMPDEST DUP2 SLOAD DUP2 MSTORE SWAP1 PUSH1 0x1 ADD SWAP1 PUSH1 0x20 ADD DUP1 DUP4 GT PUSH2 0xA6E JUMPI DUP3 SWAP1 SUB PUSH1 0x1F AND DUP3 ADD SWAP2 JUMPDEST POP POP POP POP POP DUP2 MSTORE PUSH1 0x20 ADD PUSH1 0x3 DUP3 ADD DUP1 SLOAD PUSH2 0xAA4 SWAP1 PUSH2 0x2981 JUMP JUMPDEST DUP1 PUSH1 0x1F ADD PUSH1 0x20 DUP1 SWAP2 DIV MUL PUSH1 0x20 ADD PUSH1 0x40 MLOAD SWAP1 DUP2 ADD PUSH1 0x40 MSTORE DUP1 SWAP3 SWAP2 SWAP1 DUP2 DUP2 MSTORE PUSH1 0x20 ADD DUP3 DUP1 SLOAD PUSH2 0xAD0 SWAP1 PUSH2 0x2981 JUMP JUMPDEST DUP1 ISZERO PUSH2 0xB1D JUMPI DUP1 PUSH1 0x1F LT PUSH2 0xAF2 JUMPI PUSH2 0x100 DUP1 DUP4 SLOAD DIV MUL DUP4 MSTORE SWAP2 PUSH1 0x20 ADD SWAP2 PUSH2 0xB1D JUMP JUMPDEST DUP3 ADD SWAP2 SWAP1 PUSH1 0x0 MSTORE PUSH1 0x20 PUSH1 0x0 KECCAK256 SWAP1 JUMPDEST DUP2 SLOAD DUP2 MSTORE SWAP1 PUSH1 0x1 ADD SWAP1 PUSH1 0x20 ADD DUP1 DUP4 GT PUSH2 0xB00 JUMPI DUP3 SWAP1 SUB PUSH1 0x1F AND DUP3 ADD SWAP2 JUMPDEST POP POP POP POP POP DUP2 MSTORE PUSH1 0x20 ADD PUSH1 0x4 DUP3 ADD DUP1 SLOAD PUSH2 0xB36 SWAP1 PUSH2 0x2981 JUMP JUMPDEST DUP1 PUSH1 0x1F ADD PUSH1 0x20 DUP1 SWAP2 DIV MUL PUSH1 0x20 ADD PUSH1 0x40 MLOAD SWAP1 DUP2 ADD PUSH1 0x40 MSTORE DUP1 SWAP3 SWAP2 SWAP1 DUP2 DUP2 MSTORE PUSH1 0x20 ADD DUP3 DUP1 SLOAD PUSH2 0xB62 SWAP1 PUSH2 0x2981 JUMP JUMPDEST DUP1 ISZERO PUSH2 0xBAF JUMPI DUP1 PUSH1 0x1F LT PUSH2 0xB84 JUMPI PUSH2 0x100 DUP1 DUP4 SLOAD DIV MUL DUP4 MSTORE SWAP2 PUSH1 0x20 ADD SWAP2 PUSH2 0xBAF JUMP JUMPDEST DUP3 ADD SWAP2 SWAP1 PUSH1 0x0 MSTORE PUSH1 0x20 PUSH1 0x0 KECCAK256 SWAP1 JUMPDEST DUP2 SLOAD DUP2 MSTORE SWAP1 PUSH1 0x1 ADD SWAP1 PUSH1 0x20 ADD DUP1 DUP4 GT PUSH2 0xB92 JUMPI DUP3 SWAP1 SUB PUSH1 0x1F AND DUP3 ADD SWAP2 JUMPDEST POP POP POP POP POP DUP2 MSTORE PUSH1 0x20 ADD PUSH1 0x5 DUP3 ADD DUP1 SLOAD DUP1 PUSH1 0x20 MUL PUSH1 0x20 ADD PUSH1 0x40 MLOAD SWAP1 DUP2 ADD PUSH1 0x40 MSTORE DUP1 SWAP3 SWAP2 SWAP1 DUP2 DUP2 MSTORE PUSH1 0x20 ADD PUSH1 0x0 SWAP1 JUMPDEST DUP3 DUP3 LT ISZERO PUSH2 0xC89 JUMPI DUP4 DUP3 SWAP1 PUSH1 0x0 MSTORE PUSH1 0x20 PUSH1 0x0 KECCAK256 ADD DUP1 SLOAD PUSH2 0xBFC SWAP1 PUSH2 0x2981 JUMP JUMPDEST DUP1 PUSH1 0x1F ADD PUSH1 0x20 DUP1 SWAP2 DIV MUL PUSH1 0x20 ADD PUSH1 0x40 MLOAD SWAP1 DUP2 ADD PUSH1 0x40 MSTORE DUP1 SWAP3 SWAP2 SWAP1 DUP2 DUP2 MSTORE PUSH1 0x20 ADD DUP3 DUP1 SLOAD PUSH2 0xC28 SWAP1 PUSH2 0x2981 JUMP JUMPDEST DUP1 ISZERO PUSH2 0xC75 JUMPI DUP1 PUSH1 0x1F LT PUSH2 0xC4A JUMPI PUSH2 0x100 DUP1 DUP4 SLOAD DIV MUL DUP4 MSTORE SWAP2 PUSH1 0x20 ADD SWAP2 PUSH2 0xC75 JUMP JUMPDEST DUP3 ADD SWAP2 SWAP1 PUSH1 0x0 MSTORE PUSH1 0x20 PUSH1 0x0 KECCAK256 SWAP1 JUMPDEST DUP2 SLOAD DUP2 MSTORE SWAP1 PUSH1 0x1 ADD SWAP1 PUSH1 0x20 ADD DUP1 DUP4 GT PUSH2 0xC58 JUMPI DUP3 SWAP1 SUB PUSH1 0x1F AND DUP3 ADD SWAP2 JUMPDEST POP POP POP POP POP DUP2 MSTORE PUSH1 0x20 ADD SWAP1 PUSH1 0x1 ADD SWAP1 PUSH2 0xBDD JUMP JUMPDEST POP POP POP POP DUP2 MSTORE PUSH1 0x20 ADD PUSH1 0x6 DUP3 ADD SLOAD DUP2 MSTORE PUSH1 0x20 ADD PUSH1 0x7 DUP3 ADD SLOAD DUP2 MSTORE POP POP SWAP1 POP SWAP2 SWAP1 POP JUMP JUMPDEST PUSH1 0x0 DUP4 DUP2 MSTORE PUSH1 0x7 PUSH1 0x20 MSTORE PUSH1 0x40 SWAP1 KECCAK256 SLOAD PUSH1 0x1 PUSH1 0x1 PUSH1 0xA0 SHL SUB AND CALLER EQ PUSH2 0xD12 JUMPI PUSH1 0x40 MLOAD PUSH3 0x461BCD PUSH1 0xE5 SHL DUP2 MSTORE PUSH1 0x20 PUSH1 0x4 DUP3 ADD MSTORE PUSH1 0x19 PUSH1 0x24 DUP3 ADD MSTORE PUSH32 0x596F7520646F206E6F74206F776E2074686520766964656F2E00000000000000 PUSH1 0x44 DUP3 ADD MSTORE PUSH1 0x64 ADD PUSH2 0x340 JUMP JUMPDEST PUSH1 0x0 DUP4 DUP2 MSTORE PUSH1 0x7 PUSH1 0x20 MSTORE PUSH1 0x40 SWAP1 KECCAK256 SLOAD PUSH1 0x1 PUSH1 0x1 PUSH1 0xA0 SHL SUB AND PUSH2 0xD6A JUMPI PUSH1 0x40 MLOAD PUSH3 0x461BCD PUSH1 0xE5 SHL DUP2 MSTORE PUSH1 0x20 PUSH1 0x4 DUP3 ADD MSTORE PUSH1 0x11 PUSH1 0x24 DUP3 ADD MSTORE PUSH17 0x2B34B232B79036BAB9BA1032BC34B9BA17 PUSH1 0x79 SHL PUSH1 0x44 DUP3 ADD MSTORE PUSH1 0x64 ADD PUSH2 0x340 JUMP JUMPDEST PUSH1 0x0 JUMPDEST DUP2 DUP2 LT ISZERO PUSH2 0xD9F JUMPI PUSH2 0xD97 DUP5 DUP5 DUP5 DUP5 DUP2 DUP2 LT PUSH2 0xD8B JUMPI PUSH2 0xD8B PUSH2 0x2B80 JUMP JUMPDEST SWAP1 POP PUSH1 0x20 MUL ADD CALLDATALOAD PUSH2 0x2057 JUMP JUMPDEST PUSH1 0x1 ADD PUSH2 0xD6D JUMP JUMPDEST POP POP POP POP JUMP JUMPDEST PUSH1 0x0 DUP1 JUMPDEST PUSH1 0x40 MLOAD PUSH5 0x30B236B4B7 PUSH1 0xD9 SHL DUP2 MSTORE PUSH1 0xD SWAP1 PUSH1 0x5 ADD SWAP1 DUP2 MSTORE PUSH1 0x40 MLOAD SWAP1 DUP2 SWAP1 SUB PUSH1 0x20 ADD SWAP1 KECCAK256 SLOAD DUP2 LT ISZERO PUSH2 0xE33 JUMPI PUSH1 0x40 MLOAD PUSH5 0x30B236B4B7 PUSH1 0xD9 SHL DUP2 MSTORE PUSH1 0xD SWAP1 PUSH1 0x5 ADD SWAP1 DUP2 MSTORE PUSH1 0x20 ADD PUSH1 0x40 MLOAD DUP1 SWAP2 SUB SWAP1 KECCAK256 DUP2 DUP2 SLOAD DUP2 LT PUSH2 0xE07 JUMPI PUSH2 0xE07 PUSH2 0x2B80 JUMP JUMPDEST PUSH1 0x0 SWAP2 DUP3 MSTORE PUSH1 0x20 SWAP1 SWAP2 KECCAK256 ADD SLOAD PUSH1 0x1 PUSH1 0x1 PUSH1 0xA0 SHL SUB AND CALLER SUB PUSH2 0xE2B JUMPI PUSH1 0x1 SWAP2 POP PUSH2 0xE33 JUMP JUMPDEST PUSH1 0x1 ADD PUSH2 0xDA9 JUMP JUMPDEST POP PUSH1 0x2 SLOAD PUSH1 0x1 PUSH1 0x1 PUSH1 0xA0 SHL SUB AND CALLER SUB PUSH2 0xE4A JUMPI POP PUSH1 0x1 JUMPDEST DUP1 PUSH2 0xE87 JUMPI PUSH1 0x40 MLOAD PUSH3 0x461BCD PUSH1 0xE5 SHL DUP2 MSTORE PUSH1 0x20 PUSH1 0x4 DUP3 ADD MSTORE PUSH1 0xD PUSH1 0x24 DUP3 ADD MSTORE PUSH13 0x1058D8D95CDCC811195B9A5959 PUSH1 0x9A SHL PUSH1 0x44 DUP3 ADD MSTORE PUSH1 0x64 ADD PUSH2 0x340 JUMP JUMPDEST PUSH1 0x0 DUP3 DUP2 MSTORE PUSH1 0x7 PUSH1 0x20 MSTORE PUSH1 0x40 SWAP1 KECCAK256 SLOAD PUSH1 0x1 PUSH1 0x1 PUSH1 0xA0 SHL SUB AND PUSH2 0xEDF JUMPI PUSH1 0x40 MLOAD PUSH3 0x461BCD PUSH1 0xE5 SHL DUP2 MSTORE PUSH1 0x20 PUSH1 0x4 DUP3 ADD MSTORE PUSH1 0x11 PUSH1 0x24 DUP3 ADD MSTORE PUSH17 0x2B34B232B79036BAB9BA1032BC34B9BA17 PUSH1 0x79 SHL PUSH1 0x44 DUP3 ADD MSTORE PUSH1 0x64 ADD PUSH2 0x340 JUMP JUMPDEST PUSH2 0xEE8 DUP3 PUSH2 0x2117 JUMP JUMPDEST POP POP JUMP JUMPDEST PUSH1 0x60 PUSH1 0x0 DUP1 JUMPDEST PUSH1 0x4 DUP5 PUSH1 0x40 MLOAD PUSH2 0xF02 SWAP2 SWAP1 PUSH2 0x2B96 JUMP JUMPDEST SWAP1 DUP2 MSTORE PUSH1 0x40 MLOAD SWAP1 DUP2 SWAP1 SUB PUSH1 0x20 ADD SWAP1 KECCAK256 SLOAD DUP2 LT ISZERO PUSH2 0xF85 JUMPI PUSH1 0x6 PUSH1 0x0 PUSH1 0x4 DUP7 PUSH1 0x40 MLOAD PUSH2 0xF2D SWAP2 SWAP1 PUSH2 0x2B96 JUMP JUMPDEST SWAP1 DUP2 MSTORE PUSH1 0x20 ADD PUSH1 0x40 MLOAD DUP1 SWAP2 SUB SWAP1 KECCAK256 DUP4 DUP2 SLOAD DUP2 LT PUSH2 0xF4C JUMPI PUSH2 0xF4C PUSH2 0x2B80 JUMP JUMPDEST PUSH1 0x0 SWAP2 DUP3 MSTORE PUSH1 0x20 DUP1 DUP4 KECCAK256 SWAP1 SWAP2 ADD SLOAD PUSH1 0x1 PUSH1 0x1 PUSH1 0xA0 SHL SUB AND DUP4 MSTORE DUP3 ADD SWAP3 SWAP1 SWAP3 MSTORE PUSH1 0x40 ADD SWAP1 KECCAK256 SLOAD PUSH2 0xF7B SWAP1 DUP4 PUSH2 0x2BB2 JUMP JUMPDEST SWAP2 POP PUSH1 0x1 ADD PUSH2 0xEF2 JUMP JUMPDEST POP PUSH1 0x0 DUP2 PUSH8 0xFFFFFFFFFFFFFFFF DUP2 GT ISZERO PUSH2 0xFA1 JUMPI PUSH2 0xFA1 PUSH2 0x27A8 JUMP JUMPDEST PUSH1 0x40 MLOAD SWAP1 DUP1 DUP3 MSTORE DUP1 PUSH1 0x20 MUL PUSH1 0x20 ADD DUP3 ADD PUSH1 0x40 MSTORE DUP1 ISZERO PUSH2 0x101A JUMPI DUP2 PUSH1 0x20 ADD JUMPDEST PUSH2 0x1007 PUSH1 0x40 MLOAD DUP1 PUSH2 0x100 ADD PUSH1 0x40 MSTORE DUP1 PUSH1 0x0 DUP2 MSTORE PUSH1 0x20 ADD PUSH1 0x60 DUP2 MSTORE PUSH1 0x20 ADD PUSH1 0x60 DUP2 MSTORE PUSH1 0x20 ADD PUSH1 0x60 DUP2 MSTORE PUSH1 0x20 ADD PUSH1 0x60 DUP2 MSTORE PUSH1 0x20 ADD PUSH1 0x60 DUP2 MSTORE PUSH1 0x20 ADD PUSH1 0x0 DUP2 MSTORE PUSH1 0x20 ADD PUSH1 0x0 DUP2 MSTORE POP SWAP1 JUMP JUMPDEST DUP2 MSTORE PUSH1 0x20 ADD SWAP1 PUSH1 0x1 SWAP1 SUB SWAP1 DUP2 PUSH2 0xFBF JUMPI SWAP1 POP JUMPDEST POP SWAP1 POP PUSH1 0x0 DUP1 JUMPDEST PUSH1 0x4 DUP7 PUSH1 0x40 MLOAD PUSH2 0x1031 SWAP2 SWAP1 PUSH2 0x2B96 JUMP JUMPDEST SWAP1 DUP2 MSTORE PUSH1 0x40 MLOAD SWAP1 DUP2 SWAP1 SUB PUSH1 0x20 ADD SWAP1 KECCAK256 SLOAD DUP2 LT ISZERO PUSH2 0x14B5 JUMPI PUSH1 0x0 JUMPDEST PUSH1 0x6 PUSH1 0x0 PUSH1 0x4 DUP10 PUSH1 0x40 MLOAD PUSH2 0x105F SWAP2 SWAP1 PUSH2 0x2B96 JUMP JUMPDEST SWAP1 DUP2 MSTORE PUSH1 0x20 ADD PUSH1 0x40 MLOAD DUP1 SWAP2 SUB SWAP1 KECCAK256 DUP5 DUP2 SLOAD DUP2 LT PUSH2 0x107E JUMPI PUSH2 0x107E PUSH2 0x2B80 JUMP JUMPDEST PUSH1 0x0 SWAP2 DUP3 MSTORE PUSH1 0x20 DUP1 DUP4 KECCAK256 SWAP1 SWAP2 ADD SLOAD PUSH1 0x1 PUSH1 0x1 PUSH1 0xA0 SHL SUB AND DUP4 MSTORE DUP3 ADD SWAP3 SWAP1 SWAP3 MSTORE PUSH1 0x40 ADD SWAP1 KECCAK256 SLOAD DUP2 LT ISZERO PUSH2 0x14AC JUMPI PUSH1 0x8 PUSH1 0x0 PUSH1 0x6 PUSH1 0x0 PUSH1 0x4 DUP12 PUSH1 0x40 MLOAD PUSH2 0x10C2 SWAP2 SWAP1 PUSH2 0x2B96 JUMP JUMPDEST SWAP1 DUP2 MSTORE PUSH1 0x20 ADD PUSH1 0x40 MLOAD DUP1 SWAP2 SUB SWAP1 KECCAK256 DUP7 DUP2 SLOAD DUP2 LT PUSH2 0x10E1 JUMPI PUSH2 0x10E1 PUSH2 0x2B80 JUMP JUMPDEST PUSH1 0x0 SWAP2 DUP3 MSTORE PUSH1 0x20 DUP1 DUP4 KECCAK256 SWAP1 SWAP2 ADD SLOAD PUSH1 0x1 PUSH1 0x1 PUSH1 0xA0 SHL SUB AND DUP4 MSTORE DUP3 ADD SWAP3 SWAP1 SWAP3 MSTORE PUSH1 0x40 ADD SWAP1 KECCAK256 DUP1 SLOAD DUP5 SWAP1 DUP2 LT PUSH2 0x1117 JUMPI PUSH2 0x1117 PUSH2 0x2B80 JUMP JUMPDEST SWAP1 PUSH1 0x0 MSTORE PUSH1 0x20 PUSH1 0x0 KECCAK256 ADD SLOAD DUP2 MSTORE PUSH1 0x20 ADD SWAP1 DUP2 MSTORE PUSH1 0x20 ADD PUSH1 0x0 KECCAK256 PUSH1 0x40 MLOAD DUP1 PUSH2 0x100 ADD PUSH1 0x40 MSTORE SWAP1 DUP2 PUSH1 0x0 DUP3 ADD SLOAD DUP2 MSTORE PUSH1 0x20 ADD PUSH1 0x1 DUP3 ADD DUP1 SLOAD PUSH2 0x1156 SWAP1 PUSH2 0x2981 JUMP JUMPDEST DUP1 PUSH1 0x1F ADD PUSH1 0x20 DUP1 SWAP2 DIV MUL PUSH1 0x20 ADD PUSH1 0x40 MLOAD SWAP1 DUP2 ADD PUSH1 0x40 MSTORE DUP1 SWAP3 SWAP2 SWAP1 DUP2 DUP2 MSTORE PUSH1 0x20 ADD DUP3 DUP1 SLOAD PUSH2 0x1182 SWAP1 PUSH2 0x2981 JUMP JUMPDEST DUP1 ISZERO PUSH2 0x11CF JUMPI DUP1 PUSH1 0x1F LT PUSH2 0x11A4 JUMPI PUSH2 0x100 DUP1 DUP4 SLOAD DIV MUL DUP4 MSTORE SWAP2 PUSH1 0x20 ADD SWAP2 PUSH2 0x11CF JUMP JUMPDEST DUP3 ADD SWAP2 SWAP1 PUSH1 0x0 MSTORE PUSH1 0x20 PUSH1 0x0 KECCAK256 SWAP1 JUMPDEST DUP2 SLOAD DUP2 MSTORE SWAP1 PUSH1 0x1 ADD SWAP1 PUSH1 0x20 ADD DUP1 DUP4 GT PUSH2 0x11B2 JUMPI DUP3 SWAP1 SUB PUSH1 0x1F AND DUP3 ADD SWAP2 JUMPDEST POP POP POP POP POP DUP2 MSTORE PUSH1 0x20 ADD PUSH1 0x2 DUP3 ADD DUP1 SLOAD PUSH2 0x11E8 SWAP1 PUSH2 0x2981 JUMP JUMPDEST DUP1 PUSH1 0x1F ADD PUSH1 0x20 DUP1 SWAP2 DIV MUL PUSH1 0x20 ADD PUSH1 0x40 MLOAD SWAP1 DUP2 ADD PUSH1 0x40 MSTORE DUP1 SWAP3 SWAP2 SWAP1 DUP2 DUP2 MSTORE PUSH1 0x20 ADD DUP3 DUP1 SLOAD PUSH2 0x1214 SWAP1 PUSH2 0x2981 JUMP JUMPDEST DUP1 ISZERO PUSH2 0x1261 JUMPI DUP1 PUSH1 0x1F LT PUSH2 0x1236 JUMPI PUSH2 0x100 DUP1 DUP4 SLOAD DIV MUL DUP4 MSTORE SWAP2 PUSH1 0x20 ADD SWAP2 PUSH2 0x1261 JUMP JUMPDEST DUP3 ADD SWAP2 SWAP1 PUSH1 0x0 MSTORE PUSH1 0x20 PUSH1 0x0 KECCAK256 SWAP1 JUMPDEST DUP2 SLOAD DUP2 MSTORE SWAP1 PUSH1 0x1 ADD SWAP1 PUSH1 0x20 ADD DUP1 DUP4 GT PUSH2 0x1244 JUMPI DUP3 SWAP1 SUB PUSH1 0x1F AND DUP3 ADD SWAP2 JUMPDEST POP POP POP POP POP DUP2 MSTORE PUSH1 0x20 ADD PUSH1 0x3 DUP3 ADD DUP1 SLOAD PUSH2 0x127A SWAP1 PUSH2 0x2981 JUMP JUMPDEST DUP1 PUSH1 0x1F ADD PUSH1 0x20 DUP1 SWAP2 DIV MUL PUSH1 0x20 ADD PUSH1 0x40 MLOAD SWAP1 DUP2 ADD PUSH1 0x40 MSTORE DUP1 SWAP3 SWAP2 SWAP1 DUP2 DUP2 MSTORE PUSH1 0x20 ADD DUP3 DUP1 SLOAD PUSH2 0x12A6 SWAP1 PUSH2 0x2981 JUMP JUMPDEST DUP1 ISZERO PUSH2 0x12F3 JUMPI DUP1 PUSH1 0x1F LT PUSH2 0x12C8 JUMPI PUSH2 0x100 DUP1 DUP4 SLOAD DIV MUL DUP4 MSTORE SWAP2 PUSH1 0x20 ADD SWAP2 PUSH2 0x12F3 JUMP JUMPDEST DUP3 ADD SWAP2 SWAP1 PUSH1 0x0 MSTORE PUSH1 0x20 PUSH1 0x0 KECCAK256 SWAP1 JUMPDEST DUP2 SLOAD DUP2 MSTORE SWAP1 PUSH1 0x1 ADD SWAP1 PUSH1 0x20 ADD DUP1 DUP4 GT PUSH2 0x12D6 JUMPI DUP3 SWAP1 SUB PUSH1 0x1F AND DUP3 ADD SWAP2 JUMPDEST POP POP POP POP POP DUP2 MSTORE PUSH1 0x20 ADD PUSH1 0x4 DUP3 ADD DUP1 SLOAD PUSH2 0x130C SWAP1 PUSH2 0x2981 JUMP JUMPDEST DUP1 PUSH1 0x1F ADD PUSH1 0x20 DUP1 SWAP2 DIV MUL PUSH1 0x20 ADD PUSH1 0x40 MLOAD SWAP1 DUP2 ADD PUSH1 0x40 MSTORE DUP1 SWAP3 SWAP2 SWAP1 DUP2 DUP2 MSTORE PUSH1 0x20 ADD DUP3 DUP1 SLOAD PUSH2 0x1338 SWAP1 PUSH2 0x2981 JUMP JUMPDEST DUP1 ISZERO PUSH2 0x1385 JUMPI DUP1 PUSH1 0x1F LT PUSH2 0x135A JUMPI PUSH2 0x100 DUP1 DUP4 SLOAD DIV MUL DUP4 MSTORE SWAP2 PUSH1 0x20 ADD SWAP2 PUSH2 0x1385 JUMP JUMPDEST DUP3 ADD SWAP2 SWAP1 PUSH1 0x0 MSTORE PUSH1 0x20 PUSH1 0x0 KECCAK256 SWAP1 JUMPDEST DUP2 SLOAD DUP2 MSTORE SWAP1 PUSH1 0x1 ADD SWAP1 PUSH1 0x20 ADD DUP1 DUP4 GT PUSH2 0x1368 JUMPI DUP3 SWAP1 SUB PUSH1 0x1F AND DUP3 ADD SWAP2 JUMPDEST POP POP POP POP POP DUP2 MSTORE PUSH1 0x20 ADD PUSH1 0x5 DUP3 ADD DUP1 SLOAD DUP1 PUSH1 0x20 MUL PUSH1 0x20 ADD PUSH1 0x40 MLOAD SWAP1 DUP2 ADD PUSH1 0x40 MSTORE DUP1 SWAP3 SWAP2 SWAP1 DUP2 DUP2 MSTORE PUSH1 0x20 ADD PUSH1 0x0 SWAP1 JUMPDEST DUP3 DUP3 LT ISZERO PUSH2 0x145F JUMPI DUP4 DUP3 SWAP1 PUSH1 0x0 MSTORE PUSH1 0x20 PUSH1 0x0 KECCAK256 ADD DUP1 SLOAD PUSH2 0x13D2 SWAP1 PUSH2 0x2981 JUMP JUMPDEST DUP1 PUSH1 0x1F ADD PUSH1 0x20 DUP1 SWAP2 DIV MUL PUSH1 0x20 ADD PUSH1 0x40 MLOAD SWAP1 DUP2 ADD PUSH1 0x40 MSTORE DUP1 SWAP3 SWAP2 SWAP1 DUP2 DUP2 MSTORE PUSH1 0x20 ADD DUP3 DUP1 SLOAD PUSH2 0x13FE SWAP1 PUSH2 0x2981 JUMP JUMPDEST DUP1 ISZERO PUSH2 0x144B JUMPI DUP1 PUSH1 0x1F LT PUSH2 0x1420 JUMPI PUSH2 0x100 DUP1 DUP4 SLOAD DIV MUL DUP4 MSTORE SWAP2 PUSH1 0x20 ADD SWAP2 PUSH2 0x144B JUMP JUMPDEST DUP3 ADD SWAP2 SWAP1 PUSH1 0x0 MSTORE PUSH1 0x20 PUSH1 0x0 KECCAK256 SWAP1 JUMPDEST DUP2 SLOAD DUP2 MSTORE SWAP1 PUSH1 0x1 ADD SWAP1 PUSH1 0x20 ADD DUP1 DUP4 GT PUSH2 0x142E JUMPI DUP3 SWAP1 SUB PUSH1 0x1F AND DUP3 ADD SWAP2 JUMPDEST POP POP POP POP POP DUP2 MSTORE PUSH1 0x20 ADD SWAP1 PUSH1 0x1 ADD SWAP1 PUSH2 0x13B3 JUMP JUMPDEST POP POP POP POP DUP2 MSTORE PUSH1 0x20 ADD PUSH1 0x6 DUP3 ADD SLOAD DUP2 MSTORE PUSH1 0x20 ADD PUSH1 0x7 DUP3 ADD SLOAD DUP2 MSTORE POP POP DUP5 DUP5 DUP1 PUSH2 0x1487 SWAP1 PUSH2 0x29D1 JUMP JUMPDEST SWAP6 POP DUP2 MLOAD DUP2 LT PUSH2 0x1499 JUMPI PUSH2 0x1499 PUSH2 0x2B80 JUMP JUMPDEST PUSH1 0x20 SWAP1 DUP2 MUL SWAP2 SWAP1 SWAP2 ADD ADD MSTORE PUSH1 0x1 ADD PUSH2 0x104B JUMP JUMPDEST POP PUSH1 0x1 ADD PUSH2 0x1021 JUMP JUMPDEST POP SWAP1 SWAP5 SWAP4 POP POP POP POP JUMP JUMPDEST CALLER PUSH1 0x0 SWAP1 DUP2 MSTORE PUSH1 0x3 PUSH1 0x20 MSTORE PUSH1 0x40 SWAP1 KECCAK256 PUSH2 0x14D9 DUP3 DUP5 DUP4 PUSH2 0x2BCB JUMP JUMPDEST POP PUSH1 0x5 DUP3 DUP3 PUSH1 0x40 MLOAD PUSH2 0x14EC SWAP3 SWAP2 SWAP1 PUSH2 0x2C8C JUMP JUMPDEST SWAP1 DUP2 MSTORE PUSH1 0x40 DUP1 MLOAD PUSH1 0x20 SWAP3 DUP2 SWAP1 SUB DUP4 ADD SWAP1 KECCAK256 CALLER PUSH1 0x0 SWAP1 DUP2 MSTORE SWAP3 MSTORE SWAP1 KECCAK256 SLOAD PUSH1 0xFF AND PUSH2 0xEE8 JUMPI PUSH1 0x4 DUP3 DUP3 PUSH1 0x40 MLOAD PUSH2 0x1521 SWAP3 SWAP2 SWAP1 PUSH2 0x2C8C JUMP JUMPDEST SWAP1 DUP2 MSTORE PUSH1 0x40 MLOAD SWAP1 DUP2 SWAP1 SUB PUSH1 0x20 SWAP1 DUP2 ADD DUP3 KECCAK256 DUP1 SLOAD PUSH1 0x1 DUP2 DUP2 ADD DUP4 SSTORE PUSH1 0x0 SWAP3 DUP4 MSTORE SWAP3 SWAP1 SWAP2 KECCAK256 ADD DUP1 SLOAD PUSH1 0x1 PUSH1 0x1 PUSH1 0xA0 SHL SUB NOT AND CALLER OR SWAP1 SSTORE SWAP1 PUSH1 0x5 SWAP1 PUSH2 0x1566 SWAP1 DUP6 SWAP1 DUP6 SWAP1 PUSH2 0x2C8C JUMP JUMPDEST SWAP1 DUP2 MSTORE PUSH1 0x40 DUP1 MLOAD PUSH1 0x20 SWAP3 DUP2 SWAP1 SUB DUP4 ADD SWAP1 KECCAK256 CALLER PUSH1 0x0 SWAP1 DUP2 MSTORE SWAP3 MSTORE SWAP1 KECCAK256 DUP1 SLOAD PUSH1 0xFF NOT AND SWAP2 ISZERO ISZERO SWAP2 SWAP1 SWAP2 OR SWAP1 SSTORE POP POP JUMP JUMPDEST PUSH1 0x2 SLOAD PUSH1 0x1 PUSH1 0x1 PUSH1 0xA0 SHL SUB AND CALLER EQ PUSH2 0x15DE JUMPI PUSH1 0x40 MLOAD PUSH3 0x461BCD PUSH1 0xE5 SHL DUP2 MSTORE PUSH1 0x20 PUSH1 0x4 DUP3 ADD MSTORE PUSH1 0xD PUSH1 0x24 DUP3 ADD MSTORE PUSH13 0x1058D8D95CDCC811195B9A5959 PUSH1 0x9A SHL PUSH1 0x44 DUP3 ADD MSTORE PUSH1 0x64 ADD PUSH2 0x340 JUMP JUMPDEST PUSH1 0x40 MLOAD PUSH5 0x30B236B4B7 PUSH1 0xD9 SHL DUP2 MSTORE PUSH1 0xD SWAP1 PUSH1 0x5 ADD SWAP1 DUP2 MSTORE PUSH1 0x40 MLOAD PUSH1 0x20 SWAP2 DUP2 SWAP1 SUB DUP3 ADD SWAP1 KECCAK256 DUP1 SLOAD PUSH1 0x1 DUP2 ADD DUP3 SSTORE PUSH1 0x0 SWAP2 DUP3 MSTORE SWAP2 SWAP1 KECCAK256 ADD DUP1 SLOAD PUSH1 0x1 PUSH1 0x1 PUSH1 0xA0 SHL SUB NOT AND PUSH1 0x1 PUSH1 0x1 PUSH1 0xA0 SHL SUB SWAP3 SWAP1 SWAP3 AND SWAP2 SWAP1 SWAP2 OR SWAP1 SSTORE JUMP JUMPDEST PUSH1 0x60 PUSH1 0x0 DUP3 PUSH1 0x1 PUSH1 0x0 SLOAD PUSH2 0x1647 SWAP2 SWAP1 PUSH2 0x2C9C JUMP JUMPDEST GT PUSH2 0x1660 JUMPI PUSH1 0x1 PUSH1 0x0 SLOAD PUSH2 0x165B SWAP2 SWAP1 PUSH2 0x2C9C JUMP JUMPDEST PUSH2 0x1662 JUMP JUMPDEST DUP3 JUMPDEST PUSH8 0xFFFFFFFFFFFFFFFF DUP2 GT ISZERO PUSH2 0x167A JUMPI PUSH2 0x167A PUSH2 0x27A8 JUMP JUMPDEST PUSH1 0x40 MLOAD SWAP1 DUP1 DUP3 MSTORE DUP1 PUSH1 0x20 MUL PUSH1 0x20 ADD DUP3 ADD PUSH1 0x40 MSTORE DUP1 ISZERO PUSH2 0x16F3 JUMPI DUP2 PUSH1 0x20 ADD JUMPDEST PUSH2 0x16E0 PUSH1 0x40 MLOAD DUP1 PUSH2 0x100 ADD PUSH1 0x40 MSTORE DUP1 PUSH1 0x0 DUP2 MSTORE PUSH1 0x20 ADD PUSH1 0x60 DUP2 MSTORE PUSH1 0x20 ADD PUSH1 0x60 DUP2 MSTORE PUSH1 0x20 ADD PUSH1 0x60 DUP2 MSTORE PUSH1 0x20 ADD PUSH1 0x60 DUP2 MSTORE PUSH1 0x20 ADD PUSH1 0x60 DUP2 MSTORE PUSH1 0x20 ADD PUSH1 0x0 DUP2 MSTORE PUSH1 0x20 ADD PUSH1 0x0 DUP2 MSTORE POP SWAP1 JUMP JUMPDEST DUP2 MSTORE PUSH1 0x20 ADD SWAP1 PUSH1 0x1 SWAP1 SUB SWAP1 DUP2 PUSH2 0x1698 JUMPI SWAP1 POP JUMPDEST POP SWAP1 POP PUSH1 0x0 JUMPDEST DUP2 MLOAD DUP2 LT ISZERO PUSH2 0x8A0 JUMPI PUSH1 0x8 PUSH1 0x0 PUSH1 0x1 DUP4 PUSH1 0x0 SLOAD PUSH2 0x1716 SWAP2 SWAP1 PUSH2 0x2C9C JUMP JUMPDEST PUSH2 0x1720 SWAP2 SWAP1 PUSH2 0x2C9C JUMP JUMPDEST DUP2 MSTORE PUSH1 0x20 ADD SWAP1 DUP2 MSTORE PUSH1 0x20 ADD PUSH1 0x0 KECCAK256 PUSH1 0x40 MLOAD DUP1 PUSH2 0x100 ADD PUSH1 0x40 MSTORE SWAP1 DUP2 PUSH1 0x0 DUP3 ADD SLOAD DUP2 MSTORE PUSH1 0x20 ADD PUSH1 0x1 DUP3 ADD DUP1 SLOAD PUSH2 0x1754 SWAP1 PUSH2 0x2981 JUMP JUMPDEST DUP1 PUSH1 0x1F ADD PUSH1 0x20 DUP1 SWAP2 DIV MUL PUSH1 0x20 ADD PUSH1 0x40 MLOAD SWAP1 DUP2 ADD PUSH1 0x40 MSTORE DUP1 SWAP3 SWAP2 SWAP1 DUP2 DUP2 MSTORE PUSH1 0x20 ADD DUP3 DUP1 SLOAD PUSH2 0x1780 SWAP1 PUSH2 0x2981 JUMP JUMPDEST DUP1 ISZERO PUSH2 0x17CD JUMPI DUP1 PUSH1 0x1F LT PUSH2 0x17A2 JUMPI PUSH2 0x100 DUP1 DUP4 SLOAD DIV MUL DUP4 MSTORE SWAP2 PUSH1 0x20 ADD SWAP2 PUSH2 0x17CD JUMP JUMPDEST DUP3 ADD SWAP2 SWAP1 PUSH1 0x0 MSTORE PUSH1 0x20 PUSH1 0x0 KECCAK256 SWAP1 JUMPDEST DUP2 SLOAD DUP2 MSTORE SWAP1 PUSH1 0x1 ADD SWAP1 PUSH1 0x20 ADD DUP1 DUP4 GT PUSH2 0x17B0 JUMPI DUP3 SWAP1 SUB PUSH1 0x1F AND DUP3 ADD SWAP2 JUMPDEST POP POP POP POP POP DUP2 MSTORE PUSH1 0x20 ADD PUSH1 0x2 DUP3 ADD DUP1 SLOAD PUSH2 0x17E6 SWAP1 PUSH2 0x2981 JUMP JUMPDEST DUP1 PUSH1 0x1F ADD PUSH1 0x20 DUP1 SWAP2 DIV MUL PUSH1 0x20 ADD PUSH1 0x40 MLOAD SWAP1 DUP2 ADD PUSH1 0x40 MSTORE DUP1 SWAP3 SWAP2 SWAP1 DUP2 DUP2 MSTORE PUSH1 0x20 ADD DUP3 DUP1 SLOAD PUSH2 0x1812 SWAP1 PUSH2 0x2981 JUMP JUMPDEST DUP1 ISZERO PUSH2 0x185F JUMPI DUP1 PUSH1 0x1F LT PUSH2 0x1834 JUMPI PUSH2 0x100 DUP1 DUP4 SLOAD DIV MUL DUP4 MSTORE SWAP2 PUSH1 0x20 ADD SWAP2 PUSH2 0x185F JUMP JUMPDEST DUP3 ADD SWAP2 SWAP1 PUSH1 0x0 MSTORE PUSH1 0x20 PUSH1 0x0 KECCAK256 SWAP1 JUMPDEST DUP2 SLOAD DUP2 MSTORE SWAP1 PUSH1 0x1 ADD SWAP1 PUSH1 0x20 ADD DUP1 DUP4 GT PUSH2 0x1842 JUMPI DUP3 SWAP1 SUB PUSH1 0x1F AND DUP3 ADD SWAP2 JUMPDEST POP POP POP POP POP DUP2 MSTORE PUSH1 0x20 ADD PUSH1 0x3 DUP3 ADD DUP1 SLOAD PUSH2 0x1878 SWAP1 PUSH2 0x2981 JUMP JUMPDEST DUP1 PUSH1 0x1F ADD PUSH1 0x20 DUP1 SWAP2 DIV MUL PUSH1 0x20 ADD PUSH1 0x40 MLOAD SWAP1 DUP2 ADD PUSH1 0x40 MSTORE DUP1 SWAP3 SWAP2 SWAP1 DUP2 DUP2 MSTORE PUSH1 0x20 ADD DUP3 DUP1 SLOAD PUSH2 0x18A4 SWAP1 PUSH2 0x2981 JUMP JUMPDEST DUP1 ISZERO PUSH2 0x18F1 JUMPI DUP1 PUSH1 0x1F LT PUSH2 0x18C6 JUMPI PUSH2 0x100 DUP1 DUP4 SLOAD DIV MUL DUP4 MSTORE SWAP2 PUSH1 0x20 ADD SWAP2 PUSH2 0x18F1 JUMP JUMPDEST DUP3 ADD SWAP2 SWAP1 PUSH1 0x0 MSTORE PUSH1 0x20 PUSH1 0x0 KECCAK256 SWAP1 JUMPDEST DUP2 SLOAD DUP2 MSTORE SWAP1 PUSH1 0x1 ADD SWAP1 PUSH1 0x20 ADD DUP1 DUP4 GT PUSH2 0x18D4 JUMPI DUP3 SWAP1 SUB PUSH1 0x1F AND DUP3 ADD SWAP2 JUMPDEST POP POP POP POP POP DUP2 MSTORE PUSH1 0x20 ADD PUSH1 0x4 DUP3 ADD DUP1 SLOAD PUSH2 0x190A SWAP1 PUSH2 0x2981 JUMP JUMPDEST DUP1 PUSH1 0x1F ADD PUSH1 0x20 DUP1 SWAP2 DIV MUL PUSH1 0x20 ADD PUSH1 0x40 MLOAD SWAP1 DUP2 ADD PUSH1 0x40 MSTORE DUP1 SWAP3 SWAP2 SWAP1 DUP2 DUP2 MSTORE PUSH1 0x20 ADD DUP3 DUP1 SLOAD PUSH2 0x1936 SWAP1 PUSH2 0x2981 JUMP JUMPDEST DUP1 ISZERO PUSH2 0x1983 JUMPI DUP1 PUSH1 0x1F LT PUSH2 0x1958 JUMPI PUSH2 0x100 DUP1 DUP4 SLOAD DIV MUL DUP4 MSTORE SWAP2 PUSH1 0x20 ADD SWAP2 PUSH2 0x1983 JUMP JUMPDEST DUP3 ADD SWAP2 SWAP1 PUSH1 0x0 MSTORE PUSH1 0x20 PUSH1 0x0 KECCAK256 SWAP1 JUMPDEST DUP2 SLOAD DUP2 MSTORE SWAP1 PUSH1 0x1 ADD SWAP1 PUSH1 0x20 ADD DUP1 DUP4 GT PUSH2 0x1966 JUMPI DUP3 SWAP1 SUB PUSH1 0x1F AND DUP3 ADD SWAP2 JUMPDEST POP POP POP POP POP DUP2 MSTORE PUSH1 0x20 ADD PUSH1 0x5 DUP3 ADD DUP1 SLOAD DUP1 PUSH1 0x20 MUL PUSH1 0x20 ADD PUSH1 0x40 MLOAD SWAP1 DUP2 ADD PUSH1 0x40 MSTORE DUP1 SWAP3 SWAP2 SWAP1 DUP2 DUP2 MSTORE PUSH1 0x20 ADD PUSH1 0x0 SWAP1 JUMPDEST DUP3 DUP3 LT ISZERO PUSH2 0x1A5D JUMPI DUP4 DUP3 SWAP1 PUSH1 0x0 MSTORE PUSH1 0x20 PUSH1 0x0 KECCAK256 ADD DUP1 SLOAD PUSH2 0x19D0 SWAP1 PUSH2 0x2981 JUMP JUMPDEST DUP1 PUSH1 0x1F ADD PUSH1 0x20 DUP1 SWAP2 DIV MUL PUSH1 0x20 ADD PUSH1 0x40 MLOAD SWAP1 DUP2 ADD PUSH1 0x40 MSTORE DUP1 SWAP3 SWAP2 SWAP1 DUP2 DUP2 MSTORE PUSH1 0x20 ADD DUP3 DUP1 SLOAD PUSH2 0x19FC SWAP1 PUSH2 0x2981 JUMP JUMPDEST DUP1 ISZERO PUSH2 0x1A49 JUMPI DUP1 PUSH1 0x1F LT PUSH2 0x1A1E JUMPI PUSH2 0x100 DUP1 DUP4 SLOAD DIV MUL DUP4 MSTORE SWAP2 PUSH1 0x20 ADD SWAP2 PUSH2 0x1A49 JUMP JUMPDEST DUP3 ADD SWAP2 SWAP1 PUSH1 0x0 MSTORE PUSH1 0x20 PUSH1 0x0 KECCAK256 SWAP1 JUMPDEST DUP2 SLOAD DUP2 MSTORE SWAP1 PUSH1 0x1 ADD SWAP1 PUSH1 0x20 ADD DUP1 DUP4 GT PUSH2 0x1A2C JUMPI DUP3 SWAP1 SUB PUSH1 0x1F AND DUP3 ADD SWAP2 JUMPDEST POP POP POP POP POP DUP2 MSTORE PUSH1 0x20 ADD SWAP1 PUSH1 0x1 ADD SWAP1 PUSH2 0x19B1 JUMP JUMPDEST POP POP POP POP DUP2 MSTORE PUSH1 0x20 ADD PUSH1 0x6 DUP3 ADD SLOAD DUP2 MSTORE PUSH1 0x20 ADD PUSH1 0x7 DUP3 ADD SLOAD DUP2 MSTORE POP POP DUP3 DUP3 DUP2 MLOAD DUP2 LT PUSH2 0x1A8B JUMPI PUSH2 0x1A8B PUSH2 0x2B80 JUMP JUMPDEST PUSH1 0x20 SWAP1 DUP2 MUL SWAP2 SWAP1 SWAP2 ADD ADD MSTORE PUSH1 0x1 ADD PUSH2 0x16F9 JUMP JUMPDEST PUSH1 0x0 DUP4 DUP2 MSTORE PUSH1 0x7 PUSH1 0x20 MSTORE PUSH1 0x40 SWAP1 KECCAK256 SLOAD PUSH1 0x1 PUSH1 0x1 PUSH1 0xA0 SHL SUB AND PUSH2 0x1AF6 JUMPI PUSH1 0x40 MLOAD PUSH3 0x461BCD PUSH1 0xE5 SHL DUP2 MSTORE PUSH1 0x20 PUSH1 0x4 DUP3 ADD MSTORE PUSH1 0x11 PUSH1 0x24 DUP3 ADD MSTORE PUSH17 0x2B34B232B79036BAB9BA1032BC34B9BA17 PUSH1 0x79 SHL PUSH1 0x44 DUP3 ADD MSTORE PUSH1 0x64 ADD PUSH2 0x340 JUMP JUMPDEST CALLVALUE ISZERO PUSH2 0x1E9A JUMPI PUSH1 0x0 DUP4 DUP2 MSTORE PUSH1 0x7 PUSH1 0x20 MSTORE PUSH1 0x40 SWAP1 KECCAK256 SLOAD CALLER PUSH1 0x1 PUSH1 0x1 PUSH1 0xA0 SHL SUB SWAP1 SWAP2 AND SUB PUSH2 0x1B8A JUMPI PUSH1 0x40 MLOAD PUSH3 0x461BCD PUSH1 0xE5 SHL DUP2 MSTORE PUSH1 0x20 PUSH1 0x4 DUP3 ADD MSTORE PUSH1 0x26 PUSH1 0x24 DUP3 ADD MSTORE PUSH32 0x596F752063616E6E6F7420737570657263686174206F6E20796F7572206F776E PUSH1 0x44 DUP3 ADD MSTORE PUSH32 0x20766964656F0000000000000000000000000000000000000000000000000000 PUSH1 0x64 DUP3 ADD MSTORE PUSH1 0x84 ADD PUSH2 0x340 JUMP JUMPDEST PUSH1 0x0 PUSH1 0xA PUSH2 0x1B99 CALLVALUE PUSH1 0x9 PUSH2 0x2CAF JUMP JUMPDEST PUSH2 0x1BA3 SWAP2 SWAP1 PUSH2 0x2CC6 JUMP JUMPDEST PUSH1 0x2 SLOAD SWAP1 SWAP2 POP PUSH1 0x0 SWAP1 PUSH1 0x1 PUSH1 0x1 PUSH1 0xA0 SHL SUB AND PUSH2 0x1BBF DUP4 CALLVALUE PUSH2 0x2C9C JUMP JUMPDEST PUSH1 0x40 MLOAD PUSH1 0x0 DUP2 DUP2 DUP2 DUP6 DUP8 GAS CALL SWAP3 POP POP POP RETURNDATASIZE DUP1 PUSH1 0x0 DUP2 EQ PUSH2 0x1BFB JUMPI PUSH1 0x40 MLOAD SWAP2 POP PUSH1 0x1F NOT PUSH1 0x3F RETURNDATASIZE ADD AND DUP3 ADD PUSH1 0x40 MSTORE RETURNDATASIZE DUP3 MSTORE RETURNDATASIZE PUSH1 0x0 PUSH1 0x20 DUP5 ADD RETURNDATACOPY PUSH2 0x1C00 JUMP JUMPDEST PUSH1 0x60 SWAP2 POP JUMPDEST POP POP SWAP1 POP DUP1 PUSH2 0x1C51 JUMPI PUSH1 0x40 MLOAD PUSH3 0x461BCD PUSH1 0xE5 SHL DUP2 MSTORE PUSH1 0x20 PUSH1 0x4 DUP3 ADD MSTORE PUSH1 0x1D PUSH1 0x24 DUP3 ADD MSTORE PUSH32 0x4661696C656420746F2073656E6420457468657220746F206F776E6572000000 PUSH1 0x44 DUP3 ADD MSTORE PUSH1 0x64 ADD PUSH2 0x340 JUMP JUMPDEST PUSH1 0x0 DUP6 DUP2 MSTORE PUSH1 0xB PUSH1 0x20 MSTORE PUSH1 0x40 DUP2 KECCAK256 SLOAD PUSH2 0x1C6B SWAP1 PUSH1 0x1 PUSH2 0x2BB2 JUMP JUMPDEST SWAP1 POP PUSH1 0x0 PUSH2 0x1C79 DUP3 DUP6 PUSH2 0x2CC6 JUMP JUMPDEST SWAP1 POP PUSH1 0x0 JUMPDEST PUSH1 0x0 DUP9 DUP2 MSTORE PUSH1 0xB PUSH1 0x20 MSTORE PUSH1 0x40 SWAP1 KECCAK256 SLOAD DUP2 LT ISZERO PUSH2 0x1DA4 JUMPI PUSH1 0x0 DUP9 DUP2 MSTORE PUSH1 0xB PUSH1 0x20 MSTORE PUSH1 0x40 DUP2 KECCAK256 DUP1 SLOAD DUP4 SWAP1 DUP2 LT PUSH2 0x1CB4 JUMPI PUSH2 0x1CB4 PUSH2 0x2B80 JUMP JUMPDEST PUSH1 0x0 SWAP2 DUP3 MSTORE PUSH1 0x20 DUP1 DUP4 KECCAK256 SWAP2 SWAP1 SWAP2 ADD SLOAD DUP1 DUP4 MSTORE PUSH1 0x7 SWAP1 SWAP2 MSTORE PUSH1 0x40 DUP1 DUP4 KECCAK256 SLOAD SWAP1 MLOAD SWAP2 SWAP4 POP PUSH1 0x1 PUSH1 0x1 PUSH1 0xA0 SHL SUB AND SWAP2 SWAP1 DUP3 SWAP1 DUP7 SWAP1 DUP4 DUP2 DUP2 DUP2 DUP6 DUP8 GAS CALL SWAP3 POP POP POP RETURNDATASIZE DUP1 PUSH1 0x0 DUP2 EQ PUSH2 0x1D1D JUMPI PUSH1 0x40 MLOAD SWAP2 POP PUSH1 0x1F NOT PUSH1 0x3F RETURNDATASIZE ADD AND DUP3 ADD PUSH1 0x40 MSTORE RETURNDATASIZE DUP3 MSTORE RETURNDATASIZE PUSH1 0x0 PUSH1 0x20 DUP5 ADD RETURNDATACOPY PUSH2 0x1D22 JUMP JUMPDEST PUSH1 0x60 SWAP2 POP JUMPDEST POP POP SWAP1 POP DUP1 PUSH2 0x1D99 JUMPI PUSH1 0x40 MLOAD PUSH3 0x461BCD PUSH1 0xE5 SHL DUP2 MSTORE PUSH1 0x20 PUSH1 0x4 DUP3 ADD MSTORE PUSH1 0x21 PUSH1 0x24 DUP3 ADD MSTORE PUSH32 0x4661696C656420746F2073656E6420457468657220746F20612063726561746F PUSH1 0x44 DUP3 ADD MSTORE PUSH32 0x7200000000000000000000000000000000000000000000000000000000000000 PUSH1 0x64 DUP3 ADD MSTORE PUSH1 0x84 ADD PUSH2 0x340 JUMP JUMPDEST POP POP POP PUSH1 0x1 ADD PUSH2 0x1C7E JUMP JUMPDEST POP PUSH1 0x0 DUP8 DUP2 MSTORE PUSH1 0x7 PUSH1 0x20 MSTORE PUSH1 0x40 DUP2 KECCAK256 SLOAD PUSH1 0x1 PUSH1 0x1 PUSH1 0xA0 SHL SUB AND PUSH2 0x1DC8 PUSH1 0x1 DUP6 PUSH2 0x2C9C JUMP JUMPDEST PUSH2 0x1DD2 SWAP1 DUP5 PUSH2 0x2CAF JUMP JUMPDEST PUSH2 0x1DDC SWAP1 DUP8 PUSH2 0x2C9C JUMP JUMPDEST PUSH1 0x40 MLOAD PUSH1 0x0 DUP2 DUP2 DUP2 DUP6 DUP8 GAS CALL SWAP3 POP POP POP RETURNDATASIZE DUP1 PUSH1 0x0 DUP2 EQ PUSH2 0x1E18 JUMPI PUSH1 0x40 MLOAD SWAP2 POP PUSH1 0x1F NOT PUSH1 0x3F RETURNDATASIZE ADD AND DUP3 ADD PUSH1 0x40 MSTORE RETURNDATASIZE DUP3 MSTORE RETURNDATASIZE PUSH1 0x0 PUSH1 0x20 DUP5 ADD RETURNDATACOPY PUSH2 0x1E1D JUMP JUMPDEST PUSH1 0x60 SWAP2 POP JUMPDEST POP POP SWAP1 POP DUP1 PUSH2 0x1E94 JUMPI PUSH1 0x40 MLOAD PUSH3 0x461BCD PUSH1 0xE5 SHL DUP2 MSTORE PUSH1 0x20 PUSH1 0x4 DUP3 ADD MSTORE PUSH1 0x23 PUSH1 0x24 DUP3 ADD MSTORE PUSH32 0x4661696C656420746F2073656E6420457468657220746F207468652063726561 PUSH1 0x44 DUP3 ADD MSTORE PUSH32 0x746F720000000000000000000000000000000000000000000000000000000000 PUSH1 0x64 DUP3 ADD MSTORE PUSH1 0x84 ADD PUSH2 0x340 JUMP JUMPDEST POP POP POP POP POP JUMPDEST PUSH1 0x1 DUP1 SLOAD PUSH1 0x0 SWAP2 DUP3 PUSH2 0x1EAB DUP4 PUSH2 0x29D1 JUMP JUMPDEST SWAP2 SWAP1 POP SSTORE SWAP1 POP PUSH1 0x40 MLOAD DUP1 PUSH1 0x80 ADD PUSH1 0x40 MSTORE DUP1 CALLER PUSH1 0x1 PUSH1 0x1 PUSH1 0xA0 SHL SUB AND DUP2 MSTORE PUSH1 0x20 ADD DUP5 DUP5 DUP1 DUP1 PUSH1 0x1F ADD PUSH1 0x20 DUP1 SWAP2 DIV MUL PUSH1 0x20 ADD PUSH1 0x40 MLOAD SWAP1 DUP2 ADD PUSH1 0x40 MSTORE DUP1 SWAP4 SWAP3 SWAP2 SWAP1 DUP2 DUP2 MSTORE PUSH1 0x20 ADD DUP4 DUP4 DUP1 DUP3 DUP5 CALLDATACOPY PUSH1 0x0 SWAP3 ADD DUP3 SWAP1 MSTORE POP SWAP4 DUP6 MSTORE POP POP CALLVALUE PUSH1 0x20 DUP1 DUP6 ADD SWAP2 SWAP1 SWAP2 MSTORE TIMESTAMP PUSH1 0x40 SWAP5 DUP6 ADD MSTORE DUP6 DUP4 MSTORE PUSH1 0xA DUP2 MSTORE SWAP3 SWAP1 SWAP2 KECCAK256 DUP4 MLOAD DUP2 SLOAD PUSH1 0x1 PUSH1 0x1 PUSH1 0xA0 SHL SUB NOT AND PUSH1 0x1 PUSH1 0x1 PUSH1 0xA0 SHL SUB SWAP1 SWAP2 AND OR DUP2 SSTORE SWAP2 DUP4 ADD MLOAD PUSH1 0x1 DUP4 ADD SWAP2 POP PUSH2 0x1F4E SWAP1 DUP3 PUSH2 0x2AC0 JUMP JUMPDEST POP PUSH1 0x40 DUP3 DUP2 ADD MLOAD PUSH1 0x2 DUP4 ADD SSTORE PUSH1 0x60 SWAP1 SWAP3 ADD MLOAD PUSH1 0x3 SWAP1 SWAP2 ADD SSTORE PUSH1 0x0 SWAP5 DUP6 MSTORE PUSH1 0x9 PUSH1 0x20 SWAP1 DUP2 MSTORE SWAP1 DUP6 KECCAK256 DUP1 SLOAD PUSH1 0x1 DUP2 ADD DUP3 SSTORE SWAP1 DUP7 MSTORE SWAP5 KECCAK256 SWAP1 SWAP4 ADD SWAP3 SWAP1 SWAP3 SSTORE POP POP JUMP JUMPDEST PUSH1 0x0 DUP2 DUP2 MSTORE PUSH1 0x7 PUSH1 0x20 MSTORE PUSH1 0x40 SWAP1 KECCAK256 SLOAD PUSH1 0x1 PUSH1 0x1 PUSH1 0xA0 SHL SUB AND PUSH2 0x1FE5 JUMPI PUSH1 0x40 MLOAD PUSH3 0x461BCD PUSH1 0xE5 SHL DUP2 MSTORE PUSH1 0x20 PUSH1 0x4 DUP3 ADD MSTORE PUSH1 0x11 PUSH1 0x24 DUP3 ADD MSTORE PUSH17 0x2B34B232B79036BAB9BA1032BC34B9BA17 PUSH1 0x79 SHL PUSH1 0x44 DUP3 ADD MSTORE PUSH1 0x64 ADD PUSH2 0x340 JUMP JUMPDEST PUSH1 0x0 DUP2 DUP2 MSTORE PUSH1 0x7 PUSH1 0x20 MSTORE PUSH1 0x40 SWAP1 KECCAK256 SLOAD PUSH1 0x1 PUSH1 0x1 PUSH1 0xA0 SHL SUB AND CALLER EQ PUSH2 0x204B JUMPI PUSH1 0x40 MLOAD PUSH3 0x461BCD PUSH1 0xE5 SHL DUP2 MSTORE PUSH1 0x20 PUSH1 0x4 DUP3 ADD MSTORE PUSH1 0x19 PUSH1 0x24 DUP3 ADD MSTORE PUSH32 0x596F7520646F206E6F74206F776E2074686520766964656F2E00000000000000 PUSH1 0x44 DUP3 ADD MSTORE PUSH1 0x64 ADD PUSH2 0x340 JUMP JUMPDEST PUSH2 0x2054 DUP2 PUSH2 0x2117 JUMP JUMPDEST POP JUMP JUMPDEST PUSH1 0x0 DUP3 DUP2 MSTORE PUSH1 0xC PUSH1 0x20 SWAP1 DUP2 MSTORE PUSH1 0x40 DUP1 DUP4 KECCAK256 DUP5 DUP5 MSTORE SWAP1 SWAP2 MSTORE SWAP1 KECCAK256 SLOAD PUSH1 0xFF AND PUSH2 0x20BB JUMPI PUSH1 0x0 DUP3 DUP2 MSTORE PUSH1 0xB PUSH1 0x20 SWAP1 DUP2 MSTORE PUSH1 0x40 DUP1 DUP4 KECCAK256 DUP1 SLOAD PUSH1 0x1 DUP2 DUP2 ADD DUP4 SSTORE SWAP2 DUP6 MSTORE DUP4 DUP6 KECCAK256 ADD DUP6 SWAP1 SSTORE DUP6 DUP5 MSTORE PUSH1 0xC DUP4 MSTORE DUP2 DUP5 KECCAK256 DUP6 DUP6 MSTORE SWAP1 SWAP3 MSTORE SWAP1 SWAP2 KECCAK256 DUP1 SLOAD PUSH1 0xFF NOT AND SWAP1 SWAP2 OR SWAP1 SSTORE JUMPDEST PUSH1 0x0 JUMPDEST PUSH1 0x0 DUP3 DUP2 MSTORE PUSH1 0xB PUSH1 0x20 MSTORE PUSH1 0x40 SWAP1 KECCAK256 SLOAD DUP2 LT ISZERO PUSH2 0x2112 JUMPI PUSH1 0x0 DUP3 DUP2 MSTORE PUSH1 0xB PUSH1 0x20 MSTORE PUSH1 0x40 SWAP1 KECCAK256 DUP1 SLOAD PUSH2 0x210A SWAP2 DUP6 SWAP2 DUP5 SWAP1 DUP2 LT PUSH2 0x20FA JUMPI PUSH2 0x20FA PUSH2 0x2B80 JUMP JUMPDEST SWAP1 PUSH1 0x0 MSTORE PUSH1 0x20 PUSH1 0x0 KECCAK256 ADD SLOAD PUSH2 0x2057 JUMP JUMPDEST PUSH1 0x1 ADD PUSH2 0x20BE JUMP JUMPDEST POP POP POP JUMP JUMPDEST PUSH1 0x0 DUP2 DUP2 MSTORE PUSH1 0x7 PUSH1 0x20 SWAP1 DUP2 MSTORE PUSH1 0x40 DUP1 DUP4 KECCAK256 DUP1 SLOAD PUSH1 0x1 PUSH1 0x1 PUSH1 0xA0 SHL SUB NOT AND SWAP1 SSTORE DUP1 MLOAD PUSH2 0x100 DUP2 ADD DUP3 MSTORE DUP5 DUP2 MSTORE DUP2 MLOAD DUP1 DUP4 ADD DUP4 MSTORE PUSH1 0xF DUP2 MSTORE PUSH32 0x5B44656C6574656420566964656F5D0000000000000000000000000000000000 DUP2 DUP6 ADD MSTORE DUP2 DUP5 ADD MSTORE DUP2 MLOAD DUP1 DUP5 ADD DUP4 MSTORE DUP5 DUP2 MSTORE DUP2 DUP4 ADD MSTORE DUP2 MLOAD DUP1 DUP5 ADD DUP4 MSTORE DUP5 DUP2 MSTORE PUSH1 0x60 DUP3 ADD MSTORE DUP2 MLOAD DUP1 DUP5 ADD DUP4 MSTORE DUP5 DUP2 MSTORE PUSH1 0x80 DUP3 ADD MSTORE DUP2 MLOAD DUP5 DUP2 MSTORE SWAP3 DUP4 ADD SWAP1 SWAP2 MSTORE SWAP2 PUSH1 0xA0 DUP4 ADD SWAP2 SWAP1 PUSH2 0x21CE JUMP JUMPDEST PUSH1 0x60 DUP2 MSTORE PUSH1 0x20 ADD SWAP1 PUSH1 0x1 SWAP1 SUB SWAP1 DUP2 PUSH2 0x21B9 JUMPI SWAP1 POP JUMPDEST POP DUP2 MSTORE PUSH1 0x0 PUSH1 0x20 DUP1 DUP4 ADD DUP3 SWAP1 MSTORE TIMESTAMP PUSH1 0x40 SWAP4 DUP5 ADD MSTORE DUP5 DUP3 MSTORE PUSH1 0x8 DUP2 MSTORE SWAP2 SWAP1 KECCAK256 DUP3 MLOAD DUP2 SSTORE SWAP1 DUP3 ADD MLOAD PUSH1 0x1 DUP3 ADD SWAP1 PUSH2 0x2203 SWAP1 DUP3 PUSH2 0x2AC0 JUMP JUMPDEST POP PUSH1 0x40 DUP3 ADD MLOAD PUSH1 0x2 DUP3 ADD SWAP1 PUSH2 0x2218 SWAP1 DUP3 PUSH2 0x2AC0 JUMP JUMPDEST POP PUSH1 0x60 DUP3 ADD MLOAD PUSH1 0x3 DUP3 ADD SWAP1 PUSH2 0x222D SWAP1 DUP3 PUSH2 0x2AC0 JUMP JUMPDEST POP PUSH1 0x80 DUP3 ADD MLOAD PUSH1 0x4 DUP3 ADD SWAP1 PUSH2 0x2242 SWAP1 DUP3 PUSH2 0x2AC0 JUMP JUMPDEST POP PUSH1 0xA0 DUP3 ADD MLOAD DUP1 MLOAD PUSH2 0x225E SWAP2 PUSH1 0x5 DUP5 ADD SWAP2 PUSH1 0x20 SWAP1 SWAP2 ADD SWAP1 PUSH2 0x2278 JUMP JUMPDEST POP PUSH1 0xC0 DUP3 ADD MLOAD PUSH1 0x6 DUP3 ADD SSTORE PUSH1 0xE0 SWAP1 SWAP2 ADD MLOAD PUSH1 0x7 SWAP1 SWAP2 ADD SSTORE POP JUMP JUMPDEST DUP3 DUP1 SLOAD DUP3 DUP3 SSTORE SWAP1 PUSH1 0x0 MSTORE PUSH1 0x20 PUSH1 0x0 KECCAK256 SWAP1 DUP2 ADD SWAP3 DUP3 ISZERO PUSH2 0x22BE JUMPI SWAP2 PUSH1 0x20 MUL DUP3 ADD JUMPDEST DUP3 DUP2 GT ISZERO PUSH2 0x22BE JUMPI DUP3 MLOAD DUP3 SWAP1 PUSH2 0x22AE SWAP1 DUP3 PUSH2 0x2AC0 JUMP JUMPDEST POP SWAP2 PUSH1 0x20 ADD SWAP2 SWAP1 PUSH1 0x1 ADD SWAP1 PUSH2 0x2298 JUMP JUMPDEST POP PUSH2 0x22CA SWAP3 SWAP2 POP PUSH2 0x22CE JUMP JUMPDEST POP SWAP1 JUMP JUMPDEST DUP1 DUP3 GT ISZERO PUSH2 0x22CA JUMPI PUSH1 0x0 PUSH2 0x22E2 DUP3 DUP3 PUSH2 0x22EB JUMP JUMPDEST POP PUSH1 0x1 ADD PUSH2 0x22CE JUMP JUMPDEST POP DUP1 SLOAD PUSH2 0x22F7 SWAP1 PUSH2 0x2981 JUMP JUMPDEST PUSH1 0x0 DUP3 SSTORE DUP1 PUSH1 0x1F LT PUSH2 0x2307 JUMPI POP POP JUMP JUMPDEST PUSH1 0x1F ADD PUSH1 0x20 SWAP1 DIV SWAP1 PUSH1 0x0 MSTORE PUSH1 0x20 PUSH1 0x0 KECCAK256 SWAP1 DUP2 ADD SWAP1 PUSH2 0x2054 SWAP2 SWAP1 JUMPDEST DUP1 DUP3 GT ISZERO PUSH2 0x22CA JUMPI PUSH1 0x0 DUP2 SSTORE PUSH1 0x1 ADD PUSH2 0x2321 JUMP JUMPDEST PUSH1 0x0 PUSH1 0x20 DUP3 DUP5 SUB SLT ISZERO PUSH2 0x2347 JUMPI PUSH1 0x0 DUP1 REVERT JUMPDEST POP CALLDATALOAD SWAP2 SWAP1 POP JUMP JUMPDEST PUSH1 0x20 DUP1 DUP3 MSTORE DUP3 MLOAD DUP3 DUP3 ADD DUP2 SWAP1 MSTORE PUSH1 0x0 SWAP2 SWAP1 DUP5 DUP3 ADD SWAP1 PUSH1 0x40 DUP6 ADD SWAP1 DUP5 JUMPDEST DUP2 DUP2 LT ISZERO PUSH2 0x2386 JUMPI DUP4 MLOAD DUP4 MSTORE SWAP3 DUP5 ADD SWAP3 SWAP2 DUP5 ADD SWAP2 PUSH1 0x1 ADD PUSH2 0x236A JUMP JUMPDEST POP SWAP1 SWAP7 SWAP6 POP POP POP POP POP POP JUMP JUMPDEST PUSH1 0x0 PUSH1 0x20 DUP3 DUP5 SUB SLT ISZERO PUSH2 0x23A4 JUMPI PUSH1 0x0 DUP1 REVERT JUMPDEST DUP2 CALLDATALOAD PUSH1 0x1 PUSH1 0x1 PUSH1 0xA0 SHL SUB DUP2 AND DUP2 EQ PUSH2 0x23BB JUMPI PUSH1 0x0 DUP1 REVERT JUMPDEST SWAP4 SWAP3 POP POP POP JUMP JUMPDEST PUSH1 0x0 JUMPDEST DUP4 DUP2 LT ISZERO PUSH2 0x23DD JUMPI DUP2 DUP2 ADD MLOAD DUP4 DUP3 ADD MSTORE PUSH1 0x20 ADD PUSH2 0x23C5 JUMP JUMPDEST POP POP PUSH1 0x0 SWAP2 ADD MSTORE JUMP JUMPDEST PUSH1 0x0 DUP2 MLOAD DUP1 DUP5 MSTORE PUSH2 0x23FE DUP2 PUSH1 0x20 DUP7 ADD PUSH1 0x20 DUP7 ADD PUSH2 0x23C2 JUMP JUMPDEST PUSH1 0x1F ADD PUSH1 0x1F NOT AND SWAP3 SWAP1 SWAP3 ADD PUSH1 0x20 ADD SWAP3 SWAP2 POP POP JUMP JUMPDEST PUSH1 0x20 DUP2 MSTORE PUSH1 0x0 PUSH2 0x23BB PUSH1 0x20 DUP4 ADD DUP5 PUSH2 0x23E6 JUMP JUMPDEST PUSH1 0x0 DUP1 DUP4 PUSH1 0x1F DUP5 ADD SLT PUSH2 0x2437 JUMPI PUSH1 0x0 DUP1 REVERT JUMPDEST POP DUP2 CALLDATALOAD PUSH8 0xFFFFFFFFFFFFFFFF DUP2 GT ISZERO PUSH2 0x244F JUMPI PUSH1 0x0 DUP1 REVERT JUMPDEST PUSH1 0x20 DUP4 ADD SWAP2 POP DUP4 PUSH1 0x20 DUP3 DUP6 ADD ADD GT ISZERO PUSH2 0x2467 JUMPI PUSH1 0x0 DUP1 REVERT JUMPDEST SWAP3 POP SWAP3 SWAP1 POP JUMP JUMPDEST PUSH1 0x0 DUP1 DUP4 PUSH1 0x1F DUP5 ADD SLT PUSH2 0x2480 JUMPI PUSH1 0x0 DUP1 REVERT JUMPDEST POP DUP2 CALLDATALOAD PUSH8 0xFFFFFFFFFFFFFFFF DUP2 GT ISZERO PUSH2 0x2498 JUMPI PUSH1 0x0 DUP1 REVERT JUMPDEST PUSH1 0x20 DUP4 ADD SWAP2 POP DUP4 PUSH1 0x20 DUP3 PUSH1 0x5 SHL DUP6 ADD ADD GT ISZERO PUSH2 0x2467 JUMPI PUSH1 0x0 DUP1 REVERT JUMPDEST PUSH1 0x0 DUP1 PUSH1 0x0 DUP1 PUSH1 0x0 DUP1 PUSH1 0x0 DUP1 PUSH1 0x0 DUP1 PUSH1 0x0 PUSH1 0xC0 DUP13 DUP15 SUB SLT ISZERO PUSH2 0x24D4 JUMPI PUSH1 0x0 DUP1 REVERT JUMPDEST PUSH8 0xFFFFFFFFFFFFFFFF DUP1 DUP14 CALLDATALOAD GT ISZERO PUSH2 0x24EB JUMPI PUSH1 0x0 DUP1 REVERT JUMPDEST PUSH2 0x24F8 DUP15 DUP15 CALLDATALOAD DUP16 ADD PUSH2 0x2425 JUMP JUMPDEST SWAP1 SWAP13 POP SWAP11 POP PUSH1 0x20 DUP14 ADD CALLDATALOAD DUP2 LT ISZERO PUSH2 0x250E JUMPI PUSH1 0x0 DUP1 REVERT JUMPDEST PUSH2 0x251E DUP15 PUSH1 0x20 DUP16 ADD CALLDATALOAD DUP16 ADD PUSH2 0x2425 JUMP JUMPDEST SWAP1 SWAP11 POP SWAP9 POP PUSH1 0x40 DUP14 ADD CALLDATALOAD DUP2 LT ISZERO PUSH2 0x2534 JUMPI PUSH1 0x0 DUP1 REVERT JUMPDEST PUSH2 0x2544 DUP15 PUSH1 0x40 DUP16 ADD CALLDATALOAD DUP16 ADD PUSH2 0x2425 JUMP JUMPDEST SWAP1 SWAP9 POP SWAP7 POP PUSH1 0x60 DUP14 ADD CALLDATALOAD DUP2 LT ISZERO PUSH2 0x255A JUMPI PUSH1 0x0 DUP1 REVERT JUMPDEST PUSH2 0x256A DUP15 PUSH1 0x60 DUP16 ADD CALLDATALOAD DUP16 ADD PUSH2 0x2425 JUMP JUMPDEST SWAP1 SWAP7 POP SWAP5 POP PUSH1 0x80 DUP14 ADD CALLDATALOAD SWAP4 POP PUSH1 0xA0 DUP14 ADD CALLDATALOAD DUP2 LT ISZERO PUSH2 0x2587 JUMPI PUSH1 0x0 DUP1 REVERT JUMPDEST POP PUSH2 0x2598 DUP14 PUSH1 0xA0 DUP15 ADD CALLDATALOAD DUP15 ADD PUSH2 0x246E JUMP JUMPDEST DUP2 SWAP4 POP DUP1 SWAP3 POP POP POP SWAP3 SWAP6 SWAP9 SWAP12 POP SWAP3 SWAP6 SWAP9 SWAP12 SWAP1 SWAP4 SWAP7 SWAP10 POP JUMP JUMPDEST PUSH1 0x0 PUSH1 0x20 DUP1 DUP4 ADD DUP2 DUP5 MSTORE DUP1 DUP6 MLOAD DUP1 DUP4 MSTORE PUSH1 0x40 SWAP3 POP PUSH1 0x40 DUP7 ADD SWAP2 POP PUSH1 0x40 DUP2 PUSH1 0x5 SHL DUP8 ADD ADD DUP5 DUP9 ADD PUSH1 0x0 JUMPDEST DUP4 DUP2 LT ISZERO PUSH2 0x2638 JUMPI PUSH1 0x3F NOT DUP10 DUP5 SUB ADD DUP6 MSTORE DUP2 MLOAD PUSH1 0x80 PUSH1 0x1 PUSH1 0x1 PUSH1 0xA0 SHL SUB DUP3 MLOAD AND DUP6 MSTORE DUP9 DUP3 ADD MLOAD DUP2 DUP11 DUP8 ADD MSTORE PUSH2 0x2610 DUP3 DUP8 ADD DUP3 PUSH2 0x23E6 JUMP JUMPDEST DUP4 DUP11 ADD MLOAD DUP8 DUP12 ADD MSTORE PUSH1 0x60 SWAP4 DUP5 ADD MLOAD SWAP4 SWAP1 SWAP7 ADD SWAP3 SWAP1 SWAP3 MSTORE POP POP SWAP4 DUP7 ADD SWAP4 SWAP1 DUP7 ADD SWAP1 PUSH1 0x1 ADD PUSH2 0x25D9 JUMP JUMPDEST POP SWAP1 SWAP9 SWAP8 POP POP POP POP POP POP POP POP JUMP JUMPDEST PUSH1 0x0 DUP3 DUP3 MLOAD DUP1 DUP6 MSTORE PUSH1 0x20 DUP1 DUP7 ADD SWAP6 POP PUSH1 0x20 DUP3 PUSH1 0x5 SHL DUP5 ADD ADD PUSH1 0x20 DUP7 ADD PUSH1 0x0 JUMPDEST DUP5 DUP2 LT ISZERO PUSH2 0x2693 JUMPI PUSH1 0x1F NOT DUP7 DUP5 SUB ADD DUP10 MSTORE PUSH2 0x2681 DUP4 DUP4 MLOAD PUSH2 0x23E6 JUMP JUMPDEST SWAP9 DUP5 ADD SWAP9 SWAP3 POP SWAP1 DUP4 ADD SWAP1 PUSH1 0x1 ADD PUSH2 0x2665 JUMP JUMPDEST POP SWAP1 SWAP8 SWAP7 POP POP POP POP POP POP POP JUMP JUMPDEST PUSH1 0x0 PUSH2 0x100 DUP3 MLOAD DUP5 MSTORE PUSH1 0x20 DUP4 ADD MLOAD DUP2 PUSH1 0x20 DUP7 ADD MSTORE PUSH2 0x26C0 DUP3 DUP7 ADD DUP3 PUSH2 0x23E6 JUMP JUMPDEST SWAP2 POP POP PUSH1 0x40 DUP4 ADD MLOAD DUP5 DUP3 SUB PUSH1 0x40 DUP7 ADD MSTORE PUSH2 0x26DA DUP3 DUP3 PUSH2 0x23E6 JUMP JUMPDEST SWAP2 POP POP PUSH1 0x60 DUP4 ADD MLOAD DUP5 DUP3 SUB PUSH1 0x60 DUP7 ADD MSTORE PUSH2 0x26F4 DUP3 DUP3 PUSH2 0x23E6 JUMP JUMPDEST SWAP2 POP POP PUSH1 0x80 DUP4 ADD MLOAD DUP5 DUP3 SUB PUSH1 0x80 DUP7 ADD MSTORE PUSH2 0x270E DUP3 DUP3 PUSH2 0x23E6 JUMP JUMPDEST SWAP2 POP POP PUSH1 0xA0 DUP4 ADD MLOAD DUP5 DUP3 SUB PUSH1 0xA0 DUP7 ADD MSTORE PUSH2 0x2728 DUP3 DUP3 PUSH2 0x2646 JUMP JUMPDEST SWAP2 POP POP PUSH1 0xC0 DUP4 ADD MLOAD PUSH1 0xC0 DUP6 ADD MSTORE PUSH1 0xE0 DUP4 ADD MLOAD PUSH1 0xE0 DUP6 ADD MSTORE DUP1 SWAP2 POP POP SWAP3 SWAP2 POP POP JUMP JUMPDEST PUSH1 0x20 DUP2 MSTORE PUSH1 0x0 PUSH2 0x23BB PUSH1 0x20 DUP4 ADD DUP5 PUSH2 0x26A0 JUMP JUMPDEST PUSH1 0x0 DUP1 PUSH1 0x0 PUSH1 0x40 DUP5 DUP7 SUB SLT ISZERO PUSH2 0x2771 JUMPI PUSH1 0x0 DUP1 REVERT JUMPDEST DUP4 CALLDATALOAD SWAP3 POP PUSH1 0x20 DUP5 ADD CALLDATALOAD PUSH8 0xFFFFFFFFFFFFFFFF DUP2 GT ISZERO PUSH2 0x278F JUMPI PUSH1 0x0 DUP1 REVERT JUMPDEST PUSH2 0x279B DUP7 DUP3 DUP8 ADD PUSH2 0x246E JUMP JUMPDEST SWAP5 SWAP8 SWAP1 SWAP7 POP SWAP4 SWAP5 POP POP POP POP JUMP JUMPDEST PUSH4 0x4E487B71 PUSH1 0xE0 SHL PUSH1 0x0 MSTORE PUSH1 0x41 PUSH1 0x4 MSTORE PUSH1 0x24 PUSH1 0x0 REVERT JUMPDEST PUSH1 0x40 MLOAD PUSH1 0x1F DUP3 ADD PUSH1 0x1F NOT AND DUP2 ADD PUSH8 0xFFFFFFFFFFFFFFFF DUP2 GT DUP3 DUP3 LT OR ISZERO PUSH2 0x27E7 JUMPI PUSH2 0x27E7 PUSH2 0x27A8 JUMP JUMPDEST PUSH1 0x40 MSTORE SWAP2 SWAP1 POP JUMP JUMPDEST PUSH1 0x0 DUP3 PUSH1 0x1F DUP4 ADD SLT PUSH2 0x2800 JUMPI PUSH1 0x0 DUP1 REVERT JUMPDEST DUP2 CALLDATALOAD PUSH8 0xFFFFFFFFFFFFFFFF DUP2 GT ISZERO PUSH2 0x281A JUMPI PUSH2 0x281A PUSH2 0x27A8 JUMP JUMPDEST PUSH2 0x282D PUSH1 0x1F DUP3 ADD PUSH1 0x1F NOT AND PUSH1 0x20 ADD PUSH2 0x27BE JUMP JUMPDEST DUP2 DUP2 MSTORE DUP5 PUSH1 0x20 DUP4 DUP7 ADD ADD GT ISZERO PUSH2 0x2842 JUMPI PUSH1 0x0 DUP1 REVERT JUMPDEST DUP2 PUSH1 0x20 DUP6 ADD PUSH1 0x20 DUP4 ADD CALLDATACOPY PUSH1 0x0 SWAP2 DUP2 ADD PUSH1 0x20 ADD SWAP2 SWAP1 SWAP2 MSTORE SWAP4 SWAP3 POP POP POP JUMP JUMPDEST PUSH1 0x0 PUSH1 0x20 DUP3 DUP5 SUB SLT ISZERO PUSH2 0x2871 JUMPI PUSH1 0x0 DUP1 REVERT JUMPDEST DUP2 CALLDATALOAD PUSH8 0xFFFFFFFFFFFFFFFF DUP2 GT ISZERO PUSH2 0x2888 JUMPI PUSH1 0x0 DUP1 REVERT JUMPDEST PUSH2 0x2894 DUP5 DUP3 DUP6 ADD PUSH2 0x27EF JUMP JUMPDEST SWAP5 SWAP4 POP POP POP POP JUMP JUMPDEST PUSH1 0x0 PUSH1 0x20 DUP1 DUP4 ADD PUSH1 0x20 DUP5 MSTORE DUP1 DUP6 MLOAD DUP1 DUP4 MSTORE PUSH1 0x40 DUP7 ADD SWAP2 POP PUSH1 0x40 DUP2 PUSH1 0x5 SHL DUP8 ADD ADD SWAP3 POP PUSH1 0x20 DUP8 ADD PUSH1 0x0 JUMPDEST DUP3 DUP2 LT ISZERO PUSH2 0x28F3 JUMPI PUSH1 0x3F NOT DUP9 DUP7 SUB ADD DUP5 MSTORE PUSH2 0x28E1 DUP6 DUP4 MLOAD PUSH2 0x26A0 JUMP JUMPDEST SWAP5 POP SWAP3 DUP6 ADD SWAP3 SWAP1 DUP6 ADD SWAP1 PUSH1 0x1 ADD PUSH2 0x28C5 JUMP JUMPDEST POP SWAP3 SWAP8 SWAP7 POP POP POP POP POP POP POP JUMP JUMPDEST PUSH1 0x0 DUP1 PUSH1 0x20 DUP4 DUP6 SUB SLT ISZERO PUSH2 0x2913 JUMPI PUSH1 0x0 DUP1 REVERT JUMPDEST DUP3 CALLDATALOAD PUSH8 0xFFFFFFFFFFFFFFFF DUP2 GT ISZERO PUSH2 0x292A JUMPI PUSH1 0x0 DUP1 REVERT JUMPDEST PUSH2 0x2936 DUP6 DUP3 DUP7 ADD PUSH2 0x2425 JUMP JUMPDEST SWAP1 SWAP7 SWAP1 SWAP6 POP SWAP4 POP POP POP POP JUMP JUMPDEST PUSH1 0x0 DUP1 PUSH1 0x0 PUSH1 0x40 DUP5 DUP7 SUB SLT ISZERO PUSH2 0x2957 JUMPI PUSH1 0x0 DUP1 REVERT JUMPDEST DUP4 CALLDATALOAD SWAP3 POP PUSH1 0x20 DUP5 ADD CALLDATALOAD PUSH8 0xFFFFFFFFFFFFFFFF DUP2 GT ISZERO PUSH2 0x2975 JUMPI PUSH1 0x0 DUP1 REVERT JUMPDEST PUSH2 0x279B DUP7 DUP3 DUP8 ADD PUSH2 0x2425 JUMP JUMPDEST PUSH1 0x1 DUP2 DUP2 SHR SWAP1 DUP3 AND DUP1 PUSH2 0x2995 JUMPI PUSH1 0x7F DUP3 AND SWAP2 POP JUMPDEST PUSH1 0x20 DUP3 LT DUP2 SUB PUSH2 0x29B5 JUMPI PUSH4 0x4E487B71 PUSH1 0xE0 SHL PUSH1 0x0 MSTORE PUSH1 0x22 PUSH1 0x4 MSTORE PUSH1 0x24 PUSH1 0x0 REVERT JUMPDEST POP SWAP2 SWAP1 POP JUMP JUMPDEST PUSH4 0x4E487B71 PUSH1 0xE0 SHL PUSH1 0x0 MSTORE PUSH1 0x11 PUSH1 0x4 MSTORE PUSH1 0x24 PUSH1 0x0 REVERT JUMPDEST PUSH1 0x0 PUSH1 0x1 DUP3 ADD PUSH2 0x29E3 JUMPI PUSH2 0x29E3 PUSH2 0x29BB JUMP JUMPDEST POP PUSH1 0x1 ADD SWAP1 JUMP JUMPDEST PUSH1 0x0 PUSH8 0xFFFFFFFFFFFFFFFF DUP1 DUP5 GT ISZERO PUSH2 0x2A05 JUMPI PUSH2 0x2A05 PUSH2 0x27A8 JUMP JUMPDEST DUP4 PUSH1 0x5 SHL PUSH1 0x20 PUSH2 0x2A17 PUSH1 0x20 DUP4 ADD PUSH2 0x27BE JUMP JUMPDEST DUP7 DUP2 MSTORE SWAP2 DUP6 ADD SWAP2 PUSH1 0x20 DUP2 ADD SWAP1 CALLDATASIZE DUP5 GT ISZERO PUSH2 0x2A30 JUMPI PUSH1 0x0 DUP1 REVERT JUMPDEST DUP7 JUMPDEST DUP5 DUP2 LT ISZERO PUSH2 0x2A64 JUMPI DUP1 CALLDATALOAD DUP7 DUP2 GT ISZERO PUSH2 0x2A4A JUMPI PUSH1 0x0 DUP1 DUP2 REVERT JUMPDEST PUSH2 0x2A56 CALLDATASIZE DUP3 DUP12 ADD PUSH2 0x27EF JUMP JUMPDEST DUP5 MSTORE POP SWAP2 DUP4 ADD SWAP2 DUP4 ADD PUSH2 0x2A32 JUMP JUMPDEST POP SWAP8 SWAP7 POP POP POP POP POP POP POP JUMP JUMPDEST PUSH1 0x1F DUP3 GT ISZERO PUSH2 0x2112 JUMPI PUSH1 0x0 DUP2 PUSH1 0x0 MSTORE PUSH1 0x20 PUSH1 0x0 KECCAK256 PUSH1 0x1F DUP6 ADD PUSH1 0x5 SHR DUP2 ADD PUSH1 0x20 DUP7 LT ISZERO PUSH2 0x2A99 JUMPI POP DUP1 JUMPDEST PUSH1 0x1F DUP6 ADD PUSH1 0x5 SHR DUP3 ADD SWAP2 POP JUMPDEST DUP2 DUP2 LT ISZERO PUSH2 0x2AB8 JUMPI DUP3 DUP2 SSTORE PUSH1 0x1 ADD PUSH2 0x2AA5 JUMP JUMPDEST POP POP POP POP POP POP JUMP JUMPDEST DUP2 MLOAD PUSH8 0xFFFFFFFFFFFFFFFF DUP2 GT ISZERO PUSH2 0x2ADA JUMPI PUSH2 0x2ADA PUSH2 0x27A8 JUMP JUMPDEST PUSH2 0x2AEE DUP2 PUSH2 0x2AE8 DUP5 SLOAD PUSH2 0x2981 JUMP JUMPDEST DUP5 PUSH2 0x2A70 JUMP JUMPDEST PUSH1 0x20 DUP1 PUSH1 0x1F DUP4 GT PUSH1 0x1 DUP2 EQ PUSH2 0x2B23 JUMPI PUSH1 0x0 DUP5 ISZERO PUSH2 0x2B0B JUMPI POP DUP6 DUP4 ADD MLOAD JUMPDEST PUSH1 0x0 NOT PUSH1 0x3 DUP7 SWAP1 SHL SHR NOT AND PUSH1 0x1 DUP6 SWAP1 SHL OR DUP6 SSTORE PUSH2 0x2AB8 JUMP JUMPDEST PUSH1 0x0 DUP6 DUP2 MSTORE PUSH1 0x20 DUP2 KECCAK256 PUSH1 0x1F NOT DUP7 AND SWAP2 JUMPDEST DUP3 DUP2 LT ISZERO PUSH2 0x2B52 JUMPI DUP9 DUP7 ADD MLOAD DUP3 SSTORE SWAP5 DUP5 ADD SWAP5 PUSH1 0x1 SWAP1 SWAP2 ADD SWAP1 DUP5 ADD PUSH2 0x2B33 JUMP JUMPDEST POP DUP6 DUP3 LT ISZERO PUSH2 0x2B70 JUMPI DUP8 DUP6 ADD MLOAD PUSH1 0x0 NOT PUSH1 0x3 DUP9 SWAP1 SHL PUSH1 0xF8 AND SHR NOT AND DUP2 SSTORE JUMPDEST POP POP POP POP POP PUSH1 0x1 SWAP1 DUP2 SHL ADD SWAP1 SSTORE POP JUMP JUMPDEST PUSH4 0x4E487B71 PUSH1 0xE0 SHL PUSH1 0x0 MSTORE PUSH1 0x32 PUSH1 0x4 MSTORE PUSH1 0x24 PUSH1 0x0 REVERT JUMPDEST PUSH1 0x0 DUP3 MLOAD PUSH2 0x2BA8 DUP2 DUP5 PUSH1 0x20 DUP8 ADD PUSH2 0x23C2 JUMP JUMPDEST SWAP2 SWAP1 SWAP2 ADD SWAP3 SWAP2 POP POP JUMP JUMPDEST DUP1 DUP3 ADD DUP1 DUP3 GT ISZERO PUSH2 0x2BC5 JUMPI PUSH2 0x2BC5 PUSH2 0x29BB JUMP JUMPDEST SWAP3 SWAP2 POP POP JUMP JUMPDEST PUSH8 0xFFFFFFFFFFFFFFFF DUP4 GT ISZERO PUSH2 0x2BE3 JUMPI PUSH2 0x2BE3 PUSH2 0x27A8 JUMP JUMPDEST PUSH2 0x2BF7 DUP4 PUSH2 0x2BF1 DUP4 SLOAD PUSH2 0x2981 JUMP JUMPDEST DUP4 PUSH2 0x2A70 JUMP JUMPDEST PUSH1 0x0 PUSH1 0x1F DUP5 GT PUSH1 0x1 DUP2 EQ PUSH2 0x2C2B JUMPI PUSH1 0x0 DUP6 ISZERO PUSH2 0x2C13 JUMPI POP DUP4 DUP3 ADD CALLDATALOAD JUMPDEST PUSH1 0x0 NOT PUSH1 0x3 DUP8 SWAP1 SHL SHR NOT AND PUSH1 0x1 DUP7 SWAP1 SHL OR DUP4 SSTORE PUSH2 0x2C85 JUMP JUMPDEST PUSH1 0x0 DUP4 DUP2 MSTORE PUSH1 0x20 SWAP1 KECCAK256 PUSH1 0x1F NOT DUP7 AND SWAP1 DUP4 JUMPDEST DUP3 DUP2 LT ISZERO PUSH2 0x2C5C JUMPI DUP7 DUP6 ADD CALLDATALOAD DUP3 SSTORE PUSH1 0x20 SWAP5 DUP6 ADD SWAP5 PUSH1 0x1 SWAP1 SWAP3 ADD SWAP2 ADD PUSH2 0x2C3C JUMP JUMPDEST POP DUP7 DUP3 LT ISZERO PUSH2 0x2C79 JUMPI PUSH1 0x0 NOT PUSH1 0xF8 DUP9 PUSH1 0x3 SHL AND SHR NOT DUP5 DUP8 ADD CALLDATALOAD AND DUP2 SSTORE JUMPDEST POP POP PUSH1 0x1 DUP6 PUSH1 0x1 SHL ADD DUP4 SSTORE JUMPDEST POP POP POP POP POP JUMP JUMPDEST DUP2 DUP4 DUP3 CALLDATACOPY PUSH1 0x0 SWAP2 ADD SWAP1 DUP2 MSTORE SWAP2 SWAP1 POP JUMP JUMPDEST DUP2 DUP2 SUB DUP2 DUP2 GT ISZERO PUSH2 0x2BC5 JUMPI PUSH2 0x2BC5 PUSH2 0x29BB JUMP JUMPDEST DUP1 DUP3 MUL DUP2 ISZERO DUP3 DUP3 DIV DUP5 EQ OR PUSH2 0x2BC5 JUMPI PUSH2 0x2BC5 PUSH2 0x29BB JUMP JUMPDEST PUSH1 0x0 DUP3 PUSH2 0x2CE3 JUMPI PUSH4 0x4E487B71 PUSH1 0xE0 SHL PUSH1 0x0 MSTORE PUSH1 0x12 PUSH1 0x4 MSTORE PUSH1 0x24 PUSH1 0x0 REVERT JUMPDEST POP DIV SWAP1 JUMP INVALID LOG2 PUSH5 0x6970667358 0x22 SLT KECCAK256 DUP3 0x1F 0x1E 0xD3 0xF8 0xBC CALLDATACOPY DUP13 0xE 0x2D 0xC3 0xE1 0xD6 0xF PUSH23 0xFD7BFE66DBD0D65595D393F1A61CE2EEC164736F6C6343 STOP ADDMOD AND STOP CALLER "
        },
        "methodIdentifiers": {
          "addAdmin(address)": "70480275",
          "addComment(uint256,string)": "aa7e5683",
          "addVideo(string,string,string,string,uint256,string[])": "210e07df",
          "adminDeleteVideo(uint256)": "413cf029",
          "deleteVideo(uint256)": "d4ab873e",
          "getAddressNearID(address)": "087f44fd",
          "getAttributions(uint256)": "051cb30d",
          "getComments(uint256)": "23edf697",
          "getLatestVideos(uint256)": "8799bd74",
          "getOwner()": "893d20e8",
          "getVideo(uint256)": "2893eca2",
          "getVideoByNearID(string)": "5eaecd12",
          "setAttributions(uint256,uint256[])": "38abafa0",
          "setNearID(string)": "60c736cd"
        }
      }
    }
  }
}