{
  "contracts/KAP721/modules/sdk/AtomicKAP721.sol": {
    "AtomicKAP721": {
      "abi": [
        {
          "inputs": [
            {
              "internalType": "string",
              "name": "_name",
              "type": "string"
            },
            {
              "internalType": "string",
              "name": "_symbol",
              "type": "string"
            },
            {
              "internalType": "string",
              "name": "_baseURI",
              "type": "string"
            },
            {
              "internalType": "address",
              "name": "_kyc",
              "type": "address"
            },
            {
              "internalType": "address",
              "name": "_committee",
              "type": "address"
            },
            {
              "internalType": "address",
              "name": "_transferRouter",
              "type": "address"
            },
            {
              "internalType": "address",
              "name": "_executorEnv",
              "type": "address"
            },
            {
              "internalType": "uint256",
              "name": "_acceptedKycLevel",
              "type": "uint256"
            },
            {
              "internalType": "string",
              "name": "_envId",
              "type": "string"
            }
          ],
          "stateMutability": "nonpayable",
          "type": "constructor"
        },
        {
          "anonymous": false,
          "inputs": [
            {
              "indexed": true,
              "internalType": "address",
              "name": "owner",
              "type": "address"
            },
            {
              "indexed": true,
              "internalType": "address",
              "name": "approved",
              "type": "address"
            },
            {
              "indexed": true,
              "internalType": "uint256",
              "name": "tokenId",
              "type": "uint256"
            }
          ],
          "name": "Approval",
          "type": "event"
        },
        {
          "anonymous": false,
          "inputs": [
            {
              "indexed": true,
              "internalType": "address",
              "name": "owner",
              "type": "address"
            },
            {
              "indexed": true,
              "internalType": "address",
              "name": "operator",
              "type": "address"
            },
            {
              "indexed": false,
              "internalType": "bool",
              "name": "approved",
              "type": "bool"
            }
          ],
          "name": "ApprovalForAll",
          "type": "event"
        },
        {
          "anonymous": false,
          "inputs": [
            {
              "indexed": true,
              "internalType": "address",
              "name": "oldCommittee",
              "type": "address"
            },
            {
              "indexed": true,
              "internalType": "address",
              "name": "newCommittee",
              "type": "address"
            },
            {
              "indexed": true,
              "internalType": "address",
              "name": "caller",
              "type": "address"
            }
          ],
          "name": "CommitteeSet",
          "type": "event"
        },
        {
          "anonymous": false,
          "inputs": [
            {
              "indexed": true,
              "internalType": "address",
              "name": "oldExecutorEnv",
              "type": "address"
            },
            {
              "indexed": true,
              "internalType": "address",
              "name": "newExecutorEnv",
              "type": "address"
            },
            {
              "indexed": true,
              "internalType": "address",
              "name": "caller",
              "type": "address"
            }
          ],
          "name": "ExecutorEnvSet",
          "type": "event"
        },
        {
          "anonymous": false,
          "inputs": [
            {
              "indexed": true,
              "internalType": "address",
              "name": "operator",
              "type": "address"
            },
            {
              "indexed": false,
              "internalType": "string",
              "name": "_tokenURI",
              "type": "string"
            },
            {
              "indexed": false,
              "internalType": "uint256",
              "name": "_tokenId",
              "type": "uint256"
            }
          ],
          "name": "MintWithMetadata",
          "type": "event"
        },
        {
          "anonymous": false,
          "inputs": [
            {
              "indexed": true,
              "internalType": "address",
              "name": "operator",
              "type": "address"
            },
            {
              "indexed": false,
              "internalType": "string[]",
              "name": "_tokenURIs",
              "type": "string[]"
            },
            {
              "indexed": false,
              "internalType": "uint256[]",
              "name": "_tokenIds",
              "type": "uint256[]"
            }
          ],
          "name": "MintWithMetadataBatch",
          "type": "event"
        },
        {
          "anonymous": false,
          "inputs": [
            {
              "indexed": true,
              "internalType": "address",
              "name": "previousOwner",
              "type": "address"
            },
            {
              "indexed": true,
              "internalType": "address",
              "name": "newOwner",
              "type": "address"
            }
          ],
          "name": "OwnershipTransferred",
          "type": "event"
        },
        {
          "anonymous": false,
          "inputs": [
            {
              "indexed": false,
              "internalType": "address",
              "name": "account",
              "type": "address"
            }
          ],
          "name": "Paused",
          "type": "event"
        },
        {
          "anonymous": false,
          "inputs": [
            {
              "indexed": true,
              "internalType": "address",
              "name": "from",
              "type": "address"
            },
            {
              "indexed": true,
              "internalType": "address",
              "name": "to",
              "type": "address"
            },
            {
              "indexed": true,
              "internalType": "uint256",
              "name": "tokenId",
              "type": "uint256"
            }
          ],
          "name": "Transfer",
          "type": "event"
        },
        {
          "anonymous": false,
          "inputs": [
            {
              "indexed": true,
              "internalType": "address",
              "name": "oldTransferRouter",
              "type": "address"
            },
            {
              "indexed": true,
              "internalType": "address",
              "name": "newTransferRouter",
              "type": "address"
            },
            {
              "indexed": true,
              "internalType": "address",
              "name": "caller",
              "type": "address"
            }
          ],
          "name": "TransferRouterSet",
          "type": "event"
        },
        {
          "anonymous": false,
          "inputs": [
            {
              "indexed": false,
              "internalType": "address",
              "name": "account",
              "type": "address"
            }
          ],
          "name": "Unpaused",
          "type": "event"
        },
        {
          "anonymous": false,
          "inputs": [
            {
              "indexed": true,
              "internalType": "uint256",
              "name": "id",
              "type": "uint256"
            }
          ],
          "name": "Uri",
          "type": "event"
        },
        {
          "inputs": [],
          "name": "acceptedKycLevel",
          "outputs": [
            {
              "internalType": "uint256",
              "name": "",
              "type": "uint256"
            }
          ],
          "stateMutability": "view",
          "type": "function"
        },
        {
          "inputs": [],
          "name": "activateOnlyKycAddress",
          "outputs": [],
          "stateMutability": "nonpayable",
          "type": "function"
        },
        {
          "inputs": [
            {
              "internalType": "address",
              "name": "_from",
              "type": "address"
            },
            {
              "internalType": "address",
              "name": "_to",
              "type": "address"
            },
            {
              "internalType": "uint256",
              "name": "_tokenId",
              "type": "uint256"
            }
          ],
          "name": "adminTransfer",
          "outputs": [],
          "stateMutability": "nonpayable",
          "type": "function"
        },
        {
          "inputs": [
            {
              "internalType": "address",
              "name": "to",
              "type": "address"
            },
            {
              "internalType": "uint256",
              "name": "tokenId",
              "type": "uint256"
            }
          ],
          "name": "approve",
          "outputs": [],
          "stateMutability": "nonpayable",
          "type": "function"
        },
        {
          "inputs": [
            {
              "internalType": "address",
              "name": "_operator",
              "type": "address"
            },
            {
              "internalType": "uint256",
              "name": "_tokenId",
              "type": "uint256"
            }
          ],
          "name": "approveBySDK",
          "outputs": [
            {
              "internalType": "bool",
              "name": "",
              "type": "bool"
            }
          ],
          "stateMutability": "nonpayable",
          "type": "function"
        },
        {
          "inputs": [
            {
              "internalType": "address",
              "name": "owner",
              "type": "address"
            }
          ],
          "name": "balanceOf",
          "outputs": [
            {
              "internalType": "uint256",
              "name": "",
              "type": "uint256"
            }
          ],
          "stateMutability": "view",
          "type": "function"
        },
        {
          "inputs": [],
          "name": "baseURI",
          "outputs": [
            {
              "internalType": "string",
              "name": "",
              "type": "string"
            }
          ],
          "stateMutability": "view",
          "type": "function"
        },
        {
          "inputs": [
            {
              "internalType": "uint256",
              "name": "_tokenId",
              "type": "uint256"
            }
          ],
          "name": "burn",
          "outputs": [],
          "stateMutability": "nonpayable",
          "type": "function"
        },
        {
          "inputs": [],
          "name": "committee",
          "outputs": [
            {
              "internalType": "address",
              "name": "",
              "type": "address"
            }
          ],
          "stateMutability": "view",
          "type": "function"
        },
        {
          "inputs": [],
          "name": "envId",
          "outputs": [
            {
              "internalType": "string",
              "name": "",
              "type": "string"
            }
          ],
          "stateMutability": "view",
          "type": "function"
        },
        {
          "inputs": [],
          "name": "executorEnv",
          "outputs": [
            {
              "internalType": "contract IExecutorEnv",
              "name": "",
              "type": "address"
            }
          ],
          "stateMutability": "view",
          "type": "function"
        },
        {
          "inputs": [
            {
              "internalType": "uint256",
              "name": "_tokenId",
              "type": "uint256"
            }
          ],
          "name": "exists",
          "outputs": [
            {
              "internalType": "bool",
              "name": "",
              "type": "bool"
            }
          ],
          "stateMutability": "view",
          "type": "function"
        },
        {
          "inputs": [
            {
              "internalType": "address",
              "name": "sender",
              "type": "address"
            },
            {
              "internalType": "address",
              "name": "recipient",
              "type": "address"
            },
            {
              "internalType": "uint256",
              "name": "tokenId",
              "type": "uint256"
            }
          ],
          "name": "externalTransfer",
          "outputs": [
            {
              "internalType": "bool",
              "name": "",
              "type": "bool"
            }
          ],
          "stateMutability": "nonpayable",
          "type": "function"
        },
        {
          "inputs": [
            {
              "internalType": "uint256",
              "name": "tokenId",
              "type": "uint256"
            }
          ],
          "name": "getApproved",
          "outputs": [
            {
              "internalType": "address",
              "name": "",
              "type": "address"
            }
          ],
          "stateMutability": "view",
          "type": "function"
        },
        {
          "inputs": [
            {
              "internalType": "address",
              "name": "sender",
              "type": "address"
            },
            {
              "internalType": "address",
              "name": "recipient",
              "type": "address"
            },
            {
              "internalType": "uint256",
              "name": "tokenId",
              "type": "uint256"
            }
          ],
          "name": "internalTransfer",
          "outputs": [
            {
              "internalType": "bool",
              "name": "",
              "type": "bool"
            }
          ],
          "stateMutability": "nonpayable",
          "type": "function"
        },
        {
          "inputs": [],
          "name": "isActivatedOnlyKycAddress",
          "outputs": [
            {
              "internalType": "bool",
              "name": "",
              "type": "bool"
            }
          ],
          "stateMutability": "view",
          "type": "function"
        },
        {
          "inputs": [
            {
              "internalType": "address",
              "name": "owner",
              "type": "address"
            },
            {
              "internalType": "address",
              "name": "operator",
              "type": "address"
            }
          ],
          "name": "isApprovedForAll",
          "outputs": [
            {
              "internalType": "bool",
              "name": "",
              "type": "bool"
            }
          ],
          "stateMutability": "view",
          "type": "function"
        },
        {
          "inputs": [],
          "name": "kyc",
          "outputs": [
            {
              "internalType": "contract IKYCBitkubChain",
              "name": "",
              "type": "address"
            }
          ],
          "stateMutability": "view",
          "type": "function"
        },
        {
          "inputs": [
            {
              "internalType": "address",
              "name": "_to",
              "type": "address"
            },
            {
              "internalType": "uint256",
              "name": "_tokenId",
              "type": "uint256"
            }
          ],
          "name": "mint",
          "outputs": [],
          "stateMutability": "nonpayable",
          "type": "function"
        },
        {
          "inputs": [
            {
              "internalType": "address",
              "name": "_to",
              "type": "address"
            },
            {
              "internalType": "string",
              "name": "_tokenURI",
              "type": "string"
            },
            {
              "internalType": "uint256",
              "name": "_tokenId",
              "type": "uint256"
            }
          ],
          "name": "mintWithMetadata",
          "outputs": [],
          "stateMutability": "nonpayable",
          "type": "function"
        },
        {
          "inputs": [
            {
              "internalType": "address",
              "name": "_to",
              "type": "address"
            },
            {
              "internalType": "string[]",
              "name": "_tokenURIs",
              "type": "string[]"
            },
            {
              "internalType": "uint256[]",
              "name": "_tokenIds",
              "type": "uint256[]"
            }
          ],
          "name": "mintWithMetadataBatch",
          "outputs": [],
          "stateMutability": "nonpayable",
          "type": "function"
        },
        {
          "inputs": [],
          "name": "name",
          "outputs": [
            {
              "internalType": "string",
              "name": "",
              "type": "string"
            }
          ],
          "stateMutability": "view",
          "type": "function"
        },
        {
          "inputs": [],
          "name": "owner",
          "outputs": [
            {
              "internalType": "address",
              "name": "",
              "type": "address"
            }
          ],
          "stateMutability": "view",
          "type": "function"
        },
        {
          "inputs": [
            {
              "internalType": "uint256",
              "name": "tokenId",
              "type": "uint256"
            }
          ],
          "name": "ownerOf",
          "outputs": [
            {
              "internalType": "address",
              "name": "",
              "type": "address"
            }
          ],
          "stateMutability": "view",
          "type": "function"
        },
        {
          "inputs": [],
          "name": "pause",
          "outputs": [],
          "stateMutability": "nonpayable",
          "type": "function"
        },
        {
          "inputs": [],
          "name": "paused",
          "outputs": [
            {
              "internalType": "bool",
              "name": "",
              "type": "bool"
            }
          ],
          "stateMutability": "view",
          "type": "function"
        },
        {
          "inputs": [],
          "name": "renounceOwnership",
          "outputs": [],
          "stateMutability": "nonpayable",
          "type": "function"
        },
        {
          "inputs": [
            {
              "internalType": "address",
              "name": "from",
              "type": "address"
            },
            {
              "internalType": "address",
              "name": "to",
              "type": "address"
            },
            {
              "internalType": "uint256",
              "name": "tokenId",
              "type": "uint256"
            }
          ],
          "name": "safeTransferFrom",
          "outputs": [],
          "stateMutability": "nonpayable",
          "type": "function"
        },
        {
          "inputs": [
            {
              "internalType": "address",
              "name": "from",
              "type": "address"
            },
            {
              "internalType": "address",
              "name": "to",
              "type": "address"
            },
            {
              "internalType": "uint256",
              "name": "tokenId",
              "type": "uint256"
            },
            {
              "internalType": "bytes",
              "name": "_data",
              "type": "bytes"
            }
          ],
          "name": "safeTransferFrom",
          "outputs": [],
          "stateMutability": "nonpayable",
          "type": "function"
        },
        {
          "inputs": [
            {
              "internalType": "uint256",
              "name": "_kycLevel",
              "type": "uint256"
            }
          ],
          "name": "setAcceptedKycLevel",
          "outputs": [],
          "stateMutability": "nonpayable",
          "type": "function"
        },
        {
          "inputs": [
            {
              "internalType": "address",
              "name": "operator",
              "type": "address"
            },
            {
              "internalType": "bool",
              "name": "approved",
              "type": "bool"
            }
          ],
          "name": "setApprovalForAll",
          "outputs": [],
          "stateMutability": "nonpayable",
          "type": "function"
        },
        {
          "inputs": [
            {
              "internalType": "address",
              "name": "_owner",
              "type": "address"
            },
            {
              "internalType": "address",
              "name": "_operator",
              "type": "address"
            },
            {
              "internalType": "bool",
              "name": "_approved",
              "type": "bool"
            }
          ],
          "name": "setApprovalForAllBySDK",
          "outputs": [
            {
              "internalType": "bool",
              "name": "",
              "type": "bool"
            }
          ],
          "stateMutability": "nonpayable",
          "type": "function"
        },
        {
          "inputs": [
            {
              "internalType": "string",
              "name": "_baseURI",
              "type": "string"
            }
          ],
          "name": "setBaseURI",
          "outputs": [],
          "stateMutability": "nonpayable",
          "type": "function"
        },
        {
          "inputs": [
            {
              "internalType": "address",
              "name": "_committee",
              "type": "address"
            }
          ],
          "name": "setCommittee",
          "outputs": [],
          "stateMutability": "nonpayable",
          "type": "function"
        },
        {
          "inputs": [
            {
              "internalType": "address",
              "name": "_executorEnv",
              "type": "address"
            }
          ],
          "name": "setExecutorEnv",
          "outputs": [],
          "stateMutability": "nonpayable",
          "type": "function"
        },
        {
          "inputs": [
            {
              "internalType": "contract IKYCBitkubChain",
              "name": "_kyc",
              "type": "address"
            }
          ],
          "name": "setKyc",
          "outputs": [],
          "stateMutability": "nonpayable",
          "type": "function"
        },
        {
          "inputs": [
            {
              "internalType": "uint256",
              "name": "_tokenId",
              "type": "uint256"
            },
            {
              "internalType": "string",
              "name": "_tokenURI",
              "type": "string"
            }
          ],
          "name": "setTokenURI",
          "outputs": [],
          "stateMutability": "nonpayable",
          "type": "function"
        },
        {
          "inputs": [
            {
              "internalType": "address",
              "name": "_transferRouter",
              "type": "address"
            }
          ],
          "name": "setTransferRouter",
          "outputs": [],
          "stateMutability": "nonpayable",
          "type": "function"
        },
        {
          "inputs": [
            {
              "internalType": "bytes4",
              "name": "interfaceId",
              "type": "bytes4"
            }
          ],
          "name": "supportsInterface",
          "outputs": [
            {
              "internalType": "bool",
              "name": "",
              "type": "bool"
            }
          ],
          "stateMutability": "view",
          "type": "function"
        },
        {
          "inputs": [],
          "name": "symbol",
          "outputs": [
            {
              "internalType": "string",
              "name": "",
              "type": "string"
            }
          ],
          "stateMutability": "view",
          "type": "function"
        },
        {
          "inputs": [
            {
              "internalType": "uint256",
              "name": "index",
              "type": "uint256"
            }
          ],
          "name": "tokenByIndex",
          "outputs": [
            {
              "internalType": "uint256",
              "name": "",
              "type": "uint256"
            }
          ],
          "stateMutability": "view",
          "type": "function"
        },
        {
          "inputs": [
            {
              "internalType": "address",
              "name": "_owner",
              "type": "address"
            }
          ],
          "name": "tokenOfOwnerAll",
          "outputs": [
            {
              "internalType": "uint256[]",
              "name": "",
              "type": "uint256[]"
            }
          ],
          "stateMutability": "view",
          "type": "function"
        },
        {
          "inputs": [
            {
              "internalType": "address",
              "name": "owner",
              "type": "address"
            },
            {
              "internalType": "uint256",
              "name": "index",
              "type": "uint256"
            }
          ],
          "name": "tokenOfOwnerByIndex",
          "outputs": [
            {
              "internalType": "uint256",
              "name": "",
              "type": "uint256"
            }
          ],
          "stateMutability": "view",
          "type": "function"
        },
        {
          "inputs": [
            {
              "internalType": "address",
              "name": "_owner",
              "type": "address"
            },
            {
              "internalType": "uint256",
              "name": "_page",
              "type": "uint256"
            },
            {
              "internalType": "uint256",
              "name": "_limit",
              "type": "uint256"
            }
          ],
          "name": "tokenOfOwnerByPage",
          "outputs": [
            {
              "internalType": "uint256[]",
              "name": "",
              "type": "uint256[]"
            }
          ],
          "stateMutability": "view",
          "type": "function"
        },
        {
          "inputs": [
            {
              "internalType": "uint256",
              "name": "tokenId",
              "type": "uint256"
            }
          ],
          "name": "tokenURI",
          "outputs": [
            {
              "internalType": "string",
              "name": "",
              "type": "string"
            }
          ],
          "stateMutability": "view",
          "type": "function"
        },
        {
          "inputs": [],
          "name": "totalSupply",
          "outputs": [
            {
              "internalType": "uint256",
              "name": "",
              "type": "uint256"
            }
          ],
          "stateMutability": "view",
          "type": "function"
        },
        {
          "inputs": [
            {
              "internalType": "address",
              "name": "from",
              "type": "address"
            },
            {
              "internalType": "address",
              "name": "to",
              "type": "address"
            },
            {
              "internalType": "uint256",
              "name": "tokenId",
              "type": "uint256"
            }
          ],
          "name": "transferFrom",
          "outputs": [],
          "stateMutability": "nonpayable",
          "type": "function"
        },
        {
          "inputs": [
            {
              "internalType": "address",
              "name": "_sender",
              "type": "address"
            },
            {
              "internalType": "address",
              "name": "_recipient",
              "type": "address"
            },
            {
              "internalType": "uint256",
              "name": "_tokenId",
              "type": "uint256"
            }
          ],
          "name": "transferFromBySDK",
          "outputs": [
            {
              "internalType": "bool",
              "name": "",
              "type": "bool"
            }
          ],
          "stateMutability": "nonpayable",
          "type": "function"
        },
        {
          "inputs": [
            {
              "internalType": "address",
              "name": "newOwner",
              "type": "address"
            }
          ],
          "name": "transferOwnership",
          "outputs": [],
          "stateMutability": "nonpayable",
          "type": "function"
        },
        {
          "inputs": [],
          "name": "transferRouter",
          "outputs": [
            {
              "internalType": "address",
              "name": "",
              "type": "address"
            }
          ],
          "stateMutability": "view",
          "type": "function"
        },
        {
          "inputs": [],
          "name": "unpause",
          "outputs": [],
          "stateMutability": "nonpayable",
          "type": "function"
        }
      ],
      "evm": {
        "bytecode": {
          "linkReferences": {},
          "object": "60806040523480156200001157600080fd5b5060405162004a5738038062004a5783398101604081905262000034916200024d565b6003805460ff60a01b1916905582818a8a8a8a8a8a896009620000588882620003ea565b50600a620000678782620003ea565b50600c620000768682620003ea565b50600080546001600160a01b03199081166001600160a01b039687161790915560028054610100600160a81b0319166101009587169590950294909417909355600380549093169190931617905560015550620000de9150620000d890503390565b62000119565b600e80546001600160a01b0319166001600160a01b038416179055600f620001078282620003ea565b505050505050505050505050620004b6565b600d80546001600160a01b038381166001600160a01b0319831681179093556040519116919082907f8be0079c531659141344cd1fd0a4f28419497f9722a3daafe3b4186f6b6457e090600090a35050565b634e487b7160e01b600052604160045260246000fd5b600082601f8301126200019357600080fd5b81516001600160401b0380821115620001b057620001b06200016b565b604051601f8301601f19908116603f01168101908282118183101715620001db57620001db6200016b565b81604052838152602092508683858801011115620001f857600080fd5b600091505b838210156200021c5785820183015181830184015290820190620001fd565b600093810190920192909252949350505050565b80516001600160a01b03811681146200024857600080fd5b919050565b60008060008060008060008060006101208a8c0312156200026d57600080fd5b89516001600160401b03808211156200028557600080fd5b620002938d838e0162000181565b9a5060208c0151915080821115620002aa57600080fd5b620002b88d838e0162000181565b995060408c0151915080821115620002cf57600080fd5b620002dd8d838e0162000181565b9850620002ed60608d0162000230565b9750620002fd60808d0162000230565b96506200030d60a08d0162000230565b95506200031d60c08d0162000230565b945060e08c015193506101008c01519150808211156200033c57600080fd5b506200034b8c828d0162000181565b9150509295985092959850929598565b600181811c908216806200037057607f821691505b6020821081036200039157634e487b7160e01b600052602260045260246000fd5b50919050565b601f821115620003e557600081815260208120601f850160051c81016020861015620003c05750805b601f850160051c820191505b81811015620003e157828155600101620003cc565b5050505b505050565b81516001600160401b038111156200040657620004066200016b565b6200041e816200041784546200035b565b8462000397565b602080601f8311600181146200045657600084156200043d5750858301515b600019600386901b1c1916600185901b178555620003e1565b600085815260208120601f198616915b82811015620004875788860151825594840194600190910190840162000466565b5085821015620004a65787850151600019600388901b60f8161c191681555b5050505050600190811b01905550565b61459180620004c66000396000f3fe608060405234801561001057600080fd5b50600436106103415760003560e01c80638326e454116101bd578063d648e0c8116100f9578063e79e53dc116100a2578063e985e9c51161007c578063e985e9c5146106a9578063f1ef2e64146106e5578063f2fde38b146106f8578063f71c559c1461070b57600080fd5b8063e79e53dc1461067b578063e7b9b3a614610683578063e91ef59f1461069657600080fd5b8063da72c1e8116100d3578063da72c1e814610648578063de9c2a6b1461065b578063e70a86b11461066857600080fd5b8063d648e0c81461060a578063d864e7401461061d578063d94ca6901461063557600080fd5b80639b9168b811610166578063b88d4fde11610140578063b88d4fde146105be578063bddae40e146105d1578063c7095909146105e4578063c87b56dd146105f757600080fd5b80639b9168b814610590578063a1d5ec4b146105a3578063a22cb465146105ab57600080fd5b806390d6b45f1161019757806390d6b45f1461056257806395d89b411461057557806399c272061461057d57600080fd5b80638326e454146105365780638456cb59146105495780638da5cb5b1461055157600080fd5b806342842e0e1161028c5780635c975abb116102355780636c0360eb1161020f5780636c0360eb146104f357806370a08231146104fb578063715018a61461050e5780637571316b1461051657600080fd5b80635c975abb146104bb5780636352211e146104cd578063678832ce146104e057600080fd5b80634f6ccce7116102665780634f6ccce71461048257806355f804b31461049557806359e026f7146104a857600080fd5b806342842e0e1461044957806342966c681461045c5780634f558e791461046f57600080fd5b80631ae878d3116102ee578063394b652b116102c8578063394b652b1461041b5780633f4ba83a1461042e57806340c10f191461043657600080fd5b80631ae878d3146103ec57806323b872dd146103f55780632f745c591461040857600080fd5b8063095ea7b31161031f578063095ea7b3146103ae578063162094c4146103c357806318160ddd146103d657600080fd5b806301ffc9a71461034657806306fdde031461036e578063081812fc14610383575b600080fd5b610359610354366004613ac8565b61071e565b60405190151581526020015b60405180910390f35b610376610823565b6040516103659190613b35565b610396610391366004613b48565b6108b1565b6040516001600160a01b039091168152602001610365565b6103c16103bc366004613b76565b61093e565b005b6103c16103d1366004613be4565b610ada565b6103de610ba4565b604051908152602001610365565b6103de60015481565b6103c1610403366004613c30565b610bb5565b6103de610416366004613b76565b610c89565b6103c1610429366004613b48565b610cb2565b6103c1610d29565b6103c1610444366004613b76565b610dbd565b6103c1610457366004613c30565b610e72565b6103c161046a366004613b48565b610eda565b61035961047d366004613b48565b610fed565b6103de610490366004613b48565b610ff8565b6103c16104a3366004613c71565b61100e565b6103596104b6366004613c30565b6110d7565b600354600160a01b900460ff16610359565b6103966104db366004613b48565b6112f7565b6103c16104ee366004613cb3565b61131f565b61037661146c565b6103de610509366004613cb3565b611479565b6103c1611515565b610529610524366004613cb3565b611579565b6040516103659190613d0b565b610359610544366004613d2c565b61159d565b6103c161183a565b600d546001600160a01b0316610396565b600054610396906001600160a01b031681565b6103766118cc565b6103c161058b366004613cb3565b6118d9565b6103c161059e366004613ec5565b611962565b6103c1611b24565b6103c16105b9366004613fad565b611ba1565b6103c16105cc366004613fe6565b611c51565b6103c16105df366004613cb3565b611d2c565b6103c16105f2366004613cb3565b611e18565b610376610605366004613b48565b611ee2565b600354610396906001600160a01b031681565b6002546103969061010090046001600160a01b031681565b610529610643366004614066565b6120e4565b6103c1610656366004613c30565b612112565b6002546103599060ff1681565b610359610676366004613b76565b6123db565b6103766126a9565b610359610691366004613c30565b6126b6565b600e54610396906001600160a01b031681565b6103596106b736600461409b565b6001600160a01b03918216600090815260086020908152604080832093909416825291909152205460ff1690565b6103c16106f33660046140c9565b6128bf565b6103c1610706366004613cb3565b6129ac565b610359610719366004613c30565b612a8b565b60006001600160e01b031982167f80ac58cd00000000000000000000000000000000000000000000000000000000148061078157506001600160e01b031982167ff422ea4e00000000000000000000000000000000000000000000000000000000145b806107b557506001600160e01b031982167f5b5e139f00000000000000000000000000000000000000000000000000000000145b806107e957506001600160e01b031982167f780e9d6300000000000000000000000000000000000000000000000000000000145b8061081d57507f01ffc9a7000000000000000000000000000000000000000000000000000000006001600160e01b03198316145b92915050565b6009805461083090614122565b80601f016020809104026020016040519081016040528092919081815260200182805461085c90614122565b80156108a95780601f1061087e576101008083540402835291602001916108a9565b820191906000526020600020905b81548152906001019060200180831161088c57829003601f168201915b505050505081565b60006108bc82612b90565b6109225760405162461bcd60e51b815260206004820152602c60248201527f4b41503732313a20417070726f76656420717565727920666f72206e6f6e657860448201526b34b9ba32b73a103a37b5b2b760a11b60648201526084015b60405180910390fd5b506000908152600760205260409020546001600160a01b031690565b600354600160a01b900460ff161561098b5760405162461bcd60e51b815260206004820152601060248201526f14185d5cd8589b194e881c185d5cd95960821b6044820152606401610919565b6000610996826112f7565b9050806001600160a01b0316836001600160a01b031603610a1f5760405162461bcd60e51b815260206004820152602160248201527f4b41503732313a20417070726f76616c20746f2063757272656e74206f776e6560448201527f72000000000000000000000000000000000000000000000000000000000000006064820152608401610919565b336001600160a01b0382161480610a5957506001600160a01b038116600090815260086020908152604080832033845290915290205460ff165b610acb5760405162461bcd60e51b815260206004820152603860248201527f4b41503732313a20417070726f76652063616c6c6572206973206e6f74206f7760448201527f6e6572206e6f7220617070726f76656420666f7220616c6c00000000000000006064820152608401610919565b610ad58383612b9d565b505050565b600d546001600160a01b0316331480610b02575060025461010090046001600160a01b031633145b610b645760405162461bcd60e51b815260206004820152602d60248201527f4b415037323153444b3a2052657374726963746564206f6e6c79206f776e657260448201526c206f7220636f6d6d697474656560981b6064820152608401610919565b610ad58383838080601f016020809104026020016040519081016040528093929190818152602001838380828437600092019190915250612c0b92505050565b6000610bb06005612c8d565b905090565b600354600160a01b900460ff1615610c025760405162461bcd60e51b815260206004820152601060248201526f14185d5cd8589b194e881c185d5cd95960821b6044820152606401610919565b610c0c3382612c97565b610c7e5760405162461bcd60e51b815260206004820152603160248201527f4b41503732313a205472616e736665722063616c6c6572206973206e6f74206f60448201527f776e6572206e6f7220617070726f7665640000000000000000000000000000006064820152608401610919565b610ad5838383612d7d565b6001600160a01b0382166000908152600460205260408120610cab9083612e78565b9392505050565b60025461010090046001600160a01b03163314610d1d5760405162461bcd60e51b8152602060048201526024808201527f436f6d6d69747465653a2052657374726963746564206f6e6c7920636f6d6d696044820152637474656560e01b6064820152608401610919565b610d2681600155565b50565b600d546001600160a01b0316331480610d51575060025461010090046001600160a01b031633145b610db35760405162461bcd60e51b815260206004820152602d60248201527f4b415037323153444b3a2052657374726963746564206f6e6c79206f776e657260448201526c206f7220636f6d6d697474656560981b6064820152608401610919565b610dbb612efe565b565b600d546001600160a01b03163314610e175760405162461bcd60e51b815260206004820181905260248201527f4f776e61626c653a2043616c6c6572206973206e6f7420746865206f776e65726044820152606401610919565b600354600160a01b900460ff1615610e645760405162461bcd60e51b815260206004820152601060248201526f14185d5cd8589b194e881c185d5cd95960821b6044820152606401610919565b610e6e8282612fa4565b5050565b600354600160a01b900460ff1615610ebf5760405162461bcd60e51b815260206004820152601060248201526f14185d5cd8589b194e881c185d5cd95960821b6044820152606401610919565b610ad583838360405180602001604052806000815250611c51565b80610eed600d546001600160a01b031690565b6001600160a01b0316336001600160a01b03161480610f255750610f10816112f7565b6001600160a01b0316336001600160a01b0316145b610f975760405162461bcd60e51b815260206004820152603960248201527f4b415037323153444b3a2072657374726963746564206f6e6c7920737570657260448201527f2061646d696e206f72206f776e6572206f7220686f6c646572000000000000006064820152608401610919565b600354600160a01b900460ff1615610fe45760405162461bcd60e51b815260206004820152601060248201526f14185d5cd8589b194e881c185d5cd95960821b6044820152606401610919565b610e6e826130bc565b600061081d82612b90565b600080611006600584613175565b509392505050565b600d546001600160a01b0316331480611036575060025461010090046001600160a01b031633145b6110985760405162461bcd60e51b815260206004820152602d60248201527f4b415037323153444b3a2052657374726963746564206f6e6c79206f776e657260448201526c206f7220636f6d6d697474656560981b6064820152608401610919565b610e6e82828080601f01602080910402602001604051908101604052809392919081815260200183838082843760009201919091525061319392505050565b6003546000906001600160a01b0316331461115a5760405162461bcd60e51b815260206004820152603160248201527f416363657373436f6e74726f6c6c65723a2052657374726963746564206f6e6c60448201527f79207472616e7366657220726f757465720000000000000000000000000000006064820152608401610919565b600354600160a01b900460ff16156111a75760405162461bcd60e51b815260206004820152601060248201526f14185d5cd8589b194e881c185d5cd95960821b6044820152606401610919565b6001546000546040516306f19a8d60e21b81526001600160a01b03878116600483015290911690631bc66a3490602401602060405180830381865afa1580156111f4573d6000803e3d6000fd5b505050506040513d601f19601f82011682018060405250810190611218919061415c565b1015801561129657506001546000546040516306f19a8d60e21b81526001600160a01b03868116600483015290911690631bc66a34906024015b602060405180830381865afa15801561126f573d6000803e3d6000fd5b505050506040513d601f19601f82011682018060405250810190611293919061415c565b10155b6112e25760405162461bcd60e51b815260206004820152601d60248201527f4b41503732313a204f6e6c7920696e7465726e616c20707572706f73650000006044820152606401610919565b6112ed848484612d7d565b5060019392505050565b600061081d82604051806060016040528060298152602001614533602991396005919061319f565b60025461010090046001600160a01b0316331461138a5760405162461bcd60e51b8152602060048201526024808201527f436f6d6d69747465653a2052657374726963746564206f6e6c7920636f6d6d696044820152637474656560e01b6064820152608401610919565b600e546001600160a01b0380831691160361140d5760405162461bcd60e51b815260206004820152602860248201527f417574686f72697a6174696f6e3a2053616d65206173206f6c642061646d696e60448201527f20616464726573730000000000000000000000000000000000000000000000006064820152608401610919565b600e5460405133916001600160a01b03848116929116907f1b46ac78008aa118dae1cdc2ee1deeebdb68f360a44d2cec3336f37d4354e75190600090a4600e80546001600160a01b0319166001600160a01b0392909216919091179055565b600c805461083090614122565b60006001600160a01b0382166114f75760405162461bcd60e51b815260206004820152602a60248201527f4b41503732313a2042616c616e636520717565727920666f7220746865207a6560448201527f726f2061646472657373000000000000000000000000000000000000000000006064820152608401610919565b6001600160a01b03821660009081526004602052604090205461081d565b600d546001600160a01b0316331461156f5760405162461bcd60e51b815260206004820181905260248201527f4f776e61626c653a2043616c6c6572206973206e6f7420746865206f776e65726044820152606401610919565b610dbb60006131ac565b6001600160a01b038116600090815260046020526040902060609061081d906131fe565b600e546040516363cd456b60e01b81526000916001600160a01b0316906363cd456b906115d1903390600f90600401614175565b602060405180830381865afa1580156115ee573d6000803e3d6000fd5b505050506040513d601f19601f820116820180604052508101906116129190614211565b61166e5760405162461bcd60e51b815260206004820152602760248201527f417574686f72697a6174696f6e3a2052657374726963746564206f6e6c7920656044820152663c32b1baba37b960c91b6064820152608401610919565b836001600160a01b0316836001600160a01b0316036116cf5760405162461bcd60e51b815260206004820152601c60248201527f4b415037323153444b3a20417070726f766520746f2063616c6c6572000000006044820152606401610919565b6001546000546040516306f19a8d60e21b81526001600160a01b03878116600483015290911690631bc66a3490602401602060405180830381865afa15801561171c573d6000803e3d6000fd5b505050506040513d601f19601f82011682018060405250810190611740919061415c565b101580156117bd57506001546000546040516306f19a8d60e21b81526001600160a01b03868116600483015290911690631bc66a3490602401602060405180830381865afa158015611796573d6000803e3d6000fd5b505050506040513d601f19601f820116820180604052508101906117ba919061415c565b10155b61182f5760405162461bcd60e51b815260206004820152603660248201527f4b415037323153444b3a204f776e6572206f72206f70657261746f722061646460448201527f72657373206973206e6f742061204b59432075736572000000000000000000006064820152608401610919565b6112ed84848461325a565b600d546001600160a01b0316331480611862575060025461010090046001600160a01b031633145b6118c45760405162461bcd60e51b815260206004820152602d60248201527f4b415037323153444b3a2052657374726963746564206f6e6c79206f776e657260448201526c206f7220636f6d6d697474656560981b6064820152608401610919565b610dbb6132c7565b600a805461083090614122565b60025461010090046001600160a01b031633146119445760405162461bcd60e51b8152602060048201526024808201527f436f6d6d69747465653a2052657374726963746564206f6e6c7920636f6d6d696044820152637474656560e01b6064820152608401610919565b600080546001600160a01b0319166001600160a01b03831617905550565b600d546001600160a01b031633146119bc5760405162461bcd60e51b815260206004820181905260248201527f4f776e61626c653a2043616c6c6572206973206e6f7420746865206f776e65726044820152606401610919565b600354600160a01b900460ff1615611a095760405162461bcd60e51b815260206004820152601060248201526f14185d5cd8589b194e881c185d5cd95960821b6044820152606401610919565b8051825114611a805760405162461bcd60e51b815260206004820152602860248201527f4b415037323153444b3a204e65656420616c6c20696e70757420696e2073616d60448201527f65206c656e6774680000000000000000000000000000000000000000000000006064820152608401610919565b60005b8151811015611adb57611ac984848381518110611aa257611aa261422e565b6020026020010151848481518110611abc57611abc61422e565b602002602001015161334f565b80611ad38161425a565b915050611a83565b50826001600160a01b03167f3b608a3fb478df9eb7835c655c3ae8aea101e40d383758b5a6d30d7e74b418b58383604051611b17929190614273565b60405180910390a2505050565b60025461010090046001600160a01b03163314611b8f5760405162461bcd60e51b8152602060048201526024808201527f436f6d6d69747465653a2052657374726963746564206f6e6c7920636f6d6d696044820152637474656560e01b6064820152608401610919565b610dbb6002805460ff19166001179055565b600354600160a01b900460ff1615611bee5760405162461bcd60e51b815260206004820152601060248201526f14185d5cd8589b194e881c185d5cd95960821b6044820152606401610919565b336001600160a01b03831603611c465760405162461bcd60e51b815260206004820152601960248201527f4b41503732313a20417070726f766520746f2063616c6c6572000000000000006044820152606401610919565b610e6e33838361325a565b600354600160a01b900460ff1615611c9e5760405162461bcd60e51b815260206004820152601060248201526f14185d5cd8589b194e881c185d5cd95960821b6044820152606401610919565b611ca83383612c97565b611d1a5760405162461bcd60e51b815260206004820152603160248201527f4b41503732313a205472616e736665722063616c6c6572206973206e6f74206f60448201527f776e6572206e6f7220617070726f7665640000000000000000000000000000006064820152608401610919565b611d2684848484613363565b50505050565b60025461010090046001600160a01b03163314611d975760405162461bcd60e51b8152602060048201526024808201527f436f6d6d69747465653a2052657374726963746564206f6e6c7920636f6d6d696044820152637474656560e01b6064820152608401610919565b60025460405133916001600160a01b038481169261010090920416907f98be4d11812ae954fb899148019b8b73771468cd9346e1ca47d2fa731011eae690600090a4600280546001600160a01b03909216610100027fffffffffffffffffffffff0000000000000000000000000000000000000000ff909216919091179055565b60025461010090046001600160a01b03163314611e835760405162461bcd60e51b8152602060048201526024808201527f436f6d6d69747465653a2052657374726963746564206f6e6c7920636f6d6d696044820152637474656560e01b6064820152608401610919565b60035460405133916001600160a01b03848116929116907fb82f5713184c2542a2134cb1d30de213eb0a56612721e1d610eb0299c3771df590600090a4600380546001600160a01b0319166001600160a01b0392909216919091179055565b6060611eed82612b90565b611f5f5760405162461bcd60e51b815260206004820152602f60248201527f4b41503732314d657461646174613a2055524920717565727920666f72206e6f60448201527f6e6578697374656e7420746f6b656e00000000000000000000000000000000006064820152608401610919565b6000828152600b602052604081208054611f7890614122565b80601f0160208091040260200160405190810160405280929190818152602001828054611fa490614122565b8015611ff15780601f10611fc657610100808354040283529160200191611ff1565b820191906000526020600020905b815481529060010190602001808311611fd457829003601f168201915b505050505090506000600c805461200790614122565b80601f016020809104026020016040519081016040528092919081815260200182805461203390614122565b80156120805780601f1061205557610100808354040283529160200191612080565b820191906000526020600020905b81548152906001019060200180831161206357829003601f168201915b505050505090508051600003612097575092915050565b8151156120c95780826040516020016120b19291906142e9565b60405160208183030381529060405292505050919050565b806120d3856133ec565b6040516020016120b19291906142e9565b6001600160a01b038316600090815260046020526040902060609061210a908484613521565b949350505050565b60025461010090046001600160a01b0316331461217d5760405162461bcd60e51b8152602060048201526024808201527f436f6d6d69747465653a2052657374726963746564206f6e6c7920636f6d6d696044820152637474656560e01b6064820152608401610919565b60025460ff16156122bc57600080546040516306f19a8d60e21b81526001600160a01b03868116600483015290911690631bc66a3490602401602060405180830381865afa1580156121d3573d6000803e3d6000fd5b505050506040513d601f19601f820116820180604052508101906121f7919061415c565b1180156122705750600080546040516306f19a8d60e21b81526001600160a01b03858116600483015290911690631bc66a3490602401602060405180830381865afa15801561224a573d6000803e3d6000fd5b505050506040513d601f19601f8201168201806040525081019061226e919061415c565b115b6122bc5760405162461bcd60e51b815260206004820152601d60248201527f4b41503732313a204f6e6c7920696e7465726e616c20707572706f73650000006044820152606401610919565b826001600160a01b03166122cf826112f7565b6001600160a01b0316146123375760405162461bcd60e51b815260206004820152602960248201527f4b41503732313a205472616e73666572206f6620746f6b656e2074686174206960448201526839903737ba1037bbb760b91b6064820152608401610919565b612342600082612b9d565b6001600160a01b03831660009081526004602052604090206123649082613642565b506001600160a01b03821660009081526004602052604090206123879082613735565b5061239460058284613784565b5080826001600160a01b0316846001600160a01b03167fddf252ad1be2c89b69c2b068fc378daa952ba7f163c4a11628f55a4df523b3ef60405160405180910390a4505050565b600e546040516363cd456b60e01b81526000916001600160a01b0316906363cd456b9061240f903390600f90600401614175565b602060405180830381865afa15801561242c573d6000803e3d6000fd5b505050506040513d601f19601f820116820180604052508101906124509190614211565b6124ac5760405162461bcd60e51b815260206004820152602760248201527f417574686f72697a6174696f6e3a2052657374726963746564206f6e6c7920656044820152663c32b1baba37b960c91b6064820152608401610919565b60006124b7836112f7565b9050806001600160a01b0316846001600160a01b03160361253f5760405162461bcd60e51b8152602060048201526024808201527f4b415037323153444b3a20417070726f76616c20746f2063757272656e74206f60448201527f776e6572000000000000000000000000000000000000000000000000000000006064820152608401610919565b6001546000546040516306f19a8d60e21b81526001600160a01b03848116600483015290911690631bc66a3490602401602060405180830381865afa15801561258c573d6000803e3d6000fd5b505050506040513d601f19601f820116820180604052508101906125b0919061415c565b1015801561262d57506001546000546040516306f19a8d60e21b81526001600160a01b03878116600483015290911690631bc66a3490602401602060405180830381865afa158015612606573d6000803e3d6000fd5b505050506040513d601f19601f8201168201806040525081019061262a919061415c565b10155b61269f5760405162461bcd60e51b815260206004820152603660248201527f4b415037323153444b3a204f776e6572206f72206f70657261746f722061646460448201527f72657373206973206e6f742061204b59432075736572000000000000000000006064820152608401610919565b6112ed8484612b9d565b600f805461083090614122565b600e546040516363cd456b60e01b81526000916001600160a01b0316906363cd456b906126ea903390600f90600401614175565b602060405180830381865afa158015612707573d6000803e3d6000fd5b505050506040513d601f19601f8201168201806040525081019061272b9190614211565b6127875760405162461bcd60e51b815260206004820152602760248201527f417574686f72697a6174696f6e3a2052657374726963746564206f6e6c7920656044820152663c32b1baba37b960c91b6064820152608401610919565b6001546000546040516306f19a8d60e21b81526001600160a01b03878116600483015290911690631bc66a3490602401602060405180830381865afa1580156127d4573d6000803e3d6000fd5b505050506040513d601f19601f820116820180604052508101906127f8919061415c565b11801561287357506001546000546040516306f19a8d60e21b81526001600160a01b03868116600483015290911690631bc66a3490602401602060405180830381865afa15801561284d573d6000803e3d6000fd5b505050506040513d601f19601f82011682018060405250810190612871919061415c565b115b6112e25760405162461bcd60e51b815260206004820181905260248201527f4b415037323153444b3a204f6e6c7920696e7465726e616c20707572706f73656044820152606401610919565b600d546001600160a01b031633146129195760405162461bcd60e51b815260206004820181905260248201527f4f776e61626c653a2043616c6c6572206973206e6f7420746865206f776e65726044820152606401610919565b600354600160a01b900460ff16156129665760405162461bcd60e51b815260206004820152601060248201526f14185d5cd8589b194e881c185d5cd95960821b6044820152606401610919565b61297183838361334f565b826001600160a01b03167f1ad3e6a0778a500991dea1888777490bb562d962499e6cc2ac3b93aa3b300b008383604051611b17929190614318565b600d546001600160a01b03163314612a065760405162461bcd60e51b815260206004820181905260248201527f4f776e61626c653a2043616c6c6572206973206e6f7420746865206f776e65726044820152606401610919565b6001600160a01b038116612a825760405162461bcd60e51b815260206004820152602660248201527f4f776e61626c653a204e6577206f776e657220697320746865207a65726f206160448201527f64647265737300000000000000000000000000000000000000000000000000006064820152608401610919565b610d26816131ac565b6003546000906001600160a01b03163314612b0e5760405162461bcd60e51b815260206004820152603160248201527f416363657373436f6e74726f6c6c65723a2052657374726963746564206f6e6c60448201527f79207472616e7366657220726f757465720000000000000000000000000000006064820152608401610919565b600354600160a01b900460ff1615612b5b5760405162461bcd60e51b815260206004820152601060248201526f14185d5cd8589b194e881c185d5cd95960821b6044820152606401610919565b6001546000546040516306f19a8d60e21b81526001600160a01b03878116600483015290911690631bc66a3490602401611252565b600061081d60058361379a565b600081815260076020526040902080546001600160a01b0319166001600160a01b0384169081179091558190612bd2826112f7565b6001600160a01b03167f8c5be1e5ebec7d5bd14f71427d1e84f3dd0314c0f7b2291e5b200ac8c7c3b92560405160405180910390a45050565b612c1482612b90565b612c755760405162461bcd60e51b815260206004820152602c60248201527f4b41503732314d657461646174613a2055524920736574206f66206e6f6e657860448201526b34b9ba32b73a103a37b5b2b760a11b6064820152608401610919565b6000828152600b60205260409020610ad58282614388565b600061081d825490565b6000612ca282612b90565b612d035760405162461bcd60e51b815260206004820152602c60248201527f4b41503732313a204f70657261746f7220717565727920666f72206e6f6e657860448201526b34b9ba32b73a103a37b5b2b760a11b6064820152608401610919565b6000612d0e836112f7565b9050806001600160a01b0316846001600160a01b03161480612d495750836001600160a01b0316612d3e846108b1565b6001600160a01b0316145b8061210a57506001600160a01b0380821660009081526008602090815260408083209388168352929052205460ff1661210a565b826001600160a01b0316612d90826112f7565b6001600160a01b031614612df85760405162461bcd60e51b815260206004820152602960248201527f4b41503732313a205472616e73666572206f6620746f6b656e2074686174206960448201526839903737ba1037bbb760b91b6064820152608401610919565b6001600160a01b038216612e735760405162461bcd60e51b8152602060048201526024808201527f4b41503732313a205472616e7366657220746f20746865207a65726f2061646460448201527f72657373000000000000000000000000000000000000000000000000000000006064820152608401610919565b612337565b81546000908210612ed65760405162461bcd60e51b815260206004820152602260248201527f456e756d657261626c655365743a20696e646578206f7574206f6620626f756e604482015261647360f01b6064820152608401610919565b826000018281548110612eeb57612eeb61422e565b9060005260206000200154905092915050565b600354600160a01b900460ff16612f575760405162461bcd60e51b815260206004820152601460248201527f5061757361626c653a206e6f74207061757365640000000000000000000000006044820152606401610919565b6003805460ff60a01b191690557f5db9ee0a495bf2e6ff9c91a7834c1ba4fdd244a5e8aa4e537bd38aeae4b073aa335b6040516001600160a01b03909116815260200160405180910390a1565b6001600160a01b038216612ffa5760405162461bcd60e51b815260206004820181905260248201527f4b41503732313a204d696e7420746f20746865207a65726f20616464726573736044820152606401610919565b61300381612b90565b156130505760405162461bcd60e51b815260206004820152601c60248201527f4b41503732313a20546f6b656e20616c7265616479206d696e746564000000006044820152606401610919565b6001600160a01b03821660009081526004602052604090206130729082613735565b5061307f60058284613784565b5060405181906001600160a01b038416906000907fddf252ad1be2c89b69c2b068fc378daa952ba7f163c4a11628f55a4df523b3ef908290a45050565b60006130c7826112f7565b90506130d4600083612b9d565b6001600160a01b03811660009081526004602052604090206130f69083613642565b5060008052600460205261312a7f17ef568e3e12ab5b9c7254a8d58478811de00f9e6eb34345acd53bf8fd09d3ec83613735565b506131386005836000613784565b5060405182906000906001600160a01b038416907fddf252ad1be2c89b69c2b068fc378daa952ba7f163c4a11628f55a4df523b3ef908390a45050565b600080808061318486866137b2565b909450925050505b9250929050565b600c610e6e8282614388565b600061210a84848461384f565b600d80546001600160a01b038381166001600160a01b0319831681179093556040519116919082907f8be0079c531659141344cd1fd0a4f28419497f9722a3daafe3b4186f6b6457e090600090a35050565b60608160000180548060200260200160405190810160405280929190818152602001828054801561324e57602002820191906000526020600020905b81548152602001906001019080831161323a575b50505050509050919050565b6001600160a01b03838116600081815260086020908152604080832094871680845294825291829020805460ff191686151590811790915591519182527f17307eab39ab6107e8899845ad3d59bd9653f200f220920489ca2b5937696c31910160405180910390a3505050565b600354600160a01b900460ff16156133145760405162461bcd60e51b815260206004820152601060248201526f14185d5cd8589b194e881c185d5cd95960821b6044820152606401610919565b6003805460ff60a01b1916600160a01b1790557f62e78cea01bee320cd4e420270b5ea74000d11b0c9f74754ebdbfc544b05a258612f873390565b6133598382612fa4565b610ad58183612c0b565b61336e848484612d7d565b61337a848484846138b8565b611d265760405162461bcd60e51b815260206004820152603260248201527f4b41503732313a205472616e7366657220746f206e6f6e204b4150373231526560448201527f63656976657220696d706c656d656e74657200000000000000000000000000006064820152608401610919565b60608160000361342f57505060408051808201909152600181527f3000000000000000000000000000000000000000000000000000000000000000602082015290565b8160005b811561345957806134438161425a565b91506134529050600a8361445e565b9150613433565b60008167ffffffffffffffff81111561347457613474613d77565b6040519080825280601f01601f19166020018201604052801561349e576020820181803683370190505b5090505b841561210a576134b3600183614472565b91506134c0600a86614485565b6134cb906030614499565b60f81b8183815181106134e0576134e061422e565b60200101907effffffffffffffffffffffffffffffffffffffffffffffffffffffffffffff1916908160001a90535061351a600a8661445e565b94506134a2565b60606000831180156135335750600082115b61353c57600080fd5b8160008161354b600187614472565b61355591906144ac565b90506000613561875490565b90508082106135845750506040805160008152602081019091529150610cab9050565b61358e8282614472565b8311156135a25761359f8282614472565b92505b60008367ffffffffffffffff8111156135bd576135bd613d77565b6040519080825280602002602001820160405280156135e6578160200160208202803683370190505b50905060005b8481101561363657613607896136028387614499565b612e78565b8282815181106136195761361961422e565b60209081029190910101528061362e8161425a565b9150506135ec565b50979650505050505050565b6000818152600183016020526040812054801561372b576000613666600183614472565b855490915060009061367a90600190614472565b905060008660000182815481106136935761369361422e565b90600052602060002001549050808760000184815481106136b6576136b661422e565b6000918252602090912001556136cd836001614499565b600082815260018901602052604090205586548790806136ef576136ef6144c3565b6001900381819060005260206000200160009055905586600101600087815260200190815260200160002060009055600194505050505061081d565b600091505061081d565b600081815260018301602052604081205461377c5750815460018181018455600084815260208082209093018490558454848252828601909352604090209190915561081d565b50600061081d565b600061210a84846001600160a01b038516613a0f565b60008181526001830160205260408120541515610cab565b8154600090819083106138125760405162461bcd60e51b815260206004820152602260248201527f456e756d657261626c654d61703a20696e646578206f7574206f6620626f756e604482015261647360f01b6064820152608401610919565b60008460000184815481106138295761382961422e565b906000526020600020906002020190508060000154816001015492509250509250929050565b6000828152600184016020526040812054828161387f5760405162461bcd60e51b81526004016109199190613b35565b508461388c600183614472565b8154811061389c5761389c61422e565b9060005260206000209060020201600101549150509392505050565b60006001600160a01b0384163b15613a045760405163c25d39b360e01b81526001600160a01b0385169063c25d39b3906138fc9033908990889088906004016144d9565b6020604051808303816000875af1925050508015613937575060408051601f3d908101601f1916820190925261393491810190614515565b60015b6139ea573d808015613965576040519150601f19603f3d011682016040523d82523d6000602084013e61396a565b606091505b5080516000036139e25760405162461bcd60e51b815260206004820152603260248201527f4b41503732313a205472616e7366657220746f206e6f6e204b4150373231526560448201527f63656976657220696d706c656d656e74657200000000000000000000000000006064820152608401610919565b805181602001fd5b6001600160e01b03191663c25d39b360e01b14905061210a565b506001949350505050565b6000828152600184016020526040812054808203613a76575050604080518082018252838152602080820184815286546001818101895560008981528481209551600290930290950191825591519082015586548684528188019092529290912055610cab565b8285613a83600184614472565b81548110613a9357613a9361422e565b9060005260206000209060020201600101819055506000915050610cab565b6001600160e01b031981168114610d2657600080fd5b600060208284031215613ada57600080fd5b8135610cab81613ab2565b60005b83811015613b00578181015183820152602001613ae8565b50506000910152565b60008151808452613b21816020860160208601613ae5565b601f01601f19169290920160200192915050565b602081526000610cab6020830184613b09565b600060208284031215613b5a57600080fd5b5035919050565b6001600160a01b0381168114610d2657600080fd5b60008060408385031215613b8957600080fd5b8235613b9481613b61565b946020939093013593505050565b60008083601f840112613bb457600080fd5b50813567ffffffffffffffff811115613bcc57600080fd5b60208301915083602082850101111561318c57600080fd5b600080600060408486031215613bf957600080fd5b83359250602084013567ffffffffffffffff811115613c1757600080fd5b613c2386828701613ba2565b9497909650939450505050565b600080600060608486031215613c4557600080fd5b8335613c5081613b61565b92506020840135613c6081613b61565b929592945050506040919091013590565b60008060208385031215613c8457600080fd5b823567ffffffffffffffff811115613c9b57600080fd5b613ca785828601613ba2565b90969095509350505050565b600060208284031215613cc557600080fd5b8135610cab81613b61565b600081518084526020808501945080840160005b83811015613d0057815187529582019590820190600101613ce4565b509495945050505050565b602081526000610cab6020830184613cd0565b8015158114610d2657600080fd5b600080600060608486031215613d4157600080fd5b8335613d4c81613b61565b92506020840135613d5c81613b61565b91506040840135613d6c81613d1e565b809150509250925092565b634e487b7160e01b600052604160045260246000fd5b604051601f8201601f1916810167ffffffffffffffff81118282101715613db657613db6613d77565b604052919050565b600067ffffffffffffffff821115613dd857613dd8613d77565b5060051b60200190565b600067ffffffffffffffff831115613dfc57613dfc613d77565b613e0f601f8401601f1916602001613d8d565b9050828152838383011115613e2357600080fd5b828260208301376000602084830101529392505050565b600082601f830112613e4b57600080fd5b610cab83833560208501613de2565b600082601f830112613e6b57600080fd5b81356020613e80613e7b83613dbe565b613d8d565b82815260059290921b84018101918181019086841115613e9f57600080fd5b8286015b84811015613eba5780358352918301918301613ea3565b509695505050505050565b600080600060608486031215613eda57600080fd5b8335613ee581613b61565b925060208481013567ffffffffffffffff80821115613f0357600080fd5b818701915087601f830112613f1757600080fd5b8135613f25613e7b82613dbe565b81815260059190911b8301840190848101908a831115613f4457600080fd5b8585015b83811015613f7c57803585811115613f605760008081fd5b613f6e8d89838a0101613e3a565b845250918601918601613f48565b50965050506040870135925080831115613f9557600080fd5b5050613fa386828701613e5a565b9150509250925092565b60008060408385031215613fc057600080fd5b8235613fcb81613b61565b91506020830135613fdb81613d1e565b809150509250929050565b60008060008060808587031215613ffc57600080fd5b843561400781613b61565b9350602085013561401781613b61565b925060408501359150606085013567ffffffffffffffff81111561403a57600080fd5b8501601f8101871361404b57600080fd5b61405a87823560208401613de2565b91505092959194509250565b60008060006060848603121561407b57600080fd5b833561408681613b61565b95602085013595506040909401359392505050565b600080604083850312156140ae57600080fd5b82356140b981613b61565b91506020830135613fdb81613b61565b6000806000606084860312156140de57600080fd5b83356140e981613b61565b9250602084013567ffffffffffffffff81111561410557600080fd5b61411186828701613e3a565b925050604084013590509250925092565b600181811c9082168061413657607f821691505b60208210810361415657634e487b7160e01b600052602260045260246000fd5b50919050565b60006020828403121561416e57600080fd5b5051919050565b6001600160a01b0383168152600060206040818401526000845461419881614122565b80604087015260606001808416600081146141ba57600181146141d457614202565b60ff1985168984015283151560051b890183019550614202565b896000528660002060005b858110156141fa5781548b82018601529083019088016141df565b8a0184019650505b50939998505050505050505050565b60006020828403121561422357600080fd5b8151610cab81613d1e565b634e487b7160e01b600052603260045260246000fd5b634e487b7160e01b600052601160045260246000fd5b60006001820161426c5761426c614244565b5060010190565b6000604082016040835280855180835260608501915060608160051b8601019250602080880160005b838110156142ca57605f198887030185526142b8868351613b09565b9550938201939082019060010161429c565b5050858403818701525050506142e08185613cd0565b95945050505050565b600083516142fb818460208801613ae5565b83519083019061430f818360208801613ae5565b01949350505050565b60408152600061432b6040830185613b09565b90508260208301529392505050565b601f821115610ad557600081815260208120601f850160051c810160208610156143615750805b601f850160051c820191505b818110156143805782815560010161436d565b505050505050565b815167ffffffffffffffff8111156143a2576143a2613d77565b6143b6816143b08454614122565b8461433a565b602080601f8311600181146143eb57600084156143d35750858301515b600019600386901b1c1916600185901b178555614380565b600085815260208120601f198616915b8281101561441a578886015182559484019460019091019084016143fb565b50858210156144385787850151600019600388901b60f8161c191681555b5050505050600190811b01905550565b634e487b7160e01b600052601260045260246000fd5b60008261446d5761446d614448565b500490565b8181038181111561081d5761081d614244565b60008261449457614494614448565b500690565b8082018082111561081d5761081d614244565b808202811582820484141761081d5761081d614244565b634e487b7160e01b600052603160045260246000fd5b60006001600160a01b0380871683528086166020840152508360408301526080606083015261450b6080830184613b09565b9695505050505050565b60006020828403121561452757600080fd5b8151610cab81613ab256fe4b41503732313a204f776e657220717565727920666f72206e6f6e6578697374656e7420746f6b656ea2646970667358221220afbde9ba0098eb41526dae51936fd78866bf5b19e292d7d194acc3a7896c986964736f6c63430008130033",
          "opcodes": "PUSH1 0x80 PUSH1 0x40 MSTORE CALLVALUE DUP1 ISZERO PUSH3 0x11 JUMPI PUSH1 0x0 DUP1 REVERT JUMPDEST POP PUSH1 0x40 MLOAD PUSH3 0x4A57 CODESIZE SUB DUP1 PUSH3 0x4A57 DUP4 CODECOPY DUP2 ADD PUSH1 0x40 DUP2 SWAP1 MSTORE PUSH3 0x34 SWAP2 PUSH3 0x24D JUMP JUMPDEST PUSH1 0x3 DUP1 SLOAD PUSH1 0xFF PUSH1 0xA0 SHL NOT AND SWAP1 SSTORE DUP3 DUP2 DUP11 DUP11 DUP11 DUP11 DUP11 DUP11 DUP10 PUSH1 0x9 PUSH3 0x58 DUP9 DUP3 PUSH3 0x3EA JUMP JUMPDEST POP PUSH1 0xA PUSH3 0x67 DUP8 DUP3 PUSH3 0x3EA JUMP JUMPDEST POP PUSH1 0xC PUSH3 0x76 DUP7 DUP3 PUSH3 0x3EA JUMP JUMPDEST POP PUSH1 0x0 DUP1 SLOAD PUSH1 0x1 PUSH1 0x1 PUSH1 0xA0 SHL SUB NOT SWAP1 DUP2 AND PUSH1 0x1 PUSH1 0x1 PUSH1 0xA0 SHL SUB SWAP7 DUP8 AND OR SWAP1 SWAP2 SSTORE PUSH1 0x2 DUP1 SLOAD PUSH2 0x100 PUSH1 0x1 PUSH1 0xA8 SHL SUB NOT AND PUSH2 0x100 SWAP6 DUP8 AND SWAP6 SWAP1 SWAP6 MUL SWAP5 SWAP1 SWAP5 OR SWAP1 SWAP4 SSTORE PUSH1 0x3 DUP1 SLOAD SWAP1 SWAP4 AND SWAP2 SWAP1 SWAP4 AND OR SWAP1 SSTORE PUSH1 0x1 SSTORE POP PUSH3 0xDE SWAP2 POP PUSH3 0xD8 SWAP1 POP CALLER SWAP1 JUMP JUMPDEST PUSH3 0x119 JUMP JUMPDEST PUSH1 0xE DUP1 SLOAD PUSH1 0x1 PUSH1 0x1 PUSH1 0xA0 SHL SUB NOT AND PUSH1 0x1 PUSH1 0x1 PUSH1 0xA0 SHL SUB DUP5 AND OR SWAP1 SSTORE PUSH1 0xF PUSH3 0x107 DUP3 DUP3 PUSH3 0x3EA JUMP JUMPDEST POP POP POP POP POP POP POP POP POP POP POP POP PUSH3 0x4B6 JUMP JUMPDEST PUSH1 0xD DUP1 SLOAD PUSH1 0x1 PUSH1 0x1 PUSH1 0xA0 SHL SUB DUP4 DUP2 AND PUSH1 0x1 PUSH1 0x1 PUSH1 0xA0 SHL SUB NOT DUP4 AND DUP2 OR SWAP1 SWAP4 SSTORE PUSH1 0x40 MLOAD SWAP2 AND SWAP2 SWAP1 DUP3 SWAP1 PUSH32 0x8BE0079C531659141344CD1FD0A4F28419497F9722A3DAAFE3B4186F6B6457E0 SWAP1 PUSH1 0x0 SWAP1 LOG3 POP POP JUMP JUMPDEST PUSH4 0x4E487B71 PUSH1 0xE0 SHL PUSH1 0x0 MSTORE PUSH1 0x41 PUSH1 0x4 MSTORE PUSH1 0x24 PUSH1 0x0 REVERT JUMPDEST PUSH1 0x0 DUP3 PUSH1 0x1F DUP4 ADD SLT PUSH3 0x193 JUMPI PUSH1 0x0 DUP1 REVERT JUMPDEST DUP2 MLOAD PUSH1 0x1 PUSH1 0x1 PUSH1 0x40 SHL SUB DUP1 DUP3 GT ISZERO PUSH3 0x1B0 JUMPI PUSH3 0x1B0 PUSH3 0x16B JUMP JUMPDEST PUSH1 0x40 MLOAD PUSH1 0x1F DUP4 ADD PUSH1 0x1F NOT SWAP1 DUP2 AND PUSH1 0x3F ADD AND DUP2 ADD SWAP1 DUP3 DUP3 GT DUP2 DUP4 LT OR ISZERO PUSH3 0x1DB JUMPI PUSH3 0x1DB PUSH3 0x16B JUMP JUMPDEST DUP2 PUSH1 0x40 MSTORE DUP4 DUP2 MSTORE PUSH1 0x20 SWAP3 POP DUP7 DUP4 DUP6 DUP9 ADD ADD GT ISZERO PUSH3 0x1F8 JUMPI PUSH1 0x0 DUP1 REVERT JUMPDEST PUSH1 0x0 SWAP2 POP JUMPDEST DUP4 DUP3 LT ISZERO PUSH3 0x21C JUMPI DUP6 DUP3 ADD DUP4 ADD MLOAD DUP2 DUP4 ADD DUP5 ADD MSTORE SWAP1 DUP3 ADD SWAP1 PUSH3 0x1FD JUMP JUMPDEST PUSH1 0x0 SWAP4 DUP2 ADD SWAP1 SWAP3 ADD SWAP3 SWAP1 SWAP3 MSTORE SWAP5 SWAP4 POP POP POP POP JUMP JUMPDEST DUP1 MLOAD PUSH1 0x1 PUSH1 0x1 PUSH1 0xA0 SHL SUB DUP2 AND DUP2 EQ PUSH3 0x248 JUMPI PUSH1 0x0 DUP1 REVERT JUMPDEST SWAP2 SWAP1 POP JUMP JUMPDEST PUSH1 0x0 DUP1 PUSH1 0x0 DUP1 PUSH1 0x0 DUP1 PUSH1 0x0 DUP1 PUSH1 0x0 PUSH2 0x120 DUP11 DUP13 SUB SLT ISZERO PUSH3 0x26D JUMPI PUSH1 0x0 DUP1 REVERT JUMPDEST DUP10 MLOAD PUSH1 0x1 PUSH1 0x1 PUSH1 0x40 SHL SUB DUP1 DUP3 GT ISZERO PUSH3 0x285 JUMPI PUSH1 0x0 DUP1 REVERT JUMPDEST PUSH3 0x293 DUP14 DUP4 DUP15 ADD PUSH3 0x181 JUMP JUMPDEST SWAP11 POP PUSH1 0x20 DUP13 ADD MLOAD SWAP2 POP DUP1 DUP3 GT ISZERO PUSH3 0x2AA JUMPI PUSH1 0x0 DUP1 REVERT JUMPDEST PUSH3 0x2B8 DUP14 DUP4 DUP15 ADD PUSH3 0x181 JUMP JUMPDEST SWAP10 POP PUSH1 0x40 DUP13 ADD MLOAD SWAP2 POP DUP1 DUP3 GT ISZERO PUSH3 0x2CF JUMPI PUSH1 0x0 DUP1 REVERT JUMPDEST PUSH3 0x2DD DUP14 DUP4 DUP15 ADD PUSH3 0x181 JUMP JUMPDEST SWAP9 POP PUSH3 0x2ED PUSH1 0x60 DUP14 ADD PUSH3 0x230 JUMP JUMPDEST SWAP8 POP PUSH3 0x2FD PUSH1 0x80 DUP14 ADD PUSH3 0x230 JUMP JUMPDEST SWAP7 POP PUSH3 0x30D PUSH1 0xA0 DUP14 ADD PUSH3 0x230 JUMP JUMPDEST SWAP6 POP PUSH3 0x31D PUSH1 0xC0 DUP14 ADD PUSH3 0x230 JUMP JUMPDEST SWAP5 POP PUSH1 0xE0 DUP13 ADD MLOAD SWAP4 POP PUSH2 0x100 DUP13 ADD MLOAD SWAP2 POP DUP1 DUP3 GT ISZERO PUSH3 0x33C JUMPI PUSH1 0x0 DUP1 REVERT JUMPDEST POP PUSH3 0x34B DUP13 DUP3 DUP14 ADD PUSH3 0x181 JUMP JUMPDEST SWAP2 POP POP SWAP3 SWAP6 SWAP9 POP SWAP3 SWAP6 SWAP9 POP SWAP3 SWAP6 SWAP9 JUMP JUMPDEST PUSH1 0x1 DUP2 DUP2 SHR SWAP1 DUP3 AND DUP1 PUSH3 0x370 JUMPI PUSH1 0x7F DUP3 AND SWAP2 POP JUMPDEST PUSH1 0x20 DUP3 LT DUP2 SUB PUSH3 0x391 JUMPI PUSH4 0x4E487B71 PUSH1 0xE0 SHL PUSH1 0x0 MSTORE PUSH1 0x22 PUSH1 0x4 MSTORE PUSH1 0x24 PUSH1 0x0 REVERT JUMPDEST POP SWAP2 SWAP1 POP JUMP JUMPDEST PUSH1 0x1F DUP3 GT ISZERO PUSH3 0x3E5 JUMPI PUSH1 0x0 DUP2 DUP2 MSTORE PUSH1 0x20 DUP2 KECCAK256 PUSH1 0x1F DUP6 ADD PUSH1 0x5 SHR DUP2 ADD PUSH1 0x20 DUP7 LT ISZERO PUSH3 0x3C0 JUMPI POP DUP1 JUMPDEST PUSH1 0x1F DUP6 ADD PUSH1 0x5 SHR DUP3 ADD SWAP2 POP JUMPDEST DUP2 DUP2 LT ISZERO PUSH3 0x3E1 JUMPI DUP3 DUP2 SSTORE PUSH1 0x1 ADD PUSH3 0x3CC JUMP JUMPDEST POP POP POP JUMPDEST POP POP POP JUMP JUMPDEST DUP2 MLOAD PUSH1 0x1 PUSH1 0x1 PUSH1 0x40 SHL SUB DUP2 GT ISZERO PUSH3 0x406 JUMPI PUSH3 0x406 PUSH3 0x16B JUMP JUMPDEST PUSH3 0x41E DUP2 PUSH3 0x417 DUP5 SLOAD PUSH3 0x35B JUMP JUMPDEST DUP5 PUSH3 0x397 JUMP JUMPDEST PUSH1 0x20 DUP1 PUSH1 0x1F DUP4 GT PUSH1 0x1 DUP2 EQ PUSH3 0x456 JUMPI PUSH1 0x0 DUP5 ISZERO PUSH3 0x43D JUMPI POP DUP6 DUP4 ADD MLOAD JUMPDEST PUSH1 0x0 NOT PUSH1 0x3 DUP7 SWAP1 SHL SHR NOT AND PUSH1 0x1 DUP6 SWAP1 SHL OR DUP6 SSTORE PUSH3 0x3E1 JUMP JUMPDEST PUSH1 0x0 DUP6 DUP2 MSTORE PUSH1 0x20 DUP2 KECCAK256 PUSH1 0x1F NOT DUP7 AND SWAP2 JUMPDEST DUP3 DUP2 LT ISZERO PUSH3 0x487 JUMPI DUP9 DUP7 ADD MLOAD DUP3 SSTORE SWAP5 DUP5 ADD SWAP5 PUSH1 0x1 SWAP1 SWAP2 ADD SWAP1 DUP5 ADD PUSH3 0x466 JUMP JUMPDEST POP DUP6 DUP3 LT ISZERO PUSH3 0x4A6 JUMPI DUP8 DUP6 ADD MLOAD PUSH1 0x0 NOT PUSH1 0x3 DUP9 SWAP1 SHL PUSH1 0xF8 AND SHR NOT AND DUP2 SSTORE JUMPDEST POP POP POP POP POP PUSH1 0x1 SWAP1 DUP2 SHL ADD SWAP1 SSTORE POP JUMP JUMPDEST PUSH2 0x4591 DUP1 PUSH3 0x4C6 PUSH1 0x0 CODECOPY PUSH1 0x0 RETURN INVALID PUSH1 0x80 PUSH1 0x40 MSTORE CALLVALUE DUP1 ISZERO PUSH2 0x10 JUMPI PUSH1 0x0 DUP1 REVERT JUMPDEST POP PUSH1 0x4 CALLDATASIZE LT PUSH2 0x341 JUMPI PUSH1 0x0 CALLDATALOAD PUSH1 0xE0 SHR DUP1 PUSH4 0x8326E454 GT PUSH2 0x1BD JUMPI DUP1 PUSH4 0xD648E0C8 GT PUSH2 0xF9 JUMPI DUP1 PUSH4 0xE79E53DC GT PUSH2 0xA2 JUMPI DUP1 PUSH4 0xE985E9C5 GT PUSH2 0x7C JUMPI DUP1 PUSH4 0xE985E9C5 EQ PUSH2 0x6A9 JUMPI DUP1 PUSH4 0xF1EF2E64 EQ PUSH2 0x6E5 JUMPI DUP1 PUSH4 0xF2FDE38B EQ PUSH2 0x6F8 JUMPI DUP1 PUSH4 0xF71C559C EQ PUSH2 0x70B JUMPI PUSH1 0x0 DUP1 REVERT JUMPDEST DUP1 PUSH4 0xE79E53DC EQ PUSH2 0x67B JUMPI DUP1 PUSH4 0xE7B9B3A6 EQ PUSH2 0x683 JUMPI DUP1 PUSH4 0xE91EF59F EQ PUSH2 0x696 JUMPI PUSH1 0x0 DUP1 REVERT JUMPDEST DUP1 PUSH4 0xDA72C1E8 GT PUSH2 0xD3 JUMPI DUP1 PUSH4 0xDA72C1E8 EQ PUSH2 0x648 JUMPI DUP1 PUSH4 0xDE9C2A6B EQ PUSH2 0x65B JUMPI DUP1 PUSH4 0xE70A86B1 EQ PUSH2 0x668 JUMPI PUSH1 0x0 DUP1 REVERT JUMPDEST DUP1 PUSH4 0xD648E0C8 EQ PUSH2 0x60A JUMPI DUP1 PUSH4 0xD864E740 EQ PUSH2 0x61D JUMPI DUP1 PUSH4 0xD94CA690 EQ PUSH2 0x635 JUMPI PUSH1 0x0 DUP1 REVERT JUMPDEST DUP1 PUSH4 0x9B9168B8 GT PUSH2 0x166 JUMPI DUP1 PUSH4 0xB88D4FDE GT PUSH2 0x140 JUMPI DUP1 PUSH4 0xB88D4FDE EQ PUSH2 0x5BE JUMPI DUP1 PUSH4 0xBDDAE40E EQ PUSH2 0x5D1 JUMPI DUP1 PUSH4 0xC7095909 EQ PUSH2 0x5E4 JUMPI DUP1 PUSH4 0xC87B56DD EQ PUSH2 0x5F7 JUMPI PUSH1 0x0 DUP1 REVERT JUMPDEST DUP1 PUSH4 0x9B9168B8 EQ PUSH2 0x590 JUMPI DUP1 PUSH4 0xA1D5EC4B EQ PUSH2 0x5A3 JUMPI DUP1 PUSH4 0xA22CB465 EQ PUSH2 0x5AB JUMPI PUSH1 0x0 DUP1 REVERT JUMPDEST DUP1 PUSH4 0x90D6B45F GT PUSH2 0x197 JUMPI DUP1 PUSH4 0x90D6B45F EQ PUSH2 0x562 JUMPI DUP1 PUSH4 0x95D89B41 EQ PUSH2 0x575 JUMPI DUP1 PUSH4 0x99C27206 EQ PUSH2 0x57D JUMPI PUSH1 0x0 DUP1 REVERT JUMPDEST DUP1 PUSH4 0x8326E454 EQ PUSH2 0x536 JUMPI DUP1 PUSH4 0x8456CB59 EQ PUSH2 0x549 JUMPI DUP1 PUSH4 0x8DA5CB5B EQ PUSH2 0x551 JUMPI PUSH1 0x0 DUP1 REVERT JUMPDEST DUP1 PUSH4 0x42842E0E GT PUSH2 0x28C JUMPI DUP1 PUSH4 0x5C975ABB GT PUSH2 0x235 JUMPI DUP1 PUSH4 0x6C0360EB GT PUSH2 0x20F JUMPI DUP1 PUSH4 0x6C0360EB EQ PUSH2 0x4F3 JUMPI DUP1 PUSH4 0x70A08231 EQ PUSH2 0x4FB JUMPI DUP1 PUSH4 0x715018A6 EQ PUSH2 0x50E JUMPI DUP1 PUSH4 0x7571316B EQ PUSH2 0x516 JUMPI PUSH1 0x0 DUP1 REVERT JUMPDEST DUP1 PUSH4 0x5C975ABB EQ PUSH2 0x4BB JUMPI DUP1 PUSH4 0x6352211E EQ PUSH2 0x4CD JUMPI DUP1 PUSH4 0x678832CE EQ PUSH2 0x4E0 JUMPI PUSH1 0x0 DUP1 REVERT JUMPDEST DUP1 PUSH4 0x4F6CCCE7 GT PUSH2 0x266 JUMPI DUP1 PUSH4 0x4F6CCCE7 EQ PUSH2 0x482 JUMPI DUP1 PUSH4 0x55F804B3 EQ PUSH2 0x495 JUMPI DUP1 PUSH4 0x59E026F7 EQ PUSH2 0x4A8 JUMPI PUSH1 0x0 DUP1 REVERT JUMPDEST DUP1 PUSH4 0x42842E0E EQ PUSH2 0x449 JUMPI DUP1 PUSH4 0x42966C68 EQ PUSH2 0x45C JUMPI DUP1 PUSH4 0x4F558E79 EQ PUSH2 0x46F JUMPI PUSH1 0x0 DUP1 REVERT JUMPDEST DUP1 PUSH4 0x1AE878D3 GT PUSH2 0x2EE JUMPI DUP1 PUSH4 0x394B652B GT PUSH2 0x2C8 JUMPI DUP1 PUSH4 0x394B652B EQ PUSH2 0x41B JUMPI DUP1 PUSH4 0x3F4BA83A EQ PUSH2 0x42E JUMPI DUP1 PUSH4 0x40C10F19 EQ PUSH2 0x436 JUMPI PUSH1 0x0 DUP1 REVERT JUMPDEST DUP1 PUSH4 0x1AE878D3 EQ PUSH2 0x3EC JUMPI DUP1 PUSH4 0x23B872DD EQ PUSH2 0x3F5 JUMPI DUP1 PUSH4 0x2F745C59 EQ PUSH2 0x408 JUMPI PUSH1 0x0 DUP1 REVERT JUMPDEST DUP1 PUSH4 0x95EA7B3 GT PUSH2 0x31F JUMPI DUP1 PUSH4 0x95EA7B3 EQ PUSH2 0x3AE JUMPI DUP1 PUSH4 0x162094C4 EQ PUSH2 0x3C3 JUMPI DUP1 PUSH4 0x18160DDD EQ PUSH2 0x3D6 JUMPI PUSH1 0x0 DUP1 REVERT JUMPDEST DUP1 PUSH4 0x1FFC9A7 EQ PUSH2 0x346 JUMPI DUP1 PUSH4 0x6FDDE03 EQ PUSH2 0x36E JUMPI DUP1 PUSH4 0x81812FC EQ PUSH2 0x383 JUMPI JUMPDEST PUSH1 0x0 DUP1 REVERT JUMPDEST PUSH2 0x359 PUSH2 0x354 CALLDATASIZE PUSH1 0x4 PUSH2 0x3AC8 JUMP JUMPDEST PUSH2 0x71E JUMP JUMPDEST PUSH1 0x40 MLOAD SWAP1 ISZERO ISZERO DUP2 MSTORE PUSH1 0x20 ADD JUMPDEST PUSH1 0x40 MLOAD DUP1 SWAP2 SUB SWAP1 RETURN JUMPDEST PUSH2 0x376 PUSH2 0x823 JUMP JUMPDEST PUSH1 0x40 MLOAD PUSH2 0x365 SWAP2 SWAP1 PUSH2 0x3B35 JUMP JUMPDEST PUSH2 0x396 PUSH2 0x391 CALLDATASIZE PUSH1 0x4 PUSH2 0x3B48 JUMP JUMPDEST PUSH2 0x8B1 JUMP JUMPDEST PUSH1 0x40 MLOAD PUSH1 0x1 PUSH1 0x1 PUSH1 0xA0 SHL SUB SWAP1 SWAP2 AND DUP2 MSTORE PUSH1 0x20 ADD PUSH2 0x365 JUMP JUMPDEST PUSH2 0x3C1 PUSH2 0x3BC CALLDATASIZE PUSH1 0x4 PUSH2 0x3B76 JUMP JUMPDEST PUSH2 0x93E JUMP JUMPDEST STOP JUMPDEST PUSH2 0x3C1 PUSH2 0x3D1 CALLDATASIZE PUSH1 0x4 PUSH2 0x3BE4 JUMP JUMPDEST PUSH2 0xADA JUMP JUMPDEST PUSH2 0x3DE PUSH2 0xBA4 JUMP JUMPDEST PUSH1 0x40 MLOAD SWAP1 DUP2 MSTORE PUSH1 0x20 ADD PUSH2 0x365 JUMP JUMPDEST PUSH2 0x3DE PUSH1 0x1 SLOAD DUP2 JUMP JUMPDEST PUSH2 0x3C1 PUSH2 0x403 CALLDATASIZE PUSH1 0x4 PUSH2 0x3C30 JUMP JUMPDEST PUSH2 0xBB5 JUMP JUMPDEST PUSH2 0x3DE PUSH2 0x416 CALLDATASIZE PUSH1 0x4 PUSH2 0x3B76 JUMP JUMPDEST PUSH2 0xC89 JUMP JUMPDEST PUSH2 0x3C1 PUSH2 0x429 CALLDATASIZE PUSH1 0x4 PUSH2 0x3B48 JUMP JUMPDEST PUSH2 0xCB2 JUMP JUMPDEST PUSH2 0x3C1 PUSH2 0xD29 JUMP JUMPDEST PUSH2 0x3C1 PUSH2 0x444 CALLDATASIZE PUSH1 0x4 PUSH2 0x3B76 JUMP JUMPDEST PUSH2 0xDBD JUMP JUMPDEST PUSH2 0x3C1 PUSH2 0x457 CALLDATASIZE PUSH1 0x4 PUSH2 0x3C30 JUMP JUMPDEST PUSH2 0xE72 JUMP JUMPDEST PUSH2 0x3C1 PUSH2 0x46A CALLDATASIZE PUSH1 0x4 PUSH2 0x3B48 JUMP JUMPDEST PUSH2 0xEDA JUMP JUMPDEST PUSH2 0x359 PUSH2 0x47D CALLDATASIZE PUSH1 0x4 PUSH2 0x3B48 JUMP JUMPDEST PUSH2 0xFED JUMP JUMPDEST PUSH2 0x3DE PUSH2 0x490 CALLDATASIZE PUSH1 0x4 PUSH2 0x3B48 JUMP JUMPDEST PUSH2 0xFF8 JUMP JUMPDEST PUSH2 0x3C1 PUSH2 0x4A3 CALLDATASIZE PUSH1 0x4 PUSH2 0x3C71 JUMP JUMPDEST PUSH2 0x100E JUMP JUMPDEST PUSH2 0x359 PUSH2 0x4B6 CALLDATASIZE PUSH1 0x4 PUSH2 0x3C30 JUMP JUMPDEST PUSH2 0x10D7 JUMP JUMPDEST PUSH1 0x3 SLOAD PUSH1 0x1 PUSH1 0xA0 SHL SWAP1 DIV PUSH1 0xFF AND PUSH2 0x359 JUMP JUMPDEST PUSH2 0x396 PUSH2 0x4DB CALLDATASIZE PUSH1 0x4 PUSH2 0x3B48 JUMP JUMPDEST PUSH2 0x12F7 JUMP JUMPDEST PUSH2 0x3C1 PUSH2 0x4EE CALLDATASIZE PUSH1 0x4 PUSH2 0x3CB3 JUMP JUMPDEST PUSH2 0x131F JUMP JUMPDEST PUSH2 0x376 PUSH2 0x146C JUMP JUMPDEST PUSH2 0x3DE PUSH2 0x509 CALLDATASIZE PUSH1 0x4 PUSH2 0x3CB3 JUMP JUMPDEST PUSH2 0x1479 JUMP JUMPDEST PUSH2 0x3C1 PUSH2 0x1515 JUMP JUMPDEST PUSH2 0x529 PUSH2 0x524 CALLDATASIZE PUSH1 0x4 PUSH2 0x3CB3 JUMP JUMPDEST PUSH2 0x1579 JUMP JUMPDEST PUSH1 0x40 MLOAD PUSH2 0x365 SWAP2 SWAP1 PUSH2 0x3D0B JUMP JUMPDEST PUSH2 0x359 PUSH2 0x544 CALLDATASIZE PUSH1 0x4 PUSH2 0x3D2C JUMP JUMPDEST PUSH2 0x159D JUMP JUMPDEST PUSH2 0x3C1 PUSH2 0x183A JUMP JUMPDEST PUSH1 0xD SLOAD PUSH1 0x1 PUSH1 0x1 PUSH1 0xA0 SHL SUB AND PUSH2 0x396 JUMP JUMPDEST PUSH1 0x0 SLOAD PUSH2 0x396 SWAP1 PUSH1 0x1 PUSH1 0x1 PUSH1 0xA0 SHL SUB AND DUP2 JUMP JUMPDEST PUSH2 0x376 PUSH2 0x18CC JUMP JUMPDEST PUSH2 0x3C1 PUSH2 0x58B CALLDATASIZE PUSH1 0x4 PUSH2 0x3CB3 JUMP JUMPDEST PUSH2 0x18D9 JUMP JUMPDEST PUSH2 0x3C1 PUSH2 0x59E CALLDATASIZE PUSH1 0x4 PUSH2 0x3EC5 JUMP JUMPDEST PUSH2 0x1962 JUMP JUMPDEST PUSH2 0x3C1 PUSH2 0x1B24 JUMP JUMPDEST PUSH2 0x3C1 PUSH2 0x5B9 CALLDATASIZE PUSH1 0x4 PUSH2 0x3FAD JUMP JUMPDEST PUSH2 0x1BA1 JUMP JUMPDEST PUSH2 0x3C1 PUSH2 0x5CC CALLDATASIZE PUSH1 0x4 PUSH2 0x3FE6 JUMP JUMPDEST PUSH2 0x1C51 JUMP JUMPDEST PUSH2 0x3C1 PUSH2 0x5DF CALLDATASIZE PUSH1 0x4 PUSH2 0x3CB3 JUMP JUMPDEST PUSH2 0x1D2C JUMP JUMPDEST PUSH2 0x3C1 PUSH2 0x5F2 CALLDATASIZE PUSH1 0x4 PUSH2 0x3CB3 JUMP JUMPDEST PUSH2 0x1E18 JUMP JUMPDEST PUSH2 0x376 PUSH2 0x605 CALLDATASIZE PUSH1 0x4 PUSH2 0x3B48 JUMP JUMPDEST PUSH2 0x1EE2 JUMP JUMPDEST PUSH1 0x3 SLOAD PUSH2 0x396 SWAP1 PUSH1 0x1 PUSH1 0x1 PUSH1 0xA0 SHL SUB AND DUP2 JUMP JUMPDEST PUSH1 0x2 SLOAD PUSH2 0x396 SWAP1 PUSH2 0x100 SWAP1 DIV PUSH1 0x1 PUSH1 0x1 PUSH1 0xA0 SHL SUB AND DUP2 JUMP JUMPDEST PUSH2 0x529 PUSH2 0x643 CALLDATASIZE PUSH1 0x4 PUSH2 0x4066 JUMP JUMPDEST PUSH2 0x20E4 JUMP JUMPDEST PUSH2 0x3C1 PUSH2 0x656 CALLDATASIZE PUSH1 0x4 PUSH2 0x3C30 JUMP JUMPDEST PUSH2 0x2112 JUMP JUMPDEST PUSH1 0x2 SLOAD PUSH2 0x359 SWAP1 PUSH1 0xFF AND DUP2 JUMP JUMPDEST PUSH2 0x359 PUSH2 0x676 CALLDATASIZE PUSH1 0x4 PUSH2 0x3B76 JUMP JUMPDEST PUSH2 0x23DB JUMP JUMPDEST PUSH2 0x376 PUSH2 0x26A9 JUMP JUMPDEST PUSH2 0x359 PUSH2 0x691 CALLDATASIZE PUSH1 0x4 PUSH2 0x3C30 JUMP JUMPDEST PUSH2 0x26B6 JUMP JUMPDEST PUSH1 0xE SLOAD PUSH2 0x396 SWAP1 PUSH1 0x1 PUSH1 0x1 PUSH1 0xA0 SHL SUB AND DUP2 JUMP JUMPDEST PUSH2 0x359 PUSH2 0x6B7 CALLDATASIZE PUSH1 0x4 PUSH2 0x409B JUMP JUMPDEST PUSH1 0x1 PUSH1 0x1 PUSH1 0xA0 SHL SUB SWAP2 DUP3 AND PUSH1 0x0 SWAP1 DUP2 MSTORE PUSH1 0x8 PUSH1 0x20 SWAP1 DUP2 MSTORE PUSH1 0x40 DUP1 DUP4 KECCAK256 SWAP4 SWAP1 SWAP5 AND DUP3 MSTORE SWAP2 SWAP1 SWAP2 MSTORE KECCAK256 SLOAD PUSH1 0xFF AND SWAP1 JUMP JUMPDEST PUSH2 0x3C1 PUSH2 0x6F3 CALLDATASIZE PUSH1 0x4 PUSH2 0x40C9 JUMP JUMPDEST PUSH2 0x28BF JUMP JUMPDEST PUSH2 0x3C1 PUSH2 0x706 CALLDATASIZE PUSH1 0x4 PUSH2 0x3CB3 JUMP JUMPDEST PUSH2 0x29AC JUMP JUMPDEST PUSH2 0x359 PUSH2 0x719 CALLDATASIZE PUSH1 0x4 PUSH2 0x3C30 JUMP JUMPDEST PUSH2 0x2A8B JUMP JUMPDEST PUSH1 0x0 PUSH1 0x1 PUSH1 0x1 PUSH1 0xE0 SHL SUB NOT DUP3 AND PUSH32 0x80AC58CD00000000000000000000000000000000000000000000000000000000 EQ DUP1 PUSH2 0x781 JUMPI POP PUSH1 0x1 PUSH1 0x1 PUSH1 0xE0 SHL SUB NOT DUP3 AND PUSH32 0xF422EA4E00000000000000000000000000000000000000000000000000000000 EQ JUMPDEST DUP1 PUSH2 0x7B5 JUMPI POP PUSH1 0x1 PUSH1 0x1 PUSH1 0xE0 SHL SUB NOT DUP3 AND PUSH32 0x5B5E139F00000000000000000000000000000000000000000000000000000000 EQ JUMPDEST DUP1 PUSH2 0x7E9 JUMPI POP PUSH1 0x1 PUSH1 0x1 PUSH1 0xE0 SHL SUB NOT DUP3 AND PUSH32 0x780E9D6300000000000000000000000000000000000000000000000000000000 EQ JUMPDEST DUP1 PUSH2 0x81D JUMPI POP PUSH32 0x1FFC9A700000000000000000000000000000000000000000000000000000000 PUSH1 0x1 PUSH1 0x1 PUSH1 0xE0 SHL SUB NOT DUP4 AND EQ JUMPDEST SWAP3 SWAP2 POP POP JUMP JUMPDEST PUSH1 0x9 DUP1 SLOAD PUSH2 0x830 SWAP1 PUSH2 0x4122 JUMP JUMPDEST DUP1 PUSH1 0x1F ADD PUSH1 0x20 DUP1 SWAP2 DIV MUL PUSH1 0x20 ADD PUSH1 0x40 MLOAD SWAP1 DUP2 ADD PUSH1 0x40 MSTORE DUP1 SWAP3 SWAP2 SWAP1 DUP2 DUP2 MSTORE PUSH1 0x20 ADD DUP3 DUP1 SLOAD PUSH2 0x85C SWAP1 PUSH2 0x4122 JUMP JUMPDEST DUP1 ISZERO PUSH2 0x8A9 JUMPI DUP1 PUSH1 0x1F LT PUSH2 0x87E JUMPI PUSH2 0x100 DUP1 DUP4 SLOAD DIV MUL DUP4 MSTORE SWAP2 PUSH1 0x20 ADD SWAP2 PUSH2 0x8A9 JUMP JUMPDEST DUP3 ADD SWAP2 SWAP1 PUSH1 0x0 MSTORE PUSH1 0x20 PUSH1 0x0 KECCAK256 SWAP1 JUMPDEST DUP2 SLOAD DUP2 MSTORE SWAP1 PUSH1 0x1 ADD SWAP1 PUSH1 0x20 ADD DUP1 DUP4 GT PUSH2 0x88C JUMPI DUP3 SWAP1 SUB PUSH1 0x1F AND DUP3 ADD SWAP2 JUMPDEST POP POP POP POP POP DUP2 JUMP JUMPDEST PUSH1 0x0 PUSH2 0x8BC DUP3 PUSH2 0x2B90 JUMP JUMPDEST PUSH2 0x922 JUMPI PUSH1 0x40 MLOAD PUSH3 0x461BCD PUSH1 0xE5 SHL DUP2 MSTORE PUSH1 0x20 PUSH1 0x4 DUP3 ADD MSTORE PUSH1 0x2C PUSH1 0x24 DUP3 ADD MSTORE PUSH32 0x4B41503732313A20417070726F76656420717565727920666F72206E6F6E6578 PUSH1 0x44 DUP3 ADD MSTORE PUSH12 0x34B9BA32B73A103A37B5B2B7 PUSH1 0xA1 SHL PUSH1 0x64 DUP3 ADD MSTORE PUSH1 0x84 ADD JUMPDEST PUSH1 0x40 MLOAD DUP1 SWAP2 SUB SWAP1 REVERT JUMPDEST POP PUSH1 0x0 SWAP1 DUP2 MSTORE PUSH1 0x7 PUSH1 0x20 MSTORE PUSH1 0x40 SWAP1 KECCAK256 SLOAD PUSH1 0x1 PUSH1 0x1 PUSH1 0xA0 SHL SUB AND SWAP1 JUMP JUMPDEST PUSH1 0x3 SLOAD PUSH1 0x1 PUSH1 0xA0 SHL SWAP1 DIV PUSH1 0xFF AND ISZERO PUSH2 0x98B JUMPI PUSH1 0x40 MLOAD PUSH3 0x461BCD PUSH1 0xE5 SHL DUP2 MSTORE PUSH1 0x20 PUSH1 0x4 DUP3 ADD MSTORE PUSH1 0x10 PUSH1 0x24 DUP3 ADD MSTORE PUSH16 0x14185D5CD8589B194E881C185D5CD959 PUSH1 0x82 SHL PUSH1 0x44 DUP3 ADD MSTORE PUSH1 0x64 ADD PUSH2 0x919 JUMP JUMPDEST PUSH1 0x0 PUSH2 0x996 DUP3 PUSH2 0x12F7 JUMP JUMPDEST SWAP1 POP DUP1 PUSH1 0x1 PUSH1 0x1 PUSH1 0xA0 SHL SUB AND DUP4 PUSH1 0x1 PUSH1 0x1 PUSH1 0xA0 SHL SUB AND SUB PUSH2 0xA1F JUMPI PUSH1 0x40 MLOAD PUSH3 0x461BCD PUSH1 0xE5 SHL DUP2 MSTORE PUSH1 0x20 PUSH1 0x4 DUP3 ADD MSTORE PUSH1 0x21 PUSH1 0x24 DUP3 ADD MSTORE PUSH32 0x4B41503732313A20417070726F76616C20746F2063757272656E74206F776E65 PUSH1 0x44 DUP3 ADD MSTORE PUSH32 0x7200000000000000000000000000000000000000000000000000000000000000 PUSH1 0x64 DUP3 ADD MSTORE PUSH1 0x84 ADD PUSH2 0x919 JUMP JUMPDEST CALLER PUSH1 0x1 PUSH1 0x1 PUSH1 0xA0 SHL SUB DUP3 AND EQ DUP1 PUSH2 0xA59 JUMPI POP PUSH1 0x1 PUSH1 0x1 PUSH1 0xA0 SHL SUB DUP2 AND PUSH1 0x0 SWAP1 DUP2 MSTORE PUSH1 0x8 PUSH1 0x20 SWAP1 DUP2 MSTORE PUSH1 0x40 DUP1 DUP4 KECCAK256 CALLER DUP5 MSTORE SWAP1 SWAP2 MSTORE SWAP1 KECCAK256 SLOAD PUSH1 0xFF AND JUMPDEST PUSH2 0xACB JUMPI PUSH1 0x40 MLOAD PUSH3 0x461BCD PUSH1 0xE5 SHL DUP2 MSTORE PUSH1 0x20 PUSH1 0x4 DUP3 ADD MSTORE PUSH1 0x38 PUSH1 0x24 DUP3 ADD MSTORE PUSH32 0x4B41503732313A20417070726F76652063616C6C6572206973206E6F74206F77 PUSH1 0x44 DUP3 ADD MSTORE PUSH32 0x6E6572206E6F7220617070726F76656420666F7220616C6C0000000000000000 PUSH1 0x64 DUP3 ADD MSTORE PUSH1 0x84 ADD PUSH2 0x919 JUMP JUMPDEST PUSH2 0xAD5 DUP4 DUP4 PUSH2 0x2B9D JUMP JUMPDEST POP POP POP JUMP JUMPDEST PUSH1 0xD SLOAD PUSH1 0x1 PUSH1 0x1 PUSH1 0xA0 SHL SUB AND CALLER EQ DUP1 PUSH2 0xB02 JUMPI POP PUSH1 0x2 SLOAD PUSH2 0x100 SWAP1 DIV PUSH1 0x1 PUSH1 0x1 PUSH1 0xA0 SHL SUB AND CALLER EQ JUMPDEST PUSH2 0xB64 JUMPI PUSH1 0x40 MLOAD PUSH3 0x461BCD PUSH1 0xE5 SHL DUP2 MSTORE PUSH1 0x20 PUSH1 0x4 DUP3 ADD MSTORE PUSH1 0x2D PUSH1 0x24 DUP3 ADD MSTORE PUSH32 0x4B415037323153444B3A2052657374726963746564206F6E6C79206F776E6572 PUSH1 0x44 DUP3 ADD MSTORE PUSH13 0x206F7220636F6D6D6974746565 PUSH1 0x98 SHL PUSH1 0x64 DUP3 ADD MSTORE PUSH1 0x84 ADD PUSH2 0x919 JUMP JUMPDEST PUSH2 0xAD5 DUP4 DUP4 DUP4 DUP1 DUP1 PUSH1 0x1F ADD PUSH1 0x20 DUP1 SWAP2 DIV MUL PUSH1 0x20 ADD PUSH1 0x40 MLOAD SWAP1 DUP2 ADD PUSH1 0x40 MSTORE DUP1 SWAP4 SWAP3 SWAP2 SWAP1 DUP2 DUP2 MSTORE PUSH1 0x20 ADD DUP4 DUP4 DUP1 DUP3 DUP5 CALLDATACOPY PUSH1 0x0 SWAP3 ADD SWAP2 SWAP1 SWAP2 MSTORE POP PUSH2 0x2C0B SWAP3 POP POP POP JUMP JUMPDEST PUSH1 0x0 PUSH2 0xBB0 PUSH1 0x5 PUSH2 0x2C8D JUMP JUMPDEST SWAP1 POP SWAP1 JUMP JUMPDEST PUSH1 0x3 SLOAD PUSH1 0x1 PUSH1 0xA0 SHL SWAP1 DIV PUSH1 0xFF AND ISZERO PUSH2 0xC02 JUMPI PUSH1 0x40 MLOAD PUSH3 0x461BCD PUSH1 0xE5 SHL DUP2 MSTORE PUSH1 0x20 PUSH1 0x4 DUP3 ADD MSTORE PUSH1 0x10 PUSH1 0x24 DUP3 ADD MSTORE PUSH16 0x14185D5CD8589B194E881C185D5CD959 PUSH1 0x82 SHL PUSH1 0x44 DUP3 ADD MSTORE PUSH1 0x64 ADD PUSH2 0x919 JUMP JUMPDEST PUSH2 0xC0C CALLER DUP3 PUSH2 0x2C97 JUMP JUMPDEST PUSH2 0xC7E JUMPI PUSH1 0x40 MLOAD PUSH3 0x461BCD PUSH1 0xE5 SHL DUP2 MSTORE PUSH1 0x20 PUSH1 0x4 DUP3 ADD MSTORE PUSH1 0x31 PUSH1 0x24 DUP3 ADD MSTORE PUSH32 0x4B41503732313A205472616E736665722063616C6C6572206973206E6F74206F PUSH1 0x44 DUP3 ADD MSTORE PUSH32 0x776E6572206E6F7220617070726F766564000000000000000000000000000000 PUSH1 0x64 DUP3 ADD MSTORE PUSH1 0x84 ADD PUSH2 0x919 JUMP JUMPDEST PUSH2 0xAD5 DUP4 DUP4 DUP4 PUSH2 0x2D7D JUMP JUMPDEST PUSH1 0x1 PUSH1 0x1 PUSH1 0xA0 SHL SUB DUP3 AND PUSH1 0x0 SWAP1 DUP2 MSTORE PUSH1 0x4 PUSH1 0x20 MSTORE PUSH1 0x40 DUP2 KECCAK256 PUSH2 0xCAB SWAP1 DUP4 PUSH2 0x2E78 JUMP JUMPDEST SWAP4 SWAP3 POP POP POP JUMP JUMPDEST PUSH1 0x2 SLOAD PUSH2 0x100 SWAP1 DIV PUSH1 0x1 PUSH1 0x1 PUSH1 0xA0 SHL SUB AND CALLER EQ PUSH2 0xD1D JUMPI PUSH1 0x40 MLOAD PUSH3 0x461BCD PUSH1 0xE5 SHL DUP2 MSTORE PUSH1 0x20 PUSH1 0x4 DUP3 ADD MSTORE PUSH1 0x24 DUP1 DUP3 ADD MSTORE PUSH32 0x436F6D6D69747465653A2052657374726963746564206F6E6C7920636F6D6D69 PUSH1 0x44 DUP3 ADD MSTORE PUSH4 0x74746565 PUSH1 0xE0 SHL PUSH1 0x64 DUP3 ADD MSTORE PUSH1 0x84 ADD PUSH2 0x919 JUMP JUMPDEST PUSH2 0xD26 DUP2 PUSH1 0x1 SSTORE JUMP JUMPDEST POP JUMP JUMPDEST PUSH1 0xD SLOAD PUSH1 0x1 PUSH1 0x1 PUSH1 0xA0 SHL SUB AND CALLER EQ DUP1 PUSH2 0xD51 JUMPI POP PUSH1 0x2 SLOAD PUSH2 0x100 SWAP1 DIV PUSH1 0x1 PUSH1 0x1 PUSH1 0xA0 SHL SUB AND CALLER EQ JUMPDEST PUSH2 0xDB3 JUMPI PUSH1 0x40 MLOAD PUSH3 0x461BCD PUSH1 0xE5 SHL DUP2 MSTORE PUSH1 0x20 PUSH1 0x4 DUP3 ADD MSTORE PUSH1 0x2D PUSH1 0x24 DUP3 ADD MSTORE PUSH32 0x4B415037323153444B3A2052657374726963746564206F6E6C79206F776E6572 PUSH1 0x44 DUP3 ADD MSTORE PUSH13 0x206F7220636F6D6D6974746565 PUSH1 0x98 SHL PUSH1 0x64 DUP3 ADD MSTORE PUSH1 0x84 ADD PUSH2 0x919 JUMP JUMPDEST PUSH2 0xDBB PUSH2 0x2EFE JUMP JUMPDEST JUMP JUMPDEST PUSH1 0xD SLOAD PUSH1 0x1 PUSH1 0x1 PUSH1 0xA0 SHL SUB AND CALLER EQ PUSH2 0xE17 JUMPI PUSH1 0x40 MLOAD PUSH3 0x461BCD PUSH1 0xE5 SHL DUP2 MSTORE PUSH1 0x20 PUSH1 0x4 DUP3 ADD DUP2 SWAP1 MSTORE PUSH1 0x24 DUP3 ADD MSTORE PUSH32 0x4F776E61626C653A2043616C6C6572206973206E6F7420746865206F776E6572 PUSH1 0x44 DUP3 ADD MSTORE PUSH1 0x64 ADD PUSH2 0x919 JUMP JUMPDEST PUSH1 0x3 SLOAD PUSH1 0x1 PUSH1 0xA0 SHL SWAP1 DIV PUSH1 0xFF AND ISZERO PUSH2 0xE64 JUMPI PUSH1 0x40 MLOAD PUSH3 0x461BCD PUSH1 0xE5 SHL DUP2 MSTORE PUSH1 0x20 PUSH1 0x4 DUP3 ADD MSTORE PUSH1 0x10 PUSH1 0x24 DUP3 ADD MSTORE PUSH16 0x14185D5CD8589B194E881C185D5CD959 PUSH1 0x82 SHL PUSH1 0x44 DUP3 ADD MSTORE PUSH1 0x64 ADD PUSH2 0x919 JUMP JUMPDEST PUSH2 0xE6E DUP3 DUP3 PUSH2 0x2FA4 JUMP JUMPDEST POP POP JUMP JUMPDEST PUSH1 0x3 SLOAD PUSH1 0x1 PUSH1 0xA0 SHL SWAP1 DIV PUSH1 0xFF AND ISZERO PUSH2 0xEBF JUMPI PUSH1 0x40 MLOAD PUSH3 0x461BCD PUSH1 0xE5 SHL DUP2 MSTORE PUSH1 0x20 PUSH1 0x4 DUP3 ADD MSTORE PUSH1 0x10 PUSH1 0x24 DUP3 ADD MSTORE PUSH16 0x14185D5CD8589B194E881C185D5CD959 PUSH1 0x82 SHL PUSH1 0x44 DUP3 ADD MSTORE PUSH1 0x64 ADD PUSH2 0x919 JUMP JUMPDEST PUSH2 0xAD5 DUP4 DUP4 DUP4 PUSH1 0x40 MLOAD DUP1 PUSH1 0x20 ADD PUSH1 0x40 MSTORE DUP1 PUSH1 0x0 DUP2 MSTORE POP PUSH2 0x1C51 JUMP JUMPDEST DUP1 PUSH2 0xEED PUSH1 0xD SLOAD PUSH1 0x1 PUSH1 0x1 PUSH1 0xA0 SHL SUB AND SWAP1 JUMP JUMPDEST PUSH1 0x1 PUSH1 0x1 PUSH1 0xA0 SHL SUB AND CALLER PUSH1 0x1 PUSH1 0x1 PUSH1 0xA0 SHL SUB AND EQ DUP1 PUSH2 0xF25 JUMPI POP PUSH2 0xF10 DUP2 PUSH2 0x12F7 JUMP JUMPDEST PUSH1 0x1 PUSH1 0x1 PUSH1 0xA0 SHL SUB AND CALLER PUSH1 0x1 PUSH1 0x1 PUSH1 0xA0 SHL SUB AND EQ JUMPDEST PUSH2 0xF97 JUMPI PUSH1 0x40 MLOAD PUSH3 0x461BCD PUSH1 0xE5 SHL DUP2 MSTORE PUSH1 0x20 PUSH1 0x4 DUP3 ADD MSTORE PUSH1 0x39 PUSH1 0x24 DUP3 ADD MSTORE PUSH32 0x4B415037323153444B3A2072657374726963746564206F6E6C79207375706572 PUSH1 0x44 DUP3 ADD MSTORE PUSH32 0x2061646D696E206F72206F776E6572206F7220686F6C64657200000000000000 PUSH1 0x64 DUP3 ADD MSTORE PUSH1 0x84 ADD PUSH2 0x919 JUMP JUMPDEST PUSH1 0x3 SLOAD PUSH1 0x1 PUSH1 0xA0 SHL SWAP1 DIV PUSH1 0xFF AND ISZERO PUSH2 0xFE4 JUMPI PUSH1 0x40 MLOAD PUSH3 0x461BCD PUSH1 0xE5 SHL DUP2 MSTORE PUSH1 0x20 PUSH1 0x4 DUP3 ADD MSTORE PUSH1 0x10 PUSH1 0x24 DUP3 ADD MSTORE PUSH16 0x14185D5CD8589B194E881C185D5CD959 PUSH1 0x82 SHL PUSH1 0x44 DUP3 ADD MSTORE PUSH1 0x64 ADD PUSH2 0x919 JUMP JUMPDEST PUSH2 0xE6E DUP3 PUSH2 0x30BC JUMP JUMPDEST PUSH1 0x0 PUSH2 0x81D DUP3 PUSH2 0x2B90 JUMP JUMPDEST PUSH1 0x0 DUP1 PUSH2 0x1006 PUSH1 0x5 DUP5 PUSH2 0x3175 JUMP JUMPDEST POP SWAP4 SWAP3 POP POP POP JUMP JUMPDEST PUSH1 0xD SLOAD PUSH1 0x1 PUSH1 0x1 PUSH1 0xA0 SHL SUB AND CALLER EQ DUP1 PUSH2 0x1036 JUMPI POP PUSH1 0x2 SLOAD PUSH2 0x100 SWAP1 DIV PUSH1 0x1 PUSH1 0x1 PUSH1 0xA0 SHL SUB AND CALLER EQ JUMPDEST PUSH2 0x1098 JUMPI PUSH1 0x40 MLOAD PUSH3 0x461BCD PUSH1 0xE5 SHL DUP2 MSTORE PUSH1 0x20 PUSH1 0x4 DUP3 ADD MSTORE PUSH1 0x2D PUSH1 0x24 DUP3 ADD MSTORE PUSH32 0x4B415037323153444B3A2052657374726963746564206F6E6C79206F776E6572 PUSH1 0x44 DUP3 ADD MSTORE PUSH13 0x206F7220636F6D6D6974746565 PUSH1 0x98 SHL PUSH1 0x64 DUP3 ADD MSTORE PUSH1 0x84 ADD PUSH2 0x919 JUMP JUMPDEST PUSH2 0xE6E DUP3 DUP3 DUP1 DUP1 PUSH1 0x1F ADD PUSH1 0x20 DUP1 SWAP2 DIV MUL PUSH1 0x20 ADD PUSH1 0x40 MLOAD SWAP1 DUP2 ADD PUSH1 0x40 MSTORE DUP1 SWAP4 SWAP3 SWAP2 SWAP1 DUP2 DUP2 MSTORE PUSH1 0x20 ADD DUP4 DUP4 DUP1 DUP3 DUP5 CALLDATACOPY PUSH1 0x0 SWAP3 ADD SWAP2 SWAP1 SWAP2 MSTORE POP PUSH2 0x3193 SWAP3 POP POP POP JUMP JUMPDEST PUSH1 0x3 SLOAD PUSH1 0x0 SWAP1 PUSH1 0x1 PUSH1 0x1 PUSH1 0xA0 SHL SUB AND CALLER EQ PUSH2 0x115A JUMPI PUSH1 0x40 MLOAD PUSH3 0x461BCD PUSH1 0xE5 SHL DUP2 MSTORE PUSH1 0x20 PUSH1 0x4 DUP3 ADD MSTORE PUSH1 0x31 PUSH1 0x24 DUP3 ADD MSTORE PUSH32 0x416363657373436F6E74726F6C6C65723A2052657374726963746564206F6E6C PUSH1 0x44 DUP3 ADD MSTORE PUSH32 0x79207472616E7366657220726F75746572000000000000000000000000000000 PUSH1 0x64 DUP3 ADD MSTORE PUSH1 0x84 ADD PUSH2 0x919 JUMP JUMPDEST PUSH1 0x3 SLOAD PUSH1 0x1 PUSH1 0xA0 SHL SWAP1 DIV PUSH1 0xFF AND ISZERO PUSH2 0x11A7 JUMPI PUSH1 0x40 MLOAD PUSH3 0x461BCD PUSH1 0xE5 SHL DUP2 MSTORE PUSH1 0x20 PUSH1 0x4 DUP3 ADD MSTORE PUSH1 0x10 PUSH1 0x24 DUP3 ADD MSTORE PUSH16 0x14185D5CD8589B194E881C185D5CD959 PUSH1 0x82 SHL PUSH1 0x44 DUP3 ADD MSTORE PUSH1 0x64 ADD PUSH2 0x919 JUMP JUMPDEST PUSH1 0x1 SLOAD PUSH1 0x0 SLOAD PUSH1 0x40 MLOAD PUSH4 0x6F19A8D PUSH1 0xE2 SHL DUP2 MSTORE PUSH1 0x1 PUSH1 0x1 PUSH1 0xA0 SHL SUB DUP8 DUP2 AND PUSH1 0x4 DUP4 ADD MSTORE SWAP1 SWAP2 AND SWAP1 PUSH4 0x1BC66A34 SWAP1 PUSH1 0x24 ADD PUSH1 0x20 PUSH1 0x40 MLOAD DUP1 DUP4 SUB DUP2 DUP7 GAS STATICCALL ISZERO DUP1 ISZERO PUSH2 0x11F4 JUMPI RETURNDATASIZE PUSH1 0x0 DUP1 RETURNDATACOPY RETURNDATASIZE PUSH1 0x0 REVERT JUMPDEST POP POP POP POP PUSH1 0x40 MLOAD RETURNDATASIZE PUSH1 0x1F NOT PUSH1 0x1F DUP3 ADD AND DUP3 ADD DUP1 PUSH1 0x40 MSTORE POP DUP2 ADD SWAP1 PUSH2 0x1218 SWAP2 SWAP1 PUSH2 0x415C JUMP JUMPDEST LT ISZERO DUP1 ISZERO PUSH2 0x1296 JUMPI POP PUSH1 0x1 SLOAD PUSH1 0x0 SLOAD PUSH1 0x40 MLOAD PUSH4 0x6F19A8D PUSH1 0xE2 SHL DUP2 MSTORE PUSH1 0x1 PUSH1 0x1 PUSH1 0xA0 SHL SUB DUP7 DUP2 AND PUSH1 0x4 DUP4 ADD MSTORE SWAP1 SWAP2 AND SWAP1 PUSH4 0x1BC66A34 SWAP1 PUSH1 0x24 ADD JUMPDEST PUSH1 0x20 PUSH1 0x40 MLOAD DUP1 DUP4 SUB DUP2 DUP7 GAS STATICCALL ISZERO DUP1 ISZERO PUSH2 0x126F JUMPI RETURNDATASIZE PUSH1 0x0 DUP1 RETURNDATACOPY RETURNDATASIZE PUSH1 0x0 REVERT JUMPDEST POP POP POP POP PUSH1 0x40 MLOAD RETURNDATASIZE PUSH1 0x1F NOT PUSH1 0x1F DUP3 ADD AND DUP3 ADD DUP1 PUSH1 0x40 MSTORE POP DUP2 ADD SWAP1 PUSH2 0x1293 SWAP2 SWAP1 PUSH2 0x415C JUMP JUMPDEST LT ISZERO JUMPDEST PUSH2 0x12E2 JUMPI PUSH1 0x40 MLOAD PUSH3 0x461BCD PUSH1 0xE5 SHL DUP2 MSTORE PUSH1 0x20 PUSH1 0x4 DUP3 ADD MSTORE PUSH1 0x1D PUSH1 0x24 DUP3 ADD MSTORE PUSH32 0x4B41503732313A204F6E6C7920696E7465726E616C20707572706F7365000000 PUSH1 0x44 DUP3 ADD MSTORE PUSH1 0x64 ADD PUSH2 0x919 JUMP JUMPDEST PUSH2 0x12ED DUP5 DUP5 DUP5 PUSH2 0x2D7D JUMP JUMPDEST POP PUSH1 0x1 SWAP4 SWAP3 POP POP POP JUMP JUMPDEST PUSH1 0x0 PUSH2 0x81D DUP3 PUSH1 0x40 MLOAD DUP1 PUSH1 0x60 ADD PUSH1 0x40 MSTORE DUP1 PUSH1 0x29 DUP2 MSTORE PUSH1 0x20 ADD PUSH2 0x4533 PUSH1 0x29 SWAP2 CODECOPY PUSH1 0x5 SWAP2 SWAP1 PUSH2 0x319F JUMP JUMPDEST PUSH1 0x2 SLOAD PUSH2 0x100 SWAP1 DIV PUSH1 0x1 PUSH1 0x1 PUSH1 0xA0 SHL SUB AND CALLER EQ PUSH2 0x138A JUMPI PUSH1 0x40 MLOAD PUSH3 0x461BCD PUSH1 0xE5 SHL DUP2 MSTORE PUSH1 0x20 PUSH1 0x4 DUP3 ADD MSTORE PUSH1 0x24 DUP1 DUP3 ADD MSTORE PUSH32 0x436F6D6D69747465653A2052657374726963746564206F6E6C7920636F6D6D69 PUSH1 0x44 DUP3 ADD MSTORE PUSH4 0x74746565 PUSH1 0xE0 SHL PUSH1 0x64 DUP3 ADD MSTORE PUSH1 0x84 ADD PUSH2 0x919 JUMP JUMPDEST PUSH1 0xE SLOAD PUSH1 0x1 PUSH1 0x1 PUSH1 0xA0 SHL SUB DUP1 DUP4 AND SWAP2 AND SUB PUSH2 0x140D JUMPI PUSH1 0x40 MLOAD PUSH3 0x461BCD PUSH1 0xE5 SHL DUP2 MSTORE PUSH1 0x20 PUSH1 0x4 DUP3 ADD MSTORE PUSH1 0x28 PUSH1 0x24 DUP3 ADD MSTORE PUSH32 0x417574686F72697A6174696F6E3A2053616D65206173206F6C642061646D696E PUSH1 0x44 DUP3 ADD MSTORE PUSH32 0x2061646472657373000000000000000000000000000000000000000000000000 PUSH1 0x64 DUP3 ADD MSTORE PUSH1 0x84 ADD PUSH2 0x919 JUMP JUMPDEST PUSH1 0xE SLOAD PUSH1 0x40 MLOAD CALLER SWAP2 PUSH1 0x1 PUSH1 0x1 PUSH1 0xA0 SHL SUB DUP5 DUP2 AND SWAP3 SWAP2 AND SWAP1 PUSH32 0x1B46AC78008AA118DAE1CDC2EE1DEEEBDB68F360A44D2CEC3336F37D4354E751 SWAP1 PUSH1 0x0 SWAP1 LOG4 PUSH1 0xE DUP1 SLOAD PUSH1 0x1 PUSH1 0x1 PUSH1 0xA0 SHL SUB NOT AND PUSH1 0x1 PUSH1 0x1 PUSH1 0xA0 SHL SUB SWAP3 SWAP1 SWAP3 AND SWAP2 SWAP1 SWAP2 OR SWAP1 SSTORE JUMP JUMPDEST PUSH1 0xC DUP1 SLOAD PUSH2 0x830 SWAP1 PUSH2 0x4122 JUMP JUMPDEST PUSH1 0x0 PUSH1 0x1 PUSH1 0x1 PUSH1 0xA0 SHL SUB DUP3 AND PUSH2 0x14F7 JUMPI PUSH1 0x40 MLOAD PUSH3 0x461BCD PUSH1 0xE5 SHL DUP2 MSTORE PUSH1 0x20 PUSH1 0x4 DUP3 ADD MSTORE PUSH1 0x2A PUSH1 0x24 DUP3 ADD MSTORE PUSH32 0x4B41503732313A2042616C616E636520717565727920666F7220746865207A65 PUSH1 0x44 DUP3 ADD MSTORE PUSH32 0x726F206164647265737300000000000000000000000000000000000000000000 PUSH1 0x64 DUP3 ADD MSTORE PUSH1 0x84 ADD PUSH2 0x919 JUMP JUMPDEST PUSH1 0x1 PUSH1 0x1 PUSH1 0xA0 SHL SUB DUP3 AND PUSH1 0x0 SWAP1 DUP2 MSTORE PUSH1 0x4 PUSH1 0x20 MSTORE PUSH1 0x40 SWAP1 KECCAK256 SLOAD PUSH2 0x81D JUMP JUMPDEST PUSH1 0xD SLOAD PUSH1 0x1 PUSH1 0x1 PUSH1 0xA0 SHL SUB AND CALLER EQ PUSH2 0x156F JUMPI PUSH1 0x40 MLOAD PUSH3 0x461BCD PUSH1 0xE5 SHL DUP2 MSTORE PUSH1 0x20 PUSH1 0x4 DUP3 ADD DUP2 SWAP1 MSTORE PUSH1 0x24 DUP3 ADD MSTORE PUSH32 0x4F776E61626C653A2043616C6C6572206973206E6F7420746865206F776E6572 PUSH1 0x44 DUP3 ADD MSTORE PUSH1 0x64 ADD PUSH2 0x919 JUMP JUMPDEST PUSH2 0xDBB PUSH1 0x0 PUSH2 0x31AC JUMP JUMPDEST PUSH1 0x1 PUSH1 0x1 PUSH1 0xA0 SHL SUB DUP2 AND PUSH1 0x0 SWAP1 DUP2 MSTORE PUSH1 0x4 PUSH1 0x20 MSTORE PUSH1 0x40 SWAP1 KECCAK256 PUSH1 0x60 SWAP1 PUSH2 0x81D SWAP1 PUSH2 0x31FE JUMP JUMPDEST PUSH1 0xE SLOAD PUSH1 0x40 MLOAD PUSH4 0x63CD456B PUSH1 0xE0 SHL DUP2 MSTORE PUSH1 0x0 SWAP2 PUSH1 0x1 PUSH1 0x1 PUSH1 0xA0 SHL SUB AND SWAP1 PUSH4 0x63CD456B SWAP1 PUSH2 0x15D1 SWAP1 CALLER SWAP1 PUSH1 0xF SWAP1 PUSH1 0x4 ADD PUSH2 0x4175 JUMP JUMPDEST PUSH1 0x20 PUSH1 0x40 MLOAD DUP1 DUP4 SUB DUP2 DUP7 GAS STATICCALL ISZERO DUP1 ISZERO PUSH2 0x15EE JUMPI RETURNDATASIZE PUSH1 0x0 DUP1 RETURNDATACOPY RETURNDATASIZE PUSH1 0x0 REVERT JUMPDEST POP POP POP POP PUSH1 0x40 MLOAD RETURNDATASIZE PUSH1 0x1F NOT PUSH1 0x1F DUP3 ADD AND DUP3 ADD DUP1 PUSH1 0x40 MSTORE POP DUP2 ADD SWAP1 PUSH2 0x1612 SWAP2 SWAP1 PUSH2 0x4211 JUMP JUMPDEST PUSH2 0x166E JUMPI PUSH1 0x40 MLOAD PUSH3 0x461BCD PUSH1 0xE5 SHL DUP2 MSTORE PUSH1 0x20 PUSH1 0x4 DUP3 ADD MSTORE PUSH1 0x27 PUSH1 0x24 DUP3 ADD MSTORE PUSH32 0x417574686F72697A6174696F6E3A2052657374726963746564206F6E6C792065 PUSH1 0x44 DUP3 ADD MSTORE PUSH7 0x3C32B1BABA37B9 PUSH1 0xC9 SHL PUSH1 0x64 DUP3 ADD MSTORE PUSH1 0x84 ADD PUSH2 0x919 JUMP JUMPDEST DUP4 PUSH1 0x1 PUSH1 0x1 PUSH1 0xA0 SHL SUB AND DUP4 PUSH1 0x1 PUSH1 0x1 PUSH1 0xA0 SHL SUB AND SUB PUSH2 0x16CF JUMPI PUSH1 0x40 MLOAD PUSH3 0x461BCD PUSH1 0xE5 SHL DUP2 MSTORE PUSH1 0x20 PUSH1 0x4 DUP3 ADD MSTORE PUSH1 0x1C PUSH1 0x24 DUP3 ADD MSTORE PUSH32 0x4B415037323153444B3A20417070726F766520746F2063616C6C657200000000 PUSH1 0x44 DUP3 ADD MSTORE PUSH1 0x64 ADD PUSH2 0x919 JUMP JUMPDEST PUSH1 0x1 SLOAD PUSH1 0x0 SLOAD PUSH1 0x40 MLOAD PUSH4 0x6F19A8D PUSH1 0xE2 SHL DUP2 MSTORE PUSH1 0x1 PUSH1 0x1 PUSH1 0xA0 SHL SUB DUP8 DUP2 AND PUSH1 0x4 DUP4 ADD MSTORE SWAP1 SWAP2 AND SWAP1 PUSH4 0x1BC66A34 SWAP1 PUSH1 0x24 ADD PUSH1 0x20 PUSH1 0x40 MLOAD DUP1 DUP4 SUB DUP2 DUP7 GAS STATICCALL ISZERO DUP1 ISZERO PUSH2 0x171C JUMPI RETURNDATASIZE PUSH1 0x0 DUP1 RETURNDATACOPY RETURNDATASIZE PUSH1 0x0 REVERT JUMPDEST POP POP POP POP PUSH1 0x40 MLOAD RETURNDATASIZE PUSH1 0x1F NOT PUSH1 0x1F DUP3 ADD AND DUP3 ADD DUP1 PUSH1 0x40 MSTORE POP DUP2 ADD SWAP1 PUSH2 0x1740 SWAP2 SWAP1 PUSH2 0x415C JUMP JUMPDEST LT ISZERO DUP1 ISZERO PUSH2 0x17BD JUMPI POP PUSH1 0x1 SLOAD PUSH1 0x0 SLOAD PUSH1 0x40 MLOAD PUSH4 0x6F19A8D PUSH1 0xE2 SHL DUP2 MSTORE PUSH1 0x1 PUSH1 0x1 PUSH1 0xA0 SHL SUB DUP7 DUP2 AND PUSH1 0x4 DUP4 ADD MSTORE SWAP1 SWAP2 AND SWAP1 PUSH4 0x1BC66A34 SWAP1 PUSH1 0x24 ADD PUSH1 0x20 PUSH1 0x40 MLOAD DUP1 DUP4 SUB DUP2 DUP7 GAS STATICCALL ISZERO DUP1 ISZERO PUSH2 0x1796 JUMPI RETURNDATASIZE PUSH1 0x0 DUP1 RETURNDATACOPY RETURNDATASIZE PUSH1 0x0 REVERT JUMPDEST POP POP POP POP PUSH1 0x40 MLOAD RETURNDATASIZE PUSH1 0x1F NOT PUSH1 0x1F DUP3 ADD AND DUP3 ADD DUP1 PUSH1 0x40 MSTORE POP DUP2 ADD SWAP1 PUSH2 0x17BA SWAP2 SWAP1 PUSH2 0x415C JUMP JUMPDEST LT ISZERO JUMPDEST PUSH2 0x182F JUMPI PUSH1 0x40 MLOAD PUSH3 0x461BCD PUSH1 0xE5 SHL DUP2 MSTORE PUSH1 0x20 PUSH1 0x4 DUP3 ADD MSTORE PUSH1 0x36 PUSH1 0x24 DUP3 ADD MSTORE PUSH32 0x4B415037323153444B3A204F776E6572206F72206F70657261746F7220616464 PUSH1 0x44 DUP3 ADD MSTORE PUSH32 0x72657373206973206E6F742061204B5943207573657200000000000000000000 PUSH1 0x64 DUP3 ADD MSTORE PUSH1 0x84 ADD PUSH2 0x919 JUMP JUMPDEST PUSH2 0x12ED DUP5 DUP5 DUP5 PUSH2 0x325A JUMP JUMPDEST PUSH1 0xD SLOAD PUSH1 0x1 PUSH1 0x1 PUSH1 0xA0 SHL SUB AND CALLER EQ DUP1 PUSH2 0x1862 JUMPI POP PUSH1 0x2 SLOAD PUSH2 0x100 SWAP1 DIV PUSH1 0x1 PUSH1 0x1 PUSH1 0xA0 SHL SUB AND CALLER EQ JUMPDEST PUSH2 0x18C4 JUMPI PUSH1 0x40 MLOAD PUSH3 0x461BCD PUSH1 0xE5 SHL DUP2 MSTORE PUSH1 0x20 PUSH1 0x4 DUP3 ADD MSTORE PUSH1 0x2D PUSH1 0x24 DUP3 ADD MSTORE PUSH32 0x4B415037323153444B3A2052657374726963746564206F6E6C79206F776E6572 PUSH1 0x44 DUP3 ADD MSTORE PUSH13 0x206F7220636F6D6D6974746565 PUSH1 0x98 SHL PUSH1 0x64 DUP3 ADD MSTORE PUSH1 0x84 ADD PUSH2 0x919 JUMP JUMPDEST PUSH2 0xDBB PUSH2 0x32C7 JUMP JUMPDEST PUSH1 0xA DUP1 SLOAD PUSH2 0x830 SWAP1 PUSH2 0x4122 JUMP JUMPDEST PUSH1 0x2 SLOAD PUSH2 0x100 SWAP1 DIV PUSH1 0x1 PUSH1 0x1 PUSH1 0xA0 SHL SUB AND CALLER EQ PUSH2 0x1944 JUMPI PUSH1 0x40 MLOAD PUSH3 0x461BCD PUSH1 0xE5 SHL DUP2 MSTORE PUSH1 0x20 PUSH1 0x4 DUP3 ADD MSTORE PUSH1 0x24 DUP1 DUP3 ADD MSTORE PUSH32 0x436F6D6D69747465653A2052657374726963746564206F6E6C7920636F6D6D69 PUSH1 0x44 DUP3 ADD MSTORE PUSH4 0x74746565 PUSH1 0xE0 SHL PUSH1 0x64 DUP3 ADD MSTORE PUSH1 0x84 ADD PUSH2 0x919 JUMP JUMPDEST PUSH1 0x0 DUP1 SLOAD PUSH1 0x1 PUSH1 0x1 PUSH1 0xA0 SHL SUB NOT AND PUSH1 0x1 PUSH1 0x1 PUSH1 0xA0 SHL SUB DUP4 AND OR SWAP1 SSTORE POP JUMP JUMPDEST PUSH1 0xD SLOAD PUSH1 0x1 PUSH1 0x1 PUSH1 0xA0 SHL SUB AND CALLER EQ PUSH2 0x19BC JUMPI PUSH1 0x40 MLOAD PUSH3 0x461BCD PUSH1 0xE5 SHL DUP2 MSTORE PUSH1 0x20 PUSH1 0x4 DUP3 ADD DUP2 SWAP1 MSTORE PUSH1 0x24 DUP3 ADD MSTORE PUSH32 0x4F776E61626C653A2043616C6C6572206973206E6F7420746865206F776E6572 PUSH1 0x44 DUP3 ADD MSTORE PUSH1 0x64 ADD PUSH2 0x919 JUMP JUMPDEST PUSH1 0x3 SLOAD PUSH1 0x1 PUSH1 0xA0 SHL SWAP1 DIV PUSH1 0xFF AND ISZERO PUSH2 0x1A09 JUMPI PUSH1 0x40 MLOAD PUSH3 0x461BCD PUSH1 0xE5 SHL DUP2 MSTORE PUSH1 0x20 PUSH1 0x4 DUP3 ADD MSTORE PUSH1 0x10 PUSH1 0x24 DUP3 ADD MSTORE PUSH16 0x14185D5CD8589B194E881C185D5CD959 PUSH1 0x82 SHL PUSH1 0x44 DUP3 ADD MSTORE PUSH1 0x64 ADD PUSH2 0x919 JUMP JUMPDEST DUP1 MLOAD DUP3 MLOAD EQ PUSH2 0x1A80 JUMPI PUSH1 0x40 MLOAD PUSH3 0x461BCD PUSH1 0xE5 SHL DUP2 MSTORE PUSH1 0x20 PUSH1 0x4 DUP3 ADD MSTORE PUSH1 0x28 PUSH1 0x24 DUP3 ADD MSTORE PUSH32 0x4B415037323153444B3A204E65656420616C6C20696E70757420696E2073616D PUSH1 0x44 DUP3 ADD MSTORE PUSH32 0x65206C656E677468000000000000000000000000000000000000000000000000 PUSH1 0x64 DUP3 ADD MSTORE PUSH1 0x84 ADD PUSH2 0x919 JUMP JUMPDEST PUSH1 0x0 JUMPDEST DUP2 MLOAD DUP2 LT ISZERO PUSH2 0x1ADB JUMPI PUSH2 0x1AC9 DUP5 DUP5 DUP4 DUP2 MLOAD DUP2 LT PUSH2 0x1AA2 JUMPI PUSH2 0x1AA2 PUSH2 0x422E JUMP JUMPDEST PUSH1 0x20 MUL PUSH1 0x20 ADD ADD MLOAD DUP5 DUP5 DUP2 MLOAD DUP2 LT PUSH2 0x1ABC JUMPI PUSH2 0x1ABC PUSH2 0x422E JUMP JUMPDEST PUSH1 0x20 MUL PUSH1 0x20 ADD ADD MLOAD PUSH2 0x334F JUMP JUMPDEST DUP1 PUSH2 0x1AD3 DUP2 PUSH2 0x425A JUMP JUMPDEST SWAP2 POP POP PUSH2 0x1A83 JUMP JUMPDEST POP DUP3 PUSH1 0x1 PUSH1 0x1 PUSH1 0xA0 SHL SUB AND PUSH32 0x3B608A3FB478DF9EB7835C655C3AE8AEA101E40D383758B5A6D30D7E74B418B5 DUP4 DUP4 PUSH1 0x40 MLOAD PUSH2 0x1B17 SWAP3 SWAP2 SWAP1 PUSH2 0x4273 JUMP JUMPDEST PUSH1 0x40 MLOAD DUP1 SWAP2 SUB SWAP1 LOG2 POP POP POP JUMP JUMPDEST PUSH1 0x2 SLOAD PUSH2 0x100 SWAP1 DIV PUSH1 0x1 PUSH1 0x1 PUSH1 0xA0 SHL SUB AND CALLER EQ PUSH2 0x1B8F JUMPI PUSH1 0x40 MLOAD PUSH3 0x461BCD PUSH1 0xE5 SHL DUP2 MSTORE PUSH1 0x20 PUSH1 0x4 DUP3 ADD MSTORE PUSH1 0x24 DUP1 DUP3 ADD MSTORE PUSH32 0x436F6D6D69747465653A2052657374726963746564206F6E6C7920636F6D6D69 PUSH1 0x44 DUP3 ADD MSTORE PUSH4 0x74746565 PUSH1 0xE0 SHL PUSH1 0x64 DUP3 ADD MSTORE PUSH1 0x84 ADD PUSH2 0x919 JUMP JUMPDEST PUSH2 0xDBB PUSH1 0x2 DUP1 SLOAD PUSH1 0xFF NOT AND PUSH1 0x1 OR SWAP1 SSTORE JUMP JUMPDEST PUSH1 0x3 SLOAD PUSH1 0x1 PUSH1 0xA0 SHL SWAP1 DIV PUSH1 0xFF AND ISZERO PUSH2 0x1BEE JUMPI PUSH1 0x40 MLOAD PUSH3 0x461BCD PUSH1 0xE5 SHL DUP2 MSTORE PUSH1 0x20 PUSH1 0x4 DUP3 ADD MSTORE PUSH1 0x10 PUSH1 0x24 DUP3 ADD MSTORE PUSH16 0x14185D5CD8589B194E881C185D5CD959 PUSH1 0x82 SHL PUSH1 0x44 DUP3 ADD MSTORE PUSH1 0x64 ADD PUSH2 0x919 JUMP JUMPDEST CALLER PUSH1 0x1 PUSH1 0x1 PUSH1 0xA0 SHL SUB DUP4 AND SUB PUSH2 0x1C46 JUMPI PUSH1 0x40 MLOAD PUSH3 0x461BCD PUSH1 0xE5 SHL DUP2 MSTORE PUSH1 0x20 PUSH1 0x4 DUP3 ADD MSTORE PUSH1 0x19 PUSH1 0x24 DUP3 ADD MSTORE PUSH32 0x4B41503732313A20417070726F766520746F2063616C6C657200000000000000 PUSH1 0x44 DUP3 ADD MSTORE PUSH1 0x64 ADD PUSH2 0x919 JUMP JUMPDEST PUSH2 0xE6E CALLER DUP4 DUP4 PUSH2 0x325A JUMP JUMPDEST PUSH1 0x3 SLOAD PUSH1 0x1 PUSH1 0xA0 SHL SWAP1 DIV PUSH1 0xFF AND ISZERO PUSH2 0x1C9E JUMPI PUSH1 0x40 MLOAD PUSH3 0x461BCD PUSH1 0xE5 SHL DUP2 MSTORE PUSH1 0x20 PUSH1 0x4 DUP3 ADD MSTORE PUSH1 0x10 PUSH1 0x24 DUP3 ADD MSTORE PUSH16 0x14185D5CD8589B194E881C185D5CD959 PUSH1 0x82 SHL PUSH1 0x44 DUP3 ADD MSTORE PUSH1 0x64 ADD PUSH2 0x919 JUMP JUMPDEST PUSH2 0x1CA8 CALLER DUP4 PUSH2 0x2C97 JUMP JUMPDEST PUSH2 0x1D1A JUMPI PUSH1 0x40 MLOAD PUSH3 0x461BCD PUSH1 0xE5 SHL DUP2 MSTORE PUSH1 0x20 PUSH1 0x4 DUP3 ADD MSTORE PUSH1 0x31 PUSH1 0x24 DUP3 ADD MSTORE PUSH32 0x4B41503732313A205472616E736665722063616C6C6572206973206E6F74206F PUSH1 0x44 DUP3 ADD MSTORE PUSH32 0x776E6572206E6F7220617070726F766564000000000000000000000000000000 PUSH1 0x64 DUP3 ADD MSTORE PUSH1 0x84 ADD PUSH2 0x919 JUMP JUMPDEST PUSH2 0x1D26 DUP5 DUP5 DUP5 DUP5 PUSH2 0x3363 JUMP JUMPDEST POP POP POP POP JUMP JUMPDEST PUSH1 0x2 SLOAD PUSH2 0x100 SWAP1 DIV PUSH1 0x1 PUSH1 0x1 PUSH1 0xA0 SHL SUB AND CALLER EQ PUSH2 0x1D97 JUMPI PUSH1 0x40 MLOAD PUSH3 0x461BCD PUSH1 0xE5 SHL DUP2 MSTORE PUSH1 0x20 PUSH1 0x4 DUP3 ADD MSTORE PUSH1 0x24 DUP1 DUP3 ADD MSTORE PUSH32 0x436F6D6D69747465653A2052657374726963746564206F6E6C7920636F6D6D69 PUSH1 0x44 DUP3 ADD MSTORE PUSH4 0x74746565 PUSH1 0xE0 SHL PUSH1 0x64 DUP3 ADD MSTORE PUSH1 0x84 ADD PUSH2 0x919 JUMP JUMPDEST PUSH1 0x2 SLOAD PUSH1 0x40 MLOAD CALLER SWAP2 PUSH1 0x1 PUSH1 0x1 PUSH1 0xA0 SHL SUB DUP5 DUP2 AND SWAP3 PUSH2 0x100 SWAP1 SWAP3 DIV AND SWAP1 PUSH32 0x98BE4D11812AE954FB899148019B8B73771468CD9346E1CA47D2FA731011EAE6 SWAP1 PUSH1 0x0 SWAP1 LOG4 PUSH1 0x2 DUP1 SLOAD PUSH1 0x1 PUSH1 0x1 PUSH1 0xA0 SHL SUB SWAP1 SWAP3 AND PUSH2 0x100 MUL PUSH32 0xFFFFFFFFFFFFFFFFFFFFFF0000000000000000000000000000000000000000FF SWAP1 SWAP3 AND SWAP2 SWAP1 SWAP2 OR SWAP1 SSTORE JUMP JUMPDEST PUSH1 0x2 SLOAD PUSH2 0x100 SWAP1 DIV PUSH1 0x1 PUSH1 0x1 PUSH1 0xA0 SHL SUB AND CALLER EQ PUSH2 0x1E83 JUMPI PUSH1 0x40 MLOAD PUSH3 0x461BCD PUSH1 0xE5 SHL DUP2 MSTORE PUSH1 0x20 PUSH1 0x4 DUP3 ADD MSTORE PUSH1 0x24 DUP1 DUP3 ADD MSTORE PUSH32 0x436F6D6D69747465653A2052657374726963746564206F6E6C7920636F6D6D69 PUSH1 0x44 DUP3 ADD MSTORE PUSH4 0x74746565 PUSH1 0xE0 SHL PUSH1 0x64 DUP3 ADD MSTORE PUSH1 0x84 ADD PUSH2 0x919 JUMP JUMPDEST PUSH1 0x3 SLOAD PUSH1 0x40 MLOAD CALLER SWAP2 PUSH1 0x1 PUSH1 0x1 PUSH1 0xA0 SHL SUB DUP5 DUP2 AND SWAP3 SWAP2 AND SWAP1 PUSH32 0xB82F5713184C2542A2134CB1D30DE213EB0A56612721E1D610EB0299C3771DF5 SWAP1 PUSH1 0x0 SWAP1 LOG4 PUSH1 0x3 DUP1 SLOAD PUSH1 0x1 PUSH1 0x1 PUSH1 0xA0 SHL SUB NOT AND PUSH1 0x1 PUSH1 0x1 PUSH1 0xA0 SHL SUB SWAP3 SWAP1 SWAP3 AND SWAP2 SWAP1 SWAP2 OR SWAP1 SSTORE JUMP JUMPDEST PUSH1 0x60 PUSH2 0x1EED DUP3 PUSH2 0x2B90 JUMP JUMPDEST PUSH2 0x1F5F JUMPI PUSH1 0x40 MLOAD PUSH3 0x461BCD PUSH1 0xE5 SHL DUP2 MSTORE PUSH1 0x20 PUSH1 0x4 DUP3 ADD MSTORE PUSH1 0x2F PUSH1 0x24 DUP3 ADD MSTORE PUSH32 0x4B41503732314D657461646174613A2055524920717565727920666F72206E6F PUSH1 0x44 DUP3 ADD MSTORE PUSH32 0x6E6578697374656E7420746F6B656E0000000000000000000000000000000000 PUSH1 0x64 DUP3 ADD MSTORE PUSH1 0x84 ADD PUSH2 0x919 JUMP JUMPDEST PUSH1 0x0 DUP3 DUP2 MSTORE PUSH1 0xB PUSH1 0x20 MSTORE PUSH1 0x40 DUP2 KECCAK256 DUP1 SLOAD PUSH2 0x1F78 SWAP1 PUSH2 0x4122 JUMP JUMPDEST DUP1 PUSH1 0x1F ADD PUSH1 0x20 DUP1 SWAP2 DIV MUL PUSH1 0x20 ADD PUSH1 0x40 MLOAD SWAP1 DUP2 ADD PUSH1 0x40 MSTORE DUP1 SWAP3 SWAP2 SWAP1 DUP2 DUP2 MSTORE PUSH1 0x20 ADD DUP3 DUP1 SLOAD PUSH2 0x1FA4 SWAP1 PUSH2 0x4122 JUMP JUMPDEST DUP1 ISZERO PUSH2 0x1FF1 JUMPI DUP1 PUSH1 0x1F LT PUSH2 0x1FC6 JUMPI PUSH2 0x100 DUP1 DUP4 SLOAD DIV MUL DUP4 MSTORE SWAP2 PUSH1 0x20 ADD SWAP2 PUSH2 0x1FF1 JUMP JUMPDEST DUP3 ADD SWAP2 SWAP1 PUSH1 0x0 MSTORE PUSH1 0x20 PUSH1 0x0 KECCAK256 SWAP1 JUMPDEST DUP2 SLOAD DUP2 MSTORE SWAP1 PUSH1 0x1 ADD SWAP1 PUSH1 0x20 ADD DUP1 DUP4 GT PUSH2 0x1FD4 JUMPI DUP3 SWAP1 SUB PUSH1 0x1F AND DUP3 ADD SWAP2 JUMPDEST POP POP POP POP POP SWAP1 POP PUSH1 0x0 PUSH1 0xC DUP1 SLOAD PUSH2 0x2007 SWAP1 PUSH2 0x4122 JUMP JUMPDEST DUP1 PUSH1 0x1F ADD PUSH1 0x20 DUP1 SWAP2 DIV MUL PUSH1 0x20 ADD PUSH1 0x40 MLOAD SWAP1 DUP2 ADD PUSH1 0x40 MSTORE DUP1 SWAP3 SWAP2 SWAP1 DUP2 DUP2 MSTORE PUSH1 0x20 ADD DUP3 DUP1 SLOAD PUSH2 0x2033 SWAP1 PUSH2 0x4122 JUMP JUMPDEST DUP1 ISZERO PUSH2 0x2080 JUMPI DUP1 PUSH1 0x1F LT PUSH2 0x2055 JUMPI PUSH2 0x100 DUP1 DUP4 SLOAD DIV MUL DUP4 MSTORE SWAP2 PUSH1 0x20 ADD SWAP2 PUSH2 0x2080 JUMP JUMPDEST DUP3 ADD SWAP2 SWAP1 PUSH1 0x0 MSTORE PUSH1 0x20 PUSH1 0x0 KECCAK256 SWAP1 JUMPDEST DUP2 SLOAD DUP2 MSTORE SWAP1 PUSH1 0x1 ADD SWAP1 PUSH1 0x20 ADD DUP1 DUP4 GT PUSH2 0x2063 JUMPI DUP3 SWAP1 SUB PUSH1 0x1F AND DUP3 ADD SWAP2 JUMPDEST POP POP POP POP POP SWAP1 POP DUP1 MLOAD PUSH1 0x0 SUB PUSH2 0x2097 JUMPI POP SWAP3 SWAP2 POP POP JUMP JUMPDEST DUP2 MLOAD ISZERO PUSH2 0x20C9 JUMPI DUP1 DUP3 PUSH1 0x40 MLOAD PUSH1 0x20 ADD PUSH2 0x20B1 SWAP3 SWAP2 SWAP1 PUSH2 0x42E9 JUMP JUMPDEST PUSH1 0x40 MLOAD PUSH1 0x20 DUP2 DUP4 SUB SUB DUP2 MSTORE SWAP1 PUSH1 0x40 MSTORE SWAP3 POP POP POP SWAP2 SWAP1 POP JUMP JUMPDEST DUP1 PUSH2 0x20D3 DUP6 PUSH2 0x33EC JUMP JUMPDEST PUSH1 0x40 MLOAD PUSH1 0x20 ADD PUSH2 0x20B1 SWAP3 SWAP2 SWAP1 PUSH2 0x42E9 JUMP JUMPDEST PUSH1 0x1 PUSH1 0x1 PUSH1 0xA0 SHL SUB DUP4 AND PUSH1 0x0 SWAP1 DUP2 MSTORE PUSH1 0x4 PUSH1 0x20 MSTORE PUSH1 0x40 SWAP1 KECCAK256 PUSH1 0x60 SWAP1 PUSH2 0x210A SWAP1 DUP5 DUP5 PUSH2 0x3521 JUMP JUMPDEST SWAP5 SWAP4 POP POP POP POP JUMP JUMPDEST PUSH1 0x2 SLOAD PUSH2 0x100 SWAP1 DIV PUSH1 0x1 PUSH1 0x1 PUSH1 0xA0 SHL SUB AND CALLER EQ PUSH2 0x217D JUMPI PUSH1 0x40 MLOAD PUSH3 0x461BCD PUSH1 0xE5 SHL DUP2 MSTORE PUSH1 0x20 PUSH1 0x4 DUP3 ADD MSTORE PUSH1 0x24 DUP1 DUP3 ADD MSTORE PUSH32 0x436F6D6D69747465653A2052657374726963746564206F6E6C7920636F6D6D69 PUSH1 0x44 DUP3 ADD MSTORE PUSH4 0x74746565 PUSH1 0xE0 SHL PUSH1 0x64 DUP3 ADD MSTORE PUSH1 0x84 ADD PUSH2 0x919 JUMP JUMPDEST PUSH1 0x2 SLOAD PUSH1 0xFF AND ISZERO PUSH2 0x22BC JUMPI PUSH1 0x0 DUP1 SLOAD PUSH1 0x40 MLOAD PUSH4 0x6F19A8D PUSH1 0xE2 SHL DUP2 MSTORE PUSH1 0x1 PUSH1 0x1 PUSH1 0xA0 SHL SUB DUP7 DUP2 AND PUSH1 0x4 DUP4 ADD MSTORE SWAP1 SWAP2 AND SWAP1 PUSH4 0x1BC66A34 SWAP1 PUSH1 0x24 ADD PUSH1 0x20 PUSH1 0x40 MLOAD DUP1 DUP4 SUB DUP2 DUP7 GAS STATICCALL ISZERO DUP1 ISZERO PUSH2 0x21D3 JUMPI RETURNDATASIZE PUSH1 0x0 DUP1 RETURNDATACOPY RETURNDATASIZE PUSH1 0x0 REVERT JUMPDEST POP POP POP POP PUSH1 0x40 MLOAD RETURNDATASIZE PUSH1 0x1F NOT PUSH1 0x1F DUP3 ADD AND DUP3 ADD DUP1 PUSH1 0x40 MSTORE POP DUP2 ADD SWAP1 PUSH2 0x21F7 SWAP2 SWAP1 PUSH2 0x415C JUMP JUMPDEST GT DUP1 ISZERO PUSH2 0x2270 JUMPI POP PUSH1 0x0 DUP1 SLOAD PUSH1 0x40 MLOAD PUSH4 0x6F19A8D PUSH1 0xE2 SHL DUP2 MSTORE PUSH1 0x1 PUSH1 0x1 PUSH1 0xA0 SHL SUB DUP6 DUP2 AND PUSH1 0x4 DUP4 ADD MSTORE SWAP1 SWAP2 AND SWAP1 PUSH4 0x1BC66A34 SWAP1 PUSH1 0x24 ADD PUSH1 0x20 PUSH1 0x40 MLOAD DUP1 DUP4 SUB DUP2 DUP7 GAS STATICCALL ISZERO DUP1 ISZERO PUSH2 0x224A JUMPI RETURNDATASIZE PUSH1 0x0 DUP1 RETURNDATACOPY RETURNDATASIZE PUSH1 0x0 REVERT JUMPDEST POP POP POP POP PUSH1 0x40 MLOAD RETURNDATASIZE PUSH1 0x1F NOT PUSH1 0x1F DUP3 ADD AND DUP3 ADD DUP1 PUSH1 0x40 MSTORE POP DUP2 ADD SWAP1 PUSH2 0x226E SWAP2 SWAP1 PUSH2 0x415C JUMP JUMPDEST GT JUMPDEST PUSH2 0x22BC JUMPI PUSH1 0x40 MLOAD PUSH3 0x461BCD PUSH1 0xE5 SHL DUP2 MSTORE PUSH1 0x20 PUSH1 0x4 DUP3 ADD MSTORE PUSH1 0x1D PUSH1 0x24 DUP3 ADD MSTORE PUSH32 0x4B41503732313A204F6E6C7920696E7465726E616C20707572706F7365000000 PUSH1 0x44 DUP3 ADD MSTORE PUSH1 0x64 ADD PUSH2 0x919 JUMP JUMPDEST DUP3 PUSH1 0x1 PUSH1 0x1 PUSH1 0xA0 SHL SUB AND PUSH2 0x22CF DUP3 PUSH2 0x12F7 JUMP JUMPDEST PUSH1 0x1 PUSH1 0x1 PUSH1 0xA0 SHL SUB AND EQ PUSH2 0x2337 JUMPI PUSH1 0x40 MLOAD PUSH3 0x461BCD PUSH1 0xE5 SHL DUP2 MSTORE PUSH1 0x20 PUSH1 0x4 DUP3 ADD MSTORE PUSH1 0x29 PUSH1 0x24 DUP3 ADD MSTORE PUSH32 0x4B41503732313A205472616E73666572206F6620746F6B656E20746861742069 PUSH1 0x44 DUP3 ADD MSTORE PUSH9 0x39903737BA1037BBB7 PUSH1 0xB9 SHL PUSH1 0x64 DUP3 ADD MSTORE PUSH1 0x84 ADD PUSH2 0x919 JUMP JUMPDEST PUSH2 0x2342 PUSH1 0x0 DUP3 PUSH2 0x2B9D JUMP JUMPDEST PUSH1 0x1 PUSH1 0x1 PUSH1 0xA0 SHL SUB DUP4 AND PUSH1 0x0 SWAP1 DUP2 MSTORE PUSH1 0x4 PUSH1 0x20 MSTORE PUSH1 0x40 SWAP1 KECCAK256 PUSH2 0x2364 SWAP1 DUP3 PUSH2 0x3642 JUMP JUMPDEST POP PUSH1 0x1 PUSH1 0x1 PUSH1 0xA0 SHL SUB DUP3 AND PUSH1 0x0 SWAP1 DUP2 MSTORE PUSH1 0x4 PUSH1 0x20 MSTORE PUSH1 0x40 SWAP1 KECCAK256 PUSH2 0x2387 SWAP1 DUP3 PUSH2 0x3735 JUMP JUMPDEST POP PUSH2 0x2394 PUSH1 0x5 DUP3 DUP5 PUSH2 0x3784 JUMP JUMPDEST POP DUP1 DUP3 PUSH1 0x1 PUSH1 0x1 PUSH1 0xA0 SHL SUB AND DUP5 PUSH1 0x1 PUSH1 0x1 PUSH1 0xA0 SHL SUB AND PUSH32 0xDDF252AD1BE2C89B69C2B068FC378DAA952BA7F163C4A11628F55A4DF523B3EF PUSH1 0x40 MLOAD PUSH1 0x40 MLOAD DUP1 SWAP2 SUB SWAP1 LOG4 POP POP POP JUMP JUMPDEST PUSH1 0xE SLOAD PUSH1 0x40 MLOAD PUSH4 0x63CD456B PUSH1 0xE0 SHL DUP2 MSTORE PUSH1 0x0 SWAP2 PUSH1 0x1 PUSH1 0x1 PUSH1 0xA0 SHL SUB AND SWAP1 PUSH4 0x63CD456B SWAP1 PUSH2 0x240F SWAP1 CALLER SWAP1 PUSH1 0xF SWAP1 PUSH1 0x4 ADD PUSH2 0x4175 JUMP JUMPDEST PUSH1 0x20 PUSH1 0x40 MLOAD DUP1 DUP4 SUB DUP2 DUP7 GAS STATICCALL ISZERO DUP1 ISZERO PUSH2 0x242C JUMPI RETURNDATASIZE PUSH1 0x0 DUP1 RETURNDATACOPY RETURNDATASIZE PUSH1 0x0 REVERT JUMPDEST POP POP POP POP PUSH1 0x40 MLOAD RETURNDATASIZE PUSH1 0x1F NOT PUSH1 0x1F DUP3 ADD AND DUP3 ADD DUP1 PUSH1 0x40 MSTORE POP DUP2 ADD SWAP1 PUSH2 0x2450 SWAP2 SWAP1 PUSH2 0x4211 JUMP JUMPDEST PUSH2 0x24AC JUMPI PUSH1 0x40 MLOAD PUSH3 0x461BCD PUSH1 0xE5 SHL DUP2 MSTORE PUSH1 0x20 PUSH1 0x4 DUP3 ADD MSTORE PUSH1 0x27 PUSH1 0x24 DUP3 ADD MSTORE PUSH32 0x417574686F72697A6174696F6E3A2052657374726963746564206F6E6C792065 PUSH1 0x44 DUP3 ADD MSTORE PUSH7 0x3C32B1BABA37B9 PUSH1 0xC9 SHL PUSH1 0x64 DUP3 ADD MSTORE PUSH1 0x84 ADD PUSH2 0x919 JUMP JUMPDEST PUSH1 0x0 PUSH2 0x24B7 DUP4 PUSH2 0x12F7 JUMP JUMPDEST SWAP1 POP DUP1 PUSH1 0x1 PUSH1 0x1 PUSH1 0xA0 SHL SUB AND DUP5 PUSH1 0x1 PUSH1 0x1 PUSH1 0xA0 SHL SUB AND SUB PUSH2 0x253F JUMPI PUSH1 0x40 MLOAD PUSH3 0x461BCD PUSH1 0xE5 SHL DUP2 MSTORE PUSH1 0x20 PUSH1 0x4 DUP3 ADD MSTORE PUSH1 0x24 DUP1 DUP3 ADD MSTORE PUSH32 0x4B415037323153444B3A20417070726F76616C20746F2063757272656E74206F PUSH1 0x44 DUP3 ADD MSTORE PUSH32 0x776E657200000000000000000000000000000000000000000000000000000000 PUSH1 0x64 DUP3 ADD MSTORE PUSH1 0x84 ADD PUSH2 0x919 JUMP JUMPDEST PUSH1 0x1 SLOAD PUSH1 0x0 SLOAD PUSH1 0x40 MLOAD PUSH4 0x6F19A8D PUSH1 0xE2 SHL DUP2 MSTORE PUSH1 0x1 PUSH1 0x1 PUSH1 0xA0 SHL SUB DUP5 DUP2 AND PUSH1 0x4 DUP4 ADD MSTORE SWAP1 SWAP2 AND SWAP1 PUSH4 0x1BC66A34 SWAP1 PUSH1 0x24 ADD PUSH1 0x20 PUSH1 0x40 MLOAD DUP1 DUP4 SUB DUP2 DUP7 GAS STATICCALL ISZERO DUP1 ISZERO PUSH2 0x258C JUMPI RETURNDATASIZE PUSH1 0x0 DUP1 RETURNDATACOPY RETURNDATASIZE PUSH1 0x0 REVERT JUMPDEST POP POP POP POP PUSH1 0x40 MLOAD RETURNDATASIZE PUSH1 0x1F NOT PUSH1 0x1F DUP3 ADD AND DUP3 ADD DUP1 PUSH1 0x40 MSTORE POP DUP2 ADD SWAP1 PUSH2 0x25B0 SWAP2 SWAP1 PUSH2 0x415C JUMP JUMPDEST LT ISZERO DUP1 ISZERO PUSH2 0x262D JUMPI POP PUSH1 0x1 SLOAD PUSH1 0x0 SLOAD PUSH1 0x40 MLOAD PUSH4 0x6F19A8D PUSH1 0xE2 SHL DUP2 MSTORE PUSH1 0x1 PUSH1 0x1 PUSH1 0xA0 SHL SUB DUP8 DUP2 AND PUSH1 0x4 DUP4 ADD MSTORE SWAP1 SWAP2 AND SWAP1 PUSH4 0x1BC66A34 SWAP1 PUSH1 0x24 ADD PUSH1 0x20 PUSH1 0x40 MLOAD DUP1 DUP4 SUB DUP2 DUP7 GAS STATICCALL ISZERO DUP1 ISZERO PUSH2 0x2606 JUMPI RETURNDATASIZE PUSH1 0x0 DUP1 RETURNDATACOPY RETURNDATASIZE PUSH1 0x0 REVERT JUMPDEST POP POP POP POP PUSH1 0x40 MLOAD RETURNDATASIZE PUSH1 0x1F NOT PUSH1 0x1F DUP3 ADD AND DUP3 ADD DUP1 PUSH1 0x40 MSTORE POP DUP2 ADD SWAP1 PUSH2 0x262A SWAP2 SWAP1 PUSH2 0x415C JUMP JUMPDEST LT ISZERO JUMPDEST PUSH2 0x269F JUMPI PUSH1 0x40 MLOAD PUSH3 0x461BCD PUSH1 0xE5 SHL DUP2 MSTORE PUSH1 0x20 PUSH1 0x4 DUP3 ADD MSTORE PUSH1 0x36 PUSH1 0x24 DUP3 ADD MSTORE PUSH32 0x4B415037323153444B3A204F776E6572206F72206F70657261746F7220616464 PUSH1 0x44 DUP3 ADD MSTORE PUSH32 0x72657373206973206E6F742061204B5943207573657200000000000000000000 PUSH1 0x64 DUP3 ADD MSTORE PUSH1 0x84 ADD PUSH2 0x919 JUMP JUMPDEST PUSH2 0x12ED DUP5 DUP5 PUSH2 0x2B9D JUMP JUMPDEST PUSH1 0xF DUP1 SLOAD PUSH2 0x830 SWAP1 PUSH2 0x4122 JUMP JUMPDEST PUSH1 0xE SLOAD PUSH1 0x40 MLOAD PUSH4 0x63CD456B PUSH1 0xE0 SHL DUP2 MSTORE PUSH1 0x0 SWAP2 PUSH1 0x1 PUSH1 0x1 PUSH1 0xA0 SHL SUB AND SWAP1 PUSH4 0x63CD456B SWAP1 PUSH2 0x26EA SWAP1 CALLER SWAP1 PUSH1 0xF SWAP1 PUSH1 0x4 ADD PUSH2 0x4175 JUMP JUMPDEST PUSH1 0x20 PUSH1 0x40 MLOAD DUP1 DUP4 SUB DUP2 DUP7 GAS STATICCALL ISZERO DUP1 ISZERO PUSH2 0x2707 JUMPI RETURNDATASIZE PUSH1 0x0 DUP1 RETURNDATACOPY RETURNDATASIZE PUSH1 0x0 REVERT JUMPDEST POP POP POP POP PUSH1 0x40 MLOAD RETURNDATASIZE PUSH1 0x1F NOT PUSH1 0x1F DUP3 ADD AND DUP3 ADD DUP1 PUSH1 0x40 MSTORE POP DUP2 ADD SWAP1 PUSH2 0x272B SWAP2 SWAP1 PUSH2 0x4211 JUMP JUMPDEST PUSH2 0x2787 JUMPI PUSH1 0x40 MLOAD PUSH3 0x461BCD PUSH1 0xE5 SHL DUP2 MSTORE PUSH1 0x20 PUSH1 0x4 DUP3 ADD MSTORE PUSH1 0x27 PUSH1 0x24 DUP3 ADD MSTORE PUSH32 0x417574686F72697A6174696F6E3A2052657374726963746564206F6E6C792065 PUSH1 0x44 DUP3 ADD MSTORE PUSH7 0x3C32B1BABA37B9 PUSH1 0xC9 SHL PUSH1 0x64 DUP3 ADD MSTORE PUSH1 0x84 ADD PUSH2 0x919 JUMP JUMPDEST PUSH1 0x1 SLOAD PUSH1 0x0 SLOAD PUSH1 0x40 MLOAD PUSH4 0x6F19A8D PUSH1 0xE2 SHL DUP2 MSTORE PUSH1 0x1 PUSH1 0x1 PUSH1 0xA0 SHL SUB DUP8 DUP2 AND PUSH1 0x4 DUP4 ADD MSTORE SWAP1 SWAP2 AND SWAP1 PUSH4 0x1BC66A34 SWAP1 PUSH1 0x24 ADD PUSH1 0x20 PUSH1 0x40 MLOAD DUP1 DUP4 SUB DUP2 DUP7 GAS STATICCALL ISZERO DUP1 ISZERO PUSH2 0x27D4 JUMPI RETURNDATASIZE PUSH1 0x0 DUP1 RETURNDATACOPY RETURNDATASIZE PUSH1 0x0 REVERT JUMPDEST POP POP POP POP PUSH1 0x40 MLOAD RETURNDATASIZE PUSH1 0x1F NOT PUSH1 0x1F DUP3 ADD AND DUP3 ADD DUP1 PUSH1 0x40 MSTORE POP DUP2 ADD SWAP1 PUSH2 0x27F8 SWAP2 SWAP1 PUSH2 0x415C JUMP JUMPDEST GT DUP1 ISZERO PUSH2 0x2873 JUMPI POP PUSH1 0x1 SLOAD PUSH1 0x0 SLOAD PUSH1 0x40 MLOAD PUSH4 0x6F19A8D PUSH1 0xE2 SHL DUP2 MSTORE PUSH1 0x1 PUSH1 0x1 PUSH1 0xA0 SHL SUB DUP7 DUP2 AND PUSH1 0x4 DUP4 ADD MSTORE SWAP1 SWAP2 AND SWAP1 PUSH4 0x1BC66A34 SWAP1 PUSH1 0x24 ADD PUSH1 0x20 PUSH1 0x40 MLOAD DUP1 DUP4 SUB DUP2 DUP7 GAS STATICCALL ISZERO DUP1 ISZERO PUSH2 0x284D JUMPI RETURNDATASIZE PUSH1 0x0 DUP1 RETURNDATACOPY RETURNDATASIZE PUSH1 0x0 REVERT JUMPDEST POP POP POP POP PUSH1 0x40 MLOAD RETURNDATASIZE PUSH1 0x1F NOT PUSH1 0x1F DUP3 ADD AND DUP3 ADD DUP1 PUSH1 0x40 MSTORE POP DUP2 ADD SWAP1 PUSH2 0x2871 SWAP2 SWAP1 PUSH2 0x415C JUMP JUMPDEST GT JUMPDEST PUSH2 0x12E2 JUMPI PUSH1 0x40 MLOAD PUSH3 0x461BCD PUSH1 0xE5 SHL DUP2 MSTORE PUSH1 0x20 PUSH1 0x4 DUP3 ADD DUP2 SWAP1 MSTORE PUSH1 0x24 DUP3 ADD MSTORE PUSH32 0x4B415037323153444B3A204F6E6C7920696E7465726E616C20707572706F7365 PUSH1 0x44 DUP3 ADD MSTORE PUSH1 0x64 ADD PUSH2 0x919 JUMP JUMPDEST PUSH1 0xD SLOAD PUSH1 0x1 PUSH1 0x1 PUSH1 0xA0 SHL SUB AND CALLER EQ PUSH2 0x2919 JUMPI PUSH1 0x40 MLOAD PUSH3 0x461BCD PUSH1 0xE5 SHL DUP2 MSTORE PUSH1 0x20 PUSH1 0x4 DUP3 ADD DUP2 SWAP1 MSTORE PUSH1 0x24 DUP3 ADD MSTORE PUSH32 0x4F776E61626C653A2043616C6C6572206973206E6F7420746865206F776E6572 PUSH1 0x44 DUP3 ADD MSTORE PUSH1 0x64 ADD PUSH2 0x919 JUMP JUMPDEST PUSH1 0x3 SLOAD PUSH1 0x1 PUSH1 0xA0 SHL SWAP1 DIV PUSH1 0xFF AND ISZERO PUSH2 0x2966 JUMPI PUSH1 0x40 MLOAD PUSH3 0x461BCD PUSH1 0xE5 SHL DUP2 MSTORE PUSH1 0x20 PUSH1 0x4 DUP3 ADD MSTORE PUSH1 0x10 PUSH1 0x24 DUP3 ADD MSTORE PUSH16 0x14185D5CD8589B194E881C185D5CD959 PUSH1 0x82 SHL PUSH1 0x44 DUP3 ADD MSTORE PUSH1 0x64 ADD PUSH2 0x919 JUMP JUMPDEST PUSH2 0x2971 DUP4 DUP4 DUP4 PUSH2 0x334F JUMP JUMPDEST DUP3 PUSH1 0x1 PUSH1 0x1 PUSH1 0xA0 SHL SUB AND PUSH32 0x1AD3E6A0778A500991DEA1888777490BB562D962499E6CC2AC3B93AA3B300B00 DUP4 DUP4 PUSH1 0x40 MLOAD PUSH2 0x1B17 SWAP3 SWAP2 SWAP1 PUSH2 0x4318 JUMP JUMPDEST PUSH1 0xD SLOAD PUSH1 0x1 PUSH1 0x1 PUSH1 0xA0 SHL SUB AND CALLER EQ PUSH2 0x2A06 JUMPI PUSH1 0x40 MLOAD PUSH3 0x461BCD PUSH1 0xE5 SHL DUP2 MSTORE PUSH1 0x20 PUSH1 0x4 DUP3 ADD DUP2 SWAP1 MSTORE PUSH1 0x24 DUP3 ADD MSTORE PUSH32 0x4F776E61626C653A2043616C6C6572206973206E6F7420746865206F776E6572 PUSH1 0x44 DUP3 ADD MSTORE PUSH1 0x64 ADD PUSH2 0x919 JUMP JUMPDEST PUSH1 0x1 PUSH1 0x1 PUSH1 0xA0 SHL SUB DUP2 AND PUSH2 0x2A82 JUMPI PUSH1 0x40 MLOAD PUSH3 0x461BCD PUSH1 0xE5 SHL DUP2 MSTORE PUSH1 0x20 PUSH1 0x4 DUP3 ADD MSTORE PUSH1 0x26 PUSH1 0x24 DUP3 ADD MSTORE PUSH32 0x4F776E61626C653A204E6577206F776E657220697320746865207A65726F2061 PUSH1 0x44 DUP3 ADD MSTORE PUSH32 0x6464726573730000000000000000000000000000000000000000000000000000 PUSH1 0x64 DUP3 ADD MSTORE PUSH1 0x84 ADD PUSH2 0x919 JUMP JUMPDEST PUSH2 0xD26 DUP2 PUSH2 0x31AC JUMP JUMPDEST PUSH1 0x3 SLOAD PUSH1 0x0 SWAP1 PUSH1 0x1 PUSH1 0x1 PUSH1 0xA0 SHL SUB AND CALLER EQ PUSH2 0x2B0E JUMPI PUSH1 0x40 MLOAD PUSH3 0x461BCD PUSH1 0xE5 SHL DUP2 MSTORE PUSH1 0x20 PUSH1 0x4 DUP3 ADD MSTORE PUSH1 0x31 PUSH1 0x24 DUP3 ADD MSTORE PUSH32 0x416363657373436F6E74726F6C6C65723A2052657374726963746564206F6E6C PUSH1 0x44 DUP3 ADD MSTORE PUSH32 0x79207472616E7366657220726F75746572000000000000000000000000000000 PUSH1 0x64 DUP3 ADD MSTORE PUSH1 0x84 ADD PUSH2 0x919 JUMP JUMPDEST PUSH1 0x3 SLOAD PUSH1 0x1 PUSH1 0xA0 SHL SWAP1 DIV PUSH1 0xFF AND ISZERO PUSH2 0x2B5B JUMPI PUSH1 0x40 MLOAD PUSH3 0x461BCD PUSH1 0xE5 SHL DUP2 MSTORE PUSH1 0x20 PUSH1 0x4 DUP3 ADD MSTORE PUSH1 0x10 PUSH1 0x24 DUP3 ADD MSTORE PUSH16 0x14185D5CD8589B194E881C185D5CD959 PUSH1 0x82 SHL PUSH1 0x44 DUP3 ADD MSTORE PUSH1 0x64 ADD PUSH2 0x919 JUMP JUMPDEST PUSH1 0x1 SLOAD PUSH1 0x0 SLOAD PUSH1 0x40 MLOAD PUSH4 0x6F19A8D PUSH1 0xE2 SHL DUP2 MSTORE PUSH1 0x1 PUSH1 0x1 PUSH1 0xA0 SHL SUB DUP8 DUP2 AND PUSH1 0x4 DUP4 ADD MSTORE SWAP1 SWAP2 AND SWAP1 PUSH4 0x1BC66A34 SWAP1 PUSH1 0x24 ADD PUSH2 0x1252 JUMP JUMPDEST PUSH1 0x0 PUSH2 0x81D PUSH1 0x5 DUP4 PUSH2 0x379A JUMP JUMPDEST PUSH1 0x0 DUP2 DUP2 MSTORE PUSH1 0x7 PUSH1 0x20 MSTORE PUSH1 0x40 SWAP1 KECCAK256 DUP1 SLOAD PUSH1 0x1 PUSH1 0x1 PUSH1 0xA0 SHL SUB NOT AND PUSH1 0x1 PUSH1 0x1 PUSH1 0xA0 SHL SUB DUP5 AND SWAP1 DUP2 OR SWAP1 SWAP2 SSTORE DUP2 SWAP1 PUSH2 0x2BD2 DUP3 PUSH2 0x12F7 JUMP JUMPDEST PUSH1 0x1 PUSH1 0x1 PUSH1 0xA0 SHL SUB AND PUSH32 0x8C5BE1E5EBEC7D5BD14F71427D1E84F3DD0314C0F7B2291E5B200AC8C7C3B925 PUSH1 0x40 MLOAD PUSH1 0x40 MLOAD DUP1 SWAP2 SUB SWAP1 LOG4 POP POP JUMP JUMPDEST PUSH2 0x2C14 DUP3 PUSH2 0x2B90 JUMP JUMPDEST PUSH2 0x2C75 JUMPI PUSH1 0x40 MLOAD PUSH3 0x461BCD PUSH1 0xE5 SHL DUP2 MSTORE PUSH1 0x20 PUSH1 0x4 DUP3 ADD MSTORE PUSH1 0x2C PUSH1 0x24 DUP3 ADD MSTORE PUSH32 0x4B41503732314D657461646174613A2055524920736574206F66206E6F6E6578 PUSH1 0x44 DUP3 ADD MSTORE PUSH12 0x34B9BA32B73A103A37B5B2B7 PUSH1 0xA1 SHL PUSH1 0x64 DUP3 ADD MSTORE PUSH1 0x84 ADD PUSH2 0x919 JUMP JUMPDEST PUSH1 0x0 DUP3 DUP2 MSTORE PUSH1 0xB PUSH1 0x20 MSTORE PUSH1 0x40 SWAP1 KECCAK256 PUSH2 0xAD5 DUP3 DUP3 PUSH2 0x4388 JUMP JUMPDEST PUSH1 0x0 PUSH2 0x81D DUP3 SLOAD SWAP1 JUMP JUMPDEST PUSH1 0x0 PUSH2 0x2CA2 DUP3 PUSH2 0x2B90 JUMP JUMPDEST PUSH2 0x2D03 JUMPI PUSH1 0x40 MLOAD PUSH3 0x461BCD PUSH1 0xE5 SHL DUP2 MSTORE PUSH1 0x20 PUSH1 0x4 DUP3 ADD MSTORE PUSH1 0x2C PUSH1 0x24 DUP3 ADD MSTORE PUSH32 0x4B41503732313A204F70657261746F7220717565727920666F72206E6F6E6578 PUSH1 0x44 DUP3 ADD MSTORE PUSH12 0x34B9BA32B73A103A37B5B2B7 PUSH1 0xA1 SHL PUSH1 0x64 DUP3 ADD MSTORE PUSH1 0x84 ADD PUSH2 0x919 JUMP JUMPDEST PUSH1 0x0 PUSH2 0x2D0E DUP4 PUSH2 0x12F7 JUMP JUMPDEST SWAP1 POP DUP1 PUSH1 0x1 PUSH1 0x1 PUSH1 0xA0 SHL SUB AND DUP5 PUSH1 0x1 PUSH1 0x1 PUSH1 0xA0 SHL SUB AND EQ DUP1 PUSH2 0x2D49 JUMPI POP DUP4 PUSH1 0x1 PUSH1 0x1 PUSH1 0xA0 SHL SUB AND PUSH2 0x2D3E DUP5 PUSH2 0x8B1 JUMP JUMPDEST PUSH1 0x1 PUSH1 0x1 PUSH1 0xA0 SHL SUB AND EQ JUMPDEST DUP1 PUSH2 0x210A JUMPI POP PUSH1 0x1 PUSH1 0x1 PUSH1 0xA0 SHL SUB DUP1 DUP3 AND PUSH1 0x0 SWAP1 DUP2 MSTORE PUSH1 0x8 PUSH1 0x20 SWAP1 DUP2 MSTORE PUSH1 0x40 DUP1 DUP4 KECCAK256 SWAP4 DUP9 AND DUP4 MSTORE SWAP3 SWAP1 MSTORE KECCAK256 SLOAD PUSH1 0xFF AND PUSH2 0x210A JUMP JUMPDEST DUP3 PUSH1 0x1 PUSH1 0x1 PUSH1 0xA0 SHL SUB AND PUSH2 0x2D90 DUP3 PUSH2 0x12F7 JUMP JUMPDEST PUSH1 0x1 PUSH1 0x1 PUSH1 0xA0 SHL SUB AND EQ PUSH2 0x2DF8 JUMPI PUSH1 0x40 MLOAD PUSH3 0x461BCD PUSH1 0xE5 SHL DUP2 MSTORE PUSH1 0x20 PUSH1 0x4 DUP3 ADD MSTORE PUSH1 0x29 PUSH1 0x24 DUP3 ADD MSTORE PUSH32 0x4B41503732313A205472616E73666572206F6620746F6B656E20746861742069 PUSH1 0x44 DUP3 ADD MSTORE PUSH9 0x39903737BA1037BBB7 PUSH1 0xB9 SHL PUSH1 0x64 DUP3 ADD MSTORE PUSH1 0x84 ADD PUSH2 0x919 JUMP JUMPDEST PUSH1 0x1 PUSH1 0x1 PUSH1 0xA0 SHL SUB DUP3 AND PUSH2 0x2E73 JUMPI PUSH1 0x40 MLOAD PUSH3 0x461BCD PUSH1 0xE5 SHL DUP2 MSTORE PUSH1 0x20 PUSH1 0x4 DUP3 ADD MSTORE PUSH1 0x24 DUP1 DUP3 ADD MSTORE PUSH32 0x4B41503732313A205472616E7366657220746F20746865207A65726F20616464 PUSH1 0x44 DUP3 ADD MSTORE PUSH32 0x7265737300000000000000000000000000000000000000000000000000000000 PUSH1 0x64 DUP3 ADD MSTORE PUSH1 0x84 ADD PUSH2 0x919 JUMP JUMPDEST PUSH2 0x2337 JUMP JUMPDEST DUP2 SLOAD PUSH1 0x0 SWAP1 DUP3 LT PUSH2 0x2ED6 JUMPI PUSH1 0x40 MLOAD PUSH3 0x461BCD PUSH1 0xE5 SHL DUP2 MSTORE PUSH1 0x20 PUSH1 0x4 DUP3 ADD MSTORE PUSH1 0x22 PUSH1 0x24 DUP3 ADD MSTORE PUSH32 0x456E756D657261626C655365743A20696E646578206F7574206F6620626F756E PUSH1 0x44 DUP3 ADD MSTORE PUSH2 0x6473 PUSH1 0xF0 SHL PUSH1 0x64 DUP3 ADD MSTORE PUSH1 0x84 ADD PUSH2 0x919 JUMP JUMPDEST DUP3 PUSH1 0x0 ADD DUP3 DUP2 SLOAD DUP2 LT PUSH2 0x2EEB JUMPI PUSH2 0x2EEB PUSH2 0x422E JUMP JUMPDEST SWAP1 PUSH1 0x0 MSTORE PUSH1 0x20 PUSH1 0x0 KECCAK256 ADD SLOAD SWAP1 POP SWAP3 SWAP2 POP POP JUMP JUMPDEST PUSH1 0x3 SLOAD PUSH1 0x1 PUSH1 0xA0 SHL SWAP1 DIV PUSH1 0xFF AND PUSH2 0x2F57 JUMPI PUSH1 0x40 MLOAD PUSH3 0x461BCD PUSH1 0xE5 SHL DUP2 MSTORE PUSH1 0x20 PUSH1 0x4 DUP3 ADD MSTORE PUSH1 0x14 PUSH1 0x24 DUP3 ADD MSTORE PUSH32 0x5061757361626C653A206E6F7420706175736564000000000000000000000000 PUSH1 0x44 DUP3 ADD MSTORE PUSH1 0x64 ADD PUSH2 0x919 JUMP JUMPDEST PUSH1 0x3 DUP1 SLOAD PUSH1 0xFF PUSH1 0xA0 SHL NOT AND SWAP1 SSTORE PUSH32 0x5DB9EE0A495BF2E6FF9C91A7834C1BA4FDD244A5E8AA4E537BD38AEAE4B073AA CALLER JUMPDEST PUSH1 0x40 MLOAD PUSH1 0x1 PUSH1 0x1 PUSH1 0xA0 SHL SUB SWAP1 SWAP2 AND DUP2 MSTORE PUSH1 0x20 ADD PUSH1 0x40 MLOAD DUP1 SWAP2 SUB SWAP1 LOG1 JUMP JUMPDEST PUSH1 0x1 PUSH1 0x1 PUSH1 0xA0 SHL SUB DUP3 AND PUSH2 0x2FFA JUMPI PUSH1 0x40 MLOAD PUSH3 0x461BCD PUSH1 0xE5 SHL DUP2 MSTORE PUSH1 0x20 PUSH1 0x4 DUP3 ADD DUP2 SWAP1 MSTORE PUSH1 0x24 DUP3 ADD MSTORE PUSH32 0x4B41503732313A204D696E7420746F20746865207A65726F2061646472657373 PUSH1 0x44 DUP3 ADD MSTORE PUSH1 0x64 ADD PUSH2 0x919 JUMP JUMPDEST PUSH2 0x3003 DUP2 PUSH2 0x2B90 JUMP JUMPDEST ISZERO PUSH2 0x3050 JUMPI PUSH1 0x40 MLOAD PUSH3 0x461BCD PUSH1 0xE5 SHL DUP2 MSTORE PUSH1 0x20 PUSH1 0x4 DUP3 ADD MSTORE PUSH1 0x1C PUSH1 0x24 DUP3 ADD MSTORE PUSH32 0x4B41503732313A20546F6B656E20616C7265616479206D696E74656400000000 PUSH1 0x44 DUP3 ADD MSTORE PUSH1 0x64 ADD PUSH2 0x919 JUMP JUMPDEST PUSH1 0x1 PUSH1 0x1 PUSH1 0xA0 SHL SUB DUP3 AND PUSH1 0x0 SWAP1 DUP2 MSTORE PUSH1 0x4 PUSH1 0x20 MSTORE PUSH1 0x40 SWAP1 KECCAK256 PUSH2 0x3072 SWAP1 DUP3 PUSH2 0x3735 JUMP JUMPDEST POP PUSH2 0x307F PUSH1 0x5 DUP3 DUP5 PUSH2 0x3784 JUMP JUMPDEST POP PUSH1 0x40 MLOAD DUP2 SWAP1 PUSH1 0x1 PUSH1 0x1 PUSH1 0xA0 SHL SUB DUP5 AND SWAP1 PUSH1 0x0 SWAP1 PUSH32 0xDDF252AD1BE2C89B69C2B068FC378DAA952BA7F163C4A11628F55A4DF523B3EF SWAP1 DUP3 SWAP1 LOG4 POP POP JUMP JUMPDEST PUSH1 0x0 PUSH2 0x30C7 DUP3 PUSH2 0x12F7 JUMP JUMPDEST SWAP1 POP PUSH2 0x30D4 PUSH1 0x0 DUP4 PUSH2 0x2B9D JUMP JUMPDEST PUSH1 0x1 PUSH1 0x1 PUSH1 0xA0 SHL SUB DUP2 AND PUSH1 0x0 SWAP1 DUP2 MSTORE PUSH1 0x4 PUSH1 0x20 MSTORE PUSH1 0x40 SWAP1 KECCAK256 PUSH2 0x30F6 SWAP1 DUP4 PUSH2 0x3642 JUMP JUMPDEST POP PUSH1 0x0 DUP1 MSTORE PUSH1 0x4 PUSH1 0x20 MSTORE PUSH2 0x312A PUSH32 0x17EF568E3E12AB5B9C7254A8D58478811DE00F9E6EB34345ACD53BF8FD09D3EC DUP4 PUSH2 0x3735 JUMP JUMPDEST POP PUSH2 0x3138 PUSH1 0x5 DUP4 PUSH1 0x0 PUSH2 0x3784 JUMP JUMPDEST POP PUSH1 0x40 MLOAD DUP3 SWAP1 PUSH1 0x0 SWAP1 PUSH1 0x1 PUSH1 0x1 PUSH1 0xA0 SHL SUB DUP5 AND SWAP1 PUSH32 0xDDF252AD1BE2C89B69C2B068FC378DAA952BA7F163C4A11628F55A4DF523B3EF SWAP1 DUP4 SWAP1 LOG4 POP POP JUMP JUMPDEST PUSH1 0x0 DUP1 DUP1 DUP1 PUSH2 0x3184 DUP7 DUP7 PUSH2 0x37B2 JUMP JUMPDEST SWAP1 SWAP5 POP SWAP3 POP POP POP JUMPDEST SWAP3 POP SWAP3 SWAP1 POP JUMP JUMPDEST PUSH1 0xC PUSH2 0xE6E DUP3 DUP3 PUSH2 0x4388 JUMP JUMPDEST PUSH1 0x0 PUSH2 0x210A DUP5 DUP5 DUP5 PUSH2 0x384F JUMP JUMPDEST PUSH1 0xD DUP1 SLOAD PUSH1 0x1 PUSH1 0x1 PUSH1 0xA0 SHL SUB DUP4 DUP2 AND PUSH1 0x1 PUSH1 0x1 PUSH1 0xA0 SHL SUB NOT DUP4 AND DUP2 OR SWAP1 SWAP4 SSTORE PUSH1 0x40 MLOAD SWAP2 AND SWAP2 SWAP1 DUP3 SWAP1 PUSH32 0x8BE0079C531659141344CD1FD0A4F28419497F9722A3DAAFE3B4186F6B6457E0 SWAP1 PUSH1 0x0 SWAP1 LOG3 POP POP JUMP JUMPDEST PUSH1 0x60 DUP2 PUSH1 0x0 ADD DUP1 SLOAD DUP1 PUSH1 0x20 MUL PUSH1 0x20 ADD PUSH1 0x40 MLOAD SWAP1 DUP2 ADD PUSH1 0x40 MSTORE DUP1 SWAP3 SWAP2 SWAP1 DUP2 DUP2 MSTORE PUSH1 0x20 ADD DUP3 DUP1 SLOAD DUP1 ISZERO PUSH2 0x324E JUMPI PUSH1 0x20 MUL DUP3 ADD SWAP2 SWAP1 PUSH1 0x0 MSTORE PUSH1 0x20 PUSH1 0x0 KECCAK256 SWAP1 JUMPDEST DUP2 SLOAD DUP2 MSTORE PUSH1 0x20 ADD SWAP1 PUSH1 0x1 ADD SWAP1 DUP1 DUP4 GT PUSH2 0x323A JUMPI JUMPDEST POP POP POP POP POP SWAP1 POP SWAP2 SWAP1 POP JUMP JUMPDEST PUSH1 0x1 PUSH1 0x1 PUSH1 0xA0 SHL SUB DUP4 DUP2 AND PUSH1 0x0 DUP2 DUP2 MSTORE PUSH1 0x8 PUSH1 0x20 SWAP1 DUP2 MSTORE PUSH1 0x40 DUP1 DUP4 KECCAK256 SWAP5 DUP8 AND DUP1 DUP5 MSTORE SWAP5 DUP3 MSTORE SWAP2 DUP3 SWAP1 KECCAK256 DUP1 SLOAD PUSH1 0xFF NOT AND DUP7 ISZERO ISZERO SWAP1 DUP2 OR SWAP1 SWAP2 SSTORE SWAP2 MLOAD SWAP2 DUP3 MSTORE PUSH32 0x17307EAB39AB6107E8899845AD3D59BD9653F200F220920489CA2B5937696C31 SWAP2 ADD PUSH1 0x40 MLOAD DUP1 SWAP2 SUB SWAP1 LOG3 POP POP POP JUMP JUMPDEST PUSH1 0x3 SLOAD PUSH1 0x1 PUSH1 0xA0 SHL SWAP1 DIV PUSH1 0xFF AND ISZERO PUSH2 0x3314 JUMPI PUSH1 0x40 MLOAD PUSH3 0x461BCD PUSH1 0xE5 SHL DUP2 MSTORE PUSH1 0x20 PUSH1 0x4 DUP3 ADD MSTORE PUSH1 0x10 PUSH1 0x24 DUP3 ADD MSTORE PUSH16 0x14185D5CD8589B194E881C185D5CD959 PUSH1 0x82 SHL PUSH1 0x44 DUP3 ADD MSTORE PUSH1 0x64 ADD PUSH2 0x919 JUMP JUMPDEST PUSH1 0x3 DUP1 SLOAD PUSH1 0xFF PUSH1 0xA0 SHL NOT AND PUSH1 0x1 PUSH1 0xA0 SHL OR SWAP1 SSTORE PUSH32 0x62E78CEA01BEE320CD4E420270B5EA74000D11B0C9F74754EBDBFC544B05A258 PUSH2 0x2F87 CALLER SWAP1 JUMP JUMPDEST PUSH2 0x3359 DUP4 DUP3 PUSH2 0x2FA4 JUMP JUMPDEST PUSH2 0xAD5 DUP2 DUP4 PUSH2 0x2C0B JUMP JUMPDEST PUSH2 0x336E DUP5 DUP5 DUP5 PUSH2 0x2D7D JUMP JUMPDEST PUSH2 0x337A DUP5 DUP5 DUP5 DUP5 PUSH2 0x38B8 JUMP JUMPDEST PUSH2 0x1D26 JUMPI PUSH1 0x40 MLOAD PUSH3 0x461BCD PUSH1 0xE5 SHL DUP2 MSTORE PUSH1 0x20 PUSH1 0x4 DUP3 ADD MSTORE PUSH1 0x32 PUSH1 0x24 DUP3 ADD MSTORE PUSH32 0x4B41503732313A205472616E7366657220746F206E6F6E204B41503732315265 PUSH1 0x44 DUP3 ADD MSTORE PUSH32 0x63656976657220696D706C656D656E7465720000000000000000000000000000 PUSH1 0x64 DUP3 ADD MSTORE PUSH1 0x84 ADD PUSH2 0x919 JUMP JUMPDEST PUSH1 0x60 DUP2 PUSH1 0x0 SUB PUSH2 0x342F JUMPI POP POP PUSH1 0x40 DUP1 MLOAD DUP1 DUP3 ADD SWAP1 SWAP2 MSTORE PUSH1 0x1 DUP2 MSTORE PUSH32 0x3000000000000000000000000000000000000000000000000000000000000000 PUSH1 0x20 DUP3 ADD MSTORE SWAP1 JUMP JUMPDEST DUP2 PUSH1 0x0 JUMPDEST DUP2 ISZERO PUSH2 0x3459 JUMPI DUP1 PUSH2 0x3443 DUP2 PUSH2 0x425A JUMP JUMPDEST SWAP2 POP PUSH2 0x3452 SWAP1 POP PUSH1 0xA DUP4 PUSH2 0x445E JUMP JUMPDEST SWAP2 POP PUSH2 0x3433 JUMP JUMPDEST PUSH1 0x0 DUP2 PUSH8 0xFFFFFFFFFFFFFFFF DUP2 GT ISZERO PUSH2 0x3474 JUMPI PUSH2 0x3474 PUSH2 0x3D77 JUMP JUMPDEST PUSH1 0x40 MLOAD SWAP1 DUP1 DUP3 MSTORE DUP1 PUSH1 0x1F ADD PUSH1 0x1F NOT AND PUSH1 0x20 ADD DUP3 ADD PUSH1 0x40 MSTORE DUP1 ISZERO PUSH2 0x349E JUMPI PUSH1 0x20 DUP3 ADD DUP2 DUP1 CALLDATASIZE DUP4 CALLDATACOPY ADD SWAP1 POP JUMPDEST POP SWAP1 POP JUMPDEST DUP5 ISZERO PUSH2 0x210A JUMPI PUSH2 0x34B3 PUSH1 0x1 DUP4 PUSH2 0x4472 JUMP JUMPDEST SWAP2 POP PUSH2 0x34C0 PUSH1 0xA DUP7 PUSH2 0x4485 JUMP JUMPDEST PUSH2 0x34CB SWAP1 PUSH1 0x30 PUSH2 0x4499 JUMP JUMPDEST PUSH1 0xF8 SHL DUP2 DUP4 DUP2 MLOAD DUP2 LT PUSH2 0x34E0 JUMPI PUSH2 0x34E0 PUSH2 0x422E JUMP JUMPDEST PUSH1 0x20 ADD ADD SWAP1 PUSH31 0xFFFFFFFFFFFFFFFFFFFFFFFFFFFFFFFFFFFFFFFFFFFFFFFFFFFFFFFFFFFFFF NOT AND SWAP1 DUP2 PUSH1 0x0 BYTE SWAP1 MSTORE8 POP PUSH2 0x351A PUSH1 0xA DUP7 PUSH2 0x445E JUMP JUMPDEST SWAP5 POP PUSH2 0x34A2 JUMP JUMPDEST PUSH1 0x60 PUSH1 0x0 DUP4 GT DUP1 ISZERO PUSH2 0x3533 JUMPI POP PUSH1 0x0 DUP3 GT JUMPDEST PUSH2 0x353C JUMPI PUSH1 0x0 DUP1 REVERT JUMPDEST DUP2 PUSH1 0x0 DUP2 PUSH2 0x354B PUSH1 0x1 DUP8 PUSH2 0x4472 JUMP JUMPDEST PUSH2 0x3555 SWAP2 SWAP1 PUSH2 0x44AC JUMP JUMPDEST SWAP1 POP PUSH1 0x0 PUSH2 0x3561 DUP8 SLOAD SWAP1 JUMP JUMPDEST SWAP1 POP DUP1 DUP3 LT PUSH2 0x3584 JUMPI POP POP PUSH1 0x40 DUP1 MLOAD PUSH1 0x0 DUP2 MSTORE PUSH1 0x20 DUP2 ADD SWAP1 SWAP2 MSTORE SWAP2 POP PUSH2 0xCAB SWAP1 POP JUMP JUMPDEST PUSH2 0x358E DUP3 DUP3 PUSH2 0x4472 JUMP JUMPDEST DUP4 GT ISZERO PUSH2 0x35A2 JUMPI PUSH2 0x359F DUP3 DUP3 PUSH2 0x4472 JUMP JUMPDEST SWAP3 POP JUMPDEST PUSH1 0x0 DUP4 PUSH8 0xFFFFFFFFFFFFFFFF DUP2 GT ISZERO PUSH2 0x35BD JUMPI PUSH2 0x35BD PUSH2 0x3D77 JUMP JUMPDEST PUSH1 0x40 MLOAD SWAP1 DUP1 DUP3 MSTORE DUP1 PUSH1 0x20 MUL PUSH1 0x20 ADD DUP3 ADD PUSH1 0x40 MSTORE DUP1 ISZERO PUSH2 0x35E6 JUMPI DUP2 PUSH1 0x20 ADD PUSH1 0x20 DUP3 MUL DUP1 CALLDATASIZE DUP4 CALLDATACOPY ADD SWAP1 POP JUMPDEST POP SWAP1 POP PUSH1 0x0 JUMPDEST DUP5 DUP2 LT ISZERO PUSH2 0x3636 JUMPI PUSH2 0x3607 DUP10 PUSH2 0x3602 DUP4 DUP8 PUSH2 0x4499 JUMP JUMPDEST PUSH2 0x2E78 JUMP JUMPDEST DUP3 DUP3 DUP2 MLOAD DUP2 LT PUSH2 0x3619 JUMPI PUSH2 0x3619 PUSH2 0x422E JUMP JUMPDEST PUSH1 0x20 SWAP1 DUP2 MUL SWAP2 SWAP1 SWAP2 ADD ADD MSTORE DUP1 PUSH2 0x362E DUP2 PUSH2 0x425A JUMP JUMPDEST SWAP2 POP POP PUSH2 0x35EC JUMP JUMPDEST POP SWAP8 SWAP7 POP POP POP POP POP POP POP JUMP JUMPDEST PUSH1 0x0 DUP2 DUP2 MSTORE PUSH1 0x1 DUP4 ADD PUSH1 0x20 MSTORE PUSH1 0x40 DUP2 KECCAK256 SLOAD DUP1 ISZERO PUSH2 0x372B JUMPI PUSH1 0x0 PUSH2 0x3666 PUSH1 0x1 DUP4 PUSH2 0x4472 JUMP JUMPDEST DUP6 SLOAD SWAP1 SWAP2 POP PUSH1 0x0 SWAP1 PUSH2 0x367A SWAP1 PUSH1 0x1 SWAP1 PUSH2 0x4472 JUMP JUMPDEST SWAP1 POP PUSH1 0x0 DUP7 PUSH1 0x0 ADD DUP3 DUP2 SLOAD DUP2 LT PUSH2 0x3693 JUMPI PUSH2 0x3693 PUSH2 0x422E JUMP JUMPDEST SWAP1 PUSH1 0x0 MSTORE PUSH1 0x20 PUSH1 0x0 KECCAK256 ADD SLOAD SWAP1 POP DUP1 DUP8 PUSH1 0x0 ADD DUP5 DUP2 SLOAD DUP2 LT PUSH2 0x36B6 JUMPI PUSH2 0x36B6 PUSH2 0x422E JUMP JUMPDEST PUSH1 0x0 SWAP2 DUP3 MSTORE PUSH1 0x20 SWAP1 SWAP2 KECCAK256 ADD SSTORE PUSH2 0x36CD DUP4 PUSH1 0x1 PUSH2 0x4499 JUMP JUMPDEST PUSH1 0x0 DUP3 DUP2 MSTORE PUSH1 0x1 DUP10 ADD PUSH1 0x20 MSTORE PUSH1 0x40 SWAP1 KECCAK256 SSTORE DUP7 SLOAD DUP8 SWAP1 DUP1 PUSH2 0x36EF JUMPI PUSH2 0x36EF PUSH2 0x44C3 JUMP JUMPDEST PUSH1 0x1 SWAP1 SUB DUP2 DUP2 SWAP1 PUSH1 0x0 MSTORE PUSH1 0x20 PUSH1 0x0 KECCAK256 ADD PUSH1 0x0 SWAP1 SSTORE SWAP1 SSTORE DUP7 PUSH1 0x1 ADD PUSH1 0x0 DUP8 DUP2 MSTORE PUSH1 0x20 ADD SWAP1 DUP2 MSTORE PUSH1 0x20 ADD PUSH1 0x0 KECCAK256 PUSH1 0x0 SWAP1 SSTORE PUSH1 0x1 SWAP5 POP POP POP POP POP PUSH2 0x81D JUMP JUMPDEST PUSH1 0x0 SWAP2 POP POP PUSH2 0x81D JUMP JUMPDEST PUSH1 0x0 DUP2 DUP2 MSTORE PUSH1 0x1 DUP4 ADD PUSH1 0x20 MSTORE PUSH1 0x40 DUP2 KECCAK256 SLOAD PUSH2 0x377C JUMPI POP DUP2 SLOAD PUSH1 0x1 DUP2 DUP2 ADD DUP5 SSTORE PUSH1 0x0 DUP5 DUP2 MSTORE PUSH1 0x20 DUP1 DUP3 KECCAK256 SWAP1 SWAP4 ADD DUP5 SWAP1 SSTORE DUP5 SLOAD DUP5 DUP3 MSTORE DUP3 DUP7 ADD SWAP1 SWAP4 MSTORE PUSH1 0x40 SWAP1 KECCAK256 SWAP2 SWAP1 SWAP2 SSTORE PUSH2 0x81D JUMP JUMPDEST POP PUSH1 0x0 PUSH2 0x81D JUMP JUMPDEST PUSH1 0x0 PUSH2 0x210A DUP5 DUP5 PUSH1 0x1 PUSH1 0x1 PUSH1 0xA0 SHL SUB DUP6 AND PUSH2 0x3A0F JUMP JUMPDEST PUSH1 0x0 DUP2 DUP2 MSTORE PUSH1 0x1 DUP4 ADD PUSH1 0x20 MSTORE PUSH1 0x40 DUP2 KECCAK256 SLOAD ISZERO ISZERO PUSH2 0xCAB JUMP JUMPDEST DUP2 SLOAD PUSH1 0x0 SWAP1 DUP2 SWAP1 DUP4 LT PUSH2 0x3812 JUMPI PUSH1 0x40 MLOAD PUSH3 0x461BCD PUSH1 0xE5 SHL DUP2 MSTORE PUSH1 0x20 PUSH1 0x4 DUP3 ADD MSTORE PUSH1 0x22 PUSH1 0x24 DUP3 ADD MSTORE PUSH32 0x456E756D657261626C654D61703A20696E646578206F7574206F6620626F756E PUSH1 0x44 DUP3 ADD MSTORE PUSH2 0x6473 PUSH1 0xF0 SHL PUSH1 0x64 DUP3 ADD MSTORE PUSH1 0x84 ADD PUSH2 0x919 JUMP JUMPDEST PUSH1 0x0 DUP5 PUSH1 0x0 ADD DUP5 DUP2 SLOAD DUP2 LT PUSH2 0x3829 JUMPI PUSH2 0x3829 PUSH2 0x422E JUMP JUMPDEST SWAP1 PUSH1 0x0 MSTORE PUSH1 0x20 PUSH1 0x0 KECCAK256 SWAP1 PUSH1 0x2 MUL ADD SWAP1 POP DUP1 PUSH1 0x0 ADD SLOAD DUP2 PUSH1 0x1 ADD SLOAD SWAP3 POP SWAP3 POP POP SWAP3 POP SWAP3 SWAP1 POP JUMP JUMPDEST PUSH1 0x0 DUP3 DUP2 MSTORE PUSH1 0x1 DUP5 ADD PUSH1 0x20 MSTORE PUSH1 0x40 DUP2 KECCAK256 SLOAD DUP3 DUP2 PUSH2 0x387F JUMPI PUSH1 0x40 MLOAD PUSH3 0x461BCD PUSH1 0xE5 SHL DUP2 MSTORE PUSH1 0x4 ADD PUSH2 0x919 SWAP2 SWAP1 PUSH2 0x3B35 JUMP JUMPDEST POP DUP5 PUSH2 0x388C PUSH1 0x1 DUP4 PUSH2 0x4472 JUMP JUMPDEST DUP2 SLOAD DUP2 LT PUSH2 0x389C JUMPI PUSH2 0x389C PUSH2 0x422E JUMP JUMPDEST SWAP1 PUSH1 0x0 MSTORE PUSH1 0x20 PUSH1 0x0 KECCAK256 SWAP1 PUSH1 0x2 MUL ADD PUSH1 0x1 ADD SLOAD SWAP2 POP POP SWAP4 SWAP3 POP POP POP JUMP JUMPDEST PUSH1 0x0 PUSH1 0x1 PUSH1 0x1 PUSH1 0xA0 SHL SUB DUP5 AND EXTCODESIZE ISZERO PUSH2 0x3A04 JUMPI PUSH1 0x40 MLOAD PUSH4 0xC25D39B3 PUSH1 0xE0 SHL DUP2 MSTORE PUSH1 0x1 PUSH1 0x1 PUSH1 0xA0 SHL SUB DUP6 AND SWAP1 PUSH4 0xC25D39B3 SWAP1 PUSH2 0x38FC SWAP1 CALLER SWAP1 DUP10 SWAP1 DUP9 SWAP1 DUP9 SWAP1 PUSH1 0x4 ADD PUSH2 0x44D9 JUMP JUMPDEST PUSH1 0x20 PUSH1 0x40 MLOAD DUP1 DUP4 SUB DUP2 PUSH1 0x0 DUP8 GAS CALL SWAP3 POP POP POP DUP1 ISZERO PUSH2 0x3937 JUMPI POP PUSH1 0x40 DUP1 MLOAD PUSH1 0x1F RETURNDATASIZE SWAP1 DUP2 ADD PUSH1 0x1F NOT AND DUP3 ADD SWAP1 SWAP3 MSTORE PUSH2 0x3934 SWAP2 DUP2 ADD SWAP1 PUSH2 0x4515 JUMP JUMPDEST PUSH1 0x1 JUMPDEST PUSH2 0x39EA JUMPI RETURNDATASIZE DUP1 DUP1 ISZERO PUSH2 0x3965 JUMPI PUSH1 0x40 MLOAD SWAP2 POP PUSH1 0x1F NOT PUSH1 0x3F RETURNDATASIZE ADD AND DUP3 ADD PUSH1 0x40 MSTORE RETURNDATASIZE DUP3 MSTORE RETURNDATASIZE PUSH1 0x0 PUSH1 0x20 DUP5 ADD RETURNDATACOPY PUSH2 0x396A JUMP JUMPDEST PUSH1 0x60 SWAP2 POP JUMPDEST POP DUP1 MLOAD PUSH1 0x0 SUB PUSH2 0x39E2 JUMPI PUSH1 0x40 MLOAD PUSH3 0x461BCD PUSH1 0xE5 SHL DUP2 MSTORE PUSH1 0x20 PUSH1 0x4 DUP3 ADD MSTORE PUSH1 0x32 PUSH1 0x24 DUP3 ADD MSTORE PUSH32 0x4B41503732313A205472616E7366657220746F206E6F6E204B41503732315265 PUSH1 0x44 DUP3 ADD MSTORE PUSH32 0x63656976657220696D706C656D656E7465720000000000000000000000000000 PUSH1 0x64 DUP3 ADD MSTORE PUSH1 0x84 ADD PUSH2 0x919 JUMP JUMPDEST DUP1 MLOAD DUP2 PUSH1 0x20 ADD REVERT JUMPDEST PUSH1 0x1 PUSH1 0x1 PUSH1 0xE0 SHL SUB NOT AND PUSH4 0xC25D39B3 PUSH1 0xE0 SHL EQ SWAP1 POP PUSH2 0x210A JUMP JUMPDEST POP PUSH1 0x1 SWAP5 SWAP4 POP POP POP POP JUMP JUMPDEST PUSH1 0x0 DUP3 DUP2 MSTORE PUSH1 0x1 DUP5 ADD PUSH1 0x20 MSTORE PUSH1 0x40 DUP2 KECCAK256 SLOAD DUP1 DUP3 SUB PUSH2 0x3A76 JUMPI POP POP PUSH1 0x40 DUP1 MLOAD DUP1 DUP3 ADD DUP3 MSTORE DUP4 DUP2 MSTORE PUSH1 0x20 DUP1 DUP3 ADD DUP5 DUP2 MSTORE DUP7 SLOAD PUSH1 0x1 DUP2 DUP2 ADD DUP10 SSTORE PUSH1 0x0 DUP10 DUP2 MSTORE DUP5 DUP2 KECCAK256 SWAP6 MLOAD PUSH1 0x2 SWAP1 SWAP4 MUL SWAP1 SWAP6 ADD SWAP2 DUP3 SSTORE SWAP2 MLOAD SWAP1 DUP3 ADD SSTORE DUP7 SLOAD DUP7 DUP5 MSTORE DUP2 DUP9 ADD SWAP1 SWAP3 MSTORE SWAP3 SWAP1 SWAP2 KECCAK256 SSTORE PUSH2 0xCAB JUMP JUMPDEST DUP3 DUP6 PUSH2 0x3A83 PUSH1 0x1 DUP5 PUSH2 0x4472 JUMP JUMPDEST DUP2 SLOAD DUP2 LT PUSH2 0x3A93 JUMPI PUSH2 0x3A93 PUSH2 0x422E JUMP JUMPDEST SWAP1 PUSH1 0x0 MSTORE PUSH1 0x20 PUSH1 0x0 KECCAK256 SWAP1 PUSH1 0x2 MUL ADD PUSH1 0x1 ADD DUP2 SWAP1 SSTORE POP PUSH1 0x0 SWAP2 POP POP PUSH2 0xCAB JUMP JUMPDEST PUSH1 0x1 PUSH1 0x1 PUSH1 0xE0 SHL SUB NOT DUP2 AND DUP2 EQ PUSH2 0xD26 JUMPI PUSH1 0x0 DUP1 REVERT JUMPDEST PUSH1 0x0 PUSH1 0x20 DUP3 DUP5 SUB SLT ISZERO PUSH2 0x3ADA JUMPI PUSH1 0x0 DUP1 REVERT JUMPDEST DUP2 CALLDATALOAD PUSH2 0xCAB DUP2 PUSH2 0x3AB2 JUMP JUMPDEST PUSH1 0x0 JUMPDEST DUP4 DUP2 LT ISZERO PUSH2 0x3B00 JUMPI DUP2 DUP2 ADD MLOAD DUP4 DUP3 ADD MSTORE PUSH1 0x20 ADD PUSH2 0x3AE8 JUMP JUMPDEST POP POP PUSH1 0x0 SWAP2 ADD MSTORE JUMP JUMPDEST PUSH1 0x0 DUP2 MLOAD DUP1 DUP5 MSTORE PUSH2 0x3B21 DUP2 PUSH1 0x20 DUP7 ADD PUSH1 0x20 DUP7 ADD PUSH2 0x3AE5 JUMP JUMPDEST PUSH1 0x1F ADD PUSH1 0x1F NOT AND SWAP3 SWAP1 SWAP3 ADD PUSH1 0x20 ADD SWAP3 SWAP2 POP POP JUMP JUMPDEST PUSH1 0x20 DUP2 MSTORE PUSH1 0x0 PUSH2 0xCAB PUSH1 0x20 DUP4 ADD DUP5 PUSH2 0x3B09 JUMP JUMPDEST PUSH1 0x0 PUSH1 0x20 DUP3 DUP5 SUB SLT ISZERO PUSH2 0x3B5A JUMPI PUSH1 0x0 DUP1 REVERT JUMPDEST POP CALLDATALOAD SWAP2 SWAP1 POP JUMP JUMPDEST PUSH1 0x1 PUSH1 0x1 PUSH1 0xA0 SHL SUB DUP2 AND DUP2 EQ PUSH2 0xD26 JUMPI PUSH1 0x0 DUP1 REVERT JUMPDEST PUSH1 0x0 DUP1 PUSH1 0x40 DUP4 DUP6 SUB SLT ISZERO PUSH2 0x3B89 JUMPI PUSH1 0x0 DUP1 REVERT JUMPDEST DUP3 CALLDATALOAD PUSH2 0x3B94 DUP2 PUSH2 0x3B61 JUMP JUMPDEST SWAP5 PUSH1 0x20 SWAP4 SWAP1 SWAP4 ADD CALLDATALOAD SWAP4 POP POP POP JUMP JUMPDEST PUSH1 0x0 DUP1 DUP4 PUSH1 0x1F DUP5 ADD SLT PUSH2 0x3BB4 JUMPI PUSH1 0x0 DUP1 REVERT JUMPDEST POP DUP2 CALLDATALOAD PUSH8 0xFFFFFFFFFFFFFFFF DUP2 GT ISZERO PUSH2 0x3BCC JUMPI PUSH1 0x0 DUP1 REVERT JUMPDEST PUSH1 0x20 DUP4 ADD SWAP2 POP DUP4 PUSH1 0x20 DUP3 DUP6 ADD ADD GT ISZERO PUSH2 0x318C JUMPI PUSH1 0x0 DUP1 REVERT JUMPDEST PUSH1 0x0 DUP1 PUSH1 0x0 PUSH1 0x40 DUP5 DUP7 SUB SLT ISZERO PUSH2 0x3BF9 JUMPI PUSH1 0x0 DUP1 REVERT JUMPDEST DUP4 CALLDATALOAD SWAP3 POP PUSH1 0x20 DUP5 ADD CALLDATALOAD PUSH8 0xFFFFFFFFFFFFFFFF DUP2 GT ISZERO PUSH2 0x3C17 JUMPI PUSH1 0x0 DUP1 REVERT JUMPDEST PUSH2 0x3C23 DUP7 DUP3 DUP8 ADD PUSH2 0x3BA2 JUMP JUMPDEST SWAP5 SWAP8 SWAP1 SWAP7 POP SWAP4 SWAP5 POP POP POP POP JUMP JUMPDEST PUSH1 0x0 DUP1 PUSH1 0x0 PUSH1 0x60 DUP5 DUP7 SUB SLT ISZERO PUSH2 0x3C45 JUMPI PUSH1 0x0 DUP1 REVERT JUMPDEST DUP4 CALLDATALOAD PUSH2 0x3C50 DUP2 PUSH2 0x3B61 JUMP JUMPDEST SWAP3 POP PUSH1 0x20 DUP5 ADD CALLDATALOAD PUSH2 0x3C60 DUP2 PUSH2 0x3B61 JUMP JUMPDEST SWAP3 SWAP6 SWAP3 SWAP5 POP POP POP PUSH1 0x40 SWAP2 SWAP1 SWAP2 ADD CALLDATALOAD SWAP1 JUMP JUMPDEST PUSH1 0x0 DUP1 PUSH1 0x20 DUP4 DUP6 SUB SLT ISZERO PUSH2 0x3C84 JUMPI PUSH1 0x0 DUP1 REVERT JUMPDEST DUP3 CALLDATALOAD PUSH8 0xFFFFFFFFFFFFFFFF DUP2 GT ISZERO PUSH2 0x3C9B JUMPI PUSH1 0x0 DUP1 REVERT JUMPDEST PUSH2 0x3CA7 DUP6 DUP3 DUP7 ADD PUSH2 0x3BA2 JUMP JUMPDEST SWAP1 SWAP7 SWAP1 SWAP6 POP SWAP4 POP POP POP POP JUMP JUMPDEST PUSH1 0x0 PUSH1 0x20 DUP3 DUP5 SUB SLT ISZERO PUSH2 0x3CC5 JUMPI PUSH1 0x0 DUP1 REVERT JUMPDEST DUP2 CALLDATALOAD PUSH2 0xCAB DUP2 PUSH2 0x3B61 JUMP JUMPDEST PUSH1 0x0 DUP2 MLOAD DUP1 DUP5 MSTORE PUSH1 0x20 DUP1 DUP6 ADD SWAP5 POP DUP1 DUP5 ADD PUSH1 0x0 JUMPDEST DUP4 DUP2 LT ISZERO PUSH2 0x3D00 JUMPI DUP2 MLOAD DUP8 MSTORE SWAP6 DUP3 ADD SWAP6 SWAP1 DUP3 ADD SWAP1 PUSH1 0x1 ADD PUSH2 0x3CE4 JUMP JUMPDEST POP SWAP5 SWAP6 SWAP5 POP POP POP POP POP JUMP JUMPDEST PUSH1 0x20 DUP2 MSTORE PUSH1 0x0 PUSH2 0xCAB PUSH1 0x20 DUP4 ADD DUP5 PUSH2 0x3CD0 JUMP JUMPDEST DUP1 ISZERO ISZERO DUP2 EQ PUSH2 0xD26 JUMPI PUSH1 0x0 DUP1 REVERT JUMPDEST PUSH1 0x0 DUP1 PUSH1 0x0 PUSH1 0x60 DUP5 DUP7 SUB SLT ISZERO PUSH2 0x3D41 JUMPI PUSH1 0x0 DUP1 REVERT JUMPDEST DUP4 CALLDATALOAD PUSH2 0x3D4C DUP2 PUSH2 0x3B61 JUMP JUMPDEST SWAP3 POP PUSH1 0x20 DUP5 ADD CALLDATALOAD PUSH2 0x3D5C DUP2 PUSH2 0x3B61 JUMP JUMPDEST SWAP2 POP PUSH1 0x40 DUP5 ADD CALLDATALOAD PUSH2 0x3D6C DUP2 PUSH2 0x3D1E JUMP JUMPDEST DUP1 SWAP2 POP POP SWAP3 POP SWAP3 POP SWAP3 JUMP JUMPDEST PUSH4 0x4E487B71 PUSH1 0xE0 SHL PUSH1 0x0 MSTORE PUSH1 0x41 PUSH1 0x4 MSTORE PUSH1 0x24 PUSH1 0x0 REVERT JUMPDEST PUSH1 0x40 MLOAD PUSH1 0x1F DUP3 ADD PUSH1 0x1F NOT AND DUP2 ADD PUSH8 0xFFFFFFFFFFFFFFFF DUP2 GT DUP3 DUP3 LT OR ISZERO PUSH2 0x3DB6 JUMPI PUSH2 0x3DB6 PUSH2 0x3D77 JUMP JUMPDEST PUSH1 0x40 MSTORE SWAP2 SWAP1 POP JUMP JUMPDEST PUSH1 0x0 PUSH8 0xFFFFFFFFFFFFFFFF DUP3 GT ISZERO PUSH2 0x3DD8 JUMPI PUSH2 0x3DD8 PUSH2 0x3D77 JUMP JUMPDEST POP PUSH1 0x5 SHL PUSH1 0x20 ADD SWAP1 JUMP JUMPDEST PUSH1 0x0 PUSH8 0xFFFFFFFFFFFFFFFF DUP4 GT ISZERO PUSH2 0x3DFC JUMPI PUSH2 0x3DFC PUSH2 0x3D77 JUMP JUMPDEST PUSH2 0x3E0F PUSH1 0x1F DUP5 ADD PUSH1 0x1F NOT AND PUSH1 0x20 ADD PUSH2 0x3D8D JUMP JUMPDEST SWAP1 POP DUP3 DUP2 MSTORE DUP4 DUP4 DUP4 ADD GT ISZERO PUSH2 0x3E23 JUMPI PUSH1 0x0 DUP1 REVERT JUMPDEST DUP3 DUP3 PUSH1 0x20 DUP4 ADD CALLDATACOPY PUSH1 0x0 PUSH1 0x20 DUP5 DUP4 ADD ADD MSTORE SWAP4 SWAP3 POP POP POP JUMP JUMPDEST PUSH1 0x0 DUP3 PUSH1 0x1F DUP4 ADD SLT PUSH2 0x3E4B JUMPI PUSH1 0x0 DUP1 REVERT JUMPDEST PUSH2 0xCAB DUP4 DUP4 CALLDATALOAD PUSH1 0x20 DUP6 ADD PUSH2 0x3DE2 JUMP JUMPDEST PUSH1 0x0 DUP3 PUSH1 0x1F DUP4 ADD SLT PUSH2 0x3E6B JUMPI PUSH1 0x0 DUP1 REVERT JUMPDEST DUP2 CALLDATALOAD PUSH1 0x20 PUSH2 0x3E80 PUSH2 0x3E7B DUP4 PUSH2 0x3DBE JUMP JUMPDEST PUSH2 0x3D8D JUMP JUMPDEST DUP3 DUP2 MSTORE PUSH1 0x5 SWAP3 SWAP1 SWAP3 SHL DUP5 ADD DUP2 ADD SWAP2 DUP2 DUP2 ADD SWAP1 DUP7 DUP5 GT ISZERO PUSH2 0x3E9F JUMPI PUSH1 0x0 DUP1 REVERT JUMPDEST DUP3 DUP7 ADD JUMPDEST DUP5 DUP2 LT ISZERO PUSH2 0x3EBA JUMPI DUP1 CALLDATALOAD DUP4 MSTORE SWAP2 DUP4 ADD SWAP2 DUP4 ADD PUSH2 0x3EA3 JUMP JUMPDEST POP SWAP7 SWAP6 POP POP POP POP POP POP JUMP JUMPDEST PUSH1 0x0 DUP1 PUSH1 0x0 PUSH1 0x60 DUP5 DUP7 SUB SLT ISZERO PUSH2 0x3EDA JUMPI PUSH1 0x0 DUP1 REVERT JUMPDEST DUP4 CALLDATALOAD PUSH2 0x3EE5 DUP2 PUSH2 0x3B61 JUMP JUMPDEST SWAP3 POP PUSH1 0x20 DUP5 DUP2 ADD CALLDATALOAD PUSH8 0xFFFFFFFFFFFFFFFF DUP1 DUP3 GT ISZERO PUSH2 0x3F03 JUMPI PUSH1 0x0 DUP1 REVERT JUMPDEST DUP2 DUP8 ADD SWAP2 POP DUP8 PUSH1 0x1F DUP4 ADD SLT PUSH2 0x3F17 JUMPI PUSH1 0x0 DUP1 REVERT JUMPDEST DUP2 CALLDATALOAD PUSH2 0x3F25 PUSH2 0x3E7B DUP3 PUSH2 0x3DBE JUMP JUMPDEST DUP2 DUP2 MSTORE PUSH1 0x5 SWAP2 SWAP1 SWAP2 SHL DUP4 ADD DUP5 ADD SWAP1 DUP5 DUP2 ADD SWAP1 DUP11 DUP4 GT ISZERO PUSH2 0x3F44 JUMPI PUSH1 0x0 DUP1 REVERT JUMPDEST DUP6 DUP6 ADD JUMPDEST DUP4 DUP2 LT ISZERO PUSH2 0x3F7C JUMPI DUP1 CALLDATALOAD DUP6 DUP2 GT ISZERO PUSH2 0x3F60 JUMPI PUSH1 0x0 DUP1 DUP2 REVERT JUMPDEST PUSH2 0x3F6E DUP14 DUP10 DUP4 DUP11 ADD ADD PUSH2 0x3E3A JUMP JUMPDEST DUP5 MSTORE POP SWAP2 DUP7 ADD SWAP2 DUP7 ADD PUSH2 0x3F48 JUMP JUMPDEST POP SWAP7 POP POP POP PUSH1 0x40 DUP8 ADD CALLDATALOAD SWAP3 POP DUP1 DUP4 GT ISZERO PUSH2 0x3F95 JUMPI PUSH1 0x0 DUP1 REVERT JUMPDEST POP POP PUSH2 0x3FA3 DUP7 DUP3 DUP8 ADD PUSH2 0x3E5A JUMP JUMPDEST SWAP2 POP POP SWAP3 POP SWAP3 POP SWAP3 JUMP JUMPDEST PUSH1 0x0 DUP1 PUSH1 0x40 DUP4 DUP6 SUB SLT ISZERO PUSH2 0x3FC0 JUMPI PUSH1 0x0 DUP1 REVERT JUMPDEST DUP3 CALLDATALOAD PUSH2 0x3FCB DUP2 PUSH2 0x3B61 JUMP JUMPDEST SWAP2 POP PUSH1 0x20 DUP4 ADD CALLDATALOAD PUSH2 0x3FDB DUP2 PUSH2 0x3D1E JUMP JUMPDEST DUP1 SWAP2 POP POP SWAP3 POP SWAP3 SWAP1 POP JUMP JUMPDEST PUSH1 0x0 DUP1 PUSH1 0x0 DUP1 PUSH1 0x80 DUP6 DUP8 SUB SLT ISZERO PUSH2 0x3FFC JUMPI PUSH1 0x0 DUP1 REVERT JUMPDEST DUP5 CALLDATALOAD PUSH2 0x4007 DUP2 PUSH2 0x3B61 JUMP JUMPDEST SWAP4 POP PUSH1 0x20 DUP6 ADD CALLDATALOAD PUSH2 0x4017 DUP2 PUSH2 0x3B61 JUMP JUMPDEST SWAP3 POP PUSH1 0x40 DUP6 ADD CALLDATALOAD SWAP2 POP PUSH1 0x60 DUP6 ADD CALLDATALOAD PUSH8 0xFFFFFFFFFFFFFFFF DUP2 GT ISZERO PUSH2 0x403A JUMPI PUSH1 0x0 DUP1 REVERT JUMPDEST DUP6 ADD PUSH1 0x1F DUP2 ADD DUP8 SGT PUSH2 0x404B JUMPI PUSH1 0x0 DUP1 REVERT JUMPDEST PUSH2 0x405A DUP8 DUP3 CALLDATALOAD PUSH1 0x20 DUP5 ADD PUSH2 0x3DE2 JUMP JUMPDEST SWAP2 POP POP SWAP3 SWAP6 SWAP2 SWAP5 POP SWAP3 POP JUMP JUMPDEST PUSH1 0x0 DUP1 PUSH1 0x0 PUSH1 0x60 DUP5 DUP7 SUB SLT ISZERO PUSH2 0x407B JUMPI PUSH1 0x0 DUP1 REVERT JUMPDEST DUP4 CALLDATALOAD PUSH2 0x4086 DUP2 PUSH2 0x3B61 JUMP JUMPDEST SWAP6 PUSH1 0x20 DUP6 ADD CALLDATALOAD SWAP6 POP PUSH1 0x40 SWAP1 SWAP5 ADD CALLDATALOAD SWAP4 SWAP3 POP POP POP JUMP JUMPDEST PUSH1 0x0 DUP1 PUSH1 0x40 DUP4 DUP6 SUB SLT ISZERO PUSH2 0x40AE JUMPI PUSH1 0x0 DUP1 REVERT JUMPDEST DUP3 CALLDATALOAD PUSH2 0x40B9 DUP2 PUSH2 0x3B61 JUMP JUMPDEST SWAP2 POP PUSH1 0x20 DUP4 ADD CALLDATALOAD PUSH2 0x3FDB DUP2 PUSH2 0x3B61 JUMP JUMPDEST PUSH1 0x0 DUP1 PUSH1 0x0 PUSH1 0x60 DUP5 DUP7 SUB SLT ISZERO PUSH2 0x40DE JUMPI PUSH1 0x0 DUP1 REVERT JUMPDEST DUP4 CALLDATALOAD PUSH2 0x40E9 DUP2 PUSH2 0x3B61 JUMP JUMPDEST SWAP3 POP PUSH1 0x20 DUP5 ADD CALLDATALOAD PUSH8 0xFFFFFFFFFFFFFFFF DUP2 GT ISZERO PUSH2 0x4105 JUMPI PUSH1 0x0 DUP1 REVERT JUMPDEST PUSH2 0x4111 DUP7 DUP3 DUP8 ADD PUSH2 0x3E3A JUMP JUMPDEST SWAP3 POP POP PUSH1 0x40 DUP5 ADD CALLDATALOAD SWAP1 POP SWAP3 POP SWAP3 POP SWAP3 JUMP JUMPDEST PUSH1 0x1 DUP2 DUP2 SHR SWAP1 DUP3 AND DUP1 PUSH2 0x4136 JUMPI PUSH1 0x7F DUP3 AND SWAP2 POP JUMPDEST PUSH1 0x20 DUP3 LT DUP2 SUB PUSH2 0x4156 JUMPI PUSH4 0x4E487B71 PUSH1 0xE0 SHL PUSH1 0x0 MSTORE PUSH1 0x22 PUSH1 0x4 MSTORE PUSH1 0x24 PUSH1 0x0 REVERT JUMPDEST POP SWAP2 SWAP1 POP JUMP JUMPDEST PUSH1 0x0 PUSH1 0x20 DUP3 DUP5 SUB SLT ISZERO PUSH2 0x416E JUMPI PUSH1 0x0 DUP1 REVERT JUMPDEST POP MLOAD SWAP2 SWAP1 POP JUMP JUMPDEST PUSH1 0x1 PUSH1 0x1 PUSH1 0xA0 SHL SUB DUP4 AND DUP2 MSTORE PUSH1 0x0 PUSH1 0x20 PUSH1 0x40 DUP2 DUP5 ADD MSTORE PUSH1 0x0 DUP5 SLOAD PUSH2 0x4198 DUP2 PUSH2 0x4122 JUMP JUMPDEST DUP1 PUSH1 0x40 DUP8 ADD MSTORE PUSH1 0x60 PUSH1 0x1 DUP1 DUP5 AND PUSH1 0x0 DUP2 EQ PUSH2 0x41BA JUMPI PUSH1 0x1 DUP2 EQ PUSH2 0x41D4 JUMPI PUSH2 0x4202 JUMP JUMPDEST PUSH1 0xFF NOT DUP6 AND DUP10 DUP5 ADD MSTORE DUP4 ISZERO ISZERO PUSH1 0x5 SHL DUP10 ADD DUP4 ADD SWAP6 POP PUSH2 0x4202 JUMP JUMPDEST DUP10 PUSH1 0x0 MSTORE DUP7 PUSH1 0x0 KECCAK256 PUSH1 0x0 JUMPDEST DUP6 DUP2 LT ISZERO PUSH2 0x41FA JUMPI DUP2 SLOAD DUP12 DUP3 ADD DUP7 ADD MSTORE SWAP1 DUP4 ADD SWAP1 DUP9 ADD PUSH2 0x41DF JUMP JUMPDEST DUP11 ADD DUP5 ADD SWAP7 POP POP JUMPDEST POP SWAP4 SWAP10 SWAP9 POP POP POP POP POP POP POP POP POP JUMP JUMPDEST PUSH1 0x0 PUSH1 0x20 DUP3 DUP5 SUB SLT ISZERO PUSH2 0x4223 JUMPI PUSH1 0x0 DUP1 REVERT JUMPDEST DUP2 MLOAD PUSH2 0xCAB DUP2 PUSH2 0x3D1E JUMP JUMPDEST PUSH4 0x4E487B71 PUSH1 0xE0 SHL PUSH1 0x0 MSTORE PUSH1 0x32 PUSH1 0x4 MSTORE PUSH1 0x24 PUSH1 0x0 REVERT JUMPDEST PUSH4 0x4E487B71 PUSH1 0xE0 SHL PUSH1 0x0 MSTORE PUSH1 0x11 PUSH1 0x4 MSTORE PUSH1 0x24 PUSH1 0x0 REVERT JUMPDEST PUSH1 0x0 PUSH1 0x1 DUP3 ADD PUSH2 0x426C JUMPI PUSH2 0x426C PUSH2 0x4244 JUMP JUMPDEST POP PUSH1 0x1 ADD SWAP1 JUMP JUMPDEST PUSH1 0x0 PUSH1 0x40 DUP3 ADD PUSH1 0x40 DUP4 MSTORE DUP1 DUP6 MLOAD DUP1 DUP4 MSTORE PUSH1 0x60 DUP6 ADD SWAP2 POP PUSH1 0x60 DUP2 PUSH1 0x5 SHL DUP7 ADD ADD SWAP3 POP PUSH1 0x20 DUP1 DUP9 ADD PUSH1 0x0 JUMPDEST DUP4 DUP2 LT ISZERO PUSH2 0x42CA JUMPI PUSH1 0x5F NOT DUP9 DUP8 SUB ADD DUP6 MSTORE PUSH2 0x42B8 DUP7 DUP4 MLOAD PUSH2 0x3B09 JUMP JUMPDEST SWAP6 POP SWAP4 DUP3 ADD SWAP4 SWAP1 DUP3 ADD SWAP1 PUSH1 0x1 ADD PUSH2 0x429C JUMP JUMPDEST POP POP DUP6 DUP5 SUB DUP2 DUP8 ADD MSTORE POP POP POP PUSH2 0x42E0 DUP2 DUP6 PUSH2 0x3CD0 JUMP JUMPDEST SWAP6 SWAP5 POP POP POP POP POP JUMP JUMPDEST PUSH1 0x0 DUP4 MLOAD PUSH2 0x42FB DUP2 DUP5 PUSH1 0x20 DUP9 ADD PUSH2 0x3AE5 JUMP JUMPDEST DUP4 MLOAD SWAP1 DUP4 ADD SWAP1 PUSH2 0x430F DUP2 DUP4 PUSH1 0x20 DUP9 ADD PUSH2 0x3AE5 JUMP JUMPDEST ADD SWAP5 SWAP4 POP POP POP POP JUMP JUMPDEST PUSH1 0x40 DUP2 MSTORE PUSH1 0x0 PUSH2 0x432B PUSH1 0x40 DUP4 ADD DUP6 PUSH2 0x3B09 JUMP JUMPDEST SWAP1 POP DUP3 PUSH1 0x20 DUP4 ADD MSTORE SWAP4 SWAP3 POP POP POP JUMP JUMPDEST PUSH1 0x1F DUP3 GT ISZERO PUSH2 0xAD5 JUMPI PUSH1 0x0 DUP2 DUP2 MSTORE PUSH1 0x20 DUP2 KECCAK256 PUSH1 0x1F DUP6 ADD PUSH1 0x5 SHR DUP2 ADD PUSH1 0x20 DUP7 LT ISZERO PUSH2 0x4361 JUMPI POP DUP1 JUMPDEST PUSH1 0x1F DUP6 ADD PUSH1 0x5 SHR DUP3 ADD SWAP2 POP JUMPDEST DUP2 DUP2 LT ISZERO PUSH2 0x4380 JUMPI DUP3 DUP2 SSTORE PUSH1 0x1 ADD PUSH2 0x436D JUMP JUMPDEST POP POP POP POP POP POP JUMP JUMPDEST DUP2 MLOAD PUSH8 0xFFFFFFFFFFFFFFFF DUP2 GT ISZERO PUSH2 0x43A2 JUMPI PUSH2 0x43A2 PUSH2 0x3D77 JUMP JUMPDEST PUSH2 0x43B6 DUP2 PUSH2 0x43B0 DUP5 SLOAD PUSH2 0x4122 JUMP JUMPDEST DUP5 PUSH2 0x433A JUMP JUMPDEST PUSH1 0x20 DUP1 PUSH1 0x1F DUP4 GT PUSH1 0x1 DUP2 EQ PUSH2 0x43EB JUMPI PUSH1 0x0 DUP5 ISZERO PUSH2 0x43D3 JUMPI POP DUP6 DUP4 ADD MLOAD JUMPDEST PUSH1 0x0 NOT PUSH1 0x3 DUP7 SWAP1 SHL SHR NOT AND PUSH1 0x1 DUP6 SWAP1 SHL OR DUP6 SSTORE PUSH2 0x4380 JUMP JUMPDEST PUSH1 0x0 DUP6 DUP2 MSTORE PUSH1 0x20 DUP2 KECCAK256 PUSH1 0x1F NOT DUP7 AND SWAP2 JUMPDEST DUP3 DUP2 LT ISZERO PUSH2 0x441A JUMPI DUP9 DUP7 ADD MLOAD DUP3 SSTORE SWAP5 DUP5 ADD SWAP5 PUSH1 0x1 SWAP1 SWAP2 ADD SWAP1 DUP5 ADD PUSH2 0x43FB JUMP JUMPDEST POP DUP6 DUP3 LT ISZERO PUSH2 0x4438 JUMPI DUP8 DUP6 ADD MLOAD PUSH1 0x0 NOT PUSH1 0x3 DUP9 SWAP1 SHL PUSH1 0xF8 AND SHR NOT AND DUP2 SSTORE JUMPDEST POP POP POP POP POP PUSH1 0x1 SWAP1 DUP2 SHL ADD SWAP1 SSTORE POP JUMP JUMPDEST PUSH4 0x4E487B71 PUSH1 0xE0 SHL PUSH1 0x0 MSTORE PUSH1 0x12 PUSH1 0x4 MSTORE PUSH1 0x24 PUSH1 0x0 REVERT JUMPDEST PUSH1 0x0 DUP3 PUSH2 0x446D JUMPI PUSH2 0x446D PUSH2 0x4448 JUMP JUMPDEST POP DIV SWAP1 JUMP JUMPDEST DUP2 DUP2 SUB DUP2 DUP2 GT ISZERO PUSH2 0x81D JUMPI PUSH2 0x81D PUSH2 0x4244 JUMP JUMPDEST PUSH1 0x0 DUP3 PUSH2 0x4494 JUMPI PUSH2 0x4494 PUSH2 0x4448 JUMP JUMPDEST POP MOD SWAP1 JUMP JUMPDEST DUP1 DUP3 ADD DUP1 DUP3 GT ISZERO PUSH2 0x81D JUMPI PUSH2 0x81D PUSH2 0x4244 JUMP JUMPDEST DUP1 DUP3 MUL DUP2 ISZERO DUP3 DUP3 DIV DUP5 EQ OR PUSH2 0x81D JUMPI PUSH2 0x81D PUSH2 0x4244 JUMP JUMPDEST PUSH4 0x4E487B71 PUSH1 0xE0 SHL PUSH1 0x0 MSTORE PUSH1 0x31 PUSH1 0x4 MSTORE PUSH1 0x24 PUSH1 0x0 REVERT JUMPDEST PUSH1 0x0 PUSH1 0x1 PUSH1 0x1 PUSH1 0xA0 SHL SUB DUP1 DUP8 AND DUP4 MSTORE DUP1 DUP7 AND PUSH1 0x20 DUP5 ADD MSTORE POP DUP4 PUSH1 0x40 DUP4 ADD MSTORE PUSH1 0x80 PUSH1 0x60 DUP4 ADD MSTORE PUSH2 0x450B PUSH1 0x80 DUP4 ADD DUP5 PUSH2 0x3B09 JUMP JUMPDEST SWAP7 SWAP6 POP POP POP POP POP POP JUMP JUMPDEST PUSH1 0x0 PUSH1 0x20 DUP3 DUP5 SUB SLT ISZERO PUSH2 0x4527 JUMPI PUSH1 0x0 DUP1 REVERT JUMPDEST DUP2 MLOAD PUSH2 0xCAB DUP2 PUSH2 0x3AB2 JUMP INVALID 0x4B COINBASE POP CALLDATACOPY ORIGIN BALANCE GASPRICE KECCAK256 0x4F PUSH24 0x6E657220717565727920666F72206E6F6E6578697374656E PUSH21 0x20746F6B656EA2646970667358221220AFBDE9BA00 SWAP9 0xEB COINBASE MSTORE PUSH14 0xAE51936FD78866BF5B19E292D7D1 SWAP5 0xAC 0xC3 0xA7 DUP10 PUSH13 0x986964736F6C63430008130033 "
        },
        "methodIdentifiers": {
          "acceptedKycLevel()": "1ae878d3",
          "activateOnlyKycAddress()": "a1d5ec4b",
          "adminTransfer(address,address,uint256)": "da72c1e8",
          "approve(address,uint256)": "095ea7b3",
          "approveBySDK(address,uint256)": "e70a86b1",
          "balanceOf(address)": "70a08231",
          "baseURI()": "6c0360eb",
          "burn(uint256)": "42966c68",
          "committee()": "d864e740",
          "envId()": "e79e53dc",
          "executorEnv()": "e91ef59f",
          "exists(uint256)": "4f558e79",
          "externalTransfer(address,address,uint256)": "f71c559c",
          "getApproved(uint256)": "081812fc",
          "internalTransfer(address,address,uint256)": "59e026f7",
          "isActivatedOnlyKycAddress()": "de9c2a6b",
          "isApprovedForAll(address,address)": "e985e9c5",
          "kyc()": "90d6b45f",
          "mint(address,uint256)": "40c10f19",
          "mintWithMetadata(address,string,uint256)": "f1ef2e64",
          "mintWithMetadataBatch(address,string[],uint256[])": "9b9168b8",
          "name()": "06fdde03",
          "owner()": "8da5cb5b",
          "ownerOf(uint256)": "6352211e",
          "pause()": "8456cb59",
          "paused()": "5c975abb",
          "renounceOwnership()": "715018a6",
          "safeTransferFrom(address,address,uint256)": "42842e0e",
          "safeTransferFrom(address,address,uint256,bytes)": "b88d4fde",
          "setAcceptedKycLevel(uint256)": "394b652b",
          "setApprovalForAll(address,bool)": "a22cb465",
          "setApprovalForAllBySDK(address,address,bool)": "8326e454",
          "setBaseURI(string)": "55f804b3",
          "setCommittee(address)": "bddae40e",
          "setExecutorEnv(address)": "678832ce",
          "setKyc(address)": "99c27206",
          "setTokenURI(uint256,string)": "162094c4",
          "setTransferRouter(address)": "c7095909",
          "supportsInterface(bytes4)": "01ffc9a7",
          "symbol()": "95d89b41",
          "tokenByIndex(uint256)": "4f6ccce7",
          "tokenOfOwnerAll(address)": "7571316b",
          "tokenOfOwnerByIndex(address,uint256)": "2f745c59",
          "tokenOfOwnerByPage(address,uint256,uint256)": "d94ca690",
          "tokenURI(uint256)": "c87b56dd",
          "totalSupply()": "18160ddd",
          "transferFrom(address,address,uint256)": "23b872dd",
          "transferFromBySDK(address,address,uint256)": "e7b9b3a6",
          "transferOwnership(address)": "f2fde38b",
          "transferRouter()": "d648e0c8",
          "unpause()": "3f4ba83a"
        }
      }
    }
  }
}